{
  "contractName": "AccountManagement",
  "abi": [
    {
      "inputs": [
        {
          "internalType": "address",
          "name": "_tokenAddress",
          "type": "address"
        }
      ],
      "stateMutability": "nonpayable",
      "type": "constructor"
    },
    {
      "anonymous": false,
      "inputs": [
        {
          "indexed": true,
          "internalType": "address",
          "name": "account",
          "type": "address"
        },
        {
          "indexed": true,
          "internalType": "address",
          "name": "operator",
          "type": "address"
        },
        {
          "indexed": false,
          "internalType": "bool",
          "name": "approved",
          "type": "bool"
        }
      ],
      "name": "ApprovalForAll",
      "type": "event"
    },
    {
      "anonymous": false,
      "inputs": [
        {
          "indexed": false,
          "internalType": "uint256",
          "name": "tokenId",
          "type": "uint256"
        },
        {
          "indexed": false,
          "internalType": "address",
          "name": "auditor",
          "type": "address"
        },
        {
          "indexed": false,
          "internalType": "address",
          "name": "projectOwner",
          "type": "address"
        },
        {
          "indexed": false,
          "internalType": "enum CarbonBase.ApprovalStatus",
          "name": "status",
          "type": "uint8"
        },
        {
          "indexed": false,
          "internalType": "uint256",
          "name": "time",
          "type": "uint256"
        }
      ],
      "name": "CarbonCreditAudited",
      "type": "event"
    },
    {
      "anonymous": false,
      "inputs": [
        {
          "indexed": false,
          "internalType": "uint256",
          "name": "tokenId",
          "type": "uint256"
        },
        {
          "indexed": false,
          "internalType": "address",
          "name": "initialOwner",
          "type": "address"
        },
        {
          "indexed": false,
          "internalType": "uint256",
          "name": "amount",
          "type": "uint256"
        },
        {
          "indexed": false,
          "internalType": "uint256",
          "name": "creationTime",
          "type": "uint256"
        }
      ],
      "name": "CarbonCreditCreated",
      "type": "event"
    },
    {
      "anonymous": false,
      "inputs": [
        {
          "indexed": false,
          "internalType": "uint256",
          "name": "tokenId",
          "type": "uint256"
        },
        {
          "indexed": false,
          "internalType": "address",
          "name": "initialOwner",
          "type": "address"
        },
        {
          "indexed": false,
          "internalType": "uint256",
          "name": "amount",
          "type": "uint256"
        },
        {
          "indexed": false,
          "internalType": "uint256",
          "name": "pricePerCredit",
          "type": "uint256"
        },
        {
          "indexed": false,
          "internalType": "uint256",
          "name": "time",
          "type": "uint256"
        }
      ],
      "name": "CarbonCreditListed",
      "type": "event"
    },
    {
      "anonymous": false,
      "inputs": [
        {
          "indexed": false,
          "internalType": "uint256",
          "name": "tokenId",
          "type": "uint256"
        },
        {
          "indexed": false,
          "internalType": "address",
          "name": "from",
          "type": "address"
        },
        {
          "indexed": false,
          "internalType": "address",
          "name": "to",
          "type": "address"
        },
        {
          "indexed": false,
          "internalType": "uint256",
          "name": "amount",
          "type": "uint256"
        },
        {
          "indexed": false,
          "internalType": "uint256",
          "name": "time",
          "type": "uint256"
        }
      ],
      "name": "CarbonCreditPurchased",
      "type": "event"
    },
    {
      "anonymous": false,
      "inputs": [
        {
          "indexed": false,
          "internalType": "uint256",
          "name": "tokenId",
          "type": "uint256"
        },
        {
          "indexed": false,
          "internalType": "address",
          "name": "owner",
          "type": "address"
        },
        {
          "indexed": false,
          "internalType": "uint256",
          "name": "amount",
          "type": "uint256"
        },
        {
          "indexed": false,
          "internalType": "uint256",
          "name": "time",
          "type": "uint256"
        }
      ],
      "name": "CarbonCreditRetired",
      "type": "event"
    },
    {
      "anonymous": false,
      "inputs": [
        {
          "indexed": true,
          "internalType": "address",
          "name": "previousOwner",
          "type": "address"
        },
        {
          "indexed": true,
          "internalType": "address",
          "name": "newOwner",
          "type": "address"
        }
      ],
      "name": "OwnershipTransferred",
      "type": "event"
    },
    {
      "anonymous": false,
      "inputs": [
        {
          "indexed": true,
          "internalType": "address",
          "name": "operator",
          "type": "address"
        },
        {
          "indexed": true,
          "internalType": "address",
          "name": "from",
          "type": "address"
        },
        {
          "indexed": true,
          "internalType": "address",
          "name": "to",
          "type": "address"
        },
        {
          "indexed": false,
          "internalType": "uint256[]",
          "name": "ids",
          "type": "uint256[]"
        },
        {
          "indexed": false,
          "internalType": "uint256[]",
          "name": "values",
          "type": "uint256[]"
        }
      ],
      "name": "TransferBatch",
      "type": "event"
    },
    {
      "anonymous": false,
      "inputs": [
        {
          "indexed": true,
          "internalType": "address",
          "name": "operator",
          "type": "address"
        },
        {
          "indexed": true,
          "internalType": "address",
          "name": "from",
          "type": "address"
        },
        {
          "indexed": true,
          "internalType": "address",
          "name": "to",
          "type": "address"
        },
        {
          "indexed": false,
          "internalType": "uint256",
          "name": "id",
          "type": "uint256"
        },
        {
          "indexed": false,
          "internalType": "uint256",
          "name": "value",
          "type": "uint256"
        }
      ],
      "name": "TransferSingle",
      "type": "event"
    },
    {
      "anonymous": false,
      "inputs": [
        {
          "indexed": false,
          "internalType": "string",
          "name": "value",
          "type": "string"
        },
        {
          "indexed": true,
          "internalType": "uint256",
          "name": "id",
          "type": "uint256"
        }
      ],
      "name": "URI",
      "type": "event"
    },
    {
      "inputs": [
        {
          "internalType": "address",
          "name": "account",
          "type": "address"
        },
        {
          "internalType": "uint256",
          "name": "id",
          "type": "uint256"
        }
      ],
      "name": "balanceOf",
      "outputs": [
        {
          "internalType": "uint256",
          "name": "",
          "type": "uint256"
        }
      ],
      "stateMutability": "view",
      "type": "function",
      "constant": true
    },
    {
      "inputs": [
        {
          "internalType": "address[]",
          "name": "accounts",
          "type": "address[]"
        },
        {
          "internalType": "uint256[]",
          "name": "ids",
          "type": "uint256[]"
        }
      ],
      "name": "balanceOfBatch",
      "outputs": [
        {
          "internalType": "uint256[]",
          "name": "",
          "type": "uint256[]"
        }
      ],
      "stateMutability": "view",
      "type": "function",
      "constant": true
    },
    {
      "inputs": [
        {
          "internalType": "address",
          "name": "account",
          "type": "address"
        },
        {
          "internalType": "uint256",
          "name": "id",
          "type": "uint256"
        },
        {
          "internalType": "uint256",
          "name": "value",
          "type": "uint256"
        }
      ],
      "name": "burn",
      "outputs": [],
      "stateMutability": "nonpayable",
      "type": "function"
    },
    {
      "inputs": [
        {
          "internalType": "address",
          "name": "account",
          "type": "address"
        },
        {
          "internalType": "uint256[]",
          "name": "ids",
          "type": "uint256[]"
        },
        {
          "internalType": "uint256[]",
          "name": "values",
          "type": "uint256[]"
        }
      ],
      "name": "burnBatch",
      "outputs": [],
      "stateMutability": "nonpayable",
      "type": "function"
    },
    {
      "inputs": [
        {
          "internalType": "address",
          "name": "account",
          "type": "address"
        },
        {
          "internalType": "address",
          "name": "operator",
          "type": "address"
        }
      ],
      "name": "isApprovedForAll",
      "outputs": [
        {
          "internalType": "bool",
          "name": "",
          "type": "bool"
        }
      ],
      "stateMutability": "view",
      "type": "function",
      "constant": true
    },
    {
      "inputs": [],
      "name": "owner",
      "outputs": [
        {
          "internalType": "address",
          "name": "",
          "type": "address"
        }
      ],
      "stateMutability": "view",
      "type": "function",
      "constant": true
    },
    {
      "inputs": [],
      "name": "renounceOwnership",
      "outputs": [],
      "stateMutability": "nonpayable",
      "type": "function"
    },
    {
      "inputs": [
        {
          "internalType": "address",
          "name": "from",
          "type": "address"
        },
        {
          "internalType": "address",
          "name": "to",
          "type": "address"
        },
        {
          "internalType": "uint256[]",
          "name": "ids",
          "type": "uint256[]"
        },
        {
          "internalType": "uint256[]",
          "name": "amounts",
          "type": "uint256[]"
        },
        {
          "internalType": "bytes",
          "name": "data",
          "type": "bytes"
        }
      ],
      "name": "safeBatchTransferFrom",
      "outputs": [],
      "stateMutability": "nonpayable",
      "type": "function"
    },
    {
      "inputs": [
        {
          "internalType": "address",
          "name": "from",
          "type": "address"
        },
        {
          "internalType": "address",
          "name": "to",
          "type": "address"
        },
        {
          "internalType": "uint256",
          "name": "id",
          "type": "uint256"
        },
        {
          "internalType": "uint256",
          "name": "amount",
          "type": "uint256"
        },
        {
          "internalType": "bytes",
          "name": "data",
          "type": "bytes"
        }
      ],
      "name": "safeTransferFrom",
      "outputs": [],
      "stateMutability": "nonpayable",
      "type": "function"
    },
    {
      "inputs": [
        {
          "internalType": "address",
          "name": "operator",
          "type": "address"
        },
        {
          "internalType": "bool",
          "name": "approved",
          "type": "bool"
        }
      ],
      "name": "setApprovalForAll",
      "outputs": [],
      "stateMutability": "nonpayable",
      "type": "function"
    },
    {
      "inputs": [
        {
          "internalType": "bytes4",
          "name": "interfaceId",
          "type": "bytes4"
        }
      ],
      "name": "supportsInterface",
      "outputs": [
        {
          "internalType": "bool",
          "name": "",
          "type": "bool"
        }
      ],
      "stateMutability": "view",
      "type": "function",
      "constant": true
    },
    {
      "inputs": [
        {
          "internalType": "address",
          "name": "newOwner",
          "type": "address"
        }
      ],
      "name": "transferOwnership",
      "outputs": [],
      "stateMutability": "nonpayable",
      "type": "function"
    },
    {
      "inputs": [
        {
          "internalType": "uint256",
          "name": "tokenId",
          "type": "uint256"
        }
      ],
      "name": "uri",
      "outputs": [
        {
          "internalType": "string",
          "name": "",
          "type": "string"
        }
      ],
      "stateMutability": "view",
      "type": "function",
      "constant": true
    },
    {
      "inputs": [
        {
          "internalType": "address",
          "name": "_authorizedContract",
          "type": "address"
        }
      ],
      "name": "setAuthorizedContract",
      "outputs": [],
      "stateMutability": "nonpayable",
      "type": "function"
    },
    {
      "inputs": [
        {
          "internalType": "address",
          "name": "account",
          "type": "address"
        }
      ],
      "name": "checkAccountRegistered",
      "outputs": [
        {
          "internalType": "bool",
          "name": "",
          "type": "bool"
        }
      ],
      "stateMutability": "view",
      "type": "function",
      "constant": true
    },
    {
      "inputs": [
        {
          "internalType": "address",
          "name": "account",
          "type": "address"
        }
      ],
      "name": "getAccountTotalCredits",
      "outputs": [
        {
          "internalType": "uint256",
          "name": "",
          "type": "uint256"
        }
      ],
      "stateMutability": "view",
      "type": "function",
      "constant": true
    },
    {
      "inputs": [
        {
          "internalType": "address",
          "name": "account",
          "type": "address"
        },
        {
          "internalType": "uint256",
          "name": "totalCredits",
          "type": "uint256"
        }
      ],
      "name": "setAccountTotalCredits",
      "outputs": [],
      "stateMutability": "nonpayable",
      "type": "function"
    },
    {
      "inputs": [
        {
          "internalType": "address",
          "name": "account",
          "type": "address"
        }
      ],
      "name": "getAccountTotalRetire",
      "outputs": [
        {
          "internalType": "uint256",
          "name": "",
          "type": "uint256"
        }
      ],
      "stateMutability": "view",
      "type": "function",
      "constant": true
    },
    {
      "inputs": [
        {
          "internalType": "address",
          "name": "account",
          "type": "address"
        },
        {
          "internalType": "uint256",
          "name": "totalRetire",
          "type": "uint256"
        }
      ],
      "name": "setAccountTotalRetire",
      "outputs": [],
      "stateMutability": "nonpayable",
      "type": "function"
    },
    {
      "inputs": [],
      "name": "getAccountIdsCount",
      "outputs": [
        {
          "internalType": "uint256",
          "name": "",
          "type": "uint256"
        }
      ],
      "stateMutability": "view",
      "type": "function",
      "constant": true
    },
    {
      "inputs": [
        {
          "internalType": "address",
          "name": "auditor",
          "type": "address"
        }
      ],
      "name": "isAuditor",
      "outputs": [
        {
          "internalType": "bool",
          "name": "",
          "type": "bool"
        }
      ],
      "stateMutability": "view",
      "type": "function",
      "constant": true
    },
    {
      "inputs": [
        {
          "internalType": "uint256",
          "name": "index",
          "type": "uint256"
        }
      ],
      "name": "getAccountByIndex",
      "outputs": [
        {
          "internalType": "uint256",
          "name": "",
          "type": "uint256"
        }
      ],
      "stateMutability": "view",
      "type": "function",
      "constant": true
    },
    {
      "inputs": [
        {
          "internalType": "address",
          "name": "account",
          "type": "address"
        }
      ],
      "name": "getAccountByAddress",
      "outputs": [
        {
          "components": [
            {
              "internalType": "address",
              "name": "addr",
              "type": "address"
            },
            {
              "internalType": "uint256",
              "name": "totalCredits",
              "type": "uint256"
            },
            {
              "internalType": "uint256",
              "name": "totalRetire",
              "type": "uint256"
            },
            {
              "internalType": "bool",
              "name": "isAuditor",
              "type": "bool"
            },
            {
              "internalType": "uint256",
              "name": "registeredAt",
              "type": "uint256"
            }
          ],
          "internalType": "struct AccountManagement.Account",
          "name": "",
          "type": "tuple"
        }
      ],
      "stateMutability": "view",
      "type": "function",
      "constant": true
    },
    {
      "inputs": [],
      "name": "getAllAccounts",
      "outputs": [
        {
          "components": [
            {
              "internalType": "address",
              "name": "addr",
              "type": "address"
            },
            {
              "internalType": "uint256",
              "name": "totalCredits",
              "type": "uint256"
            },
            {
              "internalType": "uint256",
              "name": "totalRetire",
              "type": "uint256"
            },
            {
              "internalType": "bool",
              "name": "isAuditor",
              "type": "bool"
            },
            {
              "internalType": "uint256",
              "name": "registeredAt",
              "type": "uint256"
            }
          ],
          "internalType": "struct AccountManagement.Account[]",
          "name": "",
          "type": "tuple[]"
        }
      ],
      "stateMutability": "view",
      "type": "function",
      "constant": true
    },
    {
      "inputs": [
        {
          "internalType": "address",
          "name": "account",
          "type": "address"
        },
        {
          "internalType": "uint256",
          "name": "totalCredits",
          "type": "uint256"
        },
        {
          "internalType": "bool",
          "name": "isAudit",
          "type": "bool"
        }
      ],
      "name": "registerAccount",
      "outputs": [],
      "stateMutability": "nonpayable",
      "type": "function"
    },
    {
      "inputs": [
        {
          "internalType": "address",
          "name": "addr",
          "type": "address"
        }
      ],
      "name": "removeAccount",
      "outputs": [],
      "stateMutability": "nonpayable",
      "type": "function"
    }
  ],
  "bytecode": "0x608060405260405180602001604052806000815250600390805190602001906200002b929190620001d3565b503480156200003957600080fd5b5060405162004a5838038062004a5883398181016040528101906200005f9190620002ed565b604051806020016040528060008152506200008081620000e960201b60201c565b50620000a1620000956200010560201b60201c565b6200010d60201b60201c565b80600660006101000a81548173ffffffffffffffffffffffffffffffffffffffff021916908373ffffffffffffffffffffffffffffffffffffffff1602179055505062000383565b806002908051906020019062000101929190620001d3565b5050565b600033905090565b6000600560009054906101000a900473ffffffffffffffffffffffffffffffffffffffff16905081600560006101000a81548173ffffffffffffffffffffffffffffffffffffffff021916908373ffffffffffffffffffffffffffffffffffffffff1602179055508173ffffffffffffffffffffffffffffffffffffffff168173ffffffffffffffffffffffffffffffffffffffff167f8be0079c531659141344cd1fd0a4f28419497f9722a3daafe3b4186f6b6457e060405160405180910390a35050565b828054620001e1906200034e565b90600052602060002090601f01602090048101928262000205576000855562000251565b82601f106200022057805160ff191683800117855562000251565b8280016001018555821562000251579182015b828111156200025057825182559160200191906001019062000233565b5b50905062000260919062000264565b5090565b5b808211156200027f57600081600090555060010162000265565b5090565b600080fd5b600073ffffffffffffffffffffffffffffffffffffffff82169050919050565b6000620002b58262000288565b9050919050565b620002c781620002a8565b8114620002d357600080fd5b50565b600081519050620002e781620002bc565b92915050565b60006020828403121562000306576200030562000283565b5b60006200031684828501620002d6565b91505092915050565b7f4e487b7100000000000000000000000000000000000000000000000000000000600052602260045260246000fd5b600060028204905060018216806200036757607f821691505b6020821081036200037d576200037c6200031f565b5b50919050565b6146c580620003936000396000f3fe608060405234801561001057600080fd5b506004361061018d5760003560e01c80638da5cb5b116100de578063df5c063911610097578063edc0175211610071578063edc01752146104b6578063f242432a146104e6578063f2fde38b14610502578063f5298aca1461051e5761018d565b8063df5c06391461043a578063e985e9c51461046a578063ebb02adb1461049a5761018d565b80638da5cb5b1461037c5780639aad69e71461039a578063a22cb465146103b6578063af7ff0bb146103d2578063b8e85fec146103ee578063c4740a951461041e5761018d565b80632eb2c2d61161014b5780634e1273f4116101255780634e1273f41461030857806368d1ab00146103385780636b20c45414610356578063715018a6146103725761018d565b80632eb2c2d61461028c57806333dab3bc146102a857806349b90557146102d85761018d565b8062fdd58e1461019257806301ffc9a7146101c257806308e93d0a146101f25780630e89341c146102105780631f15ad1a1461024057806323413d3514610270575b600080fd5b6101ac60048036038101906101a79190612d43565b61053a565b6040516101b99190612d92565b60405180910390f35b6101dc60048036038101906101d79190612e05565b610602565b6040516101e99190612e4d565b60405180910390f35b6101fa6106e4565b6040516102079190612fac565b60405180910390f35b61022a60048036038101906102259190612fce565b61084d565b6040516102379190613094565b60405180910390f35b61025a600480360381019061025591906130b6565b61085f565b6040516102679190612d92565b60405180910390f35b61028a60048036038101906102859190612d43565b610920565b005b6102a660048036038101906102a191906132e0565b610aa4565b005b6102c260048036038101906102bd91906130b6565b610b45565b6040516102cf9190612e4d565b60405180910390f35b6102f260048036038101906102ed91906130b6565b610c03565b6040516102ff9190612e4d565b60405180910390f35b610322600480360381019061031d9190613472565b610cdc565b60405161032f9190613599565b60405180910390f35b610340610df5565b60405161034d9190612d92565b60405180910390f35b610370600480360381019061036b91906135bb565b610e02565b005b61037a610e9f565b005b610384610eb3565b6040516103919190613655565b60405180910390f35b6103b460048036038101906103af91906130b6565b610edd565b005b6103d060048036038101906103cb919061369c565b610f29565b005b6103ec60048036038101906103e79190612d43565b610f3f565b005b610408600480360381019061040391906130b6565b6110c3565b6040516104159190613744565b60405180910390f35b610438600480360381019061043391906130b6565b611253565b005b610454600480360381019061044f91906130b6565b6113eb565b6040516104619190612d92565b60405180910390f35b610484600480360381019061047f919061375f565b6114ac565b6040516104919190612e4d565b60405180910390f35b6104b460048036038101906104af919061379f565b611540565b005b6104d060048036038101906104cb9190612fce565b61165c565b6040516104dd9190612d92565b60405180910390f35b61050060048036038101906104fb91906137f2565b6116cd565b005b61051c600480360381019061051791906130b6565b61176e565b005b61053860048036038101906105339190613889565b6117f1565b005b60008073ffffffffffffffffffffffffffffffffffffffff168373ffffffffffffffffffffffffffffffffffffffff16036105aa576040517f08c379a00000000000000000000000000000000000000000000000000000000081526004016105a19061394e565b60405180910390fd5b60008083815260200190815260200160002060008473ffffffffffffffffffffffffffffffffffffffff1673ffffffffffffffffffffffffffffffffffffffff16815260200190815260200160002054905092915050565b60007fd9b67a26000000000000000000000000000000000000000000000000000000007bffffffffffffffffffffffffffffffffffffffffffffffffffffffff1916827bffffffffffffffffffffffffffffffffffffffffffffffffffffffff191614806106cd57507f0e89341c000000000000000000000000000000000000000000000000000000007bffffffffffffffffffffffffffffffffffffffffffffffffffffffff1916827bffffffffffffffffffffffffffffffffffffffffffffffffffffffff1916145b806106dd57506106dc8261188e565b5b9050919050565b6060600060078054905067ffffffffffffffff811115610707576107066130e8565b5b60405190808252806020026020018201604052801561074057816020015b61072d612c54565b8152602001906001900390816107255790505b50905060005b60078054905081101561084557600061075e8261165c565b90506000600960008381526020019081526020016000209050806040518060a00160405290816000820160009054906101000a900473ffffffffffffffffffffffffffffffffffffffff1673ffffffffffffffffffffffffffffffffffffffff1673ffffffffffffffffffffffffffffffffffffffff16815260200160018201548152602001600282015481526020016003820160009054906101000a900460ff161515151581526020016004820154815250508484815181106108255761082461396e565b5b60200260200101819052505050808061083d906139cc565b915050610746565b508091505090565b6060610858826118f8565b9050919050565b600080600090505b61086f610df5565b8110156109155760006108818261165c565b905060006009600083815260200190815260200160002090508473ffffffffffffffffffffffffffffffffffffffff168160000160009054906101000a900473ffffffffffffffffffffffffffffffffffffffff1673ffffffffffffffffffffffffffffffffffffffff1603610900578060010154935050505061091b565b5050808061090d906139cc565b915050610867565b50600090505b919050565b600860009054906101000a900473ffffffffffffffffffffffffffffffffffffffff1673ffffffffffffffffffffffffffffffffffffffff163373ffffffffffffffffffffffffffffffffffffffff1614806109ae575061097f610eb3565b73ffffffffffffffffffffffffffffffffffffffff163373ffffffffffffffffffffffffffffffffffffffff16145b6109ed576040517f08c379a00000000000000000000000000000000000000000000000000000000081526004016109e490613a60565b60405180910390fd5b60005b6109f8610df5565b811015610a9f576000610a0a8261165c565b905060006009600083815260200190815260200160002090508473ffffffffffffffffffffffffffffffffffffffff168160000160009054906101000a900473ffffffffffffffffffffffffffffffffffffffff1673ffffffffffffffffffffffffffffffffffffffff1603610a8a578381600201819055505050610a9f565b50508080610a97906139cc565b9150506109f0565b505050565b610aac6119dd565b73ffffffffffffffffffffffffffffffffffffffff168573ffffffffffffffffffffffffffffffffffffffff161480610af25750610af185610aec6119dd565b6114ac565b5b610b31576040517f08c379a0000000000000000000000000000000000000000000000000000000008152600401610b2890613af2565b60405180910390fd5b610b3e85858585856119e5565b5050505050565b600080600090505b610b55610df5565b811015610bf8576000610b678261165c565b905060006009600083815260200190815260200160002090508473ffffffffffffffffffffffffffffffffffffffff168160000160009054906101000a900473ffffffffffffffffffffffffffffffffffffffff1673ffffffffffffffffffffffffffffffffffffffff1603610be35760019350505050610bfe565b50508080610bf0906139cc565b915050610b4d565b50600090505b919050565b600080600090505b610c13610df5565b811015610cd1576000610c258261165c565b905060006009600083815260200190815260200160002090508473ffffffffffffffffffffffffffffffffffffffff168160000160009054906101000a900473ffffffffffffffffffffffffffffffffffffffff1673ffffffffffffffffffffffffffffffffffffffff16148015610cab57508060030160009054906101000a900460ff165b15610cbc5760019350505050610cd7565b50508080610cc9906139cc565b915050610c0b565b50600090505b919050565b60608151835114610d22576040517f08c379a0000000000000000000000000000000000000000000000000000000008152600401610d1990613b84565b60405180910390fd5b6000835167ffffffffffffffff811115610d3f57610d3e6130e8565b5b604051908082528060200260200182016040528015610d6d5781602001602082028036833780820191505090505b50905060005b8451811015610dea57610dba858281518110610d9257610d9161396e565b5b6020026020010151858381518110610dad57610dac61396e565b5b602002602001015161053a565b828281518110610dcd57610dcc61396e565b5b60200260200101818152505080610de3906139cc565b9050610d73565b508091505092915050565b6000600780549050905090565b610e0a6119dd565b73ffffffffffffffffffffffffffffffffffffffff168373ffffffffffffffffffffffffffffffffffffffff161480610e505750610e4f83610e4a6119dd565b6114ac565b5b610e8f576040517f08c379a0000000000000000000000000000000000000000000000000000000008152600401610e8690613af2565b60405180910390fd5b610e9a838383611d06565b505050565b610ea7611fd4565b610eb16000612052565b565b6000600560009054906101000a900473ffffffffffffffffffffffffffffffffffffffff16905090565b610ee5611fd4565b80600860006101000a81548173ffffffffffffffffffffffffffffffffffffffff021916908373ffffffffffffffffffffffffffffffffffffffff16021790555050565b610f3b610f346119dd565b8383612118565b5050565b600860009054906101000a900473ffffffffffffffffffffffffffffffffffffffff1673ffffffffffffffffffffffffffffffffffffffff163373ffffffffffffffffffffffffffffffffffffffff161480610fcd5750610f9e610eb3565b73ffffffffffffffffffffffffffffffffffffffff163373ffffffffffffffffffffffffffffffffffffffff16145b61100c576040517f08c379a000000000000000000000000000000000000000000000000000000000815260040161100390613a60565b60405180910390fd5b60005b611017610df5565b8110156110be5760006110298261165c565b905060006009600083815260200190815260200160002090508473ffffffffffffffffffffffffffffffffffffffff168160000160009054906101000a900473ffffffffffffffffffffffffffffffffffffffff1673ffffffffffffffffffffffffffffffffffffffff16036110a95783816001018190555050506110be565b505080806110b6906139cc565b91505061100f565b505050565b6110cb612c54565b60005b6110d6610df5565b8110156112125760006110e88261165c565b905060006009600083815260200190815260200160002090508473ffffffffffffffffffffffffffffffffffffffff168160000160009054906101000a900473ffffffffffffffffffffffffffffffffffffffff1673ffffffffffffffffffffffffffffffffffffffff16036111fd57806040518060a00160405290816000820160009054906101000a900473ffffffffffffffffffffffffffffffffffffffff1673ffffffffffffffffffffffffffffffffffffffff1673ffffffffffffffffffffffffffffffffffffffff16815260200160018201548152602001600282015481526020016003820160009054906101000a900460ff16151515158152602001600482015481525050935050505061124e565b5050808061120a906139cc565b9150506110ce565b506040517f08c379a000000000000000000000000000000000000000000000000000000000815260040161124590613bf0565b60405180910390fd5b919050565b61125b611fd4565b60005b611266610df5565b8110156113e75760006112788261165c565b905060006009600083815260200190815260200160002090508373ffffffffffffffffffffffffffffffffffffffff168160000160009054906101000a900473ffffffffffffffffffffffffffffffffffffffff1673ffffffffffffffffffffffffffffffffffffffff16036113d25760096000838152602001908152602001600020600080820160006101000a81549073ffffffffffffffffffffffffffffffffffffffff0219169055600182016000905560028201600090556003820160006101000a81549060ff021916905560048201600090555050600760016007805490506113659190613c10565b815481106113765761137561396e565b5b9060005260206000200154600784815481106113955761139461396e565b5b906000526020600020018190555060078054806113b5576113b4613c44565b5b6001900381819060005260206000200160009055905550506113e7565b505080806113df906139cc565b91505061125e565b5050565b600080600090505b6113fb610df5565b8110156114a157600061140d8261165c565b905060006009600083815260200190815260200160002090508473ffffffffffffffffffffffffffffffffffffffff168160000160009054906101000a900473ffffffffffffffffffffffffffffffffffffffff1673ffffffffffffffffffffffffffffffffffffffff160361148c57806002015493505050506114a7565b50508080611499906139cc565b9150506113f3565b50600090505b919050565b6000600160008473ffffffffffffffffffffffffffffffffffffffff1673ffffffffffffffffffffffffffffffffffffffff16815260200190815260200160002060008373ffffffffffffffffffffffffffffffffffffffff1673ffffffffffffffffffffffffffffffffffffffff16815260200190815260200160002060009054906101000a900460ff16905092915050565b611548611fd4565b600060078054905090506040518060a001604052808573ffffffffffffffffffffffffffffffffffffffff168152602001848152602001600081526020018315158152602001428152506009600083815260200190815260200160002060008201518160000160006101000a81548173ffffffffffffffffffffffffffffffffffffffff021916908373ffffffffffffffffffffffffffffffffffffffff160217905550602082015181600101556040820151816002015560608201518160030160006101000a81548160ff02191690831515021790555060808201518160040155905050600781908060018154018082558091505060019003906000526020600020016000909190919091505550505050565b6000611666610df5565b82106116a7576040517f08c379a000000000000000000000000000000000000000000000000000000000815260040161169e90613cbf565b60405180910390fd5b600782815481106116bb576116ba61396e565b5b90600052602060002001549050919050565b6116d56119dd565b73ffffffffffffffffffffffffffffffffffffffff168573ffffffffffffffffffffffffffffffffffffffff16148061171b575061171a856117156119dd565b6114ac565b5b61175a576040517f08c379a000000000000000000000000000000000000000000000000000000000815260040161175190613af2565b60405180910390fd5b6117678585858585612284565b5050505050565b611776611fd4565b600073ffffffffffffffffffffffffffffffffffffffff168173ffffffffffffffffffffffffffffffffffffffff16036117e5576040517f08c379a00000000000000000000000000000000000000000000000000000000081526004016117dc90613d51565b60405180910390fd5b6117ee81612052565b50565b6117f96119dd565b73ffffffffffffffffffffffffffffffffffffffff168373ffffffffffffffffffffffffffffffffffffffff16148061183f575061183e836118396119dd565b6114ac565b5b61187e576040517f08c379a000000000000000000000000000000000000000000000000000000000815260040161187590613af2565b60405180910390fd5b61188983838361251f565b505050565b60007f01ffc9a7000000000000000000000000000000000000000000000000000000007bffffffffffffffffffffffffffffffffffffffffffffffffffffffff1916827bffffffffffffffffffffffffffffffffffffffffffffffffffffffff1916149050919050565b6060600060046000848152602001908152602001600020805461191a90613da0565b80601f016020809104026020016040519081016040528092919081815260200182805461194690613da0565b80156119935780601f1061196857610100808354040283529160200191611993565b820191906000526020600020905b81548152906001019060200180831161197657829003601f168201915b5050505050905060008151116119b1576119ac83612765565b6119d5565b6003816040516020016119c5929190613ea1565b6040516020818303038152906040525b915050919050565b600033905090565b8151835114611a29576040517f08c379a0000000000000000000000000000000000000000000000000000000008152600401611a2090613f37565b60405180910390fd5b600073ffffffffffffffffffffffffffffffffffffffff168473ffffffffffffffffffffffffffffffffffffffff1603611a98576040517f08c379a0000000000000000000000000000000000000000000000000000000008152600401611a8f90613fc9565b60405180910390fd5b6000611aa26119dd565b9050611ab28187878787876127f9565b60005b8451811015611c63576000858281518110611ad357611ad261396e565b5b602002602001015190506000858381518110611af257611af161396e565b5b60200260200101519050600080600084815260200190815260200160002060008b73ffffffffffffffffffffffffffffffffffffffff1673ffffffffffffffffffffffffffffffffffffffff16815260200190815260200160002054905081811015611b93576040517f08c379a0000000000000000000000000000000000000000000000000000000008152600401611b8a9061405b565b60405180910390fd5b81810360008085815260200190815260200160002060008c73ffffffffffffffffffffffffffffffffffffffff1673ffffffffffffffffffffffffffffffffffffffff168152602001908152602001600020819055508160008085815260200190815260200160002060008b73ffffffffffffffffffffffffffffffffffffffff1673ffffffffffffffffffffffffffffffffffffffff1681526020019081526020016000206000828254611c48919061407b565b9250508190555050505080611c5c906139cc565b9050611ab5565b508473ffffffffffffffffffffffffffffffffffffffff168673ffffffffffffffffffffffffffffffffffffffff168273ffffffffffffffffffffffffffffffffffffffff167f4a39dc06d4c0dbc64b70af90fd698a233a518aa5d07e595d983b8c0526c8f7fb8787604051611cda9291906140d1565b60405180910390a4611cf0818787878787612801565b611cfe818787878787612809565b505050505050565b600073ffffffffffffffffffffffffffffffffffffffff168373ffffffffffffffffffffffffffffffffffffffff1603611d75576040517f08c379a0000000000000000000000000000000000000000000000000000000008152600401611d6c9061417a565b60405180910390fd5b8051825114611db9576040517f08c379a0000000000000000000000000000000000000000000000000000000008152600401611db090613f37565b60405180910390fd5b6000611dc36119dd565b9050611de3818560008686604051806020016040528060008152506127f9565b60005b8351811015611f30576000848281518110611e0457611e0361396e565b5b602002602001015190506000848381518110611e2357611e2261396e565b5b60200260200101519050600080600084815260200190815260200160002060008973ffffffffffffffffffffffffffffffffffffffff1673ffffffffffffffffffffffffffffffffffffffff16815260200190815260200160002054905081811015611ec4576040517f08c379a0000000000000000000000000000000000000000000000000000000008152600401611ebb9061420c565b60405180910390fd5b81810360008085815260200190815260200160002060008a73ffffffffffffffffffffffffffffffffffffffff1673ffffffffffffffffffffffffffffffffffffffff168152602001908152602001600020819055505050508080611f28906139cc565b915050611de6565b50600073ffffffffffffffffffffffffffffffffffffffff168473ffffffffffffffffffffffffffffffffffffffff168273ffffffffffffffffffffffffffffffffffffffff167f4a39dc06d4c0dbc64b70af90fd698a233a518aa5d07e595d983b8c0526c8f7fb8686604051611fa89291906140d1565b60405180910390a4611fce81856000868660405180602001604052806000815250612801565b50505050565b611fdc6119dd565b73ffffffffffffffffffffffffffffffffffffffff16611ffa610eb3565b73ffffffffffffffffffffffffffffffffffffffff1614612050576040517f08c379a000000000000000000000000000000000000000000000000000000000815260040161204790614278565b60405180910390fd5b565b6000600560009054906101000a900473ffffffffffffffffffffffffffffffffffffffff16905081600560006101000a81548173ffffffffffffffffffffffffffffffffffffffff021916908373ffffffffffffffffffffffffffffffffffffffff1602179055508173ffffffffffffffffffffffffffffffffffffffff168173ffffffffffffffffffffffffffffffffffffffff167f8be0079c531659141344cd1fd0a4f28419497f9722a3daafe3b4186f6b6457e060405160405180910390a35050565b8173ffffffffffffffffffffffffffffffffffffffff168373ffffffffffffffffffffffffffffffffffffffff1603612186576040517f08c379a000000000000000000000000000000000000000000000000000000000815260040161217d9061430a565b60405180910390fd5b80600160008573ffffffffffffffffffffffffffffffffffffffff1673ffffffffffffffffffffffffffffffffffffffff16815260200190815260200160002060008473ffffffffffffffffffffffffffffffffffffffff1673ffffffffffffffffffffffffffffffffffffffff16815260200190815260200160002060006101000a81548160ff0219169083151502179055508173ffffffffffffffffffffffffffffffffffffffff168373ffffffffffffffffffffffffffffffffffffffff167f17307eab39ab6107e8899845ad3d59bd9653f200f220920489ca2b5937696c31836040516122779190612e4d565b60405180910390a3505050565b600073ffffffffffffffffffffffffffffffffffffffff168473ffffffffffffffffffffffffffffffffffffffff16036122f3576040517f08c379a00000000000000000000000000000000000000000000000000000000081526004016122ea90613fc9565b60405180910390fd5b60006122fd6119dd565b9050600061230a856129e0565b90506000612317856129e0565b90506123278389898585896127f9565b600080600088815260200190815260200160002060008a73ffffffffffffffffffffffffffffffffffffffff1673ffffffffffffffffffffffffffffffffffffffff168152602001908152602001600020549050858110156123be576040517f08c379a00000000000000000000000000000000000000000000000000000000081526004016123b59061405b565b60405180910390fd5b85810360008089815260200190815260200160002060008b73ffffffffffffffffffffffffffffffffffffffff1673ffffffffffffffffffffffffffffffffffffffff168152602001908152602001600020819055508560008089815260200190815260200160002060008a73ffffffffffffffffffffffffffffffffffffffff1673ffffffffffffffffffffffffffffffffffffffff1681526020019081526020016000206000828254612473919061407b565b925050819055508773ffffffffffffffffffffffffffffffffffffffff168973ffffffffffffffffffffffffffffffffffffffff168573ffffffffffffffffffffffffffffffffffffffff167fc3d58168c5ae7397731d063d5bbf3d657854427343f4c083240f7aacaa2d0f628a8a6040516124f092919061432a565b60405180910390a4612506848a8a86868a612801565b612514848a8a8a8a8a612a5a565b505050505050505050565b600073ffffffffffffffffffffffffffffffffffffffff168373ffffffffffffffffffffffffffffffffffffffff160361258e576040517f08c379a00000000000000000000000000000000000000000000000000000000081526004016125859061417a565b60405180910390fd5b60006125986119dd565b905060006125a5846129e0565b905060006125b2846129e0565b90506125d2838760008585604051806020016040528060008152506127f9565b600080600087815260200190815260200160002060008873ffffffffffffffffffffffffffffffffffffffff1673ffffffffffffffffffffffffffffffffffffffff16815260200190815260200160002054905084811015612669576040517f08c379a00000000000000000000000000000000000000000000000000000000081526004016126609061420c565b60405180910390fd5b84810360008088815260200190815260200160002060008973ffffffffffffffffffffffffffffffffffffffff1673ffffffffffffffffffffffffffffffffffffffff16815260200190815260200160002081905550600073ffffffffffffffffffffffffffffffffffffffff168773ffffffffffffffffffffffffffffffffffffffff168573ffffffffffffffffffffffffffffffffffffffff167fc3d58168c5ae7397731d063d5bbf3d657854427343f4c083240f7aacaa2d0f62898960405161273692919061432a565b60405180910390a461275c84886000868660405180602001604052806000815250612801565b50505050505050565b60606002805461277490613da0565b80601f01602080910402602001604051908101604052809291908181526020018280546127a090613da0565b80156127ed5780601f106127c2576101008083540402835291602001916127ed565b820191906000526020600020905b8154815290600101906020018083116127d057829003601f168201915b50505050509050919050565b505050505050565b505050505050565b6128288473ffffffffffffffffffffffffffffffffffffffff16612c31565b156129d8578373ffffffffffffffffffffffffffffffffffffffff1663bc197c8187878686866040518663ffffffff1660e01b815260040161286e9594939291906143a8565b6020604051808303816000875af19250505080156128aa57506040513d601f19601f820116820180604052508101906128a79190614425565b60015b61294f576128b661445f565b806308c379a00361291257506128ca614481565b806128d55750612914565b806040517f08c379a00000000000000000000000000000000000000000000000000000000081526004016129099190613094565b60405180910390fd5b505b6040517f08c379a000000000000000000000000000000000000000000000000000000000815260040161294690614583565b60405180910390fd5b63bc197c8160e01b7bffffffffffffffffffffffffffffffffffffffffffffffffffffffff1916817bffffffffffffffffffffffffffffffffffffffffffffffffffffffff1916146129d6576040517f08c379a00000000000000000000000000000000000000000000000000000000081526004016129cd90614615565b60405180910390fd5b505b505050505050565b60606000600167ffffffffffffffff8111156129ff576129fe6130e8565b5b604051908082528060200260200182016040528015612a2d5781602001602082028036833780820191505090505b5090508281600081518110612a4557612a4461396e565b5b60200260200101818152505080915050919050565b612a798473ffffffffffffffffffffffffffffffffffffffff16612c31565b15612c29578373ffffffffffffffffffffffffffffffffffffffff1663f23a6e6187878686866040518663ffffffff1660e01b8152600401612abf959493929190614635565b6020604051808303816000875af1925050508015612afb57506040513d601f19601f82011682018060405250810190612af89190614425565b60015b612ba057612b0761445f565b806308c379a003612b635750612b1b614481565b80612b265750612b65565b806040517f08c379a0000000000000000000000000000000000000000000000000000000008152600401612b5a9190613094565b60405180910390fd5b505b6040517f08c379a0000000000000000000000000000000000000000000000000000000008152600401612b9790614583565b60405180910390fd5b63f23a6e6160e01b7bffffffffffffffffffffffffffffffffffffffffffffffffffffffff1916817bffffffffffffffffffffffffffffffffffffffffffffffffffffffff191614612c27576040517f08c379a0000000000000000000000000000000000000000000000000000000008152600401612c1e90614615565b60405180910390fd5b505b505050505050565b6000808273ffffffffffffffffffffffffffffffffffffffff163b119050919050565b6040518060a00160405280600073ffffffffffffffffffffffffffffffffffffffff1681526020016000815260200160008152602001600015158152602001600081525090565b6000604051905090565b600080fd5b600080fd5b600073ffffffffffffffffffffffffffffffffffffffff82169050919050565b6000612cda82612caf565b9050919050565b612cea81612ccf565b8114612cf557600080fd5b50565b600081359050612d0781612ce1565b92915050565b6000819050919050565b612d2081612d0d565b8114612d2b57600080fd5b50565b600081359050612d3d81612d17565b92915050565b60008060408385031215612d5a57612d59612ca5565b5b6000612d6885828601612cf8565b9250506020612d7985828601612d2e565b9150509250929050565b612d8c81612d0d565b82525050565b6000602082019050612da76000830184612d83565b92915050565b60007fffffffff0000000000000000000000000000000000000000000000000000000082169050919050565b612de281612dad565b8114612ded57600080fd5b50565b600081359050612dff81612dd9565b92915050565b600060208284031215612e1b57612e1a612ca5565b5b6000612e2984828501612df0565b91505092915050565b60008115159050919050565b612e4781612e32565b82525050565b6000602082019050612e626000830184612e3e565b92915050565b600081519050919050565b600082825260208201905092915050565b6000819050602082019050919050565b612e9d81612ccf565b82525050565b612eac81612d0d565b82525050565b612ebb81612e32565b82525050565b60a082016000820151612ed76000850182612e94565b506020820151612eea6020850182612ea3565b506040820151612efd6040850182612ea3565b506060820151612f106060850182612eb2565b506080820151612f236080850182612ea3565b50505050565b6000612f358383612ec1565b60a08301905092915050565b6000602082019050919050565b6000612f5982612e68565b612f638185612e73565b9350612f6e83612e84565b8060005b83811015612f9f578151612f868882612f29565b9750612f9183612f41565b925050600181019050612f72565b5085935050505092915050565b60006020820190508181036000830152612fc68184612f4e565b905092915050565b600060208284031215612fe457612fe3612ca5565b5b6000612ff284828501612d2e565b91505092915050565b600081519050919050565b600082825260208201905092915050565b60005b8381101561303557808201518184015260208101905061301a565b83811115613044576000848401525b50505050565b6000601f19601f8301169050919050565b600061306682612ffb565b6130708185613006565b9350613080818560208601613017565b6130898161304a565b840191505092915050565b600060208201905081810360008301526130ae818461305b565b905092915050565b6000602082840312156130cc576130cb612ca5565b5b60006130da84828501612cf8565b91505092915050565b600080fd5b7f4e487b7100000000000000000000000000000000000000000000000000000000600052604160045260246000fd5b6131208261304a565b810181811067ffffffffffffffff8211171561313f5761313e6130e8565b5b80604052505050565b6000613152612c9b565b905061315e8282613117565b919050565b600067ffffffffffffffff82111561317e5761317d6130e8565b5b602082029050602081019050919050565b600080fd5b60006131a76131a284613163565b613148565b905080838252602082019050602084028301858111156131ca576131c961318f565b5b835b818110156131f357806131df8882612d2e565b8452602084019350506020810190506131cc565b5050509392505050565b600082601f830112613212576132116130e3565b5b8135613222848260208601613194565b91505092915050565b600080fd5b600067ffffffffffffffff82111561324b5761324a6130e8565b5b6132548261304a565b9050602081019050919050565b82818337600083830152505050565b600061328361327e84613230565b613148565b90508281526020810184848401111561329f5761329e61322b565b5b6132aa848285613261565b509392505050565b600082601f8301126132c7576132c66130e3565b5b81356132d7848260208601613270565b91505092915050565b600080600080600060a086880312156132fc576132fb612ca5565b5b600061330a88828901612cf8565b955050602061331b88828901612cf8565b945050604086013567ffffffffffffffff81111561333c5761333b612caa565b5b613348888289016131fd565b935050606086013567ffffffffffffffff81111561336957613368612caa565b5b613375888289016131fd565b925050608086013567ffffffffffffffff81111561339657613395612caa565b5b6133a2888289016132b2565b9150509295509295909350565b600067ffffffffffffffff8211156133ca576133c96130e8565b5b602082029050602081019050919050565b60006133ee6133e9846133af565b613148565b905080838252602082019050602084028301858111156134115761341061318f565b5b835b8181101561343a57806134268882612cf8565b845260208401935050602081019050613413565b5050509392505050565b600082601f830112613459576134586130e3565b5b81356134698482602086016133db565b91505092915050565b6000806040838503121561348957613488612ca5565b5b600083013567ffffffffffffffff8111156134a7576134a6612caa565b5b6134b385828601613444565b925050602083013567ffffffffffffffff8111156134d4576134d3612caa565b5b6134e0858286016131fd565b9150509250929050565b600081519050919050565b600082825260208201905092915050565b6000819050602082019050919050565b60006135228383612ea3565b60208301905092915050565b6000602082019050919050565b6000613546826134ea565b61355081856134f5565b935061355b83613506565b8060005b8381101561358c5781516135738882613516565b975061357e8361352e565b92505060018101905061355f565b5085935050505092915050565b600060208201905081810360008301526135b3818461353b565b905092915050565b6000806000606084860312156135d4576135d3612ca5565b5b60006135e286828701612cf8565b935050602084013567ffffffffffffffff81111561360357613602612caa565b5b61360f868287016131fd565b925050604084013567ffffffffffffffff8111156136305761362f612caa565b5b61363c868287016131fd565b9150509250925092565b61364f81612ccf565b82525050565b600060208201905061366a6000830184613646565b92915050565b61367981612e32565b811461368457600080fd5b50565b60008135905061369681613670565b92915050565b600080604083850312156136b3576136b2612ca5565b5b60006136c185828601612cf8565b92505060206136d285828601613687565b9150509250929050565b60a0820160008201516136f26000850182612e94565b5060208201516137056020850182612ea3565b5060408201516137186040850182612ea3565b50606082015161372b6060850182612eb2565b50608082015161373e6080850182612ea3565b50505050565b600060a08201905061375960008301846136dc565b92915050565b6000806040838503121561377657613775612ca5565b5b600061378485828601612cf8565b925050602061379585828601612cf8565b9150509250929050565b6000806000606084860312156137b8576137b7612ca5565b5b60006137c686828701612cf8565b93505060206137d786828701612d2e565b92505060406137e886828701613687565b9150509250925092565b600080600080600060a0868803121561380e5761380d612ca5565b5b600061381c88828901612cf8565b955050602061382d88828901612cf8565b945050604061383e88828901612d2e565b935050606061384f88828901612d2e565b925050608086013567ffffffffffffffff8111156138705761386f612caa565b5b61387c888289016132b2565b9150509295509295909350565b6000806000606084860312156138a2576138a1612ca5565b5b60006138b086828701612cf8565b93505060206138c186828701612d2e565b92505060406138d286828701612d2e565b9150509250925092565b7f455243313135353a2061646472657373207a65726f206973206e6f742061207660008201527f616c6964206f776e657200000000000000000000000000000000000000000000602082015250565b6000613938602a83613006565b9150613943826138dc565b604082019050919050565b600060208201905081810360008301526139678161392b565b9050919050565b7f4e487b7100000000000000000000000000000000000000000000000000000000600052603260045260246000fd5b7f4e487b7100000000000000000000000000000000000000000000000000000000600052601160045260246000fd5b60006139d782612d0d565b91507fffffffffffffffffffffffffffffffffffffffffffffffffffffffffffffffff8203613a0957613a0861399d565b5b600182019050919050565b7f43616c6c6572206973206e6f7420617574686f72697a65640000000000000000600082015250565b6000613a4a601883613006565b9150613a5582613a14565b602082019050919050565b60006020820190508181036000830152613a7981613a3d565b9050919050565b7f455243313135353a2063616c6c6572206973206e6f7420746f6b656e206f776e60008201527f6572206f7220617070726f766564000000000000000000000000000000000000602082015250565b6000613adc602e83613006565b9150613ae782613a80565b604082019050919050565b60006020820190508181036000830152613b0b81613acf565b9050919050565b7f455243313135353a206163636f756e747320616e6420696473206c656e67746860008201527f206d69736d617463680000000000000000000000000000000000000000000000602082015250565b6000613b6e602983613006565b9150613b7982613b12565b604082019050919050565b60006020820190508181036000830152613b9d81613b61565b9050919050565b7f4163636f756e74206e6f7420666f756e64000000000000000000000000000000600082015250565b6000613bda601183613006565b9150613be582613ba4565b602082019050919050565b60006020820190508181036000830152613c0981613bcd565b9050919050565b6000613c1b82612d0d565b9150613c2683612d0d565b925082821015613c3957613c3861399d565b5b828203905092915050565b7f4e487b7100000000000000000000000000000000000000000000000000000000600052603160045260246000fd5b7f496e646578204f46420000000000000000000000000000000000000000000000600082015250565b6000613ca9600983613006565b9150613cb482613c73565b602082019050919050565b60006020820190508181036000830152613cd881613c9c565b9050919050565b7f4f776e61626c653a206e6577206f776e657220697320746865207a65726f206160008201527f6464726573730000000000000000000000000000000000000000000000000000602082015250565b6000613d3b602683613006565b9150613d4682613cdf565b604082019050919050565b60006020820190508181036000830152613d6a81613d2e565b9050919050565b7f4e487b7100000000000000000000000000000000000000000000000000000000600052602260045260246000fd5b60006002820490506001821680613db857607f821691505b602082108103613dcb57613dca613d71565b5b50919050565b600081905092915050565b60008190508160005260206000209050919050565b60008154613dfe81613da0565b613e088186613dd1565b94506001821660008114613e235760018114613e3457613e67565b60ff19831686528186019350613e67565b613e3d85613ddc565b60005b83811015613e5f57815481890152600182019150602081019050613e40565b838801955050505b50505092915050565b6000613e7b82612ffb565b613e858185613dd1565b9350613e95818560208601613017565b80840191505092915050565b6000613ead8285613df1565b9150613eb98284613e70565b91508190509392505050565b7f455243313135353a2069647320616e6420616d6f756e7473206c656e6774682060008201527f6d69736d61746368000000000000000000000000000000000000000000000000602082015250565b6000613f21602883613006565b9150613f2c82613ec5565b604082019050919050565b60006020820190508181036000830152613f5081613f14565b9050919050565b7f455243313135353a207472616e7366657220746f20746865207a65726f20616460008201527f6472657373000000000000000000000000000000000000000000000000000000602082015250565b6000613fb3602583613006565b9150613fbe82613f57565b604082019050919050565b60006020820190508181036000830152613fe281613fa6565b9050919050565b7f455243313135353a20696e73756666696369656e742062616c616e636520666f60008201527f72207472616e7366657200000000000000000000000000000000000000000000602082015250565b6000614045602a83613006565b915061405082613fe9565b604082019050919050565b6000602082019050818103600083015261407481614038565b9050919050565b600061408682612d0d565b915061409183612d0d565b9250827fffffffffffffffffffffffffffffffffffffffffffffffffffffffffffffffff038211156140c6576140c561399d565b5b828201905092915050565b600060408201905081810360008301526140eb818561353b565b905081810360208301526140ff818461353b565b90509392505050565b7f455243313135353a206275726e2066726f6d20746865207a65726f206164647260008201527f6573730000000000000000000000000000000000000000000000000000000000602082015250565b6000614164602383613006565b915061416f82614108565b604082019050919050565b6000602082019050818103600083015261419381614157565b9050919050565b7f455243313135353a206275726e20616d6f756e7420657863656564732062616c60008201527f616e636500000000000000000000000000000000000000000000000000000000602082015250565b60006141f6602483613006565b91506142018261419a565b604082019050919050565b60006020820190508181036000830152614225816141e9565b9050919050565b7f4f776e61626c653a2063616c6c6572206973206e6f7420746865206f776e6572600082015250565b6000614262602083613006565b915061426d8261422c565b602082019050919050565b6000602082019050818103600083015261429181614255565b9050919050565b7f455243313135353a2073657474696e6720617070726f76616c2073746174757360008201527f20666f722073656c660000000000000000000000000000000000000000000000602082015250565b60006142f4602983613006565b91506142ff82614298565b604082019050919050565b60006020820190508181036000830152614323816142e7565b9050919050565b600060408201905061433f6000830185612d83565b61434c6020830184612d83565b9392505050565b600081519050919050565b600082825260208201905092915050565b600061437a82614353565b614384818561435e565b9350614394818560208601613017565b61439d8161304a565b840191505092915050565b600060a0820190506143bd6000830188613646565b6143ca6020830187613646565b81810360408301526143dc818661353b565b905081810360608301526143f0818561353b565b90508181036080830152614404818461436f565b90509695505050505050565b60008151905061441f81612dd9565b92915050565b60006020828403121561443b5761443a612ca5565b5b600061444984828501614410565b91505092915050565b60008160e01c9050919050565b600060033d111561447e5760046000803e61447b600051614452565b90505b90565b600060443d1061450e57614493612c9b565b60043d036004823e80513d602482011167ffffffffffffffff821117156144bb57505061450e565b808201805167ffffffffffffffff8111156144d9575050505061450e565b80602083010160043d0385018111156144f657505050505061450e565b61450582602001850186613117565b82955050505050505b90565b7f455243313135353a207472616e7366657220746f206e6f6e2d4552433131353560008201527f526563656976657220696d706c656d656e746572000000000000000000000000602082015250565b600061456d603483613006565b915061457882614511565b604082019050919050565b6000602082019050818103600083015261459c81614560565b9050919050565b7f455243313135353a204552433131353552656365697665722072656a6563746560008201527f6420746f6b656e73000000000000000000000000000000000000000000000000602082015250565b60006145ff602883613006565b915061460a826145a3565b604082019050919050565b6000602082019050818103600083015261462e816145f2565b9050919050565b600060a08201905061464a6000830188613646565b6146576020830187613646565b6146646040830186612d83565b6146716060830185612d83565b8181036080830152614683818461436f565b9050969550505050505056fea2646970667358221220a9fbc0fac4953dc767964d869ce7bf964f2cadca7854bcf882211a4d3a2e521164736f6c634300080d0033",
  "immutableReferences": {},
  "source": "// SPDX-License-Identifier: MIT\npragma solidity ^0.8.13;\n\nimport \"./CarbonToken.sol\";\nimport \"./CarbonMarket.sol\";\nimport \"./CarbonBase.sol\";\nimport \"@openzeppelin/contracts/access/Ownable.sol\";\n\ncontract AccountManagement is Ownable, CarbonBase {\n    CarbonToken private _token;\n    uint256[] private _accountIds;\n    address private authorizedContract;\n\n    mapping(uint256 => Account) private _idToAccount;\n\n    struct Account {\n        address addr;\n        uint256 totalCredits;\n        uint256 totalRetire;\n        bool isAuditor;\n        uint256 registeredAt;\n    }\n\n    modifier onlyAuthorized() {\n        require(\n            msg.sender == authorizedContract || msg.sender == owner(),\n            \"Caller is not authorized\"\n        );\n        _;\n    }\n\n    constructor(address _tokenAddress) {\n        _token = CarbonToken(_tokenAddress);\n    }\n\n    function setAuthorizedContract(\n        address _authorizedContract\n    ) external onlyOwner {\n        authorizedContract = _authorizedContract;\n    }\n\n    function checkAccountRegistered(address account) public view returns (bool) {\n        for (uint i = 0; i < getAccountIdsCount(); i++) {\n            uint256 accountId = getAccountByIndex(i);\n            Account storage acc = _idToAccount[accountId];\n            if (acc.addr == account) {\n                return true; // Account already exists\n            }\n        }\n        return false;\n    }\n\n    function getAccountTotalCredits(\n        address account\n    ) public view returns (uint256) {\n        for (uint i = 0; i < getAccountIdsCount(); i++) {\n            uint256 accountId = getAccountByIndex(i);\n            Account storage acc = _idToAccount[accountId];\n            if (acc.addr == account) {\n                return acc.totalCredits;\n            }\n        }\n        return 0;\n    }\n\n    function setAccountTotalCredits(\n        address account,\n        uint256 totalCredits\n    ) public onlyAuthorized {\n        for (uint i = 0; i < getAccountIdsCount(); i++) {\n            uint256 accountId = getAccountByIndex(i);\n            Account storage acc = _idToAccount[accountId];\n            if (acc.addr == account) {\n                acc.totalCredits = totalCredits;\n                break;\n            }\n        }\n    }\n\n    function getAccountTotalRetire(\n        address account\n    ) public view returns (uint256) {\n        for (uint i = 0; i < getAccountIdsCount(); i++) {\n            uint256 accountId = getAccountByIndex(i);\n            Account storage acc = _idToAccount[accountId];\n            if (acc.addr == account) {\n                return acc.totalRetire;\n            }\n        }\n        return 0;\n    }\n\n    function setAccountTotalRetire(\n        address account,\n        uint256 totalRetire\n    ) public onlyAuthorized {\n        for (uint i = 0; i < getAccountIdsCount(); i++) {\n            uint256 accountId = getAccountByIndex(i);\n            Account storage acc = _idToAccount[accountId];\n            if (acc.addr == account) {\n                acc.totalRetire = totalRetire;\n                break;\n            }\n        }\n    }\n\n    function getAccountIdsCount() public view returns (uint256) {\n        return _accountIds.length;\n    }\n\n    function isAuditor(address auditor) public view returns (bool) {\n        for (uint i = 0; i < getAccountIdsCount(); i++) {\n            uint256 accountId = getAccountByIndex(i);\n            Account storage account = _idToAccount[accountId];\n            if (account.addr == auditor && account.isAuditor) {\n                return true;\n            }\n        }\n        return false;\n    }\n\n    function getAccountByIndex(uint256 index) public view returns (uint256) {\n        require(index < getAccountIdsCount(), \"Index OFB\");\n        return _accountIds[index];\n    }\n\n    function getAccountByAddress(\n        address account\n    ) public view returns (Account memory) {\n        for (uint i = 0; i < getAccountIdsCount(); i++) {\n            uint256 accountId = getAccountByIndex(i);\n            Account storage acc = _idToAccount[accountId];\n            if (acc.addr == account) {\n                return acc;\n            }\n        }\n        revert(\"Account not found\");\n    }\n\n    function getAllAccounts() public view returns (Account[] memory) {\n        Account[] memory accounts = new Account[](_accountIds.length);\n        for (uint i = 0; i < _accountIds.length; i++) {\n            uint256 accountId = getAccountByIndex(i);\n            Account storage account = _idToAccount[accountId];\n            accounts[i] = account;\n        }\n        return accounts;\n    }\n\n    // function getAuditorsCount() public view returns (uint256) {\n    //     uint count = 0;\n    //     for (uint i = 0; i < _accountIds.length; i++) {\n    //         uint256 accountId = getAccountByIndex(i);\n    //         Account storage account = _idToAccount[accountId];\n    //         if (account.isAuditor) {\n    //             count += 1;\n    //         }\n    //     }\n    //     return count;\n    // }\n\n    // function getAllAuditors() public view returns (Account[] memory) {\n    //     Account[] memory auditors = new Account[](getAuditorsCount());\n    //     uint currentIndex = 0;\n    //     for (uint i = 0; i < _accountIds.length; i++) {\n    //         uint256 accountId = getAccountByIndex(i);\n    //         Account storage account = _idToAccount[accountId];\n    //         if (account.isAuditor) {\n    //             auditors[currentIndex] = account;\n    //             currentIndex += 1;\n    //         }\n    //     }\n    //     return auditors;\n    // }\n\n    function registerAccount(\n        address account,\n        uint256 totalCredits,\n        bool isAudit\n    ) public onlyOwner {\n        uint currentId = _accountIds.length;\n        _idToAccount[currentId] = Account(\n            account,\n            totalCredits,\n            0,\n            isAudit,\n            block.timestamp\n        );\n        _accountIds.push(currentId);\n    }\n\n    function removeAccount(address addr) public onlyOwner {\n        for (uint i = 0; i < getAccountIdsCount(); i++) {\n            uint256 accountId = getAccountByIndex(i);\n            Account storage account = _idToAccount[accountId];\n            if (account.addr == addr) {\n                delete _idToAccount[accountId];\n                _accountIds[i] = _accountIds[_accountIds.length - 1];\n                _accountIds.pop();\n                break;\n            }\n        }\n    }\n}\n",
  "sourcePath": "/Users/buudinhha/Vscode/DATN/main/contracts/AccountManagement.sol",
  "compiler": {
    "name": "solc",
    "version": "0.8.13+commit.abaa5c0e.Emscripten.clang"
  },
  "schemaVersion": "3.4.16",
  "updatedAt": "2024-06-03T15:35:03.844Z",
  "networkType": "ethereum",
  "devdoc": {
    "kind": "dev",
    "methods": {
      "balanceOf(address,uint256)": {
        "details": "See {IERC1155-balanceOf}. Requirements: - `account` cannot be the zero address."
      },
      "balanceOfBatch(address[],uint256[])": {
        "details": "See {IERC1155-balanceOfBatch}. Requirements: - `accounts` and `ids` must have the same length."
      },
      "isApprovedForAll(address,address)": {
        "details": "See {IERC1155-isApprovedForAll}."
      },
      "owner()": {
        "details": "Returns the address of the current owner."
      },
      "renounceOwnership()": {
        "details": "Leaves the contract without owner. It will not be possible to call `onlyOwner` functions. Can only be called by the current owner. NOTE: Renouncing ownership will leave the contract without an owner, thereby disabling any functionality that is only available to the owner."
      },
      "safeBatchTransferFrom(address,address,uint256[],uint256[],bytes)": {
        "details": "See {IERC1155-safeBatchTransferFrom}."
      },
      "safeTransferFrom(address,address,uint256,uint256,bytes)": {
        "details": "See {IERC1155-safeTransferFrom}."
      },
      "setApprovalForAll(address,bool)": {
        "details": "See {IERC1155-setApprovalForAll}."
      },
      "supportsInterface(bytes4)": {
        "details": "See {IERC165-supportsInterface}."
      },
      "transferOwnership(address)": {
        "details": "Transfers ownership of the contract to a new account (`newOwner`). Can only be called by the current owner."
      }
    },
    "version": 1
  },
  "userdoc": {
    "kind": "user",
    "methods": {},
    "version": 1
  }
}