{
  "contractName": "CarbonMarket",
  "abi": [
    {
      "inputs": [
        {
          "internalType": "address",
          "name": "_tokenAddress",
          "type": "address"
        },
        {
          "internalType": "address",
          "name": "_accountAddress",
          "type": "address"
        }
      ],
      "stateMutability": "nonpayable",
      "type": "constructor"
    },
    {
      "anonymous": false,
      "inputs": [
        {
          "indexed": true,
          "internalType": "address",
          "name": "account",
          "type": "address"
        },
        {
          "indexed": true,
          "internalType": "address",
          "name": "operator",
          "type": "address"
        },
        {
          "indexed": false,
          "internalType": "bool",
          "name": "approved",
          "type": "bool"
        }
      ],
      "name": "ApprovalForAll",
      "type": "event"
    },
    {
      "anonymous": false,
      "inputs": [
        {
          "indexed": false,
          "internalType": "uint256",
          "name": "tokenId",
          "type": "uint256"
        },
        {
          "indexed": false,
          "internalType": "address",
          "name": "auditor",
          "type": "address"
        },
        {
          "indexed": false,
          "internalType": "address",
          "name": "projectOwner",
          "type": "address"
        },
        {
          "indexed": false,
          "internalType": "enum CarbonBase.ApprovalStatus",
          "name": "status",
          "type": "uint8"
        },
        {
          "indexed": false,
          "internalType": "uint256",
          "name": "time",
          "type": "uint256"
        }
      ],
      "name": "CarbonCreditAudited",
      "type": "event"
    },
    {
      "anonymous": false,
      "inputs": [
        {
          "indexed": false,
          "internalType": "uint256",
          "name": "tokenId",
          "type": "uint256"
        },
        {
          "indexed": false,
          "internalType": "address",
          "name": "initialOwner",
          "type": "address"
        },
        {
          "indexed": false,
          "internalType": "uint256",
          "name": "amount",
          "type": "uint256"
        },
        {
          "indexed": false,
          "internalType": "uint256",
          "name": "creationTime",
          "type": "uint256"
        }
      ],
      "name": "CarbonCreditCreated",
      "type": "event"
    },
    {
      "anonymous": false,
      "inputs": [
        {
          "indexed": false,
          "internalType": "uint256",
          "name": "tokenId",
          "type": "uint256"
        },
        {
          "indexed": false,
          "internalType": "address",
          "name": "initialOwner",
          "type": "address"
        },
        {
          "indexed": false,
          "internalType": "uint256",
          "name": "amount",
          "type": "uint256"
        },
        {
          "indexed": false,
          "internalType": "uint256",
          "name": "pricePerCredit",
          "type": "uint256"
        },
        {
          "indexed": false,
          "internalType": "uint256",
          "name": "time",
          "type": "uint256"
        }
      ],
      "name": "CarbonCreditListed",
      "type": "event"
    },
    {
      "anonymous": false,
      "inputs": [
        {
          "indexed": false,
          "internalType": "uint256",
          "name": "tokenId",
          "type": "uint256"
        },
        {
          "indexed": false,
          "internalType": "address",
          "name": "from",
          "type": "address"
        },
        {
          "indexed": false,
          "internalType": "address",
          "name": "to",
          "type": "address"
        },
        {
          "indexed": false,
          "internalType": "uint256",
          "name": "amount",
          "type": "uint256"
        },
        {
          "indexed": false,
          "internalType": "uint256",
          "name": "time",
          "type": "uint256"
        }
      ],
      "name": "CarbonCreditPurchased",
      "type": "event"
    },
    {
      "anonymous": false,
      "inputs": [
        {
          "indexed": false,
          "internalType": "uint256",
          "name": "tokenId",
          "type": "uint256"
        },
        {
          "indexed": false,
          "internalType": "address",
          "name": "owner",
          "type": "address"
        },
        {
          "indexed": false,
          "internalType": "uint256",
          "name": "amount",
          "type": "uint256"
        },
        {
          "indexed": false,
          "internalType": "uint256",
          "name": "time",
          "type": "uint256"
        }
      ],
      "name": "CarbonCreditRetired",
      "type": "event"
    },
    {
      "anonymous": false,
      "inputs": [
        {
          "indexed": false,
          "internalType": "string",
          "name": "message",
          "type": "string"
        },
        {
          "indexed": false,
          "internalType": "uint256",
          "name": "value",
          "type": "uint256"
        }
      ],
      "name": "Log",
      "type": "event"
    },
    {
      "anonymous": false,
      "inputs": [
        {
          "indexed": true,
          "internalType": "address",
          "name": "previousOwner",
          "type": "address"
        },
        {
          "indexed": true,
          "internalType": "address",
          "name": "newOwner",
          "type": "address"
        }
      ],
      "name": "OwnershipTransferred",
      "type": "event"
    },
    {
      "anonymous": false,
      "inputs": [
        {
          "indexed": true,
          "internalType": "address",
          "name": "operator",
          "type": "address"
        },
        {
          "indexed": true,
          "internalType": "address",
          "name": "from",
          "type": "address"
        },
        {
          "indexed": true,
          "internalType": "address",
          "name": "to",
          "type": "address"
        },
        {
          "indexed": false,
          "internalType": "uint256[]",
          "name": "ids",
          "type": "uint256[]"
        },
        {
          "indexed": false,
          "internalType": "uint256[]",
          "name": "values",
          "type": "uint256[]"
        }
      ],
      "name": "TransferBatch",
      "type": "event"
    },
    {
      "anonymous": false,
      "inputs": [
        {
          "indexed": true,
          "internalType": "address",
          "name": "operator",
          "type": "address"
        },
        {
          "indexed": true,
          "internalType": "address",
          "name": "from",
          "type": "address"
        },
        {
          "indexed": true,
          "internalType": "address",
          "name": "to",
          "type": "address"
        },
        {
          "indexed": false,
          "internalType": "uint256",
          "name": "id",
          "type": "uint256"
        },
        {
          "indexed": false,
          "internalType": "uint256",
          "name": "value",
          "type": "uint256"
        }
      ],
      "name": "TransferSingle",
      "type": "event"
    },
    {
      "anonymous": false,
      "inputs": [
        {
          "indexed": false,
          "internalType": "string",
          "name": "value",
          "type": "string"
        },
        {
          "indexed": true,
          "internalType": "uint256",
          "name": "id",
          "type": "uint256"
        }
      ],
      "name": "URI",
      "type": "event"
    },
    {
      "inputs": [
        {
          "internalType": "address",
          "name": "account",
          "type": "address"
        },
        {
          "internalType": "uint256",
          "name": "id",
          "type": "uint256"
        }
      ],
      "name": "balanceOf",
      "outputs": [
        {
          "internalType": "uint256",
          "name": "",
          "type": "uint256"
        }
      ],
      "stateMutability": "view",
      "type": "function",
      "constant": true
    },
    {
      "inputs": [
        {
          "internalType": "address[]",
          "name": "accounts",
          "type": "address[]"
        },
        {
          "internalType": "uint256[]",
          "name": "ids",
          "type": "uint256[]"
        }
      ],
      "name": "balanceOfBatch",
      "outputs": [
        {
          "internalType": "uint256[]",
          "name": "",
          "type": "uint256[]"
        }
      ],
      "stateMutability": "view",
      "type": "function",
      "constant": true
    },
    {
      "inputs": [
        {
          "internalType": "address",
          "name": "account",
          "type": "address"
        },
        {
          "internalType": "uint256",
          "name": "id",
          "type": "uint256"
        },
        {
          "internalType": "uint256",
          "name": "value",
          "type": "uint256"
        }
      ],
      "name": "burn",
      "outputs": [],
      "stateMutability": "nonpayable",
      "type": "function"
    },
    {
      "inputs": [
        {
          "internalType": "address",
          "name": "account",
          "type": "address"
        },
        {
          "internalType": "uint256[]",
          "name": "ids",
          "type": "uint256[]"
        },
        {
          "internalType": "uint256[]",
          "name": "values",
          "type": "uint256[]"
        }
      ],
      "name": "burnBatch",
      "outputs": [],
      "stateMutability": "nonpayable",
      "type": "function"
    },
    {
      "inputs": [
        {
          "internalType": "address",
          "name": "account",
          "type": "address"
        },
        {
          "internalType": "address",
          "name": "operator",
          "type": "address"
        }
      ],
      "name": "isApprovedForAll",
      "outputs": [
        {
          "internalType": "bool",
          "name": "",
          "type": "bool"
        }
      ],
      "stateMutability": "view",
      "type": "function",
      "constant": true
    },
    {
      "inputs": [],
      "name": "owner",
      "outputs": [
        {
          "internalType": "address",
          "name": "",
          "type": "address"
        }
      ],
      "stateMutability": "view",
      "type": "function",
      "constant": true
    },
    {
      "inputs": [],
      "name": "renounceOwnership",
      "outputs": [],
      "stateMutability": "nonpayable",
      "type": "function"
    },
    {
      "inputs": [
        {
          "internalType": "address",
          "name": "from",
          "type": "address"
        },
        {
          "internalType": "address",
          "name": "to",
          "type": "address"
        },
        {
          "internalType": "uint256[]",
          "name": "ids",
          "type": "uint256[]"
        },
        {
          "internalType": "uint256[]",
          "name": "amounts",
          "type": "uint256[]"
        },
        {
          "internalType": "bytes",
          "name": "data",
          "type": "bytes"
        }
      ],
      "name": "safeBatchTransferFrom",
      "outputs": [],
      "stateMutability": "nonpayable",
      "type": "function"
    },
    {
      "inputs": [
        {
          "internalType": "address",
          "name": "from",
          "type": "address"
        },
        {
          "internalType": "address",
          "name": "to",
          "type": "address"
        },
        {
          "internalType": "uint256",
          "name": "id",
          "type": "uint256"
        },
        {
          "internalType": "uint256",
          "name": "amount",
          "type": "uint256"
        },
        {
          "internalType": "bytes",
          "name": "data",
          "type": "bytes"
        }
      ],
      "name": "safeTransferFrom",
      "outputs": [],
      "stateMutability": "nonpayable",
      "type": "function"
    },
    {
      "inputs": [
        {
          "internalType": "address",
          "name": "operator",
          "type": "address"
        },
        {
          "internalType": "bool",
          "name": "approved",
          "type": "bool"
        }
      ],
      "name": "setApprovalForAll",
      "outputs": [],
      "stateMutability": "nonpayable",
      "type": "function"
    },
    {
      "inputs": [
        {
          "internalType": "bytes4",
          "name": "interfaceId",
          "type": "bytes4"
        }
      ],
      "name": "supportsInterface",
      "outputs": [
        {
          "internalType": "bool",
          "name": "",
          "type": "bool"
        }
      ],
      "stateMutability": "view",
      "type": "function",
      "constant": true
    },
    {
      "inputs": [
        {
          "internalType": "address",
          "name": "newOwner",
          "type": "address"
        }
      ],
      "name": "transferOwnership",
      "outputs": [],
      "stateMutability": "nonpayable",
      "type": "function"
    },
    {
      "inputs": [
        {
          "internalType": "uint256",
          "name": "tokenId",
          "type": "uint256"
        }
      ],
      "name": "uri",
      "outputs": [
        {
          "internalType": "string",
          "name": "",
          "type": "string"
        }
      ],
      "stateMutability": "view",
      "type": "function",
      "constant": true
    },
    {
      "inputs": [],
      "name": "getListedTokensCount",
      "outputs": [
        {
          "internalType": "uint256",
          "name": "",
          "type": "uint256"
        }
      ],
      "stateMutability": "view",
      "type": "function",
      "constant": true
    },
    {
      "inputs": [
        {
          "internalType": "uint256",
          "name": "tokenId",
          "type": "uint256"
        },
        {
          "internalType": "uint256",
          "name": "price",
          "type": "uint256"
        }
      ],
      "name": "listCreditsForSale",
      "outputs": [],
      "stateMutability": "nonpayable",
      "type": "function"
    },
    {
      "inputs": [],
      "name": "getAllListedCredits",
      "outputs": [
        {
          "components": [
            {
              "internalType": "uint256",
              "name": "tokenId",
              "type": "uint256"
            },
            {
              "internalType": "address",
              "name": "initialOwner",
              "type": "address"
            },
            {
              "internalType": "enum CarbonBase.ApprovalStatus",
              "name": "status",
              "type": "uint8"
            },
            {
              "internalType": "uint256",
              "name": "pricePerCredit",
              "type": "uint256"
            },
            {
              "internalType": "bool",
              "name": "isListed",
              "type": "bool"
            }
          ],
          "internalType": "struct CarbonBase.CarbonCredit[]",
          "name": "",
          "type": "tuple[]"
        }
      ],
      "stateMutability": "view",
      "type": "function",
      "constant": true
    },
    {
      "inputs": [
        {
          "internalType": "uint256",
          "name": "tokenId",
          "type": "uint256"
        },
        {
          "internalType": "uint256",
          "name": "amount",
          "type": "uint256"
        }
      ],
      "name": "buyCredits",
      "outputs": [],
      "stateMutability": "payable",
      "type": "function",
      "payable": true
    },
    {
      "inputs": [
        {
          "internalType": "uint256",
          "name": "tokenId",
          "type": "uint256"
        },
        {
          "internalType": "uint256",
          "name": "amount",
          "type": "uint256"
        }
      ],
      "name": "retireCredits",
      "outputs": [],
      "stateMutability": "nonpayable",
      "type": "function"
    }
  ],
  "bytecode": "0x608060405260405180602001604052806000815250600390805190602001906200002b92919062000215565b503480156200003957600080fd5b5060405162005e1738038062005e1783398181016040528101906200005f91906200032f565b6040518060200160405280600081525062000080816200012b60201b60201c565b50620000a1620000956200014760201b60201c565b6200014f60201b60201c565b81600660006101000a81548173ffffffffffffffffffffffffffffffffffffffff021916908373ffffffffffffffffffffffffffffffffffffffff16021790555080600760006101000a81548173ffffffffffffffffffffffffffffffffffffffff021916908373ffffffffffffffffffffffffffffffffffffffff1602179055505050620003da565b80600290805190602001906200014392919062000215565b5050565b600033905090565b6000600560009054906101000a900473ffffffffffffffffffffffffffffffffffffffff16905081600560006101000a81548173ffffffffffffffffffffffffffffffffffffffff021916908373ffffffffffffffffffffffffffffffffffffffff1602179055508173ffffffffffffffffffffffffffffffffffffffff168173ffffffffffffffffffffffffffffffffffffffff167f8be0079c531659141344cd1fd0a4f28419497f9722a3daafe3b4186f6b6457e060405160405180910390a35050565b8280546200022390620003a5565b90600052602060002090601f01602090048101928262000247576000855562000293565b82601f106200026257805160ff191683800117855562000293565b8280016001018555821562000293579182015b828111156200029257825182559160200191906001019062000275565b5b509050620002a29190620002a6565b5090565b5b80821115620002c1576000816000905550600101620002a7565b5090565b600080fd5b600073ffffffffffffffffffffffffffffffffffffffff82169050919050565b6000620002f782620002ca565b9050919050565b6200030981620002ea565b81146200031557600080fd5b50565b6000815190506200032981620002fe565b92915050565b60008060408385031215620003495762000348620002c5565b5b6000620003598582860162000318565b92505060206200036c8582860162000318565b9150509250929050565b7f4e487b7100000000000000000000000000000000000000000000000000000000600052602260045260246000fd5b60006002820490506001821680620003be57607f821691505b602082108103620003d457620003d362000376565b5b50919050565b615a2d80620003ea6000396000f3fe6080604052600436106101085760003560e01c80636b20c45411610095578063e7c2829f11610064578063e7c2829f14610357578063e985e9c514610382578063f242432a146103bf578063f2fde38b146103e8578063f5298aca1461041157610108565b80636b20c454146102c3578063715018a6146102ec5780638da5cb5b14610303578063a22cb4651461032e57610108565b80632eb2c2d6116100dc5780632eb2c2d6146101ed5780633ea0fb1314610216578063479c84571461023f5780634c9742211461025b5780634e1273f41461028657610108565b8062fdd58e1461010d57806301ffc9a71461014a5780630e89341c1461018757806319adf6ad146101c4575b600080fd5b34801561011957600080fd5b50610134600480360381019061012f91906137f9565b61043a565b6040516101419190613848565b60405180910390f35b34801561015657600080fd5b50610171600480360381019061016c91906138bb565b610502565b60405161017e9190613903565b60405180910390f35b34801561019357600080fd5b506101ae60048036038101906101a9919061391e565b6105e4565b6040516101bb91906139e4565b60405180910390f35b3480156101d057600080fd5b506101eb60048036038101906101e69190613a06565b6105f6565b005b3480156101f957600080fd5b50610214600480360381019061020f9190613c43565b610b69565b005b34801561022257600080fd5b5061023d60048036038101906102389190613a06565b610c0a565b005b61025960048036038101906102549190613a06565b6112dd565b005b34801561026757600080fd5b50610270611c2e565b60405161027d9190613848565b60405180910390f35b34801561029257600080fd5b506102ad60048036038101906102a89190613dd5565b611c38565b6040516102ba9190613f0b565b60405180910390f35b3480156102cf57600080fd5b506102ea60048036038101906102e59190613f2d565b611d51565b005b3480156102f857600080fd5b50610301611dee565b005b34801561030f57600080fd5b50610318611e02565b6040516103259190613fc7565b60405180910390f35b34801561033a57600080fd5b506103556004803603810190610350919061400e565b611e2c565b005b34801561036357600080fd5b5061036c611e42565b60405161037991906141fa565b60405180910390f35b34801561038e57600080fd5b506103a960048036038101906103a4919061421c565b6120dd565b6040516103b69190613903565b60405180910390f35b3480156103cb57600080fd5b506103e660048036038101906103e1919061425c565b612171565b005b3480156103f457600080fd5b5061040f600480360381019061040a91906142f3565b612212565b005b34801561041d57600080fd5b5061043860048036038101906104339190614320565b612295565b005b60008073ffffffffffffffffffffffffffffffffffffffff168373ffffffffffffffffffffffffffffffffffffffff16036104aa576040517f08c379a00000000000000000000000000000000000000000000000000000000081526004016104a1906143e5565b60405180910390fd5b60008083815260200190815260200160002060008473ffffffffffffffffffffffffffffffffffffffff1673ffffffffffffffffffffffffffffffffffffffff16815260200190815260200160002054905092915050565b60007fd9b67a26000000000000000000000000000000000000000000000000000000007bffffffffffffffffffffffffffffffffffffffffffffffffffffffff1916827bffffffffffffffffffffffffffffffffffffffffffffffffffffffff191614806105cd57507f0e89341c000000000000000000000000000000000000000000000000000000007bffffffffffffffffffffffffffffffffffffffffffffffffffffffff1916827bffffffffffffffffffffffffffffffffffffffffffffffffffffffff1916145b806105dd57506105dc82612332565b5b9050919050565b60606105ef8261239c565b9050919050565b6000600660009054906101000a900473ffffffffffffffffffffffffffffffffffffffff1673ffffffffffffffffffffffffffffffffffffffff1663f392243b846040518263ffffffff1660e01b81526004016106539190613848565b60a060405180830381865afa158015610670573d6000803e3d6000fd5b505050506040513d601f19601f8201168201806040525081019061069491906144fa565b90506000600660009054906101000a900473ffffffffffffffffffffffffffffffffffffffff1673ffffffffffffffffffffffffffffffffffffffff1662fdd58e8360200151866040518363ffffffff1660e01b81526004016106f8929190614527565b602060405180830381865afa158015610715573d6000803e3d6000fd5b505050506040513d601f19601f820116820180604052508101906107399190614550565b11610779576040517f08c379a0000000000000000000000000000000000000000000000000000000008152600401610770906145c9565b60405180910390fd5b6001600281111561078d5761078c614089565b5b816040015160028111156107a4576107a3614089565b5b146107e4576040517f08c379a00000000000000000000000000000000000000000000000000000000081526004016107db90614635565b60405180910390fd5b806080015115610829576040517f08c379a0000000000000000000000000000000000000000000000000000000008152600401610820906146a1565b60405180910390fd5b6000821161086c576040517f08c379a00000000000000000000000000000000000000000000000000000000081526004016108639061470d565b60405180910390fd5b600660009054906101000a900473ffffffffffffffffffffffffffffffffffffffff1673ffffffffffffffffffffffffffffffffffffffff1663e985e9c58260200151306040518363ffffffff1660e01b81526004016108cd92919061472d565b602060405180830381865afa1580156108ea573d6000803e3d6000fd5b505050506040513d601f19601f8201168201806040525081019061090e9190614756565b61094d576040517f08c379a0000000000000000000000000000000000000000000000000000000008152600401610944906147cf565b60405180910390fd5b600660009054906101000a900473ffffffffffffffffffffffffffffffffffffffff1673ffffffffffffffffffffffffffffffffffffffff16639c0ab5ec8460016040518363ffffffff1660e01b81526004016109ab9291906147ef565b600060405180830381600087803b1580156109c557600080fd5b505af11580156109d9573d6000803e3d6000fd5b50505050600660009054906101000a900473ffffffffffffffffffffffffffffffffffffffff1673ffffffffffffffffffffffffffffffffffffffff166382367b2d84846040518363ffffffff1660e01b8152600401610a3a929190614818565b600060405180830381600087803b158015610a5457600080fd5b505af1158015610a68573d6000803e3d6000fd5b50505050600160086000828254610a7f9190614870565b925050819055507fb7a455907b74aaf4828ce5121f0db638eb92c3ee60333d4c2f6e86e48285b469838260200151600660009054906101000a900473ffffffffffffffffffffffffffffffffffffffff1673ffffffffffffffffffffffffffffffffffffffff166319b88edb876040518263ffffffff1660e01b8152600401610b089190613848565b602060405180830381865afa158015610b25573d6000803e3d6000fd5b505050506040513d601f19601f82011682018060405250810190610b499190614550565b8542604051610b5c9594939291906148c6565b60405180910390a1505050565b610b71612481565b73ffffffffffffffffffffffffffffffffffffffff168573ffffffffffffffffffffffffffffffffffffffff161480610bb75750610bb685610bb1612481565b6120dd565b5b610bf6576040517f08c379a0000000000000000000000000000000000000000000000000000000008152600401610bed9061498b565b60405180910390fd5b610c038585858585612489565b5050505050565b60008111610c4d576040517f08c379a0000000000000000000000000000000000000000000000000000000008152600401610c4490614a1d565b60405180910390fd5b600760009054906101000a900473ffffffffffffffffffffffffffffffffffffffff1673ffffffffffffffffffffffffffffffffffffffff166333dab3bc336040518263ffffffff1660e01b8152600401610ca89190613fc7565b602060405180830381865afa158015610cc5573d6000803e3d6000fd5b505050506040513d601f19601f82011682018060405250810190610ce99190614756565b610d28576040517f08c379a0000000000000000000000000000000000000000000000000000000008152600401610d1f90614a89565b60405180910390fd5b80600660009054906101000a900473ffffffffffffffffffffffffffffffffffffffff1673ffffffffffffffffffffffffffffffffffffffff1662fdd58e33856040518363ffffffff1660e01b8152600401610d85929190614527565b602060405180830381865afa158015610da2573d6000803e3d6000fd5b505050506040513d601f19601f82011682018060405250810190610dc69190614550565b1015610e07576040517f08c379a0000000000000000000000000000000000000000000000000000000008152600401610dfe90614af5565b60405180910390fd5b600660009054906101000a900473ffffffffffffffffffffffffffffffffffffffff1673ffffffffffffffffffffffffffffffffffffffff1663e985e9c533306040518363ffffffff1660e01b8152600401610e6492919061472d565b602060405180830381865afa158015610e81573d6000803e3d6000fd5b505050506040513d601f19601f82011682018060405250810190610ea59190614756565b610ee4576040517f08c379a0000000000000000000000000000000000000000000000000000000008152600401610edb90614b61565b60405180910390fd5b600660009054906101000a900473ffffffffffffffffffffffffffffffffffffffff1673ffffffffffffffffffffffffffffffffffffffff1663f5298aca3384846040518463ffffffff1660e01b8152600401610f4393929190614b81565b600060405180830381600087803b158015610f5d57600080fd5b505af1158015610f71573d6000803e3d6000fd5b505050506000600760009054906101000a900473ffffffffffffffffffffffffffffffffffffffff1673ffffffffffffffffffffffffffffffffffffffff16631f15ad1a336040518263ffffffff1660e01b8152600401610fd29190613fc7565b602060405180830381865afa158015610fef573d6000803e3d6000fd5b505050506040513d601f19601f820116820180604052508101906110139190614550565b90506000600760009054906101000a900473ffffffffffffffffffffffffffffffffffffffff1673ffffffffffffffffffffffffffffffffffffffff1663df5c0639336040518263ffffffff1660e01b81526004016110729190613fc7565b602060405180830381865afa15801561108f573d6000803e3d6000fd5b505050506040513d601f19601f820116820180604052508101906110b39190614550565b90507fdd970dd9b5bfe707922155b058a407655cb18288b807e2216442bca8ad83d6b5826040516110e49190614c04565b60405180910390a17fdd970dd9b5bfe707922155b058a407655cb18288b807e2216442bca8ad83d6b58160405161111b9190614c7e565b60405180910390a182821015611166576040517f08c379a000000000000000000000000000000000000000000000000000000000815260040161115d90614cf8565b60405180910390fd5b600760009054906101000a900473ffffffffffffffffffffffffffffffffffffffff1673ffffffffffffffffffffffffffffffffffffffff1663af7ff0bb3385856111b19190614d18565b6040518363ffffffff1660e01b81526004016111ce929190614527565b600060405180830381600087803b1580156111e857600080fd5b505af11580156111fc573d6000803e3d6000fd5b50505050600760009054906101000a900473ffffffffffffffffffffffffffffffffffffffff1673ffffffffffffffffffffffffffffffffffffffff166323413d3533858461124b9190614870565b6040518363ffffffff1660e01b8152600401611268929190614527565b600060405180830381600087803b15801561128257600080fd5b505af1158015611296573d6000803e3d6000fd5b505050507f86e4ad062b281f0afdca6d3083c06d8602ea1ad4cea7dd132332b96160cd0204843385426040516112cf9493929190614d4c565b60405180910390a150505050565b6000600660009054906101000a900473ffffffffffffffffffffffffffffffffffffffff1673ffffffffffffffffffffffffffffffffffffffff1663f392243b846040518263ffffffff1660e01b815260040161133a9190613848565b60a060405180830381865afa158015611357573d6000803e3d6000fd5b505050506040513d601f19601f8201168201806040525081019061137b91906144fa565b9050600760009054906101000a900473ffffffffffffffffffffffffffffffffffffffff1673ffffffffffffffffffffffffffffffffffffffff166333dab3bc336040518263ffffffff1660e01b81526004016113d89190613fc7565b602060405180830381865afa1580156113f5573d6000803e3d6000fd5b505050506040513d601f19601f820116820180604052508101906114199190614756565b611458576040517f08c379a000000000000000000000000000000000000000000000000000000000815260040161144f90614a89565b60405180910390fd5b806080015161149c576040517f08c379a000000000000000000000000000000000000000000000000000000000815260040161149390614ddd565b60405180910390fd5b81600660009054906101000a900473ffffffffffffffffffffffffffffffffffffffff1673ffffffffffffffffffffffffffffffffffffffff1662fdd58e8360200151866040518363ffffffff1660e01b81526004016114fd929190614527565b602060405180830381865afa15801561151a573d6000803e3d6000fd5b505050506040513d601f19601f8201168201806040525081019061153e9190614550565b101561157f576040517f08c379a000000000000000000000000000000000000000000000000000000000815260040161157690614af5565b60405180910390fd5b81816060015161158f9190614dfd565b3410156115d1576040517f08c379a00000000000000000000000000000000000000000000000000000000081526004016115c890614ea3565b60405180910390fd5b600660009054906101000a900473ffffffffffffffffffffffffffffffffffffffff1673ffffffffffffffffffffffffffffffffffffffff1663e985e9c58260200151306040518363ffffffff1660e01b815260040161163292919061472d565b602060405180830381865afa15801561164f573d6000803e3d6000fd5b505050506040513d601f19601f820116820180604052508101906116739190614756565b6116b2576040517f08c379a00000000000000000000000000000000000000000000000000000000081526004016116a990614b61565b60405180910390fd5b600660009054906101000a900473ffffffffffffffffffffffffffffffffffffffff1673ffffffffffffffffffffffffffffffffffffffff1663f242432a82602001513386866040518563ffffffff1660e01b81526004016117179493929190614efa565b600060405180830381600087803b15801561173157600080fd5b505af1158015611745573d6000803e3d6000fd5b50505050806020015173ffffffffffffffffffffffffffffffffffffffff166108fc349081150290604051600060405180830381858888f19350505050158015611793573d6000803e3d6000fd5b50600660009054906101000a900473ffffffffffffffffffffffffffffffffffffffff1673ffffffffffffffffffffffffffffffffffffffff1663eeb2982f84846040518363ffffffff1660e01b81526004016117f1929190614818565b600060405180830381600087803b15801561180b57600080fd5b505af115801561181f573d6000803e3d6000fd5b505050506000600660009054906101000a900473ffffffffffffffffffffffffffffffffffffffff1673ffffffffffffffffffffffffffffffffffffffff1662fdd58e8360200151866040518363ffffffff1660e01b8152600401611885929190614527565b602060405180830381865afa1580156118a2573d6000803e3d6000fd5b505050506040513d601f19601f820116820180604052508101906118c69190614550565b0361197457600660009054906101000a900473ffffffffffffffffffffffffffffffffffffffff1673ffffffffffffffffffffffffffffffffffffffff16639c0ab5ec8460006040518363ffffffff1660e01b81526004016119299291906147ef565b600060405180830381600087803b15801561194357600080fd5b505af1158015611957573d6000803e3d6000fd5b505050506008600081548092919061196e90614f52565b91905055505b600760009054906101000a900473ffffffffffffffffffffffffffffffffffffffff1673ffffffffffffffffffffffffffffffffffffffff1663af7ff0bb826020015184600760009054906101000a900473ffffffffffffffffffffffffffffffffffffffff1673ffffffffffffffffffffffffffffffffffffffff16631f15ad1a86602001516040518263ffffffff1660e01b8152600401611a179190613fc7565b602060405180830381865afa158015611a34573d6000803e3d6000fd5b505050506040513d601f19601f82011682018060405250810190611a589190614550565b611a629190614d18565b6040518363ffffffff1660e01b8152600401611a7f929190614527565b600060405180830381600087803b158015611a9957600080fd5b505af1158015611aad573d6000803e3d6000fd5b50505050600760009054906101000a900473ffffffffffffffffffffffffffffffffffffffff1673ffffffffffffffffffffffffffffffffffffffff1663af7ff0bb3384600760009054906101000a900473ffffffffffffffffffffffffffffffffffffffff1673ffffffffffffffffffffffffffffffffffffffff16631f15ad1a336040518263ffffffff1660e01b8152600401611b4c9190613fc7565b602060405180830381865afa158015611b69573d6000803e3d6000fd5b505050506040513d601f19601f82011682018060405250810190611b8d9190614550565b611b979190614870565b6040518363ffffffff1660e01b8152600401611bb4929190614527565b600060405180830381600087803b158015611bce57600080fd5b505af1158015611be2573d6000803e3d6000fd5b505050507fadbbaff5d3f24e7a13aaf13c504d323cd85ecba120c82f46762b3f57e5fa5d76838260200151338542604051611c21959493929190614f7b565b60405180910390a1505050565b6000600854905090565b60608151835114611c7e576040517f08c379a0000000000000000000000000000000000000000000000000000000008152600401611c7590615040565b60405180910390fd5b6000835167ffffffffffffffff811115611c9b57611c9a613a4b565b5b604051908082528060200260200182016040528015611cc95781602001602082028036833780820191505090505b50905060005b8451811015611d4657611d16858281518110611cee57611ced615060565b5b6020026020010151858381518110611d0957611d08615060565b5b602002602001015161043a565b828281518110611d2957611d28615060565b5b60200260200101818152505080611d3f9061508f565b9050611ccf565b508091505092915050565b611d59612481565b73ffffffffffffffffffffffffffffffffffffffff168373ffffffffffffffffffffffffffffffffffffffff161480611d9f5750611d9e83611d99612481565b6120dd565b5b611dde576040517f08c379a0000000000000000000000000000000000000000000000000000000008152600401611dd59061498b565b60405180910390fd5b611de98383836127aa565b505050565b611df6612a78565b611e006000612af6565b565b6000600560009054906101000a900473ffffffffffffffffffffffffffffffffffffffff16905090565b611e3e611e37612481565b8383612bbc565b5050565b60606000600660009054906101000a900473ffffffffffffffffffffffffffffffffffffffff1673ffffffffffffffffffffffffffffffffffffffff16630b2f67256040518163ffffffff1660e01b8152600401602060405180830381865afa158015611eb3573d6000803e3d6000fd5b505050506040513d601f19601f82011682018060405250810190611ed79190614550565b905060008060085467ffffffffffffffff811115611ef857611ef7613a4b565b5b604051908082528060200260200182016040528015611f3157816020015b611f1e6136f8565b815260200190600190039081611f165790505b50905060005b838110156120d3576000600660009054906101000a900473ffffffffffffffffffffffffffffffffffffffff1673ffffffffffffffffffffffffffffffffffffffff1663644b7a43836040518263ffffffff1660e01b8152600401611f9c9190613848565b602060405180830381865afa158015611fb9573d6000803e3d6000fd5b505050506040513d601f19601f82011682018060405250810190611fdd9190614550565b90506000600660009054906101000a900473ffffffffffffffffffffffffffffffffffffffff1673ffffffffffffffffffffffffffffffffffffffff1663f392243b836040518263ffffffff1660e01b815260040161203c9190613848565b60a060405180830381865afa158015612059573d6000803e3d6000fd5b505050506040513d601f19601f8201168201806040525081019061207d91906144fa565b90506001151581608001511515036120be57808486815181106120a3576120a2615060565b5b60200260200101819052506001856120bb9190614870565b94505b505080806120cb9061508f565b915050611f37565b5080935050505090565b6000600160008473ffffffffffffffffffffffffffffffffffffffff1673ffffffffffffffffffffffffffffffffffffffff16815260200190815260200160002060008373ffffffffffffffffffffffffffffffffffffffff1673ffffffffffffffffffffffffffffffffffffffff16815260200190815260200160002060009054906101000a900460ff16905092915050565b612179612481565b73ffffffffffffffffffffffffffffffffffffffff168573ffffffffffffffffffffffffffffffffffffffff1614806121bf57506121be856121b9612481565b6120dd565b5b6121fe576040517f08c379a00000000000000000000000000000000000000000000000000000000081526004016121f59061498b565b60405180910390fd5b61220b8585858585612d28565b5050505050565b61221a612a78565b600073ffffffffffffffffffffffffffffffffffffffff168173ffffffffffffffffffffffffffffffffffffffff1603612289576040517f08c379a000000000000000000000000000000000000000000000000000000000815260040161228090615149565b60405180910390fd5b61229281612af6565b50565b61229d612481565b73ffffffffffffffffffffffffffffffffffffffff168373ffffffffffffffffffffffffffffffffffffffff1614806122e357506122e2836122dd612481565b6120dd565b5b612322576040517f08c379a00000000000000000000000000000000000000000000000000000000081526004016123199061498b565b60405180910390fd5b61232d838383612fc3565b505050565b60007f01ffc9a7000000000000000000000000000000000000000000000000000000007bffffffffffffffffffffffffffffffffffffffffffffffffffffffff1916827bffffffffffffffffffffffffffffffffffffffffffffffffffffffff1916149050919050565b606060006004600084815260200190815260200160002080546123be90615198565b80601f01602080910402602001604051908101604052809291908181526020018280546123ea90615198565b80156124375780601f1061240c57610100808354040283529160200191612437565b820191906000526020600020905b81548152906001019060200180831161241a57829003601f168201915b5050505050905060008151116124555761245083613209565b612479565b600381604051602001612469929190615299565b6040516020818303038152906040525b915050919050565b600033905090565b81518351146124cd576040517f08c379a00000000000000000000000000000000000000000000000000000000081526004016124c49061532f565b60405180910390fd5b600073ffffffffffffffffffffffffffffffffffffffff168473ffffffffffffffffffffffffffffffffffffffff160361253c576040517f08c379a0000000000000000000000000000000000000000000000000000000008152600401612533906153c1565b60405180910390fd5b6000612546612481565b905061255681878787878761329d565b60005b845181101561270757600085828151811061257757612576615060565b5b60200260200101519050600085838151811061259657612595615060565b5b60200260200101519050600080600084815260200190815260200160002060008b73ffffffffffffffffffffffffffffffffffffffff1673ffffffffffffffffffffffffffffffffffffffff16815260200190815260200160002054905081811015612637576040517f08c379a000000000000000000000000000000000000000000000000000000000815260040161262e90615453565b60405180910390fd5b81810360008085815260200190815260200160002060008c73ffffffffffffffffffffffffffffffffffffffff1673ffffffffffffffffffffffffffffffffffffffff168152602001908152602001600020819055508160008085815260200190815260200160002060008b73ffffffffffffffffffffffffffffffffffffffff1673ffffffffffffffffffffffffffffffffffffffff16815260200190815260200160002060008282546126ec9190614870565b92505081905550505050806127009061508f565b9050612559565b508473ffffffffffffffffffffffffffffffffffffffff168673ffffffffffffffffffffffffffffffffffffffff168273ffffffffffffffffffffffffffffffffffffffff167f4a39dc06d4c0dbc64b70af90fd698a233a518aa5d07e595d983b8c0526c8f7fb878760405161277e929190615473565b60405180910390a46127948187878787876132a5565b6127a28187878787876132ad565b505050505050565b600073ffffffffffffffffffffffffffffffffffffffff168373ffffffffffffffffffffffffffffffffffffffff1603612819576040517f08c379a00000000000000000000000000000000000000000000000000000000081526004016128109061551c565b60405180910390fd5b805182511461285d576040517f08c379a00000000000000000000000000000000000000000000000000000000081526004016128549061532f565b60405180910390fd5b6000612867612481565b90506128878185600086866040518060200160405280600081525061329d565b60005b83518110156129d45760008482815181106128a8576128a7615060565b5b6020026020010151905060008483815181106128c7576128c6615060565b5b60200260200101519050600080600084815260200190815260200160002060008973ffffffffffffffffffffffffffffffffffffffff1673ffffffffffffffffffffffffffffffffffffffff16815260200190815260200160002054905081811015612968576040517f08c379a000000000000000000000000000000000000000000000000000000000815260040161295f906155ae565b60405180910390fd5b81810360008085815260200190815260200160002060008a73ffffffffffffffffffffffffffffffffffffffff1673ffffffffffffffffffffffffffffffffffffffff1681526020019081526020016000208190555050505080806129cc9061508f565b91505061288a565b50600073ffffffffffffffffffffffffffffffffffffffff168473ffffffffffffffffffffffffffffffffffffffff168273ffffffffffffffffffffffffffffffffffffffff167f4a39dc06d4c0dbc64b70af90fd698a233a518aa5d07e595d983b8c0526c8f7fb8686604051612a4c929190615473565b60405180910390a4612a72818560008686604051806020016040528060008152506132a5565b50505050565b612a80612481565b73ffffffffffffffffffffffffffffffffffffffff16612a9e611e02565b73ffffffffffffffffffffffffffffffffffffffff1614612af4576040517f08c379a0000000000000000000000000000000000000000000000000000000008152600401612aeb9061561a565b60405180910390fd5b565b6000600560009054906101000a900473ffffffffffffffffffffffffffffffffffffffff16905081600560006101000a81548173ffffffffffffffffffffffffffffffffffffffff021916908373ffffffffffffffffffffffffffffffffffffffff1602179055508173ffffffffffffffffffffffffffffffffffffffff168173ffffffffffffffffffffffffffffffffffffffff167f8be0079c531659141344cd1fd0a4f28419497f9722a3daafe3b4186f6b6457e060405160405180910390a35050565b8173ffffffffffffffffffffffffffffffffffffffff168373ffffffffffffffffffffffffffffffffffffffff1603612c2a576040517f08c379a0000000000000000000000000000000000000000000000000000000008152600401612c21906156ac565b60405180910390fd5b80600160008573ffffffffffffffffffffffffffffffffffffffff1673ffffffffffffffffffffffffffffffffffffffff16815260200190815260200160002060008473ffffffffffffffffffffffffffffffffffffffff1673ffffffffffffffffffffffffffffffffffffffff16815260200190815260200160002060006101000a81548160ff0219169083151502179055508173ffffffffffffffffffffffffffffffffffffffff168373ffffffffffffffffffffffffffffffffffffffff167f17307eab39ab6107e8899845ad3d59bd9653f200f220920489ca2b5937696c3183604051612d1b9190613903565b60405180910390a3505050565b600073ffffffffffffffffffffffffffffffffffffffff168473ffffffffffffffffffffffffffffffffffffffff1603612d97576040517f08c379a0000000000000000000000000000000000000000000000000000000008152600401612d8e906153c1565b60405180910390fd5b6000612da1612481565b90506000612dae85613484565b90506000612dbb85613484565b9050612dcb83898985858961329d565b600080600088815260200190815260200160002060008a73ffffffffffffffffffffffffffffffffffffffff1673ffffffffffffffffffffffffffffffffffffffff16815260200190815260200160002054905085811015612e62576040517f08c379a0000000000000000000000000000000000000000000000000000000008152600401612e5990615453565b60405180910390fd5b85810360008089815260200190815260200160002060008b73ffffffffffffffffffffffffffffffffffffffff1673ffffffffffffffffffffffffffffffffffffffff168152602001908152602001600020819055508560008089815260200190815260200160002060008a73ffffffffffffffffffffffffffffffffffffffff1673ffffffffffffffffffffffffffffffffffffffff1681526020019081526020016000206000828254612f179190614870565b925050819055508773ffffffffffffffffffffffffffffffffffffffff168973ffffffffffffffffffffffffffffffffffffffff168573ffffffffffffffffffffffffffffffffffffffff167fc3d58168c5ae7397731d063d5bbf3d657854427343f4c083240f7aacaa2d0f628a8a604051612f94929190614818565b60405180910390a4612faa848a8a86868a6132a5565b612fb8848a8a8a8a8a6134fe565b505050505050505050565b600073ffffffffffffffffffffffffffffffffffffffff168373ffffffffffffffffffffffffffffffffffffffff1603613032576040517f08c379a00000000000000000000000000000000000000000000000000000000081526004016130299061551c565b60405180910390fd5b600061303c612481565b9050600061304984613484565b9050600061305684613484565b90506130768387600085856040518060200160405280600081525061329d565b600080600087815260200190815260200160002060008873ffffffffffffffffffffffffffffffffffffffff1673ffffffffffffffffffffffffffffffffffffffff1681526020019081526020016000205490508481101561310d576040517f08c379a0000000000000000000000000000000000000000000000000000000008152600401613104906155ae565b60405180910390fd5b84810360008088815260200190815260200160002060008973ffffffffffffffffffffffffffffffffffffffff1673ffffffffffffffffffffffffffffffffffffffff16815260200190815260200160002081905550600073ffffffffffffffffffffffffffffffffffffffff168773ffffffffffffffffffffffffffffffffffffffff168573ffffffffffffffffffffffffffffffffffffffff167fc3d58168c5ae7397731d063d5bbf3d657854427343f4c083240f7aacaa2d0f6289896040516131da929190614818565b60405180910390a4613200848860008686604051806020016040528060008152506132a5565b50505050505050565b60606002805461321890615198565b80601f016020809104026020016040519081016040528092919081815260200182805461324490615198565b80156132915780601f1061326657610100808354040283529160200191613291565b820191906000526020600020905b81548152906001019060200180831161327457829003601f168201915b50505050509050919050565b505050505050565b505050505050565b6132cc8473ffffffffffffffffffffffffffffffffffffffff166136d5565b1561347c578373ffffffffffffffffffffffffffffffffffffffff1663bc197c8187878686866040518663ffffffff1660e01b8152600401613312959493929190615710565b6020604051808303816000875af192505050801561334e57506040513d601f19601f8201168201806040525081019061334b919061578d565b60015b6133f35761335a6157c7565b806308c379a0036133b6575061336e6157e9565b8061337957506133b8565b806040517f08c379a00000000000000000000000000000000000000000000000000000000081526004016133ad91906139e4565b60405180910390fd5b505b6040517f08c379a00000000000000000000000000000000000000000000000000000000081526004016133ea906158eb565b60405180910390fd5b63bc197c8160e01b7bffffffffffffffffffffffffffffffffffffffffffffffffffffffff1916817bffffffffffffffffffffffffffffffffffffffffffffffffffffffff19161461347a576040517f08c379a00000000000000000000000000000000000000000000000000000000081526004016134719061597d565b60405180910390fd5b505b505050505050565b60606000600167ffffffffffffffff8111156134a3576134a2613a4b565b5b6040519080825280602002602001820160405280156134d15781602001602082028036833780820191505090505b50905082816000815181106134e9576134e8615060565b5b60200260200101818152505080915050919050565b61351d8473ffffffffffffffffffffffffffffffffffffffff166136d5565b156136cd578373ffffffffffffffffffffffffffffffffffffffff1663f23a6e6187878686866040518663ffffffff1660e01b815260040161356395949392919061599d565b6020604051808303816000875af192505050801561359f57506040513d601f19601f8201168201806040525081019061359c919061578d565b60015b613644576135ab6157c7565b806308c379a00361360757506135bf6157e9565b806135ca5750613609565b806040517f08c379a00000000000000000000000000000000000000000000000000000000081526004016135fe91906139e4565b60405180910390fd5b505b6040517f08c379a000000000000000000000000000000000000000000000000000000000815260040161363b906158eb565b60405180910390fd5b63f23a6e6160e01b7bffffffffffffffffffffffffffffffffffffffffffffffffffffffff1916817bffffffffffffffffffffffffffffffffffffffffffffffffffffffff1916146136cb576040517f08c379a00000000000000000000000000000000000000000000000000000000081526004016136c29061597d565b60405180910390fd5b505b505050505050565b6000808273ffffffffffffffffffffffffffffffffffffffff163b119050919050565b6040518060a0016040528060008152602001600073ffffffffffffffffffffffffffffffffffffffff1681526020016000600281111561373b5761373a614089565b5b8152602001600081526020016000151581525090565b6000604051905090565b600080fd5b600080fd5b600073ffffffffffffffffffffffffffffffffffffffff82169050919050565b600061379082613765565b9050919050565b6137a081613785565b81146137ab57600080fd5b50565b6000813590506137bd81613797565b92915050565b6000819050919050565b6137d6816137c3565b81146137e157600080fd5b50565b6000813590506137f3816137cd565b92915050565b600080604083850312156138105761380f61375b565b5b600061381e858286016137ae565b925050602061382f858286016137e4565b9150509250929050565b613842816137c3565b82525050565b600060208201905061385d6000830184613839565b92915050565b60007fffffffff0000000000000000000000000000000000000000000000000000000082169050919050565b61389881613863565b81146138a357600080fd5b50565b6000813590506138b58161388f565b92915050565b6000602082840312156138d1576138d061375b565b5b60006138df848285016138a6565b91505092915050565b60008115159050919050565b6138fd816138e8565b82525050565b600060208201905061391860008301846138f4565b92915050565b6000602082840312156139345761393361375b565b5b6000613942848285016137e4565b91505092915050565b600081519050919050565b600082825260208201905092915050565b60005b8381101561398557808201518184015260208101905061396a565b83811115613994576000848401525b50505050565b6000601f19601f8301169050919050565b60006139b68261394b565b6139c08185613956565b93506139d0818560208601613967565b6139d98161399a565b840191505092915050565b600060208201905081810360008301526139fe81846139ab565b905092915050565b60008060408385031215613a1d57613a1c61375b565b5b6000613a2b858286016137e4565b9250506020613a3c858286016137e4565b9150509250929050565b600080fd5b7f4e487b7100000000000000000000000000000000000000000000000000000000600052604160045260246000fd5b613a838261399a565b810181811067ffffffffffffffff82111715613aa257613aa1613a4b565b5b80604052505050565b6000613ab5613751565b9050613ac18282613a7a565b919050565b600067ffffffffffffffff821115613ae157613ae0613a4b565b5b602082029050602081019050919050565b600080fd5b6000613b0a613b0584613ac6565b613aab565b90508083825260208201905060208402830185811115613b2d57613b2c613af2565b5b835b81811015613b565780613b4288826137e4565b845260208401935050602081019050613b2f565b5050509392505050565b600082601f830112613b7557613b74613a46565b5b8135613b85848260208601613af7565b91505092915050565b600080fd5b600067ffffffffffffffff821115613bae57613bad613a4b565b5b613bb78261399a565b9050602081019050919050565b82818337600083830152505050565b6000613be6613be184613b93565b613aab565b905082815260208101848484011115613c0257613c01613b8e565b5b613c0d848285613bc4565b509392505050565b600082601f830112613c2a57613c29613a46565b5b8135613c3a848260208601613bd3565b91505092915050565b600080600080600060a08688031215613c5f57613c5e61375b565b5b6000613c6d888289016137ae565b9550506020613c7e888289016137ae565b945050604086013567ffffffffffffffff811115613c9f57613c9e613760565b5b613cab88828901613b60565b935050606086013567ffffffffffffffff811115613ccc57613ccb613760565b5b613cd888828901613b60565b925050608086013567ffffffffffffffff811115613cf957613cf8613760565b5b613d0588828901613c15565b9150509295509295909350565b600067ffffffffffffffff821115613d2d57613d2c613a4b565b5b602082029050602081019050919050565b6000613d51613d4c84613d12565b613aab565b90508083825260208201905060208402830185811115613d7457613d73613af2565b5b835b81811015613d9d5780613d8988826137ae565b845260208401935050602081019050613d76565b5050509392505050565b600082601f830112613dbc57613dbb613a46565b5b8135613dcc848260208601613d3e565b91505092915050565b60008060408385031215613dec57613deb61375b565b5b600083013567ffffffffffffffff811115613e0a57613e09613760565b5b613e1685828601613da7565b925050602083013567ffffffffffffffff811115613e3757613e36613760565b5b613e4385828601613b60565b9150509250929050565b600081519050919050565b600082825260208201905092915050565b6000819050602082019050919050565b613e82816137c3565b82525050565b6000613e948383613e79565b60208301905092915050565b6000602082019050919050565b6000613eb882613e4d565b613ec28185613e58565b9350613ecd83613e69565b8060005b83811015613efe578151613ee58882613e88565b9750613ef083613ea0565b925050600181019050613ed1565b5085935050505092915050565b60006020820190508181036000830152613f258184613ead565b905092915050565b600080600060608486031215613f4657613f4561375b565b5b6000613f54868287016137ae565b935050602084013567ffffffffffffffff811115613f7557613f74613760565b5b613f8186828701613b60565b925050604084013567ffffffffffffffff811115613fa257613fa1613760565b5b613fae86828701613b60565b9150509250925092565b613fc181613785565b82525050565b6000602082019050613fdc6000830184613fb8565b92915050565b613feb816138e8565b8114613ff657600080fd5b50565b60008135905061400881613fe2565b92915050565b600080604083850312156140255761402461375b565b5b6000614033858286016137ae565b925050602061404485828601613ff9565b9150509250929050565b600081519050919050565b600082825260208201905092915050565b6000819050602082019050919050565b61408381613785565b82525050565b7f4e487b7100000000000000000000000000000000000000000000000000000000600052602160045260246000fd5b600381106140c9576140c8614089565b5b50565b60008190506140da826140b8565b919050565b60006140ea826140cc565b9050919050565b6140fa816140df565b82525050565b614109816138e8565b82525050565b60a0820160008201516141256000850182613e79565b506020820151614138602085018261407a565b50604082015161414b60408501826140f1565b50606082015161415e6060850182613e79565b5060808201516141716080850182614100565b50505050565b6000614183838361410f565b60a08301905092915050565b6000602082019050919050565b60006141a78261404e565b6141b18185614059565b93506141bc8361406a565b8060005b838110156141ed5781516141d48882614177565b97506141df8361418f565b9250506001810190506141c0565b5085935050505092915050565b60006020820190508181036000830152614214818461419c565b905092915050565b600080604083850312156142335761423261375b565b5b6000614241858286016137ae565b9250506020614252858286016137ae565b9150509250929050565b600080600080600060a086880312156142785761427761375b565b5b6000614286888289016137ae565b9550506020614297888289016137ae565b94505060406142a8888289016137e4565b93505060606142b9888289016137e4565b925050608086013567ffffffffffffffff8111156142da576142d9613760565b5b6142e688828901613c15565b9150509295509295909350565b6000602082840312156143095761430861375b565b5b6000614317848285016137ae565b91505092915050565b6000806000606084860312156143395761433861375b565b5b6000614347868287016137ae565b9350506020614358868287016137e4565b9250506040614369868287016137e4565b9150509250925092565b7f455243313135353a2061646472657373207a65726f206973206e6f742061207660008201527f616c6964206f776e657200000000000000000000000000000000000000000000602082015250565b60006143cf602a83613956565b91506143da82614373565b604082019050919050565b600060208201905081810360008301526143fe816143c2565b9050919050565b600080fd5b600081519050614419816137cd565b92915050565b60008151905061442e81613797565b92915050565b6003811061444157600080fd5b50565b60008151905061445381614434565b92915050565b60008151905061446881613fe2565b92915050565b600060a0828403121561448457614483614405565b5b61448e60a0613aab565b9050600061449e8482850161440a565b60008301525060206144b28482850161441f565b60208301525060406144c684828501614444565b60408301525060606144da8482850161440a565b60608301525060806144ee84828501614459565b60808301525092915050565b600060a082840312156145105761450f61375b565b5b600061451e8482850161446e565b91505092915050565b600060408201905061453c6000830185613fb8565b6145496020830184613839565b9392505050565b6000602082840312156145665761456561375b565b5b60006145748482850161440a565b91505092915050565b7f496e76616c696420746f6b656e2062616c616e63650000000000000000000000600082015250565b60006145b3601583613956565b91506145be8261457d565b602082019050919050565b600060208201905081810360008301526145e2816145a6565b9050919050565b7f496e76616c696420737461747573000000000000000000000000000000000000600082015250565b600061461f600e83613956565b915061462a826145e9565b602082019050919050565b6000602082019050818103600083015261464e81614612565b9050919050565b7f416c7265616479206c69737465642e0000000000000000000000000000000000600082015250565b600061468b600f83613956565b915061469682614655565b602082019050919050565b600060208201905081810360008301526146ba8161467e565b9050919050565b7f496e76616c696420707269636500000000000000000000000000000000000000600082015250565b60006146f7600d83613956565b9150614702826146c1565b602082019050919050565b60006020820190508181036000830152614726816146ea565b9050919050565b60006040820190506147426000830185613fb8565b61474f6020830184613fb8565b9392505050565b60006020828403121561476c5761476b61375b565b5b600061477a84828501614459565b91505092915050565b7f4d61726b6574706c616365206e6f742079657420617574686f72697a65640000600082015250565b60006147b9601e83613956565b91506147c482614783565b602082019050919050565b600060208201905081810360008301526147e8816147ac565b9050919050565b60006040820190506148046000830185613839565b61481160208301846138f4565b9392505050565b600060408201905061482d6000830185613839565b61483a6020830184613839565b9392505050565b7f4e487b7100000000000000000000000000000000000000000000000000000000600052601160045260246000fd5b600061487b826137c3565b9150614886836137c3565b9250827fffffffffffffffffffffffffffffffffffffffffffffffffffffffffffffffff038211156148bb576148ba614841565b5b828201905092915050565b600060a0820190506148db6000830188613839565b6148e86020830187613fb8565b6148f56040830186613839565b6149026060830185613839565b61490f6080830184613839565b9695505050505050565b7f455243313135353a2063616c6c6572206973206e6f7420746f6b656e206f776e60008201527f6572206f7220617070726f766564000000000000000000000000000000000000602082015250565b6000614975602e83613956565b915061498082614919565b604082019050919050565b600060208201905081810360008301526149a481614968565b9050919050565b7f416d6f756e74206d7573742062652067726561746572207468616e207a65726f60008201527f2e00000000000000000000000000000000000000000000000000000000000000602082015250565b6000614a07602183613956565b9150614a12826149ab565b604082019050919050565b60006020820190508181036000830152614a36816149fa565b9050919050565b7f4163636f756e74206e6f7420726567697374657265642e000000000000000000600082015250565b6000614a73601783613956565b9150614a7e82614a3d565b602082019050919050565b60006020820190508181036000830152614aa281614a66565b9050919050565b7f496e73756666696369656e742062616c616e63652e0000000000000000000000600082015250565b6000614adf601583613956565b9150614aea82614aa9565b602082019050919050565b60006020820190508181036000830152614b0e81614ad2565b9050919050565b7f4d61726b6574706c616365206e6f742079657420617574686f72697a65642e00600082015250565b6000614b4b601f83613956565b9150614b5682614b15565b602082019050919050565b60006020820190508181036000830152614b7a81614b3e565b9050919050565b6000606082019050614b966000830186613fb8565b614ba36020830185613839565b614bb06040830184613839565b949350505050565b7f43757272656e7420546f74616c20437265646974730000000000000000000000600082015250565b6000614bee601583613956565b9150614bf982614bb8565b602082019050919050565b60006040820190508181036000830152614c1d81614be1565b9050614c2c6020830184613839565b92915050565b7f43757272656e7420546f74616c20526574697265000000000000000000000000600082015250565b6000614c68601483613956565b9150614c7382614c32565b602082019050919050565b60006040820190508181036000830152614c9781614c5b565b9050614ca66020830184613839565b92915050565b7f556e646572666c6f772064657465637465642e00000000000000000000000000600082015250565b6000614ce2601383613956565b9150614ced82614cac565b602082019050919050565b60006020820190508181036000830152614d1181614cd5565b9050919050565b6000614d23826137c3565b9150614d2e836137c3565b925082821015614d4157614d40614841565b5b828203905092915050565b6000608082019050614d616000830187613839565b614d6e6020830186613fb8565b614d7b6040830185613839565b614d886060830184613839565b95945050505050565b7f496e76616c69642069734c6973746564207374617475732e0000000000000000600082015250565b6000614dc7601883613956565b9150614dd282614d91565b602082019050919050565b60006020820190508181036000830152614df681614dba565b9050919050565b6000614e08826137c3565b9150614e13836137c3565b9250817fffffffffffffffffffffffffffffffffffffffffffffffffffffffffffffffff0483118215151615614e4c57614e4b614841565b5b828202905092915050565b7f496e73756666696369656e742066756e64732e00000000000000000000000000600082015250565b6000614e8d601383613956565b9150614e9882614e57565b602082019050919050565b60006020820190508181036000830152614ebc81614e80565b9050919050565b600082825260208201905092915050565b50565b6000614ee4600083614ec3565b9150614eef82614ed4565b600082019050919050565b600060a082019050614f0f6000830187613fb8565b614f1c6020830186613fb8565b614f296040830185613839565b614f366060830184613839565b8181036080830152614f4781614ed7565b905095945050505050565b6000614f5d826137c3565b915060008203614f7057614f6f614841565b5b600182039050919050565b600060a082019050614f906000830188613839565b614f9d6020830187613fb8565b614faa6040830186613fb8565b614fb76060830185613839565b614fc46080830184613839565b9695505050505050565b7f455243313135353a206163636f756e747320616e6420696473206c656e67746860008201527f206d69736d617463680000000000000000000000000000000000000000000000602082015250565b600061502a602983613956565b915061503582614fce565b604082019050919050565b600060208201905081810360008301526150598161501d565b9050919050565b7f4e487b7100000000000000000000000000000000000000000000000000000000600052603260045260246000fd5b600061509a826137c3565b91507fffffffffffffffffffffffffffffffffffffffffffffffffffffffffffffffff82036150cc576150cb614841565b5b600182019050919050565b7f4f776e61626c653a206e6577206f776e657220697320746865207a65726f206160008201527f6464726573730000000000000000000000000000000000000000000000000000602082015250565b6000615133602683613956565b915061513e826150d7565b604082019050919050565b6000602082019050818103600083015261516281615126565b9050919050565b7f4e487b7100000000000000000000000000000000000000000000000000000000600052602260045260246000fd5b600060028204905060018216806151b057607f821691505b6020821081036151c3576151c2615169565b5b50919050565b600081905092915050565b60008190508160005260206000209050919050565b600081546151f681615198565b61520081866151c9565b9450600182166000811461521b576001811461522c5761525f565b60ff1983168652818601935061525f565b615235856151d4565b60005b8381101561525757815481890152600182019150602081019050615238565b838801955050505b50505092915050565b60006152738261394b565b61527d81856151c9565b935061528d818560208601613967565b80840191505092915050565b60006152a582856151e9565b91506152b18284615268565b91508190509392505050565b7f455243313135353a2069647320616e6420616d6f756e7473206c656e6774682060008201527f6d69736d61746368000000000000000000000000000000000000000000000000602082015250565b6000615319602883613956565b9150615324826152bd565b604082019050919050565b600060208201905081810360008301526153488161530c565b9050919050565b7f455243313135353a207472616e7366657220746f20746865207a65726f20616460008201527f6472657373000000000000000000000000000000000000000000000000000000602082015250565b60006153ab602583613956565b91506153b68261534f565b604082019050919050565b600060208201905081810360008301526153da8161539e565b9050919050565b7f455243313135353a20696e73756666696369656e742062616c616e636520666f60008201527f72207472616e7366657200000000000000000000000000000000000000000000602082015250565b600061543d602a83613956565b9150615448826153e1565b604082019050919050565b6000602082019050818103600083015261546c81615430565b9050919050565b6000604082019050818103600083015261548d8185613ead565b905081810360208301526154a18184613ead565b90509392505050565b7f455243313135353a206275726e2066726f6d20746865207a65726f206164647260008201527f6573730000000000000000000000000000000000000000000000000000000000602082015250565b6000615506602383613956565b9150615511826154aa565b604082019050919050565b60006020820190508181036000830152615535816154f9565b9050919050565b7f455243313135353a206275726e20616d6f756e7420657863656564732062616c60008201527f616e636500000000000000000000000000000000000000000000000000000000602082015250565b6000615598602483613956565b91506155a38261553c565b604082019050919050565b600060208201905081810360008301526155c78161558b565b9050919050565b7f4f776e61626c653a2063616c6c6572206973206e6f7420746865206f776e6572600082015250565b6000615604602083613956565b915061560f826155ce565b602082019050919050565b60006020820190508181036000830152615633816155f7565b9050919050565b7f455243313135353a2073657474696e6720617070726f76616c2073746174757360008201527f20666f722073656c660000000000000000000000000000000000000000000000602082015250565b6000615696602983613956565b91506156a18261563a565b604082019050919050565b600060208201905081810360008301526156c581615689565b9050919050565b600081519050919050565b60006156e2826156cc565b6156ec8185614ec3565b93506156fc818560208601613967565b6157058161399a565b840191505092915050565b600060a0820190506157256000830188613fb8565b6157326020830187613fb8565b81810360408301526157448186613ead565b905081810360608301526157588185613ead565b9050818103608083015261576c81846156d7565b90509695505050505050565b6000815190506157878161388f565b92915050565b6000602082840312156157a3576157a261375b565b5b60006157b184828501615778565b91505092915050565b60008160e01c9050919050565b600060033d11156157e65760046000803e6157e36000516157ba565b90505b90565b600060443d10615876576157fb613751565b60043d036004823e80513d602482011167ffffffffffffffff82111715615823575050615876565b808201805167ffffffffffffffff8111156158415750505050615876565b80602083010160043d03850181111561585e575050505050615876565b61586d82602001850186613a7a565b82955050505050505b90565b7f455243313135353a207472616e7366657220746f206e6f6e2d4552433131353560008201527f526563656976657220696d706c656d656e746572000000000000000000000000602082015250565b60006158d5603483613956565b91506158e082615879565b604082019050919050565b60006020820190508181036000830152615904816158c8565b9050919050565b7f455243313135353a204552433131353552656365697665722072656a6563746560008201527f6420746f6b656e73000000000000000000000000000000000000000000000000602082015250565b6000615967602883613956565b91506159728261590b565b604082019050919050565b600060208201905081810360008301526159968161595a565b9050919050565b600060a0820190506159b26000830188613fb8565b6159bf6020830187613fb8565b6159cc6040830186613839565b6159d96060830185613839565b81810360808301526159eb81846156d7565b9050969550505050505056fea26469706673582212206fee13441a117ca5060cfa8a91f26e78aaf985ec435fc29524a36380a0655e5264736f6c634300080d0033",
  "immutableReferences": {},
  "source": "// SPDX-License-Identifier: MIT\npragma solidity ^0.8.13;\n\nimport \"./AccountManagement.sol\";\nimport \"./CarbonToken.sol\";\nimport \"./CarbonBase.sol\";\n\ncontract CarbonMarket is CarbonBase {\n    CarbonToken private _token;\n    AccountManagement private _account;\n    uint256 private _listedTokens; // number of listed credits\n\n    event Log(string message, uint256 value);\n\n    constructor(address _tokenAddress, address _accountAddress) {\n        _token = CarbonToken(_tokenAddress);\n        _account = AccountManagement(_accountAddress);\n    }\n\n    function getListedTokensCount() public view returns (uint256) {\n        // returns the total number of listed credits\n        return _listedTokens;\n    }\n\n    function listCreditsForSale(uint256 tokenId, uint256 price) public {\n        CarbonCredit memory credit = _token.getCarbonCredit(tokenId);\n\n        require(\n            _token.balanceOf(credit.initialOwner, tokenId) > 0,\n            \"Invalid token balance\"\n        );\n        require(credit.status == ApprovalStatus.Approved, \"Invalid status\");\n        require(!credit.isListed, \"Already listed.\");\n        require(price > 0, \"Invalid price\");\n        require(\n            _token.isApprovedForAll(credit.initialOwner, address(this)),\n            \"Marketplace not yet authorized\"\n        );\n\n        _token.updateListed(tokenId, true);\n        _token.updatePrice(tokenId, price);\n        _listedTokens += 1;\n\n        emit CarbonCreditListed(\n            tokenId,\n            credit.initialOwner,\n            _token.getTokenSupply(tokenId),\n            price,\n            block.timestamp\n        );\n    }\n\n    function getAllListedCredits() public view returns (CarbonCredit[] memory) {\n        // [{}, {}, ...]\n        uint allCreditsCount = _token.getTotalTokensCount();\n        uint currentIndex = 0;\n        CarbonCredit[] memory credits = new CarbonCredit[](_listedTokens);\n\n        for (uint i = 0; i < allCreditsCount; i++) {\n            uint tokenId = _token.getTokenByIndex(i);\n            CarbonCredit memory credit = _token.getCarbonCredit(tokenId);\n            if (credit.isListed == true) {\n                credits[currentIndex] = credit;\n                currentIndex += 1;\n            }\n        }\n        return credits;\n    }\n\n    function buyCredits(uint256 tokenId, uint256 amount) public payable {\n        CarbonCredit memory credit = _token.getCarbonCredit(tokenId);\n\n        require(\n            _account.checkAccountRegistered(msg.sender),\n            \"Account not registered.\"\n        );\n        require(credit.isListed, \"Invalid isListed status.\");\n        require(\n            _token.balanceOf(credit.initialOwner, tokenId) >= amount,\n            \"Insufficient balance.\"\n        );\n        require(\n            msg.value >= credit.pricePerCredit * amount,\n            \"Insufficient funds.\"\n        );\n        require(\n            _token.isApprovedForAll(credit.initialOwner, address(this)),\n            \"Marketplace not yet authorized.\"\n        );\n\n        _token.safeTransferFrom(\n            credit.initialOwner,\n            msg.sender,\n            tokenId,\n            amount,\n            \"\"\n        );\n        payable(credit.initialOwner).transfer(msg.value);\n\n        _token.updateTokenSold(tokenId, amount);\n\n        // Additional custom logic post-transfer\n        // If all tokens of this ID are transferred, update the CarbonCredit struct\n        if (_token.balanceOf(credit.initialOwner, tokenId) == 0) {\n            _token.updateListed(tokenId, false);\n            _listedTokens--;\n        }\n\n        // Update account total credits\n        _account.setAccountTotalCredits(\n            credit.initialOwner,\n            _account.getAccountTotalCredits(credit.initialOwner) - amount\n        );\n        _account.setAccountTotalCredits(\n            msg.sender,\n            _account.getAccountTotalCredits(msg.sender) + amount\n        );\n\n        emit CarbonCreditPurchased(\n            tokenId,\n            credit.initialOwner,\n            msg.sender,\n            amount,\n            block.timestamp\n        );\n    }\n\n    function retireCredits(uint256 tokenId, uint256 amount) public {\n        require(amount > 0, \"Amount must be greater than zero.\");\n        require(\n            _account.checkAccountRegistered(msg.sender),\n            \"Account not registered.\"\n        );\n\n        require(\n            _token.balanceOf(msg.sender, tokenId) >= amount,\n            \"Insufficient balance.\"\n        );\n        require(\n            _token.isApprovedForAll(msg.sender, address(this)),\n            \"Marketplace not yet authorized.\"\n        );\n\n        _token.burn(msg.sender, tokenId, amount);\n\n        uint256 currentTotalCredits = _account.getAccountTotalCredits(\n            msg.sender\n        );\n        uint256 currentTotalRetire = _account.getAccountTotalRetire(msg.sender);\n\n        emit Log(\"Current Total Credits\", currentTotalCredits);\n        emit Log(\"Current Total Retire\", currentTotalRetire);\n\n        require(currentTotalCredits >= amount, \"Underflow detected.\");\n\n        _account.setAccountTotalCredits(\n            msg.sender,\n            currentTotalCredits - amount\n        );\n        _account.setAccountTotalRetire(msg.sender, currentTotalRetire + amount);\n\n        emit CarbonCreditRetired(tokenId, msg.sender, amount, block.timestamp);\n    }\n}\n",
  "sourcePath": "/Users/buudinhha/Vscode/DATN/main/contracts/CarbonMarket.sol",
  "compiler": {
    "name": "solc",
    "version": "0.8.13+commit.abaa5c0e.Emscripten.clang"
  },
  "schemaVersion": "3.4.16",
  "updatedAt": "2024-05-30T16:59:47.530Z",
  "networkType": "ethereum",
  "devdoc": {
    "kind": "dev",
    "methods": {
      "balanceOf(address,uint256)": {
        "details": "See {IERC1155-balanceOf}. Requirements: - `account` cannot be the zero address."
      },
      "balanceOfBatch(address[],uint256[])": {
        "details": "See {IERC1155-balanceOfBatch}. Requirements: - `accounts` and `ids` must have the same length."
      },
      "isApprovedForAll(address,address)": {
        "details": "See {IERC1155-isApprovedForAll}."
      },
      "owner()": {
        "details": "Returns the address of the current owner."
      },
      "renounceOwnership()": {
        "details": "Leaves the contract without owner. It will not be possible to call `onlyOwner` functions. Can only be called by the current owner. NOTE: Renouncing ownership will leave the contract without an owner, thereby disabling any functionality that is only available to the owner."
      },
      "safeBatchTransferFrom(address,address,uint256[],uint256[],bytes)": {
        "details": "See {IERC1155-safeBatchTransferFrom}."
      },
      "safeTransferFrom(address,address,uint256,uint256,bytes)": {
        "details": "See {IERC1155-safeTransferFrom}."
      },
      "setApprovalForAll(address,bool)": {
        "details": "See {IERC1155-setApprovalForAll}."
      },
      "supportsInterface(bytes4)": {
        "details": "See {IERC165-supportsInterface}."
      },
      "transferOwnership(address)": {
        "details": "Transfers ownership of the contract to a new account (`newOwner`). Can only be called by the current owner."
      }
    },
    "version": 1
  },
  "userdoc": {
    "kind": "user",
    "methods": {},
    "version": 1
  }
}