{
  "contractName": "CarbonToken",
  "abi": [
    {
      "anonymous": false,
      "inputs": [
        {
          "indexed": true,
          "internalType": "address",
          "name": "account",
          "type": "address"
        },
        {
          "indexed": true,
          "internalType": "address",
          "name": "operator",
          "type": "address"
        },
        {
          "indexed": false,
          "internalType": "bool",
          "name": "approved",
          "type": "bool"
        }
      ],
      "name": "ApprovalForAll",
      "type": "event"
    },
    {
      "anonymous": false,
      "inputs": [
        {
          "indexed": false,
          "internalType": "uint256",
          "name": "tokenId",
          "type": "uint256"
        },
        {
          "indexed": false,
          "internalType": "address",
          "name": "initialOwner",
          "type": "address"
        },
        {
          "indexed": false,
          "internalType": "enum CarbonBase.ApprovalStatus",
          "name": "status",
          "type": "uint8"
        },
        {
          "indexed": false,
          "internalType": "uint256",
          "name": "pricePerCredit",
          "type": "uint256"
        },
        {
          "indexed": false,
          "internalType": "bool",
          "name": "isListed",
          "type": "bool"
        }
      ],
      "name": "CarbonCreditCreated",
      "type": "event"
    },
    {
      "anonymous": false,
      "inputs": [
        {
          "indexed": false,
          "internalType": "uint256",
          "name": "tokenId",
          "type": "uint256"
        },
        {
          "indexed": false,
          "internalType": "address",
          "name": "initialOwner",
          "type": "address"
        },
        {
          "indexed": false,
          "internalType": "enum CarbonBase.ApprovalStatus",
          "name": "status",
          "type": "uint8"
        },
        {
          "indexed": false,
          "internalType": "uint256",
          "name": "pricePerCredit",
          "type": "uint256"
        },
        {
          "indexed": false,
          "internalType": "bool",
          "name": "isListed",
          "type": "bool"
        }
      ],
      "name": "CarbonCreditListed",
      "type": "event"
    },
    {
      "anonymous": false,
      "inputs": [
        {
          "indexed": true,
          "internalType": "address",
          "name": "previousOwner",
          "type": "address"
        },
        {
          "indexed": true,
          "internalType": "address",
          "name": "newOwner",
          "type": "address"
        }
      ],
      "name": "OwnershipTransferred",
      "type": "event"
    },
    {
      "anonymous": false,
      "inputs": [
        {
          "indexed": true,
          "internalType": "uint256",
          "name": "tokenId",
          "type": "uint256"
        },
        {
          "indexed": true,
          "internalType": "address",
          "name": "from",
          "type": "address"
        },
        {
          "indexed": true,
          "internalType": "address",
          "name": "to",
          "type": "address"
        },
        {
          "indexed": false,
          "internalType": "uint256",
          "name": "amount",
          "type": "uint256"
        }
      ],
      "name": "TokenTransferred",
      "type": "event"
    },
    {
      "anonymous": false,
      "inputs": [
        {
          "indexed": true,
          "internalType": "address",
          "name": "operator",
          "type": "address"
        },
        {
          "indexed": true,
          "internalType": "address",
          "name": "from",
          "type": "address"
        },
        {
          "indexed": true,
          "internalType": "address",
          "name": "to",
          "type": "address"
        },
        {
          "indexed": false,
          "internalType": "uint256[]",
          "name": "ids",
          "type": "uint256[]"
        },
        {
          "indexed": false,
          "internalType": "uint256[]",
          "name": "values",
          "type": "uint256[]"
        }
      ],
      "name": "TransferBatch",
      "type": "event"
    },
    {
      "anonymous": false,
      "inputs": [
        {
          "indexed": true,
          "internalType": "address",
          "name": "operator",
          "type": "address"
        },
        {
          "indexed": true,
          "internalType": "address",
          "name": "from",
          "type": "address"
        },
        {
          "indexed": true,
          "internalType": "address",
          "name": "to",
          "type": "address"
        },
        {
          "indexed": false,
          "internalType": "uint256",
          "name": "id",
          "type": "uint256"
        },
        {
          "indexed": false,
          "internalType": "uint256",
          "name": "value",
          "type": "uint256"
        }
      ],
      "name": "TransferSingle",
      "type": "event"
    },
    {
      "anonymous": false,
      "inputs": [
        {
          "indexed": false,
          "internalType": "string",
          "name": "value",
          "type": "string"
        },
        {
          "indexed": true,
          "internalType": "uint256",
          "name": "id",
          "type": "uint256"
        }
      ],
      "name": "URI",
      "type": "event"
    },
    {
      "inputs": [
        {
          "internalType": "address",
          "name": "account",
          "type": "address"
        },
        {
          "internalType": "uint256",
          "name": "id",
          "type": "uint256"
        }
      ],
      "name": "balanceOf",
      "outputs": [
        {
          "internalType": "uint256",
          "name": "",
          "type": "uint256"
        }
      ],
      "stateMutability": "view",
      "type": "function",
      "constant": true
    },
    {
      "inputs": [
        {
          "internalType": "address[]",
          "name": "accounts",
          "type": "address[]"
        },
        {
          "internalType": "uint256[]",
          "name": "ids",
          "type": "uint256[]"
        }
      ],
      "name": "balanceOfBatch",
      "outputs": [
        {
          "internalType": "uint256[]",
          "name": "",
          "type": "uint256[]"
        }
      ],
      "stateMutability": "view",
      "type": "function",
      "constant": true
    },
    {
      "inputs": [
        {
          "internalType": "address",
          "name": "account",
          "type": "address"
        },
        {
          "internalType": "uint256",
          "name": "id",
          "type": "uint256"
        },
        {
          "internalType": "uint256",
          "name": "value",
          "type": "uint256"
        }
      ],
      "name": "burn",
      "outputs": [],
      "stateMutability": "nonpayable",
      "type": "function"
    },
    {
      "inputs": [
        {
          "internalType": "address",
          "name": "account",
          "type": "address"
        },
        {
          "internalType": "uint256[]",
          "name": "ids",
          "type": "uint256[]"
        },
        {
          "internalType": "uint256[]",
          "name": "values",
          "type": "uint256[]"
        }
      ],
      "name": "burnBatch",
      "outputs": [],
      "stateMutability": "nonpayable",
      "type": "function"
    },
    {
      "inputs": [
        {
          "internalType": "address",
          "name": "account",
          "type": "address"
        },
        {
          "internalType": "address",
          "name": "operator",
          "type": "address"
        }
      ],
      "name": "isApprovedForAll",
      "outputs": [
        {
          "internalType": "bool",
          "name": "",
          "type": "bool"
        }
      ],
      "stateMutability": "view",
      "type": "function",
      "constant": true
    },
    {
      "inputs": [],
      "name": "owner",
      "outputs": [
        {
          "internalType": "address",
          "name": "",
          "type": "address"
        }
      ],
      "stateMutability": "view",
      "type": "function",
      "constant": true
    },
    {
      "inputs": [],
      "name": "renounceOwnership",
      "outputs": [],
      "stateMutability": "nonpayable",
      "type": "function"
    },
    {
      "inputs": [
        {
          "internalType": "address",
          "name": "from",
          "type": "address"
        },
        {
          "internalType": "address",
          "name": "to",
          "type": "address"
        },
        {
          "internalType": "uint256[]",
          "name": "ids",
          "type": "uint256[]"
        },
        {
          "internalType": "uint256[]",
          "name": "amounts",
          "type": "uint256[]"
        },
        {
          "internalType": "bytes",
          "name": "data",
          "type": "bytes"
        }
      ],
      "name": "safeBatchTransferFrom",
      "outputs": [],
      "stateMutability": "nonpayable",
      "type": "function"
    },
    {
      "inputs": [
        {
          "internalType": "address",
          "name": "from",
          "type": "address"
        },
        {
          "internalType": "address",
          "name": "to",
          "type": "address"
        },
        {
          "internalType": "uint256",
          "name": "id",
          "type": "uint256"
        },
        {
          "internalType": "uint256",
          "name": "amount",
          "type": "uint256"
        },
        {
          "internalType": "bytes",
          "name": "data",
          "type": "bytes"
        }
      ],
      "name": "safeTransferFrom",
      "outputs": [],
      "stateMutability": "nonpayable",
      "type": "function"
    },
    {
      "inputs": [
        {
          "internalType": "address",
          "name": "operator",
          "type": "address"
        },
        {
          "internalType": "bool",
          "name": "approved",
          "type": "bool"
        }
      ],
      "name": "setApprovalForAll",
      "outputs": [],
      "stateMutability": "nonpayable",
      "type": "function"
    },
    {
      "inputs": [
        {
          "internalType": "bytes4",
          "name": "interfaceId",
          "type": "bytes4"
        }
      ],
      "name": "supportsInterface",
      "outputs": [
        {
          "internalType": "bool",
          "name": "",
          "type": "bool"
        }
      ],
      "stateMutability": "view",
      "type": "function",
      "constant": true
    },
    {
      "inputs": [
        {
          "internalType": "address",
          "name": "newOwner",
          "type": "address"
        }
      ],
      "name": "transferOwnership",
      "outputs": [],
      "stateMutability": "nonpayable",
      "type": "function"
    },
    {
      "inputs": [
        {
          "internalType": "uint256",
          "name": "tokenId",
          "type": "uint256"
        }
      ],
      "name": "uri",
      "outputs": [
        {
          "internalType": "string",
          "name": "",
          "type": "string"
        }
      ],
      "stateMutability": "view",
      "type": "function",
      "constant": true
    },
    {
      "inputs": [
        {
          "internalType": "address",
          "name": "account",
          "type": "address"
        },
        {
          "internalType": "uint256",
          "name": "id",
          "type": "uint256"
        },
        {
          "internalType": "uint256",
          "name": "amount",
          "type": "uint256"
        },
        {
          "internalType": "bytes",
          "name": "data",
          "type": "bytes"
        }
      ],
      "name": "mint",
      "outputs": [],
      "stateMutability": "nonpayable",
      "type": "function"
    },
    {
      "inputs": [
        {
          "internalType": "uint256",
          "name": "tokenId",
          "type": "uint256"
        },
        {
          "internalType": "string",
          "name": "newURI",
          "type": "string"
        }
      ],
      "name": "setURI",
      "outputs": [],
      "stateMutability": "nonpayable",
      "type": "function"
    },
    {
      "inputs": [
        {
          "internalType": "uint256",
          "name": "tokenId",
          "type": "uint256"
        }
      ],
      "name": "getTokenSold",
      "outputs": [
        {
          "internalType": "uint256",
          "name": "",
          "type": "uint256"
        }
      ],
      "stateMutability": "view",
      "type": "function",
      "constant": true
    },
    {
      "inputs": [
        {
          "internalType": "uint256",
          "name": "tokenId",
          "type": "uint256"
        },
        {
          "internalType": "uint256",
          "name": "amount",
          "type": "uint256"
        }
      ],
      "name": "updateTokenSold",
      "outputs": [],
      "stateMutability": "nonpayable",
      "type": "function"
    },
    {
      "inputs": [],
      "name": "getTotalTokensCount",
      "outputs": [
        {
          "internalType": "uint256",
          "name": "",
          "type": "uint256"
        }
      ],
      "stateMutability": "view",
      "type": "function",
      "constant": true
    },
    {
      "inputs": [
        {
          "internalType": "uint256",
          "name": "index",
          "type": "uint256"
        }
      ],
      "name": "getTokenByIndex",
      "outputs": [
        {
          "internalType": "uint256",
          "name": "",
          "type": "uint256"
        }
      ],
      "stateMutability": "view",
      "type": "function",
      "constant": true
    },
    {
      "inputs": [
        {
          "internalType": "uint256",
          "name": "tokenId",
          "type": "uint256"
        }
      ],
      "name": "getCarbonCredit",
      "outputs": [
        {
          "components": [
            {
              "internalType": "uint256",
              "name": "tokenId",
              "type": "uint256"
            },
            {
              "internalType": "address",
              "name": "initialOwner",
              "type": "address"
            },
            {
              "internalType": "enum CarbonBase.ApprovalStatus",
              "name": "status",
              "type": "uint8"
            },
            {
              "internalType": "uint256",
              "name": "pricePerCredit",
              "type": "uint256"
            },
            {
              "internalType": "bool",
              "name": "isListed",
              "type": "bool"
            }
          ],
          "internalType": "struct CarbonBase.CarbonCredit",
          "name": "",
          "type": "tuple"
        }
      ],
      "stateMutability": "view",
      "type": "function",
      "constant": true
    },
    {
      "inputs": [
        {
          "internalType": "uint256",
          "name": "tokenId",
          "type": "uint256"
        },
        {
          "internalType": "address",
          "name": "owner",
          "type": "address"
        },
        {
          "internalType": "enum CarbonBase.ApprovalStatus",
          "name": "status",
          "type": "uint8"
        },
        {
          "internalType": "uint256",
          "name": "pricePerCredit",
          "type": "uint256"
        },
        {
          "internalType": "bool",
          "name": "isListed",
          "type": "bool"
        }
      ],
      "name": "setCarbonCredit",
      "outputs": [],
      "stateMutability": "nonpayable",
      "type": "function"
    },
    {
      "inputs": [
        {
          "internalType": "uint256",
          "name": "tokenId",
          "type": "uint256"
        },
        {
          "internalType": "enum CarbonBase.ApprovalStatus",
          "name": "status",
          "type": "uint8"
        }
      ],
      "name": "updateStatus",
      "outputs": [],
      "stateMutability": "nonpayable",
      "type": "function"
    },
    {
      "inputs": [
        {
          "internalType": "uint256",
          "name": "tokenId",
          "type": "uint256"
        },
        {
          "internalType": "uint256",
          "name": "price",
          "type": "uint256"
        }
      ],
      "name": "updatePrice",
      "outputs": [],
      "stateMutability": "nonpayable",
      "type": "function"
    },
    {
      "inputs": [
        {
          "internalType": "uint256",
          "name": "tokenId",
          "type": "uint256"
        },
        {
          "internalType": "bool",
          "name": "isListed",
          "type": "bool"
        }
      ],
      "name": "updateListed",
      "outputs": [],
      "stateMutability": "nonpayable",
      "type": "function"
    },
    {
      "inputs": [
        {
          "internalType": "uint256",
          "name": "tokenId",
          "type": "uint256"
        }
      ],
      "name": "getTokenSupply",
      "outputs": [
        {
          "internalType": "uint256",
          "name": "",
          "type": "uint256"
        }
      ],
      "stateMutability": "view",
      "type": "function",
      "constant": true
    },
    {
      "inputs": [
        {
          "internalType": "address",
          "name": "owner",
          "type": "address"
        }
      ],
      "name": "getOwnedTokensCount",
      "outputs": [
        {
          "internalType": "uint256",
          "name": "",
          "type": "uint256"
        }
      ],
      "stateMutability": "view",
      "type": "function",
      "constant": true
    },
    {
      "inputs": [
        {
          "internalType": "address",
          "name": "owner",
          "type": "address"
        },
        {
          "internalType": "uint256",
          "name": "index",
          "type": "uint256"
        }
      ],
      "name": "getOwnerTokenByIndex",
      "outputs": [
        {
          "internalType": "uint256",
          "name": "",
          "type": "uint256"
        }
      ],
      "stateMutability": "view",
      "type": "function",
      "constant": true
    },
    {
      "inputs": [],
      "name": "getOwnedCredits",
      "outputs": [
        {
          "components": [
            {
              "internalType": "uint256",
              "name": "tokenId",
              "type": "uint256"
            },
            {
              "internalType": "address",
              "name": "initialOwner",
              "type": "address"
            },
            {
              "internalType": "enum CarbonBase.ApprovalStatus",
              "name": "status",
              "type": "uint8"
            },
            {
              "internalType": "uint256",
              "name": "pricePerCredit",
              "type": "uint256"
            },
            {
              "internalType": "bool",
              "name": "isListed",
              "type": "bool"
            }
          ],
          "internalType": "struct CarbonBase.CarbonCredit[]",
          "name": "",
          "type": "tuple[]"
        }
      ],
      "stateMutability": "view",
      "type": "function",
      "constant": true
    },
    {
      "inputs": [
        {
          "internalType": "uint256",
          "name": "tokenId",
          "type": "uint256"
        }
      ],
      "name": "getTokenOwners",
      "outputs": [
        {
          "internalType": "address[]",
          "name": "",
          "type": "address[]"
        }
      ],
      "stateMutability": "view",
      "type": "function",
      "constant": true
    },
    {
      "inputs": [
        {
          "internalType": "uint256",
          "name": "tokenId",
          "type": "uint256"
        }
      ],
      "name": "getOwnerCount",
      "outputs": [
        {
          "internalType": "uint256",
          "name": "",
          "type": "uint256"
        }
      ],
      "stateMutability": "view",
      "type": "function",
      "constant": true
    }
  ],
  "bytecode": "0x608060405260405180602001604052806000815250600390805190602001906200002b9291906200016c565b503480156200003957600080fd5b50604051806020016040528060008152506200005b816200008260201b60201c565b506200007c620000706200009e60201b60201c565b620000a660201b60201c565b62000280565b80600290805190602001906200009a9291906200016c565b5050565b600033905090565b6000600560009054906101000a900473ffffffffffffffffffffffffffffffffffffffff16905081600560006101000a81548173ffffffffffffffffffffffffffffffffffffffff021916908373ffffffffffffffffffffffffffffffffffffffff1602179055508173ffffffffffffffffffffffffffffffffffffffff168173ffffffffffffffffffffffffffffffffffffffff167f8be0079c531659141344cd1fd0a4f28419497f9722a3daafe3b4186f6b6457e060405160405180910390a35050565b8280546200017a906200024b565b90600052602060002090601f0160209004810192826200019e5760008555620001ea565b82601f10620001b957805160ff1916838001178555620001ea565b82800160010185558215620001ea579182015b82811115620001e9578251825591602001919060010190620001cc565b5b509050620001f99190620001fd565b5090565b5b8082111562000218576000816000905550600101620001fe565b5090565b7f4e487b7100000000000000000000000000000000000000000000000000000000600052602260045260246000fd5b600060028204905060018216806200026457607f821691505b6020821081036200027a57620002796200021c565b5b50919050565b61536580620002906000396000f3fe608060405234801561001057600080fd5b50600436106101d95760003560e01c8063731133e911610104578063b795a881116100a2578063f242432a11610071578063f242432a1461059a578063f2fde38b146105b6578063f392243b146105d2578063f5298aca14610602576101d9565b8063b795a88114610514578063e985e9c514610530578063ed45aa4514610560578063eeb2982f1461057e576101d9565b80638da5cb5b116100de5780638da5cb5b1461048e5780639c0ab5ec146104ac578063a22cb465146104c8578063ab97c4bb146104e4576101d9565b8063731133e91461043a57806382367b2d14610456578063862440e214610472576101d9565b80633a1b3d311161017c578063681ece9d1161014b578063681ece9d146103b45780636ab29975146103e45780636b20c45414610414578063715018a614610430576101d9565b80633a1b3d31146103085780634e1273f41461032457806364457aad14610354578063644b7a4314610384576101d9565b80630e89341c116101b85780630e89341c1461025c57806313f66c9a1461028c57806319b88edb146102bc5780632eb2c2d6146102ec576101d9565b8062fdd58e146101de57806301ffc9a71461020e5780630b2f67251461023e575b600080fd5b6101f860048036038101906101f391906135bf565b61061e565b604051610205919061360e565b60405180910390f35b61022860048036038101906102239190613681565b6106e6565b60405161023591906136c9565b60405180910390f35b6102466107c8565b604051610253919061360e565b60405180910390f35b610276600480360381019061027191906136e4565b6107d5565b60405161028391906137aa565b60405180910390f35b6102a660048036038101906102a191906136e4565b6107e7565b6040516102b3919061360e565b60405180910390f35b6102d660048036038101906102d191906136e4565b610804565b6040516102e3919061360e565b60405180910390f35b610306600480360381019061030191906139c9565b610821565b005b610322600480360381019061031d9190613abd565b6108c2565b005b61033e60048036038101906103399190613bc0565b610904565b60405161034b9190613cf6565b60405180910390f35b61036e600480360381019061036991906136e4565b610a1d565b60405161037b919061360e565b60405180910390f35b61039e600480360381019061039991906136e4565b610a3a565b6040516103ab919061360e565b60405180910390f35b6103ce60048036038101906103c991906136e4565b610aab565b6040516103db9190613dd6565b60405180910390f35b6103fe60048036038101906103f99190613df8565b610b4c565b60405161040b919061360e565b60405180910390f35b61042e60048036038101906104299190613e25565b610b98565b005b610438610c35565b005b610454600480360381019061044f9190613eb0565b610c49565b005b610470600480360381019061046b9190613f33565b610c5b565b005b61048c60048036038101906104879190614014565b610c7a565b005b610496610c88565b6040516104a3919061407f565b60405180910390f35b6104c660048036038101906104c191906140c6565b610cb2565b005b6104e260048036038101906104dd9190614106565b610ce4565b005b6104fe60048036038101906104f991906135bf565b610cfa565b60405161050b919061360e565b60405180910390f35b61052e60048036038101906105299190614146565b610db3565b005b61054a600480360381019061054591906141c1565b610ecc565b60405161055791906136c9565b60405180910390f35b610568610f60565b604051610575919061439e565b60405180910390f35b61059860048036038101906105939190613f33565b6110ff565b005b6105b460048036038101906105af91906143c0565b61112d565b005b6105d060048036038101906105cb9190613df8565b6111ce565b005b6105ec60048036038101906105e791906136e4565b611251565b6040516105f991906144bf565b60405180910390f35b61061c600480360381019061061791906144da565b61133e565b005b60008073ffffffffffffffffffffffffffffffffffffffff168373ffffffffffffffffffffffffffffffffffffffff160361068e576040517f08c379a00000000000000000000000000000000000000000000000000000000081526004016106859061459f565b60405180910390fd5b60008083815260200190815260200160002060008473ffffffffffffffffffffffffffffffffffffffff1673ffffffffffffffffffffffffffffffffffffffff16815260200190815260200160002054905092915050565b60007fd9b67a26000000000000000000000000000000000000000000000000000000007bffffffffffffffffffffffffffffffffffffffffffffffffffffffff1916827bffffffffffffffffffffffffffffffffffffffffffffffffffffffff191614806107b157507f0e89341c000000000000000000000000000000000000000000000000000000007bffffffffffffffffffffffffffffffffffffffffffffffffffffffff1916827bffffffffffffffffffffffffffffffffffffffffffffffffffffffff1916145b806107c157506107c0826113db565b5b9050919050565b6000600680549050905090565b60606107e082611445565b9050919050565b6000600d6000838152602001908152602001600020549050919050565b600060076000838152602001908152602001600020549050919050565b61082961152a565b73ffffffffffffffffffffffffffffffffffffffff168573ffffffffffffffffffffffffffffffffffffffff16148061086f575061086e8561086961152a565b610ecc565b5b6108ae576040517f08c379a00000000000000000000000000000000000000000000000000000000081526004016108a590614631565b60405180910390fd5b6108bb8585858585611532565b5050505050565b80600b600084815260200190815260200160002060010160146101000a81548160ff021916908360028111156108fb576108fa61422d565b5b02179055505050565b6060815183511461094a576040517f08c379a0000000000000000000000000000000000000000000000000000000008152600401610941906146c3565b60405180910390fd5b6000835167ffffffffffffffff811115610967576109666137d1565b5b6040519080825280602002602001820160405280156109955781602001602082028036833780820191505090505b50905060005b8451811015610a12576109e28582815181106109ba576109b96146e3565b5b60200260200101518583815181106109d5576109d46146e3565b5b602002602001015161061e565b8282815181106109f5576109f46146e3565b5b60200260200101818152505080610a0b90614741565b905061099b565b508091505092915050565b6000600e6000838152602001908152602001600020549050919050565b6000610a446107c8565b8210610a85576040517f08c379a0000000000000000000000000000000000000000000000000000000008152600401610a7c906147d5565b60405180910390fd5b60068281548110610a9957610a986146e3565b5b90600052602060002001549050919050565b6060600c6000838152602001908152602001600020805480602002602001604051908101604052809291908181526020018280548015610b4057602002820191906000526020600020905b8160009054906101000a900473ffffffffffffffffffffffffffffffffffffffff1673ffffffffffffffffffffffffffffffffffffffff1681526020019060010190808311610af6575b50505050509050919050565b6000600960008373ffffffffffffffffffffffffffffffffffffffff1673ffffffffffffffffffffffffffffffffffffffff168152602001908152602001600020805490509050919050565b610ba061152a565b73ffffffffffffffffffffffffffffffffffffffff168373ffffffffffffffffffffffffffffffffffffffff161480610be65750610be583610be061152a565b610ecc565b5b610c25576040517f08c379a0000000000000000000000000000000000000000000000000000000008152600401610c1c90614631565b60405180910390fd5b610c30838383611853565b505050565b610c3d611b21565b610c476000611b9f565b565b610c5584848484611c65565b50505050565b80600b6000848152602001908152602001600020600201819055505050565b610c848282611e15565b5050565b6000600560009054906101000a900473ffffffffffffffffffffffffffffffffffffffff16905090565b80600b600084815260200190815260200160002060030160006101000a81548160ff0219169083151502179055505050565b610cf6610cef61152a565b8383611e81565b5050565b6000610d0e83610d0984610a3a565b61061e565b8210610d4f576040517f08c379a0000000000000000000000000000000000000000000000000000000008152600401610d46906147d5565b60405180910390fd5b600960008473ffffffffffffffffffffffffffffffffffffffff1673ffffffffffffffffffffffffffffffffffffffff1681526020019081526020016000208281548110610da057610d9f6146e3565b5b9060005260206000200154905092915050565b6040518060a001604052808681526020018573ffffffffffffffffffffffffffffffffffffffff168152602001846002811115610df357610df261422d565b5b8152602001838152602001821515815250600b60008781526020019081526020016000206000820151816000015560208201518160010160006101000a81548173ffffffffffffffffffffffffffffffffffffffff021916908373ffffffffffffffffffffffffffffffffffffffff16021790555060408201518160010160146101000a81548160ff02191690836002811115610e9357610e9261422d565b5b02179055506060820151816002015560808201518160030160006101000a81548160ff0219169083151502179055509050505050505050565b6000600160008473ffffffffffffffffffffffffffffffffffffffff1673ffffffffffffffffffffffffffffffffffffffff16815260200190815260200160002060008373ffffffffffffffffffffffffffffffffffffffff1673ffffffffffffffffffffffffffffffffffffffff16815260200190815260200160002060009054906101000a900460ff16905092915050565b60606000610f6d33610b4c565b905060008167ffffffffffffffff811115610f8b57610f8a6137d1565b5b604051908082528060200260200182016040528015610fc457816020015b610fb161341b565b815260200190600190039081610fa95790505b50905060005b828110156110f6576000610fde3383610cfa565b90506000600b60008381526020019081526020016000209050806040518060a0016040529081600082015481526020016001820160009054906101000a900473ffffffffffffffffffffffffffffffffffffffff1673ffffffffffffffffffffffffffffffffffffffff1673ffffffffffffffffffffffffffffffffffffffff1681526020016001820160149054906101000a900460ff1660028111156110885761108761422d565b5b600281111561109a5761109961422d565b5b8152602001600282015481526020016003820160009054906101000a900460ff1615151515815250508484815181106110d6576110d56146e3565b5b6020026020010181905250505080806110ee90614741565b915050610fca565b50809250505090565b80600e6000848152602001908152602001600020600082825461112291906147f5565b925050819055505050565b61113561152a565b73ffffffffffffffffffffffffffffffffffffffff168573ffffffffffffffffffffffffffffffffffffffff16148061117b575061117a8561117561152a565b610ecc565b5b6111ba576040517f08c379a00000000000000000000000000000000000000000000000000000000081526004016111b190614631565b60405180910390fd5b6111c78585858585611fed565b5050505050565b6111d6611b21565b600073ffffffffffffffffffffffffffffffffffffffff168173ffffffffffffffffffffffffffffffffffffffff1603611245576040517f08c379a000000000000000000000000000000000000000000000000000000000815260040161123c906148bd565b60405180910390fd5b61124e81611b9f565b50565b61125961341b565b600b60008381526020019081526020016000206040518060a0016040529081600082015481526020016001820160009054906101000a900473ffffffffffffffffffffffffffffffffffffffff1673ffffffffffffffffffffffffffffffffffffffff1673ffffffffffffffffffffffffffffffffffffffff1681526020016001820160149054906101000a900460ff1660028111156112fc576112fb61422d565b5b600281111561130e5761130d61422d565b5b8152602001600282015481526020016003820160009054906101000a900460ff1615151515815250509050919050565b61134661152a565b73ffffffffffffffffffffffffffffffffffffffff168373ffffffffffffffffffffffffffffffffffffffff16148061138c575061138b8361138661152a565b610ecc565b5b6113cb576040517f08c379a00000000000000000000000000000000000000000000000000000000081526004016113c290614631565b60405180910390fd5b6113d6838383612288565b505050565b60007f01ffc9a7000000000000000000000000000000000000000000000000000000007bffffffffffffffffffffffffffffffffffffffffffffffffffffffff1916827bffffffffffffffffffffffffffffffffffffffffffffffffffffffff1916149050919050565b606060006004600084815260200190815260200160002080546114679061490c565b80601f01602080910402602001604051908101604052809291908181526020018280546114939061490c565b80156114e05780601f106114b5576101008083540402835291602001916114e0565b820191906000526020600020905b8154815290600101906020018083116114c357829003601f168201915b5050505050905060008151116114fe576114f9836124ce565b611522565b600381604051602001611512929190614a0d565b6040516020818303038152906040525b915050919050565b600033905090565b8151835114611576576040517f08c379a000000000000000000000000000000000000000000000000000000000815260040161156d90614aa3565b60405180910390fd5b600073ffffffffffffffffffffffffffffffffffffffff168473ffffffffffffffffffffffffffffffffffffffff16036115e5576040517f08c379a00000000000000000000000000000000000000000000000000000000081526004016115dc90614b35565b60405180910390fd5b60006115ef61152a565b90506115ff818787878787612562565b60005b84518110156117b05760008582815181106116205761161f6146e3565b5b60200260200101519050600085838151811061163f5761163e6146e3565b5b60200260200101519050600080600084815260200190815260200160002060008b73ffffffffffffffffffffffffffffffffffffffff1673ffffffffffffffffffffffffffffffffffffffff168152602001908152602001600020549050818110156116e0576040517f08c379a00000000000000000000000000000000000000000000000000000000081526004016116d790614bc7565b60405180910390fd5b81810360008085815260200190815260200160002060008c73ffffffffffffffffffffffffffffffffffffffff1673ffffffffffffffffffffffffffffffffffffffff168152602001908152602001600020819055508160008085815260200190815260200160002060008b73ffffffffffffffffffffffffffffffffffffffff1673ffffffffffffffffffffffffffffffffffffffff168152602001908152602001600020600082825461179591906147f5565b92505081905550505050806117a990614741565b9050611602565b508473ffffffffffffffffffffffffffffffffffffffff168673ffffffffffffffffffffffffffffffffffffffff168273ffffffffffffffffffffffffffffffffffffffff167f4a39dc06d4c0dbc64b70af90fd698a233a518aa5d07e595d983b8c0526c8f7fb8787604051611827929190614be7565b60405180910390a461183d8187878787876127be565b61184b8187878787876127c6565b505050505050565b600073ffffffffffffffffffffffffffffffffffffffff168373ffffffffffffffffffffffffffffffffffffffff16036118c2576040517f08c379a00000000000000000000000000000000000000000000000000000000081526004016118b990614c90565b60405180910390fd5b8051825114611906576040517f08c379a00000000000000000000000000000000000000000000000000000000081526004016118fd90614aa3565b60405180910390fd5b600061191061152a565b905061193081856000868660405180602001604052806000815250612562565b60005b8351811015611a7d576000848281518110611951576119506146e3565b5b6020026020010151905060008483815181106119705761196f6146e3565b5b60200260200101519050600080600084815260200190815260200160002060008973ffffffffffffffffffffffffffffffffffffffff1673ffffffffffffffffffffffffffffffffffffffff16815260200190815260200160002054905081811015611a11576040517f08c379a0000000000000000000000000000000000000000000000000000000008152600401611a0890614d22565b60405180910390fd5b81810360008085815260200190815260200160002060008a73ffffffffffffffffffffffffffffffffffffffff1673ffffffffffffffffffffffffffffffffffffffff168152602001908152602001600020819055505050508080611a7590614741565b915050611933565b50600073ffffffffffffffffffffffffffffffffffffffff168473ffffffffffffffffffffffffffffffffffffffff168273ffffffffffffffffffffffffffffffffffffffff167f4a39dc06d4c0dbc64b70af90fd698a233a518aa5d07e595d983b8c0526c8f7fb8686604051611af5929190614be7565b60405180910390a4611b1b818560008686604051806020016040528060008152506127be565b50505050565b611b2961152a565b73ffffffffffffffffffffffffffffffffffffffff16611b47610c88565b73ffffffffffffffffffffffffffffffffffffffff1614611b9d576040517f08c379a0000000000000000000000000000000000000000000000000000000008152600401611b9490614d8e565b60405180910390fd5b565b6000600560009054906101000a900473ffffffffffffffffffffffffffffffffffffffff16905081600560006101000a81548173ffffffffffffffffffffffffffffffffffffffff021916908373ffffffffffffffffffffffffffffffffffffffff1602179055508173ffffffffffffffffffffffffffffffffffffffff168173ffffffffffffffffffffffffffffffffffffffff167f8be0079c531659141344cd1fd0a4f28419497f9722a3daafe3b4186f6b6457e060405160405180910390a35050565b600073ffffffffffffffffffffffffffffffffffffffff168473ffffffffffffffffffffffffffffffffffffffff1603611cd4576040517f08c379a0000000000000000000000000000000000000000000000000000000008152600401611ccb90614e20565b60405180910390fd5b6000611cde61152a565b90506000611ceb8561299d565b90506000611cf88561299d565b9050611d0983600089858589612562565b8460008088815260200190815260200160002060008973ffffffffffffffffffffffffffffffffffffffff1673ffffffffffffffffffffffffffffffffffffffff1681526020019081526020016000206000828254611d6891906147f5565b925050819055508673ffffffffffffffffffffffffffffffffffffffff16600073ffffffffffffffffffffffffffffffffffffffff168473ffffffffffffffffffffffffffffffffffffffff167fc3d58168c5ae7397731d063d5bbf3d657854427343f4c083240f7aacaa2d0f628989604051611de6929190614e40565b60405180910390a4611dfd836000898585896127be565b611e0c83600089898989612a17565b50505050505050565b80600460008481526020019081526020016000209080519060200190611e3c929190613474565b50817f6bb7ff708619ba0610cba295a58592e0451dee2622938c8755667688daf3529b611e68846107d5565b604051611e7591906137aa565b60405180910390a25050565b8173ffffffffffffffffffffffffffffffffffffffff168373ffffffffffffffffffffffffffffffffffffffff1603611eef576040517f08c379a0000000000000000000000000000000000000000000000000000000008152600401611ee690614edb565b60405180910390fd5b80600160008573ffffffffffffffffffffffffffffffffffffffff1673ffffffffffffffffffffffffffffffffffffffff16815260200190815260200160002060008473ffffffffffffffffffffffffffffffffffffffff1673ffffffffffffffffffffffffffffffffffffffff16815260200190815260200160002060006101000a81548160ff0219169083151502179055508173ffffffffffffffffffffffffffffffffffffffff168373ffffffffffffffffffffffffffffffffffffffff167f17307eab39ab6107e8899845ad3d59bd9653f200f220920489ca2b5937696c3183604051611fe091906136c9565b60405180910390a3505050565b600073ffffffffffffffffffffffffffffffffffffffff168473ffffffffffffffffffffffffffffffffffffffff160361205c576040517f08c379a000000000000000000000000000000000000000000000000000000000815260040161205390614b35565b60405180910390fd5b600061206661152a565b905060006120738561299d565b905060006120808561299d565b9050612090838989858589612562565b600080600088815260200190815260200160002060008a73ffffffffffffffffffffffffffffffffffffffff1673ffffffffffffffffffffffffffffffffffffffff16815260200190815260200160002054905085811015612127576040517f08c379a000000000000000000000000000000000000000000000000000000000815260040161211e90614bc7565b60405180910390fd5b85810360008089815260200190815260200160002060008b73ffffffffffffffffffffffffffffffffffffffff1673ffffffffffffffffffffffffffffffffffffffff168152602001908152602001600020819055508560008089815260200190815260200160002060008a73ffffffffffffffffffffffffffffffffffffffff1673ffffffffffffffffffffffffffffffffffffffff16815260200190815260200160002060008282546121dc91906147f5565b925050819055508773ffffffffffffffffffffffffffffffffffffffff168973ffffffffffffffffffffffffffffffffffffffff168573ffffffffffffffffffffffffffffffffffffffff167fc3d58168c5ae7397731d063d5bbf3d657854427343f4c083240f7aacaa2d0f628a8a604051612259929190614e40565b60405180910390a461226f848a8a86868a6127be565b61227d848a8a8a8a8a612a17565b505050505050505050565b600073ffffffffffffffffffffffffffffffffffffffff168373ffffffffffffffffffffffffffffffffffffffff16036122f7576040517f08c379a00000000000000000000000000000000000000000000000000000000081526004016122ee90614c90565b60405180910390fd5b600061230161152a565b9050600061230e8461299d565b9050600061231b8461299d565b905061233b83876000858560405180602001604052806000815250612562565b600080600087815260200190815260200160002060008873ffffffffffffffffffffffffffffffffffffffff1673ffffffffffffffffffffffffffffffffffffffff168152602001908152602001600020549050848110156123d2576040517f08c379a00000000000000000000000000000000000000000000000000000000081526004016123c990614d22565b60405180910390fd5b84810360008088815260200190815260200160002060008973ffffffffffffffffffffffffffffffffffffffff1673ffffffffffffffffffffffffffffffffffffffff16815260200190815260200160002081905550600073ffffffffffffffffffffffffffffffffffffffff168773ffffffffffffffffffffffffffffffffffffffff168573ffffffffffffffffffffffffffffffffffffffff167fc3d58168c5ae7397731d063d5bbf3d657854427343f4c083240f7aacaa2d0f62898960405161249f929190614e40565b60405180910390a46124c5848860008686604051806020016040528060008152506127be565b50505050505050565b6060600280546124dd9061490c565b80601f01602080910402602001604051908101604052809291908181526020018280546125099061490c565b80156125565780601f1061252b57610100808354040283529160200191612556565b820191906000526020600020905b81548152906001019060200180831161253957829003601f168201915b50505050509050919050565b612570868686868686612bee565b60005b83518110156127b5576000848281518110612591576125906146e3565b5b60200260200101519050600073ffffffffffffffffffffffffffffffffffffffff168773ffffffffffffffffffffffffffffffffffffffff160361260b576125d881612bf6565b8382815181106125eb576125ea6146e3565b5b602002602001015160076000838152602001908152602001600020819055505b600073ffffffffffffffffffffffffffffffffffffffff168773ffffffffffffffffffffffffffffffffffffffff161415801561266a5750838281518110612656576126556146e3565b5b6020026020010151612668888361061e565b145b15612684576126798782612c3f565b6126838188612ec4565b5b600073ffffffffffffffffffffffffffffffffffffffff168673ffffffffffffffffffffffffffffffffffffffff16141580156126ca575060006126c8878361061e565b145b156126e8576126d9868261312a565b6126e381876131a6565b6127a1565b600073ffffffffffffffffffffffffffffffffffffffff168673ffffffffffffffffffffffffffffffffffffffff16036127a05783828151811061272f5761272e6146e3565b5b60200260200101516007600083815260200190815260200160002060008282546127599190614efb565b92505081905550600060076000838152602001908152602001600020540361279f5761279e858381518110612791576127906146e3565b5b6020026020010151613256565b5b5b5b5080806127ad90614741565b915050612573565b50505050505050565b505050505050565b6127e58473ffffffffffffffffffffffffffffffffffffffff16613327565b15612995578373ffffffffffffffffffffffffffffffffffffffff1663bc197c8187878686866040518663ffffffff1660e01b815260040161282b959493929190614f84565b6020604051808303816000875af192505050801561286757506040513d601f19601f820116820180604052508101906128649190615001565b60015b61290c5761287361503b565b806308c379a0036128cf575061288761505d565b8061289257506128d1565b806040517f08c379a00000000000000000000000000000000000000000000000000000000081526004016128c691906137aa565b60405180910390fd5b505b6040517f08c379a00000000000000000000000000000000000000000000000000000000081526004016129039061515f565b60405180910390fd5b63bc197c8160e01b7bffffffffffffffffffffffffffffffffffffffffffffffffffffffff1916817bffffffffffffffffffffffffffffffffffffffffffffffffffffffff191614612993576040517f08c379a000000000000000000000000000000000000000000000000000000000815260040161298a906151f1565b60405180910390fd5b505b505050505050565b60606000600167ffffffffffffffff8111156129bc576129bb6137d1565b5b6040519080825280602002602001820160405280156129ea5781602001602082028036833780820191505090505b5090508281600081518110612a0257612a016146e3565b5b60200260200101818152505080915050919050565b612a368473ffffffffffffffffffffffffffffffffffffffff16613327565b15612be6578373ffffffffffffffffffffffffffffffffffffffff1663f23a6e6187878686866040518663ffffffff1660e01b8152600401612a7c959493929190615211565b6020604051808303816000875af1925050508015612ab857506040513d601f19601f82011682018060405250810190612ab59190615001565b60015b612b5d57612ac461503b565b806308c379a003612b205750612ad861505d565b80612ae35750612b22565b806040517f08c379a0000000000000000000000000000000000000000000000000000000008152600401612b1791906137aa565b60405180910390fd5b505b6040517f08c379a0000000000000000000000000000000000000000000000000000000008152600401612b549061515f565b60405180910390fd5b63f23a6e6160e01b7bffffffffffffffffffffffffffffffffffffffffffffffffffffffff1916817bffffffffffffffffffffffffffffffffffffffffffffffffffffffff191614612be4576040517f08c379a0000000000000000000000000000000000000000000000000000000008152600401612bdb906151f1565b60405180910390fd5b505b505050505050565b505050505050565b6006805490506008600083815260200190815260200160002081905550600681908060018154018082558091505060019003906000526020600020016000909190919091505550565b60006001600960008573ffffffffffffffffffffffffffffffffffffffff1673ffffffffffffffffffffffffffffffffffffffff16815260200190815260200160002080549050612c909190614efb565b90506000600a60008573ffffffffffffffffffffffffffffffffffffffff1673ffffffffffffffffffffffffffffffffffffffff1681526020019081526020016000206000848152602001908152602001600020549050818114612e05576000600960008673ffffffffffffffffffffffffffffffffffffffff1673ffffffffffffffffffffffffffffffffffffffff1681526020019081526020016000208381548110612d4157612d406146e3565b5b9060005260206000200154905080600960008773ffffffffffffffffffffffffffffffffffffffff1673ffffffffffffffffffffffffffffffffffffffff1681526020019081526020016000208381548110612da057612d9f6146e3565b5b906000526020600020018190555081600a60008773ffffffffffffffffffffffffffffffffffffffff1673ffffffffffffffffffffffffffffffffffffffff168152602001908152602001600020600083815260200190815260200160002081905550505b600960008573ffffffffffffffffffffffffffffffffffffffff1673ffffffffffffffffffffffffffffffffffffffff168152602001908152602001600020805480612e5457612e5361526b565b5b60019003818190600052602060002001600090559055600a60008573ffffffffffffffffffffffffffffffffffffffff1673ffffffffffffffffffffffffffffffffffffffff16815260200190815260200160002060008481526020019081526020016000206000905550505050565b6000600d60008481526020019081526020016000205411612f1a576040517f08c379a0000000000000000000000000000000000000000000000000000000008152600401612f11906152e6565b60405180910390fd5b6000600c600084815260200190815260200160002080549050905060005b81811015613124578273ffffffffffffffffffffffffffffffffffffffff16600c60008681526020019081526020016000208281548110612f7c57612f7b6146e3565b5b9060005260206000200160009054906101000a900473ffffffffffffffffffffffffffffffffffffffff1673ffffffffffffffffffffffffffffffffffffffff160361311157600c6000858152602001908152602001600020600183612fe29190614efb565b81548110612ff357612ff26146e3565b5b9060005260206000200160009054906101000a900473ffffffffffffffffffffffffffffffffffffffff16600c60008681526020019081526020016000208281548110613043576130426146e3565b5b9060005260206000200160006101000a81548173ffffffffffffffffffffffffffffffffffffffff021916908373ffffffffffffffffffffffffffffffffffffffff160217905550600c60008581526020019081526020016000208054806130ae576130ad61526b565b5b6001900381819060005260206000200160006101000a81549073ffffffffffffffffffffffffffffffffffffffff02191690559055600d6000858152602001908152602001600020600081548092919061310790615306565b9190505550613124565b808061311c90614741565b915050612f38565b50505050565b6000613136838361061e565b036131a257600960008373ffffffffffffffffffffffffffffffffffffffff1673ffffffffffffffffffffffffffffffffffffffff1681526020019081526020016000208190806001815401808255809150506001900390600052602060002001600090919091909150555b5050565b6131b0828261334a565b61325257600c6000838152602001908152602001600020819080600181540180825580915050600190039060005260206000200160009091909190916101000a81548173ffffffffffffffffffffffffffffffffffffffff021916908373ffffffffffffffffffffffffffffffffffffffff160217905550600d6000838152602001908152602001600020600081548092919061324c90614741565b91905055505b5050565b6000600160068054905061326a9190614efb565b905060006008600084815260200190815260200160002054905060006006838154811061329a576132996146e3565b5b9060005260206000200154905080600683815481106132bc576132bb6146e3565b5b906000526020600020018190555081600860008381526020019081526020016000208190555060068054806132f4576132f361526b565b5b60019003818190600052602060002001600090559055600860008581526020019081526020016000206000905550505050565b6000808273ffffffffffffffffffffffffffffffffffffffff163b119050919050565b600080600090505b600c60008581526020019081526020016000208054905081101561340f578273ffffffffffffffffffffffffffffffffffffffff16600c600086815260200190815260200160002082815481106133ac576133ab6146e3565b5b9060005260206000200160009054906101000a900473ffffffffffffffffffffffffffffffffffffffff1673ffffffffffffffffffffffffffffffffffffffff16036133fc576001915050613415565b808061340790614741565b915050613352565b50600090505b92915050565b6040518060a0016040528060008152602001600073ffffffffffffffffffffffffffffffffffffffff1681526020016000600281111561345e5761345d61422d565b5b8152602001600081526020016000151581525090565b8280546134809061490c565b90600052602060002090601f0160209004810192826134a257600085556134e9565b82601f106134bb57805160ff19168380011785556134e9565b828001600101855582156134e9579182015b828111156134e85782518255916020019190600101906134cd565b5b5090506134f691906134fa565b5090565b5b808211156135135760008160009055506001016134fb565b5090565b6000604051905090565b600080fd5b600080fd5b600073ffffffffffffffffffffffffffffffffffffffff82169050919050565b60006135568261352b565b9050919050565b6135668161354b565b811461357157600080fd5b50565b6000813590506135838161355d565b92915050565b6000819050919050565b61359c81613589565b81146135a757600080fd5b50565b6000813590506135b981613593565b92915050565b600080604083850312156135d6576135d5613521565b5b60006135e485828601613574565b92505060206135f5858286016135aa565b9150509250929050565b61360881613589565b82525050565b600060208201905061362360008301846135ff565b92915050565b60007fffffffff0000000000000000000000000000000000000000000000000000000082169050919050565b61365e81613629565b811461366957600080fd5b50565b60008135905061367b81613655565b92915050565b60006020828403121561369757613696613521565b5b60006136a58482850161366c565b91505092915050565b60008115159050919050565b6136c3816136ae565b82525050565b60006020820190506136de60008301846136ba565b92915050565b6000602082840312156136fa576136f9613521565b5b6000613708848285016135aa565b91505092915050565b600081519050919050565b600082825260208201905092915050565b60005b8381101561374b578082015181840152602081019050613730565b8381111561375a576000848401525b50505050565b6000601f19601f8301169050919050565b600061377c82613711565b613786818561371c565b935061379681856020860161372d565b61379f81613760565b840191505092915050565b600060208201905081810360008301526137c48184613771565b905092915050565b600080fd5b7f4e487b7100000000000000000000000000000000000000000000000000000000600052604160045260246000fd5b61380982613760565b810181811067ffffffffffffffff82111715613828576138276137d1565b5b80604052505050565b600061383b613517565b90506138478282613800565b919050565b600067ffffffffffffffff821115613867576138666137d1565b5b602082029050602081019050919050565b600080fd5b600061389061388b8461384c565b613831565b905080838252602082019050602084028301858111156138b3576138b2613878565b5b835b818110156138dc57806138c888826135aa565b8452602084019350506020810190506138b5565b5050509392505050565b600082601f8301126138fb576138fa6137cc565b5b813561390b84826020860161387d565b91505092915050565b600080fd5b600067ffffffffffffffff821115613934576139336137d1565b5b61393d82613760565b9050602081019050919050565b82818337600083830152505050565b600061396c61396784613919565b613831565b90508281526020810184848401111561398857613987613914565b5b61399384828561394a565b509392505050565b600082601f8301126139b0576139af6137cc565b5b81356139c0848260208601613959565b91505092915050565b600080600080600060a086880312156139e5576139e4613521565b5b60006139f388828901613574565b9550506020613a0488828901613574565b945050604086013567ffffffffffffffff811115613a2557613a24613526565b5b613a31888289016138e6565b935050606086013567ffffffffffffffff811115613a5257613a51613526565b5b613a5e888289016138e6565b925050608086013567ffffffffffffffff811115613a7f57613a7e613526565b5b613a8b8882890161399b565b9150509295509295909350565b60038110613aa557600080fd5b50565b600081359050613ab781613a98565b92915050565b60008060408385031215613ad457613ad3613521565b5b6000613ae2858286016135aa565b9250506020613af385828601613aa8565b9150509250929050565b600067ffffffffffffffff821115613b1857613b176137d1565b5b602082029050602081019050919050565b6000613b3c613b3784613afd565b613831565b90508083825260208201905060208402830185811115613b5f57613b5e613878565b5b835b81811015613b885780613b748882613574565b845260208401935050602081019050613b61565b5050509392505050565b600082601f830112613ba757613ba66137cc565b5b8135613bb7848260208601613b29565b91505092915050565b60008060408385031215613bd757613bd6613521565b5b600083013567ffffffffffffffff811115613bf557613bf4613526565b5b613c0185828601613b92565b925050602083013567ffffffffffffffff811115613c2257613c21613526565b5b613c2e858286016138e6565b9150509250929050565b600081519050919050565b600082825260208201905092915050565b6000819050602082019050919050565b613c6d81613589565b82525050565b6000613c7f8383613c64565b60208301905092915050565b6000602082019050919050565b6000613ca382613c38565b613cad8185613c43565b9350613cb883613c54565b8060005b83811015613ce9578151613cd08882613c73565b9750613cdb83613c8b565b925050600181019050613cbc565b5085935050505092915050565b60006020820190508181036000830152613d108184613c98565b905092915050565b600081519050919050565b600082825260208201905092915050565b6000819050602082019050919050565b613d4d8161354b565b82525050565b6000613d5f8383613d44565b60208301905092915050565b6000602082019050919050565b6000613d8382613d18565b613d8d8185613d23565b9350613d9883613d34565b8060005b83811015613dc9578151613db08882613d53565b9750613dbb83613d6b565b925050600181019050613d9c565b5085935050505092915050565b60006020820190508181036000830152613df08184613d78565b905092915050565b600060208284031215613e0e57613e0d613521565b5b6000613e1c84828501613574565b91505092915050565b600080600060608486031215613e3e57613e3d613521565b5b6000613e4c86828701613574565b935050602084013567ffffffffffffffff811115613e6d57613e6c613526565b5b613e79868287016138e6565b925050604084013567ffffffffffffffff811115613e9a57613e99613526565b5b613ea6868287016138e6565b9150509250925092565b60008060008060808587031215613eca57613ec9613521565b5b6000613ed887828801613574565b9450506020613ee9878288016135aa565b9350506040613efa878288016135aa565b925050606085013567ffffffffffffffff811115613f1b57613f1a613526565b5b613f278782880161399b565b91505092959194509250565b60008060408385031215613f4a57613f49613521565b5b6000613f58858286016135aa565b9250506020613f69858286016135aa565b9150509250929050565b600067ffffffffffffffff821115613f8e57613f8d6137d1565b5b613f9782613760565b9050602081019050919050565b6000613fb7613fb284613f73565b613831565b905082815260208101848484011115613fd357613fd2613914565b5b613fde84828561394a565b509392505050565b600082601f830112613ffb57613ffa6137cc565b5b813561400b848260208601613fa4565b91505092915050565b6000806040838503121561402b5761402a613521565b5b6000614039858286016135aa565b925050602083013567ffffffffffffffff81111561405a57614059613526565b5b61406685828601613fe6565b9150509250929050565b6140798161354b565b82525050565b60006020820190506140946000830184614070565b92915050565b6140a3816136ae565b81146140ae57600080fd5b50565b6000813590506140c08161409a565b92915050565b600080604083850312156140dd576140dc613521565b5b60006140eb858286016135aa565b92505060206140fc858286016140b1565b9150509250929050565b6000806040838503121561411d5761411c613521565b5b600061412b85828601613574565b925050602061413c858286016140b1565b9150509250929050565b600080600080600060a0868803121561416257614161613521565b5b6000614170888289016135aa565b955050602061418188828901613574565b945050604061419288828901613aa8565b93505060606141a3888289016135aa565b92505060806141b4888289016140b1565b9150509295509295909350565b600080604083850312156141d8576141d7613521565b5b60006141e685828601613574565b92505060206141f785828601613574565b9150509250929050565b600081519050919050565b600082825260208201905092915050565b6000819050602082019050919050565b7f4e487b7100000000000000000000000000000000000000000000000000000000600052602160045260246000fd5b6003811061426d5761426c61422d565b5b50565b600081905061427e8261425c565b919050565b600061428e82614270565b9050919050565b61429e81614283565b82525050565b6142ad816136ae565b82525050565b60a0820160008201516142c96000850182613c64565b5060208201516142dc6020850182613d44565b5060408201516142ef6040850182614295565b5060608201516143026060850182613c64565b50608082015161431560808501826142a4565b50505050565b600061432783836142b3565b60a08301905092915050565b6000602082019050919050565b600061434b82614201565b614355818561420c565b93506143608361421d565b8060005b83811015614391578151614378888261431b565b975061438383614333565b925050600181019050614364565b5085935050505092915050565b600060208201905081810360008301526143b88184614340565b905092915050565b600080600080600060a086880312156143dc576143db613521565b5b60006143ea88828901613574565b95505060206143fb88828901613574565b945050604061440c888289016135aa565b935050606061441d888289016135aa565b925050608086013567ffffffffffffffff81111561443e5761443d613526565b5b61444a8882890161399b565b9150509295509295909350565b60a08201600082015161446d6000850182613c64565b5060208201516144806020850182613d44565b5060408201516144936040850182614295565b5060608201516144a66060850182613c64565b5060808201516144b960808501826142a4565b50505050565b600060a0820190506144d46000830184614457565b92915050565b6000806000606084860312156144f3576144f2613521565b5b600061450186828701613574565b9350506020614512868287016135aa565b9250506040614523868287016135aa565b9150509250925092565b7f455243313135353a2061646472657373207a65726f206973206e6f742061207660008201527f616c6964206f776e657200000000000000000000000000000000000000000000602082015250565b6000614589602a8361371c565b91506145948261452d565b604082019050919050565b600060208201905081810360008301526145b88161457c565b9050919050565b7f455243313135353a2063616c6c6572206973206e6f7420746f6b656e206f776e60008201527f6572206f7220617070726f766564000000000000000000000000000000000000602082015250565b600061461b602e8361371c565b9150614626826145bf565b604082019050919050565b6000602082019050818103600083015261464a8161460e565b9050919050565b7f455243313135353a206163636f756e747320616e6420696473206c656e67746860008201527f206d69736d617463680000000000000000000000000000000000000000000000602082015250565b60006146ad60298361371c565b91506146b882614651565b604082019050919050565b600060208201905081810360008301526146dc816146a0565b9050919050565b7f4e487b7100000000000000000000000000000000000000000000000000000000600052603260045260246000fd5b7f4e487b7100000000000000000000000000000000000000000000000000000000600052601160045260246000fd5b600061474c82613589565b91507fffffffffffffffffffffffffffffffffffffffffffffffffffffffffffffffff820361477e5761477d614712565b5b600182019050919050565b7f496e646578206f7574206f6620626f756e64732e000000000000000000000000600082015250565b60006147bf60148361371c565b91506147ca82614789565b602082019050919050565b600060208201905081810360008301526147ee816147b2565b9050919050565b600061480082613589565b915061480b83613589565b9250827fffffffffffffffffffffffffffffffffffffffffffffffffffffffffffffffff038211156148405761483f614712565b5b828201905092915050565b7f4f776e61626c653a206e6577206f776e657220697320746865207a65726f206160008201527f6464726573730000000000000000000000000000000000000000000000000000602082015250565b60006148a760268361371c565b91506148b28261484b565b604082019050919050565b600060208201905081810360008301526148d68161489a565b9050919050565b7f4e487b7100000000000000000000000000000000000000000000000000000000600052602260045260246000fd5b6000600282049050600182168061492457607f821691505b602082108103614937576149366148dd565b5b50919050565b600081905092915050565b60008190508160005260206000209050919050565b6000815461496a8161490c565b614974818661493d565b9450600182166000811461498f57600181146149a0576149d3565b60ff198316865281860193506149d3565b6149a985614948565b60005b838110156149cb578154818901526001820191506020810190506149ac565b838801955050505b50505092915050565b60006149e782613711565b6149f1818561493d565b9350614a0181856020860161372d565b80840191505092915050565b6000614a19828561495d565b9150614a2582846149dc565b91508190509392505050565b7f455243313135353a2069647320616e6420616d6f756e7473206c656e6774682060008201527f6d69736d61746368000000000000000000000000000000000000000000000000602082015250565b6000614a8d60288361371c565b9150614a9882614a31565b604082019050919050565b60006020820190508181036000830152614abc81614a80565b9050919050565b7f455243313135353a207472616e7366657220746f20746865207a65726f20616460008201527f6472657373000000000000000000000000000000000000000000000000000000602082015250565b6000614b1f60258361371c565b9150614b2a82614ac3565b604082019050919050565b60006020820190508181036000830152614b4e81614b12565b9050919050565b7f455243313135353a20696e73756666696369656e742062616c616e636520666f60008201527f72207472616e7366657200000000000000000000000000000000000000000000602082015250565b6000614bb1602a8361371c565b9150614bbc82614b55565b604082019050919050565b60006020820190508181036000830152614be081614ba4565b9050919050565b60006040820190508181036000830152614c018185613c98565b90508181036020830152614c158184613c98565b90509392505050565b7f455243313135353a206275726e2066726f6d20746865207a65726f206164647260008201527f6573730000000000000000000000000000000000000000000000000000000000602082015250565b6000614c7a60238361371c565b9150614c8582614c1e565b604082019050919050565b60006020820190508181036000830152614ca981614c6d565b9050919050565b7f455243313135353a206275726e20616d6f756e7420657863656564732062616c60008201527f616e636500000000000000000000000000000000000000000000000000000000602082015250565b6000614d0c60248361371c565b9150614d1782614cb0565b604082019050919050565b60006020820190508181036000830152614d3b81614cff565b9050919050565b7f4f776e61626c653a2063616c6c6572206973206e6f7420746865206f776e6572600082015250565b6000614d7860208361371c565b9150614d8382614d42565b602082019050919050565b60006020820190508181036000830152614da781614d6b565b9050919050565b7f455243313135353a206d696e7420746f20746865207a65726f2061646472657360008201527f7300000000000000000000000000000000000000000000000000000000000000602082015250565b6000614e0a60218361371c565b9150614e1582614dae565b604082019050919050565b60006020820190508181036000830152614e3981614dfd565b9050919050565b6000604082019050614e5560008301856135ff565b614e6260208301846135ff565b9392505050565b7f455243313135353a2073657474696e6720617070726f76616c2073746174757360008201527f20666f722073656c660000000000000000000000000000000000000000000000602082015250565b6000614ec560298361371c565b9150614ed082614e69565b604082019050919050565b60006020820190508181036000830152614ef481614eb8565b9050919050565b6000614f0682613589565b9150614f1183613589565b925082821015614f2457614f23614712565b5b828203905092915050565b600081519050919050565b600082825260208201905092915050565b6000614f5682614f2f565b614f608185614f3a565b9350614f7081856020860161372d565b614f7981613760565b840191505092915050565b600060a082019050614f996000830188614070565b614fa66020830187614070565b8181036040830152614fb88186613c98565b90508181036060830152614fcc8185613c98565b90508181036080830152614fe08184614f4b565b90509695505050505050565b600081519050614ffb81613655565b92915050565b60006020828403121561501757615016613521565b5b600061502584828501614fec565b91505092915050565b60008160e01c9050919050565b600060033d111561505a5760046000803e61505760005161502e565b90505b90565b600060443d106150ea5761506f613517565b60043d036004823e80513d602482011167ffffffffffffffff821117156150975750506150ea565b808201805167ffffffffffffffff8111156150b557505050506150ea565b80602083010160043d0385018111156150d25750505050506150ea565b6150e182602001850186613800565b82955050505050505b90565b7f455243313135353a207472616e7366657220746f206e6f6e2d4552433131353560008201527f526563656976657220696d706c656d656e746572000000000000000000000000602082015250565b600061514960348361371c565b9150615154826150ed565b604082019050919050565b600060208201905081810360008301526151788161513c565b9050919050565b7f455243313135353a204552433131353552656365697665722072656a6563746560008201527f6420746f6b656e73000000000000000000000000000000000000000000000000602082015250565b60006151db60288361371c565b91506151e68261517f565b604082019050919050565b6000602082019050818103600083015261520a816151ce565b9050919050565b600060a0820190506152266000830188614070565b6152336020830187614070565b61524060408301866135ff565b61524d60608301856135ff565b818103608083015261525f8184614f4b565b90509695505050505050565b7f4e487b7100000000000000000000000000000000000000000000000000000000600052603160045260246000fd5b7f4e6f206f776e65727320746f2072656d6f76652e000000000000000000000000600082015250565b60006152d060148361371c565b91506152db8261529a565b602082019050919050565b600060208201905081810360008301526152ff816152c3565b9050919050565b600061531182613589565b91506000820361532457615323614712565b5b60018203905091905056fea2646970667358221220b9369bb5115bc9263abc89409165ef285bdad317cf6fcd6832f4b7bf004bba9d64736f6c634300080d0033",
  "immutableReferences": {},
  "source": "// SPDX-License-Identifier: MIT\npragma solidity ^0.8.13;\n\nimport \"@openzeppelin/contracts/token/ERC1155/extensions/ERC1155URIStorage.sol\";\nimport \"@openzeppelin/contracts/token/ERC1155/extensions/ERC1155Burnable.sol\";\nimport \"@openzeppelin/contracts/utils/Strings.sol\";\nimport \"./CarbonBase.sol\";\n\ncontract CarbonToken is CarbonBase {\n    uint256[] private _allTokenIds; // array of all token IDs\n    // uint256 public tokenIds;\n    // mapping(uint256 => CarbonCredit) public _idToCarbonCredit;\n    mapping(uint256 => uint256) private _idToTokenSupply; // mapping of token ID => total supply of token\n    mapping(uint256 => uint256) private _idToTokensIndex; // mapping of token ID => index of token in all tokens array\n    mapping(address => uint256[]) private _ownerToTokenIds; // mapping of owner => list of token IDs\n    mapping(address => mapping(uint256 => uint256)) private _ownedTokensIndex; // Mapping from token ID to index in the above array\n    mapping(uint256 => CarbonCredit) private _idToCarbonCredit;\n    mapping(uint256 => address[]) private _tokenOwners;\n    mapping(uint256 => uint256) private _ownerCount;\n    mapping(uint256 => uint256) private _tokenSold;\n\n    function mint(\n        address account,\n        uint256 id,\n        uint256 amount,\n        bytes memory data\n    ) public {\n        _mint(account, id, amount, data);\n    }\n\n    function setURI(uint256 tokenId, string memory newURI) public {\n        _setURI(tokenId, newURI);\n    }\n\n    function getTokenSold(uint256 tokenId) public view returns (uint256) {\n        return _tokenSold[tokenId];\n    }\n\n    function updateTokenSold(uint256 tokenId, uint256 amount) public {\n        _tokenSold[tokenId] += amount;\n    }\n\n    function getTotalTokensCount() public view returns (uint256) {\n        // returns the total number of credits\n        return _allTokenIds.length;\n    }\n\n    function getTokenByIndex(uint256 index) public view returns (uint256) {\n        require(index < getTotalTokensCount(), \"Index out of bounds.\");\n        return _allTokenIds[index];\n    }\n\n    function getCarbonCredit(\n        uint256 tokenId\n    ) public view returns (CarbonCredit memory) {\n        return _idToCarbonCredit[tokenId];\n    }\n\n    function setCarbonCredit(\n        uint256 tokenId,\n        address owner,\n        ApprovalStatus status,\n        uint256 pricePerCredit,\n        bool isListed\n    ) public {\n        _idToCarbonCredit[tokenId] = CarbonCredit(\n            tokenId,\n            owner,\n            status,\n            pricePerCredit,\n            isListed\n        );\n    }\n\n    function updateStatus(uint256 tokenId, ApprovalStatus status) public {\n        _idToCarbonCredit[tokenId].status = status;\n    }\n\n    function updatePrice(uint256 tokenId, uint256 price) public {\n        _idToCarbonCredit[tokenId].pricePerCredit = price;\n    }\n\n    function updateListed(uint256 tokenId, bool isListed) public {\n        _idToCarbonCredit[tokenId].isListed = isListed;\n    }\n\n    function getTokenSupply(uint256 tokenId) public view returns (uint256) {\n        return _idToTokenSupply[tokenId];\n    }\n\n    function getOwnedTokensCount(address owner) public view returns (uint256) {\n        return _ownerToTokenIds[owner].length;\n    }\n\n    function getOwnerTokenByIndex(\n        address owner,\n        uint256 index\n    ) public view returns (uint256) {\n        require(\n            index < balanceOf(owner, getTokenByIndex(index)),\n            \"Index out of bounds.\"\n        );\n        return _ownerToTokenIds[owner][index];\n    }\n\n    function getOwnedCredits() public view returns (CarbonCredit[] memory) {\n        uint256 ownedCreditsCount = getOwnedTokensCount(msg.sender);\n        CarbonCredit[] memory credits = new CarbonCredit[](ownedCreditsCount);\n\n        for (uint i = 0; i < ownedCreditsCount; i++) {\n            uint tokenId = getOwnerTokenByIndex(msg.sender, i);\n            CarbonCredit storage credit = _idToCarbonCredit[tokenId];\n            credits[i] = credit;\n        }\n        return credits;\n    }\n\n    function getTokenOwners(\n        uint256 tokenId\n    ) public view returns (address[] memory) {\n        return _tokenOwners[tokenId];\n    }\n\n    function getOwnerCount(uint256 tokenId) public view returns (uint256) {\n        return _ownerCount[tokenId];\n    }\n\n    function _beforeTokenTransfer(\n        address operator,\n        address from,\n        address to,\n        uint256[] memory ids,\n        uint256[] memory amounts,\n        bytes memory data\n    ) internal override {\n        super._beforeTokenTransfer(operator, from, to, ids, amounts, data);\n\n        for (uint256 i = 0; i < ids.length; i++) {\n            uint256 tokenId = ids[i];\n            if (from == address(0)) {\n                // This implies the token is being minted\n                _addTokenToAllTokensEnumeration(tokenId);\n                _idToTokenSupply[tokenId] = amounts[i];\n            }\n            if (from != address(0) && balanceOf(from, tokenId) == amounts[i]) {\n                // checking before transfer\n                // This implies the sender is transferring all their units of this token type\n                _removeTokenFromOwnerEnumeration(from, tokenId);\n                _removeTokenOwner(tokenId, from);\n            }\n            if (to != address(0) && balanceOf(to, tokenId) == 0) {\n                // identify the first time tokens are transferred to a new holder.\n                // This implies the recipient did not previously own any units of this token type\n                _addTokenToOwnerEnumeration(to, tokenId);\n                _addTokenOwner(tokenId, to);\n            } else if (to == address(0)) {\n                // checking before burn\n                _idToTokenSupply[tokenId] -= amounts[i];\n                if (_idToTokenSupply[tokenId] == 0) {\n                    // This implies the recipient is burning all units of a token are burned\n                    _removeTokenFromAllTokensEnumeration(ids[i]);\n                }\n            }\n        }\n    }\n\n    function _removeTokenOwner(uint256 tokenId, address owner) private {\n        require(_ownerCount[tokenId] > 0, \"No owners to remove.\");\n        uint256 length = _tokenOwners[tokenId].length;\n        for (uint256 i = 0; i < length; i++) {\n            if (_tokenOwners[tokenId][i] == owner) {\n                _tokenOwners[tokenId][i] = _tokenOwners[tokenId][length - 1];\n                _tokenOwners[tokenId].pop();\n                _ownerCount[tokenId]--;\n                break;\n            }\n        }\n    }\n\n    function _isOwner(\n        uint256 tokenId,\n        address owner\n    ) private view returns (bool) {\n        for (uint256 i = 0; i < _tokenOwners[tokenId].length; i++) {\n            if (_tokenOwners[tokenId][i] == owner) {\n                return true;\n            }\n        }\n        return false;\n    }\n\n    function _addTokenOwner(uint256 tokenId, address owner) private {\n        if (!_isOwner(tokenId, owner)) {\n            _tokenOwners[tokenId].push(owner);\n            _ownerCount[tokenId]++;\n        }\n    }\n\n    function _addTokenToAllTokensEnumeration(uint256 tokenId) private {\n        _idToTokensIndex[tokenId] = _allTokenIds.length;\n        _allTokenIds.push(tokenId);\n    }\n\n    function _addTokenToOwnerEnumeration(address to, uint256 tokenId) private {\n        if (balanceOf(to, tokenId) == 0) {\n            // Token ID is new to this owner\n            _ownerToTokenIds[to].push(tokenId);\n        }\n    }\n\n    function _removeTokenFromOwnerEnumeration(\n        address owner,\n        uint256 tokenId\n    ) private {\n        // First, we need to find the index of this token ID in the owner's list of token IDs\n        uint256 lastTokenIndex = _ownerToTokenIds[owner].length - 1;\n        uint256 tokenIndex = _ownedTokensIndex[owner][tokenId];\n\n        // If the token being removed is not the last token in the list,\n        // swap the last token with the token to be removed.\n        if (tokenIndex != lastTokenIndex) {\n            uint256 lastTokenId = _ownerToTokenIds[owner][lastTokenIndex];\n\n            _ownerToTokenIds[owner][tokenIndex] = lastTokenId; // Move the last token to the slot of the to-be-removed token\n            _ownedTokensIndex[owner][lastTokenId] = tokenIndex; // Update the moved token's index\n        }\n\n        // Remove the last token's data (since it's now either removed or moved)\n        _ownerToTokenIds[owner].pop();\n        delete _ownedTokensIndex[owner][tokenId]; // Remove the deleted token's index\n    }\n\n    function _removeTokenFromAllTokensEnumeration(uint256 tokenId) private {\n        uint256 lastTokenIndex = _allTokenIds.length - 1;\n        uint256 tokenIndex = _idToTokensIndex[tokenId];\n        uint256 lastTokenId = _allTokenIds[lastTokenIndex];\n\n        _allTokenIds[tokenIndex] = lastTokenId; // Move the last token to the slot of the to-be-removed token\n        _idToTokensIndex[lastTokenId] = tokenIndex; // Update the moved token's index\n\n        // Remove the last token's data (since it's now either removed or moved)\n        _allTokenIds.pop();\n        delete _idToTokensIndex[tokenId]; // Remove the deleted token's index\n    }\n}\n",
  "sourcePath": "/Users/buudinhha/Vscode/DATN/main/contracts/CarbonToken.sol",
  "compiler": {
    "name": "solc",
    "version": "0.8.13+commit.abaa5c0e.Emscripten.clang"
  },
  "schemaVersion": "3.4.16",
  "updatedAt": "2024-05-09T09:16:44.123Z",
  "networkType": "ethereum",
  "devdoc": {
    "kind": "dev",
    "methods": {
      "balanceOf(address,uint256)": {
        "details": "See {IERC1155-balanceOf}. Requirements: - `account` cannot be the zero address."
      },
      "balanceOfBatch(address[],uint256[])": {
        "details": "See {IERC1155-balanceOfBatch}. Requirements: - `accounts` and `ids` must have the same length."
      },
      "isApprovedForAll(address,address)": {
        "details": "See {IERC1155-isApprovedForAll}."
      },
      "owner()": {
        "details": "Returns the address of the current owner."
      },
      "renounceOwnership()": {
        "details": "Leaves the contract without owner. It will not be possible to call `onlyOwner` functions. Can only be called by the current owner. NOTE: Renouncing ownership will leave the contract without an owner, thereby disabling any functionality that is only available to the owner."
      },
      "safeBatchTransferFrom(address,address,uint256[],uint256[],bytes)": {
        "details": "See {IERC1155-safeBatchTransferFrom}."
      },
      "safeTransferFrom(address,address,uint256,uint256,bytes)": {
        "details": "See {IERC1155-safeTransferFrom}."
      },
      "setApprovalForAll(address,bool)": {
        "details": "See {IERC1155-setApprovalForAll}."
      },
      "supportsInterface(bytes4)": {
        "details": "See {IERC165-supportsInterface}."
      },
      "transferOwnership(address)": {
        "details": "Transfers ownership of the contract to a new account (`newOwner`). Can only be called by the current owner."
      }
    },
    "version": 1
  },
  "userdoc": {
    "kind": "user",
    "methods": {},
    "version": 1
  }
}