{
  "contractName": "CarbonMarket",
  "abi": [
    {
      "inputs": [
        {
          "internalType": "address",
          "name": "_tokenAddress",
          "type": "address"
        },
        {
          "internalType": "address",
          "name": "_accountAddress",
          "type": "address"
        }
      ],
      "stateMutability": "nonpayable",
      "type": "constructor"
    },
    {
      "anonymous": false,
      "inputs": [
        {
          "indexed": true,
          "internalType": "address",
          "name": "account",
          "type": "address"
        },
        {
          "indexed": true,
          "internalType": "address",
          "name": "operator",
          "type": "address"
        },
        {
          "indexed": false,
          "internalType": "bool",
          "name": "approved",
          "type": "bool"
        }
      ],
      "name": "ApprovalForAll",
      "type": "event"
    },
    {
      "anonymous": false,
      "inputs": [
        {
          "indexed": false,
          "internalType": "uint256",
          "name": "tokenId",
          "type": "uint256"
        },
        {
          "indexed": false,
          "internalType": "address",
          "name": "auditor",
          "type": "address"
        },
        {
          "indexed": false,
          "internalType": "address",
          "name": "projectOwner",
          "type": "address"
        },
        {
          "indexed": false,
          "internalType": "enum CarbonBase.ApprovalStatus",
          "name": "status",
          "type": "uint8"
        },
        {
          "indexed": false,
          "internalType": "uint256",
          "name": "time",
          "type": "uint256"
        }
      ],
      "name": "CarbonCreditAudited",
      "type": "event"
    },
    {
      "anonymous": false,
      "inputs": [
        {
          "indexed": false,
          "internalType": "uint256",
          "name": "tokenId",
          "type": "uint256"
        },
        {
          "indexed": false,
          "internalType": "address",
          "name": "initialOwner",
          "type": "address"
        },
        {
          "indexed": false,
          "internalType": "uint256",
          "name": "amount",
          "type": "uint256"
        },
        {
          "indexed": false,
          "internalType": "uint256",
          "name": "creationTime",
          "type": "uint256"
        }
      ],
      "name": "CarbonCreditCreated",
      "type": "event"
    },
    {
      "anonymous": false,
      "inputs": [
        {
          "indexed": false,
          "internalType": "uint256",
          "name": "tokenId",
          "type": "uint256"
        },
        {
          "indexed": false,
          "internalType": "address",
          "name": "initialOwner",
          "type": "address"
        },
        {
          "indexed": false,
          "internalType": "uint256",
          "name": "amount",
          "type": "uint256"
        },
        {
          "indexed": false,
          "internalType": "uint256",
          "name": "pricePerCredit",
          "type": "uint256"
        },
        {
          "indexed": false,
          "internalType": "uint256",
          "name": "time",
          "type": "uint256"
        }
      ],
      "name": "CarbonCreditListed",
      "type": "event"
    },
    {
      "anonymous": false,
      "inputs": [
        {
          "indexed": false,
          "internalType": "uint256",
          "name": "tokenId",
          "type": "uint256"
        },
        {
          "indexed": false,
          "internalType": "address",
          "name": "from",
          "type": "address"
        },
        {
          "indexed": false,
          "internalType": "address",
          "name": "to",
          "type": "address"
        },
        {
          "indexed": false,
          "internalType": "uint256",
          "name": "amount",
          "type": "uint256"
        },
        {
          "indexed": false,
          "internalType": "uint256",
          "name": "time",
          "type": "uint256"
        }
      ],
      "name": "CarbonCreditPurchased",
      "type": "event"
    },
    {
      "anonymous": false,
      "inputs": [
        {
          "indexed": false,
          "internalType": "uint256",
          "name": "tokenId",
          "type": "uint256"
        },
        {
          "indexed": false,
          "internalType": "address",
          "name": "owner",
          "type": "address"
        },
        {
          "indexed": false,
          "internalType": "uint256",
          "name": "amount",
          "type": "uint256"
        },
        {
          "indexed": false,
          "internalType": "uint256",
          "name": "time",
          "type": "uint256"
        }
      ],
      "name": "CarbonCreditRetired",
      "type": "event"
    },
    {
      "anonymous": false,
      "inputs": [
        {
          "indexed": false,
          "internalType": "string",
          "name": "message",
          "type": "string"
        },
        {
          "indexed": false,
          "internalType": "uint256",
          "name": "value",
          "type": "uint256"
        }
      ],
      "name": "Log",
      "type": "event"
    },
    {
      "anonymous": false,
      "inputs": [
        {
          "indexed": true,
          "internalType": "address",
          "name": "previousOwner",
          "type": "address"
        },
        {
          "indexed": true,
          "internalType": "address",
          "name": "newOwner",
          "type": "address"
        }
      ],
      "name": "OwnershipTransferred",
      "type": "event"
    },
    {
      "anonymous": false,
      "inputs": [
        {
          "indexed": true,
          "internalType": "address",
          "name": "operator",
          "type": "address"
        },
        {
          "indexed": true,
          "internalType": "address",
          "name": "from",
          "type": "address"
        },
        {
          "indexed": true,
          "internalType": "address",
          "name": "to",
          "type": "address"
        },
        {
          "indexed": false,
          "internalType": "uint256[]",
          "name": "ids",
          "type": "uint256[]"
        },
        {
          "indexed": false,
          "internalType": "uint256[]",
          "name": "values",
          "type": "uint256[]"
        }
      ],
      "name": "TransferBatch",
      "type": "event"
    },
    {
      "anonymous": false,
      "inputs": [
        {
          "indexed": true,
          "internalType": "address",
          "name": "operator",
          "type": "address"
        },
        {
          "indexed": true,
          "internalType": "address",
          "name": "from",
          "type": "address"
        },
        {
          "indexed": true,
          "internalType": "address",
          "name": "to",
          "type": "address"
        },
        {
          "indexed": false,
          "internalType": "uint256",
          "name": "id",
          "type": "uint256"
        },
        {
          "indexed": false,
          "internalType": "uint256",
          "name": "value",
          "type": "uint256"
        }
      ],
      "name": "TransferSingle",
      "type": "event"
    },
    {
      "anonymous": false,
      "inputs": [
        {
          "indexed": false,
          "internalType": "string",
          "name": "value",
          "type": "string"
        },
        {
          "indexed": true,
          "internalType": "uint256",
          "name": "id",
          "type": "uint256"
        }
      ],
      "name": "URI",
      "type": "event"
    },
    {
      "inputs": [
        {
          "internalType": "address",
          "name": "account",
          "type": "address"
        },
        {
          "internalType": "uint256",
          "name": "id",
          "type": "uint256"
        }
      ],
      "name": "balanceOf",
      "outputs": [
        {
          "internalType": "uint256",
          "name": "",
          "type": "uint256"
        }
      ],
      "stateMutability": "view",
      "type": "function",
      "constant": true
    },
    {
      "inputs": [
        {
          "internalType": "address[]",
          "name": "accounts",
          "type": "address[]"
        },
        {
          "internalType": "uint256[]",
          "name": "ids",
          "type": "uint256[]"
        }
      ],
      "name": "balanceOfBatch",
      "outputs": [
        {
          "internalType": "uint256[]",
          "name": "",
          "type": "uint256[]"
        }
      ],
      "stateMutability": "view",
      "type": "function",
      "constant": true
    },
    {
      "inputs": [
        {
          "internalType": "address",
          "name": "account",
          "type": "address"
        },
        {
          "internalType": "uint256",
          "name": "id",
          "type": "uint256"
        },
        {
          "internalType": "uint256",
          "name": "value",
          "type": "uint256"
        }
      ],
      "name": "burn",
      "outputs": [],
      "stateMutability": "nonpayable",
      "type": "function"
    },
    {
      "inputs": [
        {
          "internalType": "address",
          "name": "account",
          "type": "address"
        },
        {
          "internalType": "uint256[]",
          "name": "ids",
          "type": "uint256[]"
        },
        {
          "internalType": "uint256[]",
          "name": "values",
          "type": "uint256[]"
        }
      ],
      "name": "burnBatch",
      "outputs": [],
      "stateMutability": "nonpayable",
      "type": "function"
    },
    {
      "inputs": [
        {
          "internalType": "address",
          "name": "account",
          "type": "address"
        },
        {
          "internalType": "address",
          "name": "operator",
          "type": "address"
        }
      ],
      "name": "isApprovedForAll",
      "outputs": [
        {
          "internalType": "bool",
          "name": "",
          "type": "bool"
        }
      ],
      "stateMutability": "view",
      "type": "function",
      "constant": true
    },
    {
      "inputs": [],
      "name": "owner",
      "outputs": [
        {
          "internalType": "address",
          "name": "",
          "type": "address"
        }
      ],
      "stateMutability": "view",
      "type": "function",
      "constant": true
    },
    {
      "inputs": [],
      "name": "renounceOwnership",
      "outputs": [],
      "stateMutability": "nonpayable",
      "type": "function"
    },
    {
      "inputs": [
        {
          "internalType": "address",
          "name": "from",
          "type": "address"
        },
        {
          "internalType": "address",
          "name": "to",
          "type": "address"
        },
        {
          "internalType": "uint256[]",
          "name": "ids",
          "type": "uint256[]"
        },
        {
          "internalType": "uint256[]",
          "name": "amounts",
          "type": "uint256[]"
        },
        {
          "internalType": "bytes",
          "name": "data",
          "type": "bytes"
        }
      ],
      "name": "safeBatchTransferFrom",
      "outputs": [],
      "stateMutability": "nonpayable",
      "type": "function"
    },
    {
      "inputs": [
        {
          "internalType": "address",
          "name": "from",
          "type": "address"
        },
        {
          "internalType": "address",
          "name": "to",
          "type": "address"
        },
        {
          "internalType": "uint256",
          "name": "id",
          "type": "uint256"
        },
        {
          "internalType": "uint256",
          "name": "amount",
          "type": "uint256"
        },
        {
          "internalType": "bytes",
          "name": "data",
          "type": "bytes"
        }
      ],
      "name": "safeTransferFrom",
      "outputs": [],
      "stateMutability": "nonpayable",
      "type": "function"
    },
    {
      "inputs": [
        {
          "internalType": "address",
          "name": "operator",
          "type": "address"
        },
        {
          "internalType": "bool",
          "name": "approved",
          "type": "bool"
        }
      ],
      "name": "setApprovalForAll",
      "outputs": [],
      "stateMutability": "nonpayable",
      "type": "function"
    },
    {
      "inputs": [
        {
          "internalType": "bytes4",
          "name": "interfaceId",
          "type": "bytes4"
        }
      ],
      "name": "supportsInterface",
      "outputs": [
        {
          "internalType": "bool",
          "name": "",
          "type": "bool"
        }
      ],
      "stateMutability": "view",
      "type": "function",
      "constant": true
    },
    {
      "inputs": [
        {
          "internalType": "address",
          "name": "newOwner",
          "type": "address"
        }
      ],
      "name": "transferOwnership",
      "outputs": [],
      "stateMutability": "nonpayable",
      "type": "function"
    },
    {
      "inputs": [
        {
          "internalType": "uint256",
          "name": "tokenId",
          "type": "uint256"
        }
      ],
      "name": "uri",
      "outputs": [
        {
          "internalType": "string",
          "name": "",
          "type": "string"
        }
      ],
      "stateMutability": "view",
      "type": "function",
      "constant": true
    },
    {
      "inputs": [],
      "name": "getListedTokensCount",
      "outputs": [
        {
          "internalType": "uint256",
          "name": "",
          "type": "uint256"
        }
      ],
      "stateMutability": "view",
      "type": "function",
      "constant": true
    },
    {
      "inputs": [
        {
          "internalType": "uint256",
          "name": "tokenId",
          "type": "uint256"
        },
        {
          "internalType": "uint256",
          "name": "price",
          "type": "uint256"
        }
      ],
      "name": "listCreditsForSale",
      "outputs": [],
      "stateMutability": "nonpayable",
      "type": "function"
    },
    {
      "inputs": [
        {
          "internalType": "uint256",
          "name": "tokenId",
          "type": "uint256"
        }
      ],
      "name": "delistCredits",
      "outputs": [],
      "stateMutability": "nonpayable",
      "type": "function"
    },
    {
      "inputs": [
        {
          "internalType": "uint256",
          "name": "tokenId",
          "type": "uint256"
        },
        {
          "internalType": "uint256",
          "name": "price",
          "type": "uint256"
        }
      ],
      "name": "changePrice",
      "outputs": [],
      "stateMutability": "nonpayable",
      "type": "function"
    },
    {
      "inputs": [],
      "name": "getAllListedCredits",
      "outputs": [
        {
          "components": [
            {
              "internalType": "uint256",
              "name": "tokenId",
              "type": "uint256"
            },
            {
              "internalType": "address",
              "name": "initialOwner",
              "type": "address"
            },
            {
              "internalType": "enum CarbonBase.ApprovalStatus",
              "name": "status",
              "type": "uint8"
            },
            {
              "internalType": "uint256",
              "name": "pricePerCredit",
              "type": "uint256"
            },
            {
              "internalType": "bool",
              "name": "isListed",
              "type": "bool"
            }
          ],
          "internalType": "struct CarbonBase.CarbonCredit[]",
          "name": "",
          "type": "tuple[]"
        }
      ],
      "stateMutability": "view",
      "type": "function",
      "constant": true
    },
    {
      "inputs": [
        {
          "internalType": "uint256",
          "name": "tokenId",
          "type": "uint256"
        },
        {
          "internalType": "uint256",
          "name": "amount",
          "type": "uint256"
        }
      ],
      "name": "buyCredits",
      "outputs": [],
      "stateMutability": "payable",
      "type": "function",
      "payable": true
    },
    {
      "inputs": [
        {
          "internalType": "uint256",
          "name": "tokenId",
          "type": "uint256"
        },
        {
          "internalType": "uint256",
          "name": "amount",
          "type": "uint256"
        }
      ],
      "name": "retireCredits",
      "outputs": [],
      "stateMutability": "nonpayable",
      "type": "function"
    }
  ],
  "bytecode": "0x608060405260405180602001604052806000815250600390805190602001906200002b92919062000215565b503480156200003957600080fd5b506040516200618d3803806200618d83398181016040528101906200005f91906200032f565b6040518060200160405280600081525062000080816200012b60201b60201c565b50620000a1620000956200014760201b60201c565b6200014f60201b60201c565b81600660006101000a81548173ffffffffffffffffffffffffffffffffffffffff021916908373ffffffffffffffffffffffffffffffffffffffff16021790555080600760006101000a81548173ffffffffffffffffffffffffffffffffffffffff021916908373ffffffffffffffffffffffffffffffffffffffff1602179055505050620003da565b80600290805190602001906200014392919062000215565b5050565b600033905090565b6000600560009054906101000a900473ffffffffffffffffffffffffffffffffffffffff16905081600560006101000a81548173ffffffffffffffffffffffffffffffffffffffff021916908373ffffffffffffffffffffffffffffffffffffffff1602179055508173ffffffffffffffffffffffffffffffffffffffff168173ffffffffffffffffffffffffffffffffffffffff167f8be0079c531659141344cd1fd0a4f28419497f9722a3daafe3b4186f6b6457e060405160405180910390a35050565b8280546200022390620003a5565b90600052602060002090601f01602090048101928262000247576000855562000293565b82601f106200026257805160ff191683800117855562000293565b8280016001018555821562000293579182015b828111156200029257825182559160200191906001019062000275565b5b509050620002a29190620002a6565b5090565b5b80821115620002c1576000816000905550600101620002a7565b5090565b600080fd5b600073ffffffffffffffffffffffffffffffffffffffff82169050919050565b6000620002f782620002ca565b9050919050565b6200030981620002ea565b81146200031557600080fd5b50565b6000815190506200032981620002fe565b92915050565b60008060408385031215620003495762000348620002c5565b5b6000620003598582860162000318565b92505060206200036c8582860162000318565b9150509250929050565b7f4e487b7100000000000000000000000000000000000000000000000000000000600052602260045260246000fd5b60006002820490506001821680620003be57607f821691505b602082108103620003d457620003d362000376565b5b50919050565b615da380620003ea6000396000f3fe60806040526004361061011e5760003560e01c8063715018a6116100a0578063e7c2829f11610064578063e7c2829f146103bf578063e985e9c5146103ea578063f242432a14610427578063f2fde38b14610450578063f5298aca146104795761011e565b8063715018a6146103025780638da5cb5b14610319578063a22cb46514610344578063a30a97c71461036d578063b3de019c146103965761011e565b80633ea0fb13116100e75780633ea0fb131461022c578063479c8457146102555780634c974221146102715780634e1273f41461029c5780636b20c454146102d95761011e565b8062fdd58e1461012357806301ffc9a7146101605780630e89341c1461019d57806319adf6ad146101da5780632eb2c2d614610203575b600080fd5b34801561012f57600080fd5b5061014a60048036038101906101459190613b03565b6104a2565b6040516101579190613b52565b60405180910390f35b34801561016c57600080fd5b5061018760048036038101906101829190613bc5565b61056a565b6040516101949190613c0d565b60405180910390f35b3480156101a957600080fd5b506101c460048036038101906101bf9190613c28565b61064c565b6040516101d19190613cee565b60405180910390f35b3480156101e657600080fd5b5061020160048036038101906101fc9190613d10565b61065e565b005b34801561020f57600080fd5b5061022a60048036038101906102259190613f4d565b61096f565b005b34801561023857600080fd5b50610253600480360381019061024e9190613d10565b610a10565b005b61026f600480360381019061026a9190613d10565b6110e3565b005b34801561027d57600080fd5b50610286611a34565b6040516102939190613b52565b60405180910390f35b3480156102a857600080fd5b506102c360048036038101906102be91906140df565b611a3e565b6040516102d09190614215565b60405180910390f35b3480156102e557600080fd5b5061030060048036038101906102fb9190614237565b611b57565b005b34801561030e57600080fd5b50610317611bf4565b005b34801561032557600080fd5b5061032e611c08565b60405161033b91906142d1565b60405180910390f35b34801561035057600080fd5b5061036b60048036038101906103669190614318565b611c32565b005b34801561037957600080fd5b50610394600480360381019061038f9190613c28565b611c48565b005b3480156103a257600080fd5b506103bd60048036038101906103b89190613d10565b611d03565b005b3480156103cb57600080fd5b506103d4611de7565b6040516103e19190614504565b60405180910390f35b3480156103f657600080fd5b50610411600480360381019061040c9190614526565b612082565b60405161041e9190613c0d565b60405180910390f35b34801561043357600080fd5b5061044e60048036038101906104499190614566565b612116565b005b34801561045c57600080fd5b50610477600480360381019061047291906145fd565b6121b7565b005b34801561048557600080fd5b506104a0600480360381019061049b919061462a565b61223a565b005b60008073ffffffffffffffffffffffffffffffffffffffff168373ffffffffffffffffffffffffffffffffffffffff1603610512576040517f08c379a0000000000000000000000000000000000000000000000000000000008152600401610509906146ef565b60405180910390fd5b60008083815260200190815260200160002060008473ffffffffffffffffffffffffffffffffffffffff1673ffffffffffffffffffffffffffffffffffffffff16815260200190815260200160002054905092915050565b60007fd9b67a26000000000000000000000000000000000000000000000000000000007bffffffffffffffffffffffffffffffffffffffffffffffffffffffff1916827bffffffffffffffffffffffffffffffffffffffffffffffffffffffff1916148061063557507f0e89341c000000000000000000000000000000000000000000000000000000007bffffffffffffffffffffffffffffffffffffffffffffffffffffffff1916827bffffffffffffffffffffffffffffffffffffffffffffffffffffffff1916145b806106455750610644826122d7565b5b9050919050565b606061065782612341565b9050919050565b6000600660009054906101000a900473ffffffffffffffffffffffffffffffffffffffff1673ffffffffffffffffffffffffffffffffffffffff1663f392243b846040518263ffffffff1660e01b81526004016106bb9190613b52565b60a060405180830381865afa1580156106d8573d6000803e3d6000fd5b505050506040513d601f19601f820116820180604052508101906106fc9190614804565b905061071083826020015160016000612426565b60008211610753576040517f08c379a000000000000000000000000000000000000000000000000000000000815260040161074a9061487d565b60405180910390fd5b600660009054906101000a900473ffffffffffffffffffffffffffffffffffffffff1673ffffffffffffffffffffffffffffffffffffffff16639c0ab5ec8460016040518363ffffffff1660e01b81526004016107b192919061489d565b600060405180830381600087803b1580156107cb57600080fd5b505af11580156107df573d6000803e3d6000fd5b50505050600660009054906101000a900473ffffffffffffffffffffffffffffffffffffffff1673ffffffffffffffffffffffffffffffffffffffff166382367b2d84846040518363ffffffff1660e01b81526004016108409291906148c6565b600060405180830381600087803b15801561085a57600080fd5b505af115801561086e573d6000803e3d6000fd5b50505050600160086000828254610885919061491e565b925050819055507fb7a455907b74aaf4828ce5121f0db638eb92c3ee60333d4c2f6e86e48285b469838260200151600660009054906101000a900473ffffffffffffffffffffffffffffffffffffffff1673ffffffffffffffffffffffffffffffffffffffff166319b88edb876040518263ffffffff1660e01b815260040161090e9190613b52565b602060405180830381865afa15801561092b573d6000803e3d6000fd5b505050506040513d601f19601f8201168201806040525081019061094f9190614974565b85426040516109629594939291906149a1565b60405180910390a1505050565b61097761278b565b73ffffffffffffffffffffffffffffffffffffffff168573ffffffffffffffffffffffffffffffffffffffff1614806109bd57506109bc856109b761278b565b612082565b5b6109fc576040517f08c379a00000000000000000000000000000000000000000000000000000000081526004016109f390614a66565b60405180910390fd5b610a098585858585612793565b5050505050565b60008111610a53576040517f08c379a0000000000000000000000000000000000000000000000000000000008152600401610a4a90614af8565b60405180910390fd5b600760009054906101000a900473ffffffffffffffffffffffffffffffffffffffff1673ffffffffffffffffffffffffffffffffffffffff166333dab3bc336040518263ffffffff1660e01b8152600401610aae91906142d1565b602060405180830381865afa158015610acb573d6000803e3d6000fd5b505050506040513d601f19601f82011682018060405250810190610aef9190614b18565b610b2e576040517f08c379a0000000000000000000000000000000000000000000000000000000008152600401610b2590614b91565b60405180910390fd5b80600660009054906101000a900473ffffffffffffffffffffffffffffffffffffffff1673ffffffffffffffffffffffffffffffffffffffff1662fdd58e33856040518363ffffffff1660e01b8152600401610b8b929190614bb1565b602060405180830381865afa158015610ba8573d6000803e3d6000fd5b505050506040513d601f19601f82011682018060405250810190610bcc9190614974565b1015610c0d576040517f08c379a0000000000000000000000000000000000000000000000000000000008152600401610c0490614c26565b60405180910390fd5b600660009054906101000a900473ffffffffffffffffffffffffffffffffffffffff1673ffffffffffffffffffffffffffffffffffffffff1663e985e9c533306040518363ffffffff1660e01b8152600401610c6a929190614c46565b602060405180830381865afa158015610c87573d6000803e3d6000fd5b505050506040513d601f19601f82011682018060405250810190610cab9190614b18565b610cea576040517f08c379a0000000000000000000000000000000000000000000000000000000008152600401610ce190614cbb565b60405180910390fd5b600660009054906101000a900473ffffffffffffffffffffffffffffffffffffffff1673ffffffffffffffffffffffffffffffffffffffff1663f5298aca3384846040518463ffffffff1660e01b8152600401610d4993929190614cdb565b600060405180830381600087803b158015610d6357600080fd5b505af1158015610d77573d6000803e3d6000fd5b505050506000600760009054906101000a900473ffffffffffffffffffffffffffffffffffffffff1673ffffffffffffffffffffffffffffffffffffffff16631f15ad1a336040518263ffffffff1660e01b8152600401610dd891906142d1565b602060405180830381865afa158015610df5573d6000803e3d6000fd5b505050506040513d601f19601f82011682018060405250810190610e199190614974565b90506000600760009054906101000a900473ffffffffffffffffffffffffffffffffffffffff1673ffffffffffffffffffffffffffffffffffffffff1663df5c0639336040518263ffffffff1660e01b8152600401610e7891906142d1565b602060405180830381865afa158015610e95573d6000803e3d6000fd5b505050506040513d601f19601f82011682018060405250810190610eb99190614974565b90507fdd970dd9b5bfe707922155b058a407655cb18288b807e2216442bca8ad83d6b582604051610eea9190614d5e565b60405180910390a17fdd970dd9b5bfe707922155b058a407655cb18288b807e2216442bca8ad83d6b581604051610f219190614dd8565b60405180910390a182821015610f6c576040517f08c379a0000000000000000000000000000000000000000000000000000000008152600401610f6390614e52565b60405180910390fd5b600760009054906101000a900473ffffffffffffffffffffffffffffffffffffffff1673ffffffffffffffffffffffffffffffffffffffff1663af7ff0bb338585610fb79190614e72565b6040518363ffffffff1660e01b8152600401610fd4929190614bb1565b600060405180830381600087803b158015610fee57600080fd5b505af1158015611002573d6000803e3d6000fd5b50505050600760009054906101000a900473ffffffffffffffffffffffffffffffffffffffff1673ffffffffffffffffffffffffffffffffffffffff166323413d35338584611051919061491e565b6040518363ffffffff1660e01b815260040161106e929190614bb1565b600060405180830381600087803b15801561108857600080fd5b505af115801561109c573d6000803e3d6000fd5b505050507f86e4ad062b281f0afdca6d3083c06d8602ea1ad4cea7dd132332b96160cd0204843385426040516110d59493929190614ea6565b60405180910390a150505050565b6000600660009054906101000a900473ffffffffffffffffffffffffffffffffffffffff1673ffffffffffffffffffffffffffffffffffffffff1663f392243b846040518263ffffffff1660e01b81526004016111409190613b52565b60a060405180830381865afa15801561115d573d6000803e3d6000fd5b505050506040513d601f19601f820116820180604052508101906111819190614804565b9050600760009054906101000a900473ffffffffffffffffffffffffffffffffffffffff1673ffffffffffffffffffffffffffffffffffffffff166333dab3bc336040518263ffffffff1660e01b81526004016111de91906142d1565b602060405180830381865afa1580156111fb573d6000803e3d6000fd5b505050506040513d601f19601f8201168201806040525081019061121f9190614b18565b61125e576040517f08c379a000000000000000000000000000000000000000000000000000000000815260040161125590614b91565b60405180910390fd5b80608001516112a2576040517f08c379a000000000000000000000000000000000000000000000000000000000815260040161129990614f37565b60405180910390fd5b81600660009054906101000a900473ffffffffffffffffffffffffffffffffffffffff1673ffffffffffffffffffffffffffffffffffffffff1662fdd58e8360200151866040518363ffffffff1660e01b8152600401611303929190614bb1565b602060405180830381865afa158015611320573d6000803e3d6000fd5b505050506040513d601f19601f820116820180604052508101906113449190614974565b1015611385576040517f08c379a000000000000000000000000000000000000000000000000000000000815260040161137c90614c26565b60405180910390fd5b8181606001516113959190614f57565b3410156113d7576040517f08c379a00000000000000000000000000000000000000000000000000000000081526004016113ce90614ffd565b60405180910390fd5b600660009054906101000a900473ffffffffffffffffffffffffffffffffffffffff1673ffffffffffffffffffffffffffffffffffffffff1663e985e9c58260200151306040518363ffffffff1660e01b8152600401611438929190614c46565b602060405180830381865afa158015611455573d6000803e3d6000fd5b505050506040513d601f19601f820116820180604052508101906114799190614b18565b6114b8576040517f08c379a00000000000000000000000000000000000000000000000000000000081526004016114af90614cbb565b60405180910390fd5b600660009054906101000a900473ffffffffffffffffffffffffffffffffffffffff1673ffffffffffffffffffffffffffffffffffffffff1663f242432a82602001513386866040518563ffffffff1660e01b815260040161151d9493929190615054565b600060405180830381600087803b15801561153757600080fd5b505af115801561154b573d6000803e3d6000fd5b50505050806020015173ffffffffffffffffffffffffffffffffffffffff166108fc349081150290604051600060405180830381858888f19350505050158015611599573d6000803e3d6000fd5b50600660009054906101000a900473ffffffffffffffffffffffffffffffffffffffff1673ffffffffffffffffffffffffffffffffffffffff1663eeb2982f84846040518363ffffffff1660e01b81526004016115f79291906148c6565b600060405180830381600087803b15801561161157600080fd5b505af1158015611625573d6000803e3d6000fd5b505050506000600660009054906101000a900473ffffffffffffffffffffffffffffffffffffffff1673ffffffffffffffffffffffffffffffffffffffff1662fdd58e8360200151866040518363ffffffff1660e01b815260040161168b929190614bb1565b602060405180830381865afa1580156116a8573d6000803e3d6000fd5b505050506040513d601f19601f820116820180604052508101906116cc9190614974565b0361177a57600660009054906101000a900473ffffffffffffffffffffffffffffffffffffffff1673ffffffffffffffffffffffffffffffffffffffff16639c0ab5ec8460006040518363ffffffff1660e01b815260040161172f92919061489d565b600060405180830381600087803b15801561174957600080fd5b505af115801561175d573d6000803e3d6000fd5b5050505060086000815480929190611774906150ac565b91905055505b600760009054906101000a900473ffffffffffffffffffffffffffffffffffffffff1673ffffffffffffffffffffffffffffffffffffffff1663af7ff0bb826020015184600760009054906101000a900473ffffffffffffffffffffffffffffffffffffffff1673ffffffffffffffffffffffffffffffffffffffff16631f15ad1a86602001516040518263ffffffff1660e01b815260040161181d91906142d1565b602060405180830381865afa15801561183a573d6000803e3d6000fd5b505050506040513d601f19601f8201168201806040525081019061185e9190614974565b6118689190614e72565b6040518363ffffffff1660e01b8152600401611885929190614bb1565b600060405180830381600087803b15801561189f57600080fd5b505af11580156118b3573d6000803e3d6000fd5b50505050600760009054906101000a900473ffffffffffffffffffffffffffffffffffffffff1673ffffffffffffffffffffffffffffffffffffffff1663af7ff0bb3384600760009054906101000a900473ffffffffffffffffffffffffffffffffffffffff1673ffffffffffffffffffffffffffffffffffffffff16631f15ad1a336040518263ffffffff1660e01b815260040161195291906142d1565b602060405180830381865afa15801561196f573d6000803e3d6000fd5b505050506040513d601f19601f820116820180604052508101906119939190614974565b61199d919061491e565b6040518363ffffffff1660e01b81526004016119ba929190614bb1565b600060405180830381600087803b1580156119d457600080fd5b505af11580156119e8573d6000803e3d6000fd5b505050507fadbbaff5d3f24e7a13aaf13c504d323cd85ecba120c82f46762b3f57e5fa5d76838260200151338542604051611a279594939291906150d5565b60405180910390a1505050565b6000600854905090565b60608151835114611a84576040517f08c379a0000000000000000000000000000000000000000000000000000000008152600401611a7b9061519a565b60405180910390fd5b6000835167ffffffffffffffff811115611aa157611aa0613d55565b5b604051908082528060200260200182016040528015611acf5781602001602082028036833780820191505090505b50905060005b8451811015611b4c57611b1c858281518110611af457611af36151ba565b5b6020026020010151858381518110611b0f57611b0e6151ba565b5b60200260200101516104a2565b828281518110611b2f57611b2e6151ba565b5b60200260200101818152505080611b45906151e9565b9050611ad5565b508091505092915050565b611b5f61278b565b73ffffffffffffffffffffffffffffffffffffffff168373ffffffffffffffffffffffffffffffffffffffff161480611ba55750611ba483611b9f61278b565b612082565b5b611be4576040517f08c379a0000000000000000000000000000000000000000000000000000000008152600401611bdb90614a66565b60405180910390fd5b611bef838383612ab4565b505050565b611bfc612d82565b611c066000612e00565b565b6000600560009054906101000a900473ffffffffffffffffffffffffffffffffffffffff16905090565b611c44611c3d61278b565b8383612ec6565b5050565b611c56813360006001612426565b600660009054906101000a900473ffffffffffffffffffffffffffffffffffffffff1673ffffffffffffffffffffffffffffffffffffffff16639c0ab5ec8260006040518363ffffffff1660e01b8152600401611cb492919061489d565b600060405180830381600087803b158015611cce57600080fd5b505af1158015611ce2573d6000803e3d6000fd5b50505050600160086000828254611cf99190614e72565b9250508190555050565b611d11823360006001612426565b60008111611d54576040517f08c379a0000000000000000000000000000000000000000000000000000000008152600401611d4b9061487d565b60405180910390fd5b600660009054906101000a900473ffffffffffffffffffffffffffffffffffffffff1673ffffffffffffffffffffffffffffffffffffffff166382367b2d83836040518363ffffffff1660e01b8152600401611db19291906148c6565b600060405180830381600087803b158015611dcb57600080fd5b505af1158015611ddf573d6000803e3d6000fd5b505050505050565b60606000600660009054906101000a900473ffffffffffffffffffffffffffffffffffffffff1673ffffffffffffffffffffffffffffffffffffffff16630b2f67256040518163ffffffff1660e01b8152600401602060405180830381865afa158015611e58573d6000803e3d6000fd5b505050506040513d601f19601f82011682018060405250810190611e7c9190614974565b905060008060085467ffffffffffffffff811115611e9d57611e9c613d55565b5b604051908082528060200260200182016040528015611ed657816020015b611ec3613a02565b815260200190600190039081611ebb5790505b50905060005b83811015612078576000600660009054906101000a900473ffffffffffffffffffffffffffffffffffffffff1673ffffffffffffffffffffffffffffffffffffffff1663644b7a43836040518263ffffffff1660e01b8152600401611f419190613b52565b602060405180830381865afa158015611f5e573d6000803e3d6000fd5b505050506040513d601f19601f82011682018060405250810190611f829190614974565b90506000600660009054906101000a900473ffffffffffffffffffffffffffffffffffffffff1673ffffffffffffffffffffffffffffffffffffffff1663f392243b836040518263ffffffff1660e01b8152600401611fe19190613b52565b60a060405180830381865afa158015611ffe573d6000803e3d6000fd5b505050506040513d601f19601f820116820180604052508101906120229190614804565b90506001151581608001511515036120635780848681518110612048576120476151ba565b5b6020026020010181905250600185612060919061491e565b94505b50508080612070906151e9565b915050611edc565b5080935050505090565b6000600160008473ffffffffffffffffffffffffffffffffffffffff1673ffffffffffffffffffffffffffffffffffffffff16815260200190815260200160002060008373ffffffffffffffffffffffffffffffffffffffff1673ffffffffffffffffffffffffffffffffffffffff16815260200190815260200160002060009054906101000a900460ff16905092915050565b61211e61278b565b73ffffffffffffffffffffffffffffffffffffffff168573ffffffffffffffffffffffffffffffffffffffff16148061216457506121638561215e61278b565b612082565b5b6121a3576040517f08c379a000000000000000000000000000000000000000000000000000000000815260040161219a90614a66565b60405180910390fd5b6121b08585858585613032565b5050505050565b6121bf612d82565b600073ffffffffffffffffffffffffffffffffffffffff168173ffffffffffffffffffffffffffffffffffffffff160361222e576040517f08c379a0000000000000000000000000000000000000000000000000000000008152600401612225906152a3565b60405180910390fd5b61223781612e00565b50565b61224261278b565b73ffffffffffffffffffffffffffffffffffffffff168373ffffffffffffffffffffffffffffffffffffffff16148061228857506122878361228261278b565b612082565b5b6122c7576040517f08c379a00000000000000000000000000000000000000000000000000000000081526004016122be90614a66565b60405180910390fd5b6122d28383836132cd565b505050565b60007f01ffc9a7000000000000000000000000000000000000000000000000000000007bffffffffffffffffffffffffffffffffffffffffffffffffffffffff1916827bffffffffffffffffffffffffffffffffffffffffffffffffffffffff1916149050919050565b60606000600460008481526020019081526020016000208054612363906152f2565b80601f016020809104026020016040519081016040528092919081815260200182805461238f906152f2565b80156123dc5780601f106123b1576101008083540402835291602001916123dc565b820191906000526020600020905b8154815290600101906020018083116123bf57829003601f168201915b5050505050905060008151116123fa576123f583613513565b61241e565b60038160405160200161240e9291906153f3565b6040516020818303038152906040525b915050919050565b6000600660009054906101000a900473ffffffffffffffffffffffffffffffffffffffff1673ffffffffffffffffffffffffffffffffffffffff1663f392243b866040518263ffffffff1660e01b81526004016124839190613b52565b60a060405180830381865afa1580156124a0573d6000803e3d6000fd5b505050506040513d601f19601f820116820180604052508101906124c49190614804565b90506000600660009054906101000a900473ffffffffffffffffffffffffffffffffffffffff1673ffffffffffffffffffffffffffffffffffffffff1662fdd58e86886040518363ffffffff1660e01b8152600401612524929190614bb1565b602060405180830381865afa158015612541573d6000803e3d6000fd5b505050506040513d601f19601f820116820180604052508101906125659190614974565b116125a5576040517f08c379a000000000000000000000000000000000000000000000000000000000815260040161259c90615463565b60405180910390fd5b600160028111156125b9576125b8614393565b5b816040015160028111156125d0576125cf614393565b5b14612610576040517f08c379a0000000000000000000000000000000000000000000000000000000008152600401612607906154cf565b60405180910390fd5b600660009054906101000a900473ffffffffffffffffffffffffffffffffffffffff1673ffffffffffffffffffffffffffffffffffffffff1663e985e9c585306040518363ffffffff1660e01b815260040161266d929190614c46565b602060405180830381865afa15801561268a573d6000803e3d6000fd5b505050506040513d601f19601f820116820180604052508101906126ae9190614b18565b6126ed576040517f08c379a00000000000000000000000000000000000000000000000000000000081526004016126e49061553b565b60405180910390fd5b821561273957806080015115612738576040517f08c379a000000000000000000000000000000000000000000000000000000000815260040161272f906155a7565b60405180910390fd5b5b8115612784578060800151612783576040517f08c379a000000000000000000000000000000000000000000000000000000000815260040161277a90615613565b60405180910390fd5b5b5050505050565b600033905090565b81518351146127d7576040517f08c379a00000000000000000000000000000000000000000000000000000000081526004016127ce906156a5565b60405180910390fd5b600073ffffffffffffffffffffffffffffffffffffffff168473ffffffffffffffffffffffffffffffffffffffff1603612846576040517f08c379a000000000000000000000000000000000000000000000000000000000815260040161283d90615737565b60405180910390fd5b600061285061278b565b90506128608187878787876135a7565b60005b8451811015612a11576000858281518110612881576128806151ba565b5b6020026020010151905060008583815181106128a05761289f6151ba565b5b60200260200101519050600080600084815260200190815260200160002060008b73ffffffffffffffffffffffffffffffffffffffff1673ffffffffffffffffffffffffffffffffffffffff16815260200190815260200160002054905081811015612941576040517f08c379a0000000000000000000000000000000000000000000000000000000008152600401612938906157c9565b60405180910390fd5b81810360008085815260200190815260200160002060008c73ffffffffffffffffffffffffffffffffffffffff1673ffffffffffffffffffffffffffffffffffffffff168152602001908152602001600020819055508160008085815260200190815260200160002060008b73ffffffffffffffffffffffffffffffffffffffff1673ffffffffffffffffffffffffffffffffffffffff16815260200190815260200160002060008282546129f6919061491e565b9250508190555050505080612a0a906151e9565b9050612863565b508473ffffffffffffffffffffffffffffffffffffffff168673ffffffffffffffffffffffffffffffffffffffff168273ffffffffffffffffffffffffffffffffffffffff167f4a39dc06d4c0dbc64b70af90fd698a233a518aa5d07e595d983b8c0526c8f7fb8787604051612a889291906157e9565b60405180910390a4612a9e8187878787876135af565b612aac8187878787876135b7565b505050505050565b600073ffffffffffffffffffffffffffffffffffffffff168373ffffffffffffffffffffffffffffffffffffffff1603612b23576040517f08c379a0000000000000000000000000000000000000000000000000000000008152600401612b1a90615892565b60405180910390fd5b8051825114612b67576040517f08c379a0000000000000000000000000000000000000000000000000000000008152600401612b5e906156a5565b60405180910390fd5b6000612b7161278b565b9050612b91818560008686604051806020016040528060008152506135a7565b60005b8351811015612cde576000848281518110612bb257612bb16151ba565b5b602002602001015190506000848381518110612bd157612bd06151ba565b5b60200260200101519050600080600084815260200190815260200160002060008973ffffffffffffffffffffffffffffffffffffffff1673ffffffffffffffffffffffffffffffffffffffff16815260200190815260200160002054905081811015612c72576040517f08c379a0000000000000000000000000000000000000000000000000000000008152600401612c6990615924565b60405180910390fd5b81810360008085815260200190815260200160002060008a73ffffffffffffffffffffffffffffffffffffffff1673ffffffffffffffffffffffffffffffffffffffff168152602001908152602001600020819055505050508080612cd6906151e9565b915050612b94565b50600073ffffffffffffffffffffffffffffffffffffffff168473ffffffffffffffffffffffffffffffffffffffff168273ffffffffffffffffffffffffffffffffffffffff167f4a39dc06d4c0dbc64b70af90fd698a233a518aa5d07e595d983b8c0526c8f7fb8686604051612d569291906157e9565b60405180910390a4612d7c818560008686604051806020016040528060008152506135af565b50505050565b612d8a61278b565b73ffffffffffffffffffffffffffffffffffffffff16612da8611c08565b73ffffffffffffffffffffffffffffffffffffffff1614612dfe576040517f08c379a0000000000000000000000000000000000000000000000000000000008152600401612df590615990565b60405180910390fd5b565b6000600560009054906101000a900473ffffffffffffffffffffffffffffffffffffffff16905081600560006101000a81548173ffffffffffffffffffffffffffffffffffffffff021916908373ffffffffffffffffffffffffffffffffffffffff1602179055508173ffffffffffffffffffffffffffffffffffffffff168173ffffffffffffffffffffffffffffffffffffffff167f8be0079c531659141344cd1fd0a4f28419497f9722a3daafe3b4186f6b6457e060405160405180910390a35050565b8173ffffffffffffffffffffffffffffffffffffffff168373ffffffffffffffffffffffffffffffffffffffff1603612f34576040517f08c379a0000000000000000000000000000000000000000000000000000000008152600401612f2b90615a22565b60405180910390fd5b80600160008573ffffffffffffffffffffffffffffffffffffffff1673ffffffffffffffffffffffffffffffffffffffff16815260200190815260200160002060008473ffffffffffffffffffffffffffffffffffffffff1673ffffffffffffffffffffffffffffffffffffffff16815260200190815260200160002060006101000a81548160ff0219169083151502179055508173ffffffffffffffffffffffffffffffffffffffff168373ffffffffffffffffffffffffffffffffffffffff167f17307eab39ab6107e8899845ad3d59bd9653f200f220920489ca2b5937696c31836040516130259190613c0d565b60405180910390a3505050565b600073ffffffffffffffffffffffffffffffffffffffff168473ffffffffffffffffffffffffffffffffffffffff16036130a1576040517f08c379a000000000000000000000000000000000000000000000000000000000815260040161309890615737565b60405180910390fd5b60006130ab61278b565b905060006130b88561378e565b905060006130c58561378e565b90506130d58389898585896135a7565b600080600088815260200190815260200160002060008a73ffffffffffffffffffffffffffffffffffffffff1673ffffffffffffffffffffffffffffffffffffffff1681526020019081526020016000205490508581101561316c576040517f08c379a0000000000000000000000000000000000000000000000000000000008152600401613163906157c9565b60405180910390fd5b85810360008089815260200190815260200160002060008b73ffffffffffffffffffffffffffffffffffffffff1673ffffffffffffffffffffffffffffffffffffffff168152602001908152602001600020819055508560008089815260200190815260200160002060008a73ffffffffffffffffffffffffffffffffffffffff1673ffffffffffffffffffffffffffffffffffffffff1681526020019081526020016000206000828254613221919061491e565b925050819055508773ffffffffffffffffffffffffffffffffffffffff168973ffffffffffffffffffffffffffffffffffffffff168573ffffffffffffffffffffffffffffffffffffffff167fc3d58168c5ae7397731d063d5bbf3d657854427343f4c083240f7aacaa2d0f628a8a60405161329e9291906148c6565b60405180910390a46132b4848a8a86868a6135af565b6132c2848a8a8a8a8a613808565b505050505050505050565b600073ffffffffffffffffffffffffffffffffffffffff168373ffffffffffffffffffffffffffffffffffffffff160361333c576040517f08c379a000000000000000000000000000000000000000000000000000000000815260040161333390615892565b60405180910390fd5b600061334661278b565b905060006133538461378e565b905060006133608461378e565b9050613380838760008585604051806020016040528060008152506135a7565b600080600087815260200190815260200160002060008873ffffffffffffffffffffffffffffffffffffffff1673ffffffffffffffffffffffffffffffffffffffff16815260200190815260200160002054905084811015613417576040517f08c379a000000000000000000000000000000000000000000000000000000000815260040161340e90615924565b60405180910390fd5b84810360008088815260200190815260200160002060008973ffffffffffffffffffffffffffffffffffffffff1673ffffffffffffffffffffffffffffffffffffffff16815260200190815260200160002081905550600073ffffffffffffffffffffffffffffffffffffffff168773ffffffffffffffffffffffffffffffffffffffff168573ffffffffffffffffffffffffffffffffffffffff167fc3d58168c5ae7397731d063d5bbf3d657854427343f4c083240f7aacaa2d0f6289896040516134e49291906148c6565b60405180910390a461350a848860008686604051806020016040528060008152506135af565b50505050505050565b606060028054613522906152f2565b80601f016020809104026020016040519081016040528092919081815260200182805461354e906152f2565b801561359b5780601f106135705761010080835404028352916020019161359b565b820191906000526020600020905b81548152906001019060200180831161357e57829003601f168201915b50505050509050919050565b505050505050565b505050505050565b6135d68473ffffffffffffffffffffffffffffffffffffffff166139df565b15613786578373ffffffffffffffffffffffffffffffffffffffff1663bc197c8187878686866040518663ffffffff1660e01b815260040161361c959493929190615a86565b6020604051808303816000875af192505050801561365857506040513d601f19601f820116820180604052508101906136559190615b03565b60015b6136fd57613664615b3d565b806308c379a0036136c05750613678615b5f565b8061368357506136c2565b806040517f08c379a00000000000000000000000000000000000000000000000000000000081526004016136b79190613cee565b60405180910390fd5b505b6040517f08c379a00000000000000000000000000000000000000000000000000000000081526004016136f490615c61565b60405180910390fd5b63bc197c8160e01b7bffffffffffffffffffffffffffffffffffffffffffffffffffffffff1916817bffffffffffffffffffffffffffffffffffffffffffffffffffffffff191614613784576040517f08c379a000000000000000000000000000000000000000000000000000000000815260040161377b90615cf3565b60405180910390fd5b505b505050505050565b60606000600167ffffffffffffffff8111156137ad576137ac613d55565b5b6040519080825280602002602001820160405280156137db5781602001602082028036833780820191505090505b50905082816000815181106137f3576137f26151ba565b5b60200260200101818152505080915050919050565b6138278473ffffffffffffffffffffffffffffffffffffffff166139df565b156139d7578373ffffffffffffffffffffffffffffffffffffffff1663f23a6e6187878686866040518663ffffffff1660e01b815260040161386d959493929190615d13565b6020604051808303816000875af19250505080156138a957506040513d601f19601f820116820180604052508101906138a69190615b03565b60015b61394e576138b5615b3d565b806308c379a00361391157506138c9615b5f565b806138d45750613913565b806040517f08c379a00000000000000000000000000000000000000000000000000000000081526004016139089190613cee565b60405180910390fd5b505b6040517f08c379a000000000000000000000000000000000000000000000000000000000815260040161394590615c61565b60405180910390fd5b63f23a6e6160e01b7bffffffffffffffffffffffffffffffffffffffffffffffffffffffff1916817bffffffffffffffffffffffffffffffffffffffffffffffffffffffff1916146139d5576040517f08c379a00000000000000000000000000000000000000000000000000000000081526004016139cc90615cf3565b60405180910390fd5b505b505050505050565b6000808273ffffffffffffffffffffffffffffffffffffffff163b119050919050565b6040518060a0016040528060008152602001600073ffffffffffffffffffffffffffffffffffffffff16815260200160006002811115613a4557613a44614393565b5b8152602001600081526020016000151581525090565b6000604051905090565b600080fd5b600080fd5b600073ffffffffffffffffffffffffffffffffffffffff82169050919050565b6000613a9a82613a6f565b9050919050565b613aaa81613a8f565b8114613ab557600080fd5b50565b600081359050613ac781613aa1565b92915050565b6000819050919050565b613ae081613acd565b8114613aeb57600080fd5b50565b600081359050613afd81613ad7565b92915050565b60008060408385031215613b1a57613b19613a65565b5b6000613b2885828601613ab8565b9250506020613b3985828601613aee565b9150509250929050565b613b4c81613acd565b82525050565b6000602082019050613b676000830184613b43565b92915050565b60007fffffffff0000000000000000000000000000000000000000000000000000000082169050919050565b613ba281613b6d565b8114613bad57600080fd5b50565b600081359050613bbf81613b99565b92915050565b600060208284031215613bdb57613bda613a65565b5b6000613be984828501613bb0565b91505092915050565b60008115159050919050565b613c0781613bf2565b82525050565b6000602082019050613c226000830184613bfe565b92915050565b600060208284031215613c3e57613c3d613a65565b5b6000613c4c84828501613aee565b91505092915050565b600081519050919050565b600082825260208201905092915050565b60005b83811015613c8f578082015181840152602081019050613c74565b83811115613c9e576000848401525b50505050565b6000601f19601f8301169050919050565b6000613cc082613c55565b613cca8185613c60565b9350613cda818560208601613c71565b613ce381613ca4565b840191505092915050565b60006020820190508181036000830152613d088184613cb5565b905092915050565b60008060408385031215613d2757613d26613a65565b5b6000613d3585828601613aee565b9250506020613d4685828601613aee565b9150509250929050565b600080fd5b7f4e487b7100000000000000000000000000000000000000000000000000000000600052604160045260246000fd5b613d8d82613ca4565b810181811067ffffffffffffffff82111715613dac57613dab613d55565b5b80604052505050565b6000613dbf613a5b565b9050613dcb8282613d84565b919050565b600067ffffffffffffffff821115613deb57613dea613d55565b5b602082029050602081019050919050565b600080fd5b6000613e14613e0f84613dd0565b613db5565b90508083825260208201905060208402830185811115613e3757613e36613dfc565b5b835b81811015613e605780613e4c8882613aee565b845260208401935050602081019050613e39565b5050509392505050565b600082601f830112613e7f57613e7e613d50565b5b8135613e8f848260208601613e01565b91505092915050565b600080fd5b600067ffffffffffffffff821115613eb857613eb7613d55565b5b613ec182613ca4565b9050602081019050919050565b82818337600083830152505050565b6000613ef0613eeb84613e9d565b613db5565b905082815260208101848484011115613f0c57613f0b613e98565b5b613f17848285613ece565b509392505050565b600082601f830112613f3457613f33613d50565b5b8135613f44848260208601613edd565b91505092915050565b600080600080600060a08688031215613f6957613f68613a65565b5b6000613f7788828901613ab8565b9550506020613f8888828901613ab8565b945050604086013567ffffffffffffffff811115613fa957613fa8613a6a565b5b613fb588828901613e6a565b935050606086013567ffffffffffffffff811115613fd657613fd5613a6a565b5b613fe288828901613e6a565b925050608086013567ffffffffffffffff81111561400357614002613a6a565b5b61400f88828901613f1f565b9150509295509295909350565b600067ffffffffffffffff82111561403757614036613d55565b5b602082029050602081019050919050565b600061405b6140568461401c565b613db5565b9050808382526020820190506020840283018581111561407e5761407d613dfc565b5b835b818110156140a757806140938882613ab8565b845260208401935050602081019050614080565b5050509392505050565b600082601f8301126140c6576140c5613d50565b5b81356140d6848260208601614048565b91505092915050565b600080604083850312156140f6576140f5613a65565b5b600083013567ffffffffffffffff81111561411457614113613a6a565b5b614120858286016140b1565b925050602083013567ffffffffffffffff81111561414157614140613a6a565b5b61414d85828601613e6a565b9150509250929050565b600081519050919050565b600082825260208201905092915050565b6000819050602082019050919050565b61418c81613acd565b82525050565b600061419e8383614183565b60208301905092915050565b6000602082019050919050565b60006141c282614157565b6141cc8185614162565b93506141d783614173565b8060005b838110156142085781516141ef8882614192565b97506141fa836141aa565b9250506001810190506141db565b5085935050505092915050565b6000602082019050818103600083015261422f81846141b7565b905092915050565b6000806000606084860312156142505761424f613a65565b5b600061425e86828701613ab8565b935050602084013567ffffffffffffffff81111561427f5761427e613a6a565b5b61428b86828701613e6a565b925050604084013567ffffffffffffffff8111156142ac576142ab613a6a565b5b6142b886828701613e6a565b9150509250925092565b6142cb81613a8f565b82525050565b60006020820190506142e660008301846142c2565b92915050565b6142f581613bf2565b811461430057600080fd5b50565b600081359050614312816142ec565b92915050565b6000806040838503121561432f5761432e613a65565b5b600061433d85828601613ab8565b925050602061434e85828601614303565b9150509250929050565b600081519050919050565b600082825260208201905092915050565b6000819050602082019050919050565b61438d81613a8f565b82525050565b7f4e487b7100000000000000000000000000000000000000000000000000000000600052602160045260246000fd5b600381106143d3576143d2614393565b5b50565b60008190506143e4826143c2565b919050565b60006143f4826143d6565b9050919050565b614404816143e9565b82525050565b61441381613bf2565b82525050565b60a08201600082015161442f6000850182614183565b5060208201516144426020850182614384565b50604082015161445560408501826143fb565b5060608201516144686060850182614183565b50608082015161447b608085018261440a565b50505050565b600061448d8383614419565b60a08301905092915050565b6000602082019050919050565b60006144b182614358565b6144bb8185614363565b93506144c683614374565b8060005b838110156144f75781516144de8882614481565b97506144e983614499565b9250506001810190506144ca565b5085935050505092915050565b6000602082019050818103600083015261451e81846144a6565b905092915050565b6000806040838503121561453d5761453c613a65565b5b600061454b85828601613ab8565b925050602061455c85828601613ab8565b9150509250929050565b600080600080600060a0868803121561458257614581613a65565b5b600061459088828901613ab8565b95505060206145a188828901613ab8565b94505060406145b288828901613aee565b93505060606145c388828901613aee565b925050608086013567ffffffffffffffff8111156145e4576145e3613a6a565b5b6145f088828901613f1f565b9150509295509295909350565b60006020828403121561461357614612613a65565b5b600061462184828501613ab8565b91505092915050565b60008060006060848603121561464357614642613a65565b5b600061465186828701613ab8565b935050602061466286828701613aee565b925050604061467386828701613aee565b9150509250925092565b7f455243313135353a2061646472657373207a65726f206973206e6f742061207660008201527f616c6964206f776e657200000000000000000000000000000000000000000000602082015250565b60006146d9602a83613c60565b91506146e48261467d565b604082019050919050565b60006020820190508181036000830152614708816146cc565b9050919050565b600080fd5b60008151905061472381613ad7565b92915050565b60008151905061473881613aa1565b92915050565b6003811061474b57600080fd5b50565b60008151905061475d8161473e565b92915050565b600081519050614772816142ec565b92915050565b600060a0828403121561478e5761478d61470f565b5b61479860a0613db5565b905060006147a884828501614714565b60008301525060206147bc84828501614729565b60208301525060406147d08482850161474e565b60408301525060606147e484828501614714565b60608301525060806147f884828501614763565b60808301525092915050565b600060a0828403121561481a57614819613a65565b5b600061482884828501614778565b91505092915050565b7f496e76616c696420707269636500000000000000000000000000000000000000600082015250565b6000614867600d83613c60565b915061487282614831565b602082019050919050565b600060208201905081810360008301526148968161485a565b9050919050565b60006040820190506148b26000830185613b43565b6148bf6020830184613bfe565b9392505050565b60006040820190506148db6000830185613b43565b6148e86020830184613b43565b9392505050565b7f4e487b7100000000000000000000000000000000000000000000000000000000600052601160045260246000fd5b600061492982613acd565b915061493483613acd565b9250827fffffffffffffffffffffffffffffffffffffffffffffffffffffffffffffffff03821115614969576149686148ef565b5b828201905092915050565b60006020828403121561498a57614989613a65565b5b600061499884828501614714565b91505092915050565b600060a0820190506149b66000830188613b43565b6149c360208301876142c2565b6149d06040830186613b43565b6149dd6060830185613b43565b6149ea6080830184613b43565b9695505050505050565b7f455243313135353a2063616c6c6572206973206e6f7420746f6b656e206f776e60008201527f6572206f7220617070726f766564000000000000000000000000000000000000602082015250565b6000614a50602e83613c60565b9150614a5b826149f4565b604082019050919050565b60006020820190508181036000830152614a7f81614a43565b9050919050565b7f416d6f756e74206d7573742062652067726561746572207468616e207a65726f60008201527f2e00000000000000000000000000000000000000000000000000000000000000602082015250565b6000614ae2602183613c60565b9150614aed82614a86565b604082019050919050565b60006020820190508181036000830152614b1181614ad5565b9050919050565b600060208284031215614b2e57614b2d613a65565b5b6000614b3c84828501614763565b91505092915050565b7f4163636f756e74206e6f7420726567697374657265642e000000000000000000600082015250565b6000614b7b601783613c60565b9150614b8682614b45565b602082019050919050565b60006020820190508181036000830152614baa81614b6e565b9050919050565b6000604082019050614bc660008301856142c2565b614bd36020830184613b43565b9392505050565b7f496e73756666696369656e742062616c616e63652e0000000000000000000000600082015250565b6000614c10601583613c60565b9150614c1b82614bda565b602082019050919050565b60006020820190508181036000830152614c3f81614c03565b9050919050565b6000604082019050614c5b60008301856142c2565b614c6860208301846142c2565b9392505050565b7f4d61726b6574706c616365206e6f742079657420617574686f72697a65642e00600082015250565b6000614ca5601f83613c60565b9150614cb082614c6f565b602082019050919050565b60006020820190508181036000830152614cd481614c98565b9050919050565b6000606082019050614cf060008301866142c2565b614cfd6020830185613b43565b614d0a6040830184613b43565b949350505050565b7f43757272656e7420546f74616c20437265646974730000000000000000000000600082015250565b6000614d48601583613c60565b9150614d5382614d12565b602082019050919050565b60006040820190508181036000830152614d7781614d3b565b9050614d866020830184613b43565b92915050565b7f43757272656e7420546f74616c20526574697265000000000000000000000000600082015250565b6000614dc2601483613c60565b9150614dcd82614d8c565b602082019050919050565b60006040820190508181036000830152614df181614db5565b9050614e006020830184613b43565b92915050565b7f556e646572666c6f772064657465637465642e00000000000000000000000000600082015250565b6000614e3c601383613c60565b9150614e4782614e06565b602082019050919050565b60006020820190508181036000830152614e6b81614e2f565b9050919050565b6000614e7d82613acd565b9150614e8883613acd565b925082821015614e9b57614e9a6148ef565b5b828203905092915050565b6000608082019050614ebb6000830187613b43565b614ec860208301866142c2565b614ed56040830185613b43565b614ee26060830184613b43565b95945050505050565b7f496e76616c69642069734c6973746564207374617475732e0000000000000000600082015250565b6000614f21601883613c60565b9150614f2c82614eeb565b602082019050919050565b60006020820190508181036000830152614f5081614f14565b9050919050565b6000614f6282613acd565b9150614f6d83613acd565b9250817fffffffffffffffffffffffffffffffffffffffffffffffffffffffffffffffff0483118215151615614fa657614fa56148ef565b5b828202905092915050565b7f496e73756666696369656e742066756e64732e00000000000000000000000000600082015250565b6000614fe7601383613c60565b9150614ff282614fb1565b602082019050919050565b6000602082019050818103600083015261501681614fda565b9050919050565b600082825260208201905092915050565b50565b600061503e60008361501d565b91506150498261502e565b600082019050919050565b600060a08201905061506960008301876142c2565b61507660208301866142c2565b6150836040830185613b43565b6150906060830184613b43565b81810360808301526150a181615031565b905095945050505050565b60006150b782613acd565b9150600082036150ca576150c96148ef565b5b600182039050919050565b600060a0820190506150ea6000830188613b43565b6150f760208301876142c2565b61510460408301866142c2565b6151116060830185613b43565b61511e6080830184613b43565b9695505050505050565b7f455243313135353a206163636f756e747320616e6420696473206c656e67746860008201527f206d69736d617463680000000000000000000000000000000000000000000000602082015250565b6000615184602983613c60565b915061518f82615128565b604082019050919050565b600060208201905081810360008301526151b381615177565b9050919050565b7f4e487b7100000000000000000000000000000000000000000000000000000000600052603260045260246000fd5b60006151f482613acd565b91507fffffffffffffffffffffffffffffffffffffffffffffffffffffffffffffffff8203615226576152256148ef565b5b600182019050919050565b7f4f776e61626c653a206e6577206f776e657220697320746865207a65726f206160008201527f6464726573730000000000000000000000000000000000000000000000000000602082015250565b600061528d602683613c60565b915061529882615231565b604082019050919050565b600060208201905081810360008301526152bc81615280565b9050919050565b7f4e487b7100000000000000000000000000000000000000000000000000000000600052602260045260246000fd5b6000600282049050600182168061530a57607f821691505b60208210810361531d5761531c6152c3565b5b50919050565b600081905092915050565b60008190508160005260206000209050919050565b60008154615350816152f2565b61535a8186615323565b945060018216600081146153755760018114615386576153b9565b60ff198316865281860193506153b9565b61538f8561532e565b60005b838110156153b157815481890152600182019150602081019050615392565b838801955050505b50505092915050565b60006153cd82613c55565b6153d78185615323565b93506153e7818560208601613c71565b80840191505092915050565b60006153ff8285615343565b915061540b82846153c2565b91508190509392505050565b7f496e76616c696420746f6b656e2062616c616e63650000000000000000000000600082015250565b600061544d601583613c60565b915061545882615417565b602082019050919050565b6000602082019050818103600083015261547c81615440565b9050919050565b7f496e76616c696420737461747573000000000000000000000000000000000000600082015250565b60006154b9600e83613c60565b91506154c482615483565b602082019050919050565b600060208201905081810360008301526154e8816154ac565b9050919050565b7f4d61726b6574706c616365206e6f742079657420617574686f72697a65640000600082015250565b6000615525601e83613c60565b9150615530826154ef565b602082019050919050565b6000602082019050818103600083015261555481615518565b9050919050565b7f416c7265616479206c69737465642e0000000000000000000000000000000000600082015250565b6000615591600f83613c60565b915061559c8261555b565b602082019050919050565b600060208201905081810360008301526155c081615584565b9050919050565b7f4e6f74206c69737465642e000000000000000000000000000000000000000000600082015250565b60006155fd600b83613c60565b9150615608826155c7565b602082019050919050565b6000602082019050818103600083015261562c816155f0565b9050919050565b7f455243313135353a2069647320616e6420616d6f756e7473206c656e6774682060008201527f6d69736d61746368000000000000000000000000000000000000000000000000602082015250565b600061568f602883613c60565b915061569a82615633565b604082019050919050565b600060208201905081810360008301526156be81615682565b9050919050565b7f455243313135353a207472616e7366657220746f20746865207a65726f20616460008201527f6472657373000000000000000000000000000000000000000000000000000000602082015250565b6000615721602583613c60565b915061572c826156c5565b604082019050919050565b6000602082019050818103600083015261575081615714565b9050919050565b7f455243313135353a20696e73756666696369656e742062616c616e636520666f60008201527f72207472616e7366657200000000000000000000000000000000000000000000602082015250565b60006157b3602a83613c60565b91506157be82615757565b604082019050919050565b600060208201905081810360008301526157e2816157a6565b9050919050565b6000604082019050818103600083015261580381856141b7565b9050818103602083015261581781846141b7565b90509392505050565b7f455243313135353a206275726e2066726f6d20746865207a65726f206164647260008201527f6573730000000000000000000000000000000000000000000000000000000000602082015250565b600061587c602383613c60565b915061588782615820565b604082019050919050565b600060208201905081810360008301526158ab8161586f565b9050919050565b7f455243313135353a206275726e20616d6f756e7420657863656564732062616c60008201527f616e636500000000000000000000000000000000000000000000000000000000602082015250565b600061590e602483613c60565b9150615919826158b2565b604082019050919050565b6000602082019050818103600083015261593d81615901565b9050919050565b7f4f776e61626c653a2063616c6c6572206973206e6f7420746865206f776e6572600082015250565b600061597a602083613c60565b915061598582615944565b602082019050919050565b600060208201905081810360008301526159a98161596d565b9050919050565b7f455243313135353a2073657474696e6720617070726f76616c2073746174757360008201527f20666f722073656c660000000000000000000000000000000000000000000000602082015250565b6000615a0c602983613c60565b9150615a17826159b0565b604082019050919050565b60006020820190508181036000830152615a3b816159ff565b9050919050565b600081519050919050565b6000615a5882615a42565b615a62818561501d565b9350615a72818560208601613c71565b615a7b81613ca4565b840191505092915050565b600060a082019050615a9b60008301886142c2565b615aa860208301876142c2565b8181036040830152615aba81866141b7565b90508181036060830152615ace81856141b7565b90508181036080830152615ae28184615a4d565b90509695505050505050565b600081519050615afd81613b99565b92915050565b600060208284031215615b1957615b18613a65565b5b6000615b2784828501615aee565b91505092915050565b60008160e01c9050919050565b600060033d1115615b5c5760046000803e615b59600051615b30565b90505b90565b600060443d10615bec57615b71613a5b565b60043d036004823e80513d602482011167ffffffffffffffff82111715615b99575050615bec565b808201805167ffffffffffffffff811115615bb75750505050615bec565b80602083010160043d038501811115615bd4575050505050615bec565b615be382602001850186613d84565b82955050505050505b90565b7f455243313135353a207472616e7366657220746f206e6f6e2d4552433131353560008201527f526563656976657220696d706c656d656e746572000000000000000000000000602082015250565b6000615c4b603483613c60565b9150615c5682615bef565b604082019050919050565b60006020820190508181036000830152615c7a81615c3e565b9050919050565b7f455243313135353a204552433131353552656365697665722072656a6563746560008201527f6420746f6b656e73000000000000000000000000000000000000000000000000602082015250565b6000615cdd602883613c60565b9150615ce882615c81565b604082019050919050565b60006020820190508181036000830152615d0c81615cd0565b9050919050565b600060a082019050615d2860008301886142c2565b615d3560208301876142c2565b615d426040830186613b43565b615d4f6060830185613b43565b8181036080830152615d618184615a4d565b9050969550505050505056fea264697066735822122015b93a2c96abb8f006c3bb67dc7aaaf69ec130911cb37a0713aa57dfc53f7b3a64736f6c634300080d0033",
  "immutableReferences": {},
  "source": "// SPDX-License-Identifier: MIT\npragma solidity ^0.8.13;\n\nimport \"./AccountManagement.sol\";\nimport \"./CarbonToken.sol\";\nimport \"./CarbonBase.sol\";\n\ncontract CarbonMarket is CarbonBase {\n    CarbonToken private _token;\n    AccountManagement private _account;\n    uint256 private _listedTokens; // number of listed credits\n\n    event Log(string message, uint256 value);\n\n    constructor(address _tokenAddress, address _accountAddress) {\n        _token = CarbonToken(_tokenAddress);\n        _account = AccountManagement(_accountAddress);\n    }\n\n    function _validateCarbonCredit(\n        uint256 tokenId,\n        address owner,\n        bool checkListed,\n        bool checkDelisted\n    ) internal view {\n        CarbonCredit memory credit = _token.getCarbonCredit(tokenId);\n\n        require(_token.balanceOf(owner, tokenId) > 0, \"Invalid token balance\");\n        require(credit.status == ApprovalStatus.Approved, \"Invalid status\");\n        require(\n            _token.isApprovedForAll(owner, address(this)),\n            \"Marketplace not yet authorized\"\n        );\n\n        if (checkListed) {\n            require(!credit.isListed, \"Already listed.\");\n        }\n\n        if (checkDelisted) {\n            require(credit.isListed, \"Not listed.\");\n        }\n    }\n\n    function getListedTokensCount() public view returns (uint256) {\n        // returns the total number of listed credits\n        return _listedTokens;\n    }\n\n    function listCreditsForSale(uint256 tokenId, uint256 price) public {\n        CarbonCredit memory credit = _token.getCarbonCredit(tokenId);\n\n        _validateCarbonCredit(tokenId, credit.initialOwner, true, false);\n        require(price > 0, \"Invalid price\");\n\n        _token.updateListed(tokenId, true);\n        _token.updatePrice(tokenId, price);\n        _listedTokens += 1;\n\n        emit CarbonCreditListed(\n            tokenId,\n            credit.initialOwner,\n            _token.getTokenSupply(tokenId),\n            price,\n            block.timestamp\n        );\n    }\n\n    function delistCredits(uint256 tokenId) public {\n        _validateCarbonCredit(tokenId, msg.sender, false, true);\n\n        _token.updateListed(tokenId, false);\n        _listedTokens -= 1;\n    }\n\n    function changePrice(uint256 tokenId, uint256 price) public {\n        _validateCarbonCredit(tokenId, msg.sender, false, true);\n        require(price > 0, \"Invalid price\");\n\n        _token.updatePrice(tokenId, price);\n    }\n\n    function getAllListedCredits() public view returns (CarbonCredit[] memory) {\n        // [{}, {}, ...]\n        uint allCreditsCount = _token.getTotalTokensCount();\n        uint currentIndex = 0;\n        CarbonCredit[] memory credits = new CarbonCredit[](_listedTokens);\n\n        for (uint i = 0; i < allCreditsCount; i++) {\n            uint tokenId = _token.getTokenByIndex(i);\n            CarbonCredit memory credit = _token.getCarbonCredit(tokenId);\n            if (credit.isListed == true) {\n                credits[currentIndex] = credit;\n                currentIndex += 1;\n            }\n        }\n        return credits;\n    }\n\n    function buyCredits(uint256 tokenId, uint256 amount) public payable {\n        CarbonCredit memory credit = _token.getCarbonCredit(tokenId);\n\n        require(\n            _account.checkAccountRegistered(msg.sender),\n            \"Account not registered.\"\n        );\n        require(credit.isListed, \"Invalid isListed status.\");\n        require(\n            _token.balanceOf(credit.initialOwner, tokenId) >= amount,\n            \"Insufficient balance.\"\n        );\n        require(\n            msg.value >= credit.pricePerCredit * amount,\n            \"Insufficient funds.\"\n        );\n        require(\n            _token.isApprovedForAll(credit.initialOwner, address(this)),\n            \"Marketplace not yet authorized.\"\n        );\n\n        _token.safeTransferFrom(\n            credit.initialOwner,\n            msg.sender,\n            tokenId,\n            amount,\n            \"\"\n        );\n        payable(credit.initialOwner).transfer(msg.value);\n\n        _token.updateTokenSold(tokenId, amount);\n\n        // Additional custom logic post-transfer\n        // If all tokens of this ID are transferred, update the CarbonCredit struct\n        if (_token.balanceOf(credit.initialOwner, tokenId) == 0) {\n            _token.updateListed(tokenId, false);\n            _listedTokens--;\n        }\n\n        // Update account total credits\n        _account.setAccountTotalCredits(\n            credit.initialOwner,\n            _account.getAccountTotalCredits(credit.initialOwner) - amount\n        );\n        _account.setAccountTotalCredits(\n            msg.sender,\n            _account.getAccountTotalCredits(msg.sender) + amount\n        );\n\n        emit CarbonCreditPurchased(\n            tokenId,\n            credit.initialOwner,\n            msg.sender,\n            amount,\n            block.timestamp\n        );\n    }\n\n    function retireCredits(uint256 tokenId, uint256 amount) public {\n        require(amount > 0, \"Amount must be greater than zero.\");\n        require(\n            _account.checkAccountRegistered(msg.sender),\n            \"Account not registered.\"\n        );\n\n        require(\n            _token.balanceOf(msg.sender, tokenId) >= amount,\n            \"Insufficient balance.\"\n        );\n        require(\n            _token.isApprovedForAll(msg.sender, address(this)),\n            \"Marketplace not yet authorized.\"\n        );\n\n        _token.burn(msg.sender, tokenId, amount);\n\n        uint256 currentTotalCredits = _account.getAccountTotalCredits(\n            msg.sender\n        );\n        uint256 currentTotalRetire = _account.getAccountTotalRetire(msg.sender);\n\n        emit Log(\"Current Total Credits\", currentTotalCredits);\n        emit Log(\"Current Total Retire\", currentTotalRetire);\n\n        require(currentTotalCredits >= amount, \"Underflow detected.\");\n\n        _account.setAccountTotalCredits(\n            msg.sender,\n            currentTotalCredits - amount\n        );\n        _account.setAccountTotalRetire(msg.sender, currentTotalRetire + amount);\n\n        emit CarbonCreditRetired(tokenId, msg.sender, amount, block.timestamp);\n    }\n}\n",
  "sourcePath": "/Users/buudinhha/Vscode/DATN/main/contracts/CarbonMarket.sol",
  "compiler": {
    "name": "solc",
    "version": "0.8.13+commit.abaa5c0e.Emscripten.clang"
  },
  "schemaVersion": "3.4.16",
  "updatedAt": "2024-06-03T15:35:03.857Z",
  "networkType": "ethereum",
  "devdoc": {
    "kind": "dev",
    "methods": {
      "balanceOf(address,uint256)": {
        "details": "See {IERC1155-balanceOf}. Requirements: - `account` cannot be the zero address."
      },
      "balanceOfBatch(address[],uint256[])": {
        "details": "See {IERC1155-balanceOfBatch}. Requirements: - `accounts` and `ids` must have the same length."
      },
      "isApprovedForAll(address,address)": {
        "details": "See {IERC1155-isApprovedForAll}."
      },
      "owner()": {
        "details": "Returns the address of the current owner."
      },
      "renounceOwnership()": {
        "details": "Leaves the contract without owner. It will not be possible to call `onlyOwner` functions. Can only be called by the current owner. NOTE: Renouncing ownership will leave the contract without an owner, thereby disabling any functionality that is only available to the owner."
      },
      "safeBatchTransferFrom(address,address,uint256[],uint256[],bytes)": {
        "details": "See {IERC1155-safeBatchTransferFrom}."
      },
      "safeTransferFrom(address,address,uint256,uint256,bytes)": {
        "details": "See {IERC1155-safeTransferFrom}."
      },
      "setApprovalForAll(address,bool)": {
        "details": "See {IERC1155-setApprovalForAll}."
      },
      "supportsInterface(bytes4)": {
        "details": "See {IERC165-supportsInterface}."
      },
      "transferOwnership(address)": {
        "details": "Transfers ownership of the contract to a new account (`newOwner`). Can only be called by the current owner."
      }
    },
    "version": 1
  },
  "userdoc": {
    "kind": "user",
    "methods": {},
    "version": 1
  }
}