{
  "contractName": "CarbonMarket",
  "abi": [
    {
      "inputs": [
        {
          "internalType": "address",
          "name": "_tokenAddress",
          "type": "address"
        }
      ],
      "stateMutability": "nonpayable",
      "type": "constructor"
    },
    {
      "anonymous": false,
      "inputs": [
        {
          "indexed": true,
          "internalType": "address",
          "name": "account",
          "type": "address"
        },
        {
          "indexed": true,
          "internalType": "address",
          "name": "operator",
          "type": "address"
        },
        {
          "indexed": false,
          "internalType": "bool",
          "name": "approved",
          "type": "bool"
        }
      ],
      "name": "ApprovalForAll",
      "type": "event"
    },
    {
      "anonymous": false,
      "inputs": [
        {
          "indexed": false,
          "internalType": "uint256",
          "name": "tokenId",
          "type": "uint256"
        },
        {
          "indexed": false,
          "internalType": "address",
          "name": "initialOwner",
          "type": "address"
        },
        {
          "indexed": false,
          "internalType": "enum CarbonBase.ApprovalStatus",
          "name": "status",
          "type": "uint8"
        },
        {
          "indexed": false,
          "internalType": "uint256",
          "name": "pricePerCredit",
          "type": "uint256"
        },
        {
          "indexed": false,
          "internalType": "bool",
          "name": "isListed",
          "type": "bool"
        }
      ],
      "name": "CarbonCreditCreated",
      "type": "event"
    },
    {
      "anonymous": false,
      "inputs": [
        {
          "indexed": false,
          "internalType": "uint256",
          "name": "tokenId",
          "type": "uint256"
        },
        {
          "indexed": false,
          "internalType": "address",
          "name": "initialOwner",
          "type": "address"
        },
        {
          "indexed": false,
          "internalType": "enum CarbonBase.ApprovalStatus",
          "name": "status",
          "type": "uint8"
        },
        {
          "indexed": false,
          "internalType": "uint256",
          "name": "pricePerCredit",
          "type": "uint256"
        },
        {
          "indexed": false,
          "internalType": "bool",
          "name": "isListed",
          "type": "bool"
        }
      ],
      "name": "CarbonCreditListed",
      "type": "event"
    },
    {
      "anonymous": false,
      "inputs": [
        {
          "indexed": true,
          "internalType": "address",
          "name": "previousOwner",
          "type": "address"
        },
        {
          "indexed": true,
          "internalType": "address",
          "name": "newOwner",
          "type": "address"
        }
      ],
      "name": "OwnershipTransferred",
      "type": "event"
    },
    {
      "anonymous": false,
      "inputs": [
        {
          "indexed": true,
          "internalType": "uint256",
          "name": "tokenId",
          "type": "uint256"
        },
        {
          "indexed": true,
          "internalType": "address",
          "name": "from",
          "type": "address"
        },
        {
          "indexed": true,
          "internalType": "address",
          "name": "to",
          "type": "address"
        },
        {
          "indexed": false,
          "internalType": "uint256",
          "name": "amount",
          "type": "uint256"
        }
      ],
      "name": "TokenTransferred",
      "type": "event"
    },
    {
      "anonymous": false,
      "inputs": [
        {
          "indexed": true,
          "internalType": "address",
          "name": "operator",
          "type": "address"
        },
        {
          "indexed": true,
          "internalType": "address",
          "name": "from",
          "type": "address"
        },
        {
          "indexed": true,
          "internalType": "address",
          "name": "to",
          "type": "address"
        },
        {
          "indexed": false,
          "internalType": "uint256[]",
          "name": "ids",
          "type": "uint256[]"
        },
        {
          "indexed": false,
          "internalType": "uint256[]",
          "name": "values",
          "type": "uint256[]"
        }
      ],
      "name": "TransferBatch",
      "type": "event"
    },
    {
      "anonymous": false,
      "inputs": [
        {
          "indexed": true,
          "internalType": "address",
          "name": "operator",
          "type": "address"
        },
        {
          "indexed": true,
          "internalType": "address",
          "name": "from",
          "type": "address"
        },
        {
          "indexed": true,
          "internalType": "address",
          "name": "to",
          "type": "address"
        },
        {
          "indexed": false,
          "internalType": "uint256",
          "name": "id",
          "type": "uint256"
        },
        {
          "indexed": false,
          "internalType": "uint256",
          "name": "value",
          "type": "uint256"
        }
      ],
      "name": "TransferSingle",
      "type": "event"
    },
    {
      "anonymous": false,
      "inputs": [
        {
          "indexed": false,
          "internalType": "string",
          "name": "value",
          "type": "string"
        },
        {
          "indexed": true,
          "internalType": "uint256",
          "name": "id",
          "type": "uint256"
        }
      ],
      "name": "URI",
      "type": "event"
    },
    {
      "inputs": [
        {
          "internalType": "address",
          "name": "account",
          "type": "address"
        },
        {
          "internalType": "uint256",
          "name": "id",
          "type": "uint256"
        }
      ],
      "name": "balanceOf",
      "outputs": [
        {
          "internalType": "uint256",
          "name": "",
          "type": "uint256"
        }
      ],
      "stateMutability": "view",
      "type": "function",
      "constant": true
    },
    {
      "inputs": [
        {
          "internalType": "address[]",
          "name": "accounts",
          "type": "address[]"
        },
        {
          "internalType": "uint256[]",
          "name": "ids",
          "type": "uint256[]"
        }
      ],
      "name": "balanceOfBatch",
      "outputs": [
        {
          "internalType": "uint256[]",
          "name": "",
          "type": "uint256[]"
        }
      ],
      "stateMutability": "view",
      "type": "function",
      "constant": true
    },
    {
      "inputs": [
        {
          "internalType": "address",
          "name": "account",
          "type": "address"
        },
        {
          "internalType": "uint256",
          "name": "id",
          "type": "uint256"
        },
        {
          "internalType": "uint256",
          "name": "value",
          "type": "uint256"
        }
      ],
      "name": "burn",
      "outputs": [],
      "stateMutability": "nonpayable",
      "type": "function"
    },
    {
      "inputs": [
        {
          "internalType": "address",
          "name": "account",
          "type": "address"
        },
        {
          "internalType": "uint256[]",
          "name": "ids",
          "type": "uint256[]"
        },
        {
          "internalType": "uint256[]",
          "name": "values",
          "type": "uint256[]"
        }
      ],
      "name": "burnBatch",
      "outputs": [],
      "stateMutability": "nonpayable",
      "type": "function"
    },
    {
      "inputs": [
        {
          "internalType": "address",
          "name": "account",
          "type": "address"
        },
        {
          "internalType": "address",
          "name": "operator",
          "type": "address"
        }
      ],
      "name": "isApprovedForAll",
      "outputs": [
        {
          "internalType": "bool",
          "name": "",
          "type": "bool"
        }
      ],
      "stateMutability": "view",
      "type": "function",
      "constant": true
    },
    {
      "inputs": [],
      "name": "owner",
      "outputs": [
        {
          "internalType": "address",
          "name": "",
          "type": "address"
        }
      ],
      "stateMutability": "view",
      "type": "function",
      "constant": true
    },
    {
      "inputs": [],
      "name": "renounceOwnership",
      "outputs": [],
      "stateMutability": "nonpayable",
      "type": "function"
    },
    {
      "inputs": [
        {
          "internalType": "address",
          "name": "from",
          "type": "address"
        },
        {
          "internalType": "address",
          "name": "to",
          "type": "address"
        },
        {
          "internalType": "uint256[]",
          "name": "ids",
          "type": "uint256[]"
        },
        {
          "internalType": "uint256[]",
          "name": "amounts",
          "type": "uint256[]"
        },
        {
          "internalType": "bytes",
          "name": "data",
          "type": "bytes"
        }
      ],
      "name": "safeBatchTransferFrom",
      "outputs": [],
      "stateMutability": "nonpayable",
      "type": "function"
    },
    {
      "inputs": [
        {
          "internalType": "address",
          "name": "from",
          "type": "address"
        },
        {
          "internalType": "address",
          "name": "to",
          "type": "address"
        },
        {
          "internalType": "uint256",
          "name": "id",
          "type": "uint256"
        },
        {
          "internalType": "uint256",
          "name": "amount",
          "type": "uint256"
        },
        {
          "internalType": "bytes",
          "name": "data",
          "type": "bytes"
        }
      ],
      "name": "safeTransferFrom",
      "outputs": [],
      "stateMutability": "nonpayable",
      "type": "function"
    },
    {
      "inputs": [
        {
          "internalType": "address",
          "name": "operator",
          "type": "address"
        },
        {
          "internalType": "bool",
          "name": "approved",
          "type": "bool"
        }
      ],
      "name": "setApprovalForAll",
      "outputs": [],
      "stateMutability": "nonpayable",
      "type": "function"
    },
    {
      "inputs": [
        {
          "internalType": "bytes4",
          "name": "interfaceId",
          "type": "bytes4"
        }
      ],
      "name": "supportsInterface",
      "outputs": [
        {
          "internalType": "bool",
          "name": "",
          "type": "bool"
        }
      ],
      "stateMutability": "view",
      "type": "function",
      "constant": true
    },
    {
      "inputs": [
        {
          "internalType": "address",
          "name": "newOwner",
          "type": "address"
        }
      ],
      "name": "transferOwnership",
      "outputs": [],
      "stateMutability": "nonpayable",
      "type": "function"
    },
    {
      "inputs": [
        {
          "internalType": "uint256",
          "name": "tokenId",
          "type": "uint256"
        }
      ],
      "name": "uri",
      "outputs": [
        {
          "internalType": "string",
          "name": "",
          "type": "string"
        }
      ],
      "stateMutability": "pure",
      "type": "function",
      "constant": true
    },
    {
      "inputs": [],
      "name": "getListedTokensCount",
      "outputs": [
        {
          "internalType": "uint256",
          "name": "",
          "type": "uint256"
        }
      ],
      "stateMutability": "view",
      "type": "function",
      "constant": true
    },
    {
      "inputs": [
        {
          "internalType": "uint256",
          "name": "tokenId",
          "type": "uint256"
        },
        {
          "internalType": "uint256",
          "name": "price",
          "type": "uint256"
        }
      ],
      "name": "listCreditsForSale",
      "outputs": [],
      "stateMutability": "nonpayable",
      "type": "function"
    },
    {
      "inputs": [],
      "name": "getAllListedCredits",
      "outputs": [
        {
          "components": [
            {
              "internalType": "uint256",
              "name": "tokenId",
              "type": "uint256"
            },
            {
              "internalType": "address",
              "name": "initialOwner",
              "type": "address"
            },
            {
              "internalType": "enum CarbonBase.ApprovalStatus",
              "name": "status",
              "type": "uint8"
            },
            {
              "internalType": "uint256",
              "name": "pricePerCredit",
              "type": "uint256"
            },
            {
              "internalType": "bool",
              "name": "isListed",
              "type": "bool"
            }
          ],
          "internalType": "struct CarbonBase.CarbonCredit[]",
          "name": "",
          "type": "tuple[]"
        }
      ],
      "stateMutability": "view",
      "type": "function",
      "constant": true
    },
    {
      "inputs": [
        {
          "internalType": "uint256",
          "name": "tokenId",
          "type": "uint256"
        },
        {
          "internalType": "uint256",
          "name": "amount",
          "type": "uint256"
        }
      ],
      "name": "buyCredits",
      "outputs": [],
      "stateMutability": "payable",
      "type": "function",
      "payable": true
    },
    {
      "inputs": [
        {
          "internalType": "uint256",
          "name": "tokenId",
          "type": "uint256"
        },
        {
          "internalType": "uint256",
          "name": "amount",
          "type": "uint256"
        }
      ],
      "name": "retireCredits",
      "outputs": [],
      "stateMutability": "nonpayable",
      "type": "function"
    },
    {
      "inputs": [],
      "name": "getTokenAddress",
      "outputs": [
        {
          "internalType": "address",
          "name": "",
          "type": "address"
        }
      ],
      "stateMutability": "view",
      "type": "function",
      "constant": true
    }
  ],
  "bytecode": "0x608060405260405180602001604052806000815250600390805190602001906200002b929190620001dd565b503480156200003957600080fd5b50604051620056523803806200565283398181016040528101906200005f9190620002f7565b6040518060600160405280602b815260200162005627602b91396200008a81620000f360201b60201c565b50620000ab6200009f6200010f60201b60201c565b6200011760201b60201c565b80600660006101000a81548173ffffffffffffffffffffffffffffffffffffffff021916908373ffffffffffffffffffffffffffffffffffffffff160217905550506200038d565b80600290805190602001906200010b929190620001dd565b5050565b600033905090565b6000600560009054906101000a900473ffffffffffffffffffffffffffffffffffffffff16905081600560006101000a81548173ffffffffffffffffffffffffffffffffffffffff021916908373ffffffffffffffffffffffffffffffffffffffff1602179055508173ffffffffffffffffffffffffffffffffffffffff168173ffffffffffffffffffffffffffffffffffffffff167f8be0079c531659141344cd1fd0a4f28419497f9722a3daafe3b4186f6b6457e060405160405180910390a35050565b828054620001eb9062000358565b90600052602060002090601f0160209004810192826200020f57600085556200025b565b82601f106200022a57805160ff19168380011785556200025b565b828001600101855582156200025b579182015b828111156200025a5782518255916020019190600101906200023d565b5b5090506200026a91906200026e565b5090565b5b80821115620002895760008160009055506001016200026f565b5090565b600080fd5b600073ffffffffffffffffffffffffffffffffffffffff82169050919050565b6000620002bf8262000292565b9050919050565b620002d181620002b2565b8114620002dd57600080fd5b50565b600081519050620002f181620002c6565b92915050565b60006020828403121562000310576200030f6200028d565b5b60006200032084828501620002e0565b91505092915050565b7f4e487b7100000000000000000000000000000000000000000000000000000000600052602260045260246000fd5b600060028204905060018216806200037157607f821691505b60208210810362000387576200038662000329565b5b50919050565b61528a806200039d6000396000f3fe6080604052600436106101135760003560e01c80634e1273f4116100a0578063e7c2829f11610064578063e7c2829f1461038d578063e985e9c5146103b8578063f242432a146103f5578063f2fde38b1461041e578063f5298aca1461044757610113565b80634e1273f4146102bc5780636b20c454146102f9578063715018a6146103225780638da5cb5b14610339578063a22cb4651461036457610113565b806319adf6ad116100e757806319adf6ad146101fa5780632eb2c2d6146102235780633ea0fb131461024c578063479c8457146102755780634c9742211461029157610113565b8062fdd58e1461011857806301ffc9a7146101555780630e89341c1461019257806310fe9ae8146101cf575b600080fd5b34801561012457600080fd5b5061013f600480360381019061013a91906130af565b610470565b60405161014c91906130fe565b60405180910390f35b34801561016157600080fd5b5061017c60048036038101906101779190613171565b610538565b60405161018991906131b9565b60405180910390f35b34801561019e57600080fd5b506101b960048036038101906101b491906131d4565b61061a565b6040516101c6919061329a565b60405180910390f35b3480156101db57600080fd5b506101e461064b565b6040516101f191906132cb565b60405180910390f35b34801561020657600080fd5b50610221600480360381019061021c91906132e6565b610675565b005b34801561022f57600080fd5b5061024a60048036038101906102459190613523565b610bb9565b005b34801561025857600080fd5b50610273600480360381019061026e91906132e6565b610c5a565b005b61028f600480360381019061028a91906132e6565b610e11565b005b34801561029d57600080fd5b506102a661143c565b6040516102b391906130fe565b60405180910390f35b3480156102c857600080fd5b506102e360048036038101906102de91906136b5565b611446565b6040516102f091906137eb565b60405180910390f35b34801561030557600080fd5b50610320600480360381019061031b919061380d565b61155f565b005b34801561032e57600080fd5b506103376115fc565b005b34801561034557600080fd5b5061034e611610565b60405161035b91906132cb565b60405180910390f35b34801561037057600080fd5b5061038b600480360381019061038691906138c4565b61163a565b005b34801561039957600080fd5b506103a2611650565b6040516103af9190613ab0565b60405180910390f35b3480156103c457600080fd5b506103df60048036038101906103da9190613ad2565b6118eb565b6040516103ec91906131b9565b60405180910390f35b34801561040157600080fd5b5061041c60048036038101906104179190613b12565b61197f565b005b34801561042a57600080fd5b5061044560048036038101906104409190613ba9565b611a20565b005b34801561045357600080fd5b5061046e60048036038101906104699190613bd6565b611aa3565b005b60008073ffffffffffffffffffffffffffffffffffffffff168373ffffffffffffffffffffffffffffffffffffffff16036104e0576040517f08c379a00000000000000000000000000000000000000000000000000000000081526004016104d790613c9b565b60405180910390fd5b60008083815260200190815260200160002060008473ffffffffffffffffffffffffffffffffffffffff1673ffffffffffffffffffffffffffffffffffffffff16815260200190815260200160002054905092915050565b60007fd9b67a26000000000000000000000000000000000000000000000000000000007bffffffffffffffffffffffffffffffffffffffffffffffffffffffff1916827bffffffffffffffffffffffffffffffffffffffffffffffffffffffff1916148061060357507f0e89341c000000000000000000000000000000000000000000000000000000007bffffffffffffffffffffffffffffffffffffffffffffffffffffffff1916827bffffffffffffffffffffffffffffffffffffffffffffffffffffffff1916145b80610613575061061282611b40565b5b9050919050565b606061062582611baa565b6040516020016106359190613ddb565b6040516020818303038152906040529050919050565b6000600660009054906101000a900473ffffffffffffffffffffffffffffffffffffffff16905090565b6000600660009054906101000a900473ffffffffffffffffffffffffffffffffffffffff1673ffffffffffffffffffffffffffffffffffffffff1663f392243b846040518263ffffffff1660e01b81526004016106d291906130fe565b60a060405180830381865afa1580156106ef573d6000803e3d6000fd5b505050506040513d601f19601f820116820180604052508101906107139190613efd565b90506000600660009054906101000a900473ffffffffffffffffffffffffffffffffffffffff1673ffffffffffffffffffffffffffffffffffffffff1662fdd58e33866040518363ffffffff1660e01b8152600401610773929190613f2a565b602060405180830381865afa158015610790573d6000803e3d6000fd5b505050506040513d601f19601f820116820180604052508101906107b49190613f53565b116107f4576040517f08c379a00000000000000000000000000000000000000000000000000000000081526004016107eb90613ff2565b60405180910390fd5b806020015173ffffffffffffffffffffffffffffffffffffffff163373ffffffffffffffffffffffffffffffffffffffff1614610866576040517f08c379a000000000000000000000000000000000000000000000000000000000815260040161085d90614084565b60405180910390fd5b6001600281111561087a5761087961393f565b5b816040015160028111156108915761089061393f565b5b146108d1576040517f08c379a00000000000000000000000000000000000000000000000000000000081526004016108c890614116565b60405180910390fd5b806080015115610916576040517f08c379a000000000000000000000000000000000000000000000000000000000815260040161090d90614182565b60405180910390fd5b60008211610959576040517f08c379a0000000000000000000000000000000000000000000000000000000008152600401610950906141ee565b60405180910390fd5b600660009054906101000a900473ffffffffffffffffffffffffffffffffffffffff1673ffffffffffffffffffffffffffffffffffffffff1663e985e9c533306040518363ffffffff1660e01b81526004016109b692919061420e565b602060405180830381865afa1580156109d3573d6000803e3d6000fd5b505050506040513d601f19601f820116820180604052508101906109f79190614237565b610a36576040517f08c379a0000000000000000000000000000000000000000000000000000000008152600401610a2d906142d6565b60405180910390fd5b600660009054906101000a900473ffffffffffffffffffffffffffffffffffffffff1673ffffffffffffffffffffffffffffffffffffffff16639c0ab5ec8460016040518363ffffffff1660e01b8152600401610a949291906142f6565b600060405180830381600087803b158015610aae57600080fd5b505af1158015610ac2573d6000803e3d6000fd5b50505050600660009054906101000a900473ffffffffffffffffffffffffffffffffffffffff1673ffffffffffffffffffffffffffffffffffffffff166382367b2d84846040518363ffffffff1660e01b8152600401610b2392919061431f565b600060405180830381600087803b158015610b3d57600080fd5b505af1158015610b51573d6000803e3d6000fd5b50505050600160076000828254610b689190614377565b925050819055507f67bd36e179e7b4bfeaa67bf625a5bbf07708e538a16738bf20db3cf7b7d76a178382602001516001856001604051610bac9594939291906143dc565b60405180910390a1505050565b610bc1611c78565b73ffffffffffffffffffffffffffffffffffffffff168573ffffffffffffffffffffffffffffffffffffffff161480610c075750610c0685610c01611c78565b6118eb565b5b610c46576040517f08c379a0000000000000000000000000000000000000000000000000000000008152600401610c3d906144a1565b60405180910390fd5b610c538585858585611c80565b5050505050565b60008111610c9d576040517f08c379a0000000000000000000000000000000000000000000000000000000008152600401610c9490614533565b60405180910390fd5b80600660009054906101000a900473ffffffffffffffffffffffffffffffffffffffff1673ffffffffffffffffffffffffffffffffffffffff1662fdd58e33856040518363ffffffff1660e01b8152600401610cfa929190613f2a565b602060405180830381865afa158015610d17573d6000803e3d6000fd5b505050506040513d601f19601f82011682018060405250810190610d3b9190613f53565b1015610d7c576040517f08c379a0000000000000000000000000000000000000000000000000000000008152600401610d73906145c5565b60405180910390fd5b600660009054906101000a900473ffffffffffffffffffffffffffffffffffffffff1673ffffffffffffffffffffffffffffffffffffffff1663f5298aca3384846040518463ffffffff1660e01b8152600401610ddb939291906145e5565b600060405180830381600087803b158015610df557600080fd5b505af1158015610e09573d6000803e3d6000fd5b505050505050565b6000600660009054906101000a900473ffffffffffffffffffffffffffffffffffffffff1673ffffffffffffffffffffffffffffffffffffffff1663f392243b846040518263ffffffff1660e01b8152600401610e6e91906130fe565b60a060405180830381865afa158015610e8b573d6000803e3d6000fd5b505050506040513d601f19601f82011682018060405250810190610eaf9190613efd565b90508060800151610ef5576040517f08c379a0000000000000000000000000000000000000000000000000000000008152600401610eec9061468e565b60405180910390fd5b81600660009054906101000a900473ffffffffffffffffffffffffffffffffffffffff1673ffffffffffffffffffffffffffffffffffffffff1662fdd58e8360200151866040518363ffffffff1660e01b8152600401610f56929190613f2a565b602060405180830381865afa158015610f73573d6000803e3d6000fd5b505050506040513d601f19601f82011682018060405250810190610f979190613f53565b1015610fd8576040517f08c379a0000000000000000000000000000000000000000000000000000000008152600401610fcf90614720565b60405180910390fd5b818160600151610fe89190614740565b34101561102a576040517f08c379a0000000000000000000000000000000000000000000000000000000008152600401611021906147e6565b60405180910390fd5b600660009054906101000a900473ffffffffffffffffffffffffffffffffffffffff1673ffffffffffffffffffffffffffffffffffffffff1663e985e9c58260200151306040518363ffffffff1660e01b815260040161108b92919061420e565b602060405180830381865afa1580156110a8573d6000803e3d6000fd5b505050506040513d601f19601f820116820180604052508101906110cc9190614237565b61110b576040517f08c379a000000000000000000000000000000000000000000000000000000000815260040161110290614878565b60405180910390fd5b600660009054906101000a900473ffffffffffffffffffffffffffffffffffffffff1673ffffffffffffffffffffffffffffffffffffffff1663f242432a82602001513386866040518563ffffffff1660e01b815260040161117094939291906148cf565b600060405180830381600087803b15801561118a57600080fd5b505af115801561119e573d6000803e3d6000fd5b50505050806020015173ffffffffffffffffffffffffffffffffffffffff166108fc349081150290604051600060405180830381858888f193505050501580156111ec573d6000803e3d6000fd5b50600660009054906101000a900473ffffffffffffffffffffffffffffffffffffffff1673ffffffffffffffffffffffffffffffffffffffff1663eeb2982f84846040518363ffffffff1660e01b815260040161124a92919061431f565b600060405180830381600087803b15801561126457600080fd5b505af1158015611278573d6000803e3d6000fd5b505050506000600660009054906101000a900473ffffffffffffffffffffffffffffffffffffffff1673ffffffffffffffffffffffffffffffffffffffff1662fdd58e8360200151866040518363ffffffff1660e01b81526004016112de929190613f2a565b602060405180830381865afa1580156112fb573d6000803e3d6000fd5b505050506040513d601f19601f8201168201806040525081019061131f9190613f53565b036113cd57600660009054906101000a900473ffffffffffffffffffffffffffffffffffffffff1673ffffffffffffffffffffffffffffffffffffffff16639c0ab5ec8460006040518363ffffffff1660e01b81526004016113829291906142f6565b600060405180830381600087803b15801561139c57600080fd5b505af11580156113b0573d6000803e3d6000fd5b50505050600760008154809291906113c790614927565b91905055505b3373ffffffffffffffffffffffffffffffffffffffff16816020015173ffffffffffffffffffffffffffffffffffffffff16847fdc5e8cc6b36001921ea942b2d0334e09fcc347e33b47a83d9a6c5c2a521d329c8560405161142f91906130fe565b60405180910390a4505050565b6000600754905090565b6060815183511461148c576040517f08c379a0000000000000000000000000000000000000000000000000000000008152600401611483906149c2565b60405180910390fd5b6000835167ffffffffffffffff8111156114a9576114a861332b565b5b6040519080825280602002602001820160405280156114d75781602001602082028036833780820191505090505b50905060005b8451811015611554576115248582815181106114fc576114fb6149e2565b5b6020026020010151858381518110611517576115166149e2565b5b6020026020010151610470565b828281518110611537576115366149e2565b5b6020026020010181815250508061154d90614a11565b90506114dd565b508091505092915050565b611567611c78565b73ffffffffffffffffffffffffffffffffffffffff168373ffffffffffffffffffffffffffffffffffffffff1614806115ad57506115ac836115a7611c78565b6118eb565b5b6115ec576040517f08c379a00000000000000000000000000000000000000000000000000000000081526004016115e3906144a1565b60405180910390fd5b6115f7838383611fa1565b505050565b61160461226f565b61160e60006122ed565b565b6000600560009054906101000a900473ffffffffffffffffffffffffffffffffffffffff16905090565b61164c611645611c78565b83836123b3565b5050565b60606000600660009054906101000a900473ffffffffffffffffffffffffffffffffffffffff1673ffffffffffffffffffffffffffffffffffffffff16630b2f67256040518163ffffffff1660e01b8152600401602060405180830381865afa1580156116c1573d6000803e3d6000fd5b505050506040513d601f19601f820116820180604052508101906116e59190613f53565b905060008060075467ffffffffffffffff8111156117065761170561332b565b5b60405190808252806020026020018201604052801561173f57816020015b61172c612fae565b8152602001906001900390816117245790505b50905060005b838110156118e1576000600660009054906101000a900473ffffffffffffffffffffffffffffffffffffffff1673ffffffffffffffffffffffffffffffffffffffff1663644b7a43836040518263ffffffff1660e01b81526004016117aa91906130fe565b602060405180830381865afa1580156117c7573d6000803e3d6000fd5b505050506040513d601f19601f820116820180604052508101906117eb9190613f53565b90506000600660009054906101000a900473ffffffffffffffffffffffffffffffffffffffff1673ffffffffffffffffffffffffffffffffffffffff1663f392243b836040518263ffffffff1660e01b815260040161184a91906130fe565b60a060405180830381865afa158015611867573d6000803e3d6000fd5b505050506040513d601f19601f8201168201806040525081019061188b9190613efd565b90506001151581608001511515036118cc57808486815181106118b1576118b06149e2565b5b60200260200101819052506001856118c99190614377565b94505b505080806118d990614a11565b915050611745565b5080935050505090565b6000600160008473ffffffffffffffffffffffffffffffffffffffff1673ffffffffffffffffffffffffffffffffffffffff16815260200190815260200160002060008373ffffffffffffffffffffffffffffffffffffffff1673ffffffffffffffffffffffffffffffffffffffff16815260200190815260200160002060009054906101000a900460ff16905092915050565b611987611c78565b73ffffffffffffffffffffffffffffffffffffffff168573ffffffffffffffffffffffffffffffffffffffff1614806119cd57506119cc856119c7611c78565b6118eb565b5b611a0c576040517f08c379a0000000000000000000000000000000000000000000000000000000008152600401611a03906144a1565b60405180910390fd5b611a19858585858561251f565b5050505050565b611a2861226f565b600073ffffffffffffffffffffffffffffffffffffffff168173ffffffffffffffffffffffffffffffffffffffff1603611a97576040517f08c379a0000000000000000000000000000000000000000000000000000000008152600401611a8e90614acb565b60405180910390fd5b611aa0816122ed565b50565b611aab611c78565b73ffffffffffffffffffffffffffffffffffffffff168373ffffffffffffffffffffffffffffffffffffffff161480611af15750611af083611aeb611c78565b6118eb565b5b611b30576040517f08c379a0000000000000000000000000000000000000000000000000000000008152600401611b27906144a1565b60405180910390fd5b611b3b8383836127ba565b505050565b60007f01ffc9a7000000000000000000000000000000000000000000000000000000007bffffffffffffffffffffffffffffffffffffffffffffffffffffffff1916827bffffffffffffffffffffffffffffffffffffffffffffffffffffffff1916149050919050565b606060006001611bb984612a00565b01905060008167ffffffffffffffff811115611bd857611bd761332b565b5b6040519080825280601f01601f191660200182016040528015611c0a5781602001600182028036833780820191505090505b509050600082602001820190505b600115611c6d578080600190039150507f3031323334353637383961626364656600000000000000000000000000000000600a86061a8153600a8581611c6157611c60614aeb565b5b04945060008503611c18575b819350505050919050565b600033905090565b8151835114611cc4576040517f08c379a0000000000000000000000000000000000000000000000000000000008152600401611cbb90614b8c565b60405180910390fd5b600073ffffffffffffffffffffffffffffffffffffffff168473ffffffffffffffffffffffffffffffffffffffff1603611d33576040517f08c379a0000000000000000000000000000000000000000000000000000000008152600401611d2a90614c1e565b60405180910390fd5b6000611d3d611c78565b9050611d4d818787878787612b53565b60005b8451811015611efe576000858281518110611d6e57611d6d6149e2565b5b602002602001015190506000858381518110611d8d57611d8c6149e2565b5b60200260200101519050600080600084815260200190815260200160002060008b73ffffffffffffffffffffffffffffffffffffffff1673ffffffffffffffffffffffffffffffffffffffff16815260200190815260200160002054905081811015611e2e576040517f08c379a0000000000000000000000000000000000000000000000000000000008152600401611e2590614cb0565b60405180910390fd5b81810360008085815260200190815260200160002060008c73ffffffffffffffffffffffffffffffffffffffff1673ffffffffffffffffffffffffffffffffffffffff168152602001908152602001600020819055508160008085815260200190815260200160002060008b73ffffffffffffffffffffffffffffffffffffffff1673ffffffffffffffffffffffffffffffffffffffff1681526020019081526020016000206000828254611ee39190614377565b9250508190555050505080611ef790614a11565b9050611d50565b508473ffffffffffffffffffffffffffffffffffffffff168673ffffffffffffffffffffffffffffffffffffffff168273ffffffffffffffffffffffffffffffffffffffff167f4a39dc06d4c0dbc64b70af90fd698a233a518aa5d07e595d983b8c0526c8f7fb8787604051611f75929190614cd0565b60405180910390a4611f8b818787878787612b5b565b611f99818787878787612b63565b505050505050565b600073ffffffffffffffffffffffffffffffffffffffff168373ffffffffffffffffffffffffffffffffffffffff1603612010576040517f08c379a000000000000000000000000000000000000000000000000000000000815260040161200790614d79565b60405180910390fd5b8051825114612054576040517f08c379a000000000000000000000000000000000000000000000000000000000815260040161204b90614b8c565b60405180910390fd5b600061205e611c78565b905061207e81856000868660405180602001604052806000815250612b53565b60005b83518110156121cb57600084828151811061209f5761209e6149e2565b5b6020026020010151905060008483815181106120be576120bd6149e2565b5b60200260200101519050600080600084815260200190815260200160002060008973ffffffffffffffffffffffffffffffffffffffff1673ffffffffffffffffffffffffffffffffffffffff1681526020019081526020016000205490508181101561215f576040517f08c379a000000000000000000000000000000000000000000000000000000000815260040161215690614e0b565b60405180910390fd5b81810360008085815260200190815260200160002060008a73ffffffffffffffffffffffffffffffffffffffff1673ffffffffffffffffffffffffffffffffffffffff1681526020019081526020016000208190555050505080806121c390614a11565b915050612081565b50600073ffffffffffffffffffffffffffffffffffffffff168473ffffffffffffffffffffffffffffffffffffffff168273ffffffffffffffffffffffffffffffffffffffff167f4a39dc06d4c0dbc64b70af90fd698a233a518aa5d07e595d983b8c0526c8f7fb8686604051612243929190614cd0565b60405180910390a461226981856000868660405180602001604052806000815250612b5b565b50505050565b612277611c78565b73ffffffffffffffffffffffffffffffffffffffff16612295611610565b73ffffffffffffffffffffffffffffffffffffffff16146122eb576040517f08c379a00000000000000000000000000000000000000000000000000000000081526004016122e290614e77565b60405180910390fd5b565b6000600560009054906101000a900473ffffffffffffffffffffffffffffffffffffffff16905081600560006101000a81548173ffffffffffffffffffffffffffffffffffffffff021916908373ffffffffffffffffffffffffffffffffffffffff1602179055508173ffffffffffffffffffffffffffffffffffffffff168173ffffffffffffffffffffffffffffffffffffffff167f8be0079c531659141344cd1fd0a4f28419497f9722a3daafe3b4186f6b6457e060405160405180910390a35050565b8173ffffffffffffffffffffffffffffffffffffffff168373ffffffffffffffffffffffffffffffffffffffff1603612421576040517f08c379a000000000000000000000000000000000000000000000000000000000815260040161241890614f09565b60405180910390fd5b80600160008573ffffffffffffffffffffffffffffffffffffffff1673ffffffffffffffffffffffffffffffffffffffff16815260200190815260200160002060008473ffffffffffffffffffffffffffffffffffffffff1673ffffffffffffffffffffffffffffffffffffffff16815260200190815260200160002060006101000a81548160ff0219169083151502179055508173ffffffffffffffffffffffffffffffffffffffff168373ffffffffffffffffffffffffffffffffffffffff167f17307eab39ab6107e8899845ad3d59bd9653f200f220920489ca2b5937696c318360405161251291906131b9565b60405180910390a3505050565b600073ffffffffffffffffffffffffffffffffffffffff168473ffffffffffffffffffffffffffffffffffffffff160361258e576040517f08c379a000000000000000000000000000000000000000000000000000000000815260040161258590614c1e565b60405180910390fd5b6000612598611c78565b905060006125a585612d3a565b905060006125b285612d3a565b90506125c2838989858589612b53565b600080600088815260200190815260200160002060008a73ffffffffffffffffffffffffffffffffffffffff1673ffffffffffffffffffffffffffffffffffffffff16815260200190815260200160002054905085811015612659576040517f08c379a000000000000000000000000000000000000000000000000000000000815260040161265090614cb0565b60405180910390fd5b85810360008089815260200190815260200160002060008b73ffffffffffffffffffffffffffffffffffffffff1673ffffffffffffffffffffffffffffffffffffffff168152602001908152602001600020819055508560008089815260200190815260200160002060008a73ffffffffffffffffffffffffffffffffffffffff1673ffffffffffffffffffffffffffffffffffffffff168152602001908152602001600020600082825461270e9190614377565b925050819055508773ffffffffffffffffffffffffffffffffffffffff168973ffffffffffffffffffffffffffffffffffffffff168573ffffffffffffffffffffffffffffffffffffffff167fc3d58168c5ae7397731d063d5bbf3d657854427343f4c083240f7aacaa2d0f628a8a60405161278b92919061431f565b60405180910390a46127a1848a8a86868a612b5b565b6127af848a8a8a8a8a612db4565b505050505050505050565b600073ffffffffffffffffffffffffffffffffffffffff168373ffffffffffffffffffffffffffffffffffffffff1603612829576040517f08c379a000000000000000000000000000000000000000000000000000000000815260040161282090614d79565b60405180910390fd5b6000612833611c78565b9050600061284084612d3a565b9050600061284d84612d3a565b905061286d83876000858560405180602001604052806000815250612b53565b600080600087815260200190815260200160002060008873ffffffffffffffffffffffffffffffffffffffff1673ffffffffffffffffffffffffffffffffffffffff16815260200190815260200160002054905084811015612904576040517f08c379a00000000000000000000000000000000000000000000000000000000081526004016128fb90614e0b565b60405180910390fd5b84810360008088815260200190815260200160002060008973ffffffffffffffffffffffffffffffffffffffff1673ffffffffffffffffffffffffffffffffffffffff16815260200190815260200160002081905550600073ffffffffffffffffffffffffffffffffffffffff168773ffffffffffffffffffffffffffffffffffffffff168573ffffffffffffffffffffffffffffffffffffffff167fc3d58168c5ae7397731d063d5bbf3d657854427343f4c083240f7aacaa2d0f6289896040516129d192919061431f565b60405180910390a46129f784886000868660405180602001604052806000815250612b5b565b50505050505050565b600080600090507a184f03e93ff9f4daa797ed6e38ed64bf6a1f0100000000000000008310612a5e577a184f03e93ff9f4daa797ed6e38ed64bf6a1f0100000000000000008381612a5457612a53614aeb565b5b0492506040810190505b6d04ee2d6d415b85acef81000000008310612a9b576d04ee2d6d415b85acef81000000008381612a9157612a90614aeb565b5b0492506020810190505b662386f26fc100008310612aca57662386f26fc100008381612ac057612abf614aeb565b5b0492506010810190505b6305f5e1008310612af3576305f5e1008381612ae957612ae8614aeb565b5b0492506008810190505b6127108310612b18576127108381612b0e57612b0d614aeb565b5b0492506004810190505b60648310612b3b5760648381612b3157612b30614aeb565b5b0492506002810190505b600a8310612b4a576001810190505b80915050919050565b505050505050565b505050505050565b612b828473ffffffffffffffffffffffffffffffffffffffff16612f8b565b15612d32578373ffffffffffffffffffffffffffffffffffffffff1663bc197c8187878686866040518663ffffffff1660e01b8152600401612bc8959493929190614f6d565b6020604051808303816000875af1925050508015612c0457506040513d601f19601f82011682018060405250810190612c019190614fea565b60015b612ca957612c10615024565b806308c379a003612c6c5750612c24615046565b80612c2f5750612c6e565b806040517f08c379a0000000000000000000000000000000000000000000000000000000008152600401612c63919061329a565b60405180910390fd5b505b6040517f08c379a0000000000000000000000000000000000000000000000000000000008152600401612ca090615148565b60405180910390fd5b63bc197c8160e01b7bffffffffffffffffffffffffffffffffffffffffffffffffffffffff1916817bffffffffffffffffffffffffffffffffffffffffffffffffffffffff191614612d30576040517f08c379a0000000000000000000000000000000000000000000000000000000008152600401612d27906151da565b60405180910390fd5b505b505050505050565b60606000600167ffffffffffffffff811115612d5957612d5861332b565b5b604051908082528060200260200182016040528015612d875781602001602082028036833780820191505090505b5090508281600081518110612d9f57612d9e6149e2565b5b60200260200101818152505080915050919050565b612dd38473ffffffffffffffffffffffffffffffffffffffff16612f8b565b15612f83578373ffffffffffffffffffffffffffffffffffffffff1663f23a6e6187878686866040518663ffffffff1660e01b8152600401612e199594939291906151fa565b6020604051808303816000875af1925050508015612e5557506040513d601f19601f82011682018060405250810190612e529190614fea565b60015b612efa57612e61615024565b806308c379a003612ebd5750612e75615046565b80612e805750612ebf565b806040517f08c379a0000000000000000000000000000000000000000000000000000000008152600401612eb4919061329a565b60405180910390fd5b505b6040517f08c379a0000000000000000000000000000000000000000000000000000000008152600401612ef190615148565b60405180910390fd5b63f23a6e6160e01b7bffffffffffffffffffffffffffffffffffffffffffffffffffffffff1916817bffffffffffffffffffffffffffffffffffffffffffffffffffffffff191614612f81576040517f08c379a0000000000000000000000000000000000000000000000000000000008152600401612f78906151da565b60405180910390fd5b505b505050505050565b6000808273ffffffffffffffffffffffffffffffffffffffff163b119050919050565b6040518060a0016040528060008152602001600073ffffffffffffffffffffffffffffffffffffffff16815260200160006002811115612ff157612ff061393f565b5b8152602001600081526020016000151581525090565b6000604051905090565b600080fd5b600080fd5b600073ffffffffffffffffffffffffffffffffffffffff82169050919050565b60006130468261301b565b9050919050565b6130568161303b565b811461306157600080fd5b50565b6000813590506130738161304d565b92915050565b6000819050919050565b61308c81613079565b811461309757600080fd5b50565b6000813590506130a981613083565b92915050565b600080604083850312156130c6576130c5613011565b5b60006130d485828601613064565b92505060206130e58582860161309a565b9150509250929050565b6130f881613079565b82525050565b600060208201905061311360008301846130ef565b92915050565b60007fffffffff0000000000000000000000000000000000000000000000000000000082169050919050565b61314e81613119565b811461315957600080fd5b50565b60008135905061316b81613145565b92915050565b60006020828403121561318757613186613011565b5b60006131958482850161315c565b91505092915050565b60008115159050919050565b6131b38161319e565b82525050565b60006020820190506131ce60008301846131aa565b92915050565b6000602082840312156131ea576131e9613011565b5b60006131f88482850161309a565b91505092915050565b600081519050919050565b600082825260208201905092915050565b60005b8381101561323b578082015181840152602081019050613220565b8381111561324a576000848401525b50505050565b6000601f19601f8301169050919050565b600061326c82613201565b613276818561320c565b935061328681856020860161321d565b61328f81613250565b840191505092915050565b600060208201905081810360008301526132b48184613261565b905092915050565b6132c58161303b565b82525050565b60006020820190506132e060008301846132bc565b92915050565b600080604083850312156132fd576132fc613011565b5b600061330b8582860161309a565b925050602061331c8582860161309a565b9150509250929050565b600080fd5b7f4e487b7100000000000000000000000000000000000000000000000000000000600052604160045260246000fd5b61336382613250565b810181811067ffffffffffffffff821117156133825761338161332b565b5b80604052505050565b6000613395613007565b90506133a1828261335a565b919050565b600067ffffffffffffffff8211156133c1576133c061332b565b5b602082029050602081019050919050565b600080fd5b60006133ea6133e5846133a6565b61338b565b9050808382526020820190506020840283018581111561340d5761340c6133d2565b5b835b818110156134365780613422888261309a565b84526020840193505060208101905061340f565b5050509392505050565b600082601f83011261345557613454613326565b5b81356134658482602086016133d7565b91505092915050565b600080fd5b600067ffffffffffffffff82111561348e5761348d61332b565b5b61349782613250565b9050602081019050919050565b82818337600083830152505050565b60006134c66134c184613473565b61338b565b9050828152602081018484840111156134e2576134e161346e565b5b6134ed8482856134a4565b509392505050565b600082601f83011261350a57613509613326565b5b813561351a8482602086016134b3565b91505092915050565b600080600080600060a0868803121561353f5761353e613011565b5b600061354d88828901613064565b955050602061355e88828901613064565b945050604086013567ffffffffffffffff81111561357f5761357e613016565b5b61358b88828901613440565b935050606086013567ffffffffffffffff8111156135ac576135ab613016565b5b6135b888828901613440565b925050608086013567ffffffffffffffff8111156135d9576135d8613016565b5b6135e5888289016134f5565b9150509295509295909350565b600067ffffffffffffffff82111561360d5761360c61332b565b5b602082029050602081019050919050565b600061363161362c846135f2565b61338b565b90508083825260208201905060208402830185811115613654576136536133d2565b5b835b8181101561367d57806136698882613064565b845260208401935050602081019050613656565b5050509392505050565b600082601f83011261369c5761369b613326565b5b81356136ac84826020860161361e565b91505092915050565b600080604083850312156136cc576136cb613011565b5b600083013567ffffffffffffffff8111156136ea576136e9613016565b5b6136f685828601613687565b925050602083013567ffffffffffffffff81111561371757613716613016565b5b61372385828601613440565b9150509250929050565b600081519050919050565b600082825260208201905092915050565b6000819050602082019050919050565b61376281613079565b82525050565b60006137748383613759565b60208301905092915050565b6000602082019050919050565b60006137988261372d565b6137a28185613738565b93506137ad83613749565b8060005b838110156137de5781516137c58882613768565b97506137d083613780565b9250506001810190506137b1565b5085935050505092915050565b60006020820190508181036000830152613805818461378d565b905092915050565b60008060006060848603121561382657613825613011565b5b600061383486828701613064565b935050602084013567ffffffffffffffff81111561385557613854613016565b5b61386186828701613440565b925050604084013567ffffffffffffffff81111561388257613881613016565b5b61388e86828701613440565b9150509250925092565b6138a18161319e565b81146138ac57600080fd5b50565b6000813590506138be81613898565b92915050565b600080604083850312156138db576138da613011565b5b60006138e985828601613064565b92505060206138fa858286016138af565b9150509250929050565b600081519050919050565b600082825260208201905092915050565b6000819050602082019050919050565b6139398161303b565b82525050565b7f4e487b7100000000000000000000000000000000000000000000000000000000600052602160045260246000fd5b6003811061397f5761397e61393f565b5b50565b60008190506139908261396e565b919050565b60006139a082613982565b9050919050565b6139b081613995565b82525050565b6139bf8161319e565b82525050565b60a0820160008201516139db6000850182613759565b5060208201516139ee6020850182613930565b506040820151613a0160408501826139a7565b506060820151613a146060850182613759565b506080820151613a2760808501826139b6565b50505050565b6000613a3983836139c5565b60a08301905092915050565b6000602082019050919050565b6000613a5d82613904565b613a67818561390f565b9350613a7283613920565b8060005b83811015613aa3578151613a8a8882613a2d565b9750613a9583613a45565b925050600181019050613a76565b5085935050505092915050565b60006020820190508181036000830152613aca8184613a52565b905092915050565b60008060408385031215613ae957613ae8613011565b5b6000613af785828601613064565b9250506020613b0885828601613064565b9150509250929050565b600080600080600060a08688031215613b2e57613b2d613011565b5b6000613b3c88828901613064565b9550506020613b4d88828901613064565b9450506040613b5e8882890161309a565b9350506060613b6f8882890161309a565b925050608086013567ffffffffffffffff811115613b9057613b8f613016565b5b613b9c888289016134f5565b9150509295509295909350565b600060208284031215613bbf57613bbe613011565b5b6000613bcd84828501613064565b91505092915050565b600080600060608486031215613bef57613bee613011565b5b6000613bfd86828701613064565b9350506020613c0e8682870161309a565b9250506040613c1f8682870161309a565b9150509250925092565b7f455243313135353a2061646472657373207a65726f206973206e6f742061207660008201527f616c6964206f776e657200000000000000000000000000000000000000000000602082015250565b6000613c85602a8361320c565b9150613c9082613c29565b604082019050919050565b60006020820190508181036000830152613cb481613c78565b9050919050565b600081905092915050565b7f68747470733a2f2f676174657761792e70696e6174612e636c6f75642f69706660008201527f732f516d52614e785a6f7546756e6e446e6473353756476d747274413245424560208201527f464c65737a6158416f38475a665a38652f000000000000000000000000000000604082015250565b6000613d48605183613cbb565b9150613d5382613cc6565b605182019050919050565b6000613d6982613201565b613d738185613cbb565b9350613d8381856020860161321d565b80840191505092915050565b7f2e6a736f6e000000000000000000000000000000000000000000000000000000600082015250565b6000613dc5600583613cbb565b9150613dd082613d8f565b600582019050919050565b6000613de682613d3b565b9150613df28284613d5e565b9150613dfd82613db8565b915081905092915050565b600080fd5b600081519050613e1c81613083565b92915050565b600081519050613e318161304d565b92915050565b60038110613e4457600080fd5b50565b600081519050613e5681613e37565b92915050565b600081519050613e6b81613898565b92915050565b600060a08284031215613e8757613e86613e08565b5b613e9160a061338b565b90506000613ea184828501613e0d565b6000830152506020613eb584828501613e22565b6020830152506040613ec984828501613e47565b6040830152506060613edd84828501613e0d565b6060830152506080613ef184828501613e5c565b60808301525092915050565b600060a08284031215613f1357613f12613011565b5b6000613f2184828501613e71565b91505092915050565b6000604082019050613f3f60008301856132bc565b613f4c60208301846130ef565b9392505050565b600060208284031215613f6957613f68613011565b5b6000613f7784828501613e0d565b91505092915050565b7f596f75206d757374206f776e2074686520746f6b656e20746f206c697374206960008201527f742e000000000000000000000000000000000000000000000000000000000000602082015250565b6000613fdc60228361320c565b9150613fe782613f80565b604082019050919050565b6000602082019050818103600083015261400b81613fcf565b9050919050565b7f4f6e6c792074686520696e697469616c206f776e65722063616e206c6973742060008201527f746865206372656469747320666f722073616c652e0000000000000000000000602082015250565b600061406e60358361320c565b915061407982614012565b604082019050919050565b6000602082019050818103600083015261409d81614061565b9050919050565b7f43726564697473206d75737420626520617070726f766564206265666f72652060008201527f6c697374696e672e000000000000000000000000000000000000000000000000602082015250565b600061410060288361320c565b915061410b826140a4565b604082019050919050565b6000602082019050818103600083015261412f816140f3565b9050919050565b7f416c7265616479206c69737465642e0000000000000000000000000000000000600082015250565b600061416c600f8361320c565b915061417782614136565b602082019050919050565b6000602082019050818103600083015261419b8161415f565b9050919050565b7f5072696365206d7573742062652067726561746572207468616e207a65726f2e600082015250565b60006141d860208361320c565b91506141e3826141a2565b602082019050919050565b60006020820190508181036000830152614207816141cb565b9050919050565b600060408201905061422360008301856132bc565b61423060208301846132bc565b9392505050565b60006020828403121561424d5761424c613011565b5b600061425b84828501613e5c565b91505092915050565b7f4d61726b6574706c616365206e6f7420617574686f72697a656420746f206d6160008201527f6e616765207468697320746f6b656e2e00000000000000000000000000000000602082015250565b60006142c060308361320c565b91506142cb82614264565b604082019050919050565b600060208201905081810360008301526142ef816142b3565b9050919050565b600060408201905061430b60008301856130ef565b61431860208301846131aa565b9392505050565b600060408201905061433460008301856130ef565b61434160208301846130ef565b9392505050565b7f4e487b7100000000000000000000000000000000000000000000000000000000600052601160045260246000fd5b600061438282613079565b915061438d83613079565b9250827fffffffffffffffffffffffffffffffffffffffffffffffffffffffffffffffff038211156143c2576143c1614348565b5b828201905092915050565b6143d681613995565b82525050565b600060a0820190506143f160008301886130ef565b6143fe60208301876132bc565b61440b60408301866143cd565b61441860608301856130ef565b61442560808301846131aa565b9695505050505050565b7f455243313135353a2063616c6c6572206973206e6f7420746f6b656e206f776e60008201527f6572206f7220617070726f766564000000000000000000000000000000000000602082015250565b600061448b602e8361320c565b91506144968261442f565b604082019050919050565b600060208201905081810360008301526144ba8161447e565b9050919050565b7f416d6f756e74206d7573742062652067726561746572207468616e207a65726f60008201527f2e00000000000000000000000000000000000000000000000000000000000000602082015250565b600061451d60218361320c565b9150614528826144c1565b604082019050919050565b6000602082019050818103600083015261454c81614510565b9050919050565b7f496e73756666696369656e7420746f6b656e2062616c616e636520746f20726560008201527f746972652e000000000000000000000000000000000000000000000000000000602082015250565b60006145af60258361320c565b91506145ba82614553565b604082019050919050565b600060208201905081810360008301526145de816145a2565b9050919050565b60006060820190506145fa60008301866132bc565b61460760208301856130ef565b61461460408301846130ef565b949350505050565b7f546f6b656e206d757374206265206c697374656420666f722073616c6520626560008201527f666f72652069742063616e206265207075726368617365642e00000000000000602082015250565b600061467860398361320c565b91506146838261461c565b604082019050919050565b600060208201905081810360008301526146a78161466b565b9050919050565b7f496e73756666696369656e742062616c616e636520746f20707572636861736560008201527f2e00000000000000000000000000000000000000000000000000000000000000602082015250565b600061470a60218361320c565b9150614715826146ae565b604082019050919050565b60006020820190508181036000830152614739816146fd565b9050919050565b600061474b82613079565b915061475683613079565b9250817fffffffffffffffffffffffffffffffffffffffffffffffffffffffffffffffff048311821515161561478f5761478e614348565b5b828202905092915050565b7f496e73756666696369656e742066756e647320746f2070757263686173652e00600082015250565b60006147d0601f8361320c565b91506147db8261479a565b602082019050919050565b600060208201905081810360008301526147ff816147c3565b9050919050565b7f4d61726b6574706c616365206e6f7420617574686f72697a656420627920746f60008201527f6b656e206f776e65722e00000000000000000000000000000000000000000000602082015250565b6000614862602a8361320c565b915061486d82614806565b604082019050919050565b6000602082019050818103600083015261489181614855565b9050919050565b600082825260208201905092915050565b50565b60006148b9600083614898565b91506148c4826148a9565b600082019050919050565b600060a0820190506148e460008301876132bc565b6148f160208301866132bc565b6148fe60408301856130ef565b61490b60608301846130ef565b818103608083015261491c816148ac565b905095945050505050565b600061493282613079565b91506000820361494557614944614348565b5b600182039050919050565b7f455243313135353a206163636f756e747320616e6420696473206c656e67746860008201527f206d69736d617463680000000000000000000000000000000000000000000000602082015250565b60006149ac60298361320c565b91506149b782614950565b604082019050919050565b600060208201905081810360008301526149db8161499f565b9050919050565b7f4e487b7100000000000000000000000000000000000000000000000000000000600052603260045260246000fd5b6000614a1c82613079565b91507fffffffffffffffffffffffffffffffffffffffffffffffffffffffffffffffff8203614a4e57614a4d614348565b5b600182019050919050565b7f4f776e61626c653a206e6577206f776e657220697320746865207a65726f206160008201527f6464726573730000000000000000000000000000000000000000000000000000602082015250565b6000614ab560268361320c565b9150614ac082614a59565b604082019050919050565b60006020820190508181036000830152614ae481614aa8565b9050919050565b7f4e487b7100000000000000000000000000000000000000000000000000000000600052601260045260246000fd5b7f455243313135353a2069647320616e6420616d6f756e7473206c656e6774682060008201527f6d69736d61746368000000000000000000000000000000000000000000000000602082015250565b6000614b7660288361320c565b9150614b8182614b1a565b604082019050919050565b60006020820190508181036000830152614ba581614b69565b9050919050565b7f455243313135353a207472616e7366657220746f20746865207a65726f20616460008201527f6472657373000000000000000000000000000000000000000000000000000000602082015250565b6000614c0860258361320c565b9150614c1382614bac565b604082019050919050565b60006020820190508181036000830152614c3781614bfb565b9050919050565b7f455243313135353a20696e73756666696369656e742062616c616e636520666f60008201527f72207472616e7366657200000000000000000000000000000000000000000000602082015250565b6000614c9a602a8361320c565b9150614ca582614c3e565b604082019050919050565b60006020820190508181036000830152614cc981614c8d565b9050919050565b60006040820190508181036000830152614cea818561378d565b90508181036020830152614cfe818461378d565b90509392505050565b7f455243313135353a206275726e2066726f6d20746865207a65726f206164647260008201527f6573730000000000000000000000000000000000000000000000000000000000602082015250565b6000614d6360238361320c565b9150614d6e82614d07565b604082019050919050565b60006020820190508181036000830152614d9281614d56565b9050919050565b7f455243313135353a206275726e20616d6f756e7420657863656564732062616c60008201527f616e636500000000000000000000000000000000000000000000000000000000602082015250565b6000614df560248361320c565b9150614e0082614d99565b604082019050919050565b60006020820190508181036000830152614e2481614de8565b9050919050565b7f4f776e61626c653a2063616c6c6572206973206e6f7420746865206f776e6572600082015250565b6000614e6160208361320c565b9150614e6c82614e2b565b602082019050919050565b60006020820190508181036000830152614e9081614e54565b9050919050565b7f455243313135353a2073657474696e6720617070726f76616c2073746174757360008201527f20666f722073656c660000000000000000000000000000000000000000000000602082015250565b6000614ef360298361320c565b9150614efe82614e97565b604082019050919050565b60006020820190508181036000830152614f2281614ee6565b9050919050565b600081519050919050565b6000614f3f82614f29565b614f498185614898565b9350614f5981856020860161321d565b614f6281613250565b840191505092915050565b600060a082019050614f8260008301886132bc565b614f8f60208301876132bc565b8181036040830152614fa1818661378d565b90508181036060830152614fb5818561378d565b90508181036080830152614fc98184614f34565b90509695505050505050565b600081519050614fe481613145565b92915050565b60006020828403121561500057614fff613011565b5b600061500e84828501614fd5565b91505092915050565b60008160e01c9050919050565b600060033d11156150435760046000803e615040600051615017565b90505b90565b600060443d106150d357615058613007565b60043d036004823e80513d602482011167ffffffffffffffff821117156150805750506150d3565b808201805167ffffffffffffffff81111561509e57505050506150d3565b80602083010160043d0385018111156150bb5750505050506150d3565b6150ca8260200185018661335a565b82955050505050505b90565b7f455243313135353a207472616e7366657220746f206e6f6e2d4552433131353560008201527f526563656976657220696d706c656d656e746572000000000000000000000000602082015250565b600061513260348361320c565b915061513d826150d6565b604082019050919050565b6000602082019050818103600083015261516181615125565b9050919050565b7f455243313135353a204552433131353552656365697665722072656a6563746560008201527f6420746f6b656e73000000000000000000000000000000000000000000000000602082015250565b60006151c460288361320c565b91506151cf82615168565b604082019050919050565b600060208201905081810360008301526151f3816151b7565b9050919050565b600060a08201905061520f60008301886132bc565b61521c60208301876132bc565b61522960408301866130ef565b61523660608301856130ef565b81810360808301526152488184614f34565b9050969550505050505056fea2646970667358221220db063f8d953c19c79d0a2f3fc8eef7d0e0325da29b6a9c41270c8273a4c1ed7a64736f6c634300080d003368747470733a2f2f676174657761792e70696e6174612e636c6f75642f697066732f7b69647d2e6a736f6e",
  "immutableReferences": {},
  "source": "// SPDX-License-Identifier: MIT\npragma solidity ^0.8.13;\n\nimport \"./ProjectManagement.sol\";\nimport \"./CarbonToken.sol\";\nimport \"./CarbonBase.sol\";\n\ncontract CarbonMarket is CarbonBase {\n    CarbonToken private _token;\n    uint256 private _listedTokens; // number of listed credits\n\n    constructor(address _tokenAddress) {\n        _token = CarbonToken(_tokenAddress);\n    }\n\n    function getListedTokensCount() public view returns (uint256) {\n        // returns the total number of listed credits\n        return _listedTokens;\n    }\n\n    function listCreditsForSale(uint256 tokenId, uint256 price) public {\n        CarbonCredit memory credit = _token.getCarbonCredit(tokenId);\n\n        require(\n            _token.balanceOf(msg.sender, tokenId) > 0,\n            \"You must own the token to list it.\"\n        );\n        require(\n            msg.sender == credit.initialOwner,\n            \"Only the initial owner can list the credits for sale.\"\n        );\n        require(\n            credit.status == ApprovalStatus.Approved,\n            \"Credits must be approved before listing.\"\n        );\n        require(!credit.isListed, \"Already listed.\");\n        require(price > 0, \"Price must be greater than zero.\");\n        require(\n            _token.isApprovedForAll(msg.sender, address(this)),\n            \"Marketplace not authorized to manage this token.\"\n        );\n\n        _token.updateListed(tokenId, true);\n        _token.updatePrice(tokenId, price);\n        _listedTokens += 1;\n\n        emit CarbonCreditListed(\n            tokenId,\n            credit.initialOwner,\n            ApprovalStatus.Approved,\n            price,\n            true\n        );\n    }\n\n    function getAllListedCredits() public view returns (CarbonCredit[] memory) {\n        // [{}, {}, ...]\n        uint allCreditsCount = _token.getTotalTokensCount();\n        uint currentIndex = 0;\n        CarbonCredit[] memory credits = new CarbonCredit[](_listedTokens);\n\n        for (uint i = 0; i < allCreditsCount; i++) {\n            uint tokenId = _token.getTokenByIndex(i);\n            CarbonCredit memory credit = _token.getCarbonCredit(tokenId);\n            if (credit.isListed == true) {\n                credits[currentIndex] = credit;\n                currentIndex += 1;\n            }\n        }\n        return credits;\n    }\n\n    function buyCredits(uint256 tokenId, uint256 amount) public payable {\n        CarbonCredit memory credit = _token.getCarbonCredit(tokenId);\n\n        require(\n            credit.isListed,\n            \"Token must be listed for sale before it can be purchased.\"\n        );\n        require(\n            _token.balanceOf(credit.initialOwner, tokenId) >= amount,\n            \"Insufficient balance to purchase.\"\n        );\n        require(\n            msg.value >= credit.pricePerCredit * amount,\n            \"Insufficient funds to purchase.\"\n        );\n        require(\n            _token.isApprovedForAll(credit.initialOwner, address(this)),\n            \"Marketplace not authorized by token owner.\"\n        );\n\n        _token.safeTransferFrom(\n            credit.initialOwner,\n            msg.sender,\n            tokenId,\n            amount,\n            \"\"\n        );\n        payable(credit.initialOwner).transfer(msg.value);\n\n        _token.updateTokenSold(tokenId, amount);\n\n        // Additional custom logic post-transfer\n        // If all tokens of this ID are transferred, update the CarbonCredit struct\n        if (_token.balanceOf(credit.initialOwner, tokenId) == 0) {\n            _token.updateListed(tokenId, false);\n            _listedTokens--;\n        }\n\n        emit TokenTransferred(tokenId, credit.initialOwner, msg.sender, amount);\n    }\n\n    function retireCredits(uint256 tokenId, uint256 amount) public {\n        require(amount > 0, \"Amount must be greater than zero.\");\n        require(\n            _token.balanceOf(msg.sender, tokenId) >= amount,\n            \"Insufficient token balance to retire.\"\n        );\n        // require(msg.sender != address(0), \"Invalid address.\");\n        // require(\n        //     _idToTokenSupply[tokenId] >= amount,\n        //     \"Burn amount exceeds supply\"\n        // );\n\n        _token.burn(msg.sender, tokenId, amount);\n    }\n\n    function getTokenAddress() public view returns (address) {\n        return address(_token);\n    }\n}\n",
  "sourcePath": "/Users/buudinhha/Vscode/DATN/main/contracts/CarbonMarket.sol",
  "compiler": {
    "name": "solc",
    "version": "0.8.13+commit.abaa5c0e.Emscripten.clang"
  },
  "schemaVersion": "3.4.16",
  "updatedAt": "2024-04-27T09:57:15.944Z",
  "networkType": "ethereum",
  "devdoc": {
    "kind": "dev",
    "methods": {
      "balanceOf(address,uint256)": {
        "details": "See {IERC1155-balanceOf}. Requirements: - `account` cannot be the zero address."
      },
      "balanceOfBatch(address[],uint256[])": {
        "details": "See {IERC1155-balanceOfBatch}. Requirements: - `accounts` and `ids` must have the same length."
      },
      "isApprovedForAll(address,address)": {
        "details": "See {IERC1155-isApprovedForAll}."
      },
      "owner()": {
        "details": "Returns the address of the current owner."
      },
      "renounceOwnership()": {
        "details": "Leaves the contract without owner. It will not be possible to call `onlyOwner` functions. Can only be called by the current owner. NOTE: Renouncing ownership will leave the contract without an owner, thereby disabling any functionality that is only available to the owner."
      },
      "safeBatchTransferFrom(address,address,uint256[],uint256[],bytes)": {
        "details": "See {IERC1155-safeBatchTransferFrom}."
      },
      "safeTransferFrom(address,address,uint256,uint256,bytes)": {
        "details": "See {IERC1155-safeTransferFrom}."
      },
      "setApprovalForAll(address,bool)": {
        "details": "See {IERC1155-setApprovalForAll}."
      },
      "supportsInterface(bytes4)": {
        "details": "See {IERC165-supportsInterface}."
      },
      "transferOwnership(address)": {
        "details": "Transfers ownership of the contract to a new account (`newOwner`). Can only be called by the current owner."
      }
    },
    "version": 1
  },
  "userdoc": {
    "kind": "user",
    "methods": {},
    "version": 1
  }
}