{
  "contractName": "CarbonMarket",
  "abi": [
    {
      "inputs": [
        {
          "internalType": "address",
          "name": "_tokenAddress",
          "type": "address"
        }
      ],
      "stateMutability": "nonpayable",
      "type": "constructor"
    },
    {
      "anonymous": false,
      "inputs": [
        {
          "indexed": true,
          "internalType": "address",
          "name": "account",
          "type": "address"
        },
        {
          "indexed": true,
          "internalType": "address",
          "name": "operator",
          "type": "address"
        },
        {
          "indexed": false,
          "internalType": "bool",
          "name": "approved",
          "type": "bool"
        }
      ],
      "name": "ApprovalForAll",
      "type": "event"
    },
    {
      "anonymous": false,
      "inputs": [
        {
          "indexed": false,
          "internalType": "uint256",
          "name": "tokenId",
          "type": "uint256"
        },
        {
          "indexed": false,
          "internalType": "address",
          "name": "auditor",
          "type": "address"
        },
        {
          "indexed": false,
          "internalType": "address",
          "name": "projectOwner",
          "type": "address"
        },
        {
          "indexed": false,
          "internalType": "enum CarbonBase.ApprovalStatus",
          "name": "status",
          "type": "uint8"
        },
        {
          "indexed": false,
          "internalType": "uint256",
          "name": "time",
          "type": "uint256"
        }
      ],
      "name": "CarbonCreditAudited",
      "type": "event"
    },
    {
      "anonymous": false,
      "inputs": [
        {
          "indexed": false,
          "internalType": "uint256",
          "name": "tokenId",
          "type": "uint256"
        },
        {
          "indexed": false,
          "internalType": "address",
          "name": "initialOwner",
          "type": "address"
        },
        {
          "indexed": false,
          "internalType": "uint256",
          "name": "amount",
          "type": "uint256"
        },
        {
          "indexed": false,
          "internalType": "uint256",
          "name": "creationTime",
          "type": "uint256"
        }
      ],
      "name": "CarbonCreditCreated",
      "type": "event"
    },
    {
      "anonymous": false,
      "inputs": [
        {
          "indexed": false,
          "internalType": "uint256",
          "name": "tokenId",
          "type": "uint256"
        },
        {
          "indexed": false,
          "internalType": "address",
          "name": "initialOwner",
          "type": "address"
        },
        {
          "indexed": false,
          "internalType": "uint256",
          "name": "amount",
          "type": "uint256"
        },
        {
          "indexed": false,
          "internalType": "uint256",
          "name": "pricePerCredit",
          "type": "uint256"
        },
        {
          "indexed": false,
          "internalType": "uint256",
          "name": "time",
          "type": "uint256"
        }
      ],
      "name": "CarbonCreditListed",
      "type": "event"
    },
    {
      "anonymous": false,
      "inputs": [
        {
          "indexed": false,
          "internalType": "uint256",
          "name": "tokenId",
          "type": "uint256"
        },
        {
          "indexed": false,
          "internalType": "address",
          "name": "from",
          "type": "address"
        },
        {
          "indexed": false,
          "internalType": "address",
          "name": "to",
          "type": "address"
        },
        {
          "indexed": false,
          "internalType": "uint256",
          "name": "amount",
          "type": "uint256"
        },
        {
          "indexed": false,
          "internalType": "uint256",
          "name": "time",
          "type": "uint256"
        }
      ],
      "name": "CarbonCreditPurchased",
      "type": "event"
    },
    {
      "anonymous": false,
      "inputs": [
        {
          "indexed": false,
          "internalType": "uint256",
          "name": "tokenId",
          "type": "uint256"
        },
        {
          "indexed": false,
          "internalType": "address",
          "name": "owner",
          "type": "address"
        },
        {
          "indexed": false,
          "internalType": "uint256",
          "name": "amount",
          "type": "uint256"
        },
        {
          "indexed": false,
          "internalType": "uint256",
          "name": "time",
          "type": "uint256"
        }
      ],
      "name": "CarbonCreditRetired",
      "type": "event"
    },
    {
      "anonymous": false,
      "inputs": [
        {
          "indexed": true,
          "internalType": "address",
          "name": "previousOwner",
          "type": "address"
        },
        {
          "indexed": true,
          "internalType": "address",
          "name": "newOwner",
          "type": "address"
        }
      ],
      "name": "OwnershipTransferred",
      "type": "event"
    },
    {
      "anonymous": false,
      "inputs": [
        {
          "indexed": true,
          "internalType": "address",
          "name": "operator",
          "type": "address"
        },
        {
          "indexed": true,
          "internalType": "address",
          "name": "from",
          "type": "address"
        },
        {
          "indexed": true,
          "internalType": "address",
          "name": "to",
          "type": "address"
        },
        {
          "indexed": false,
          "internalType": "uint256[]",
          "name": "ids",
          "type": "uint256[]"
        },
        {
          "indexed": false,
          "internalType": "uint256[]",
          "name": "values",
          "type": "uint256[]"
        }
      ],
      "name": "TransferBatch",
      "type": "event"
    },
    {
      "anonymous": false,
      "inputs": [
        {
          "indexed": true,
          "internalType": "address",
          "name": "operator",
          "type": "address"
        },
        {
          "indexed": true,
          "internalType": "address",
          "name": "from",
          "type": "address"
        },
        {
          "indexed": true,
          "internalType": "address",
          "name": "to",
          "type": "address"
        },
        {
          "indexed": false,
          "internalType": "uint256",
          "name": "id",
          "type": "uint256"
        },
        {
          "indexed": false,
          "internalType": "uint256",
          "name": "value",
          "type": "uint256"
        }
      ],
      "name": "TransferSingle",
      "type": "event"
    },
    {
      "anonymous": false,
      "inputs": [
        {
          "indexed": false,
          "internalType": "string",
          "name": "value",
          "type": "string"
        },
        {
          "indexed": true,
          "internalType": "uint256",
          "name": "id",
          "type": "uint256"
        }
      ],
      "name": "URI",
      "type": "event"
    },
    {
      "inputs": [
        {
          "internalType": "address",
          "name": "account",
          "type": "address"
        },
        {
          "internalType": "uint256",
          "name": "id",
          "type": "uint256"
        }
      ],
      "name": "balanceOf",
      "outputs": [
        {
          "internalType": "uint256",
          "name": "",
          "type": "uint256"
        }
      ],
      "stateMutability": "view",
      "type": "function",
      "constant": true
    },
    {
      "inputs": [
        {
          "internalType": "address[]",
          "name": "accounts",
          "type": "address[]"
        },
        {
          "internalType": "uint256[]",
          "name": "ids",
          "type": "uint256[]"
        }
      ],
      "name": "balanceOfBatch",
      "outputs": [
        {
          "internalType": "uint256[]",
          "name": "",
          "type": "uint256[]"
        }
      ],
      "stateMutability": "view",
      "type": "function",
      "constant": true
    },
    {
      "inputs": [
        {
          "internalType": "address",
          "name": "account",
          "type": "address"
        },
        {
          "internalType": "uint256",
          "name": "id",
          "type": "uint256"
        },
        {
          "internalType": "uint256",
          "name": "value",
          "type": "uint256"
        }
      ],
      "name": "burn",
      "outputs": [],
      "stateMutability": "nonpayable",
      "type": "function"
    },
    {
      "inputs": [
        {
          "internalType": "address",
          "name": "account",
          "type": "address"
        },
        {
          "internalType": "uint256[]",
          "name": "ids",
          "type": "uint256[]"
        },
        {
          "internalType": "uint256[]",
          "name": "values",
          "type": "uint256[]"
        }
      ],
      "name": "burnBatch",
      "outputs": [],
      "stateMutability": "nonpayable",
      "type": "function"
    },
    {
      "inputs": [
        {
          "internalType": "address",
          "name": "account",
          "type": "address"
        },
        {
          "internalType": "address",
          "name": "operator",
          "type": "address"
        }
      ],
      "name": "isApprovedForAll",
      "outputs": [
        {
          "internalType": "bool",
          "name": "",
          "type": "bool"
        }
      ],
      "stateMutability": "view",
      "type": "function",
      "constant": true
    },
    {
      "inputs": [],
      "name": "owner",
      "outputs": [
        {
          "internalType": "address",
          "name": "",
          "type": "address"
        }
      ],
      "stateMutability": "view",
      "type": "function",
      "constant": true
    },
    {
      "inputs": [],
      "name": "renounceOwnership",
      "outputs": [],
      "stateMutability": "nonpayable",
      "type": "function"
    },
    {
      "inputs": [
        {
          "internalType": "address",
          "name": "from",
          "type": "address"
        },
        {
          "internalType": "address",
          "name": "to",
          "type": "address"
        },
        {
          "internalType": "uint256[]",
          "name": "ids",
          "type": "uint256[]"
        },
        {
          "internalType": "uint256[]",
          "name": "amounts",
          "type": "uint256[]"
        },
        {
          "internalType": "bytes",
          "name": "data",
          "type": "bytes"
        }
      ],
      "name": "safeBatchTransferFrom",
      "outputs": [],
      "stateMutability": "nonpayable",
      "type": "function"
    },
    {
      "inputs": [
        {
          "internalType": "address",
          "name": "from",
          "type": "address"
        },
        {
          "internalType": "address",
          "name": "to",
          "type": "address"
        },
        {
          "internalType": "uint256",
          "name": "id",
          "type": "uint256"
        },
        {
          "internalType": "uint256",
          "name": "amount",
          "type": "uint256"
        },
        {
          "internalType": "bytes",
          "name": "data",
          "type": "bytes"
        }
      ],
      "name": "safeTransferFrom",
      "outputs": [],
      "stateMutability": "nonpayable",
      "type": "function"
    },
    {
      "inputs": [
        {
          "internalType": "address",
          "name": "operator",
          "type": "address"
        },
        {
          "internalType": "bool",
          "name": "approved",
          "type": "bool"
        }
      ],
      "name": "setApprovalForAll",
      "outputs": [],
      "stateMutability": "nonpayable",
      "type": "function"
    },
    {
      "inputs": [
        {
          "internalType": "bytes4",
          "name": "interfaceId",
          "type": "bytes4"
        }
      ],
      "name": "supportsInterface",
      "outputs": [
        {
          "internalType": "bool",
          "name": "",
          "type": "bool"
        }
      ],
      "stateMutability": "view",
      "type": "function",
      "constant": true
    },
    {
      "inputs": [
        {
          "internalType": "address",
          "name": "newOwner",
          "type": "address"
        }
      ],
      "name": "transferOwnership",
      "outputs": [],
      "stateMutability": "nonpayable",
      "type": "function"
    },
    {
      "inputs": [
        {
          "internalType": "uint256",
          "name": "tokenId",
          "type": "uint256"
        }
      ],
      "name": "uri",
      "outputs": [
        {
          "internalType": "string",
          "name": "",
          "type": "string"
        }
      ],
      "stateMutability": "view",
      "type": "function",
      "constant": true
    },
    {
      "inputs": [],
      "name": "getListedTokensCount",
      "outputs": [
        {
          "internalType": "uint256",
          "name": "",
          "type": "uint256"
        }
      ],
      "stateMutability": "view",
      "type": "function",
      "constant": true
    },
    {
      "inputs": [
        {
          "internalType": "uint256",
          "name": "tokenId",
          "type": "uint256"
        },
        {
          "internalType": "uint256",
          "name": "price",
          "type": "uint256"
        }
      ],
      "name": "listCreditsForSale",
      "outputs": [],
      "stateMutability": "nonpayable",
      "type": "function"
    },
    {
      "inputs": [],
      "name": "getAllListedCredits",
      "outputs": [
        {
          "components": [
            {
              "internalType": "uint256",
              "name": "tokenId",
              "type": "uint256"
            },
            {
              "internalType": "address",
              "name": "initialOwner",
              "type": "address"
            },
            {
              "internalType": "enum CarbonBase.ApprovalStatus",
              "name": "status",
              "type": "uint8"
            },
            {
              "internalType": "uint256",
              "name": "pricePerCredit",
              "type": "uint256"
            },
            {
              "internalType": "bool",
              "name": "isListed",
              "type": "bool"
            }
          ],
          "internalType": "struct CarbonBase.CarbonCredit[]",
          "name": "",
          "type": "tuple[]"
        }
      ],
      "stateMutability": "view",
      "type": "function",
      "constant": true
    },
    {
      "inputs": [
        {
          "internalType": "uint256",
          "name": "tokenId",
          "type": "uint256"
        },
        {
          "internalType": "uint256",
          "name": "amount",
          "type": "uint256"
        }
      ],
      "name": "buyCredits",
      "outputs": [],
      "stateMutability": "payable",
      "type": "function",
      "payable": true
    },
    {
      "inputs": [
        {
          "internalType": "uint256",
          "name": "tokenId",
          "type": "uint256"
        },
        {
          "internalType": "uint256",
          "name": "amount",
          "type": "uint256"
        }
      ],
      "name": "retireCredits",
      "outputs": [],
      "stateMutability": "nonpayable",
      "type": "function"
    },
    {
      "inputs": [],
      "name": "getTokenAddress",
      "outputs": [
        {
          "internalType": "address",
          "name": "",
          "type": "address"
        }
      ],
      "stateMutability": "view",
      "type": "function",
      "constant": true
    }
  ],
  "bytecode": "0x608060405260405180602001604052806000815250600390805190602001906200002b929190620001d3565b503480156200003957600080fd5b50604051620057433803806200574383398181016040528101906200005f9190620002ed565b604051806020016040528060008152506200008081620000e960201b60201c565b50620000a1620000956200010560201b60201c565b6200010d60201b60201c565b80600660006101000a81548173ffffffffffffffffffffffffffffffffffffffff021916908373ffffffffffffffffffffffffffffffffffffffff1602179055505062000383565b806002908051906020019062000101929190620001d3565b5050565b600033905090565b6000600560009054906101000a900473ffffffffffffffffffffffffffffffffffffffff16905081600560006101000a81548173ffffffffffffffffffffffffffffffffffffffff021916908373ffffffffffffffffffffffffffffffffffffffff1602179055508173ffffffffffffffffffffffffffffffffffffffff168173ffffffffffffffffffffffffffffffffffffffff167f8be0079c531659141344cd1fd0a4f28419497f9722a3daafe3b4186f6b6457e060405160405180910390a35050565b828054620001e1906200034e565b90600052602060002090601f01602090048101928262000205576000855562000251565b82601f106200022057805160ff191683800117855562000251565b8280016001018555821562000251579182015b828111156200025057825182559160200191906001019062000233565b5b50905062000260919062000264565b5090565b5b808211156200027f57600081600090555060010162000265565b5090565b600080fd5b600073ffffffffffffffffffffffffffffffffffffffff82169050919050565b6000620002b58262000288565b9050919050565b620002c781620002a8565b8114620002d357600080fd5b50565b600081519050620002e781620002bc565b92915050565b60006020828403121562000306576200030562000283565b5b60006200031684828501620002d6565b91505092915050565b7f4e487b7100000000000000000000000000000000000000000000000000000000600052602260045260246000fd5b600060028204905060018216806200036757607f821691505b6020821081036200037d576200037c6200031f565b5b50919050565b6153b080620003936000396000f3fe6080604052600436106101135760003560e01c80634e1273f4116100a0578063e7c2829f11610064578063e7c2829f1461038d578063e985e9c5146103b8578063f242432a146103f5578063f2fde38b1461041e578063f5298aca1461044757610113565b80634e1273f4146102bc5780636b20c454146102f9578063715018a6146103225780638da5cb5b14610339578063a22cb4651461036457610113565b806319adf6ad116100e757806319adf6ad146101fa5780632eb2c2d6146102235780633ea0fb131461024c578063479c8457146102755780634c9742211461029157610113565b8062fdd58e1461011857806301ffc9a7146101555780630e89341c1461019257806310fe9ae8146101cf575b600080fd5b34801561012457600080fd5b5061013f600480360381019061013a9190613174565b610470565b60405161014c91906131c3565b60405180910390f35b34801561016157600080fd5b5061017c60048036038101906101779190613236565b610538565b604051610189919061327e565b60405180910390f35b34801561019e57600080fd5b506101b960048036038101906101b49190613299565b61061a565b6040516101c6919061335f565b60405180910390f35b3480156101db57600080fd5b506101e461062c565b6040516101f19190613390565b60405180910390f35b34801561020657600080fd5b50610221600480360381019061021c91906133ab565b610656565b005b34801561022f57600080fd5b5061024a600480360381019061024591906135e8565b610c33565b005b34801561025857600080fd5b50610273600480360381019061026e91906133ab565b610cd4565b005b61028f600480360381019061028a91906133ab565b610fa5565b005b34801561029d57600080fd5b506102a66115a9565b6040516102b391906131c3565b60405180910390f35b3480156102c857600080fd5b506102e360048036038101906102de919061377a565b6115b3565b6040516102f091906138b0565b60405180910390f35b34801561030557600080fd5b50610320600480360381019061031b91906138d2565b6116cc565b005b34801561032e57600080fd5b50610337611769565b005b34801561034557600080fd5b5061034e61177d565b60405161035b9190613390565b60405180910390f35b34801561037057600080fd5b5061038b60048036038101906103869190613989565b6117a7565b005b34801561039957600080fd5b506103a26117bd565b6040516103af9190613b75565b60405180910390f35b3480156103c457600080fd5b506103df60048036038101906103da9190613b97565b611a58565b6040516103ec919061327e565b60405180910390f35b34801561040157600080fd5b5061041c60048036038101906104179190613bd7565b611aec565b005b34801561042a57600080fd5b5061044560048036038101906104409190613c6e565b611b8d565b005b34801561045357600080fd5b5061046e60048036038101906104699190613c9b565b611c10565b005b60008073ffffffffffffffffffffffffffffffffffffffff168373ffffffffffffffffffffffffffffffffffffffff16036104e0576040517f08c379a00000000000000000000000000000000000000000000000000000000081526004016104d790613d60565b60405180910390fd5b60008083815260200190815260200160002060008473ffffffffffffffffffffffffffffffffffffffff1673ffffffffffffffffffffffffffffffffffffffff16815260200190815260200160002054905092915050565b60007fd9b67a26000000000000000000000000000000000000000000000000000000007bffffffffffffffffffffffffffffffffffffffffffffffffffffffff1916827bffffffffffffffffffffffffffffffffffffffffffffffffffffffff1916148061060357507f0e89341c000000000000000000000000000000000000000000000000000000007bffffffffffffffffffffffffffffffffffffffffffffffffffffffff1916827bffffffffffffffffffffffffffffffffffffffffffffffffffffffff1916145b80610613575061061282611cad565b5b9050919050565b606061062582611d17565b9050919050565b6000600660009054906101000a900473ffffffffffffffffffffffffffffffffffffffff16905090565b6000600660009054906101000a900473ffffffffffffffffffffffffffffffffffffffff1673ffffffffffffffffffffffffffffffffffffffff1663f392243b846040518263ffffffff1660e01b81526004016106b391906131c3565b60a060405180830381865afa1580156106d0573d6000803e3d6000fd5b505050506040513d601f19601f820116820180604052508101906106f49190613e75565b90506000600660009054906101000a900473ffffffffffffffffffffffffffffffffffffffff1673ffffffffffffffffffffffffffffffffffffffff1662fdd58e33866040518363ffffffff1660e01b8152600401610754929190613ea2565b602060405180830381865afa158015610771573d6000803e3d6000fd5b505050506040513d601f19601f820116820180604052508101906107959190613ecb565b116107d5576040517f08c379a00000000000000000000000000000000000000000000000000000000081526004016107cc90613f6a565b60405180910390fd5b806020015173ffffffffffffffffffffffffffffffffffffffff163373ffffffffffffffffffffffffffffffffffffffff1614610847576040517f08c379a000000000000000000000000000000000000000000000000000000000815260040161083e90613ffc565b60405180910390fd5b6001600281111561085b5761085a613a04565b5b8160400151600281111561087257610871613a04565b5b146108b2576040517f08c379a00000000000000000000000000000000000000000000000000000000081526004016108a99061408e565b60405180910390fd5b8060800151156108f7576040517f08c379a00000000000000000000000000000000000000000000000000000000081526004016108ee906140fa565b60405180910390fd5b6000821161093a576040517f08c379a000000000000000000000000000000000000000000000000000000000815260040161093190614166565b60405180910390fd5b600660009054906101000a900473ffffffffffffffffffffffffffffffffffffffff1673ffffffffffffffffffffffffffffffffffffffff1663e985e9c533306040518363ffffffff1660e01b8152600401610997929190614186565b602060405180830381865afa1580156109b4573d6000803e3d6000fd5b505050506040513d601f19601f820116820180604052508101906109d891906141af565b610a17576040517f08c379a0000000000000000000000000000000000000000000000000000000008152600401610a0e9061424e565b60405180910390fd5b600660009054906101000a900473ffffffffffffffffffffffffffffffffffffffff1673ffffffffffffffffffffffffffffffffffffffff16639c0ab5ec8460016040518363ffffffff1660e01b8152600401610a7592919061426e565b600060405180830381600087803b158015610a8f57600080fd5b505af1158015610aa3573d6000803e3d6000fd5b50505050600660009054906101000a900473ffffffffffffffffffffffffffffffffffffffff1673ffffffffffffffffffffffffffffffffffffffff166382367b2d84846040518363ffffffff1660e01b8152600401610b04929190614297565b600060405180830381600087803b158015610b1e57600080fd5b505af1158015610b32573d6000803e3d6000fd5b50505050600160076000828254610b4991906142ef565b925050819055507fb7a455907b74aaf4828ce5121f0db638eb92c3ee60333d4c2f6e86e48285b469838260200151600660009054906101000a900473ffffffffffffffffffffffffffffffffffffffff1673ffffffffffffffffffffffffffffffffffffffff166319b88edb876040518263ffffffff1660e01b8152600401610bd291906131c3565b602060405180830381865afa158015610bef573d6000803e3d6000fd5b505050506040513d601f19601f82011682018060405250810190610c139190613ecb565b8542604051610c26959493929190614345565b60405180910390a1505050565b610c3b611dfc565b73ffffffffffffffffffffffffffffffffffffffff168573ffffffffffffffffffffffffffffffffffffffff161480610c815750610c8085610c7b611dfc565b611a58565b5b610cc0576040517f08c379a0000000000000000000000000000000000000000000000000000000008152600401610cb79061440a565b60405180910390fd5b610ccd8585858585611e04565b5050505050565b60008111610d17576040517f08c379a0000000000000000000000000000000000000000000000000000000008152600401610d0e9061449c565b60405180910390fd5b80600660009054906101000a900473ffffffffffffffffffffffffffffffffffffffff1673ffffffffffffffffffffffffffffffffffffffff1662fdd58e33856040518363ffffffff1660e01b8152600401610d74929190613ea2565b602060405180830381865afa158015610d91573d6000803e3d6000fd5b505050506040513d601f19601f82011682018060405250810190610db59190613ecb565b1015610df6576040517f08c379a0000000000000000000000000000000000000000000000000000000008152600401610ded9061452e565b60405180910390fd5b600660009054906101000a900473ffffffffffffffffffffffffffffffffffffffff1673ffffffffffffffffffffffffffffffffffffffff1663e985e9c533306040518363ffffffff1660e01b8152600401610e53929190614186565b602060405180830381865afa158015610e70573d6000803e3d6000fd5b505050506040513d601f19601f82011682018060405250810190610e9491906141af565b610ed3576040517f08c379a0000000000000000000000000000000000000000000000000000000008152600401610eca906145c0565b60405180910390fd5b600660009054906101000a900473ffffffffffffffffffffffffffffffffffffffff1673ffffffffffffffffffffffffffffffffffffffff1663f5298aca3384846040518463ffffffff1660e01b8152600401610f32939291906145e0565b600060405180830381600087803b158015610f4c57600080fd5b505af1158015610f60573d6000803e3d6000fd5b505050507f86e4ad062b281f0afdca6d3083c06d8602ea1ad4cea7dd132332b96160cd020482338342604051610f999493929190614617565b60405180910390a15050565b6000600660009054906101000a900473ffffffffffffffffffffffffffffffffffffffff1673ffffffffffffffffffffffffffffffffffffffff1663f392243b846040518263ffffffff1660e01b815260040161100291906131c3565b60a060405180830381865afa15801561101f573d6000803e3d6000fd5b505050506040513d601f19601f820116820180604052508101906110439190613e75565b90508060800151611089576040517f08c379a0000000000000000000000000000000000000000000000000000000008152600401611080906146ce565b60405180910390fd5b81600660009054906101000a900473ffffffffffffffffffffffffffffffffffffffff1673ffffffffffffffffffffffffffffffffffffffff1662fdd58e8360200151866040518363ffffffff1660e01b81526004016110ea929190613ea2565b602060405180830381865afa158015611107573d6000803e3d6000fd5b505050506040513d601f19601f8201168201806040525081019061112b9190613ecb565b101561116c576040517f08c379a000000000000000000000000000000000000000000000000000000000815260040161116390614760565b60405180910390fd5b81816060015161117c9190614780565b3410156111be576040517f08c379a00000000000000000000000000000000000000000000000000000000081526004016111b590614826565b60405180910390fd5b600660009054906101000a900473ffffffffffffffffffffffffffffffffffffffff1673ffffffffffffffffffffffffffffffffffffffff1663e985e9c58260200151306040518363ffffffff1660e01b815260040161121f929190614186565b602060405180830381865afa15801561123c573d6000803e3d6000fd5b505050506040513d601f19601f8201168201806040525081019061126091906141af565b61129f576040517f08c379a0000000000000000000000000000000000000000000000000000000008152600401611296906145c0565b60405180910390fd5b600660009054906101000a900473ffffffffffffffffffffffffffffffffffffffff1673ffffffffffffffffffffffffffffffffffffffff1663f242432a82602001513386866040518563ffffffff1660e01b8152600401611304949392919061487d565b600060405180830381600087803b15801561131e57600080fd5b505af1158015611332573d6000803e3d6000fd5b50505050806020015173ffffffffffffffffffffffffffffffffffffffff166108fc349081150290604051600060405180830381858888f19350505050158015611380573d6000803e3d6000fd5b50600660009054906101000a900473ffffffffffffffffffffffffffffffffffffffff1673ffffffffffffffffffffffffffffffffffffffff1663eeb2982f84846040518363ffffffff1660e01b81526004016113de929190614297565b600060405180830381600087803b1580156113f857600080fd5b505af115801561140c573d6000803e3d6000fd5b505050506000600660009054906101000a900473ffffffffffffffffffffffffffffffffffffffff1673ffffffffffffffffffffffffffffffffffffffff1662fdd58e8360200151866040518363ffffffff1660e01b8152600401611472929190613ea2565b602060405180830381865afa15801561148f573d6000803e3d6000fd5b505050506040513d601f19601f820116820180604052508101906114b39190613ecb565b0361156157600660009054906101000a900473ffffffffffffffffffffffffffffffffffffffff1673ffffffffffffffffffffffffffffffffffffffff16639c0ab5ec8460006040518363ffffffff1660e01b815260040161151692919061426e565b600060405180830381600087803b15801561153057600080fd5b505af1158015611544573d6000803e3d6000fd5b505050506007600081548092919061155b906148d5565b91905055505b7fadbbaff5d3f24e7a13aaf13c504d323cd85ecba120c82f46762b3f57e5fa5d7683826020015133854260405161159c9594939291906148fe565b60405180910390a1505050565b6000600754905090565b606081518351146115f9576040517f08c379a00000000000000000000000000000000000000000000000000000000081526004016115f0906149c3565b60405180910390fd5b6000835167ffffffffffffffff811115611616576116156133f0565b5b6040519080825280602002602001820160405280156116445781602001602082028036833780820191505090505b50905060005b84518110156116c157611691858281518110611669576116686149e3565b5b6020026020010151858381518110611684576116836149e3565b5b6020026020010151610470565b8282815181106116a4576116a36149e3565b5b602002602001018181525050806116ba90614a12565b905061164a565b508091505092915050565b6116d4611dfc565b73ffffffffffffffffffffffffffffffffffffffff168373ffffffffffffffffffffffffffffffffffffffff16148061171a575061171983611714611dfc565b611a58565b5b611759576040517f08c379a00000000000000000000000000000000000000000000000000000000081526004016117509061440a565b60405180910390fd5b611764838383612125565b505050565b6117716123f3565b61177b6000612471565b565b6000600560009054906101000a900473ffffffffffffffffffffffffffffffffffffffff16905090565b6117b96117b2611dfc565b8383612537565b5050565b60606000600660009054906101000a900473ffffffffffffffffffffffffffffffffffffffff1673ffffffffffffffffffffffffffffffffffffffff16630b2f67256040518163ffffffff1660e01b8152600401602060405180830381865afa15801561182e573d6000803e3d6000fd5b505050506040513d601f19601f820116820180604052508101906118529190613ecb565b905060008060075467ffffffffffffffff811115611873576118726133f0565b5b6040519080825280602002602001820160405280156118ac57816020015b611899613073565b8152602001906001900390816118915790505b50905060005b83811015611a4e576000600660009054906101000a900473ffffffffffffffffffffffffffffffffffffffff1673ffffffffffffffffffffffffffffffffffffffff1663644b7a43836040518263ffffffff1660e01b815260040161191791906131c3565b602060405180830381865afa158015611934573d6000803e3d6000fd5b505050506040513d601f19601f820116820180604052508101906119589190613ecb565b90506000600660009054906101000a900473ffffffffffffffffffffffffffffffffffffffff1673ffffffffffffffffffffffffffffffffffffffff1663f392243b836040518263ffffffff1660e01b81526004016119b791906131c3565b60a060405180830381865afa1580156119d4573d6000803e3d6000fd5b505050506040513d601f19601f820116820180604052508101906119f89190613e75565b9050600115158160800151151503611a395780848681518110611a1e57611a1d6149e3565b5b6020026020010181905250600185611a3691906142ef565b94505b50508080611a4690614a12565b9150506118b2565b5080935050505090565b6000600160008473ffffffffffffffffffffffffffffffffffffffff1673ffffffffffffffffffffffffffffffffffffffff16815260200190815260200160002060008373ffffffffffffffffffffffffffffffffffffffff1673ffffffffffffffffffffffffffffffffffffffff16815260200190815260200160002060009054906101000a900460ff16905092915050565b611af4611dfc565b73ffffffffffffffffffffffffffffffffffffffff168573ffffffffffffffffffffffffffffffffffffffff161480611b3a5750611b3985611b34611dfc565b611a58565b5b611b79576040517f08c379a0000000000000000000000000000000000000000000000000000000008152600401611b709061440a565b60405180910390fd5b611b8685858585856126a3565b5050505050565b611b956123f3565b600073ffffffffffffffffffffffffffffffffffffffff168173ffffffffffffffffffffffffffffffffffffffff1603611c04576040517f08c379a0000000000000000000000000000000000000000000000000000000008152600401611bfb90614acc565b60405180910390fd5b611c0d81612471565b50565b611c18611dfc565b73ffffffffffffffffffffffffffffffffffffffff168373ffffffffffffffffffffffffffffffffffffffff161480611c5e5750611c5d83611c58611dfc565b611a58565b5b611c9d576040517f08c379a0000000000000000000000000000000000000000000000000000000008152600401611c949061440a565b60405180910390fd5b611ca883838361293e565b505050565b60007f01ffc9a7000000000000000000000000000000000000000000000000000000007bffffffffffffffffffffffffffffffffffffffffffffffffffffffff1916827bffffffffffffffffffffffffffffffffffffffffffffffffffffffff1916149050919050565b60606000600460008481526020019081526020016000208054611d3990614b1b565b80601f0160208091040260200160405190810160405280929190818152602001828054611d6590614b1b565b8015611db25780601f10611d8757610100808354040283529160200191611db2565b820191906000526020600020905b815481529060010190602001808311611d9557829003601f168201915b505050505090506000815111611dd057611dcb83612b84565b611df4565b600381604051602001611de4929190614c1c565b6040516020818303038152906040525b915050919050565b600033905090565b8151835114611e48576040517f08c379a0000000000000000000000000000000000000000000000000000000008152600401611e3f90614cb2565b60405180910390fd5b600073ffffffffffffffffffffffffffffffffffffffff168473ffffffffffffffffffffffffffffffffffffffff1603611eb7576040517f08c379a0000000000000000000000000000000000000000000000000000000008152600401611eae90614d44565b60405180910390fd5b6000611ec1611dfc565b9050611ed1818787878787612c18565b60005b8451811015612082576000858281518110611ef257611ef16149e3565b5b602002602001015190506000858381518110611f1157611f106149e3565b5b60200260200101519050600080600084815260200190815260200160002060008b73ffffffffffffffffffffffffffffffffffffffff1673ffffffffffffffffffffffffffffffffffffffff16815260200190815260200160002054905081811015611fb2576040517f08c379a0000000000000000000000000000000000000000000000000000000008152600401611fa990614dd6565b60405180910390fd5b81810360008085815260200190815260200160002060008c73ffffffffffffffffffffffffffffffffffffffff1673ffffffffffffffffffffffffffffffffffffffff168152602001908152602001600020819055508160008085815260200190815260200160002060008b73ffffffffffffffffffffffffffffffffffffffff1673ffffffffffffffffffffffffffffffffffffffff168152602001908152602001600020600082825461206791906142ef565b925050819055505050508061207b90614a12565b9050611ed4565b508473ffffffffffffffffffffffffffffffffffffffff168673ffffffffffffffffffffffffffffffffffffffff168273ffffffffffffffffffffffffffffffffffffffff167f4a39dc06d4c0dbc64b70af90fd698a233a518aa5d07e595d983b8c0526c8f7fb87876040516120f9929190614df6565b60405180910390a461210f818787878787612c20565b61211d818787878787612c28565b505050505050565b600073ffffffffffffffffffffffffffffffffffffffff168373ffffffffffffffffffffffffffffffffffffffff1603612194576040517f08c379a000000000000000000000000000000000000000000000000000000000815260040161218b90614e9f565b60405180910390fd5b80518251146121d8576040517f08c379a00000000000000000000000000000000000000000000000000000000081526004016121cf90614cb2565b60405180910390fd5b60006121e2611dfc565b905061220281856000868660405180602001604052806000815250612c18565b60005b835181101561234f576000848281518110612223576122226149e3565b5b602002602001015190506000848381518110612242576122416149e3565b5b60200260200101519050600080600084815260200190815260200160002060008973ffffffffffffffffffffffffffffffffffffffff1673ffffffffffffffffffffffffffffffffffffffff168152602001908152602001600020549050818110156122e3576040517f08c379a00000000000000000000000000000000000000000000000000000000081526004016122da90614f31565b60405180910390fd5b81810360008085815260200190815260200160002060008a73ffffffffffffffffffffffffffffffffffffffff1673ffffffffffffffffffffffffffffffffffffffff16815260200190815260200160002081905550505050808061234790614a12565b915050612205565b50600073ffffffffffffffffffffffffffffffffffffffff168473ffffffffffffffffffffffffffffffffffffffff168273ffffffffffffffffffffffffffffffffffffffff167f4a39dc06d4c0dbc64b70af90fd698a233a518aa5d07e595d983b8c0526c8f7fb86866040516123c7929190614df6565b60405180910390a46123ed81856000868660405180602001604052806000815250612c20565b50505050565b6123fb611dfc565b73ffffffffffffffffffffffffffffffffffffffff1661241961177d565b73ffffffffffffffffffffffffffffffffffffffff161461246f576040517f08c379a000000000000000000000000000000000000000000000000000000000815260040161246690614f9d565b60405180910390fd5b565b6000600560009054906101000a900473ffffffffffffffffffffffffffffffffffffffff16905081600560006101000a81548173ffffffffffffffffffffffffffffffffffffffff021916908373ffffffffffffffffffffffffffffffffffffffff1602179055508173ffffffffffffffffffffffffffffffffffffffff168173ffffffffffffffffffffffffffffffffffffffff167f8be0079c531659141344cd1fd0a4f28419497f9722a3daafe3b4186f6b6457e060405160405180910390a35050565b8173ffffffffffffffffffffffffffffffffffffffff168373ffffffffffffffffffffffffffffffffffffffff16036125a5576040517f08c379a000000000000000000000000000000000000000000000000000000000815260040161259c9061502f565b60405180910390fd5b80600160008573ffffffffffffffffffffffffffffffffffffffff1673ffffffffffffffffffffffffffffffffffffffff16815260200190815260200160002060008473ffffffffffffffffffffffffffffffffffffffff1673ffffffffffffffffffffffffffffffffffffffff16815260200190815260200160002060006101000a81548160ff0219169083151502179055508173ffffffffffffffffffffffffffffffffffffffff168373ffffffffffffffffffffffffffffffffffffffff167f17307eab39ab6107e8899845ad3d59bd9653f200f220920489ca2b5937696c3183604051612696919061327e565b60405180910390a3505050565b600073ffffffffffffffffffffffffffffffffffffffff168473ffffffffffffffffffffffffffffffffffffffff1603612712576040517f08c379a000000000000000000000000000000000000000000000000000000000815260040161270990614d44565b60405180910390fd5b600061271c611dfc565b9050600061272985612dff565b9050600061273685612dff565b9050612746838989858589612c18565b600080600088815260200190815260200160002060008a73ffffffffffffffffffffffffffffffffffffffff1673ffffffffffffffffffffffffffffffffffffffff168152602001908152602001600020549050858110156127dd576040517f08c379a00000000000000000000000000000000000000000000000000000000081526004016127d490614dd6565b60405180910390fd5b85810360008089815260200190815260200160002060008b73ffffffffffffffffffffffffffffffffffffffff1673ffffffffffffffffffffffffffffffffffffffff168152602001908152602001600020819055508560008089815260200190815260200160002060008a73ffffffffffffffffffffffffffffffffffffffff1673ffffffffffffffffffffffffffffffffffffffff168152602001908152602001600020600082825461289291906142ef565b925050819055508773ffffffffffffffffffffffffffffffffffffffff168973ffffffffffffffffffffffffffffffffffffffff168573ffffffffffffffffffffffffffffffffffffffff167fc3d58168c5ae7397731d063d5bbf3d657854427343f4c083240f7aacaa2d0f628a8a60405161290f929190614297565b60405180910390a4612925848a8a86868a612c20565b612933848a8a8a8a8a612e79565b505050505050505050565b600073ffffffffffffffffffffffffffffffffffffffff168373ffffffffffffffffffffffffffffffffffffffff16036129ad576040517f08c379a00000000000000000000000000000000000000000000000000000000081526004016129a490614e9f565b60405180910390fd5b60006129b7611dfc565b905060006129c484612dff565b905060006129d184612dff565b90506129f183876000858560405180602001604052806000815250612c18565b600080600087815260200190815260200160002060008873ffffffffffffffffffffffffffffffffffffffff1673ffffffffffffffffffffffffffffffffffffffff16815260200190815260200160002054905084811015612a88576040517f08c379a0000000000000000000000000000000000000000000000000000000008152600401612a7f90614f31565b60405180910390fd5b84810360008088815260200190815260200160002060008973ffffffffffffffffffffffffffffffffffffffff1673ffffffffffffffffffffffffffffffffffffffff16815260200190815260200160002081905550600073ffffffffffffffffffffffffffffffffffffffff168773ffffffffffffffffffffffffffffffffffffffff168573ffffffffffffffffffffffffffffffffffffffff167fc3d58168c5ae7397731d063d5bbf3d657854427343f4c083240f7aacaa2d0f628989604051612b55929190614297565b60405180910390a4612b7b84886000868660405180602001604052806000815250612c20565b50505050505050565b606060028054612b9390614b1b565b80601f0160208091040260200160405190810160405280929190818152602001828054612bbf90614b1b565b8015612c0c5780601f10612be157610100808354040283529160200191612c0c565b820191906000526020600020905b815481529060010190602001808311612bef57829003601f168201915b50505050509050919050565b505050505050565b505050505050565b612c478473ffffffffffffffffffffffffffffffffffffffff16613050565b15612df7578373ffffffffffffffffffffffffffffffffffffffff1663bc197c8187878686866040518663ffffffff1660e01b8152600401612c8d959493929190615093565b6020604051808303816000875af1925050508015612cc957506040513d601f19601f82011682018060405250810190612cc69190615110565b60015b612d6e57612cd561514a565b806308c379a003612d315750612ce961516c565b80612cf45750612d33565b806040517f08c379a0000000000000000000000000000000000000000000000000000000008152600401612d28919061335f565b60405180910390fd5b505b6040517f08c379a0000000000000000000000000000000000000000000000000000000008152600401612d659061526e565b60405180910390fd5b63bc197c8160e01b7bffffffffffffffffffffffffffffffffffffffffffffffffffffffff1916817bffffffffffffffffffffffffffffffffffffffffffffffffffffffff191614612df5576040517f08c379a0000000000000000000000000000000000000000000000000000000008152600401612dec90615300565b60405180910390fd5b505b505050505050565b60606000600167ffffffffffffffff811115612e1e57612e1d6133f0565b5b604051908082528060200260200182016040528015612e4c5781602001602082028036833780820191505090505b5090508281600081518110612e6457612e636149e3565b5b60200260200101818152505080915050919050565b612e988473ffffffffffffffffffffffffffffffffffffffff16613050565b15613048578373ffffffffffffffffffffffffffffffffffffffff1663f23a6e6187878686866040518663ffffffff1660e01b8152600401612ede959493929190615320565b6020604051808303816000875af1925050508015612f1a57506040513d601f19601f82011682018060405250810190612f179190615110565b60015b612fbf57612f2661514a565b806308c379a003612f825750612f3a61516c565b80612f455750612f84565b806040517f08c379a0000000000000000000000000000000000000000000000000000000008152600401612f79919061335f565b60405180910390fd5b505b6040517f08c379a0000000000000000000000000000000000000000000000000000000008152600401612fb69061526e565b60405180910390fd5b63f23a6e6160e01b7bffffffffffffffffffffffffffffffffffffffffffffffffffffffff1916817bffffffffffffffffffffffffffffffffffffffffffffffffffffffff191614613046576040517f08c379a000000000000000000000000000000000000000000000000000000000815260040161303d90615300565b60405180910390fd5b505b505050505050565b6000808273ffffffffffffffffffffffffffffffffffffffff163b119050919050565b6040518060a0016040528060008152602001600073ffffffffffffffffffffffffffffffffffffffff168152602001600060028111156130b6576130b5613a04565b5b8152602001600081526020016000151581525090565b6000604051905090565b600080fd5b600080fd5b600073ffffffffffffffffffffffffffffffffffffffff82169050919050565b600061310b826130e0565b9050919050565b61311b81613100565b811461312657600080fd5b50565b60008135905061313881613112565b92915050565b6000819050919050565b6131518161313e565b811461315c57600080fd5b50565b60008135905061316e81613148565b92915050565b6000806040838503121561318b5761318a6130d6565b5b600061319985828601613129565b92505060206131aa8582860161315f565b9150509250929050565b6131bd8161313e565b82525050565b60006020820190506131d860008301846131b4565b92915050565b60007fffffffff0000000000000000000000000000000000000000000000000000000082169050919050565b613213816131de565b811461321e57600080fd5b50565b6000813590506132308161320a565b92915050565b60006020828403121561324c5761324b6130d6565b5b600061325a84828501613221565b91505092915050565b60008115159050919050565b61327881613263565b82525050565b6000602082019050613293600083018461326f565b92915050565b6000602082840312156132af576132ae6130d6565b5b60006132bd8482850161315f565b91505092915050565b600081519050919050565b600082825260208201905092915050565b60005b838110156133005780820151818401526020810190506132e5565b8381111561330f576000848401525b50505050565b6000601f19601f8301169050919050565b6000613331826132c6565b61333b81856132d1565b935061334b8185602086016132e2565b61335481613315565b840191505092915050565b600060208201905081810360008301526133798184613326565b905092915050565b61338a81613100565b82525050565b60006020820190506133a56000830184613381565b92915050565b600080604083850312156133c2576133c16130d6565b5b60006133d08582860161315f565b92505060206133e18582860161315f565b9150509250929050565b600080fd5b7f4e487b7100000000000000000000000000000000000000000000000000000000600052604160045260246000fd5b61342882613315565b810181811067ffffffffffffffff82111715613447576134466133f0565b5b80604052505050565b600061345a6130cc565b9050613466828261341f565b919050565b600067ffffffffffffffff821115613486576134856133f0565b5b602082029050602081019050919050565b600080fd5b60006134af6134aa8461346b565b613450565b905080838252602082019050602084028301858111156134d2576134d1613497565b5b835b818110156134fb57806134e7888261315f565b8452602084019350506020810190506134d4565b5050509392505050565b600082601f83011261351a576135196133eb565b5b813561352a84826020860161349c565b91505092915050565b600080fd5b600067ffffffffffffffff821115613553576135526133f0565b5b61355c82613315565b9050602081019050919050565b82818337600083830152505050565b600061358b61358684613538565b613450565b9050828152602081018484840111156135a7576135a6613533565b5b6135b2848285613569565b509392505050565b600082601f8301126135cf576135ce6133eb565b5b81356135df848260208601613578565b91505092915050565b600080600080600060a08688031215613604576136036130d6565b5b600061361288828901613129565b955050602061362388828901613129565b945050604086013567ffffffffffffffff811115613644576136436130db565b5b61365088828901613505565b935050606086013567ffffffffffffffff811115613671576136706130db565b5b61367d88828901613505565b925050608086013567ffffffffffffffff81111561369e5761369d6130db565b5b6136aa888289016135ba565b9150509295509295909350565b600067ffffffffffffffff8211156136d2576136d16133f0565b5b602082029050602081019050919050565b60006136f66136f1846136b7565b613450565b9050808382526020820190506020840283018581111561371957613718613497565b5b835b81811015613742578061372e8882613129565b84526020840193505060208101905061371b565b5050509392505050565b600082601f830112613761576137606133eb565b5b81356137718482602086016136e3565b91505092915050565b60008060408385031215613791576137906130d6565b5b600083013567ffffffffffffffff8111156137af576137ae6130db565b5b6137bb8582860161374c565b925050602083013567ffffffffffffffff8111156137dc576137db6130db565b5b6137e885828601613505565b9150509250929050565b600081519050919050565b600082825260208201905092915050565b6000819050602082019050919050565b6138278161313e565b82525050565b6000613839838361381e565b60208301905092915050565b6000602082019050919050565b600061385d826137f2565b61386781856137fd565b93506138728361380e565b8060005b838110156138a357815161388a888261382d565b975061389583613845565b925050600181019050613876565b5085935050505092915050565b600060208201905081810360008301526138ca8184613852565b905092915050565b6000806000606084860312156138eb576138ea6130d6565b5b60006138f986828701613129565b935050602084013567ffffffffffffffff81111561391a576139196130db565b5b61392686828701613505565b925050604084013567ffffffffffffffff811115613947576139466130db565b5b61395386828701613505565b9150509250925092565b61396681613263565b811461397157600080fd5b50565b6000813590506139838161395d565b92915050565b600080604083850312156139a05761399f6130d6565b5b60006139ae85828601613129565b92505060206139bf85828601613974565b9150509250929050565b600081519050919050565b600082825260208201905092915050565b6000819050602082019050919050565b6139fe81613100565b82525050565b7f4e487b7100000000000000000000000000000000000000000000000000000000600052602160045260246000fd5b60038110613a4457613a43613a04565b5b50565b6000819050613a5582613a33565b919050565b6000613a6582613a47565b9050919050565b613a7581613a5a565b82525050565b613a8481613263565b82525050565b60a082016000820151613aa0600085018261381e565b506020820151613ab360208501826139f5565b506040820151613ac66040850182613a6c565b506060820151613ad9606085018261381e565b506080820151613aec6080850182613a7b565b50505050565b6000613afe8383613a8a565b60a08301905092915050565b6000602082019050919050565b6000613b22826139c9565b613b2c81856139d4565b9350613b37836139e5565b8060005b83811015613b68578151613b4f8882613af2565b9750613b5a83613b0a565b925050600181019050613b3b565b5085935050505092915050565b60006020820190508181036000830152613b8f8184613b17565b905092915050565b60008060408385031215613bae57613bad6130d6565b5b6000613bbc85828601613129565b9250506020613bcd85828601613129565b9150509250929050565b600080600080600060a08688031215613bf357613bf26130d6565b5b6000613c0188828901613129565b9550506020613c1288828901613129565b9450506040613c238882890161315f565b9350506060613c348882890161315f565b925050608086013567ffffffffffffffff811115613c5557613c546130db565b5b613c61888289016135ba565b9150509295509295909350565b600060208284031215613c8457613c836130d6565b5b6000613c9284828501613129565b91505092915050565b600080600060608486031215613cb457613cb36130d6565b5b6000613cc286828701613129565b9350506020613cd38682870161315f565b9250506040613ce48682870161315f565b9150509250925092565b7f455243313135353a2061646472657373207a65726f206973206e6f742061207660008201527f616c6964206f776e657200000000000000000000000000000000000000000000602082015250565b6000613d4a602a836132d1565b9150613d5582613cee565b604082019050919050565b60006020820190508181036000830152613d7981613d3d565b9050919050565b600080fd5b600081519050613d9481613148565b92915050565b600081519050613da981613112565b92915050565b60038110613dbc57600080fd5b50565b600081519050613dce81613daf565b92915050565b600081519050613de38161395d565b92915050565b600060a08284031215613dff57613dfe613d80565b5b613e0960a0613450565b90506000613e1984828501613d85565b6000830152506020613e2d84828501613d9a565b6020830152506040613e4184828501613dbf565b6040830152506060613e5584828501613d85565b6060830152506080613e6984828501613dd4565b60808301525092915050565b600060a08284031215613e8b57613e8a6130d6565b5b6000613e9984828501613de9565b91505092915050565b6000604082019050613eb76000830185613381565b613ec460208301846131b4565b9392505050565b600060208284031215613ee157613ee06130d6565b5b6000613eef84828501613d85565b91505092915050565b7f596f75206d757374206f776e2074686520746f6b656e20746f206c697374206960008201527f742e000000000000000000000000000000000000000000000000000000000000602082015250565b6000613f546022836132d1565b9150613f5f82613ef8565b604082019050919050565b60006020820190508181036000830152613f8381613f47565b9050919050565b7f4f6e6c792074686520696e697469616c206f776e65722063616e206c6973742060008201527f746865206372656469747320666f722073616c652e0000000000000000000000602082015250565b6000613fe66035836132d1565b9150613ff182613f8a565b604082019050919050565b6000602082019050818103600083015261401581613fd9565b9050919050565b7f43726564697473206d75737420626520617070726f766564206265666f72652060008201527f6c697374696e672e000000000000000000000000000000000000000000000000602082015250565b60006140786028836132d1565b91506140838261401c565b604082019050919050565b600060208201905081810360008301526140a78161406b565b9050919050565b7f416c7265616479206c69737465642e0000000000000000000000000000000000600082015250565b60006140e4600f836132d1565b91506140ef826140ae565b602082019050919050565b60006020820190508181036000830152614113816140d7565b9050919050565b7f5072696365206d7573742062652067726561746572207468616e207a65726f2e600082015250565b60006141506020836132d1565b915061415b8261411a565b602082019050919050565b6000602082019050818103600083015261417f81614143565b9050919050565b600060408201905061419b6000830185613381565b6141a86020830184613381565b9392505050565b6000602082840312156141c5576141c46130d6565b5b60006141d384828501613dd4565b91505092915050565b7f4d61726b6574706c616365206e6f7420617574686f72697a656420746f206d6160008201527f6e616765207468697320746f6b656e2e00000000000000000000000000000000602082015250565b60006142386030836132d1565b9150614243826141dc565b604082019050919050565b600060208201905081810360008301526142678161422b565b9050919050565b600060408201905061428360008301856131b4565b614290602083018461326f565b9392505050565b60006040820190506142ac60008301856131b4565b6142b960208301846131b4565b9392505050565b7f4e487b7100000000000000000000000000000000000000000000000000000000600052601160045260246000fd5b60006142fa8261313e565b91506143058361313e565b9250827fffffffffffffffffffffffffffffffffffffffffffffffffffffffffffffffff0382111561433a576143396142c0565b5b828201905092915050565b600060a08201905061435a60008301886131b4565b6143676020830187613381565b61437460408301866131b4565b61438160608301856131b4565b61438e60808301846131b4565b9695505050505050565b7f455243313135353a2063616c6c6572206973206e6f7420746f6b656e206f776e60008201527f6572206f7220617070726f766564000000000000000000000000000000000000602082015250565b60006143f4602e836132d1565b91506143ff82614398565b604082019050919050565b60006020820190508181036000830152614423816143e7565b9050919050565b7f416d6f756e74206d7573742062652067726561746572207468616e207a65726f60008201527f2e00000000000000000000000000000000000000000000000000000000000000602082015250565b60006144866021836132d1565b91506144918261442a565b604082019050919050565b600060208201905081810360008301526144b581614479565b9050919050565b7f496e73756666696369656e7420746f6b656e2062616c616e636520746f20726560008201527f746972652e000000000000000000000000000000000000000000000000000000602082015250565b60006145186025836132d1565b9150614523826144bc565b604082019050919050565b600060208201905081810360008301526145478161450b565b9050919050565b7f4d61726b6574706c616365206e6f7420617574686f72697a656420627920746f60008201527f6b656e206f776e65722e00000000000000000000000000000000000000000000602082015250565b60006145aa602a836132d1565b91506145b58261454e565b604082019050919050565b600060208201905081810360008301526145d98161459d565b9050919050565b60006060820190506145f56000830186613381565b61460260208301856131b4565b61460f60408301846131b4565b949350505050565b600060808201905061462c60008301876131b4565b6146396020830186613381565b61464660408301856131b4565b61465360608301846131b4565b95945050505050565b7f546f6b656e206d757374206265206c697374656420666f722073616c6520626560008201527f666f72652069742063616e206265207075726368617365642e00000000000000602082015250565b60006146b86039836132d1565b91506146c38261465c565b604082019050919050565b600060208201905081810360008301526146e7816146ab565b9050919050565b7f496e73756666696369656e742062616c616e636520746f20707572636861736560008201527f2e00000000000000000000000000000000000000000000000000000000000000602082015250565b600061474a6021836132d1565b9150614755826146ee565b604082019050919050565b600060208201905081810360008301526147798161473d565b9050919050565b600061478b8261313e565b91506147968361313e565b9250817fffffffffffffffffffffffffffffffffffffffffffffffffffffffffffffffff04831182151516156147cf576147ce6142c0565b5b828202905092915050565b7f496e73756666696369656e742066756e647320746f2070757263686173652e00600082015250565b6000614810601f836132d1565b915061481b826147da565b602082019050919050565b6000602082019050818103600083015261483f81614803565b9050919050565b600082825260208201905092915050565b50565b6000614867600083614846565b915061487282614857565b600082019050919050565b600060a0820190506148926000830187613381565b61489f6020830186613381565b6148ac60408301856131b4565b6148b960608301846131b4565b81810360808301526148ca8161485a565b905095945050505050565b60006148e08261313e565b9150600082036148f3576148f26142c0565b5b600182039050919050565b600060a08201905061491360008301886131b4565b6149206020830187613381565b61492d6040830186613381565b61493a60608301856131b4565b61494760808301846131b4565b9695505050505050565b7f455243313135353a206163636f756e747320616e6420696473206c656e67746860008201527f206d69736d617463680000000000000000000000000000000000000000000000602082015250565b60006149ad6029836132d1565b91506149b882614951565b604082019050919050565b600060208201905081810360008301526149dc816149a0565b9050919050565b7f4e487b7100000000000000000000000000000000000000000000000000000000600052603260045260246000fd5b6000614a1d8261313e565b91507fffffffffffffffffffffffffffffffffffffffffffffffffffffffffffffffff8203614a4f57614a4e6142c0565b5b600182019050919050565b7f4f776e61626c653a206e6577206f776e657220697320746865207a65726f206160008201527f6464726573730000000000000000000000000000000000000000000000000000602082015250565b6000614ab66026836132d1565b9150614ac182614a5a565b604082019050919050565b60006020820190508181036000830152614ae581614aa9565b9050919050565b7f4e487b7100000000000000000000000000000000000000000000000000000000600052602260045260246000fd5b60006002820490506001821680614b3357607f821691505b602082108103614b4657614b45614aec565b5b50919050565b600081905092915050565b60008190508160005260206000209050919050565b60008154614b7981614b1b565b614b838186614b4c565b94506001821660008114614b9e5760018114614baf57614be2565b60ff19831686528186019350614be2565b614bb885614b57565b60005b83811015614bda57815481890152600182019150602081019050614bbb565b838801955050505b50505092915050565b6000614bf6826132c6565b614c008185614b4c565b9350614c108185602086016132e2565b80840191505092915050565b6000614c288285614b6c565b9150614c348284614beb565b91508190509392505050565b7f455243313135353a2069647320616e6420616d6f756e7473206c656e6774682060008201527f6d69736d61746368000000000000000000000000000000000000000000000000602082015250565b6000614c9c6028836132d1565b9150614ca782614c40565b604082019050919050565b60006020820190508181036000830152614ccb81614c8f565b9050919050565b7f455243313135353a207472616e7366657220746f20746865207a65726f20616460008201527f6472657373000000000000000000000000000000000000000000000000000000602082015250565b6000614d2e6025836132d1565b9150614d3982614cd2565b604082019050919050565b60006020820190508181036000830152614d5d81614d21565b9050919050565b7f455243313135353a20696e73756666696369656e742062616c616e636520666f60008201527f72207472616e7366657200000000000000000000000000000000000000000000602082015250565b6000614dc0602a836132d1565b9150614dcb82614d64565b604082019050919050565b60006020820190508181036000830152614def81614db3565b9050919050565b60006040820190508181036000830152614e108185613852565b90508181036020830152614e248184613852565b90509392505050565b7f455243313135353a206275726e2066726f6d20746865207a65726f206164647260008201527f6573730000000000000000000000000000000000000000000000000000000000602082015250565b6000614e896023836132d1565b9150614e9482614e2d565b604082019050919050565b60006020820190508181036000830152614eb881614e7c565b9050919050565b7f455243313135353a206275726e20616d6f756e7420657863656564732062616c60008201527f616e636500000000000000000000000000000000000000000000000000000000602082015250565b6000614f1b6024836132d1565b9150614f2682614ebf565b604082019050919050565b60006020820190508181036000830152614f4a81614f0e565b9050919050565b7f4f776e61626c653a2063616c6c6572206973206e6f7420746865206f776e6572600082015250565b6000614f876020836132d1565b9150614f9282614f51565b602082019050919050565b60006020820190508181036000830152614fb681614f7a565b9050919050565b7f455243313135353a2073657474696e6720617070726f76616c2073746174757360008201527f20666f722073656c660000000000000000000000000000000000000000000000602082015250565b60006150196029836132d1565b915061502482614fbd565b604082019050919050565b600060208201905081810360008301526150488161500c565b9050919050565b600081519050919050565b60006150658261504f565b61506f8185614846565b935061507f8185602086016132e2565b61508881613315565b840191505092915050565b600060a0820190506150a86000830188613381565b6150b56020830187613381565b81810360408301526150c78186613852565b905081810360608301526150db8185613852565b905081810360808301526150ef818461505a565b90509695505050505050565b60008151905061510a8161320a565b92915050565b600060208284031215615126576151256130d6565b5b6000615134848285016150fb565b91505092915050565b60008160e01c9050919050565b600060033d11156151695760046000803e61516660005161513d565b90505b90565b600060443d106151f95761517e6130cc565b60043d036004823e80513d602482011167ffffffffffffffff821117156151a65750506151f9565b808201805167ffffffffffffffff8111156151c457505050506151f9565b80602083010160043d0385018111156151e15750505050506151f9565b6151f08260200185018661341f565b82955050505050505b90565b7f455243313135353a207472616e7366657220746f206e6f6e2d4552433131353560008201527f526563656976657220696d706c656d656e746572000000000000000000000000602082015250565b60006152586034836132d1565b9150615263826151fc565b604082019050919050565b600060208201905081810360008301526152878161524b565b9050919050565b7f455243313135353a204552433131353552656365697665722072656a6563746560008201527f6420746f6b656e73000000000000000000000000000000000000000000000000602082015250565b60006152ea6028836132d1565b91506152f58261528e565b604082019050919050565b60006020820190508181036000830152615319816152dd565b9050919050565b600060a0820190506153356000830188613381565b6153426020830187613381565b61534f60408301866131b4565b61535c60608301856131b4565b818103608083015261536e818461505a565b9050969550505050505056fea264697066735822122048112153211f52763c602e54a4a5fc4620357b0b3b2a280a2eef50ae8559622c64736f6c634300080d0033",
  "immutableReferences": {},
  "source": "// SPDX-License-Identifier: MIT\npragma solidity ^0.8.13;\n\nimport \"./ProjectManagement.sol\";\nimport \"./CarbonToken.sol\";\nimport \"./CarbonBase.sol\";\n\ncontract CarbonMarket is CarbonBase {\n    CarbonToken private _token;\n    uint256 private _listedTokens; // number of listed credits\n\n    constructor(address _tokenAddress) {\n        _token = CarbonToken(_tokenAddress);\n    }\n\n    function getListedTokensCount() public view returns (uint256) {\n        // returns the total number of listed credits\n        return _listedTokens;\n    }\n\n    function listCreditsForSale(uint256 tokenId, uint256 price) public {\n        CarbonCredit memory credit = _token.getCarbonCredit(tokenId);\n\n        require(\n            _token.balanceOf(msg.sender, tokenId) > 0,\n            \"You must own the token to list it.\"\n        );\n        require(\n            msg.sender == credit.initialOwner,\n            \"Only the initial owner can list the credits for sale.\"\n        );\n        require(\n            credit.status == ApprovalStatus.Approved,\n            \"Credits must be approved before listing.\"\n        );\n        require(!credit.isListed, \"Already listed.\");\n        require(price > 0, \"Price must be greater than zero.\");\n        require(\n            _token.isApprovedForAll(msg.sender, address(this)),\n            \"Marketplace not authorized to manage this token.\"\n        );\n\n        _token.updateListed(tokenId, true);\n        _token.updatePrice(tokenId, price);\n        _listedTokens += 1;\n\n        emit CarbonCreditListed(\n            tokenId,\n            credit.initialOwner,\n            _token.getTokenSupply(tokenId),\n            price,\n            block.timestamp\n        );\n    }\n\n    function getAllListedCredits() public view returns (CarbonCredit[] memory) {\n        // [{}, {}, ...]\n        uint allCreditsCount = _token.getTotalTokensCount();\n        uint currentIndex = 0;\n        CarbonCredit[] memory credits = new CarbonCredit[](_listedTokens);\n\n        for (uint i = 0; i < allCreditsCount; i++) {\n            uint tokenId = _token.getTokenByIndex(i);\n            CarbonCredit memory credit = _token.getCarbonCredit(tokenId);\n            if (credit.isListed == true) {\n                credits[currentIndex] = credit;\n                currentIndex += 1;\n            }\n        }\n        return credits;\n    }\n\n    function buyCredits(uint256 tokenId, uint256 amount) public payable {\n        CarbonCredit memory credit = _token.getCarbonCredit(tokenId);\n\n        require(\n            credit.isListed,\n            \"Token must be listed for sale before it can be purchased.\"\n        );\n        require(\n            _token.balanceOf(credit.initialOwner, tokenId) >= amount,\n            \"Insufficient balance to purchase.\"\n        );\n        require(\n            msg.value >= credit.pricePerCredit * amount,\n            \"Insufficient funds to purchase.\"\n        );\n        require(\n            _token.isApprovedForAll(credit.initialOwner, address(this)),\n            \"Marketplace not authorized by token owner.\"\n        );\n\n        _token.safeTransferFrom(\n            credit.initialOwner,\n            msg.sender,\n            tokenId,\n            amount,\n            \"\"\n        );\n        payable(credit.initialOwner).transfer(msg.value);\n\n        _token.updateTokenSold(tokenId, amount);\n\n        // Additional custom logic post-transfer\n        // If all tokens of this ID are transferred, update the CarbonCredit struct\n        if (_token.balanceOf(credit.initialOwner, tokenId) == 0) {\n            _token.updateListed(tokenId, false);\n            _listedTokens--;\n        }\n\n        emit CarbonCreditPurchased(\n            tokenId,\n            credit.initialOwner,\n            msg.sender,\n            amount,\n            block.timestamp\n        );\n    }\n\n    function retireCredits(uint256 tokenId, uint256 amount) public {\n        require(amount > 0, \"Amount must be greater than zero.\");\n        require(\n            _token.balanceOf(msg.sender, tokenId) >= amount,\n            \"Insufficient token balance to retire.\"\n        );\n        require(\n            _token.isApprovedForAll(msg.sender, address(this)),\n            \"Marketplace not authorized by token owner.\"\n        );\n\n        _token.burn(msg.sender, tokenId, amount);\n\n        emit CarbonCreditRetired(tokenId, msg.sender, amount, block.timestamp);\n    }\n\n    function getTokenAddress() public view returns (address) {\n        return address(_token);\n    }\n}\n",
  "sourcePath": "/Users/buudinhha/Vscode/DATN/main/contracts/CarbonMarket.sol",
  "compiler": {
    "name": "solc",
    "version": "0.8.13+commit.abaa5c0e.Emscripten.clang"
  },
  "schemaVersion": "3.4.16",
  "updatedAt": "2024-05-21T17:42:05.045Z",
  "networkType": "ethereum",
  "devdoc": {
    "kind": "dev",
    "methods": {
      "balanceOf(address,uint256)": {
        "details": "See {IERC1155-balanceOf}. Requirements: - `account` cannot be the zero address."
      },
      "balanceOfBatch(address[],uint256[])": {
        "details": "See {IERC1155-balanceOfBatch}. Requirements: - `accounts` and `ids` must have the same length."
      },
      "isApprovedForAll(address,address)": {
        "details": "See {IERC1155-isApprovedForAll}."
      },
      "owner()": {
        "details": "Returns the address of the current owner."
      },
      "renounceOwnership()": {
        "details": "Leaves the contract without owner. It will not be possible to call `onlyOwner` functions. Can only be called by the current owner. NOTE: Renouncing ownership will leave the contract without an owner, thereby disabling any functionality that is only available to the owner."
      },
      "safeBatchTransferFrom(address,address,uint256[],uint256[],bytes)": {
        "details": "See {IERC1155-safeBatchTransferFrom}."
      },
      "safeTransferFrom(address,address,uint256,uint256,bytes)": {
        "details": "See {IERC1155-safeTransferFrom}."
      },
      "setApprovalForAll(address,bool)": {
        "details": "See {IERC1155-setApprovalForAll}."
      },
      "supportsInterface(bytes4)": {
        "details": "See {IERC165-supportsInterface}."
      },
      "transferOwnership(address)": {
        "details": "Transfers ownership of the contract to a new account (`newOwner`). Can only be called by the current owner."
      }
    },
    "version": 1
  },
  "userdoc": {
    "kind": "user",
    "methods": {},
    "version": 1
  }
}