{
  "contractName": "CarbonToken",
  "abi": [
    {
      "anonymous": false,
      "inputs": [
        {
          "indexed": true,
          "internalType": "address",
          "name": "account",
          "type": "address"
        },
        {
          "indexed": true,
          "internalType": "address",
          "name": "operator",
          "type": "address"
        },
        {
          "indexed": false,
          "internalType": "bool",
          "name": "approved",
          "type": "bool"
        }
      ],
      "name": "ApprovalForAll",
      "type": "event"
    },
    {
      "anonymous": false,
      "inputs": [
        {
          "indexed": false,
          "internalType": "uint256",
          "name": "tokenId",
          "type": "uint256"
        },
        {
          "indexed": false,
          "internalType": "address",
          "name": "initialOwner",
          "type": "address"
        },
        {
          "indexed": false,
          "internalType": "enum CarbonBase.ApprovalStatus",
          "name": "status",
          "type": "uint8"
        },
        {
          "indexed": false,
          "internalType": "uint256",
          "name": "pricePerCredit",
          "type": "uint256"
        },
        {
          "indexed": false,
          "internalType": "bool",
          "name": "isListed",
          "type": "bool"
        }
      ],
      "name": "CarbonCreditCreated",
      "type": "event"
    },
    {
      "anonymous": false,
      "inputs": [
        {
          "indexed": false,
          "internalType": "uint256",
          "name": "tokenId",
          "type": "uint256"
        },
        {
          "indexed": false,
          "internalType": "address",
          "name": "initialOwner",
          "type": "address"
        },
        {
          "indexed": false,
          "internalType": "enum CarbonBase.ApprovalStatus",
          "name": "status",
          "type": "uint8"
        },
        {
          "indexed": false,
          "internalType": "uint256",
          "name": "pricePerCredit",
          "type": "uint256"
        },
        {
          "indexed": false,
          "internalType": "bool",
          "name": "isListed",
          "type": "bool"
        }
      ],
      "name": "CarbonCreditListed",
      "type": "event"
    },
    {
      "anonymous": false,
      "inputs": [
        {
          "indexed": true,
          "internalType": "address",
          "name": "previousOwner",
          "type": "address"
        },
        {
          "indexed": true,
          "internalType": "address",
          "name": "newOwner",
          "type": "address"
        }
      ],
      "name": "OwnershipTransferred",
      "type": "event"
    },
    {
      "anonymous": false,
      "inputs": [
        {
          "indexed": true,
          "internalType": "uint256",
          "name": "tokenId",
          "type": "uint256"
        },
        {
          "indexed": true,
          "internalType": "address",
          "name": "from",
          "type": "address"
        },
        {
          "indexed": true,
          "internalType": "address",
          "name": "to",
          "type": "address"
        },
        {
          "indexed": false,
          "internalType": "uint256",
          "name": "amount",
          "type": "uint256"
        }
      ],
      "name": "TokenTransferred",
      "type": "event"
    },
    {
      "anonymous": false,
      "inputs": [
        {
          "indexed": true,
          "internalType": "address",
          "name": "operator",
          "type": "address"
        },
        {
          "indexed": true,
          "internalType": "address",
          "name": "from",
          "type": "address"
        },
        {
          "indexed": true,
          "internalType": "address",
          "name": "to",
          "type": "address"
        },
        {
          "indexed": false,
          "internalType": "uint256[]",
          "name": "ids",
          "type": "uint256[]"
        },
        {
          "indexed": false,
          "internalType": "uint256[]",
          "name": "values",
          "type": "uint256[]"
        }
      ],
      "name": "TransferBatch",
      "type": "event"
    },
    {
      "anonymous": false,
      "inputs": [
        {
          "indexed": true,
          "internalType": "address",
          "name": "operator",
          "type": "address"
        },
        {
          "indexed": true,
          "internalType": "address",
          "name": "from",
          "type": "address"
        },
        {
          "indexed": true,
          "internalType": "address",
          "name": "to",
          "type": "address"
        },
        {
          "indexed": false,
          "internalType": "uint256",
          "name": "id",
          "type": "uint256"
        },
        {
          "indexed": false,
          "internalType": "uint256",
          "name": "value",
          "type": "uint256"
        }
      ],
      "name": "TransferSingle",
      "type": "event"
    },
    {
      "anonymous": false,
      "inputs": [
        {
          "indexed": false,
          "internalType": "string",
          "name": "value",
          "type": "string"
        },
        {
          "indexed": true,
          "internalType": "uint256",
          "name": "id",
          "type": "uint256"
        }
      ],
      "name": "URI",
      "type": "event"
    },
    {
      "inputs": [
        {
          "internalType": "address",
          "name": "account",
          "type": "address"
        },
        {
          "internalType": "uint256",
          "name": "id",
          "type": "uint256"
        }
      ],
      "name": "balanceOf",
      "outputs": [
        {
          "internalType": "uint256",
          "name": "",
          "type": "uint256"
        }
      ],
      "stateMutability": "view",
      "type": "function",
      "constant": true
    },
    {
      "inputs": [
        {
          "internalType": "address[]",
          "name": "accounts",
          "type": "address[]"
        },
        {
          "internalType": "uint256[]",
          "name": "ids",
          "type": "uint256[]"
        }
      ],
      "name": "balanceOfBatch",
      "outputs": [
        {
          "internalType": "uint256[]",
          "name": "",
          "type": "uint256[]"
        }
      ],
      "stateMutability": "view",
      "type": "function",
      "constant": true
    },
    {
      "inputs": [
        {
          "internalType": "address",
          "name": "account",
          "type": "address"
        },
        {
          "internalType": "uint256",
          "name": "id",
          "type": "uint256"
        },
        {
          "internalType": "uint256",
          "name": "value",
          "type": "uint256"
        }
      ],
      "name": "burn",
      "outputs": [],
      "stateMutability": "nonpayable",
      "type": "function"
    },
    {
      "inputs": [
        {
          "internalType": "address",
          "name": "account",
          "type": "address"
        },
        {
          "internalType": "uint256[]",
          "name": "ids",
          "type": "uint256[]"
        },
        {
          "internalType": "uint256[]",
          "name": "values",
          "type": "uint256[]"
        }
      ],
      "name": "burnBatch",
      "outputs": [],
      "stateMutability": "nonpayable",
      "type": "function"
    },
    {
      "inputs": [
        {
          "internalType": "address",
          "name": "account",
          "type": "address"
        },
        {
          "internalType": "address",
          "name": "operator",
          "type": "address"
        }
      ],
      "name": "isApprovedForAll",
      "outputs": [
        {
          "internalType": "bool",
          "name": "",
          "type": "bool"
        }
      ],
      "stateMutability": "view",
      "type": "function",
      "constant": true
    },
    {
      "inputs": [],
      "name": "owner",
      "outputs": [
        {
          "internalType": "address",
          "name": "",
          "type": "address"
        }
      ],
      "stateMutability": "view",
      "type": "function",
      "constant": true
    },
    {
      "inputs": [],
      "name": "renounceOwnership",
      "outputs": [],
      "stateMutability": "nonpayable",
      "type": "function"
    },
    {
      "inputs": [
        {
          "internalType": "address",
          "name": "from",
          "type": "address"
        },
        {
          "internalType": "address",
          "name": "to",
          "type": "address"
        },
        {
          "internalType": "uint256[]",
          "name": "ids",
          "type": "uint256[]"
        },
        {
          "internalType": "uint256[]",
          "name": "amounts",
          "type": "uint256[]"
        },
        {
          "internalType": "bytes",
          "name": "data",
          "type": "bytes"
        }
      ],
      "name": "safeBatchTransferFrom",
      "outputs": [],
      "stateMutability": "nonpayable",
      "type": "function"
    },
    {
      "inputs": [
        {
          "internalType": "address",
          "name": "from",
          "type": "address"
        },
        {
          "internalType": "address",
          "name": "to",
          "type": "address"
        },
        {
          "internalType": "uint256",
          "name": "id",
          "type": "uint256"
        },
        {
          "internalType": "uint256",
          "name": "amount",
          "type": "uint256"
        },
        {
          "internalType": "bytes",
          "name": "data",
          "type": "bytes"
        }
      ],
      "name": "safeTransferFrom",
      "outputs": [],
      "stateMutability": "nonpayable",
      "type": "function"
    },
    {
      "inputs": [
        {
          "internalType": "address",
          "name": "operator",
          "type": "address"
        },
        {
          "internalType": "bool",
          "name": "approved",
          "type": "bool"
        }
      ],
      "name": "setApprovalForAll",
      "outputs": [],
      "stateMutability": "nonpayable",
      "type": "function"
    },
    {
      "inputs": [
        {
          "internalType": "bytes4",
          "name": "interfaceId",
          "type": "bytes4"
        }
      ],
      "name": "supportsInterface",
      "outputs": [
        {
          "internalType": "bool",
          "name": "",
          "type": "bool"
        }
      ],
      "stateMutability": "view",
      "type": "function",
      "constant": true
    },
    {
      "inputs": [
        {
          "internalType": "address",
          "name": "newOwner",
          "type": "address"
        }
      ],
      "name": "transferOwnership",
      "outputs": [],
      "stateMutability": "nonpayable",
      "type": "function"
    },
    {
      "inputs": [
        {
          "internalType": "uint256",
          "name": "tokenId",
          "type": "uint256"
        }
      ],
      "name": "uri",
      "outputs": [
        {
          "internalType": "string",
          "name": "",
          "type": "string"
        }
      ],
      "stateMutability": "pure",
      "type": "function",
      "constant": true
    },
    {
      "inputs": [
        {
          "internalType": "address",
          "name": "account",
          "type": "address"
        },
        {
          "internalType": "uint256",
          "name": "id",
          "type": "uint256"
        },
        {
          "internalType": "uint256",
          "name": "amount",
          "type": "uint256"
        },
        {
          "internalType": "bytes",
          "name": "data",
          "type": "bytes"
        }
      ],
      "name": "mint",
      "outputs": [],
      "stateMutability": "nonpayable",
      "type": "function"
    },
    {
      "inputs": [
        {
          "internalType": "uint256",
          "name": "tokenId",
          "type": "uint256"
        }
      ],
      "name": "setURI",
      "outputs": [],
      "stateMutability": "nonpayable",
      "type": "function"
    },
    {
      "inputs": [
        {
          "internalType": "uint256",
          "name": "tokenId",
          "type": "uint256"
        }
      ],
      "name": "getTokenSold",
      "outputs": [
        {
          "internalType": "uint256",
          "name": "",
          "type": "uint256"
        }
      ],
      "stateMutability": "view",
      "type": "function",
      "constant": true
    },
    {
      "inputs": [
        {
          "internalType": "uint256",
          "name": "tokenId",
          "type": "uint256"
        },
        {
          "internalType": "uint256",
          "name": "amount",
          "type": "uint256"
        }
      ],
      "name": "updateTokenSold",
      "outputs": [],
      "stateMutability": "nonpayable",
      "type": "function"
    },
    {
      "inputs": [],
      "name": "getTotalTokensCount",
      "outputs": [
        {
          "internalType": "uint256",
          "name": "",
          "type": "uint256"
        }
      ],
      "stateMutability": "view",
      "type": "function",
      "constant": true
    },
    {
      "inputs": [
        {
          "internalType": "uint256",
          "name": "index",
          "type": "uint256"
        }
      ],
      "name": "getTokenByIndex",
      "outputs": [
        {
          "internalType": "uint256",
          "name": "",
          "type": "uint256"
        }
      ],
      "stateMutability": "view",
      "type": "function",
      "constant": true
    },
    {
      "inputs": [
        {
          "internalType": "uint256",
          "name": "tokenId",
          "type": "uint256"
        }
      ],
      "name": "getCarbonCredit",
      "outputs": [
        {
          "components": [
            {
              "internalType": "uint256",
              "name": "tokenId",
              "type": "uint256"
            },
            {
              "internalType": "address",
              "name": "initialOwner",
              "type": "address"
            },
            {
              "internalType": "enum CarbonBase.ApprovalStatus",
              "name": "status",
              "type": "uint8"
            },
            {
              "internalType": "uint256",
              "name": "pricePerCredit",
              "type": "uint256"
            },
            {
              "internalType": "bool",
              "name": "isListed",
              "type": "bool"
            }
          ],
          "internalType": "struct CarbonBase.CarbonCredit",
          "name": "",
          "type": "tuple"
        }
      ],
      "stateMutability": "view",
      "type": "function",
      "constant": true
    },
    {
      "inputs": [
        {
          "internalType": "uint256",
          "name": "tokenId",
          "type": "uint256"
        },
        {
          "internalType": "address",
          "name": "owner",
          "type": "address"
        },
        {
          "internalType": "enum CarbonBase.ApprovalStatus",
          "name": "status",
          "type": "uint8"
        },
        {
          "internalType": "uint256",
          "name": "pricePerCredit",
          "type": "uint256"
        },
        {
          "internalType": "bool",
          "name": "isListed",
          "type": "bool"
        }
      ],
      "name": "setCarbonCredit",
      "outputs": [],
      "stateMutability": "nonpayable",
      "type": "function"
    },
    {
      "inputs": [
        {
          "internalType": "uint256",
          "name": "tokenId",
          "type": "uint256"
        },
        {
          "internalType": "enum CarbonBase.ApprovalStatus",
          "name": "status",
          "type": "uint8"
        }
      ],
      "name": "updateStatus",
      "outputs": [],
      "stateMutability": "nonpayable",
      "type": "function"
    },
    {
      "inputs": [
        {
          "internalType": "uint256",
          "name": "tokenId",
          "type": "uint256"
        },
        {
          "internalType": "uint256",
          "name": "price",
          "type": "uint256"
        }
      ],
      "name": "updatePrice",
      "outputs": [],
      "stateMutability": "nonpayable",
      "type": "function"
    },
    {
      "inputs": [
        {
          "internalType": "uint256",
          "name": "tokenId",
          "type": "uint256"
        },
        {
          "internalType": "bool",
          "name": "isListed",
          "type": "bool"
        }
      ],
      "name": "updateListed",
      "outputs": [],
      "stateMutability": "nonpayable",
      "type": "function"
    },
    {
      "inputs": [
        {
          "internalType": "uint256",
          "name": "tokenId",
          "type": "uint256"
        }
      ],
      "name": "getTokenSupply",
      "outputs": [
        {
          "internalType": "uint256",
          "name": "",
          "type": "uint256"
        }
      ],
      "stateMutability": "view",
      "type": "function",
      "constant": true
    },
    {
      "inputs": [
        {
          "internalType": "address",
          "name": "owner",
          "type": "address"
        }
      ],
      "name": "getOwnedTokensCount",
      "outputs": [
        {
          "internalType": "uint256",
          "name": "",
          "type": "uint256"
        }
      ],
      "stateMutability": "view",
      "type": "function",
      "constant": true
    },
    {
      "inputs": [
        {
          "internalType": "address",
          "name": "owner",
          "type": "address"
        },
        {
          "internalType": "uint256",
          "name": "index",
          "type": "uint256"
        }
      ],
      "name": "getOwnerTokenByIndex",
      "outputs": [
        {
          "internalType": "uint256",
          "name": "",
          "type": "uint256"
        }
      ],
      "stateMutability": "view",
      "type": "function",
      "constant": true
    },
    {
      "inputs": [],
      "name": "getOwnedCredits",
      "outputs": [
        {
          "components": [
            {
              "internalType": "uint256",
              "name": "tokenId",
              "type": "uint256"
            },
            {
              "internalType": "address",
              "name": "initialOwner",
              "type": "address"
            },
            {
              "internalType": "enum CarbonBase.ApprovalStatus",
              "name": "status",
              "type": "uint8"
            },
            {
              "internalType": "uint256",
              "name": "pricePerCredit",
              "type": "uint256"
            },
            {
              "internalType": "bool",
              "name": "isListed",
              "type": "bool"
            }
          ],
          "internalType": "struct CarbonBase.CarbonCredit[]",
          "name": "",
          "type": "tuple[]"
        }
      ],
      "stateMutability": "view",
      "type": "function",
      "constant": true
    },
    {
      "inputs": [
        {
          "internalType": "uint256",
          "name": "tokenId",
          "type": "uint256"
        }
      ],
      "name": "getTokenOwners",
      "outputs": [
        {
          "internalType": "address[]",
          "name": "",
          "type": "address[]"
        }
      ],
      "stateMutability": "view",
      "type": "function",
      "constant": true
    },
    {
      "inputs": [
        {
          "internalType": "uint256",
          "name": "tokenId",
          "type": "uint256"
        }
      ],
      "name": "getOwnerCount",
      "outputs": [
        {
          "internalType": "uint256",
          "name": "",
          "type": "uint256"
        }
      ],
      "stateMutability": "view",
      "type": "function",
      "constant": true
    }
  ],
  "bytecode": "0x608060405260405180602001604052806000815250600390805190602001906200002b92919062000176565b503480156200003957600080fd5b506040518060600160405280602b815260200162005658602b913962000065816200008c60201b60201c565b50620000866200007a620000a860201b60201c565b620000b060201b60201c565b6200028a565b8060029080519060200190620000a492919062000176565b5050565b600033905090565b6000600560009054906101000a900473ffffffffffffffffffffffffffffffffffffffff16905081600560006101000a81548173ffffffffffffffffffffffffffffffffffffffff021916908373ffffffffffffffffffffffffffffffffffffffff1602179055508173ffffffffffffffffffffffffffffffffffffffff168173ffffffffffffffffffffffffffffffffffffffff167f8be0079c531659141344cd1fd0a4f28419497f9722a3daafe3b4186f6b6457e060405160405180910390a35050565b828054620001849062000255565b90600052602060002090601f016020900481019282620001a85760008555620001f4565b82601f10620001c357805160ff1916838001178555620001f4565b82800160010185558215620001f4579182015b82811115620001f3578251825591602001919060010190620001d6565b5b50905062000203919062000207565b5090565b5b808211156200022257600081600090555060010162000208565b5090565b7f4e487b7100000000000000000000000000000000000000000000000000000000600052602260045260246000fd5b600060028204905060018216806200026e57607f821691505b60208210810362000284576200028362000226565b5b50919050565b6153be806200029a6000396000f3fe608060405234801561001057600080fd5b50600436106101d95760003560e01c8063731133e911610104578063b795a881116100a2578063f242432a11610071578063f242432a1461059a578063f2fde38b146105b6578063f392243b146105d2578063f5298aca14610602576101d9565b8063b795a88114610514578063e985e9c514610530578063ed45aa4514610560578063eeb2982f1461057e576101d9565b80639c0ab5ec116100de5780639c0ab5ec14610490578063a22cb465146104ac578063ab97c4bb146104c8578063ac6ad32e146104f8576101d9565b8063731133e91461043a57806382367b2d146104565780638da5cb5b14610472576101d9565b80633a1b3d311161017c578063681ece9d1161014b578063681ece9d146103b45780636ab29975146103e45780636b20c45414610414578063715018a614610430576101d9565b80633a1b3d31146103085780634e1273f41461032457806364457aad14610354578063644b7a4314610384576101d9565b80630e89341c116101b85780630e89341c1461025c57806313f66c9a1461028c57806319b88edb146102bc5780632eb2c2d6146102ec576101d9565b8062fdd58e146101de57806301ffc9a71461020e5780630b2f67251461023e575b600080fd5b6101f860048036038101906101f3919061368d565b61061e565b60405161020591906136dc565b60405180910390f35b6102286004803603810190610223919061374f565b6106e6565b6040516102359190613797565b60405180910390f35b6102466107c8565b60405161025391906136dc565b60405180910390f35b610276600480360381019061027191906137b2565b6107d5565b6040516102839190613878565b60405180910390f35b6102a660048036038101906102a191906137b2565b610806565b6040516102b391906136dc565b60405180910390f35b6102d660048036038101906102d191906137b2565b610823565b6040516102e391906136dc565b60405180910390f35b61030660048036038101906103019190613a97565b610840565b005b610322600480360381019061031d9190613b8b565b6108e1565b005b61033e60048036038101906103399190613c8e565b610923565b60405161034b9190613dc4565b60405180910390f35b61036e600480360381019061036991906137b2565b610a3c565b60405161037b91906136dc565b60405180910390f35b61039e600480360381019061039991906137b2565b610a59565b6040516103ab91906136dc565b60405180910390f35b6103ce60048036038101906103c991906137b2565b610aca565b6040516103db9190613ea4565b60405180910390f35b6103fe60048036038101906103f99190613ec6565b610b6b565b60405161040b91906136dc565b60405180910390f35b61042e60048036038101906104299190613ef3565b610bb7565b005b610438610c54565b005b610454600480360381019061044f9190613f7e565b610c68565b005b610470600480360381019061046b9190614001565b610c7a565b005b61047a610c99565b6040516104879190614050565b60405180910390f35b6104aa60048036038101906104a59190614097565b610cc3565b005b6104c660048036038101906104c191906140d7565b610cf5565b005b6104e260048036038101906104dd919061368d565b610d0b565b6040516104ef91906136dc565b60405180910390f35b610512600480360381019061050d91906137b2565b610dc4565b005b61052e60048036038101906105299190614117565b610dd9565b005b61054a60048036038101906105459190614192565b610ef2565b6040516105579190613797565b60405180910390f35b610568610f86565b604051610575919061436f565b60405180910390f35b61059860048036038101906105939190614001565b611125565b005b6105b460048036038101906105af9190614391565b611153565b005b6105d060048036038101906105cb9190613ec6565b6111f4565b005b6105ec60048036038101906105e791906137b2565b611277565b6040516105f99190614490565b60405180910390f35b61061c600480360381019061061791906144ab565b611364565b005b60008073ffffffffffffffffffffffffffffffffffffffff168373ffffffffffffffffffffffffffffffffffffffff160361068e576040517f08c379a000000000000000000000000000000000000000000000000000000000815260040161068590614570565b60405180910390fd5b60008083815260200190815260200160002060008473ffffffffffffffffffffffffffffffffffffffff1673ffffffffffffffffffffffffffffffffffffffff16815260200190815260200160002054905092915050565b60007fd9b67a26000000000000000000000000000000000000000000000000000000007bffffffffffffffffffffffffffffffffffffffffffffffffffffffff1916827bffffffffffffffffffffffffffffffffffffffffffffffffffffffff191614806107b157507f0e89341c000000000000000000000000000000000000000000000000000000007bffffffffffffffffffffffffffffffffffffffffffffffffffffffff1916827bffffffffffffffffffffffffffffffffffffffffffffffffffffffff1916145b806107c157506107c082611401565b5b9050919050565b6000600680549050905090565b60606107e08261146b565b6040516020016107f091906146b0565b6040516020818303038152906040529050919050565b6000600d6000838152602001908152602001600020549050919050565b600060076000838152602001908152602001600020549050919050565b610848611539565b73ffffffffffffffffffffffffffffffffffffffff168573ffffffffffffffffffffffffffffffffffffffff16148061088e575061088d85610888611539565b610ef2565b5b6108cd576040517f08c379a00000000000000000000000000000000000000000000000000000000081526004016108c49061474f565b60405180910390fd5b6108da8585858585611541565b5050505050565b80600b600084815260200190815260200160002060010160146101000a81548160ff0219169083600281111561091a576109196141fe565b5b02179055505050565b60608151835114610969576040517f08c379a0000000000000000000000000000000000000000000000000000000008152600401610960906147e1565b60405180910390fd5b6000835167ffffffffffffffff8111156109865761098561389f565b5b6040519080825280602002602001820160405280156109b45781602001602082028036833780820191505090505b50905060005b8451811015610a3157610a018582815181106109d9576109d8614801565b5b60200260200101518583815181106109f4576109f3614801565b5b602002602001015161061e565b828281518110610a1457610a13614801565b5b60200260200101818152505080610a2a9061485f565b90506109ba565b508091505092915050565b6000600e6000838152602001908152602001600020549050919050565b6000610a636107c8565b8210610aa4576040517f08c379a0000000000000000000000000000000000000000000000000000000008152600401610a9b906148f3565b60405180910390fd5b60068281548110610ab857610ab7614801565b5b90600052602060002001549050919050565b6060600c6000838152602001908152602001600020805480602002602001604051908101604052809291908181526020018280548015610b5f57602002820191906000526020600020905b8160009054906101000a900473ffffffffffffffffffffffffffffffffffffffff1673ffffffffffffffffffffffffffffffffffffffff1681526020019060010190808311610b15575b50505050509050919050565b6000600960008373ffffffffffffffffffffffffffffffffffffffff1673ffffffffffffffffffffffffffffffffffffffff168152602001908152602001600020805490509050919050565b610bbf611539565b73ffffffffffffffffffffffffffffffffffffffff168373ffffffffffffffffffffffffffffffffffffffff161480610c055750610c0483610bff611539565b610ef2565b5b610c44576040517f08c379a0000000000000000000000000000000000000000000000000000000008152600401610c3b9061474f565b60405180910390fd5b610c4f838383611862565b505050565b610c5c611b30565b610c666000611bae565b565b610c7484848484611c74565b50505050565b80600b6000848152602001908152602001600020600201819055505050565b6000600560009054906101000a900473ffffffffffffffffffffffffffffffffffffffff16905090565b80600b600084815260200190815260200160002060030160006101000a81548160ff0219169083151502179055505050565b610d07610d00611539565b8383611e24565b5050565b6000610d1f83610d1a84610a59565b61061e565b8210610d60576040517f08c379a0000000000000000000000000000000000000000000000000000000008152600401610d57906148f3565b60405180910390fd5b600960008473ffffffffffffffffffffffffffffffffffffffff1673ffffffffffffffffffffffffffffffffffffffff1681526020019081526020016000208281548110610db157610db0614801565b5b9060005260206000200154905092915050565b610dd681610dd1836107d5565b611f90565b50565b6040518060a001604052808681526020018573ffffffffffffffffffffffffffffffffffffffff168152602001846002811115610e1957610e186141fe565b5b8152602001838152602001821515815250600b60008781526020019081526020016000206000820151816000015560208201518160010160006101000a81548173ffffffffffffffffffffffffffffffffffffffff021916908373ffffffffffffffffffffffffffffffffffffffff16021790555060408201518160010160146101000a81548160ff02191690836002811115610eb957610eb86141fe565b5b02179055506060820151816002015560808201518160030160006101000a81548160ff0219169083151502179055509050505050505050565b6000600160008473ffffffffffffffffffffffffffffffffffffffff1673ffffffffffffffffffffffffffffffffffffffff16815260200190815260200160002060008373ffffffffffffffffffffffffffffffffffffffff1673ffffffffffffffffffffffffffffffffffffffff16815260200190815260200160002060009054906101000a900460ff16905092915050565b60606000610f9333610b6b565b905060008167ffffffffffffffff811115610fb157610fb061389f565b5b604051908082528060200260200182016040528015610fea57816020015b610fd76134e9565b815260200190600190039081610fcf5790505b50905060005b8281101561111c5760006110043383610d0b565b90506000600b60008381526020019081526020016000209050806040518060a0016040529081600082015481526020016001820160009054906101000a900473ffffffffffffffffffffffffffffffffffffffff1673ffffffffffffffffffffffffffffffffffffffff1673ffffffffffffffffffffffffffffffffffffffff1681526020016001820160149054906101000a900460ff1660028111156110ae576110ad6141fe565b5b60028111156110c0576110bf6141fe565b5b8152602001600282015481526020016003820160009054906101000a900460ff1615151515815250508484815181106110fc576110fb614801565b5b6020026020010181905250505080806111149061485f565b915050610ff0565b50809250505090565b80600e600084815260200190815260200160002060008282546111489190614913565b925050819055505050565b61115b611539565b73ffffffffffffffffffffffffffffffffffffffff168573ffffffffffffffffffffffffffffffffffffffff1614806111a157506111a08561119b611539565b610ef2565b5b6111e0576040517f08c379a00000000000000000000000000000000000000000000000000000000081526004016111d79061474f565b60405180910390fd5b6111ed8585858585611ffc565b5050505050565b6111fc611b30565b600073ffffffffffffffffffffffffffffffffffffffff168173ffffffffffffffffffffffffffffffffffffffff160361126b576040517f08c379a0000000000000000000000000000000000000000000000000000000008152600401611262906149db565b60405180910390fd5b61127481611bae565b50565b61127f6134e9565b600b60008381526020019081526020016000206040518060a0016040529081600082015481526020016001820160009054906101000a900473ffffffffffffffffffffffffffffffffffffffff1673ffffffffffffffffffffffffffffffffffffffff1673ffffffffffffffffffffffffffffffffffffffff1681526020016001820160149054906101000a900460ff166002811115611322576113216141fe565b5b6002811115611334576113336141fe565b5b8152602001600282015481526020016003820160009054906101000a900460ff1615151515815250509050919050565b61136c611539565b73ffffffffffffffffffffffffffffffffffffffff168373ffffffffffffffffffffffffffffffffffffffff1614806113b257506113b1836113ac611539565b610ef2565b5b6113f1576040517f08c379a00000000000000000000000000000000000000000000000000000000081526004016113e89061474f565b60405180910390fd5b6113fc838383612297565b505050565b60007f01ffc9a7000000000000000000000000000000000000000000000000000000007bffffffffffffffffffffffffffffffffffffffffffffffffffffffff1916827bffffffffffffffffffffffffffffffffffffffffffffffffffffffff1916149050919050565b60606000600161147a846124dd565b01905060008167ffffffffffffffff8111156114995761149861389f565b5b6040519080825280601f01601f1916602001820160405280156114cb5781602001600182028036833780820191505090505b509050600082602001820190505b60011561152e578080600190039150507f3031323334353637383961626364656600000000000000000000000000000000600a86061a8153600a8581611522576115216149fb565b5b049450600085036114d9575b819350505050919050565b600033905090565b8151835114611585576040517f08c379a000000000000000000000000000000000000000000000000000000000815260040161157c90614a9c565b60405180910390fd5b600073ffffffffffffffffffffffffffffffffffffffff168473ffffffffffffffffffffffffffffffffffffffff16036115f4576040517f08c379a00000000000000000000000000000000000000000000000000000000081526004016115eb90614b2e565b60405180910390fd5b60006115fe611539565b905061160e818787878787612630565b60005b84518110156117bf57600085828151811061162f5761162e614801565b5b60200260200101519050600085838151811061164e5761164d614801565b5b60200260200101519050600080600084815260200190815260200160002060008b73ffffffffffffffffffffffffffffffffffffffff1673ffffffffffffffffffffffffffffffffffffffff168152602001908152602001600020549050818110156116ef576040517f08c379a00000000000000000000000000000000000000000000000000000000081526004016116e690614bc0565b60405180910390fd5b81810360008085815260200190815260200160002060008c73ffffffffffffffffffffffffffffffffffffffff1673ffffffffffffffffffffffffffffffffffffffff168152602001908152602001600020819055508160008085815260200190815260200160002060008b73ffffffffffffffffffffffffffffffffffffffff1673ffffffffffffffffffffffffffffffffffffffff16815260200190815260200160002060008282546117a49190614913565b92505081905550505050806117b89061485f565b9050611611565b508473ffffffffffffffffffffffffffffffffffffffff168673ffffffffffffffffffffffffffffffffffffffff168273ffffffffffffffffffffffffffffffffffffffff167f4a39dc06d4c0dbc64b70af90fd698a233a518aa5d07e595d983b8c0526c8f7fb8787604051611836929190614be0565b60405180910390a461184c81878787878761288c565b61185a818787878787612894565b505050505050565b600073ffffffffffffffffffffffffffffffffffffffff168373ffffffffffffffffffffffffffffffffffffffff16036118d1576040517f08c379a00000000000000000000000000000000000000000000000000000000081526004016118c890614c89565b60405180910390fd5b8051825114611915576040517f08c379a000000000000000000000000000000000000000000000000000000000815260040161190c90614a9c565b60405180910390fd5b600061191f611539565b905061193f81856000868660405180602001604052806000815250612630565b60005b8351811015611a8c5760008482815181106119605761195f614801565b5b60200260200101519050600084838151811061197f5761197e614801565b5b60200260200101519050600080600084815260200190815260200160002060008973ffffffffffffffffffffffffffffffffffffffff1673ffffffffffffffffffffffffffffffffffffffff16815260200190815260200160002054905081811015611a20576040517f08c379a0000000000000000000000000000000000000000000000000000000008152600401611a1790614d1b565b60405180910390fd5b81810360008085815260200190815260200160002060008a73ffffffffffffffffffffffffffffffffffffffff1673ffffffffffffffffffffffffffffffffffffffff168152602001908152602001600020819055505050508080611a849061485f565b915050611942565b50600073ffffffffffffffffffffffffffffffffffffffff168473ffffffffffffffffffffffffffffffffffffffff168273ffffffffffffffffffffffffffffffffffffffff167f4a39dc06d4c0dbc64b70af90fd698a233a518aa5d07e595d983b8c0526c8f7fb8686604051611b04929190614be0565b60405180910390a4611b2a8185600086866040518060200160405280600081525061288c565b50505050565b611b38611539565b73ffffffffffffffffffffffffffffffffffffffff16611b56610c99565b73ffffffffffffffffffffffffffffffffffffffff1614611bac576040517f08c379a0000000000000000000000000000000000000000000000000000000008152600401611ba390614d87565b60405180910390fd5b565b6000600560009054906101000a900473ffffffffffffffffffffffffffffffffffffffff16905081600560006101000a81548173ffffffffffffffffffffffffffffffffffffffff021916908373ffffffffffffffffffffffffffffffffffffffff1602179055508173ffffffffffffffffffffffffffffffffffffffff168173ffffffffffffffffffffffffffffffffffffffff167f8be0079c531659141344cd1fd0a4f28419497f9722a3daafe3b4186f6b6457e060405160405180910390a35050565b600073ffffffffffffffffffffffffffffffffffffffff168473ffffffffffffffffffffffffffffffffffffffff1603611ce3576040517f08c379a0000000000000000000000000000000000000000000000000000000008152600401611cda90614e19565b60405180910390fd5b6000611ced611539565b90506000611cfa85612a6b565b90506000611d0785612a6b565b9050611d1883600089858589612630565b8460008088815260200190815260200160002060008973ffffffffffffffffffffffffffffffffffffffff1673ffffffffffffffffffffffffffffffffffffffff1681526020019081526020016000206000828254611d779190614913565b925050819055508673ffffffffffffffffffffffffffffffffffffffff16600073ffffffffffffffffffffffffffffffffffffffff168473ffffffffffffffffffffffffffffffffffffffff167fc3d58168c5ae7397731d063d5bbf3d657854427343f4c083240f7aacaa2d0f628989604051611df5929190614e39565b60405180910390a4611e0c8360008985858961288c565b611e1b83600089898989612ae5565b50505050505050565b8173ffffffffffffffffffffffffffffffffffffffff168373ffffffffffffffffffffffffffffffffffffffff1603611e92576040517f08c379a0000000000000000000000000000000000000000000000000000000008152600401611e8990614ed4565b60405180910390fd5b80600160008573ffffffffffffffffffffffffffffffffffffffff1673ffffffffffffffffffffffffffffffffffffffff16815260200190815260200160002060008473ffffffffffffffffffffffffffffffffffffffff1673ffffffffffffffffffffffffffffffffffffffff16815260200190815260200160002060006101000a81548160ff0219169083151502179055508173ffffffffffffffffffffffffffffffffffffffff168373ffffffffffffffffffffffffffffffffffffffff167f17307eab39ab6107e8899845ad3d59bd9653f200f220920489ca2b5937696c3183604051611f839190613797565b60405180910390a3505050565b80600460008481526020019081526020016000209080519060200190611fb7929190613542565b50817f6bb7ff708619ba0610cba295a58592e0451dee2622938c8755667688daf3529b611fe3846107d5565b604051611ff09190613878565b60405180910390a25050565b600073ffffffffffffffffffffffffffffffffffffffff168473ffffffffffffffffffffffffffffffffffffffff160361206b576040517f08c379a000000000000000000000000000000000000000000000000000000000815260040161206290614b2e565b60405180910390fd5b6000612075611539565b9050600061208285612a6b565b9050600061208f85612a6b565b905061209f838989858589612630565b600080600088815260200190815260200160002060008a73ffffffffffffffffffffffffffffffffffffffff1673ffffffffffffffffffffffffffffffffffffffff16815260200190815260200160002054905085811015612136576040517f08c379a000000000000000000000000000000000000000000000000000000000815260040161212d90614bc0565b60405180910390fd5b85810360008089815260200190815260200160002060008b73ffffffffffffffffffffffffffffffffffffffff1673ffffffffffffffffffffffffffffffffffffffff168152602001908152602001600020819055508560008089815260200190815260200160002060008a73ffffffffffffffffffffffffffffffffffffffff1673ffffffffffffffffffffffffffffffffffffffff16815260200190815260200160002060008282546121eb9190614913565b925050819055508773ffffffffffffffffffffffffffffffffffffffff168973ffffffffffffffffffffffffffffffffffffffff168573ffffffffffffffffffffffffffffffffffffffff167fc3d58168c5ae7397731d063d5bbf3d657854427343f4c083240f7aacaa2d0f628a8a604051612268929190614e39565b60405180910390a461227e848a8a86868a61288c565b61228c848a8a8a8a8a612ae5565b505050505050505050565b600073ffffffffffffffffffffffffffffffffffffffff168373ffffffffffffffffffffffffffffffffffffffff1603612306576040517f08c379a00000000000000000000000000000000000000000000000000000000081526004016122fd90614c89565b60405180910390fd5b6000612310611539565b9050600061231d84612a6b565b9050600061232a84612a6b565b905061234a83876000858560405180602001604052806000815250612630565b600080600087815260200190815260200160002060008873ffffffffffffffffffffffffffffffffffffffff1673ffffffffffffffffffffffffffffffffffffffff168152602001908152602001600020549050848110156123e1576040517f08c379a00000000000000000000000000000000000000000000000000000000081526004016123d890614d1b565b60405180910390fd5b84810360008088815260200190815260200160002060008973ffffffffffffffffffffffffffffffffffffffff1673ffffffffffffffffffffffffffffffffffffffff16815260200190815260200160002081905550600073ffffffffffffffffffffffffffffffffffffffff168773ffffffffffffffffffffffffffffffffffffffff168573ffffffffffffffffffffffffffffffffffffffff167fc3d58168c5ae7397731d063d5bbf3d657854427343f4c083240f7aacaa2d0f6289896040516124ae929190614e39565b60405180910390a46124d48488600086866040518060200160405280600081525061288c565b50505050505050565b600080600090507a184f03e93ff9f4daa797ed6e38ed64bf6a1f010000000000000000831061253b577a184f03e93ff9f4daa797ed6e38ed64bf6a1f0100000000000000008381612531576125306149fb565b5b0492506040810190505b6d04ee2d6d415b85acef81000000008310612578576d04ee2d6d415b85acef8100000000838161256e5761256d6149fb565b5b0492506020810190505b662386f26fc1000083106125a757662386f26fc10000838161259d5761259c6149fb565b5b0492506010810190505b6305f5e10083106125d0576305f5e10083816125c6576125c56149fb565b5b0492506008810190505b61271083106125f55761271083816125eb576125ea6149fb565b5b0492506004810190505b60648310612618576064838161260e5761260d6149fb565b5b0492506002810190505b600a8310612627576001810190505b80915050919050565b61263e868686868686612cbc565b60005b835181101561288357600084828151811061265f5761265e614801565b5b60200260200101519050600073ffffffffffffffffffffffffffffffffffffffff168773ffffffffffffffffffffffffffffffffffffffff16036126d9576126a681612cc4565b8382815181106126b9576126b8614801565b5b602002602001015160076000838152602001908152602001600020819055505b600073ffffffffffffffffffffffffffffffffffffffff168773ffffffffffffffffffffffffffffffffffffffff1614158015612738575083828151811061272457612723614801565b5b6020026020010151612736888361061e565b145b15612752576127478782612d0d565b6127518188612f92565b5b600073ffffffffffffffffffffffffffffffffffffffff168673ffffffffffffffffffffffffffffffffffffffff161415801561279857506000612796878361061e565b145b156127b6576127a786826131f8565b6127b18187613274565b61286f565b600073ffffffffffffffffffffffffffffffffffffffff168673ffffffffffffffffffffffffffffffffffffffff160361286e578382815181106127fd576127fc614801565b5b60200260200101516007600083815260200190815260200160002060008282546128279190614ef4565b92505081905550600060076000838152602001908152602001600020540361286d5761286c85838151811061285f5761285e614801565b5b6020026020010151613324565b5b5b5b50808061287b9061485f565b915050612641565b50505050505050565b505050505050565b6128b38473ffffffffffffffffffffffffffffffffffffffff166133f5565b15612a63578373ffffffffffffffffffffffffffffffffffffffff1663bc197c8187878686866040518663ffffffff1660e01b81526004016128f9959493929190614f7d565b6020604051808303816000875af192505050801561293557506040513d601f19601f820116820180604052508101906129329190614ffa565b60015b6129da57612941615034565b806308c379a00361299d5750612955615056565b80612960575061299f565b806040517f08c379a00000000000000000000000000000000000000000000000000000000081526004016129949190613878565b60405180910390fd5b505b6040517f08c379a00000000000000000000000000000000000000000000000000000000081526004016129d190615158565b60405180910390fd5b63bc197c8160e01b7bffffffffffffffffffffffffffffffffffffffffffffffffffffffff1916817bffffffffffffffffffffffffffffffffffffffffffffffffffffffff191614612a61576040517f08c379a0000000000000000000000000000000000000000000000000000000008152600401612a58906151ea565b60405180910390fd5b505b505050505050565b60606000600167ffffffffffffffff811115612a8a57612a8961389f565b5b604051908082528060200260200182016040528015612ab85781602001602082028036833780820191505090505b5090508281600081518110612ad057612acf614801565b5b60200260200101818152505080915050919050565b612b048473ffffffffffffffffffffffffffffffffffffffff166133f5565b15612cb4578373ffffffffffffffffffffffffffffffffffffffff1663f23a6e6187878686866040518663ffffffff1660e01b8152600401612b4a95949392919061520a565b6020604051808303816000875af1925050508015612b8657506040513d601f19601f82011682018060405250810190612b839190614ffa565b60015b612c2b57612b92615034565b806308c379a003612bee5750612ba6615056565b80612bb15750612bf0565b806040517f08c379a0000000000000000000000000000000000000000000000000000000008152600401612be59190613878565b60405180910390fd5b505b6040517f08c379a0000000000000000000000000000000000000000000000000000000008152600401612c2290615158565b60405180910390fd5b63f23a6e6160e01b7bffffffffffffffffffffffffffffffffffffffffffffffffffffffff1916817bffffffffffffffffffffffffffffffffffffffffffffffffffffffff191614612cb2576040517f08c379a0000000000000000000000000000000000000000000000000000000008152600401612ca9906151ea565b60405180910390fd5b505b505050505050565b505050505050565b6006805490506008600083815260200190815260200160002081905550600681908060018154018082558091505060019003906000526020600020016000909190919091505550565b60006001600960008573ffffffffffffffffffffffffffffffffffffffff1673ffffffffffffffffffffffffffffffffffffffff16815260200190815260200160002080549050612d5e9190614ef4565b90506000600a60008573ffffffffffffffffffffffffffffffffffffffff1673ffffffffffffffffffffffffffffffffffffffff1681526020019081526020016000206000848152602001908152602001600020549050818114612ed3576000600960008673ffffffffffffffffffffffffffffffffffffffff1673ffffffffffffffffffffffffffffffffffffffff1681526020019081526020016000208381548110612e0f57612e0e614801565b5b9060005260206000200154905080600960008773ffffffffffffffffffffffffffffffffffffffff1673ffffffffffffffffffffffffffffffffffffffff1681526020019081526020016000208381548110612e6e57612e6d614801565b5b906000526020600020018190555081600a60008773ffffffffffffffffffffffffffffffffffffffff1673ffffffffffffffffffffffffffffffffffffffff168152602001908152602001600020600083815260200190815260200160002081905550505b600960008573ffffffffffffffffffffffffffffffffffffffff1673ffffffffffffffffffffffffffffffffffffffff168152602001908152602001600020805480612f2257612f21615264565b5b60019003818190600052602060002001600090559055600a60008573ffffffffffffffffffffffffffffffffffffffff1673ffffffffffffffffffffffffffffffffffffffff16815260200190815260200160002060008481526020019081526020016000206000905550505050565b6000600d60008481526020019081526020016000205411612fe8576040517f08c379a0000000000000000000000000000000000000000000000000000000008152600401612fdf906152df565b60405180910390fd5b6000600c600084815260200190815260200160002080549050905060005b818110156131f2578273ffffffffffffffffffffffffffffffffffffffff16600c6000868152602001908152602001600020828154811061304a57613049614801565b5b9060005260206000200160009054906101000a900473ffffffffffffffffffffffffffffffffffffffff1673ffffffffffffffffffffffffffffffffffffffff16036131df57600c60008581526020019081526020016000206001836130b09190614ef4565b815481106130c1576130c0614801565b5b9060005260206000200160009054906101000a900473ffffffffffffffffffffffffffffffffffffffff16600c6000868152602001908152602001600020828154811061311157613110614801565b5b9060005260206000200160006101000a81548173ffffffffffffffffffffffffffffffffffffffff021916908373ffffffffffffffffffffffffffffffffffffffff160217905550600c600085815260200190815260200160002080548061317c5761317b615264565b5b6001900381819060005260206000200160006101000a81549073ffffffffffffffffffffffffffffffffffffffff02191690559055600d600085815260200190815260200160002060008154809291906131d5906152ff565b91905055506131f2565b80806131ea9061485f565b915050613006565b50505050565b6000613204838361061e565b0361327057600960008373ffffffffffffffffffffffffffffffffffffffff1673ffffffffffffffffffffffffffffffffffffffff1681526020019081526020016000208190806001815401808255809150506001900390600052602060002001600090919091909150555b5050565b61327e8282613418565b61332057600c6000838152602001908152602001600020819080600181540180825580915050600190039060005260206000200160009091909190916101000a81548173ffffffffffffffffffffffffffffffffffffffff021916908373ffffffffffffffffffffffffffffffffffffffff160217905550600d6000838152602001908152602001600020600081548092919061331a9061485f565b91905055505b5050565b600060016006805490506133389190614ef4565b905060006008600084815260200190815260200160002054905060006006838154811061336857613367614801565b5b90600052602060002001549050806006838154811061338a57613389614801565b5b906000526020600020018190555081600860008381526020019081526020016000208190555060068054806133c2576133c1615264565b5b60019003818190600052602060002001600090559055600860008581526020019081526020016000206000905550505050565b6000808273ffffffffffffffffffffffffffffffffffffffff163b119050919050565b600080600090505b600c6000858152602001908152602001600020805490508110156134dd578273ffffffffffffffffffffffffffffffffffffffff16600c6000868152602001908152602001600020828154811061347a57613479614801565b5b9060005260206000200160009054906101000a900473ffffffffffffffffffffffffffffffffffffffff1673ffffffffffffffffffffffffffffffffffffffff16036134ca5760019150506134e3565b80806134d59061485f565b915050613420565b50600090505b92915050565b6040518060a0016040528060008152602001600073ffffffffffffffffffffffffffffffffffffffff1681526020016000600281111561352c5761352b6141fe565b5b8152602001600081526020016000151581525090565b82805461354e90615357565b90600052602060002090601f01602090048101928261357057600085556135b7565b82601f1061358957805160ff19168380011785556135b7565b828001600101855582156135b7579182015b828111156135b657825182559160200191906001019061359b565b5b5090506135c491906135c8565b5090565b5b808211156135e15760008160009055506001016135c9565b5090565b6000604051905090565b600080fd5b600080fd5b600073ffffffffffffffffffffffffffffffffffffffff82169050919050565b6000613624826135f9565b9050919050565b61363481613619565b811461363f57600080fd5b50565b6000813590506136518161362b565b92915050565b6000819050919050565b61366a81613657565b811461367557600080fd5b50565b60008135905061368781613661565b92915050565b600080604083850312156136a4576136a36135ef565b5b60006136b285828601613642565b92505060206136c385828601613678565b9150509250929050565b6136d681613657565b82525050565b60006020820190506136f160008301846136cd565b92915050565b60007fffffffff0000000000000000000000000000000000000000000000000000000082169050919050565b61372c816136f7565b811461373757600080fd5b50565b60008135905061374981613723565b92915050565b600060208284031215613765576137646135ef565b5b60006137738482850161373a565b91505092915050565b60008115159050919050565b6137918161377c565b82525050565b60006020820190506137ac6000830184613788565b92915050565b6000602082840312156137c8576137c76135ef565b5b60006137d684828501613678565b91505092915050565b600081519050919050565b600082825260208201905092915050565b60005b838110156138195780820151818401526020810190506137fe565b83811115613828576000848401525b50505050565b6000601f19601f8301169050919050565b600061384a826137df565b61385481856137ea565b93506138648185602086016137fb565b61386d8161382e565b840191505092915050565b60006020820190508181036000830152613892818461383f565b905092915050565b600080fd5b7f4e487b7100000000000000000000000000000000000000000000000000000000600052604160045260246000fd5b6138d78261382e565b810181811067ffffffffffffffff821117156138f6576138f561389f565b5b80604052505050565b60006139096135e5565b905061391582826138ce565b919050565b600067ffffffffffffffff8211156139355761393461389f565b5b602082029050602081019050919050565b600080fd5b600061395e6139598461391a565b6138ff565b9050808382526020820190506020840283018581111561398157613980613946565b5b835b818110156139aa57806139968882613678565b845260208401935050602081019050613983565b5050509392505050565b600082601f8301126139c9576139c861389a565b5b81356139d984826020860161394b565b91505092915050565b600080fd5b600067ffffffffffffffff821115613a0257613a0161389f565b5b613a0b8261382e565b9050602081019050919050565b82818337600083830152505050565b6000613a3a613a35846139e7565b6138ff565b905082815260208101848484011115613a5657613a556139e2565b5b613a61848285613a18565b509392505050565b600082601f830112613a7e57613a7d61389a565b5b8135613a8e848260208601613a27565b91505092915050565b600080600080600060a08688031215613ab357613ab26135ef565b5b6000613ac188828901613642565b9550506020613ad288828901613642565b945050604086013567ffffffffffffffff811115613af357613af26135f4565b5b613aff888289016139b4565b935050606086013567ffffffffffffffff811115613b2057613b1f6135f4565b5b613b2c888289016139b4565b925050608086013567ffffffffffffffff811115613b4d57613b4c6135f4565b5b613b5988828901613a69565b9150509295509295909350565b60038110613b7357600080fd5b50565b600081359050613b8581613b66565b92915050565b60008060408385031215613ba257613ba16135ef565b5b6000613bb085828601613678565b9250506020613bc185828601613b76565b9150509250929050565b600067ffffffffffffffff821115613be657613be561389f565b5b602082029050602081019050919050565b6000613c0a613c0584613bcb565b6138ff565b90508083825260208201905060208402830185811115613c2d57613c2c613946565b5b835b81811015613c565780613c428882613642565b845260208401935050602081019050613c2f565b5050509392505050565b600082601f830112613c7557613c7461389a565b5b8135613c85848260208601613bf7565b91505092915050565b60008060408385031215613ca557613ca46135ef565b5b600083013567ffffffffffffffff811115613cc357613cc26135f4565b5b613ccf85828601613c60565b925050602083013567ffffffffffffffff811115613cf057613cef6135f4565b5b613cfc858286016139b4565b9150509250929050565b600081519050919050565b600082825260208201905092915050565b6000819050602082019050919050565b613d3b81613657565b82525050565b6000613d4d8383613d32565b60208301905092915050565b6000602082019050919050565b6000613d7182613d06565b613d7b8185613d11565b9350613d8683613d22565b8060005b83811015613db7578151613d9e8882613d41565b9750613da983613d59565b925050600181019050613d8a565b5085935050505092915050565b60006020820190508181036000830152613dde8184613d66565b905092915050565b600081519050919050565b600082825260208201905092915050565b6000819050602082019050919050565b613e1b81613619565b82525050565b6000613e2d8383613e12565b60208301905092915050565b6000602082019050919050565b6000613e5182613de6565b613e5b8185613df1565b9350613e6683613e02565b8060005b83811015613e97578151613e7e8882613e21565b9750613e8983613e39565b925050600181019050613e6a565b5085935050505092915050565b60006020820190508181036000830152613ebe8184613e46565b905092915050565b600060208284031215613edc57613edb6135ef565b5b6000613eea84828501613642565b91505092915050565b600080600060608486031215613f0c57613f0b6135ef565b5b6000613f1a86828701613642565b935050602084013567ffffffffffffffff811115613f3b57613f3a6135f4565b5b613f47868287016139b4565b925050604084013567ffffffffffffffff811115613f6857613f676135f4565b5b613f74868287016139b4565b9150509250925092565b60008060008060808587031215613f9857613f976135ef565b5b6000613fa687828801613642565b9450506020613fb787828801613678565b9350506040613fc887828801613678565b925050606085013567ffffffffffffffff811115613fe957613fe86135f4565b5b613ff587828801613a69565b91505092959194509250565b60008060408385031215614018576140176135ef565b5b600061402685828601613678565b925050602061403785828601613678565b9150509250929050565b61404a81613619565b82525050565b60006020820190506140656000830184614041565b92915050565b6140748161377c565b811461407f57600080fd5b50565b6000813590506140918161406b565b92915050565b600080604083850312156140ae576140ad6135ef565b5b60006140bc85828601613678565b92505060206140cd85828601614082565b9150509250929050565b600080604083850312156140ee576140ed6135ef565b5b60006140fc85828601613642565b925050602061410d85828601614082565b9150509250929050565b600080600080600060a08688031215614133576141326135ef565b5b600061414188828901613678565b955050602061415288828901613642565b945050604061416388828901613b76565b935050606061417488828901613678565b925050608061418588828901614082565b9150509295509295909350565b600080604083850312156141a9576141a86135ef565b5b60006141b785828601613642565b92505060206141c885828601613642565b9150509250929050565b600081519050919050565b600082825260208201905092915050565b6000819050602082019050919050565b7f4e487b7100000000000000000000000000000000000000000000000000000000600052602160045260246000fd5b6003811061423e5761423d6141fe565b5b50565b600081905061424f8261422d565b919050565b600061425f82614241565b9050919050565b61426f81614254565b82525050565b61427e8161377c565b82525050565b60a08201600082015161429a6000850182613d32565b5060208201516142ad6020850182613e12565b5060408201516142c06040850182614266565b5060608201516142d36060850182613d32565b5060808201516142e66080850182614275565b50505050565b60006142f88383614284565b60a08301905092915050565b6000602082019050919050565b600061431c826141d2565b61432681856141dd565b9350614331836141ee565b8060005b8381101561436257815161434988826142ec565b975061435483614304565b925050600181019050614335565b5085935050505092915050565b600060208201905081810360008301526143898184614311565b905092915050565b600080600080600060a086880312156143ad576143ac6135ef565b5b60006143bb88828901613642565b95505060206143cc88828901613642565b94505060406143dd88828901613678565b93505060606143ee88828901613678565b925050608086013567ffffffffffffffff81111561440f5761440e6135f4565b5b61441b88828901613a69565b9150509295509295909350565b60a08201600082015161443e6000850182613d32565b5060208201516144516020850182613e12565b5060408201516144646040850182614266565b5060608201516144776060850182613d32565b50608082015161448a6080850182614275565b50505050565b600060a0820190506144a56000830184614428565b92915050565b6000806000606084860312156144c4576144c36135ef565b5b60006144d286828701613642565b93505060206144e386828701613678565b92505060406144f486828701613678565b9150509250925092565b7f455243313135353a2061646472657373207a65726f206973206e6f742061207660008201527f616c6964206f776e657200000000000000000000000000000000000000000000602082015250565b600061455a602a836137ea565b9150614565826144fe565b604082019050919050565b600060208201905081810360008301526145898161454d565b9050919050565b600081905092915050565b7f68747470733a2f2f676174657761792e70696e6174612e636c6f75642f69706660008201527f732f516d52614e785a6f7546756e6e446e6473353756476d747274413245424560208201527f464c65737a6158416f38475a665a38652f000000000000000000000000000000604082015250565b600061461d605183614590565b91506146288261459b565b605182019050919050565b600061463e826137df565b6146488185614590565b93506146588185602086016137fb565b80840191505092915050565b7f2e6a736f6e000000000000000000000000000000000000000000000000000000600082015250565b600061469a600583614590565b91506146a582614664565b600582019050919050565b60006146bb82614610565b91506146c78284614633565b91506146d28261468d565b915081905092915050565b7f455243313135353a2063616c6c6572206973206e6f7420746f6b656e206f776e60008201527f6572206f7220617070726f766564000000000000000000000000000000000000602082015250565b6000614739602e836137ea565b9150614744826146dd565b604082019050919050565b600060208201905081810360008301526147688161472c565b9050919050565b7f455243313135353a206163636f756e747320616e6420696473206c656e67746860008201527f206d69736d617463680000000000000000000000000000000000000000000000602082015250565b60006147cb6029836137ea565b91506147d68261476f565b604082019050919050565b600060208201905081810360008301526147fa816147be565b9050919050565b7f4e487b7100000000000000000000000000000000000000000000000000000000600052603260045260246000fd5b7f4e487b7100000000000000000000000000000000000000000000000000000000600052601160045260246000fd5b600061486a82613657565b91507fffffffffffffffffffffffffffffffffffffffffffffffffffffffffffffffff820361489c5761489b614830565b5b600182019050919050565b7f496e646578206f7574206f6620626f756e64732e000000000000000000000000600082015250565b60006148dd6014836137ea565b91506148e8826148a7565b602082019050919050565b6000602082019050818103600083015261490c816148d0565b9050919050565b600061491e82613657565b915061492983613657565b9250827fffffffffffffffffffffffffffffffffffffffffffffffffffffffffffffffff0382111561495e5761495d614830565b5b828201905092915050565b7f4f776e61626c653a206e6577206f776e657220697320746865207a65726f206160008201527f6464726573730000000000000000000000000000000000000000000000000000602082015250565b60006149c56026836137ea565b91506149d082614969565b604082019050919050565b600060208201905081810360008301526149f4816149b8565b9050919050565b7f4e487b7100000000000000000000000000000000000000000000000000000000600052601260045260246000fd5b7f455243313135353a2069647320616e6420616d6f756e7473206c656e6774682060008201527f6d69736d61746368000000000000000000000000000000000000000000000000602082015250565b6000614a866028836137ea565b9150614a9182614a2a565b604082019050919050565b60006020820190508181036000830152614ab581614a79565b9050919050565b7f455243313135353a207472616e7366657220746f20746865207a65726f20616460008201527f6472657373000000000000000000000000000000000000000000000000000000602082015250565b6000614b186025836137ea565b9150614b2382614abc565b604082019050919050565b60006020820190508181036000830152614b4781614b0b565b9050919050565b7f455243313135353a20696e73756666696369656e742062616c616e636520666f60008201527f72207472616e7366657200000000000000000000000000000000000000000000602082015250565b6000614baa602a836137ea565b9150614bb582614b4e565b604082019050919050565b60006020820190508181036000830152614bd981614b9d565b9050919050565b60006040820190508181036000830152614bfa8185613d66565b90508181036020830152614c0e8184613d66565b90509392505050565b7f455243313135353a206275726e2066726f6d20746865207a65726f206164647260008201527f6573730000000000000000000000000000000000000000000000000000000000602082015250565b6000614c736023836137ea565b9150614c7e82614c17565b604082019050919050565b60006020820190508181036000830152614ca281614c66565b9050919050565b7f455243313135353a206275726e20616d6f756e7420657863656564732062616c60008201527f616e636500000000000000000000000000000000000000000000000000000000602082015250565b6000614d056024836137ea565b9150614d1082614ca9565b604082019050919050565b60006020820190508181036000830152614d3481614cf8565b9050919050565b7f4f776e61626c653a2063616c6c6572206973206e6f7420746865206f776e6572600082015250565b6000614d716020836137ea565b9150614d7c82614d3b565b602082019050919050565b60006020820190508181036000830152614da081614d64565b9050919050565b7f455243313135353a206d696e7420746f20746865207a65726f2061646472657360008201527f7300000000000000000000000000000000000000000000000000000000000000602082015250565b6000614e036021836137ea565b9150614e0e82614da7565b604082019050919050565b60006020820190508181036000830152614e3281614df6565b9050919050565b6000604082019050614e4e60008301856136cd565b614e5b60208301846136cd565b9392505050565b7f455243313135353a2073657474696e6720617070726f76616c2073746174757360008201527f20666f722073656c660000000000000000000000000000000000000000000000602082015250565b6000614ebe6029836137ea565b9150614ec982614e62565b604082019050919050565b60006020820190508181036000830152614eed81614eb1565b9050919050565b6000614eff82613657565b9150614f0a83613657565b925082821015614f1d57614f1c614830565b5b828203905092915050565b600081519050919050565b600082825260208201905092915050565b6000614f4f82614f28565b614f598185614f33565b9350614f698185602086016137fb565b614f728161382e565b840191505092915050565b600060a082019050614f926000830188614041565b614f9f6020830187614041565b8181036040830152614fb18186613d66565b90508181036060830152614fc58185613d66565b90508181036080830152614fd98184614f44565b90509695505050505050565b600081519050614ff481613723565b92915050565b6000602082840312156150105761500f6135ef565b5b600061501e84828501614fe5565b91505092915050565b60008160e01c9050919050565b600060033d11156150535760046000803e615050600051615027565b90505b90565b600060443d106150e3576150686135e5565b60043d036004823e80513d602482011167ffffffffffffffff821117156150905750506150e3565b808201805167ffffffffffffffff8111156150ae57505050506150e3565b80602083010160043d0385018111156150cb5750505050506150e3565b6150da826020018501866138ce565b82955050505050505b90565b7f455243313135353a207472616e7366657220746f206e6f6e2d4552433131353560008201527f526563656976657220696d706c656d656e746572000000000000000000000000602082015250565b60006151426034836137ea565b915061514d826150e6565b604082019050919050565b6000602082019050818103600083015261517181615135565b9050919050565b7f455243313135353a204552433131353552656365697665722072656a6563746560008201527f6420746f6b656e73000000000000000000000000000000000000000000000000602082015250565b60006151d46028836137ea565b91506151df82615178565b604082019050919050565b60006020820190508181036000830152615203816151c7565b9050919050565b600060a08201905061521f6000830188614041565b61522c6020830187614041565b61523960408301866136cd565b61524660608301856136cd565b81810360808301526152588184614f44565b90509695505050505050565b7f4e487b7100000000000000000000000000000000000000000000000000000000600052603160045260246000fd5b7f4e6f206f776e65727320746f2072656d6f76652e000000000000000000000000600082015250565b60006152c96014836137ea565b91506152d482615293565b602082019050919050565b600060208201905081810360008301526152f8816152bc565b9050919050565b600061530a82613657565b91506000820361531d5761531c614830565b5b600182039050919050565b7f4e487b7100000000000000000000000000000000000000000000000000000000600052602260045260246000fd5b6000600282049050600182168061536f57607f821691505b60208210810361538257615381615328565b5b5091905056fea26469706673582212202cd65dcef5f77bf74acbfb7520384ef43dace06c6447d01d9179cd937b0a4c8164736f6c634300080d003368747470733a2f2f676174657761792e70696e6174612e636c6f75642f697066732f7b69647d2e6a736f6e",
  "immutableReferences": {},
  "source": "// SPDX-License-Identifier: MIT\npragma solidity ^0.8.13;\n\nimport \"@openzeppelin/contracts/token/ERC1155/extensions/ERC1155URIStorage.sol\";\nimport \"@openzeppelin/contracts/token/ERC1155/extensions/ERC1155Burnable.sol\";\nimport \"@openzeppelin/contracts/utils/Strings.sol\";\nimport \"./CarbonBase.sol\";\n\ncontract CarbonToken is CarbonBase {\n    uint256[] private _allTokenIds; // array of all token IDs\n    // uint256 public tokenIds;\n    // mapping(uint256 => CarbonCredit) public _idToCarbonCredit;\n    mapping(uint256 => uint256) private _idToTokenSupply; // mapping of token ID => total supply of token\n    mapping(uint256 => uint256) private _idToTokensIndex; // mapping of token ID => index of token in all tokens array\n    mapping(address => uint256[]) private _ownerToTokenIds; // mapping of owner => list of token IDs\n    mapping(address => mapping(uint256 => uint256)) private _ownedTokensIndex; // Mapping from token ID to index in the above array\n    mapping(uint256 => CarbonCredit) private _idToCarbonCredit;\n    mapping(uint256 => address[]) private _tokenOwners;\n    mapping(uint256 => uint256) private _ownerCount;\n    mapping(uint256 => uint256) private _tokenSold;\n\n    function mint(\n        address account,\n        uint256 id,\n        uint256 amount,\n        bytes memory data\n    ) public {\n        _mint(account, id, amount, data);\n    }\n\n    function setURI(uint256 tokenId) public {\n        _setURI(tokenId, uri(tokenId));\n    }\n\n    function getTokenSold(uint256 tokenId) public view returns (uint256) {\n        return _tokenSold[tokenId];\n    }\n\n    function updateTokenSold(uint256 tokenId, uint256 amount) public {\n        _tokenSold[tokenId] += amount;\n    }\n\n    function getTotalTokensCount() public view returns (uint256) {\n        // returns the total number of credits\n        return _allTokenIds.length;\n    }\n\n    function getTokenByIndex(uint256 index) public view returns (uint256) {\n        require(index < getTotalTokensCount(), \"Index out of bounds.\");\n        return _allTokenIds[index];\n    }\n\n    function getCarbonCredit(\n        uint256 tokenId\n    ) public view returns (CarbonCredit memory) {\n        return _idToCarbonCredit[tokenId];\n    }\n\n    function setCarbonCredit(\n        uint256 tokenId,\n        address owner,\n        ApprovalStatus status,\n        uint256 pricePerCredit,\n        bool isListed\n    ) public {\n        _idToCarbonCredit[tokenId] = CarbonCredit(\n            tokenId,\n            owner,\n            status,\n            pricePerCredit,\n            isListed\n        );\n    }\n\n    function updateStatus(uint256 tokenId, ApprovalStatus status) public {\n        _idToCarbonCredit[tokenId].status = status;\n    }\n\n    function updatePrice(uint256 tokenId, uint256 price) public {\n        _idToCarbonCredit[tokenId].pricePerCredit = price;\n    }\n\n    function updateListed(uint256 tokenId, bool isListed) public {\n        _idToCarbonCredit[tokenId].isListed = isListed;\n    }\n\n    function getTokenSupply(uint256 tokenId) public view returns (uint256) {\n        return _idToTokenSupply[tokenId];\n    }\n\n    function getOwnedTokensCount(address owner) public view returns (uint256) {\n        return _ownerToTokenIds[owner].length;\n    }\n\n    function getOwnerTokenByIndex(\n        address owner,\n        uint256 index\n    ) public view returns (uint256) {\n        require(\n            index < balanceOf(owner, getTokenByIndex(index)),\n            \"Index out of bounds.\"\n        );\n        return _ownerToTokenIds[owner][index];\n    }\n\n    function getOwnedCredits() public view returns (CarbonCredit[] memory) {\n        uint256 ownedCreditsCount = getOwnedTokensCount(msg.sender);\n        CarbonCredit[] memory credits = new CarbonCredit[](ownedCreditsCount);\n\n        for (uint i = 0; i < ownedCreditsCount; i++) {\n            uint tokenId = getOwnerTokenByIndex(msg.sender, i);\n            CarbonCredit storage credit = _idToCarbonCredit[tokenId];\n            credits[i] = credit;\n        }\n        return credits;\n    }\n\n    function getTokenOwners(\n        uint256 tokenId\n    ) public view returns (address[] memory) {\n        return _tokenOwners[tokenId];\n    }\n\n    function getOwnerCount(uint256 tokenId) public view returns (uint256) {\n        return _ownerCount[tokenId];\n    }\n\n    function _beforeTokenTransfer(\n        address operator,\n        address from,\n        address to,\n        uint256[] memory ids,\n        uint256[] memory amounts,\n        bytes memory data\n    ) internal override {\n        super._beforeTokenTransfer(operator, from, to, ids, amounts, data);\n\n        for (uint256 i = 0; i < ids.length; i++) {\n            uint256 tokenId = ids[i];\n            if (from == address(0)) {\n                // This implies the token is being minted\n                _addTokenToAllTokensEnumeration(tokenId);\n                _idToTokenSupply[tokenId] = amounts[i];\n            }\n            if (from != address(0) && balanceOf(from, tokenId) == amounts[i]) {\n                // checking before transfer\n                // This implies the sender is transferring all their units of this token type\n                _removeTokenFromOwnerEnumeration(from, tokenId);\n                _removeTokenOwner(tokenId, from);\n            }\n            if (to != address(0) && balanceOf(to, tokenId) == 0) {\n                // identify the first time tokens are transferred to a new holder.\n                // This implies the recipient did not previously own any units of this token type\n                _addTokenToOwnerEnumeration(to, tokenId);\n                _addTokenOwner(tokenId, to);\n            } else if (to == address(0)) {\n                // checking before burn\n                _idToTokenSupply[tokenId] -= amounts[i];\n                if (_idToTokenSupply[tokenId] == 0) {\n                    // This implies the recipient is burning all units of a token are burned\n                    _removeTokenFromAllTokensEnumeration(ids[i]);\n                }\n            }\n        }\n    }\n\n    function _removeTokenOwner(uint256 tokenId, address owner) private {\n        require(_ownerCount[tokenId] > 0, \"No owners to remove.\");\n        uint256 length = _tokenOwners[tokenId].length;\n        for (uint256 i = 0; i < length; i++) {\n            if (_tokenOwners[tokenId][i] == owner) {\n                _tokenOwners[tokenId][i] = _tokenOwners[tokenId][length - 1];\n                _tokenOwners[tokenId].pop();\n                _ownerCount[tokenId]--;\n                break;\n            }\n        }\n    }\n\n    function _isOwner(\n        uint256 tokenId,\n        address owner\n    ) private view returns (bool) {\n        for (uint256 i = 0; i < _tokenOwners[tokenId].length; i++) {\n            if (_tokenOwners[tokenId][i] == owner) {\n                return true;\n            }\n        }\n        return false;\n    }\n\n    function _addTokenOwner(uint256 tokenId, address owner) private {\n        if (!_isOwner(tokenId, owner)) {\n            _tokenOwners[tokenId].push(owner);\n            _ownerCount[tokenId]++;\n        }\n    }\n\n    function _addTokenToAllTokensEnumeration(uint256 tokenId) private {\n        _idToTokensIndex[tokenId] = _allTokenIds.length;\n        _allTokenIds.push(tokenId);\n    }\n\n    function _addTokenToOwnerEnumeration(address to, uint256 tokenId) private {\n        if (balanceOf(to, tokenId) == 0) {\n            // Token ID is new to this owner\n            _ownerToTokenIds[to].push(tokenId);\n        }\n    }\n\n    function _removeTokenFromOwnerEnumeration(\n        address owner,\n        uint256 tokenId\n    ) private {\n        // First, we need to find the index of this token ID in the owner's list of token IDs\n        uint256 lastTokenIndex = _ownerToTokenIds[owner].length - 1;\n        uint256 tokenIndex = _ownedTokensIndex[owner][tokenId];\n\n        // If the token being removed is not the last token in the list,\n        // swap the last token with the token to be removed.\n        if (tokenIndex != lastTokenIndex) {\n            uint256 lastTokenId = _ownerToTokenIds[owner][lastTokenIndex];\n\n            _ownerToTokenIds[owner][tokenIndex] = lastTokenId; // Move the last token to the slot of the to-be-removed token\n            _ownedTokensIndex[owner][lastTokenId] = tokenIndex; // Update the moved token's index\n        }\n\n        // Remove the last token's data (since it's now either removed or moved)\n        _ownerToTokenIds[owner].pop();\n        delete _ownedTokensIndex[owner][tokenId]; // Remove the deleted token's index\n    }\n\n    function _removeTokenFromAllTokensEnumeration(uint256 tokenId) private {\n        uint256 lastTokenIndex = _allTokenIds.length - 1;\n        uint256 tokenIndex = _idToTokensIndex[tokenId];\n        uint256 lastTokenId = _allTokenIds[lastTokenIndex];\n\n        _allTokenIds[tokenIndex] = lastTokenId; // Move the last token to the slot of the to-be-removed token\n        _idToTokensIndex[lastTokenId] = tokenIndex; // Update the moved token's index\n\n        // Remove the last token's data (since it's now either removed or moved)\n        _allTokenIds.pop();\n        delete _idToTokensIndex[tokenId]; // Remove the deleted token's index\n    }\n}\n",
  "sourcePath": "/Users/buudinhha/Vscode/DATN/main/contracts/CarbonToken.sol",
  "compiler": {
    "name": "solc",
    "version": "0.8.13+commit.abaa5c0e.Emscripten.clang"
  },
  "schemaVersion": "3.4.16",
  "updatedAt": "2024-05-08T07:14:48.295Z",
  "networkType": "ethereum",
  "devdoc": {
    "kind": "dev",
    "methods": {
      "balanceOf(address,uint256)": {
        "details": "See {IERC1155-balanceOf}. Requirements: - `account` cannot be the zero address."
      },
      "balanceOfBatch(address[],uint256[])": {
        "details": "See {IERC1155-balanceOfBatch}. Requirements: - `accounts` and `ids` must have the same length."
      },
      "isApprovedForAll(address,address)": {
        "details": "See {IERC1155-isApprovedForAll}."
      },
      "owner()": {
        "details": "Returns the address of the current owner."
      },
      "renounceOwnership()": {
        "details": "Leaves the contract without owner. It will not be possible to call `onlyOwner` functions. Can only be called by the current owner. NOTE: Renouncing ownership will leave the contract without an owner, thereby disabling any functionality that is only available to the owner."
      },
      "safeBatchTransferFrom(address,address,uint256[],uint256[],bytes)": {
        "details": "See {IERC1155-safeBatchTransferFrom}."
      },
      "safeTransferFrom(address,address,uint256,uint256,bytes)": {
        "details": "See {IERC1155-safeTransferFrom}."
      },
      "setApprovalForAll(address,bool)": {
        "details": "See {IERC1155-setApprovalForAll}."
      },
      "supportsInterface(bytes4)": {
        "details": "See {IERC165-supportsInterface}."
      },
      "transferOwnership(address)": {
        "details": "Transfers ownership of the contract to a new account (`newOwner`). Can only be called by the current owner."
      }
    },
    "version": 1
  },
  "userdoc": {
    "kind": "user",
    "methods": {},
    "version": 1
  }
}