{
  "contractName": "CarbonBase",
  "abi": [
    {
      "inputs": [],
      "stateMutability": "nonpayable",
      "type": "constructor"
    },
    {
      "anonymous": false,
      "inputs": [
        {
          "indexed": true,
          "internalType": "address",
          "name": "account",
          "type": "address"
        },
        {
          "indexed": true,
          "internalType": "address",
          "name": "operator",
          "type": "address"
        },
        {
          "indexed": false,
          "internalType": "bool",
          "name": "approved",
          "type": "bool"
        }
      ],
      "name": "ApprovalForAll",
      "type": "event"
    },
    {
      "anonymous": false,
      "inputs": [
        {
          "indexed": false,
          "internalType": "uint256",
          "name": "tokenId",
          "type": "uint256"
        },
        {
          "indexed": false,
          "internalType": "address",
          "name": "initialOwner",
          "type": "address"
        },
        {
          "indexed": false,
          "internalType": "enum CarbonBase.ApprovalStatus",
          "name": "status",
          "type": "uint8"
        },
        {
          "indexed": false,
          "internalType": "uint256",
          "name": "pricePerCredit",
          "type": "uint256"
        },
        {
          "indexed": false,
          "internalType": "bool",
          "name": "isListed",
          "type": "bool"
        }
      ],
      "name": "CarbonCreditCreated",
      "type": "event"
    },
    {
      "anonymous": false,
      "inputs": [
        {
          "indexed": false,
          "internalType": "uint256",
          "name": "tokenId",
          "type": "uint256"
        },
        {
          "indexed": false,
          "internalType": "address",
          "name": "initialOwner",
          "type": "address"
        },
        {
          "indexed": false,
          "internalType": "enum CarbonBase.ApprovalStatus",
          "name": "status",
          "type": "uint8"
        },
        {
          "indexed": false,
          "internalType": "uint256",
          "name": "pricePerCredit",
          "type": "uint256"
        },
        {
          "indexed": false,
          "internalType": "bool",
          "name": "isListed",
          "type": "bool"
        }
      ],
      "name": "CarbonCreditListed",
      "type": "event"
    },
    {
      "anonymous": false,
      "inputs": [
        {
          "indexed": true,
          "internalType": "address",
          "name": "previousOwner",
          "type": "address"
        },
        {
          "indexed": true,
          "internalType": "address",
          "name": "newOwner",
          "type": "address"
        }
      ],
      "name": "OwnershipTransferred",
      "type": "event"
    },
    {
      "anonymous": false,
      "inputs": [
        {
          "indexed": true,
          "internalType": "uint256",
          "name": "tokenId",
          "type": "uint256"
        },
        {
          "indexed": true,
          "internalType": "address",
          "name": "from",
          "type": "address"
        },
        {
          "indexed": true,
          "internalType": "address",
          "name": "to",
          "type": "address"
        },
        {
          "indexed": false,
          "internalType": "uint256",
          "name": "amount",
          "type": "uint256"
        }
      ],
      "name": "TokenTransferred",
      "type": "event"
    },
    {
      "anonymous": false,
      "inputs": [
        {
          "indexed": true,
          "internalType": "address",
          "name": "operator",
          "type": "address"
        },
        {
          "indexed": true,
          "internalType": "address",
          "name": "from",
          "type": "address"
        },
        {
          "indexed": true,
          "internalType": "address",
          "name": "to",
          "type": "address"
        },
        {
          "indexed": false,
          "internalType": "uint256[]",
          "name": "ids",
          "type": "uint256[]"
        },
        {
          "indexed": false,
          "internalType": "uint256[]",
          "name": "values",
          "type": "uint256[]"
        }
      ],
      "name": "TransferBatch",
      "type": "event"
    },
    {
      "anonymous": false,
      "inputs": [
        {
          "indexed": true,
          "internalType": "address",
          "name": "operator",
          "type": "address"
        },
        {
          "indexed": true,
          "internalType": "address",
          "name": "from",
          "type": "address"
        },
        {
          "indexed": true,
          "internalType": "address",
          "name": "to",
          "type": "address"
        },
        {
          "indexed": false,
          "internalType": "uint256",
          "name": "id",
          "type": "uint256"
        },
        {
          "indexed": false,
          "internalType": "uint256",
          "name": "value",
          "type": "uint256"
        }
      ],
      "name": "TransferSingle",
      "type": "event"
    },
    {
      "anonymous": false,
      "inputs": [
        {
          "indexed": false,
          "internalType": "string",
          "name": "value",
          "type": "string"
        },
        {
          "indexed": true,
          "internalType": "uint256",
          "name": "id",
          "type": "uint256"
        }
      ],
      "name": "URI",
      "type": "event"
    },
    {
      "inputs": [
        {
          "internalType": "address",
          "name": "account",
          "type": "address"
        },
        {
          "internalType": "uint256",
          "name": "id",
          "type": "uint256"
        }
      ],
      "name": "balanceOf",
      "outputs": [
        {
          "internalType": "uint256",
          "name": "",
          "type": "uint256"
        }
      ],
      "stateMutability": "view",
      "type": "function"
    },
    {
      "inputs": [
        {
          "internalType": "address[]",
          "name": "accounts",
          "type": "address[]"
        },
        {
          "internalType": "uint256[]",
          "name": "ids",
          "type": "uint256[]"
        }
      ],
      "name": "balanceOfBatch",
      "outputs": [
        {
          "internalType": "uint256[]",
          "name": "",
          "type": "uint256[]"
        }
      ],
      "stateMutability": "view",
      "type": "function"
    },
    {
      "inputs": [
        {
          "internalType": "address",
          "name": "account",
          "type": "address"
        },
        {
          "internalType": "uint256",
          "name": "id",
          "type": "uint256"
        },
        {
          "internalType": "uint256",
          "name": "value",
          "type": "uint256"
        }
      ],
      "name": "burn",
      "outputs": [],
      "stateMutability": "nonpayable",
      "type": "function"
    },
    {
      "inputs": [
        {
          "internalType": "address",
          "name": "account",
          "type": "address"
        },
        {
          "internalType": "uint256[]",
          "name": "ids",
          "type": "uint256[]"
        },
        {
          "internalType": "uint256[]",
          "name": "values",
          "type": "uint256[]"
        }
      ],
      "name": "burnBatch",
      "outputs": [],
      "stateMutability": "nonpayable",
      "type": "function"
    },
    {
      "inputs": [
        {
          "internalType": "address",
          "name": "account",
          "type": "address"
        },
        {
          "internalType": "address",
          "name": "operator",
          "type": "address"
        }
      ],
      "name": "isApprovedForAll",
      "outputs": [
        {
          "internalType": "bool",
          "name": "",
          "type": "bool"
        }
      ],
      "stateMutability": "view",
      "type": "function"
    },
    {
      "inputs": [],
      "name": "owner",
      "outputs": [
        {
          "internalType": "address",
          "name": "",
          "type": "address"
        }
      ],
      "stateMutability": "view",
      "type": "function"
    },
    {
      "inputs": [],
      "name": "renounceOwnership",
      "outputs": [],
      "stateMutability": "nonpayable",
      "type": "function"
    },
    {
      "inputs": [
        {
          "internalType": "address",
          "name": "from",
          "type": "address"
        },
        {
          "internalType": "address",
          "name": "to",
          "type": "address"
        },
        {
          "internalType": "uint256[]",
          "name": "ids",
          "type": "uint256[]"
        },
        {
          "internalType": "uint256[]",
          "name": "amounts",
          "type": "uint256[]"
        },
        {
          "internalType": "bytes",
          "name": "data",
          "type": "bytes"
        }
      ],
      "name": "safeBatchTransferFrom",
      "outputs": [],
      "stateMutability": "nonpayable",
      "type": "function"
    },
    {
      "inputs": [
        {
          "internalType": "address",
          "name": "from",
          "type": "address"
        },
        {
          "internalType": "address",
          "name": "to",
          "type": "address"
        },
        {
          "internalType": "uint256",
          "name": "id",
          "type": "uint256"
        },
        {
          "internalType": "uint256",
          "name": "amount",
          "type": "uint256"
        },
        {
          "internalType": "bytes",
          "name": "data",
          "type": "bytes"
        }
      ],
      "name": "safeTransferFrom",
      "outputs": [],
      "stateMutability": "nonpayable",
      "type": "function"
    },
    {
      "inputs": [
        {
          "internalType": "address",
          "name": "operator",
          "type": "address"
        },
        {
          "internalType": "bool",
          "name": "approved",
          "type": "bool"
        }
      ],
      "name": "setApprovalForAll",
      "outputs": [],
      "stateMutability": "nonpayable",
      "type": "function"
    },
    {
      "inputs": [
        {
          "internalType": "bytes4",
          "name": "interfaceId",
          "type": "bytes4"
        }
      ],
      "name": "supportsInterface",
      "outputs": [
        {
          "internalType": "bool",
          "name": "",
          "type": "bool"
        }
      ],
      "stateMutability": "view",
      "type": "function"
    },
    {
      "inputs": [
        {
          "internalType": "address",
          "name": "newOwner",
          "type": "address"
        }
      ],
      "name": "transferOwnership",
      "outputs": [],
      "stateMutability": "nonpayable",
      "type": "function"
    },
    {
      "inputs": [
        {
          "internalType": "uint256",
          "name": "tokenId",
          "type": "uint256"
        }
      ],
      "name": "uri",
      "outputs": [
        {
          "internalType": "string",
          "name": "",
          "type": "string"
        }
      ],
      "stateMutability": "view",
      "type": "function"
    }
  ],
  "bytecode": "0x608060405260405180602001604052806000815250600390805190602001906200002b9291906200016c565b503480156200003957600080fd5b50604051806020016040528060008152506200005b816200008260201b60201c565b506200007c620000706200009e60201b60201c565b620000a660201b60201c565b62000280565b80600290805190602001906200009a9291906200016c565b5050565b600033905090565b6000600560009054906101000a900473ffffffffffffffffffffffffffffffffffffffff16905081600560006101000a81548173ffffffffffffffffffffffffffffffffffffffff021916908373ffffffffffffffffffffffffffffffffffffffff1602179055508173ffffffffffffffffffffffffffffffffffffffff168173ffffffffffffffffffffffffffffffffffffffff167f8be0079c531659141344cd1fd0a4f28419497f9722a3daafe3b4186f6b6457e060405160405180910390a35050565b8280546200017a906200024b565b90600052602060002090601f0160209004810192826200019e5760008555620001ea565b82601f10620001b957805160ff1916838001178555620001ea565b82800160010185558215620001ea579182015b82811115620001e9578251825591602001919060010190620001cc565b5b509050620001f99190620001fd565b5090565b5b8082111562000218576000816000905550600101620001fe565b5090565b7f4e487b7100000000000000000000000000000000000000000000000000000000600052602260045260246000fd5b600060028204905060018216806200026457607f821691505b6020821081036200027a57620002796200021c565b5b50919050565b61336b80620002906000396000f3fe608060405234801561001057600080fd5b50600436106100ce5760003560e01c8063715018a61161008c578063e985e9c511610066578063e985e9c51461020f578063f242432a1461023f578063f2fde38b1461025b578063f5298aca14610277576100ce565b8063715018a6146101cb5780638da5cb5b146101d5578063a22cb465146101f3576100ce565b8062fdd58e146100d357806301ffc9a7146101035780630e89341c146101335780632eb2c2d6146101635780634e1273f41461017f5780636b20c454146101af575b600080fd5b6100ed60048036038101906100e89190611dbd565b610293565b6040516100fa9190611e0c565b60405180910390f35b61011d60048036038101906101189190611e7f565b61035b565b60405161012a9190611ec7565b60405180910390f35b61014d60048036038101906101489190611ee2565b61043d565b60405161015a9190611fa8565b60405180910390f35b61017d600480360381019061017891906121c7565b61044f565b005b61019960048036038101906101949190612359565b6104f0565b6040516101a6919061248f565b60405180910390f35b6101c960048036038101906101c491906124b1565b610609565b005b6101d36106a6565b005b6101dd6106ba565b6040516101ea919061254b565b60405180910390f35b61020d60048036038101906102089190612592565b6106e4565b005b610229600480360381019061022491906125d2565b6106fa565b6040516102369190611ec7565b60405180910390f35b61025960048036038101906102549190612612565b61078e565b005b610275600480360381019061027091906126a9565b61082f565b005b610291600480360381019061028c91906126d6565b6108b2565b005b60008073ffffffffffffffffffffffffffffffffffffffff168373ffffffffffffffffffffffffffffffffffffffff1603610303576040517f08c379a00000000000000000000000000000000000000000000000000000000081526004016102fa9061279b565b60405180910390fd5b60008083815260200190815260200160002060008473ffffffffffffffffffffffffffffffffffffffff1673ffffffffffffffffffffffffffffffffffffffff16815260200190815260200160002054905092915050565b60007fd9b67a26000000000000000000000000000000000000000000000000000000007bffffffffffffffffffffffffffffffffffffffffffffffffffffffff1916827bffffffffffffffffffffffffffffffffffffffffffffffffffffffff1916148061042657507f0e89341c000000000000000000000000000000000000000000000000000000007bffffffffffffffffffffffffffffffffffffffffffffffffffffffff1916827bffffffffffffffffffffffffffffffffffffffffffffffffffffffff1916145b8061043657506104358261094f565b5b9050919050565b6060610448826109b9565b9050919050565b610457610a9e565b73ffffffffffffffffffffffffffffffffffffffff168573ffffffffffffffffffffffffffffffffffffffff16148061049d575061049c85610497610a9e565b6106fa565b5b6104dc576040517f08c379a00000000000000000000000000000000000000000000000000000000081526004016104d39061282d565b60405180910390fd5b6104e98585858585610aa6565b5050505050565b60608151835114610536576040517f08c379a000000000000000000000000000000000000000000000000000000000815260040161052d906128bf565b60405180910390fd5b6000835167ffffffffffffffff81111561055357610552611fcf565b5b6040519080825280602002602001820160405280156105815781602001602082028036833780820191505090505b50905060005b84518110156105fe576105ce8582815181106105a6576105a56128df565b5b60200260200101518583815181106105c1576105c06128df565b5b6020026020010151610293565b8282815181106105e1576105e06128df565b5b602002602001018181525050806105f79061293d565b9050610587565b508091505092915050565b610611610a9e565b73ffffffffffffffffffffffffffffffffffffffff168373ffffffffffffffffffffffffffffffffffffffff161480610657575061065683610651610a9e565b6106fa565b5b610696576040517f08c379a000000000000000000000000000000000000000000000000000000000815260040161068d9061282d565b60405180910390fd5b6106a1838383610dc7565b505050565b6106ae611095565b6106b86000611113565b565b6000600560009054906101000a900473ffffffffffffffffffffffffffffffffffffffff16905090565b6106f66106ef610a9e565b83836111d9565b5050565b6000600160008473ffffffffffffffffffffffffffffffffffffffff1673ffffffffffffffffffffffffffffffffffffffff16815260200190815260200160002060008373ffffffffffffffffffffffffffffffffffffffff1673ffffffffffffffffffffffffffffffffffffffff16815260200190815260200160002060009054906101000a900460ff16905092915050565b610796610a9e565b73ffffffffffffffffffffffffffffffffffffffff168573ffffffffffffffffffffffffffffffffffffffff1614806107dc57506107db856107d6610a9e565b6106fa565b5b61081b576040517f08c379a00000000000000000000000000000000000000000000000000000000081526004016108129061282d565b60405180910390fd5b6108288585858585611345565b5050505050565b610837611095565b600073ffffffffffffffffffffffffffffffffffffffff168173ffffffffffffffffffffffffffffffffffffffff16036108a6576040517f08c379a000000000000000000000000000000000000000000000000000000000815260040161089d906129f7565b60405180910390fd5b6108af81611113565b50565b6108ba610a9e565b73ffffffffffffffffffffffffffffffffffffffff168373ffffffffffffffffffffffffffffffffffffffff16148061090057506108ff836108fa610a9e565b6106fa565b5b61093f576040517f08c379a00000000000000000000000000000000000000000000000000000000081526004016109369061282d565b60405180910390fd5b61094a8383836115e0565b505050565b60007f01ffc9a7000000000000000000000000000000000000000000000000000000007bffffffffffffffffffffffffffffffffffffffffffffffffffffffff1916827bffffffffffffffffffffffffffffffffffffffffffffffffffffffff1916149050919050565b606060006004600084815260200190815260200160002080546109db90612a46565b80601f0160208091040260200160405190810160405280929190818152602001828054610a0790612a46565b8015610a545780601f10610a2957610100808354040283529160200191610a54565b820191906000526020600020905b815481529060010190602001808311610a3757829003601f168201915b505050505090506000815111610a7257610a6d83611826565b610a96565b600381604051602001610a86929190612b47565b6040516020818303038152906040525b915050919050565b600033905090565b8151835114610aea576040517f08c379a0000000000000000000000000000000000000000000000000000000008152600401610ae190612bdd565b60405180910390fd5b600073ffffffffffffffffffffffffffffffffffffffff168473ffffffffffffffffffffffffffffffffffffffff1603610b59576040517f08c379a0000000000000000000000000000000000000000000000000000000008152600401610b5090612c6f565b60405180910390fd5b6000610b63610a9e565b9050610b738187878787876118ba565b60005b8451811015610d24576000858281518110610b9457610b936128df565b5b602002602001015190506000858381518110610bb357610bb26128df565b5b60200260200101519050600080600084815260200190815260200160002060008b73ffffffffffffffffffffffffffffffffffffffff1673ffffffffffffffffffffffffffffffffffffffff16815260200190815260200160002054905081811015610c54576040517f08c379a0000000000000000000000000000000000000000000000000000000008152600401610c4b90612d01565b60405180910390fd5b81810360008085815260200190815260200160002060008c73ffffffffffffffffffffffffffffffffffffffff1673ffffffffffffffffffffffffffffffffffffffff168152602001908152602001600020819055508160008085815260200190815260200160002060008b73ffffffffffffffffffffffffffffffffffffffff1673ffffffffffffffffffffffffffffffffffffffff1681526020019081526020016000206000828254610d099190612d21565b9250508190555050505080610d1d9061293d565b9050610b76565b508473ffffffffffffffffffffffffffffffffffffffff168673ffffffffffffffffffffffffffffffffffffffff168273ffffffffffffffffffffffffffffffffffffffff167f4a39dc06d4c0dbc64b70af90fd698a233a518aa5d07e595d983b8c0526c8f7fb8787604051610d9b929190612d77565b60405180910390a4610db18187878787876118c2565b610dbf8187878787876118ca565b505050505050565b600073ffffffffffffffffffffffffffffffffffffffff168373ffffffffffffffffffffffffffffffffffffffff1603610e36576040517f08c379a0000000000000000000000000000000000000000000000000000000008152600401610e2d90612e20565b60405180910390fd5b8051825114610e7a576040517f08c379a0000000000000000000000000000000000000000000000000000000008152600401610e7190612bdd565b60405180910390fd5b6000610e84610a9e565b9050610ea4818560008686604051806020016040528060008152506118ba565b60005b8351811015610ff1576000848281518110610ec557610ec46128df565b5b602002602001015190506000848381518110610ee457610ee36128df565b5b60200260200101519050600080600084815260200190815260200160002060008973ffffffffffffffffffffffffffffffffffffffff1673ffffffffffffffffffffffffffffffffffffffff16815260200190815260200160002054905081811015610f85576040517f08c379a0000000000000000000000000000000000000000000000000000000008152600401610f7c90612eb2565b60405180910390fd5b81810360008085815260200190815260200160002060008a73ffffffffffffffffffffffffffffffffffffffff1673ffffffffffffffffffffffffffffffffffffffff168152602001908152602001600020819055505050508080610fe99061293d565b915050610ea7565b50600073ffffffffffffffffffffffffffffffffffffffff168473ffffffffffffffffffffffffffffffffffffffff168273ffffffffffffffffffffffffffffffffffffffff167f4a39dc06d4c0dbc64b70af90fd698a233a518aa5d07e595d983b8c0526c8f7fb8686604051611069929190612d77565b60405180910390a461108f818560008686604051806020016040528060008152506118c2565b50505050565b61109d610a9e565b73ffffffffffffffffffffffffffffffffffffffff166110bb6106ba565b73ffffffffffffffffffffffffffffffffffffffff1614611111576040517f08c379a000000000000000000000000000000000000000000000000000000000815260040161110890612f1e565b60405180910390fd5b565b6000600560009054906101000a900473ffffffffffffffffffffffffffffffffffffffff16905081600560006101000a81548173ffffffffffffffffffffffffffffffffffffffff021916908373ffffffffffffffffffffffffffffffffffffffff1602179055508173ffffffffffffffffffffffffffffffffffffffff168173ffffffffffffffffffffffffffffffffffffffff167f8be0079c531659141344cd1fd0a4f28419497f9722a3daafe3b4186f6b6457e060405160405180910390a35050565b8173ffffffffffffffffffffffffffffffffffffffff168373ffffffffffffffffffffffffffffffffffffffff1603611247576040517f08c379a000000000000000000000000000000000000000000000000000000000815260040161123e90612fb0565b60405180910390fd5b80600160008573ffffffffffffffffffffffffffffffffffffffff1673ffffffffffffffffffffffffffffffffffffffff16815260200190815260200160002060008473ffffffffffffffffffffffffffffffffffffffff1673ffffffffffffffffffffffffffffffffffffffff16815260200190815260200160002060006101000a81548160ff0219169083151502179055508173ffffffffffffffffffffffffffffffffffffffff168373ffffffffffffffffffffffffffffffffffffffff167f17307eab39ab6107e8899845ad3d59bd9653f200f220920489ca2b5937696c31836040516113389190611ec7565b60405180910390a3505050565b600073ffffffffffffffffffffffffffffffffffffffff168473ffffffffffffffffffffffffffffffffffffffff16036113b4576040517f08c379a00000000000000000000000000000000000000000000000000000000081526004016113ab90612c6f565b60405180910390fd5b60006113be610a9e565b905060006113cb85611aa1565b905060006113d885611aa1565b90506113e88389898585896118ba565b600080600088815260200190815260200160002060008a73ffffffffffffffffffffffffffffffffffffffff1673ffffffffffffffffffffffffffffffffffffffff1681526020019081526020016000205490508581101561147f576040517f08c379a000000000000000000000000000000000000000000000000000000000815260040161147690612d01565b60405180910390fd5b85810360008089815260200190815260200160002060008b73ffffffffffffffffffffffffffffffffffffffff1673ffffffffffffffffffffffffffffffffffffffff168152602001908152602001600020819055508560008089815260200190815260200160002060008a73ffffffffffffffffffffffffffffffffffffffff1673ffffffffffffffffffffffffffffffffffffffff16815260200190815260200160002060008282546115349190612d21565b925050819055508773ffffffffffffffffffffffffffffffffffffffff168973ffffffffffffffffffffffffffffffffffffffff168573ffffffffffffffffffffffffffffffffffffffff167fc3d58168c5ae7397731d063d5bbf3d657854427343f4c083240f7aacaa2d0f628a8a6040516115b1929190612fd0565b60405180910390a46115c7848a8a86868a6118c2565b6115d5848a8a8a8a8a611b1b565b505050505050505050565b600073ffffffffffffffffffffffffffffffffffffffff168373ffffffffffffffffffffffffffffffffffffffff160361164f576040517f08c379a000000000000000000000000000000000000000000000000000000000815260040161164690612e20565b60405180910390fd5b6000611659610a9e565b9050600061166684611aa1565b9050600061167384611aa1565b9050611693838760008585604051806020016040528060008152506118ba565b600080600087815260200190815260200160002060008873ffffffffffffffffffffffffffffffffffffffff1673ffffffffffffffffffffffffffffffffffffffff1681526020019081526020016000205490508481101561172a576040517f08c379a000000000000000000000000000000000000000000000000000000000815260040161172190612eb2565b60405180910390fd5b84810360008088815260200190815260200160002060008973ffffffffffffffffffffffffffffffffffffffff1673ffffffffffffffffffffffffffffffffffffffff16815260200190815260200160002081905550600073ffffffffffffffffffffffffffffffffffffffff168773ffffffffffffffffffffffffffffffffffffffff168573ffffffffffffffffffffffffffffffffffffffff167fc3d58168c5ae7397731d063d5bbf3d657854427343f4c083240f7aacaa2d0f6289896040516117f7929190612fd0565b60405180910390a461181d848860008686604051806020016040528060008152506118c2565b50505050505050565b60606002805461183590612a46565b80601f016020809104026020016040519081016040528092919081815260200182805461186190612a46565b80156118ae5780601f10611883576101008083540402835291602001916118ae565b820191906000526020600020905b81548152906001019060200180831161189157829003601f168201915b50505050509050919050565b505050505050565b505050505050565b6118e98473ffffffffffffffffffffffffffffffffffffffff16611cf2565b15611a99578373ffffffffffffffffffffffffffffffffffffffff1663bc197c8187878686866040518663ffffffff1660e01b815260040161192f95949392919061304e565b6020604051808303816000875af192505050801561196b57506040513d601f19601f8201168201806040525081019061196891906130cb565b60015b611a1057611977613105565b806308c379a0036119d3575061198b613127565b8061199657506119d5565b806040517f08c379a00000000000000000000000000000000000000000000000000000000081526004016119ca9190611fa8565b60405180910390fd5b505b6040517f08c379a0000000000000000000000000000000000000000000000000000000008152600401611a0790613229565b60405180910390fd5b63bc197c8160e01b7bffffffffffffffffffffffffffffffffffffffffffffffffffffffff1916817bffffffffffffffffffffffffffffffffffffffffffffffffffffffff191614611a97576040517f08c379a0000000000000000000000000000000000000000000000000000000008152600401611a8e906132bb565b60405180910390fd5b505b505050505050565b60606000600167ffffffffffffffff811115611ac057611abf611fcf565b5b604051908082528060200260200182016040528015611aee5781602001602082028036833780820191505090505b5090508281600081518110611b0657611b056128df565b5b60200260200101818152505080915050919050565b611b3a8473ffffffffffffffffffffffffffffffffffffffff16611cf2565b15611cea578373ffffffffffffffffffffffffffffffffffffffff1663f23a6e6187878686866040518663ffffffff1660e01b8152600401611b809594939291906132db565b6020604051808303816000875af1925050508015611bbc57506040513d601f19601f82011682018060405250810190611bb991906130cb565b60015b611c6157611bc8613105565b806308c379a003611c245750611bdc613127565b80611be75750611c26565b806040517f08c379a0000000000000000000000000000000000000000000000000000000008152600401611c1b9190611fa8565b60405180910390fd5b505b6040517f08c379a0000000000000000000000000000000000000000000000000000000008152600401611c5890613229565b60405180910390fd5b63f23a6e6160e01b7bffffffffffffffffffffffffffffffffffffffffffffffffffffffff1916817bffffffffffffffffffffffffffffffffffffffffffffffffffffffff191614611ce8576040517f08c379a0000000000000000000000000000000000000000000000000000000008152600401611cdf906132bb565b60405180910390fd5b505b505050505050565b6000808273ffffffffffffffffffffffffffffffffffffffff163b119050919050565b6000604051905090565b600080fd5b600080fd5b600073ffffffffffffffffffffffffffffffffffffffff82169050919050565b6000611d5482611d29565b9050919050565b611d6481611d49565b8114611d6f57600080fd5b50565b600081359050611d8181611d5b565b92915050565b6000819050919050565b611d9a81611d87565b8114611da557600080fd5b50565b600081359050611db781611d91565b92915050565b60008060408385031215611dd457611dd3611d1f565b5b6000611de285828601611d72565b9250506020611df385828601611da8565b9150509250929050565b611e0681611d87565b82525050565b6000602082019050611e216000830184611dfd565b92915050565b60007fffffffff0000000000000000000000000000000000000000000000000000000082169050919050565b611e5c81611e27565b8114611e6757600080fd5b50565b600081359050611e7981611e53565b92915050565b600060208284031215611e9557611e94611d1f565b5b6000611ea384828501611e6a565b91505092915050565b60008115159050919050565b611ec181611eac565b82525050565b6000602082019050611edc6000830184611eb8565b92915050565b600060208284031215611ef857611ef7611d1f565b5b6000611f0684828501611da8565b91505092915050565b600081519050919050565b600082825260208201905092915050565b60005b83811015611f49578082015181840152602081019050611f2e565b83811115611f58576000848401525b50505050565b6000601f19601f8301169050919050565b6000611f7a82611f0f565b611f848185611f1a565b9350611f94818560208601611f2b565b611f9d81611f5e565b840191505092915050565b60006020820190508181036000830152611fc28184611f6f565b905092915050565b600080fd5b7f4e487b7100000000000000000000000000000000000000000000000000000000600052604160045260246000fd5b61200782611f5e565b810181811067ffffffffffffffff8211171561202657612025611fcf565b5b80604052505050565b6000612039611d15565b90506120458282611ffe565b919050565b600067ffffffffffffffff82111561206557612064611fcf565b5b602082029050602081019050919050565b600080fd5b600061208e6120898461204a565b61202f565b905080838252602082019050602084028301858111156120b1576120b0612076565b5b835b818110156120da57806120c68882611da8565b8452602084019350506020810190506120b3565b5050509392505050565b600082601f8301126120f9576120f8611fca565b5b813561210984826020860161207b565b91505092915050565b600080fd5b600067ffffffffffffffff82111561213257612131611fcf565b5b61213b82611f5e565b9050602081019050919050565b82818337600083830152505050565b600061216a61216584612117565b61202f565b90508281526020810184848401111561218657612185612112565b5b612191848285612148565b509392505050565b600082601f8301126121ae576121ad611fca565b5b81356121be848260208601612157565b91505092915050565b600080600080600060a086880312156121e3576121e2611d1f565b5b60006121f188828901611d72565b955050602061220288828901611d72565b945050604086013567ffffffffffffffff81111561222357612222611d24565b5b61222f888289016120e4565b935050606086013567ffffffffffffffff8111156122505761224f611d24565b5b61225c888289016120e4565b925050608086013567ffffffffffffffff81111561227d5761227c611d24565b5b61228988828901612199565b9150509295509295909350565b600067ffffffffffffffff8211156122b1576122b0611fcf565b5b602082029050602081019050919050565b60006122d56122d084612296565b61202f565b905080838252602082019050602084028301858111156122f8576122f7612076565b5b835b81811015612321578061230d8882611d72565b8452602084019350506020810190506122fa565b5050509392505050565b600082601f8301126123405761233f611fca565b5b81356123508482602086016122c2565b91505092915050565b600080604083850312156123705761236f611d1f565b5b600083013567ffffffffffffffff81111561238e5761238d611d24565b5b61239a8582860161232b565b925050602083013567ffffffffffffffff8111156123bb576123ba611d24565b5b6123c7858286016120e4565b9150509250929050565b600081519050919050565b600082825260208201905092915050565b6000819050602082019050919050565b61240681611d87565b82525050565b600061241883836123fd565b60208301905092915050565b6000602082019050919050565b600061243c826123d1565b61244681856123dc565b9350612451836123ed565b8060005b83811015612482578151612469888261240c565b975061247483612424565b925050600181019050612455565b5085935050505092915050565b600060208201905081810360008301526124a98184612431565b905092915050565b6000806000606084860312156124ca576124c9611d1f565b5b60006124d886828701611d72565b935050602084013567ffffffffffffffff8111156124f9576124f8611d24565b5b612505868287016120e4565b925050604084013567ffffffffffffffff81111561252657612525611d24565b5b612532868287016120e4565b9150509250925092565b61254581611d49565b82525050565b6000602082019050612560600083018461253c565b92915050565b61256f81611eac565b811461257a57600080fd5b50565b60008135905061258c81612566565b92915050565b600080604083850312156125a9576125a8611d1f565b5b60006125b785828601611d72565b92505060206125c88582860161257d565b9150509250929050565b600080604083850312156125e9576125e8611d1f565b5b60006125f785828601611d72565b925050602061260885828601611d72565b9150509250929050565b600080600080600060a0868803121561262e5761262d611d1f565b5b600061263c88828901611d72565b955050602061264d88828901611d72565b945050604061265e88828901611da8565b935050606061266f88828901611da8565b925050608086013567ffffffffffffffff8111156126905761268f611d24565b5b61269c88828901612199565b9150509295509295909350565b6000602082840312156126bf576126be611d1f565b5b60006126cd84828501611d72565b91505092915050565b6000806000606084860312156126ef576126ee611d1f565b5b60006126fd86828701611d72565b935050602061270e86828701611da8565b925050604061271f86828701611da8565b9150509250925092565b7f455243313135353a2061646472657373207a65726f206973206e6f742061207660008201527f616c6964206f776e657200000000000000000000000000000000000000000000602082015250565b6000612785602a83611f1a565b915061279082612729565b604082019050919050565b600060208201905081810360008301526127b481612778565b9050919050565b7f455243313135353a2063616c6c6572206973206e6f7420746f6b656e206f776e60008201527f6572206f7220617070726f766564000000000000000000000000000000000000602082015250565b6000612817602e83611f1a565b9150612822826127bb565b604082019050919050565b600060208201905081810360008301526128468161280a565b9050919050565b7f455243313135353a206163636f756e747320616e6420696473206c656e67746860008201527f206d69736d617463680000000000000000000000000000000000000000000000602082015250565b60006128a9602983611f1a565b91506128b48261284d565b604082019050919050565b600060208201905081810360008301526128d88161289c565b9050919050565b7f4e487b7100000000000000000000000000000000000000000000000000000000600052603260045260246000fd5b7f4e487b7100000000000000000000000000000000000000000000000000000000600052601160045260246000fd5b600061294882611d87565b91507fffffffffffffffffffffffffffffffffffffffffffffffffffffffffffffffff820361297a5761297961290e565b5b600182019050919050565b7f4f776e61626c653a206e6577206f776e657220697320746865207a65726f206160008201527f6464726573730000000000000000000000000000000000000000000000000000602082015250565b60006129e1602683611f1a565b91506129ec82612985565b604082019050919050565b60006020820190508181036000830152612a10816129d4565b9050919050565b7f4e487b7100000000000000000000000000000000000000000000000000000000600052602260045260246000fd5b60006002820490506001821680612a5e57607f821691505b602082108103612a7157612a70612a17565b5b50919050565b600081905092915050565b60008190508160005260206000209050919050565b60008154612aa481612a46565b612aae8186612a77565b94506001821660008114612ac95760018114612ada57612b0d565b60ff19831686528186019350612b0d565b612ae385612a82565b60005b83811015612b0557815481890152600182019150602081019050612ae6565b838801955050505b50505092915050565b6000612b2182611f0f565b612b2b8185612a77565b9350612b3b818560208601611f2b565b80840191505092915050565b6000612b538285612a97565b9150612b5f8284612b16565b91508190509392505050565b7f455243313135353a2069647320616e6420616d6f756e7473206c656e6774682060008201527f6d69736d61746368000000000000000000000000000000000000000000000000602082015250565b6000612bc7602883611f1a565b9150612bd282612b6b565b604082019050919050565b60006020820190508181036000830152612bf681612bba565b9050919050565b7f455243313135353a207472616e7366657220746f20746865207a65726f20616460008201527f6472657373000000000000000000000000000000000000000000000000000000602082015250565b6000612c59602583611f1a565b9150612c6482612bfd565b604082019050919050565b60006020820190508181036000830152612c8881612c4c565b9050919050565b7f455243313135353a20696e73756666696369656e742062616c616e636520666f60008201527f72207472616e7366657200000000000000000000000000000000000000000000602082015250565b6000612ceb602a83611f1a565b9150612cf682612c8f565b604082019050919050565b60006020820190508181036000830152612d1a81612cde565b9050919050565b6000612d2c82611d87565b9150612d3783611d87565b9250827fffffffffffffffffffffffffffffffffffffffffffffffffffffffffffffffff03821115612d6c57612d6b61290e565b5b828201905092915050565b60006040820190508181036000830152612d918185612431565b90508181036020830152612da58184612431565b90509392505050565b7f455243313135353a206275726e2066726f6d20746865207a65726f206164647260008201527f6573730000000000000000000000000000000000000000000000000000000000602082015250565b6000612e0a602383611f1a565b9150612e1582612dae565b604082019050919050565b60006020820190508181036000830152612e3981612dfd565b9050919050565b7f455243313135353a206275726e20616d6f756e7420657863656564732062616c60008201527f616e636500000000000000000000000000000000000000000000000000000000602082015250565b6000612e9c602483611f1a565b9150612ea782612e40565b604082019050919050565b60006020820190508181036000830152612ecb81612e8f565b9050919050565b7f4f776e61626c653a2063616c6c6572206973206e6f7420746865206f776e6572600082015250565b6000612f08602083611f1a565b9150612f1382612ed2565b602082019050919050565b60006020820190508181036000830152612f3781612efb565b9050919050565b7f455243313135353a2073657474696e6720617070726f76616c2073746174757360008201527f20666f722073656c660000000000000000000000000000000000000000000000602082015250565b6000612f9a602983611f1a565b9150612fa582612f3e565b604082019050919050565b60006020820190508181036000830152612fc981612f8d565b9050919050565b6000604082019050612fe56000830185611dfd565b612ff26020830184611dfd565b9392505050565b600081519050919050565b600082825260208201905092915050565b600061302082612ff9565b61302a8185613004565b935061303a818560208601611f2b565b61304381611f5e565b840191505092915050565b600060a082019050613063600083018861253c565b613070602083018761253c565b81810360408301526130828186612431565b905081810360608301526130968185612431565b905081810360808301526130aa8184613015565b90509695505050505050565b6000815190506130c581611e53565b92915050565b6000602082840312156130e1576130e0611d1f565b5b60006130ef848285016130b6565b91505092915050565b60008160e01c9050919050565b600060033d11156131245760046000803e6131216000516130f8565b90505b90565b600060443d106131b457613139611d15565b60043d036004823e80513d602482011167ffffffffffffffff821117156131615750506131b4565b808201805167ffffffffffffffff81111561317f57505050506131b4565b80602083010160043d03850181111561319c5750505050506131b4565b6131ab82602001850186611ffe565b82955050505050505b90565b7f455243313135353a207472616e7366657220746f206e6f6e2d4552433131353560008201527f526563656976657220696d706c656d656e746572000000000000000000000000602082015250565b6000613213603483611f1a565b915061321e826131b7565b604082019050919050565b6000602082019050818103600083015261324281613206565b9050919050565b7f455243313135353a204552433131353552656365697665722072656a6563746560008201527f6420746f6b656e73000000000000000000000000000000000000000000000000602082015250565b60006132a5602883611f1a565b91506132b082613249565b604082019050919050565b600060208201905081810360008301526132d481613298565b9050919050565b600060a0820190506132f0600083018861253c565b6132fd602083018761253c565b61330a6040830186611dfd565b6133176060830185611dfd565b81810360808301526133298184613015565b9050969550505050505056fea2646970667358221220f1cfe497040a4569cac5b7b094a4771945d620aff2bd442fb96ea18d32d3c84564736f6c634300080d0033",
  "immutableReferences": {},
  "source": "// SPDX-License-Identifier: MIT\npragma solidity ^0.8.13;\n\nimport \"@openzeppelin/contracts/token/ERC1155/extensions/ERC1155URIStorage.sol\";\nimport \"@openzeppelin/contracts/access/Ownable.sol\";\nimport \"@openzeppelin/contracts/token/ERC1155/extensions/ERC1155Burnable.sol\";\n\ncontract CarbonBase is ERC1155URIStorage, ERC1155Burnable, Ownable {\n    enum ApprovalStatus {\n        Pending,\n        Approved,\n        Declined\n    }\n\n    struct CarbonCredit {\n        uint256 tokenId;\n        address initialOwner;\n        ApprovalStatus status;\n        uint256 pricePerCredit;\n        bool isListed;\n    }\n\n    event CarbonCreditCreated(\n        uint256 tokenId,\n        address initialOwner,\n        ApprovalStatus status,\n        uint256 pricePerCredit,\n        bool isListed\n    );\n\n    event CarbonCreditListed(\n        uint256 tokenId,\n        address initialOwner,\n        ApprovalStatus status,\n        uint256 pricePerCredit,\n        bool isListed\n    );\n\n    event TokenTransferred(\n        uint256 indexed tokenId,\n        address indexed from,\n        address indexed to,\n        uint256 amount\n    );\n\n    constructor() ERC1155(\"\") {}\n\n    function uri(\n        uint256 tokenId\n    ) public view override(ERC1155, ERC1155URIStorage) returns (string memory) {\n        return super.uri(tokenId);\n    }\n}\n",
  "sourcePath": "/Users/buudinhha/Vscode/DATN/main/contracts/CarbonBase.sol",
  "compiler": {
    "name": "solc",
    "version": "0.8.13+commit.abaa5c0e.Emscripten.clang"
  },
  "schemaVersion": "3.4.16",
  "updatedAt": "2024-05-09T05:45:54.118Z",
  "devdoc": {
    "kind": "dev",
    "methods": {
      "balanceOf(address,uint256)": {
        "details": "See {IERC1155-balanceOf}. Requirements: - `account` cannot be the zero address."
      },
      "balanceOfBatch(address[],uint256[])": {
        "details": "See {IERC1155-balanceOfBatch}. Requirements: - `accounts` and `ids` must have the same length."
      },
      "isApprovedForAll(address,address)": {
        "details": "See {IERC1155-isApprovedForAll}."
      },
      "owner()": {
        "details": "Returns the address of the current owner."
      },
      "renounceOwnership()": {
        "details": "Leaves the contract without owner. It will not be possible to call `onlyOwner` functions. Can only be called by the current owner. NOTE: Renouncing ownership will leave the contract without an owner, thereby disabling any functionality that is only available to the owner."
      },
      "safeBatchTransferFrom(address,address,uint256[],uint256[],bytes)": {
        "details": "See {IERC1155-safeBatchTransferFrom}."
      },
      "safeTransferFrom(address,address,uint256,uint256,bytes)": {
        "details": "See {IERC1155-safeTransferFrom}."
      },
      "setApprovalForAll(address,bool)": {
        "details": "See {IERC1155-setApprovalForAll}."
      },
      "supportsInterface(bytes4)": {
        "details": "See {IERC165-supportsInterface}."
      },
      "transferOwnership(address)": {
        "details": "Transfers ownership of the contract to a new account (`newOwner`). Can only be called by the current owner."
      }
    },
    "version": 1
  },
  "userdoc": {
    "kind": "user",
    "methods": {},
    "version": 1
  }
}