{
  "contractName": "CarbonToken",
  "abi": [
    {
      "anonymous": false,
      "inputs": [
        {
          "indexed": true,
          "internalType": "address",
          "name": "account",
          "type": "address"
        },
        {
          "indexed": true,
          "internalType": "address",
          "name": "operator",
          "type": "address"
        },
        {
          "indexed": false,
          "internalType": "bool",
          "name": "approved",
          "type": "bool"
        }
      ],
      "name": "ApprovalForAll",
      "type": "event"
    },
    {
      "anonymous": false,
      "inputs": [
        {
          "indexed": false,
          "internalType": "uint256",
          "name": "tokenId",
          "type": "uint256"
        },
        {
          "indexed": false,
          "internalType": "address",
          "name": "auditor",
          "type": "address"
        },
        {
          "indexed": false,
          "internalType": "address",
          "name": "projectOwner",
          "type": "address"
        },
        {
          "indexed": false,
          "internalType": "enum CarbonBase.ApprovalStatus",
          "name": "status",
          "type": "uint8"
        },
        {
          "indexed": false,
          "internalType": "uint256",
          "name": "time",
          "type": "uint256"
        }
      ],
      "name": "CarbonCreditAudited",
      "type": "event"
    },
    {
      "anonymous": false,
      "inputs": [
        {
          "indexed": false,
          "internalType": "uint256",
          "name": "tokenId",
          "type": "uint256"
        },
        {
          "indexed": false,
          "internalType": "address",
          "name": "initialOwner",
          "type": "address"
        },
        {
          "indexed": false,
          "internalType": "uint256",
          "name": "amount",
          "type": "uint256"
        },
        {
          "indexed": false,
          "internalType": "uint256",
          "name": "creationTime",
          "type": "uint256"
        }
      ],
      "name": "CarbonCreditCreated",
      "type": "event"
    },
    {
      "anonymous": false,
      "inputs": [
        {
          "indexed": false,
          "internalType": "uint256",
          "name": "tokenId",
          "type": "uint256"
        },
        {
          "indexed": false,
          "internalType": "address",
          "name": "initialOwner",
          "type": "address"
        },
        {
          "indexed": false,
          "internalType": "uint256",
          "name": "amount",
          "type": "uint256"
        },
        {
          "indexed": false,
          "internalType": "uint256",
          "name": "pricePerCredit",
          "type": "uint256"
        },
        {
          "indexed": false,
          "internalType": "uint256",
          "name": "time",
          "type": "uint256"
        }
      ],
      "name": "CarbonCreditListed",
      "type": "event"
    },
    {
      "anonymous": false,
      "inputs": [
        {
          "indexed": false,
          "internalType": "uint256",
          "name": "tokenId",
          "type": "uint256"
        },
        {
          "indexed": false,
          "internalType": "address",
          "name": "from",
          "type": "address"
        },
        {
          "indexed": false,
          "internalType": "address",
          "name": "to",
          "type": "address"
        },
        {
          "indexed": false,
          "internalType": "uint256",
          "name": "amount",
          "type": "uint256"
        },
        {
          "indexed": false,
          "internalType": "uint256",
          "name": "time",
          "type": "uint256"
        }
      ],
      "name": "CarbonCreditPurchased",
      "type": "event"
    },
    {
      "anonymous": false,
      "inputs": [
        {
          "indexed": false,
          "internalType": "uint256",
          "name": "tokenId",
          "type": "uint256"
        },
        {
          "indexed": false,
          "internalType": "address",
          "name": "owner",
          "type": "address"
        },
        {
          "indexed": false,
          "internalType": "uint256",
          "name": "amount",
          "type": "uint256"
        },
        {
          "indexed": false,
          "internalType": "uint256",
          "name": "time",
          "type": "uint256"
        }
      ],
      "name": "CarbonCreditRetired",
      "type": "event"
    },
    {
      "anonymous": false,
      "inputs": [
        {
          "indexed": true,
          "internalType": "address",
          "name": "previousOwner",
          "type": "address"
        },
        {
          "indexed": true,
          "internalType": "address",
          "name": "newOwner",
          "type": "address"
        }
      ],
      "name": "OwnershipTransferred",
      "type": "event"
    },
    {
      "anonymous": false,
      "inputs": [
        {
          "indexed": true,
          "internalType": "address",
          "name": "operator",
          "type": "address"
        },
        {
          "indexed": true,
          "internalType": "address",
          "name": "from",
          "type": "address"
        },
        {
          "indexed": true,
          "internalType": "address",
          "name": "to",
          "type": "address"
        },
        {
          "indexed": false,
          "internalType": "uint256[]",
          "name": "ids",
          "type": "uint256[]"
        },
        {
          "indexed": false,
          "internalType": "uint256[]",
          "name": "values",
          "type": "uint256[]"
        }
      ],
      "name": "TransferBatch",
      "type": "event"
    },
    {
      "anonymous": false,
      "inputs": [
        {
          "indexed": true,
          "internalType": "address",
          "name": "operator",
          "type": "address"
        },
        {
          "indexed": true,
          "internalType": "address",
          "name": "from",
          "type": "address"
        },
        {
          "indexed": true,
          "internalType": "address",
          "name": "to",
          "type": "address"
        },
        {
          "indexed": false,
          "internalType": "uint256",
          "name": "id",
          "type": "uint256"
        },
        {
          "indexed": false,
          "internalType": "uint256",
          "name": "value",
          "type": "uint256"
        }
      ],
      "name": "TransferSingle",
      "type": "event"
    },
    {
      "anonymous": false,
      "inputs": [
        {
          "indexed": false,
          "internalType": "string",
          "name": "value",
          "type": "string"
        },
        {
          "indexed": true,
          "internalType": "uint256",
          "name": "id",
          "type": "uint256"
        }
      ],
      "name": "URI",
      "type": "event"
    },
    {
      "inputs": [
        {
          "internalType": "address",
          "name": "account",
          "type": "address"
        },
        {
          "internalType": "uint256",
          "name": "id",
          "type": "uint256"
        }
      ],
      "name": "balanceOf",
      "outputs": [
        {
          "internalType": "uint256",
          "name": "",
          "type": "uint256"
        }
      ],
      "stateMutability": "view",
      "type": "function",
      "constant": true
    },
    {
      "inputs": [
        {
          "internalType": "address[]",
          "name": "accounts",
          "type": "address[]"
        },
        {
          "internalType": "uint256[]",
          "name": "ids",
          "type": "uint256[]"
        }
      ],
      "name": "balanceOfBatch",
      "outputs": [
        {
          "internalType": "uint256[]",
          "name": "",
          "type": "uint256[]"
        }
      ],
      "stateMutability": "view",
      "type": "function",
      "constant": true
    },
    {
      "inputs": [
        {
          "internalType": "address",
          "name": "account",
          "type": "address"
        },
        {
          "internalType": "uint256",
          "name": "id",
          "type": "uint256"
        },
        {
          "internalType": "uint256",
          "name": "value",
          "type": "uint256"
        }
      ],
      "name": "burn",
      "outputs": [],
      "stateMutability": "nonpayable",
      "type": "function"
    },
    {
      "inputs": [
        {
          "internalType": "address",
          "name": "account",
          "type": "address"
        },
        {
          "internalType": "uint256[]",
          "name": "ids",
          "type": "uint256[]"
        },
        {
          "internalType": "uint256[]",
          "name": "values",
          "type": "uint256[]"
        }
      ],
      "name": "burnBatch",
      "outputs": [],
      "stateMutability": "nonpayable",
      "type": "function"
    },
    {
      "inputs": [
        {
          "internalType": "address",
          "name": "account",
          "type": "address"
        },
        {
          "internalType": "address",
          "name": "operator",
          "type": "address"
        }
      ],
      "name": "isApprovedForAll",
      "outputs": [
        {
          "internalType": "bool",
          "name": "",
          "type": "bool"
        }
      ],
      "stateMutability": "view",
      "type": "function",
      "constant": true
    },
    {
      "inputs": [],
      "name": "owner",
      "outputs": [
        {
          "internalType": "address",
          "name": "",
          "type": "address"
        }
      ],
      "stateMutability": "view",
      "type": "function",
      "constant": true
    },
    {
      "inputs": [],
      "name": "renounceOwnership",
      "outputs": [],
      "stateMutability": "nonpayable",
      "type": "function"
    },
    {
      "inputs": [
        {
          "internalType": "address",
          "name": "from",
          "type": "address"
        },
        {
          "internalType": "address",
          "name": "to",
          "type": "address"
        },
        {
          "internalType": "uint256[]",
          "name": "ids",
          "type": "uint256[]"
        },
        {
          "internalType": "uint256[]",
          "name": "amounts",
          "type": "uint256[]"
        },
        {
          "internalType": "bytes",
          "name": "data",
          "type": "bytes"
        }
      ],
      "name": "safeBatchTransferFrom",
      "outputs": [],
      "stateMutability": "nonpayable",
      "type": "function"
    },
    {
      "inputs": [
        {
          "internalType": "address",
          "name": "from",
          "type": "address"
        },
        {
          "internalType": "address",
          "name": "to",
          "type": "address"
        },
        {
          "internalType": "uint256",
          "name": "id",
          "type": "uint256"
        },
        {
          "internalType": "uint256",
          "name": "amount",
          "type": "uint256"
        },
        {
          "internalType": "bytes",
          "name": "data",
          "type": "bytes"
        }
      ],
      "name": "safeTransferFrom",
      "outputs": [],
      "stateMutability": "nonpayable",
      "type": "function"
    },
    {
      "inputs": [
        {
          "internalType": "address",
          "name": "operator",
          "type": "address"
        },
        {
          "internalType": "bool",
          "name": "approved",
          "type": "bool"
        }
      ],
      "name": "setApprovalForAll",
      "outputs": [],
      "stateMutability": "nonpayable",
      "type": "function"
    },
    {
      "inputs": [
        {
          "internalType": "bytes4",
          "name": "interfaceId",
          "type": "bytes4"
        }
      ],
      "name": "supportsInterface",
      "outputs": [
        {
          "internalType": "bool",
          "name": "",
          "type": "bool"
        }
      ],
      "stateMutability": "view",
      "type": "function",
      "constant": true
    },
    {
      "inputs": [
        {
          "internalType": "address",
          "name": "newOwner",
          "type": "address"
        }
      ],
      "name": "transferOwnership",
      "outputs": [],
      "stateMutability": "nonpayable",
      "type": "function"
    },
    {
      "inputs": [
        {
          "internalType": "uint256",
          "name": "tokenId",
          "type": "uint256"
        }
      ],
      "name": "uri",
      "outputs": [
        {
          "internalType": "string",
          "name": "",
          "type": "string"
        }
      ],
      "stateMutability": "view",
      "type": "function",
      "constant": true
    },
    {
      "inputs": [
        {
          "internalType": "address",
          "name": "account",
          "type": "address"
        },
        {
          "internalType": "uint256",
          "name": "id",
          "type": "uint256"
        },
        {
          "internalType": "uint256",
          "name": "amount",
          "type": "uint256"
        },
        {
          "internalType": "bytes",
          "name": "data",
          "type": "bytes"
        }
      ],
      "name": "mint",
      "outputs": [],
      "stateMutability": "nonpayable",
      "type": "function"
    },
    {
      "inputs": [
        {
          "internalType": "uint256",
          "name": "tokenId",
          "type": "uint256"
        },
        {
          "internalType": "string",
          "name": "newURI",
          "type": "string"
        }
      ],
      "name": "setURI",
      "outputs": [],
      "stateMutability": "nonpayable",
      "type": "function"
    },
    {
      "inputs": [
        {
          "internalType": "uint256",
          "name": "tokenId",
          "type": "uint256"
        },
        {
          "internalType": "uint256",
          "name": "supply",
          "type": "uint256"
        }
      ],
      "name": "setTokenSupply",
      "outputs": [],
      "stateMutability": "nonpayable",
      "type": "function"
    },
    {
      "inputs": [
        {
          "internalType": "uint256",
          "name": "tokenId",
          "type": "uint256"
        }
      ],
      "name": "getTokenSupply",
      "outputs": [
        {
          "internalType": "uint256",
          "name": "",
          "type": "uint256"
        }
      ],
      "stateMutability": "view",
      "type": "function",
      "constant": true
    },
    {
      "inputs": [
        {
          "internalType": "uint256",
          "name": "tokenId",
          "type": "uint256"
        }
      ],
      "name": "getTokenSold",
      "outputs": [
        {
          "internalType": "uint256",
          "name": "",
          "type": "uint256"
        }
      ],
      "stateMutability": "view",
      "type": "function",
      "constant": true
    },
    {
      "inputs": [
        {
          "internalType": "uint256",
          "name": "tokenId",
          "type": "uint256"
        },
        {
          "internalType": "uint256",
          "name": "amount",
          "type": "uint256"
        }
      ],
      "name": "updateTokenSold",
      "outputs": [],
      "stateMutability": "nonpayable",
      "type": "function"
    },
    {
      "inputs": [],
      "name": "getTotalTokensCount",
      "outputs": [
        {
          "internalType": "uint256",
          "name": "",
          "type": "uint256"
        }
      ],
      "stateMutability": "view",
      "type": "function",
      "constant": true
    },
    {
      "inputs": [
        {
          "internalType": "uint256",
          "name": "index",
          "type": "uint256"
        }
      ],
      "name": "getTokenByIndex",
      "outputs": [
        {
          "internalType": "uint256",
          "name": "",
          "type": "uint256"
        }
      ],
      "stateMutability": "view",
      "type": "function",
      "constant": true
    },
    {
      "inputs": [
        {
          "internalType": "uint256",
          "name": "tokenId",
          "type": "uint256"
        }
      ],
      "name": "getCarbonCredit",
      "outputs": [
        {
          "components": [
            {
              "internalType": "uint256",
              "name": "tokenId",
              "type": "uint256"
            },
            {
              "internalType": "address",
              "name": "initialOwner",
              "type": "address"
            },
            {
              "internalType": "enum CarbonBase.ApprovalStatus",
              "name": "status",
              "type": "uint8"
            },
            {
              "internalType": "uint256",
              "name": "pricePerCredit",
              "type": "uint256"
            },
            {
              "internalType": "bool",
              "name": "isListed",
              "type": "bool"
            }
          ],
          "internalType": "struct CarbonBase.CarbonCredit",
          "name": "",
          "type": "tuple"
        }
      ],
      "stateMutability": "view",
      "type": "function",
      "constant": true
    },
    {
      "inputs": [
        {
          "internalType": "uint256",
          "name": "tokenId",
          "type": "uint256"
        },
        {
          "internalType": "address",
          "name": "owner",
          "type": "address"
        },
        {
          "internalType": "enum CarbonBase.ApprovalStatus",
          "name": "status",
          "type": "uint8"
        },
        {
          "internalType": "uint256",
          "name": "pricePerCredit",
          "type": "uint256"
        },
        {
          "internalType": "bool",
          "name": "isListed",
          "type": "bool"
        }
      ],
      "name": "setCarbonCredit",
      "outputs": [],
      "stateMutability": "nonpayable",
      "type": "function"
    },
    {
      "inputs": [
        {
          "internalType": "uint256",
          "name": "tokenId",
          "type": "uint256"
        },
        {
          "internalType": "enum CarbonBase.ApprovalStatus",
          "name": "status",
          "type": "uint8"
        }
      ],
      "name": "updateStatus",
      "outputs": [],
      "stateMutability": "nonpayable",
      "type": "function"
    },
    {
      "inputs": [
        {
          "internalType": "uint256",
          "name": "tokenId",
          "type": "uint256"
        },
        {
          "internalType": "uint256",
          "name": "price",
          "type": "uint256"
        }
      ],
      "name": "updatePrice",
      "outputs": [],
      "stateMutability": "nonpayable",
      "type": "function"
    },
    {
      "inputs": [
        {
          "internalType": "uint256",
          "name": "tokenId",
          "type": "uint256"
        },
        {
          "internalType": "bool",
          "name": "isListed",
          "type": "bool"
        }
      ],
      "name": "updateListed",
      "outputs": [],
      "stateMutability": "nonpayable",
      "type": "function"
    },
    {
      "inputs": [
        {
          "internalType": "address",
          "name": "owner",
          "type": "address"
        }
      ],
      "name": "getOwnedTokensCount",
      "outputs": [
        {
          "internalType": "uint256",
          "name": "",
          "type": "uint256"
        }
      ],
      "stateMutability": "view",
      "type": "function",
      "constant": true
    },
    {
      "inputs": [
        {
          "internalType": "uint256",
          "name": "tokenId",
          "type": "uint256"
        }
      ],
      "name": "getAddTokenToAllTokensEnumeration",
      "outputs": [],
      "stateMutability": "nonpayable",
      "type": "function"
    },
    {
      "inputs": [
        {
          "internalType": "address",
          "name": "owner",
          "type": "address"
        },
        {
          "internalType": "uint256",
          "name": "index",
          "type": "uint256"
        }
      ],
      "name": "getOwnerTokenByIndex",
      "outputs": [
        {
          "internalType": "uint256",
          "name": "",
          "type": "uint256"
        }
      ],
      "stateMutability": "view",
      "type": "function",
      "constant": true
    },
    {
      "inputs": [],
      "name": "getAllCredits",
      "outputs": [
        {
          "components": [
            {
              "internalType": "uint256",
              "name": "tokenId",
              "type": "uint256"
            },
            {
              "internalType": "address",
              "name": "initialOwner",
              "type": "address"
            },
            {
              "internalType": "enum CarbonBase.ApprovalStatus",
              "name": "status",
              "type": "uint8"
            },
            {
              "internalType": "uint256",
              "name": "pricePerCredit",
              "type": "uint256"
            },
            {
              "internalType": "bool",
              "name": "isListed",
              "type": "bool"
            }
          ],
          "internalType": "struct CarbonBase.CarbonCredit[]",
          "name": "",
          "type": "tuple[]"
        }
      ],
      "stateMutability": "view",
      "type": "function",
      "constant": true
    },
    {
      "inputs": [],
      "name": "getOwnedCredits",
      "outputs": [
        {
          "components": [
            {
              "internalType": "uint256",
              "name": "tokenId",
              "type": "uint256"
            },
            {
              "internalType": "address",
              "name": "initialOwner",
              "type": "address"
            },
            {
              "internalType": "enum CarbonBase.ApprovalStatus",
              "name": "status",
              "type": "uint8"
            },
            {
              "internalType": "uint256",
              "name": "pricePerCredit",
              "type": "uint256"
            },
            {
              "internalType": "bool",
              "name": "isListed",
              "type": "bool"
            }
          ],
          "internalType": "struct CarbonBase.CarbonCredit[]",
          "name": "",
          "type": "tuple[]"
        }
      ],
      "stateMutability": "view",
      "type": "function",
      "constant": true
    },
    {
      "inputs": [
        {
          "internalType": "uint256",
          "name": "tokenId",
          "type": "uint256"
        }
      ],
      "name": "getTokenOwners",
      "outputs": [
        {
          "internalType": "address[]",
          "name": "",
          "type": "address[]"
        }
      ],
      "stateMutability": "view",
      "type": "function",
      "constant": true
    },
    {
      "inputs": [
        {
          "internalType": "uint256",
          "name": "tokenId",
          "type": "uint256"
        }
      ],
      "name": "getOwnerCount",
      "outputs": [
        {
          "internalType": "uint256",
          "name": "",
          "type": "uint256"
        }
      ],
      "stateMutability": "view",
      "type": "function",
      "constant": true
    },
    {
      "inputs": [
        {
          "internalType": "address",
          "name": "to",
          "type": "address"
        },
        {
          "internalType": "uint256",
          "name": "tokenId",
          "type": "uint256"
        }
      ],
      "name": "addTokenToOwnerEnumeration",
      "outputs": [],
      "stateMutability": "nonpayable",
      "type": "function"
    }
  ],
  "bytecode": "0x608060405260405180602001604052806000815250600390805190602001906200002b9291906200016c565b503480156200003957600080fd5b50604051806020016040528060008152506200005b816200008260201b60201c565b506200007c620000706200009e60201b60201c565b620000a660201b60201c565b62000280565b80600290805190602001906200009a9291906200016c565b5050565b600033905090565b6000600560009054906101000a900473ffffffffffffffffffffffffffffffffffffffff16905081600560006101000a81548173ffffffffffffffffffffffffffffffffffffffff021916908373ffffffffffffffffffffffffffffffffffffffff1602179055508173ffffffffffffffffffffffffffffffffffffffff168173ffffffffffffffffffffffffffffffffffffffff167f8be0079c531659141344cd1fd0a4f28419497f9722a3daafe3b4186f6b6457e060405160405180910390a35050565b8280546200017a906200024b565b90600052602060002090601f0160209004810192826200019e5760008555620001ea565b82601f10620001b957805160ff1916838001178555620001ea565b82800160010185558215620001ea579182015b82811115620001e9578251825591602001919060010190620001cc565b5b509050620001f99190620001fd565b5090565b5b8082111562000218576000816000905550600101620001fe565b5090565b7f4e487b7100000000000000000000000000000000000000000000000000000000600052602260045260246000fd5b600060028204905060018216806200026457607f821691505b6020821081036200027a57620002796200021c565b5b50919050565b6155f880620002906000396000f3fe608060405234801561001057600080fd5b50600436106102055760003560e01c8063715018a61161011a578063ab97c4bb116100ad578063eeb2982f1161007c578063eeb2982f1461061c578063f242432a14610638578063f2fde38b14610654578063f392243b14610670578063f5298aca146106a057610205565b8063ab97c4bb14610582578063b795a881146105b2578063e985e9c5146105ce578063ed45aa45146105fe57610205565b80638988db33116100e95780638988db33146105105780638da5cb5b1461052c5780639c0ab5ec1461054a578063a22cb4651461056657610205565b8063715018a6146104b2578063731133e9146104bc57806382367b2d146104d8578063862440e2146104f457610205565b80632eb2c2d61161019d578063644b7a431161016c578063644b7a43146103ea578063663680ee1461041a578063681ece9d146104365780636ab29975146104665780636b20c4541461049657610205565b80632eb2c2d6146103525780633a1b3d311461036e5780634e1273f41461038a57806364457aad146103ba57610205565b806313f66c9a116101d957806313f66c9a146102b857806319b88edb146102e8578063278d17ad146103185780632861072e1461033457610205565b8062fdd58e1461020a57806301ffc9a71461023a5780630b2f67251461026a5780630e89341c14610288575b600080fd5b610224600480360381019061021f9190613852565b6106bc565b60405161023191906138a1565b60405180910390f35b610254600480360381019061024f9190613914565b610784565b604051610261919061395c565b60405180910390f35b610272610866565b60405161027f91906138a1565b60405180910390f35b6102a2600480360381019061029d9190613977565b610873565b6040516102af9190613a3d565b60405180910390f35b6102d260048036038101906102cd9190613977565b610885565b6040516102df91906138a1565b60405180910390f35b61030260048036038101906102fd9190613977565b6108a2565b60405161030f91906138a1565b60405180910390f35b610332600480360381019061032d9190613a5f565b6108bf565b005b61033c6108db565b6040516103499190613c5a565b60405180910390f35b61036c60048036038101906103679190613e79565b610a75565b005b61038860048036038101906103839190613f6d565b610b16565b005b6103a4600480360381019061039f9190614070565b610b58565b6040516103b19190614197565b60405180910390f35b6103d460048036038101906103cf9190613977565b610c71565b6040516103e191906138a1565b60405180910390f35b61040460048036038101906103ff9190613977565b610c8e565b60405161041191906138a1565b60405180910390f35b610434600480360381019061042f9190613977565b610cff565b005b610450600480360381019061044b9190613977565b610d0b565b60405161045d9190614268565b60405180910390f35b610480600480360381019061047b919061428a565b610dac565b60405161048d91906138a1565b60405180910390f35b6104b060048036038101906104ab91906142b7565b610df8565b005b6104ba610e95565b005b6104d660048036038101906104d19190614342565b610ea9565b005b6104f260048036038101906104ed9190613a5f565b610ebb565b005b61050e60048036038101906105099190614466565b610eda565b005b61052a60048036038101906105259190613852565b610ee8565b005b610534611042565b60405161054191906144d1565b60405180910390f35b610564600480360381019061055f9190614518565b61106c565b005b610580600480360381019061057b9190614558565b61109e565b005b61059c60048036038101906105979190613852565b6110b4565b6040516105a991906138a1565b60405180910390f35b6105cc60048036038101906105c79190614598565b61111a565b005b6105e860048036038101906105e39190614613565b611233565b6040516105f5919061395c565b60405180910390f35b6106066112c7565b6040516106139190613c5a565b60405180910390f35b61063660048036038101906106319190613a5f565b611466565b005b610652600480360381019061064d9190614653565b611494565b005b61066e6004803603810190610669919061428a565b611535565b005b61068a60048036038101906106859190613977565b6115b8565b6040516106979190614752565b60405180910390f35b6106ba60048036038101906106b5919061476d565b6116a5565b005b60008073ffffffffffffffffffffffffffffffffffffffff168373ffffffffffffffffffffffffffffffffffffffff160361072c576040517f08c379a000000000000000000000000000000000000000000000000000000000815260040161072390614832565b60405180910390fd5b60008083815260200190815260200160002060008473ffffffffffffffffffffffffffffffffffffffff1673ffffffffffffffffffffffffffffffffffffffff16815260200190815260200160002054905092915050565b60007fd9b67a26000000000000000000000000000000000000000000000000000000007bffffffffffffffffffffffffffffffffffffffffffffffffffffffff1916827bffffffffffffffffffffffffffffffffffffffffffffffffffffffff1916148061084f57507f0e89341c000000000000000000000000000000000000000000000000000000007bffffffffffffffffffffffffffffffffffffffffffffffffffffffff1916827bffffffffffffffffffffffffffffffffffffffffffffffffffffffff1916145b8061085f575061085e82611742565b5b9050919050565b6000600680549050905090565b606061087e826117ac565b9050919050565b6000600d6000838152602001908152602001600020549050919050565b600060076000838152602001908152602001600020549050919050565b8060076000848152602001908152602001600020819055505050565b6060600060068054905067ffffffffffffffff8111156108fe576108fd613c81565b5b60405190808252806020026020018201604052801561093757816020015b6109246136ae565b81526020019060019003908161091c5790505b50905060005b600680549050811015610a6d57600061095582610c8e565b90506000600b60008381526020019081526020016000209050806040518060a0016040529081600082015481526020016001820160009054906101000a900473ffffffffffffffffffffffffffffffffffffffff1673ffffffffffffffffffffffffffffffffffffffff1673ffffffffffffffffffffffffffffffffffffffff1681526020016001820160149054906101000a900460ff1660028111156109ff576109fe613ae9565b5b6002811115610a1157610a10613ae9565b5b8152602001600282015481526020016003820160009054906101000a900460ff161515151581525050848481518110610a4d57610a4c614852565b5b602002602001018190525050508080610a65906148b0565b91505061093d565b508091505090565b610a7d611891565b73ffffffffffffffffffffffffffffffffffffffff168573ffffffffffffffffffffffffffffffffffffffff161480610ac35750610ac285610abd611891565b611233565b5b610b02576040517f08c379a0000000000000000000000000000000000000000000000000000000008152600401610af99061496a565b60405180910390fd5b610b0f8585858585611899565b5050505050565b80600b600084815260200190815260200160002060010160146101000a81548160ff02191690836002811115610b4f57610b4e613ae9565b5b02179055505050565b60608151835114610b9e576040517f08c379a0000000000000000000000000000000000000000000000000000000008152600401610b95906149fc565b60405180910390fd5b6000835167ffffffffffffffff811115610bbb57610bba613c81565b5b604051908082528060200260200182016040528015610be95781602001602082028036833780820191505090505b50905060005b8451811015610c6657610c36858281518110610c0e57610c0d614852565b5b6020026020010151858381518110610c2957610c28614852565b5b60200260200101516106bc565b828281518110610c4957610c48614852565b5b60200260200101818152505080610c5f906148b0565b9050610bef565b508091505092915050565b6000600e6000838152602001908152602001600020549050919050565b6000610c98610866565b8210610cd9576040517f08c379a0000000000000000000000000000000000000000000000000000000008152600401610cd090614a68565b60405180910390fd5b60068281548110610ced57610cec614852565b5b90600052602060002001549050919050565b610d0881611bba565b50565b6060600c6000838152602001908152602001600020805480602002602001604051908101604052809291908181526020018280548015610da057602002820191906000526020600020905b8160009054906101000a900473ffffffffffffffffffffffffffffffffffffffff1673ffffffffffffffffffffffffffffffffffffffff1681526020019060010190808311610d56575b50505050509050919050565b6000600960008373ffffffffffffffffffffffffffffffffffffffff1673ffffffffffffffffffffffffffffffffffffffff168152602001908152602001600020805490509050919050565b610e00611891565b73ffffffffffffffffffffffffffffffffffffffff168373ffffffffffffffffffffffffffffffffffffffff161480610e465750610e4583610e40611891565b611233565b5b610e85576040517f08c379a0000000000000000000000000000000000000000000000000000000008152600401610e7c9061496a565b60405180910390fd5b610e90838383611c03565b505050565b610e9d611ed1565b610ea76000611f4f565b565b610eb584848484612015565b50505050565b80600b6000848152602001908152602001600020600201819055505050565b610ee482826121c5565b5050565b6000600a60008473ffffffffffffffffffffffffffffffffffffffff1673ffffffffffffffffffffffffffffffffffffffff1681526020019081526020016000206000838152602001908152602001600020540361103e57600960008373ffffffffffffffffffffffffffffffffffffffff1673ffffffffffffffffffffffffffffffffffffffff168152602001908152602001600020819080600181540180825580915050600190039060005260206000200160009091909190915055600960008373ffffffffffffffffffffffffffffffffffffffff1673ffffffffffffffffffffffffffffffffffffffff16815260200190815260200160002080549050600a60008473ffffffffffffffffffffffffffffffffffffffff1673ffffffffffffffffffffffffffffffffffffffff1681526020019081526020016000206000838152602001908152602001600020819055505b5050565b6000600560009054906101000a900473ffffffffffffffffffffffffffffffffffffffff16905090565b80600b600084815260200190815260200160002060030160006101000a81548160ff0219169083151502179055505050565b6110b06110a9611891565b8383612231565b5050565b6000600960008473ffffffffffffffffffffffffffffffffffffffff1673ffffffffffffffffffffffffffffffffffffffff168152602001908152602001600020828154811061110757611106614852565b5b9060005260206000200154905092915050565b6040518060a001604052808681526020018573ffffffffffffffffffffffffffffffffffffffff16815260200184600281111561115a57611159613ae9565b5b8152602001838152602001821515815250600b60008781526020019081526020016000206000820151816000015560208201518160010160006101000a81548173ffffffffffffffffffffffffffffffffffffffff021916908373ffffffffffffffffffffffffffffffffffffffff16021790555060408201518160010160146101000a81548160ff021916908360028111156111fa576111f9613ae9565b5b02179055506060820151816002015560808201518160030160006101000a81548160ff0219169083151502179055509050505050505050565b6000600160008473ffffffffffffffffffffffffffffffffffffffff1673ffffffffffffffffffffffffffffffffffffffff16815260200190815260200160002060008373ffffffffffffffffffffffffffffffffffffffff1673ffffffffffffffffffffffffffffffffffffffff16815260200190815260200160002060009054906101000a900460ff16905092915050565b606060006112d433610dac565b905060008167ffffffffffffffff8111156112f2576112f1613c81565b5b60405190808252806020026020018201604052801561132b57816020015b6113186136ae565b8152602001906001900390816113105790505b50905060005b8281101561145d57600061134533836110b4565b90506000600b60008381526020019081526020016000209050806040518060a0016040529081600082015481526020016001820160009054906101000a900473ffffffffffffffffffffffffffffffffffffffff1673ffffffffffffffffffffffffffffffffffffffff1673ffffffffffffffffffffffffffffffffffffffff1681526020016001820160149054906101000a900460ff1660028111156113ef576113ee613ae9565b5b600281111561140157611400613ae9565b5b8152602001600282015481526020016003820160009054906101000a900460ff16151515158152505084848151811061143d5761143c614852565b5b602002602001018190525050508080611455906148b0565b915050611331565b50809250505090565b80600e600084815260200190815260200160002060008282546114899190614a88565b925050819055505050565b61149c611891565b73ffffffffffffffffffffffffffffffffffffffff168573ffffffffffffffffffffffffffffffffffffffff1614806114e257506114e1856114dc611891565b611233565b5b611521576040517f08c379a00000000000000000000000000000000000000000000000000000000081526004016115189061496a565b60405180910390fd5b61152e858585858561239d565b5050505050565b61153d611ed1565b600073ffffffffffffffffffffffffffffffffffffffff168173ffffffffffffffffffffffffffffffffffffffff16036115ac576040517f08c379a00000000000000000000000000000000000000000000000000000000081526004016115a390614b50565b60405180910390fd5b6115b581611f4f565b50565b6115c06136ae565b600b60008381526020019081526020016000206040518060a0016040529081600082015481526020016001820160009054906101000a900473ffffffffffffffffffffffffffffffffffffffff1673ffffffffffffffffffffffffffffffffffffffff1673ffffffffffffffffffffffffffffffffffffffff1681526020016001820160149054906101000a900460ff16600281111561166357611662613ae9565b5b600281111561167557611674613ae9565b5b8152602001600282015481526020016003820160009054906101000a900460ff1615151515815250509050919050565b6116ad611891565b73ffffffffffffffffffffffffffffffffffffffff168373ffffffffffffffffffffffffffffffffffffffff1614806116f357506116f2836116ed611891565b611233565b5b611732576040517f08c379a00000000000000000000000000000000000000000000000000000000081526004016117299061496a565b60405180910390fd5b61173d838383612638565b505050565b60007f01ffc9a7000000000000000000000000000000000000000000000000000000007bffffffffffffffffffffffffffffffffffffffffffffffffffffffff1916827bffffffffffffffffffffffffffffffffffffffffffffffffffffffff1916149050919050565b606060006004600084815260200190815260200160002080546117ce90614b9f565b80601f01602080910402602001604051908101604052809291908181526020018280546117fa90614b9f565b80156118475780601f1061181c57610100808354040283529160200191611847565b820191906000526020600020905b81548152906001019060200180831161182a57829003601f168201915b505050505090506000815111611865576118608361287e565b611889565b600381604051602001611879929190614ca0565b6040516020818303038152906040525b915050919050565b600033905090565b81518351146118dd576040517f08c379a00000000000000000000000000000000000000000000000000000000081526004016118d490614d36565b60405180910390fd5b600073ffffffffffffffffffffffffffffffffffffffff168473ffffffffffffffffffffffffffffffffffffffff160361194c576040517f08c379a000000000000000000000000000000000000000000000000000000000815260040161194390614dc8565b60405180910390fd5b6000611956611891565b9050611966818787878787612912565b60005b8451811015611b1757600085828151811061198757611986614852565b5b6020026020010151905060008583815181106119a6576119a5614852565b5b60200260200101519050600080600084815260200190815260200160002060008b73ffffffffffffffffffffffffffffffffffffffff1673ffffffffffffffffffffffffffffffffffffffff16815260200190815260200160002054905081811015611a47576040517f08c379a0000000000000000000000000000000000000000000000000000000008152600401611a3e90614e5a565b60405180910390fd5b81810360008085815260200190815260200160002060008c73ffffffffffffffffffffffffffffffffffffffff1673ffffffffffffffffffffffffffffffffffffffff168152602001908152602001600020819055508160008085815260200190815260200160002060008b73ffffffffffffffffffffffffffffffffffffffff1673ffffffffffffffffffffffffffffffffffffffff1681526020019081526020016000206000828254611afc9190614a88565b9250508190555050505080611b10906148b0565b9050611969565b508473ffffffffffffffffffffffffffffffffffffffff168673ffffffffffffffffffffffffffffffffffffffff168273ffffffffffffffffffffffffffffffffffffffff167f4a39dc06d4c0dbc64b70af90fd698a233a518aa5d07e595d983b8c0526c8f7fb8787604051611b8e929190614e7a565b60405180910390a4611ba4818787878787612afe565b611bb2818787878787612b06565b505050505050565b6006805490506008600083815260200190815260200160002081905550600681908060018154018082558091505060019003906000526020600020016000909190919091505550565b600073ffffffffffffffffffffffffffffffffffffffff168373ffffffffffffffffffffffffffffffffffffffff1603611c72576040517f08c379a0000000000000000000000000000000000000000000000000000000008152600401611c6990614f23565b60405180910390fd5b8051825114611cb6576040517f08c379a0000000000000000000000000000000000000000000000000000000008152600401611cad90614d36565b60405180910390fd5b6000611cc0611891565b9050611ce081856000868660405180602001604052806000815250612912565b60005b8351811015611e2d576000848281518110611d0157611d00614852565b5b602002602001015190506000848381518110611d2057611d1f614852565b5b60200260200101519050600080600084815260200190815260200160002060008973ffffffffffffffffffffffffffffffffffffffff1673ffffffffffffffffffffffffffffffffffffffff16815260200190815260200160002054905081811015611dc1576040517f08c379a0000000000000000000000000000000000000000000000000000000008152600401611db890614fb5565b60405180910390fd5b81810360008085815260200190815260200160002060008a73ffffffffffffffffffffffffffffffffffffffff1673ffffffffffffffffffffffffffffffffffffffff168152602001908152602001600020819055505050508080611e25906148b0565b915050611ce3565b50600073ffffffffffffffffffffffffffffffffffffffff168473ffffffffffffffffffffffffffffffffffffffff168273ffffffffffffffffffffffffffffffffffffffff167f4a39dc06d4c0dbc64b70af90fd698a233a518aa5d07e595d983b8c0526c8f7fb8686604051611ea5929190614e7a565b60405180910390a4611ecb81856000868660405180602001604052806000815250612afe565b50505050565b611ed9611891565b73ffffffffffffffffffffffffffffffffffffffff16611ef7611042565b73ffffffffffffffffffffffffffffffffffffffff1614611f4d576040517f08c379a0000000000000000000000000000000000000000000000000000000008152600401611f4490615021565b60405180910390fd5b565b6000600560009054906101000a900473ffffffffffffffffffffffffffffffffffffffff16905081600560006101000a81548173ffffffffffffffffffffffffffffffffffffffff021916908373ffffffffffffffffffffffffffffffffffffffff1602179055508173ffffffffffffffffffffffffffffffffffffffff168173ffffffffffffffffffffffffffffffffffffffff167f8be0079c531659141344cd1fd0a4f28419497f9722a3daafe3b4186f6b6457e060405160405180910390a35050565b600073ffffffffffffffffffffffffffffffffffffffff168473ffffffffffffffffffffffffffffffffffffffff1603612084576040517f08c379a000000000000000000000000000000000000000000000000000000000815260040161207b906150b3565b60405180910390fd5b600061208e611891565b9050600061209b85612cdd565b905060006120a885612cdd565b90506120b983600089858589612912565b8460008088815260200190815260200160002060008973ffffffffffffffffffffffffffffffffffffffff1673ffffffffffffffffffffffffffffffffffffffff16815260200190815260200160002060008282546121189190614a88565b925050819055508673ffffffffffffffffffffffffffffffffffffffff16600073ffffffffffffffffffffffffffffffffffffffff168473ffffffffffffffffffffffffffffffffffffffff167fc3d58168c5ae7397731d063d5bbf3d657854427343f4c083240f7aacaa2d0f6289896040516121969291906150d3565b60405180910390a46121ad83600089858589612afe565b6121bc83600089898989612d57565b50505050505050565b806004600084815260200190815260200160002090805190602001906121ec929190613707565b50817f6bb7ff708619ba0610cba295a58592e0451dee2622938c8755667688daf3529b61221884610873565b6040516122259190613a3d565b60405180910390a25050565b8173ffffffffffffffffffffffffffffffffffffffff168373ffffffffffffffffffffffffffffffffffffffff160361229f576040517f08c379a00000000000000000000000000000000000000000000000000000000081526004016122969061516e565b60405180910390fd5b80600160008573ffffffffffffffffffffffffffffffffffffffff1673ffffffffffffffffffffffffffffffffffffffff16815260200190815260200160002060008473ffffffffffffffffffffffffffffffffffffffff1673ffffffffffffffffffffffffffffffffffffffff16815260200190815260200160002060006101000a81548160ff0219169083151502179055508173ffffffffffffffffffffffffffffffffffffffff168373ffffffffffffffffffffffffffffffffffffffff167f17307eab39ab6107e8899845ad3d59bd9653f200f220920489ca2b5937696c3183604051612390919061395c565b60405180910390a3505050565b600073ffffffffffffffffffffffffffffffffffffffff168473ffffffffffffffffffffffffffffffffffffffff160361240c576040517f08c379a000000000000000000000000000000000000000000000000000000000815260040161240390614dc8565b60405180910390fd5b6000612416611891565b9050600061242385612cdd565b9050600061243085612cdd565b9050612440838989858589612912565b600080600088815260200190815260200160002060008a73ffffffffffffffffffffffffffffffffffffffff1673ffffffffffffffffffffffffffffffffffffffff168152602001908152602001600020549050858110156124d7576040517f08c379a00000000000000000000000000000000000000000000000000000000081526004016124ce90614e5a565b60405180910390fd5b85810360008089815260200190815260200160002060008b73ffffffffffffffffffffffffffffffffffffffff1673ffffffffffffffffffffffffffffffffffffffff168152602001908152602001600020819055508560008089815260200190815260200160002060008a73ffffffffffffffffffffffffffffffffffffffff1673ffffffffffffffffffffffffffffffffffffffff168152602001908152602001600020600082825461258c9190614a88565b925050819055508773ffffffffffffffffffffffffffffffffffffffff168973ffffffffffffffffffffffffffffffffffffffff168573ffffffffffffffffffffffffffffffffffffffff167fc3d58168c5ae7397731d063d5bbf3d657854427343f4c083240f7aacaa2d0f628a8a6040516126099291906150d3565b60405180910390a461261f848a8a86868a612afe565b61262d848a8a8a8a8a612d57565b505050505050505050565b600073ffffffffffffffffffffffffffffffffffffffff168373ffffffffffffffffffffffffffffffffffffffff16036126a7576040517f08c379a000000000000000000000000000000000000000000000000000000000815260040161269e90614f23565b60405180910390fd5b60006126b1611891565b905060006126be84612cdd565b905060006126cb84612cdd565b90506126eb83876000858560405180602001604052806000815250612912565b600080600087815260200190815260200160002060008873ffffffffffffffffffffffffffffffffffffffff1673ffffffffffffffffffffffffffffffffffffffff16815260200190815260200160002054905084811015612782576040517f08c379a000000000000000000000000000000000000000000000000000000000815260040161277990614fb5565b60405180910390fd5b84810360008088815260200190815260200160002060008973ffffffffffffffffffffffffffffffffffffffff1673ffffffffffffffffffffffffffffffffffffffff16815260200190815260200160002081905550600073ffffffffffffffffffffffffffffffffffffffff168773ffffffffffffffffffffffffffffffffffffffff168573ffffffffffffffffffffffffffffffffffffffff167fc3d58168c5ae7397731d063d5bbf3d657854427343f4c083240f7aacaa2d0f62898960405161284f9291906150d3565b60405180910390a461287584886000868660405180602001604052806000815250612afe565b50505050505050565b60606002805461288d90614b9f565b80601f01602080910402602001604051908101604052809291908181526020018280546128b990614b9f565b80156129065780601f106128db57610100808354040283529160200191612906565b820191906000526020600020905b8154815290600101906020018083116128e957829003601f168201915b50505050509050919050565b612920868686868686612f2e565b60005b8351811015612af557600084828151811061294157612940614852565b5b60200260200101519050600073ffffffffffffffffffffffffffffffffffffffff168773ffffffffffffffffffffffffffffffffffffffff16141580156129aa575083828151811061299657612995614852565b5b60200260200101516129a888836106bc565b145b156129c4576129b98782612f36565b6129c381886131d3565b5b600073ffffffffffffffffffffffffffffffffffffffff168673ffffffffffffffffffffffffffffffffffffffff1614158015612a0a57506000612a0887836106bc565b145b15612a2857612a198682610ee8565b612a238187613439565b612ae1565b600073ffffffffffffffffffffffffffffffffffffffff168673ffffffffffffffffffffffffffffffffffffffff1603612ae057838281518110612a6f57612a6e614852565b5b6020026020010151600760008381526020019081526020016000206000828254612a99919061518e565b925050819055506000600760008381526020019081526020016000205403612adf57612ade858381518110612ad157612ad0614852565b5b60200260200101516134e9565b5b5b5b508080612aed906148b0565b915050612923565b50505050505050565b505050505050565b612b258473ffffffffffffffffffffffffffffffffffffffff166135ba565b15612cd5578373ffffffffffffffffffffffffffffffffffffffff1663bc197c8187878686866040518663ffffffff1660e01b8152600401612b6b959493929190615217565b6020604051808303816000875af1925050508015612ba757506040513d601f19601f82011682018060405250810190612ba49190615294565b60015b612c4c57612bb36152ce565b806308c379a003612c0f5750612bc76152f0565b80612bd25750612c11565b806040517f08c379a0000000000000000000000000000000000000000000000000000000008152600401612c069190613a3d565b60405180910390fd5b505b6040517f08c379a0000000000000000000000000000000000000000000000000000000008152600401612c43906153f2565b60405180910390fd5b63bc197c8160e01b7bffffffffffffffffffffffffffffffffffffffffffffffffffffffff1916817bffffffffffffffffffffffffffffffffffffffffffffffffffffffff191614612cd3576040517f08c379a0000000000000000000000000000000000000000000000000000000008152600401612cca90615484565b60405180910390fd5b505b505050505050565b60606000600167ffffffffffffffff811115612cfc57612cfb613c81565b5b604051908082528060200260200182016040528015612d2a5781602001602082028036833780820191505090505b5090508281600081518110612d4257612d41614852565b5b60200260200101818152505080915050919050565b612d768473ffffffffffffffffffffffffffffffffffffffff166135ba565b15612f26578373ffffffffffffffffffffffffffffffffffffffff1663f23a6e6187878686866040518663ffffffff1660e01b8152600401612dbc9594939291906154a4565b6020604051808303816000875af1925050508015612df857506040513d601f19601f82011682018060405250810190612df59190615294565b60015b612e9d57612e046152ce565b806308c379a003612e605750612e186152f0565b80612e235750612e62565b806040517f08c379a0000000000000000000000000000000000000000000000000000000008152600401612e579190613a3d565b60405180910390fd5b505b6040517f08c379a0000000000000000000000000000000000000000000000000000000008152600401612e94906153f2565b60405180910390fd5b63f23a6e6160e01b7bffffffffffffffffffffffffffffffffffffffffffffffffffffffff1916817bffffffffffffffffffffffffffffffffffffffffffffffffffffffff191614612f24576040517f08c379a0000000000000000000000000000000000000000000000000000000008152600401612f1b90615484565b60405180910390fd5b505b505050505050565b505050505050565b60006001600960008573ffffffffffffffffffffffffffffffffffffffff1673ffffffffffffffffffffffffffffffffffffffff16815260200190815260200160002080549050612f87919061518e565b905060006001600a60008673ffffffffffffffffffffffffffffffffffffffff1673ffffffffffffffffffffffffffffffffffffffff168152602001908152602001600020600085815260200190815260200160002054612fe8919061518e565b9050818114613114576000600960008673ffffffffffffffffffffffffffffffffffffffff1673ffffffffffffffffffffffffffffffffffffffff168152602001908152602001600020838154811061304457613043614852565b5b9060005260206000200154905080600960008773ffffffffffffffffffffffffffffffffffffffff1673ffffffffffffffffffffffffffffffffffffffff16815260200190815260200160002083815481106130a3576130a2614852565b5b90600052602060002001819055506001826130be9190614a88565b600a60008773ffffffffffffffffffffffffffffffffffffffff1673ffffffffffffffffffffffffffffffffffffffff168152602001908152602001600020600083815260200190815260200160002081905550505b600960008573ffffffffffffffffffffffffffffffffffffffff1673ffffffffffffffffffffffffffffffffffffffff168152602001908152602001600020805480613163576131626154fe565b5b60019003818190600052602060002001600090559055600a60008573ffffffffffffffffffffffffffffffffffffffff1673ffffffffffffffffffffffffffffffffffffffff16815260200190815260200160002060008481526020019081526020016000206000905550505050565b6000600d60008481526020019081526020016000205411613229576040517f08c379a000000000000000000000000000000000000000000000000000000000815260040161322090615579565b60405180910390fd5b6000600c600084815260200190815260200160002080549050905060005b81811015613433578273ffffffffffffffffffffffffffffffffffffffff16600c6000868152602001908152602001600020828154811061328b5761328a614852565b5b9060005260206000200160009054906101000a900473ffffffffffffffffffffffffffffffffffffffff1673ffffffffffffffffffffffffffffffffffffffff160361342057600c60008581526020019081526020016000206001836132f1919061518e565b8154811061330257613301614852565b5b9060005260206000200160009054906101000a900473ffffffffffffffffffffffffffffffffffffffff16600c6000868152602001908152602001600020828154811061335257613351614852565b5b9060005260206000200160006101000a81548173ffffffffffffffffffffffffffffffffffffffff021916908373ffffffffffffffffffffffffffffffffffffffff160217905550600c60008581526020019081526020016000208054806133bd576133bc6154fe565b5b6001900381819060005260206000200160006101000a81549073ffffffffffffffffffffffffffffffffffffffff02191690559055600d6000858152602001908152602001600020600081548092919061341690615599565b9190505550613433565b808061342b906148b0565b915050613247565b50505050565b61344382826135dd565b6134e557600c6000838152602001908152602001600020819080600181540180825580915050600190039060005260206000200160009091909190916101000a81548173ffffffffffffffffffffffffffffffffffffffff021916908373ffffffffffffffffffffffffffffffffffffffff160217905550600d600083815260200190815260200160002060008154809291906134df906148b0565b91905055505b5050565b600060016006805490506134fd919061518e565b905060006008600084815260200190815260200160002054905060006006838154811061352d5761352c614852565b5b90600052602060002001549050806006838154811061354f5761354e614852565b5b90600052602060002001819055508160086000838152602001908152602001600020819055506006805480613587576135866154fe565b5b60019003818190600052602060002001600090559055600860008581526020019081526020016000206000905550505050565b6000808273ffffffffffffffffffffffffffffffffffffffff163b119050919050565b600080600090505b600c6000858152602001908152602001600020805490508110156136a2578273ffffffffffffffffffffffffffffffffffffffff16600c6000868152602001908152602001600020828154811061363f5761363e614852565b5b9060005260206000200160009054906101000a900473ffffffffffffffffffffffffffffffffffffffff1673ffffffffffffffffffffffffffffffffffffffff160361368f5760019150506136a8565b808061369a906148b0565b9150506135e5565b50600090505b92915050565b6040518060a0016040528060008152602001600073ffffffffffffffffffffffffffffffffffffffff168152602001600060028111156136f1576136f0613ae9565b5b8152602001600081526020016000151581525090565b82805461371390614b9f565b90600052602060002090601f016020900481019282613735576000855561377c565b82601f1061374e57805160ff191683800117855561377c565b8280016001018555821561377c579182015b8281111561377b578251825591602001919060010190613760565b5b509050613789919061378d565b5090565b5b808211156137a657600081600090555060010161378e565b5090565b6000604051905090565b600080fd5b600080fd5b600073ffffffffffffffffffffffffffffffffffffffff82169050919050565b60006137e9826137be565b9050919050565b6137f9816137de565b811461380457600080fd5b50565b600081359050613816816137f0565b92915050565b6000819050919050565b61382f8161381c565b811461383a57600080fd5b50565b60008135905061384c81613826565b92915050565b60008060408385031215613869576138686137b4565b5b600061387785828601613807565b92505060206138888582860161383d565b9150509250929050565b61389b8161381c565b82525050565b60006020820190506138b66000830184613892565b92915050565b60007fffffffff0000000000000000000000000000000000000000000000000000000082169050919050565b6138f1816138bc565b81146138fc57600080fd5b50565b60008135905061390e816138e8565b92915050565b60006020828403121561392a576139296137b4565b5b6000613938848285016138ff565b91505092915050565b60008115159050919050565b61395681613941565b82525050565b6000602082019050613971600083018461394d565b92915050565b60006020828403121561398d5761398c6137b4565b5b600061399b8482850161383d565b91505092915050565b600081519050919050565b600082825260208201905092915050565b60005b838110156139de5780820151818401526020810190506139c3565b838111156139ed576000848401525b50505050565b6000601f19601f8301169050919050565b6000613a0f826139a4565b613a1981856139af565b9350613a298185602086016139c0565b613a32816139f3565b840191505092915050565b60006020820190508181036000830152613a578184613a04565b905092915050565b60008060408385031215613a7657613a756137b4565b5b6000613a848582860161383d565b9250506020613a958582860161383d565b9150509250929050565b600081519050919050565b600082825260208201905092915050565b6000819050602082019050919050565b613ad48161381c565b82525050565b613ae3816137de565b82525050565b7f4e487b7100000000000000000000000000000000000000000000000000000000600052602160045260246000fd5b60038110613b2957613b28613ae9565b5b50565b6000819050613b3a82613b18565b919050565b6000613b4a82613b2c565b9050919050565b613b5a81613b3f565b82525050565b613b6981613941565b82525050565b60a082016000820151613b856000850182613acb565b506020820151613b986020850182613ada565b506040820151613bab6040850182613b51565b506060820151613bbe6060850182613acb565b506080820151613bd16080850182613b60565b50505050565b6000613be38383613b6f565b60a08301905092915050565b6000602082019050919050565b6000613c0782613a9f565b613c118185613aaa565b9350613c1c83613abb565b8060005b83811015613c4d578151613c348882613bd7565b9750613c3f83613bef565b925050600181019050613c20565b5085935050505092915050565b60006020820190508181036000830152613c748184613bfc565b905092915050565b600080fd5b7f4e487b7100000000000000000000000000000000000000000000000000000000600052604160045260246000fd5b613cb9826139f3565b810181811067ffffffffffffffff82111715613cd857613cd7613c81565b5b80604052505050565b6000613ceb6137aa565b9050613cf78282613cb0565b919050565b600067ffffffffffffffff821115613d1757613d16613c81565b5b602082029050602081019050919050565b600080fd5b6000613d40613d3b84613cfc565b613ce1565b90508083825260208201905060208402830185811115613d6357613d62613d28565b5b835b81811015613d8c5780613d78888261383d565b845260208401935050602081019050613d65565b5050509392505050565b600082601f830112613dab57613daa613c7c565b5b8135613dbb848260208601613d2d565b91505092915050565b600080fd5b600067ffffffffffffffff821115613de457613de3613c81565b5b613ded826139f3565b9050602081019050919050565b82818337600083830152505050565b6000613e1c613e1784613dc9565b613ce1565b905082815260208101848484011115613e3857613e37613dc4565b5b613e43848285613dfa565b509392505050565b600082601f830112613e6057613e5f613c7c565b5b8135613e70848260208601613e09565b91505092915050565b600080600080600060a08688031215613e9557613e946137b4565b5b6000613ea388828901613807565b9550506020613eb488828901613807565b945050604086013567ffffffffffffffff811115613ed557613ed46137b9565b5b613ee188828901613d96565b935050606086013567ffffffffffffffff811115613f0257613f016137b9565b5b613f0e88828901613d96565b925050608086013567ffffffffffffffff811115613f2f57613f2e6137b9565b5b613f3b88828901613e4b565b9150509295509295909350565b60038110613f5557600080fd5b50565b600081359050613f6781613f48565b92915050565b60008060408385031215613f8457613f836137b4565b5b6000613f928582860161383d565b9250506020613fa385828601613f58565b9150509250929050565b600067ffffffffffffffff821115613fc857613fc7613c81565b5b602082029050602081019050919050565b6000613fec613fe784613fad565b613ce1565b9050808382526020820190506020840283018581111561400f5761400e613d28565b5b835b8181101561403857806140248882613807565b845260208401935050602081019050614011565b5050509392505050565b600082601f83011261405757614056613c7c565b5b8135614067848260208601613fd9565b91505092915050565b60008060408385031215614087576140866137b4565b5b600083013567ffffffffffffffff8111156140a5576140a46137b9565b5b6140b185828601614042565b925050602083013567ffffffffffffffff8111156140d2576140d16137b9565b5b6140de85828601613d96565b9150509250929050565b600081519050919050565b600082825260208201905092915050565b6000819050602082019050919050565b60006141208383613acb565b60208301905092915050565b6000602082019050919050565b6000614144826140e8565b61414e81856140f3565b935061415983614104565b8060005b8381101561418a5781516141718882614114565b975061417c8361412c565b92505060018101905061415d565b5085935050505092915050565b600060208201905081810360008301526141b18184614139565b905092915050565b600081519050919050565b600082825260208201905092915050565b6000819050602082019050919050565b60006141f18383613ada565b60208301905092915050565b6000602082019050919050565b6000614215826141b9565b61421f81856141c4565b935061422a836141d5565b8060005b8381101561425b57815161424288826141e5565b975061424d836141fd565b92505060018101905061422e565b5085935050505092915050565b60006020820190508181036000830152614282818461420a565b905092915050565b6000602082840312156142a05761429f6137b4565b5b60006142ae84828501613807565b91505092915050565b6000806000606084860312156142d0576142cf6137b4565b5b60006142de86828701613807565b935050602084013567ffffffffffffffff8111156142ff576142fe6137b9565b5b61430b86828701613d96565b925050604084013567ffffffffffffffff81111561432c5761432b6137b9565b5b61433886828701613d96565b9150509250925092565b6000806000806080858703121561435c5761435b6137b4565b5b600061436a87828801613807565b945050602061437b8782880161383d565b935050604061438c8782880161383d565b925050606085013567ffffffffffffffff8111156143ad576143ac6137b9565b5b6143b987828801613e4b565b91505092959194509250565b600067ffffffffffffffff8211156143e0576143df613c81565b5b6143e9826139f3565b9050602081019050919050565b6000614409614404846143c5565b613ce1565b90508281526020810184848401111561442557614424613dc4565b5b614430848285613dfa565b509392505050565b600082601f83011261444d5761444c613c7c565b5b813561445d8482602086016143f6565b91505092915050565b6000806040838503121561447d5761447c6137b4565b5b600061448b8582860161383d565b925050602083013567ffffffffffffffff8111156144ac576144ab6137b9565b5b6144b885828601614438565b9150509250929050565b6144cb816137de565b82525050565b60006020820190506144e660008301846144c2565b92915050565b6144f581613941565b811461450057600080fd5b50565b600081359050614512816144ec565b92915050565b6000806040838503121561452f5761452e6137b4565b5b600061453d8582860161383d565b925050602061454e85828601614503565b9150509250929050565b6000806040838503121561456f5761456e6137b4565b5b600061457d85828601613807565b925050602061458e85828601614503565b9150509250929050565b600080600080600060a086880312156145b4576145b36137b4565b5b60006145c28882890161383d565b95505060206145d388828901613807565b94505060406145e488828901613f58565b93505060606145f58882890161383d565b925050608061460688828901614503565b9150509295509295909350565b6000806040838503121561462a576146296137b4565b5b600061463885828601613807565b925050602061464985828601613807565b9150509250929050565b600080600080600060a0868803121561466f5761466e6137b4565b5b600061467d88828901613807565b955050602061468e88828901613807565b945050604061469f8882890161383d565b93505060606146b08882890161383d565b925050608086013567ffffffffffffffff8111156146d1576146d06137b9565b5b6146dd88828901613e4b565b9150509295509295909350565b60a0820160008201516147006000850182613acb565b5060208201516147136020850182613ada565b5060408201516147266040850182613b51565b5060608201516147396060850182613acb565b50608082015161474c6080850182613b60565b50505050565b600060a08201905061476760008301846146ea565b92915050565b600080600060608486031215614786576147856137b4565b5b600061479486828701613807565b93505060206147a58682870161383d565b92505060406147b68682870161383d565b9150509250925092565b7f455243313135353a2061646472657373207a65726f206973206e6f742061207660008201527f616c6964206f776e657200000000000000000000000000000000000000000000602082015250565b600061481c602a836139af565b9150614827826147c0565b604082019050919050565b6000602082019050818103600083015261484b8161480f565b9050919050565b7f4e487b7100000000000000000000000000000000000000000000000000000000600052603260045260246000fd5b7f4e487b7100000000000000000000000000000000000000000000000000000000600052601160045260246000fd5b60006148bb8261381c565b91507fffffffffffffffffffffffffffffffffffffffffffffffffffffffffffffffff82036148ed576148ec614881565b5b600182019050919050565b7f455243313135353a2063616c6c6572206973206e6f7420746f6b656e206f776e60008201527f6572206f7220617070726f766564000000000000000000000000000000000000602082015250565b6000614954602e836139af565b915061495f826148f8565b604082019050919050565b6000602082019050818103600083015261498381614947565b9050919050565b7f455243313135353a206163636f756e747320616e6420696473206c656e67746860008201527f206d69736d617463680000000000000000000000000000000000000000000000602082015250565b60006149e66029836139af565b91506149f18261498a565b604082019050919050565b60006020820190508181036000830152614a15816149d9565b9050919050565b7f496e646578206f7574206f6620626f756e64732e000000000000000000000000600082015250565b6000614a526014836139af565b9150614a5d82614a1c565b602082019050919050565b60006020820190508181036000830152614a8181614a45565b9050919050565b6000614a938261381c565b9150614a9e8361381c565b9250827fffffffffffffffffffffffffffffffffffffffffffffffffffffffffffffffff03821115614ad357614ad2614881565b5b828201905092915050565b7f4f776e61626c653a206e6577206f776e657220697320746865207a65726f206160008201527f6464726573730000000000000000000000000000000000000000000000000000602082015250565b6000614b3a6026836139af565b9150614b4582614ade565b604082019050919050565b60006020820190508181036000830152614b6981614b2d565b9050919050565b7f4e487b7100000000000000000000000000000000000000000000000000000000600052602260045260246000fd5b60006002820490506001821680614bb757607f821691505b602082108103614bca57614bc9614b70565b5b50919050565b600081905092915050565b60008190508160005260206000209050919050565b60008154614bfd81614b9f565b614c078186614bd0565b94506001821660008114614c225760018114614c3357614c66565b60ff19831686528186019350614c66565b614c3c85614bdb565b60005b83811015614c5e57815481890152600182019150602081019050614c3f565b838801955050505b50505092915050565b6000614c7a826139a4565b614c848185614bd0565b9350614c948185602086016139c0565b80840191505092915050565b6000614cac8285614bf0565b9150614cb88284614c6f565b91508190509392505050565b7f455243313135353a2069647320616e6420616d6f756e7473206c656e6774682060008201527f6d69736d61746368000000000000000000000000000000000000000000000000602082015250565b6000614d206028836139af565b9150614d2b82614cc4565b604082019050919050565b60006020820190508181036000830152614d4f81614d13565b9050919050565b7f455243313135353a207472616e7366657220746f20746865207a65726f20616460008201527f6472657373000000000000000000000000000000000000000000000000000000602082015250565b6000614db26025836139af565b9150614dbd82614d56565b604082019050919050565b60006020820190508181036000830152614de181614da5565b9050919050565b7f455243313135353a20696e73756666696369656e742062616c616e636520666f60008201527f72207472616e7366657200000000000000000000000000000000000000000000602082015250565b6000614e44602a836139af565b9150614e4f82614de8565b604082019050919050565b60006020820190508181036000830152614e7381614e37565b9050919050565b60006040820190508181036000830152614e948185614139565b90508181036020830152614ea88184614139565b90509392505050565b7f455243313135353a206275726e2066726f6d20746865207a65726f206164647260008201527f6573730000000000000000000000000000000000000000000000000000000000602082015250565b6000614f0d6023836139af565b9150614f1882614eb1565b604082019050919050565b60006020820190508181036000830152614f3c81614f00565b9050919050565b7f455243313135353a206275726e20616d6f756e7420657863656564732062616c60008201527f616e636500000000000000000000000000000000000000000000000000000000602082015250565b6000614f9f6024836139af565b9150614faa82614f43565b604082019050919050565b60006020820190508181036000830152614fce81614f92565b9050919050565b7f4f776e61626c653a2063616c6c6572206973206e6f7420746865206f776e6572600082015250565b600061500b6020836139af565b915061501682614fd5565b602082019050919050565b6000602082019050818103600083015261503a81614ffe565b9050919050565b7f455243313135353a206d696e7420746f20746865207a65726f2061646472657360008201527f7300000000000000000000000000000000000000000000000000000000000000602082015250565b600061509d6021836139af565b91506150a882615041565b604082019050919050565b600060208201905081810360008301526150cc81615090565b9050919050565b60006040820190506150e86000830185613892565b6150f56020830184613892565b9392505050565b7f455243313135353a2073657474696e6720617070726f76616c2073746174757360008201527f20666f722073656c660000000000000000000000000000000000000000000000602082015250565b60006151586029836139af565b9150615163826150fc565b604082019050919050565b600060208201905081810360008301526151878161514b565b9050919050565b60006151998261381c565b91506151a48361381c565b9250828210156151b7576151b6614881565b5b828203905092915050565b600081519050919050565b600082825260208201905092915050565b60006151e9826151c2565b6151f381856151cd565b93506152038185602086016139c0565b61520c816139f3565b840191505092915050565b600060a08201905061522c60008301886144c2565b61523960208301876144c2565b818103604083015261524b8186614139565b9050818103606083015261525f8185614139565b9050818103608083015261527381846151de565b90509695505050505050565b60008151905061528e816138e8565b92915050565b6000602082840312156152aa576152a96137b4565b5b60006152b88482850161527f565b91505092915050565b60008160e01c9050919050565b600060033d11156152ed5760046000803e6152ea6000516152c1565b90505b90565b600060443d1061537d576153026137aa565b60043d036004823e80513d602482011167ffffffffffffffff8211171561532a57505061537d565b808201805167ffffffffffffffff811115615348575050505061537d565b80602083010160043d03850181111561536557505050505061537d565b61537482602001850186613cb0565b82955050505050505b90565b7f455243313135353a207472616e7366657220746f206e6f6e2d4552433131353560008201527f526563656976657220696d706c656d656e746572000000000000000000000000602082015250565b60006153dc6034836139af565b91506153e782615380565b604082019050919050565b6000602082019050818103600083015261540b816153cf565b9050919050565b7f455243313135353a204552433131353552656365697665722072656a6563746560008201527f6420746f6b656e73000000000000000000000000000000000000000000000000602082015250565b600061546e6028836139af565b915061547982615412565b604082019050919050565b6000602082019050818103600083015261549d81615461565b9050919050565b600060a0820190506154b960008301886144c2565b6154c660208301876144c2565b6154d36040830186613892565b6154e06060830185613892565b81810360808301526154f281846151de565b90509695505050505050565b7f4e487b7100000000000000000000000000000000000000000000000000000000600052603160045260246000fd5b7f4e6f206f776e65727320746f2072656d6f76652e000000000000000000000000600082015250565b60006155636014836139af565b915061556e8261552d565b602082019050919050565b6000602082019050818103600083015261559281615556565b9050919050565b60006155a48261381c565b9150600082036155b7576155b6614881565b5b60018203905091905056fea264697066735822122060ab5d34be7a6332d4f3bbdab06fdb2638afc30aa14c98744e00f456860a2e8c64736f6c634300080d0033",
  "immutableReferences": {},
  "source": "// SPDX-License-Identifier: MIT\npragma solidity ^0.8.13;\n\nimport \"@openzeppelin/contracts/token/ERC1155/extensions/ERC1155URIStorage.sol\";\nimport \"@openzeppelin/contracts/token/ERC1155/extensions/ERC1155Burnable.sol\";\nimport \"@openzeppelin/contracts/utils/Strings.sol\";\nimport \"./CarbonBase.sol\";\n\ncontract CarbonToken is CarbonBase {\n    uint256[] private _allTokenIds; // array of all token IDs\n    // uint256 public tokenIds;\n    // mapping(uint256 => CarbonCredit) public _idToCarbonCredit;\n    mapping(uint256 => uint256) private _idToTokenSupply; // mapping of token ID => total supply of token\n    mapping(uint256 => uint256) private _idToTokensIndex; // mapping of token ID => index of token in all tokens array\n    mapping(address => uint256[]) private _ownerToTokenIds; // mapping of owner => list of token IDs\n    mapping(address => mapping(uint256 => uint256)) private _ownedTokensIndex; // Mapping from token ID to index in the above array\n    mapping(uint256 => CarbonCredit) private _idToCarbonCredit;\n    mapping(uint256 => address[]) private _tokenOwners;\n    mapping(uint256 => uint256) private _ownerCount;\n    mapping(uint256 => uint256) private _tokenSold;\n\n    function mint(\n        address account,\n        uint256 id,\n        uint256 amount,\n        bytes memory data\n    ) public {\n        _mint(account, id, amount, data);\n    }\n\n    function setURI(uint256 tokenId, string memory newURI) public {\n        _setURI(tokenId, newURI);\n    }\n\n    function setTokenSupply(uint256 tokenId, uint256 supply) public {\n        _idToTokenSupply[tokenId] = supply;\n    }\n\n    function getTokenSupply(uint256 tokenId) public view returns (uint256) {\n        return _idToTokenSupply[tokenId];\n    }\n\n    function getTokenSold(uint256 tokenId) public view returns (uint256) {\n        return _tokenSold[tokenId];\n    }\n\n    function updateTokenSold(uint256 tokenId, uint256 amount) public {\n        _tokenSold[tokenId] += amount;\n    }\n\n    function getTotalTokensCount() public view returns (uint256) {\n        // returns the total number of credits\n        return _allTokenIds.length;\n    }\n\n    function getTokenByIndex(uint256 index) public view returns (uint256) {\n        require(index < getTotalTokensCount(), \"Index out of bounds.\");\n        return _allTokenIds[index];\n    }\n\n    function getCarbonCredit(\n        uint256 tokenId\n    ) public view returns (CarbonCredit memory) {\n        return _idToCarbonCredit[tokenId];\n    }\n\n    function setCarbonCredit(\n        uint256 tokenId,\n        address owner,\n        ApprovalStatus status,\n        uint256 pricePerCredit,\n        bool isListed\n    ) public {\n        _idToCarbonCredit[tokenId] = CarbonCredit(\n            tokenId,\n            owner,\n            status,\n            pricePerCredit,\n            isListed\n        );\n    }\n\n    function updateStatus(uint256 tokenId, ApprovalStatus status) public {\n        _idToCarbonCredit[tokenId].status = status;\n    }\n\n    function updatePrice(uint256 tokenId, uint256 price) public {\n        _idToCarbonCredit[tokenId].pricePerCredit = price;\n    }\n\n    function updateListed(uint256 tokenId, bool isListed) public {\n        _idToCarbonCredit[tokenId].isListed = isListed;\n    }\n\n    function getOwnedTokensCount(address owner) public view returns (uint256) {\n        return _ownerToTokenIds[owner].length;\n    }\n\n    function getAddTokenToAllTokensEnumeration(uint256 tokenId) public {\n        _addTokenToAllTokensEnumeration(tokenId);\n    }\n\n    function getOwnerTokenByIndex(\n        address owner,\n        uint256 index\n    ) public view returns (uint256) {\n        // require(\n        //     index < balanceOf(owner, getTokenByIndex(index)),\n        //     \"Index out of bounds.\"\n        // );\n        return _ownerToTokenIds[owner][index];\n    }\n\n    function getAllCredits() public view returns (CarbonCredit[] memory) {\n        CarbonCredit[] memory credits = new CarbonCredit[](_allTokenIds.length);\n        for (uint i = 0; i < _allTokenIds.length; i++) {\n            uint tokenId = getTokenByIndex(i);\n            CarbonCredit storage credit = _idToCarbonCredit[tokenId];\n            credits[i] = credit;\n        }\n        return credits;\n    }\n\n    function getOwnedCredits() public view returns (CarbonCredit[] memory) {\n        uint256 ownedCreditsCount = getOwnedTokensCount(msg.sender);\n        CarbonCredit[] memory credits = new CarbonCredit[](ownedCreditsCount);\n\n        for (uint i = 0; i < ownedCreditsCount; i++) {\n            uint tokenId = getOwnerTokenByIndex(msg.sender, i);\n            CarbonCredit storage credit = _idToCarbonCredit[tokenId];\n            credits[i] = credit;\n        }\n        return credits;\n    }\n\n    function getTokenOwners(\n        uint256 tokenId\n    ) public view returns (address[] memory) {\n        return _tokenOwners[tokenId];\n    }\n\n    function getOwnerCount(uint256 tokenId) public view returns (uint256) {\n        return _ownerCount[tokenId];\n    }\n\n    function _beforeTokenTransfer(\n        address operator,\n        address from,\n        address to,\n        uint256[] memory ids,\n        uint256[] memory amounts,\n        bytes memory data\n    ) internal override {\n        super._beforeTokenTransfer(operator, from, to, ids, amounts, data);\n\n        for (uint256 i = 0; i < ids.length; i++) {\n            uint256 tokenId = ids[i];\n            // if (from == address(0)) {\n            //     // This implies the token is being minted\n            //     _addTokenToAllTokensEnumeration(tokenId);\n            //     _idToTokenSupply[tokenId] = amounts[i];\n            // }\n            if (from != address(0) && balanceOf(from, tokenId) == amounts[i]) {\n                // checking before transfer\n                // This implies the sender is transferring all their units of this token type\n                _removeTokenFromOwnerEnumeration(from, tokenId);\n                _removeTokenOwner(tokenId, from);\n            }\n            if (to != address(0) && balanceOf(to, tokenId) == 0) {\n                // identify the first time tokens are transferred to a new holder.\n                // This implies the recipient did not previously own any units of this token type\n                addTokenToOwnerEnumeration(to, tokenId);\n                _addTokenOwner(tokenId, to);\n            } else if (to == address(0)) {\n                // checking before burn\n                _idToTokenSupply[tokenId] -= amounts[i];\n                if (_idToTokenSupply[tokenId] == 0) {\n                    // This implies the recipient is burning all units of a token are burned\n                    _removeTokenFromAllTokensEnumeration(ids[i]);\n                }\n            }\n        }\n    }\n\n    function _removeTokenOwner(uint256 tokenId, address owner) private {\n        require(_ownerCount[tokenId] > 0, \"No owners to remove.\");\n        uint256 length = _tokenOwners[tokenId].length;\n        for (uint256 i = 0; i < length; i++) {\n            if (_tokenOwners[tokenId][i] == owner) {\n                _tokenOwners[tokenId][i] = _tokenOwners[tokenId][length - 1];\n                _tokenOwners[tokenId].pop();\n                _ownerCount[tokenId]--;\n                break;\n            }\n        }\n    }\n\n    function _isOwner(\n        uint256 tokenId,\n        address owner\n    ) private view returns (bool) {\n        for (uint256 i = 0; i < _tokenOwners[tokenId].length; i++) {\n            if (_tokenOwners[tokenId][i] == owner) {\n                return true;\n            }\n        }\n        return false;\n    }\n\n    function _addTokenOwner(uint256 tokenId, address owner) private {\n        if (!_isOwner(tokenId, owner)) {\n            _tokenOwners[tokenId].push(owner);\n            _ownerCount[tokenId]++;\n        }\n    }\n\n    function _addTokenToAllTokensEnumeration(uint256 tokenId) private {\n        _idToTokensIndex[tokenId] = _allTokenIds.length;\n        _allTokenIds.push(tokenId);\n    }\n\n    function addTokenToOwnerEnumeration(address to, uint256 tokenId) public {\n        // check if the owner already owns the token, else add it\n        if (_ownedTokensIndex[to][tokenId] == 0) {\n            _ownerToTokenIds[to].push(tokenId);\n            _ownedTokensIndex[to][tokenId] = _ownerToTokenIds[to].length;\n        }\n    }\n\n    function _removeTokenFromOwnerEnumeration(\n        address owner,\n        uint256 tokenId\n    ) private {\n        uint256 lastTokenIndex = _ownerToTokenIds[owner].length - 1;\n        uint256 tokenIndex = _ownedTokensIndex[owner][tokenId] - 1; // Adjust for 1-based indexing\n\n        if (tokenIndex != lastTokenIndex) {\n            uint256 lastTokenId = _ownerToTokenIds[owner][lastTokenIndex];\n\n            _ownerToTokenIds[owner][tokenIndex] = lastTokenId; // Move the last token to the slot of the to-be-removed token\n            _ownedTokensIndex[owner][lastTokenId] = tokenIndex + 1; // Update the moved token's index to 1-based index\n        }\n\n        _ownerToTokenIds[owner].pop();\n        delete _ownedTokensIndex[owner][tokenId]; // Remove the deleted token's index\n    }\n\n    function _removeTokenFromAllTokensEnumeration(uint256 tokenId) private {\n        uint256 lastTokenIndex = _allTokenIds.length - 1;\n        uint256 tokenIndex = _idToTokensIndex[tokenId];\n        uint256 lastTokenId = _allTokenIds[lastTokenIndex];\n\n        _allTokenIds[tokenIndex] = lastTokenId; // Move the last token to the slot of the to-be-removed token\n        _idToTokensIndex[lastTokenId] = tokenIndex; // Update the moved token's index\n\n        // Remove the last token's data (since it's now either removed or moved)\n        _allTokenIds.pop();\n        delete _idToTokensIndex[tokenId]; // Remove the deleted token's index\n    }\n}\n",
  "sourcePath": "/Users/buudinhha/Vscode/DATN/main/contracts/CarbonToken.sol",
  "compiler": {
    "name": "solc",
    "version": "0.8.13+commit.abaa5c0e.Emscripten.clang"
  },
  "schemaVersion": "3.4.16",
  "updatedAt": "2024-06-05T14:50:32.358Z",
  "networkType": "ethereum",
  "devdoc": {
    "kind": "dev",
    "methods": {
      "balanceOf(address,uint256)": {
        "details": "See {IERC1155-balanceOf}. Requirements: - `account` cannot be the zero address."
      },
      "balanceOfBatch(address[],uint256[])": {
        "details": "See {IERC1155-balanceOfBatch}. Requirements: - `accounts` and `ids` must have the same length."
      },
      "isApprovedForAll(address,address)": {
        "details": "See {IERC1155-isApprovedForAll}."
      },
      "owner()": {
        "details": "Returns the address of the current owner."
      },
      "renounceOwnership()": {
        "details": "Leaves the contract without owner. It will not be possible to call `onlyOwner` functions. Can only be called by the current owner. NOTE: Renouncing ownership will leave the contract without an owner, thereby disabling any functionality that is only available to the owner."
      },
      "safeBatchTransferFrom(address,address,uint256[],uint256[],bytes)": {
        "details": "See {IERC1155-safeBatchTransferFrom}."
      },
      "safeTransferFrom(address,address,uint256,uint256,bytes)": {
        "details": "See {IERC1155-safeTransferFrom}."
      },
      "setApprovalForAll(address,bool)": {
        "details": "See {IERC1155-setApprovalForAll}."
      },
      "supportsInterface(bytes4)": {
        "details": "See {IERC165-supportsInterface}."
      },
      "transferOwnership(address)": {
        "details": "Transfers ownership of the contract to a new account (`newOwner`). Can only be called by the current owner."
      }
    },
    "version": 1
  },
  "userdoc": {
    "kind": "user",
    "methods": {},
    "version": 1
  }
}