{
  "contractName": "CarbonBase",
  "abi": [
    {
      "inputs": [],
      "stateMutability": "nonpayable",
      "type": "constructor"
    },
    {
      "anonymous": false,
      "inputs": [
        {
          "indexed": true,
          "internalType": "address",
          "name": "account",
          "type": "address"
        },
        {
          "indexed": true,
          "internalType": "address",
          "name": "operator",
          "type": "address"
        },
        {
          "indexed": false,
          "internalType": "bool",
          "name": "approved",
          "type": "bool"
        }
      ],
      "name": "ApprovalForAll",
      "type": "event"
    },
    {
      "anonymous": false,
      "inputs": [
        {
          "indexed": false,
          "internalType": "uint256",
          "name": "tokenId",
          "type": "uint256"
        },
        {
          "indexed": false,
          "internalType": "address",
          "name": "initialOwner",
          "type": "address"
        },
        {
          "indexed": false,
          "internalType": "enum CarbonBase.ApprovalStatus",
          "name": "status",
          "type": "uint8"
        },
        {
          "indexed": false,
          "internalType": "uint256",
          "name": "pricePerCredit",
          "type": "uint256"
        },
        {
          "indexed": false,
          "internalType": "bool",
          "name": "isListed",
          "type": "bool"
        }
      ],
      "name": "CarbonCreditCreated",
      "type": "event"
    },
    {
      "anonymous": false,
      "inputs": [
        {
          "indexed": false,
          "internalType": "uint256",
          "name": "tokenId",
          "type": "uint256"
        },
        {
          "indexed": false,
          "internalType": "address",
          "name": "initialOwner",
          "type": "address"
        },
        {
          "indexed": false,
          "internalType": "enum CarbonBase.ApprovalStatus",
          "name": "status",
          "type": "uint8"
        },
        {
          "indexed": false,
          "internalType": "uint256",
          "name": "pricePerCredit",
          "type": "uint256"
        },
        {
          "indexed": false,
          "internalType": "bool",
          "name": "isListed",
          "type": "bool"
        }
      ],
      "name": "CarbonCreditListed",
      "type": "event"
    },
    {
      "anonymous": false,
      "inputs": [
        {
          "indexed": true,
          "internalType": "address",
          "name": "previousOwner",
          "type": "address"
        },
        {
          "indexed": true,
          "internalType": "address",
          "name": "newOwner",
          "type": "address"
        }
      ],
      "name": "OwnershipTransferred",
      "type": "event"
    },
    {
      "anonymous": false,
      "inputs": [
        {
          "indexed": true,
          "internalType": "uint256",
          "name": "tokenId",
          "type": "uint256"
        },
        {
          "indexed": true,
          "internalType": "address",
          "name": "from",
          "type": "address"
        },
        {
          "indexed": true,
          "internalType": "address",
          "name": "to",
          "type": "address"
        },
        {
          "indexed": false,
          "internalType": "uint256",
          "name": "amount",
          "type": "uint256"
        }
      ],
      "name": "TokenTransferred",
      "type": "event"
    },
    {
      "anonymous": false,
      "inputs": [
        {
          "indexed": true,
          "internalType": "address",
          "name": "operator",
          "type": "address"
        },
        {
          "indexed": true,
          "internalType": "address",
          "name": "from",
          "type": "address"
        },
        {
          "indexed": true,
          "internalType": "address",
          "name": "to",
          "type": "address"
        },
        {
          "indexed": false,
          "internalType": "uint256[]",
          "name": "ids",
          "type": "uint256[]"
        },
        {
          "indexed": false,
          "internalType": "uint256[]",
          "name": "values",
          "type": "uint256[]"
        }
      ],
      "name": "TransferBatch",
      "type": "event"
    },
    {
      "anonymous": false,
      "inputs": [
        {
          "indexed": true,
          "internalType": "address",
          "name": "operator",
          "type": "address"
        },
        {
          "indexed": true,
          "internalType": "address",
          "name": "from",
          "type": "address"
        },
        {
          "indexed": true,
          "internalType": "address",
          "name": "to",
          "type": "address"
        },
        {
          "indexed": false,
          "internalType": "uint256",
          "name": "id",
          "type": "uint256"
        },
        {
          "indexed": false,
          "internalType": "uint256",
          "name": "value",
          "type": "uint256"
        }
      ],
      "name": "TransferSingle",
      "type": "event"
    },
    {
      "anonymous": false,
      "inputs": [
        {
          "indexed": false,
          "internalType": "string",
          "name": "value",
          "type": "string"
        },
        {
          "indexed": true,
          "internalType": "uint256",
          "name": "id",
          "type": "uint256"
        }
      ],
      "name": "URI",
      "type": "event"
    },
    {
      "inputs": [
        {
          "internalType": "address",
          "name": "account",
          "type": "address"
        },
        {
          "internalType": "uint256",
          "name": "id",
          "type": "uint256"
        }
      ],
      "name": "balanceOf",
      "outputs": [
        {
          "internalType": "uint256",
          "name": "",
          "type": "uint256"
        }
      ],
      "stateMutability": "view",
      "type": "function"
    },
    {
      "inputs": [
        {
          "internalType": "address[]",
          "name": "accounts",
          "type": "address[]"
        },
        {
          "internalType": "uint256[]",
          "name": "ids",
          "type": "uint256[]"
        }
      ],
      "name": "balanceOfBatch",
      "outputs": [
        {
          "internalType": "uint256[]",
          "name": "",
          "type": "uint256[]"
        }
      ],
      "stateMutability": "view",
      "type": "function"
    },
    {
      "inputs": [
        {
          "internalType": "address",
          "name": "account",
          "type": "address"
        },
        {
          "internalType": "uint256",
          "name": "id",
          "type": "uint256"
        },
        {
          "internalType": "uint256",
          "name": "value",
          "type": "uint256"
        }
      ],
      "name": "burn",
      "outputs": [],
      "stateMutability": "nonpayable",
      "type": "function"
    },
    {
      "inputs": [
        {
          "internalType": "address",
          "name": "account",
          "type": "address"
        },
        {
          "internalType": "uint256[]",
          "name": "ids",
          "type": "uint256[]"
        },
        {
          "internalType": "uint256[]",
          "name": "values",
          "type": "uint256[]"
        }
      ],
      "name": "burnBatch",
      "outputs": [],
      "stateMutability": "nonpayable",
      "type": "function"
    },
    {
      "inputs": [
        {
          "internalType": "address",
          "name": "account",
          "type": "address"
        },
        {
          "internalType": "address",
          "name": "operator",
          "type": "address"
        }
      ],
      "name": "isApprovedForAll",
      "outputs": [
        {
          "internalType": "bool",
          "name": "",
          "type": "bool"
        }
      ],
      "stateMutability": "view",
      "type": "function"
    },
    {
      "inputs": [],
      "name": "owner",
      "outputs": [
        {
          "internalType": "address",
          "name": "",
          "type": "address"
        }
      ],
      "stateMutability": "view",
      "type": "function"
    },
    {
      "inputs": [],
      "name": "renounceOwnership",
      "outputs": [],
      "stateMutability": "nonpayable",
      "type": "function"
    },
    {
      "inputs": [
        {
          "internalType": "address",
          "name": "from",
          "type": "address"
        },
        {
          "internalType": "address",
          "name": "to",
          "type": "address"
        },
        {
          "internalType": "uint256[]",
          "name": "ids",
          "type": "uint256[]"
        },
        {
          "internalType": "uint256[]",
          "name": "amounts",
          "type": "uint256[]"
        },
        {
          "internalType": "bytes",
          "name": "data",
          "type": "bytes"
        }
      ],
      "name": "safeBatchTransferFrom",
      "outputs": [],
      "stateMutability": "nonpayable",
      "type": "function"
    },
    {
      "inputs": [
        {
          "internalType": "address",
          "name": "from",
          "type": "address"
        },
        {
          "internalType": "address",
          "name": "to",
          "type": "address"
        },
        {
          "internalType": "uint256",
          "name": "id",
          "type": "uint256"
        },
        {
          "internalType": "uint256",
          "name": "amount",
          "type": "uint256"
        },
        {
          "internalType": "bytes",
          "name": "data",
          "type": "bytes"
        }
      ],
      "name": "safeTransferFrom",
      "outputs": [],
      "stateMutability": "nonpayable",
      "type": "function"
    },
    {
      "inputs": [
        {
          "internalType": "address",
          "name": "operator",
          "type": "address"
        },
        {
          "internalType": "bool",
          "name": "approved",
          "type": "bool"
        }
      ],
      "name": "setApprovalForAll",
      "outputs": [],
      "stateMutability": "nonpayable",
      "type": "function"
    },
    {
      "inputs": [
        {
          "internalType": "bytes4",
          "name": "interfaceId",
          "type": "bytes4"
        }
      ],
      "name": "supportsInterface",
      "outputs": [
        {
          "internalType": "bool",
          "name": "",
          "type": "bool"
        }
      ],
      "stateMutability": "view",
      "type": "function"
    },
    {
      "inputs": [
        {
          "internalType": "address",
          "name": "newOwner",
          "type": "address"
        }
      ],
      "name": "transferOwnership",
      "outputs": [],
      "stateMutability": "nonpayable",
      "type": "function"
    },
    {
      "inputs": [
        {
          "internalType": "uint256",
          "name": "tokenId",
          "type": "uint256"
        }
      ],
      "name": "uri",
      "outputs": [
        {
          "internalType": "string",
          "name": "",
          "type": "string"
        }
      ],
      "stateMutability": "pure",
      "type": "function"
    }
  ],
  "bytecode": "0x608060405260405180602001604052806000815250600390805190602001906200002b92919062000176565b503480156200003957600080fd5b506040518060600160405280602b8152602001620036f4602b913962000065816200008c60201b60201c565b50620000866200007a620000a860201b60201c565b620000b060201b60201c565b6200028a565b8060029080519060200190620000a492919062000176565b5050565b600033905090565b6000600560009054906101000a900473ffffffffffffffffffffffffffffffffffffffff16905081600560006101000a81548173ffffffffffffffffffffffffffffffffffffffff021916908373ffffffffffffffffffffffffffffffffffffffff1602179055508173ffffffffffffffffffffffffffffffffffffffff168173ffffffffffffffffffffffffffffffffffffffff167f8be0079c531659141344cd1fd0a4f28419497f9722a3daafe3b4186f6b6457e060405160405180910390a35050565b828054620001849062000255565b90600052602060002090601f016020900481019282620001a85760008555620001f4565b82601f10620001c357805160ff1916838001178555620001f4565b82800160010185558215620001f4579182015b82811115620001f3578251825591602001919060010190620001d6565b5b50905062000203919062000207565b5090565b5b808211156200022257600081600090555060010162000208565b5090565b7f4e487b7100000000000000000000000000000000000000000000000000000000600052602260045260246000fd5b600060028204905060018216806200026e57607f821691505b60208210810362000284576200028362000226565b5b50919050565b61345a806200029a6000396000f3fe608060405234801561001057600080fd5b50600436106100ce5760003560e01c8063715018a61161008c578063e985e9c511610066578063e985e9c51461020f578063f242432a1461023f578063f2fde38b1461025b578063f5298aca14610277576100ce565b8063715018a6146101cb5780638da5cb5b146101d5578063a22cb465146101f3576100ce565b8062fdd58e146100d357806301ffc9a7146101035780630e89341c146101335780632eb2c2d6146101635780634e1273f41461017f5780636b20c454146101af575b600080fd5b6100ed60048036038101906100e89190611e84565b610293565b6040516100fa9190611ed3565b60405180910390f35b61011d60048036038101906101189190611f46565b61035b565b60405161012a9190611f8e565b60405180910390f35b61014d60048036038101906101489190611fa9565b61043d565b60405161015a919061206f565b60405180910390f35b61017d6004803603810190610178919061228e565b61046e565b005b61019960048036038101906101949190612420565b61050f565b6040516101a69190612556565b60405180910390f35b6101c960048036038101906101c49190612578565b610628565b005b6101d36106c5565b005b6101dd6106d9565b6040516101ea9190612612565b60405180910390f35b61020d60048036038101906102089190612659565b610703565b005b61022960048036038101906102249190612699565b610719565b6040516102369190611f8e565b60405180910390f35b610259600480360381019061025491906126d9565b6107ad565b005b61027560048036038101906102709190612770565b61084e565b005b610291600480360381019061028c919061279d565b6108d1565b005b60008073ffffffffffffffffffffffffffffffffffffffff168373ffffffffffffffffffffffffffffffffffffffff1603610303576040517f08c379a00000000000000000000000000000000000000000000000000000000081526004016102fa90612862565b60405180910390fd5b60008083815260200190815260200160002060008473ffffffffffffffffffffffffffffffffffffffff1673ffffffffffffffffffffffffffffffffffffffff16815260200190815260200160002054905092915050565b60007fd9b67a26000000000000000000000000000000000000000000000000000000007bffffffffffffffffffffffffffffffffffffffffffffffffffffffff1916827bffffffffffffffffffffffffffffffffffffffffffffffffffffffff1916148061042657507f0e89341c000000000000000000000000000000000000000000000000000000007bffffffffffffffffffffffffffffffffffffffffffffffffffffffff1916827bffffffffffffffffffffffffffffffffffffffffffffffffffffffff1916145b8061043657506104358261096e565b5b9050919050565b6060610448826109d8565b60405160200161045891906129a2565b6040516020818303038152906040529050919050565b610476610aa6565b73ffffffffffffffffffffffffffffffffffffffff168573ffffffffffffffffffffffffffffffffffffffff1614806104bc57506104bb856104b6610aa6565b610719565b5b6104fb576040517f08c379a00000000000000000000000000000000000000000000000000000000081526004016104f290612a41565b60405180910390fd5b6105088585858585610aae565b5050505050565b60608151835114610555576040517f08c379a000000000000000000000000000000000000000000000000000000000815260040161054c90612ad3565b60405180910390fd5b6000835167ffffffffffffffff81111561057257610571612096565b5b6040519080825280602002602001820160405280156105a05781602001602082028036833780820191505090505b50905060005b845181101561061d576105ed8582815181106105c5576105c4612af3565b5b60200260200101518583815181106105e0576105df612af3565b5b6020026020010151610293565b828281518110610600576105ff612af3565b5b6020026020010181815250508061061690612b51565b90506105a6565b508091505092915050565b610630610aa6565b73ffffffffffffffffffffffffffffffffffffffff168373ffffffffffffffffffffffffffffffffffffffff161480610676575061067583610670610aa6565b610719565b5b6106b5576040517f08c379a00000000000000000000000000000000000000000000000000000000081526004016106ac90612a41565b60405180910390fd5b6106c0838383610dcf565b505050565b6106cd61109d565b6106d7600061111b565b565b6000600560009054906101000a900473ffffffffffffffffffffffffffffffffffffffff16905090565b61071561070e610aa6565b83836111e1565b5050565b6000600160008473ffffffffffffffffffffffffffffffffffffffff1673ffffffffffffffffffffffffffffffffffffffff16815260200190815260200160002060008373ffffffffffffffffffffffffffffffffffffffff1673ffffffffffffffffffffffffffffffffffffffff16815260200190815260200160002060009054906101000a900460ff16905092915050565b6107b5610aa6565b73ffffffffffffffffffffffffffffffffffffffff168573ffffffffffffffffffffffffffffffffffffffff1614806107fb57506107fa856107f5610aa6565b610719565b5b61083a576040517f08c379a000000000000000000000000000000000000000000000000000000000815260040161083190612a41565b60405180910390fd5b610847858585858561134d565b5050505050565b61085661109d565b600073ffffffffffffffffffffffffffffffffffffffff168173ffffffffffffffffffffffffffffffffffffffff16036108c5576040517f08c379a00000000000000000000000000000000000000000000000000000000081526004016108bc90612c0b565b60405180910390fd5b6108ce8161111b565b50565b6108d9610aa6565b73ffffffffffffffffffffffffffffffffffffffff168373ffffffffffffffffffffffffffffffffffffffff16148061091f575061091e83610919610aa6565b610719565b5b61095e576040517f08c379a000000000000000000000000000000000000000000000000000000000815260040161095590612a41565b60405180910390fd5b6109698383836115e8565b505050565b60007f01ffc9a7000000000000000000000000000000000000000000000000000000007bffffffffffffffffffffffffffffffffffffffffffffffffffffffff1916827bffffffffffffffffffffffffffffffffffffffffffffffffffffffff1916149050919050565b6060600060016109e78461182e565b01905060008167ffffffffffffffff811115610a0657610a05612096565b5b6040519080825280601f01601f191660200182016040528015610a385781602001600182028036833780820191505090505b509050600082602001820190505b600115610a9b578080600190039150507f3031323334353637383961626364656600000000000000000000000000000000600a86061a8153600a8581610a8f57610a8e612c2b565b5b04945060008503610a46575b819350505050919050565b600033905090565b8151835114610af2576040517f08c379a0000000000000000000000000000000000000000000000000000000008152600401610ae990612ccc565b60405180910390fd5b600073ffffffffffffffffffffffffffffffffffffffff168473ffffffffffffffffffffffffffffffffffffffff1603610b61576040517f08c379a0000000000000000000000000000000000000000000000000000000008152600401610b5890612d5e565b60405180910390fd5b6000610b6b610aa6565b9050610b7b818787878787611981565b60005b8451811015610d2c576000858281518110610b9c57610b9b612af3565b5b602002602001015190506000858381518110610bbb57610bba612af3565b5b60200260200101519050600080600084815260200190815260200160002060008b73ffffffffffffffffffffffffffffffffffffffff1673ffffffffffffffffffffffffffffffffffffffff16815260200190815260200160002054905081811015610c5c576040517f08c379a0000000000000000000000000000000000000000000000000000000008152600401610c5390612df0565b60405180910390fd5b81810360008085815260200190815260200160002060008c73ffffffffffffffffffffffffffffffffffffffff1673ffffffffffffffffffffffffffffffffffffffff168152602001908152602001600020819055508160008085815260200190815260200160002060008b73ffffffffffffffffffffffffffffffffffffffff1673ffffffffffffffffffffffffffffffffffffffff1681526020019081526020016000206000828254610d119190612e10565b9250508190555050505080610d2590612b51565b9050610b7e565b508473ffffffffffffffffffffffffffffffffffffffff168673ffffffffffffffffffffffffffffffffffffffff168273ffffffffffffffffffffffffffffffffffffffff167f4a39dc06d4c0dbc64b70af90fd698a233a518aa5d07e595d983b8c0526c8f7fb8787604051610da3929190612e66565b60405180910390a4610db9818787878787611989565b610dc7818787878787611991565b505050505050565b600073ffffffffffffffffffffffffffffffffffffffff168373ffffffffffffffffffffffffffffffffffffffff1603610e3e576040517f08c379a0000000000000000000000000000000000000000000000000000000008152600401610e3590612f0f565b60405180910390fd5b8051825114610e82576040517f08c379a0000000000000000000000000000000000000000000000000000000008152600401610e7990612ccc565b60405180910390fd5b6000610e8c610aa6565b9050610eac81856000868660405180602001604052806000815250611981565b60005b8351811015610ff9576000848281518110610ecd57610ecc612af3565b5b602002602001015190506000848381518110610eec57610eeb612af3565b5b60200260200101519050600080600084815260200190815260200160002060008973ffffffffffffffffffffffffffffffffffffffff1673ffffffffffffffffffffffffffffffffffffffff16815260200190815260200160002054905081811015610f8d576040517f08c379a0000000000000000000000000000000000000000000000000000000008152600401610f8490612fa1565b60405180910390fd5b81810360008085815260200190815260200160002060008a73ffffffffffffffffffffffffffffffffffffffff1673ffffffffffffffffffffffffffffffffffffffff168152602001908152602001600020819055505050508080610ff190612b51565b915050610eaf565b50600073ffffffffffffffffffffffffffffffffffffffff168473ffffffffffffffffffffffffffffffffffffffff168273ffffffffffffffffffffffffffffffffffffffff167f4a39dc06d4c0dbc64b70af90fd698a233a518aa5d07e595d983b8c0526c8f7fb8686604051611071929190612e66565b60405180910390a461109781856000868660405180602001604052806000815250611989565b50505050565b6110a5610aa6565b73ffffffffffffffffffffffffffffffffffffffff166110c36106d9565b73ffffffffffffffffffffffffffffffffffffffff1614611119576040517f08c379a00000000000000000000000000000000000000000000000000000000081526004016111109061300d565b60405180910390fd5b565b6000600560009054906101000a900473ffffffffffffffffffffffffffffffffffffffff16905081600560006101000a81548173ffffffffffffffffffffffffffffffffffffffff021916908373ffffffffffffffffffffffffffffffffffffffff1602179055508173ffffffffffffffffffffffffffffffffffffffff168173ffffffffffffffffffffffffffffffffffffffff167f8be0079c531659141344cd1fd0a4f28419497f9722a3daafe3b4186f6b6457e060405160405180910390a35050565b8173ffffffffffffffffffffffffffffffffffffffff168373ffffffffffffffffffffffffffffffffffffffff160361124f576040517f08c379a00000000000000000000000000000000000000000000000000000000081526004016112469061309f565b60405180910390fd5b80600160008573ffffffffffffffffffffffffffffffffffffffff1673ffffffffffffffffffffffffffffffffffffffff16815260200190815260200160002060008473ffffffffffffffffffffffffffffffffffffffff1673ffffffffffffffffffffffffffffffffffffffff16815260200190815260200160002060006101000a81548160ff0219169083151502179055508173ffffffffffffffffffffffffffffffffffffffff168373ffffffffffffffffffffffffffffffffffffffff167f17307eab39ab6107e8899845ad3d59bd9653f200f220920489ca2b5937696c31836040516113409190611f8e565b60405180910390a3505050565b600073ffffffffffffffffffffffffffffffffffffffff168473ffffffffffffffffffffffffffffffffffffffff16036113bc576040517f08c379a00000000000000000000000000000000000000000000000000000000081526004016113b390612d5e565b60405180910390fd5b60006113c6610aa6565b905060006113d385611b68565b905060006113e085611b68565b90506113f0838989858589611981565b600080600088815260200190815260200160002060008a73ffffffffffffffffffffffffffffffffffffffff1673ffffffffffffffffffffffffffffffffffffffff16815260200190815260200160002054905085811015611487576040517f08c379a000000000000000000000000000000000000000000000000000000000815260040161147e90612df0565b60405180910390fd5b85810360008089815260200190815260200160002060008b73ffffffffffffffffffffffffffffffffffffffff1673ffffffffffffffffffffffffffffffffffffffff168152602001908152602001600020819055508560008089815260200190815260200160002060008a73ffffffffffffffffffffffffffffffffffffffff1673ffffffffffffffffffffffffffffffffffffffff168152602001908152602001600020600082825461153c9190612e10565b925050819055508773ffffffffffffffffffffffffffffffffffffffff168973ffffffffffffffffffffffffffffffffffffffff168573ffffffffffffffffffffffffffffffffffffffff167fc3d58168c5ae7397731d063d5bbf3d657854427343f4c083240f7aacaa2d0f628a8a6040516115b99291906130bf565b60405180910390a46115cf848a8a86868a611989565b6115dd848a8a8a8a8a611be2565b505050505050505050565b600073ffffffffffffffffffffffffffffffffffffffff168373ffffffffffffffffffffffffffffffffffffffff1603611657576040517f08c379a000000000000000000000000000000000000000000000000000000000815260040161164e90612f0f565b60405180910390fd5b6000611661610aa6565b9050600061166e84611b68565b9050600061167b84611b68565b905061169b83876000858560405180602001604052806000815250611981565b600080600087815260200190815260200160002060008873ffffffffffffffffffffffffffffffffffffffff1673ffffffffffffffffffffffffffffffffffffffff16815260200190815260200160002054905084811015611732576040517f08c379a000000000000000000000000000000000000000000000000000000000815260040161172990612fa1565b60405180910390fd5b84810360008088815260200190815260200160002060008973ffffffffffffffffffffffffffffffffffffffff1673ffffffffffffffffffffffffffffffffffffffff16815260200190815260200160002081905550600073ffffffffffffffffffffffffffffffffffffffff168773ffffffffffffffffffffffffffffffffffffffff168573ffffffffffffffffffffffffffffffffffffffff167fc3d58168c5ae7397731d063d5bbf3d657854427343f4c083240f7aacaa2d0f6289896040516117ff9291906130bf565b60405180910390a461182584886000868660405180602001604052806000815250611989565b50505050505050565b600080600090507a184f03e93ff9f4daa797ed6e38ed64bf6a1f010000000000000000831061188c577a184f03e93ff9f4daa797ed6e38ed64bf6a1f010000000000000000838161188257611881612c2b565b5b0492506040810190505b6d04ee2d6d415b85acef810000000083106118c9576d04ee2d6d415b85acef810000000083816118bf576118be612c2b565b5b0492506020810190505b662386f26fc1000083106118f857662386f26fc1000083816118ee576118ed612c2b565b5b0492506010810190505b6305f5e1008310611921576305f5e100838161191757611916612c2b565b5b0492506008810190505b612710831061194657612710838161193c5761193b612c2b565b5b0492506004810190505b60648310611969576064838161195f5761195e612c2b565b5b0492506002810190505b600a8310611978576001810190505b80915050919050565b505050505050565b505050505050565b6119b08473ffffffffffffffffffffffffffffffffffffffff16611db9565b15611b60578373ffffffffffffffffffffffffffffffffffffffff1663bc197c8187878686866040518663ffffffff1660e01b81526004016119f695949392919061313d565b6020604051808303816000875af1925050508015611a3257506040513d601f19601f82011682018060405250810190611a2f91906131ba565b60015b611ad757611a3e6131f4565b806308c379a003611a9a5750611a52613216565b80611a5d5750611a9c565b806040517f08c379a0000000000000000000000000000000000000000000000000000000008152600401611a91919061206f565b60405180910390fd5b505b6040517f08c379a0000000000000000000000000000000000000000000000000000000008152600401611ace90613318565b60405180910390fd5b63bc197c8160e01b7bffffffffffffffffffffffffffffffffffffffffffffffffffffffff1916817bffffffffffffffffffffffffffffffffffffffffffffffffffffffff191614611b5e576040517f08c379a0000000000000000000000000000000000000000000000000000000008152600401611b55906133aa565b60405180910390fd5b505b505050505050565b60606000600167ffffffffffffffff811115611b8757611b86612096565b5b604051908082528060200260200182016040528015611bb55781602001602082028036833780820191505090505b5090508281600081518110611bcd57611bcc612af3565b5b60200260200101818152505080915050919050565b611c018473ffffffffffffffffffffffffffffffffffffffff16611db9565b15611db1578373ffffffffffffffffffffffffffffffffffffffff1663f23a6e6187878686866040518663ffffffff1660e01b8152600401611c479594939291906133ca565b6020604051808303816000875af1925050508015611c8357506040513d601f19601f82011682018060405250810190611c8091906131ba565b60015b611d2857611c8f6131f4565b806308c379a003611ceb5750611ca3613216565b80611cae5750611ced565b806040517f08c379a0000000000000000000000000000000000000000000000000000000008152600401611ce2919061206f565b60405180910390fd5b505b6040517f08c379a0000000000000000000000000000000000000000000000000000000008152600401611d1f90613318565b60405180910390fd5b63f23a6e6160e01b7bffffffffffffffffffffffffffffffffffffffffffffffffffffffff1916817bffffffffffffffffffffffffffffffffffffffffffffffffffffffff191614611daf576040517f08c379a0000000000000000000000000000000000000000000000000000000008152600401611da6906133aa565b60405180910390fd5b505b505050505050565b6000808273ffffffffffffffffffffffffffffffffffffffff163b119050919050565b6000604051905090565b600080fd5b600080fd5b600073ffffffffffffffffffffffffffffffffffffffff82169050919050565b6000611e1b82611df0565b9050919050565b611e2b81611e10565b8114611e3657600080fd5b50565b600081359050611e4881611e22565b92915050565b6000819050919050565b611e6181611e4e565b8114611e6c57600080fd5b50565b600081359050611e7e81611e58565b92915050565b60008060408385031215611e9b57611e9a611de6565b5b6000611ea985828601611e39565b9250506020611eba85828601611e6f565b9150509250929050565b611ecd81611e4e565b82525050565b6000602082019050611ee86000830184611ec4565b92915050565b60007fffffffff0000000000000000000000000000000000000000000000000000000082169050919050565b611f2381611eee565b8114611f2e57600080fd5b50565b600081359050611f4081611f1a565b92915050565b600060208284031215611f5c57611f5b611de6565b5b6000611f6a84828501611f31565b91505092915050565b60008115159050919050565b611f8881611f73565b82525050565b6000602082019050611fa36000830184611f7f565b92915050565b600060208284031215611fbf57611fbe611de6565b5b6000611fcd84828501611e6f565b91505092915050565b600081519050919050565b600082825260208201905092915050565b60005b83811015612010578082015181840152602081019050611ff5565b8381111561201f576000848401525b50505050565b6000601f19601f8301169050919050565b600061204182611fd6565b61204b8185611fe1565b935061205b818560208601611ff2565b61206481612025565b840191505092915050565b600060208201905081810360008301526120898184612036565b905092915050565b600080fd5b7f4e487b7100000000000000000000000000000000000000000000000000000000600052604160045260246000fd5b6120ce82612025565b810181811067ffffffffffffffff821117156120ed576120ec612096565b5b80604052505050565b6000612100611ddc565b905061210c82826120c5565b919050565b600067ffffffffffffffff82111561212c5761212b612096565b5b602082029050602081019050919050565b600080fd5b600061215561215084612111565b6120f6565b905080838252602082019050602084028301858111156121785761217761213d565b5b835b818110156121a1578061218d8882611e6f565b84526020840193505060208101905061217a565b5050509392505050565b600082601f8301126121c0576121bf612091565b5b81356121d0848260208601612142565b91505092915050565b600080fd5b600067ffffffffffffffff8211156121f9576121f8612096565b5b61220282612025565b9050602081019050919050565b82818337600083830152505050565b600061223161222c846121de565b6120f6565b90508281526020810184848401111561224d5761224c6121d9565b5b61225884828561220f565b509392505050565b600082601f83011261227557612274612091565b5b813561228584826020860161221e565b91505092915050565b600080600080600060a086880312156122aa576122a9611de6565b5b60006122b888828901611e39565b95505060206122c988828901611e39565b945050604086013567ffffffffffffffff8111156122ea576122e9611deb565b5b6122f6888289016121ab565b935050606086013567ffffffffffffffff81111561231757612316611deb565b5b612323888289016121ab565b925050608086013567ffffffffffffffff81111561234457612343611deb565b5b61235088828901612260565b9150509295509295909350565b600067ffffffffffffffff82111561237857612377612096565b5b602082029050602081019050919050565b600061239c6123978461235d565b6120f6565b905080838252602082019050602084028301858111156123bf576123be61213d565b5b835b818110156123e857806123d48882611e39565b8452602084019350506020810190506123c1565b5050509392505050565b600082601f83011261240757612406612091565b5b8135612417848260208601612389565b91505092915050565b6000806040838503121561243757612436611de6565b5b600083013567ffffffffffffffff81111561245557612454611deb565b5b612461858286016123f2565b925050602083013567ffffffffffffffff81111561248257612481611deb565b5b61248e858286016121ab565b9150509250929050565b600081519050919050565b600082825260208201905092915050565b6000819050602082019050919050565b6124cd81611e4e565b82525050565b60006124df83836124c4565b60208301905092915050565b6000602082019050919050565b600061250382612498565b61250d81856124a3565b9350612518836124b4565b8060005b8381101561254957815161253088826124d3565b975061253b836124eb565b92505060018101905061251c565b5085935050505092915050565b6000602082019050818103600083015261257081846124f8565b905092915050565b60008060006060848603121561259157612590611de6565b5b600061259f86828701611e39565b935050602084013567ffffffffffffffff8111156125c0576125bf611deb565b5b6125cc868287016121ab565b925050604084013567ffffffffffffffff8111156125ed576125ec611deb565b5b6125f9868287016121ab565b9150509250925092565b61260c81611e10565b82525050565b60006020820190506126276000830184612603565b92915050565b61263681611f73565b811461264157600080fd5b50565b6000813590506126538161262d565b92915050565b600080604083850312156126705761266f611de6565b5b600061267e85828601611e39565b925050602061268f85828601612644565b9150509250929050565b600080604083850312156126b0576126af611de6565b5b60006126be85828601611e39565b92505060206126cf85828601611e39565b9150509250929050565b600080600080600060a086880312156126f5576126f4611de6565b5b600061270388828901611e39565b955050602061271488828901611e39565b945050604061272588828901611e6f565b935050606061273688828901611e6f565b925050608086013567ffffffffffffffff81111561275757612756611deb565b5b61276388828901612260565b9150509295509295909350565b60006020828403121561278657612785611de6565b5b600061279484828501611e39565b91505092915050565b6000806000606084860312156127b6576127b5611de6565b5b60006127c486828701611e39565b93505060206127d586828701611e6f565b92505060406127e686828701611e6f565b9150509250925092565b7f455243313135353a2061646472657373207a65726f206973206e6f742061207660008201527f616c6964206f776e657200000000000000000000000000000000000000000000602082015250565b600061284c602a83611fe1565b9150612857826127f0565b604082019050919050565b6000602082019050818103600083015261287b8161283f565b9050919050565b600081905092915050565b7f68747470733a2f2f676174657761792e70696e6174612e636c6f75642f69706660008201527f732f516d52614e785a6f7546756e6e446e6473353756476d747274413245424560208201527f464c65737a6158416f38475a665a38652f000000000000000000000000000000604082015250565b600061290f605183612882565b915061291a8261288d565b605182019050919050565b600061293082611fd6565b61293a8185612882565b935061294a818560208601611ff2565b80840191505092915050565b7f2e6a736f6e000000000000000000000000000000000000000000000000000000600082015250565b600061298c600583612882565b915061299782612956565b600582019050919050565b60006129ad82612902565b91506129b98284612925565b91506129c48261297f565b915081905092915050565b7f455243313135353a2063616c6c6572206973206e6f7420746f6b656e206f776e60008201527f6572206f7220617070726f766564000000000000000000000000000000000000602082015250565b6000612a2b602e83611fe1565b9150612a36826129cf565b604082019050919050565b60006020820190508181036000830152612a5a81612a1e565b9050919050565b7f455243313135353a206163636f756e747320616e6420696473206c656e67746860008201527f206d69736d617463680000000000000000000000000000000000000000000000602082015250565b6000612abd602983611fe1565b9150612ac882612a61565b604082019050919050565b60006020820190508181036000830152612aec81612ab0565b9050919050565b7f4e487b7100000000000000000000000000000000000000000000000000000000600052603260045260246000fd5b7f4e487b7100000000000000000000000000000000000000000000000000000000600052601160045260246000fd5b6000612b5c82611e4e565b91507fffffffffffffffffffffffffffffffffffffffffffffffffffffffffffffffff8203612b8e57612b8d612b22565b5b600182019050919050565b7f4f776e61626c653a206e6577206f776e657220697320746865207a65726f206160008201527f6464726573730000000000000000000000000000000000000000000000000000602082015250565b6000612bf5602683611fe1565b9150612c0082612b99565b604082019050919050565b60006020820190508181036000830152612c2481612be8565b9050919050565b7f4e487b7100000000000000000000000000000000000000000000000000000000600052601260045260246000fd5b7f455243313135353a2069647320616e6420616d6f756e7473206c656e6774682060008201527f6d69736d61746368000000000000000000000000000000000000000000000000602082015250565b6000612cb6602883611fe1565b9150612cc182612c5a565b604082019050919050565b60006020820190508181036000830152612ce581612ca9565b9050919050565b7f455243313135353a207472616e7366657220746f20746865207a65726f20616460008201527f6472657373000000000000000000000000000000000000000000000000000000602082015250565b6000612d48602583611fe1565b9150612d5382612cec565b604082019050919050565b60006020820190508181036000830152612d7781612d3b565b9050919050565b7f455243313135353a20696e73756666696369656e742062616c616e636520666f60008201527f72207472616e7366657200000000000000000000000000000000000000000000602082015250565b6000612dda602a83611fe1565b9150612de582612d7e565b604082019050919050565b60006020820190508181036000830152612e0981612dcd565b9050919050565b6000612e1b82611e4e565b9150612e2683611e4e565b9250827fffffffffffffffffffffffffffffffffffffffffffffffffffffffffffffffff03821115612e5b57612e5a612b22565b5b828201905092915050565b60006040820190508181036000830152612e8081856124f8565b90508181036020830152612e9481846124f8565b90509392505050565b7f455243313135353a206275726e2066726f6d20746865207a65726f206164647260008201527f6573730000000000000000000000000000000000000000000000000000000000602082015250565b6000612ef9602383611fe1565b9150612f0482612e9d565b604082019050919050565b60006020820190508181036000830152612f2881612eec565b9050919050565b7f455243313135353a206275726e20616d6f756e7420657863656564732062616c60008201527f616e636500000000000000000000000000000000000000000000000000000000602082015250565b6000612f8b602483611fe1565b9150612f9682612f2f565b604082019050919050565b60006020820190508181036000830152612fba81612f7e565b9050919050565b7f4f776e61626c653a2063616c6c6572206973206e6f7420746865206f776e6572600082015250565b6000612ff7602083611fe1565b915061300282612fc1565b602082019050919050565b6000602082019050818103600083015261302681612fea565b9050919050565b7f455243313135353a2073657474696e6720617070726f76616c2073746174757360008201527f20666f722073656c660000000000000000000000000000000000000000000000602082015250565b6000613089602983611fe1565b91506130948261302d565b604082019050919050565b600060208201905081810360008301526130b88161307c565b9050919050565b60006040820190506130d46000830185611ec4565b6130e16020830184611ec4565b9392505050565b600081519050919050565b600082825260208201905092915050565b600061310f826130e8565b61311981856130f3565b9350613129818560208601611ff2565b61313281612025565b840191505092915050565b600060a0820190506131526000830188612603565b61315f6020830187612603565b818103604083015261317181866124f8565b9050818103606083015261318581856124f8565b905081810360808301526131998184613104565b90509695505050505050565b6000815190506131b481611f1a565b92915050565b6000602082840312156131d0576131cf611de6565b5b60006131de848285016131a5565b91505092915050565b60008160e01c9050919050565b600060033d11156132135760046000803e6132106000516131e7565b90505b90565b600060443d106132a357613228611ddc565b60043d036004823e80513d602482011167ffffffffffffffff821117156132505750506132a3565b808201805167ffffffffffffffff81111561326e57505050506132a3565b80602083010160043d03850181111561328b5750505050506132a3565b61329a826020018501866120c5565b82955050505050505b90565b7f455243313135353a207472616e7366657220746f206e6f6e2d4552433131353560008201527f526563656976657220696d706c656d656e746572000000000000000000000000602082015250565b6000613302603483611fe1565b915061330d826132a6565b604082019050919050565b60006020820190508181036000830152613331816132f5565b9050919050565b7f455243313135353a204552433131353552656365697665722072656a6563746560008201527f6420746f6b656e73000000000000000000000000000000000000000000000000602082015250565b6000613394602883611fe1565b915061339f82613338565b604082019050919050565b600060208201905081810360008301526133c381613387565b9050919050565b600060a0820190506133df6000830188612603565b6133ec6020830187612603565b6133f96040830186611ec4565b6134066060830185611ec4565b81810360808301526134188184613104565b9050969550505050505056fea2646970667358221220d7c8dc5e6f0d110aea495635d378193de1e56a95f2e9369a6b1e36c1926b947464736f6c634300080d003368747470733a2f2f676174657761792e70696e6174612e636c6f75642f697066732f7b69647d2e6a736f6e",
  "immutableReferences": {},
  "source": "// SPDX-License-Identifier: MIT\npragma solidity ^0.8.13;\n\nimport \"@openzeppelin/contracts/token/ERC1155/extensions/ERC1155URIStorage.sol\";\nimport \"@openzeppelin/contracts/access/Ownable.sol\";\nimport \"@openzeppelin/contracts/token/ERC1155/extensions/ERC1155Burnable.sol\";\n\ncontract CarbonBase is ERC1155URIStorage, ERC1155Burnable, Ownable {\n    enum ApprovalStatus {\n        Pending,\n        Approved,\n        Declined\n    }\n\n    struct CarbonCredit {\n        uint256 tokenId;\n        address initialOwner;\n        ApprovalStatus status;\n        uint256 pricePerCredit;\n        bool isListed;\n    }\n\n    event CarbonCreditCreated(\n        uint256 tokenId,\n        address initialOwner,\n        ApprovalStatus status,\n        uint256 pricePerCredit,\n        bool isListed\n    );\n\n    event CarbonCreditListed(\n        uint256 tokenId,\n        address initialOwner,\n        ApprovalStatus status,\n        uint256 pricePerCredit,\n        bool isListed\n    );\n\n    event TokenTransferred(\n        uint256 indexed tokenId,\n        address indexed from,\n        address indexed to,\n        uint256 amount\n    );\n\n    constructor() ERC1155(\"https://gateway.pinata.cloud/ipfs/{id}.json\") {}\n\n    function uri(\n        uint256 tokenId\n    ) public pure override(ERC1155, ERC1155URIStorage) returns (string memory) {\n        return\n            string(\n                abi.encodePacked(\n                    \"https://gateway.pinata.cloud/ipfs/QmRaNxZouFunnDnds57VGmtrtA2EBEFLeszaXAo8GZfZ8e/\",\n                    Strings.toString(tokenId),\n                    \".json\"\n                )\n            );\n    }\n}\n",
  "sourcePath": "/Users/buudinhha/Vscode/DATN/main/contracts/CarbonBase.sol",
  "compiler": {
    "name": "solc",
    "version": "0.8.13+commit.abaa5c0e.Emscripten.clang"
  },
  "schemaVersion": "3.4.16",
  "updatedAt": "2024-04-24T09:15:39.359Z",
  "devdoc": {
    "kind": "dev",
    "methods": {
      "balanceOf(address,uint256)": {
        "details": "See {IERC1155-balanceOf}. Requirements: - `account` cannot be the zero address."
      },
      "balanceOfBatch(address[],uint256[])": {
        "details": "See {IERC1155-balanceOfBatch}. Requirements: - `accounts` and `ids` must have the same length."
      },
      "isApprovedForAll(address,address)": {
        "details": "See {IERC1155-isApprovedForAll}."
      },
      "owner()": {
        "details": "Returns the address of the current owner."
      },
      "renounceOwnership()": {
        "details": "Leaves the contract without owner. It will not be possible to call `onlyOwner` functions. Can only be called by the current owner. NOTE: Renouncing ownership will leave the contract without an owner, thereby disabling any functionality that is only available to the owner."
      },
      "safeBatchTransferFrom(address,address,uint256[],uint256[],bytes)": {
        "details": "See {IERC1155-safeBatchTransferFrom}."
      },
      "safeTransferFrom(address,address,uint256,uint256,bytes)": {
        "details": "See {IERC1155-safeTransferFrom}."
      },
      "setApprovalForAll(address,bool)": {
        "details": "See {IERC1155-setApprovalForAll}."
      },
      "supportsInterface(bytes4)": {
        "details": "See {IERC165-supportsInterface}."
      },
      "transferOwnership(address)": {
        "details": "Transfers ownership of the contract to a new account (`newOwner`). Can only be called by the current owner."
      }
    },
    "version": 1
  },
  "userdoc": {
    "kind": "user",
    "methods": {},
    "version": 1
  }
}