{
  "contractName": "CarbonToken",
  "abi": [
    {
      "anonymous": false,
      "inputs": [
        {
          "indexed": true,
          "internalType": "address",
          "name": "account",
          "type": "address"
        },
        {
          "indexed": true,
          "internalType": "address",
          "name": "operator",
          "type": "address"
        },
        {
          "indexed": false,
          "internalType": "bool",
          "name": "approved",
          "type": "bool"
        }
      ],
      "name": "ApprovalForAll",
      "type": "event"
    },
    {
      "anonymous": false,
      "inputs": [
        {
          "indexed": false,
          "internalType": "uint256",
          "name": "tokenId",
          "type": "uint256"
        },
        {
          "indexed": false,
          "internalType": "address",
          "name": "initialOwner",
          "type": "address"
        },
        {
          "indexed": false,
          "internalType": "enum CarbonBase.ApprovalStatus",
          "name": "status",
          "type": "uint8"
        },
        {
          "indexed": false,
          "internalType": "uint256",
          "name": "pricePerCredit",
          "type": "uint256"
        },
        {
          "indexed": false,
          "internalType": "bool",
          "name": "isListed",
          "type": "bool"
        }
      ],
      "name": "CarbonCreditCreated",
      "type": "event"
    },
    {
      "anonymous": false,
      "inputs": [
        {
          "indexed": false,
          "internalType": "uint256",
          "name": "tokenId",
          "type": "uint256"
        },
        {
          "indexed": false,
          "internalType": "address",
          "name": "initialOwner",
          "type": "address"
        },
        {
          "indexed": false,
          "internalType": "enum CarbonBase.ApprovalStatus",
          "name": "status",
          "type": "uint8"
        },
        {
          "indexed": false,
          "internalType": "uint256",
          "name": "pricePerCredit",
          "type": "uint256"
        },
        {
          "indexed": false,
          "internalType": "bool",
          "name": "isListed",
          "type": "bool"
        }
      ],
      "name": "CarbonCreditListed",
      "type": "event"
    },
    {
      "anonymous": false,
      "inputs": [
        {
          "indexed": true,
          "internalType": "address",
          "name": "previousOwner",
          "type": "address"
        },
        {
          "indexed": true,
          "internalType": "address",
          "name": "newOwner",
          "type": "address"
        }
      ],
      "name": "OwnershipTransferred",
      "type": "event"
    },
    {
      "anonymous": false,
      "inputs": [
        {
          "indexed": true,
          "internalType": "uint256",
          "name": "tokenId",
          "type": "uint256"
        },
        {
          "indexed": true,
          "internalType": "address",
          "name": "from",
          "type": "address"
        },
        {
          "indexed": true,
          "internalType": "address",
          "name": "to",
          "type": "address"
        },
        {
          "indexed": false,
          "internalType": "uint256",
          "name": "amount",
          "type": "uint256"
        }
      ],
      "name": "TokenTransferred",
      "type": "event"
    },
    {
      "anonymous": false,
      "inputs": [
        {
          "indexed": true,
          "internalType": "address",
          "name": "operator",
          "type": "address"
        },
        {
          "indexed": true,
          "internalType": "address",
          "name": "from",
          "type": "address"
        },
        {
          "indexed": true,
          "internalType": "address",
          "name": "to",
          "type": "address"
        },
        {
          "indexed": false,
          "internalType": "uint256[]",
          "name": "ids",
          "type": "uint256[]"
        },
        {
          "indexed": false,
          "internalType": "uint256[]",
          "name": "values",
          "type": "uint256[]"
        }
      ],
      "name": "TransferBatch",
      "type": "event"
    },
    {
      "anonymous": false,
      "inputs": [
        {
          "indexed": true,
          "internalType": "address",
          "name": "operator",
          "type": "address"
        },
        {
          "indexed": true,
          "internalType": "address",
          "name": "from",
          "type": "address"
        },
        {
          "indexed": true,
          "internalType": "address",
          "name": "to",
          "type": "address"
        },
        {
          "indexed": false,
          "internalType": "uint256",
          "name": "id",
          "type": "uint256"
        },
        {
          "indexed": false,
          "internalType": "uint256",
          "name": "value",
          "type": "uint256"
        }
      ],
      "name": "TransferSingle",
      "type": "event"
    },
    {
      "anonymous": false,
      "inputs": [
        {
          "indexed": false,
          "internalType": "string",
          "name": "value",
          "type": "string"
        },
        {
          "indexed": true,
          "internalType": "uint256",
          "name": "id",
          "type": "uint256"
        }
      ],
      "name": "URI",
      "type": "event"
    },
    {
      "inputs": [
        {
          "internalType": "address",
          "name": "account",
          "type": "address"
        },
        {
          "internalType": "uint256",
          "name": "id",
          "type": "uint256"
        }
      ],
      "name": "balanceOf",
      "outputs": [
        {
          "internalType": "uint256",
          "name": "",
          "type": "uint256"
        }
      ],
      "stateMutability": "view",
      "type": "function",
      "constant": true
    },
    {
      "inputs": [
        {
          "internalType": "address[]",
          "name": "accounts",
          "type": "address[]"
        },
        {
          "internalType": "uint256[]",
          "name": "ids",
          "type": "uint256[]"
        }
      ],
      "name": "balanceOfBatch",
      "outputs": [
        {
          "internalType": "uint256[]",
          "name": "",
          "type": "uint256[]"
        }
      ],
      "stateMutability": "view",
      "type": "function",
      "constant": true
    },
    {
      "inputs": [
        {
          "internalType": "address",
          "name": "account",
          "type": "address"
        },
        {
          "internalType": "uint256",
          "name": "id",
          "type": "uint256"
        },
        {
          "internalType": "uint256",
          "name": "value",
          "type": "uint256"
        }
      ],
      "name": "burn",
      "outputs": [],
      "stateMutability": "nonpayable",
      "type": "function"
    },
    {
      "inputs": [
        {
          "internalType": "address",
          "name": "account",
          "type": "address"
        },
        {
          "internalType": "uint256[]",
          "name": "ids",
          "type": "uint256[]"
        },
        {
          "internalType": "uint256[]",
          "name": "values",
          "type": "uint256[]"
        }
      ],
      "name": "burnBatch",
      "outputs": [],
      "stateMutability": "nonpayable",
      "type": "function"
    },
    {
      "inputs": [
        {
          "internalType": "address",
          "name": "account",
          "type": "address"
        },
        {
          "internalType": "address",
          "name": "operator",
          "type": "address"
        }
      ],
      "name": "isApprovedForAll",
      "outputs": [
        {
          "internalType": "bool",
          "name": "",
          "type": "bool"
        }
      ],
      "stateMutability": "view",
      "type": "function",
      "constant": true
    },
    {
      "inputs": [],
      "name": "owner",
      "outputs": [
        {
          "internalType": "address",
          "name": "",
          "type": "address"
        }
      ],
      "stateMutability": "view",
      "type": "function",
      "constant": true
    },
    {
      "inputs": [],
      "name": "renounceOwnership",
      "outputs": [],
      "stateMutability": "nonpayable",
      "type": "function"
    },
    {
      "inputs": [
        {
          "internalType": "address",
          "name": "from",
          "type": "address"
        },
        {
          "internalType": "address",
          "name": "to",
          "type": "address"
        },
        {
          "internalType": "uint256[]",
          "name": "ids",
          "type": "uint256[]"
        },
        {
          "internalType": "uint256[]",
          "name": "amounts",
          "type": "uint256[]"
        },
        {
          "internalType": "bytes",
          "name": "data",
          "type": "bytes"
        }
      ],
      "name": "safeBatchTransferFrom",
      "outputs": [],
      "stateMutability": "nonpayable",
      "type": "function"
    },
    {
      "inputs": [
        {
          "internalType": "address",
          "name": "from",
          "type": "address"
        },
        {
          "internalType": "address",
          "name": "to",
          "type": "address"
        },
        {
          "internalType": "uint256",
          "name": "id",
          "type": "uint256"
        },
        {
          "internalType": "uint256",
          "name": "amount",
          "type": "uint256"
        },
        {
          "internalType": "bytes",
          "name": "data",
          "type": "bytes"
        }
      ],
      "name": "safeTransferFrom",
      "outputs": [],
      "stateMutability": "nonpayable",
      "type": "function"
    },
    {
      "inputs": [
        {
          "internalType": "address",
          "name": "operator",
          "type": "address"
        },
        {
          "internalType": "bool",
          "name": "approved",
          "type": "bool"
        }
      ],
      "name": "setApprovalForAll",
      "outputs": [],
      "stateMutability": "nonpayable",
      "type": "function"
    },
    {
      "inputs": [
        {
          "internalType": "bytes4",
          "name": "interfaceId",
          "type": "bytes4"
        }
      ],
      "name": "supportsInterface",
      "outputs": [
        {
          "internalType": "bool",
          "name": "",
          "type": "bool"
        }
      ],
      "stateMutability": "view",
      "type": "function",
      "constant": true
    },
    {
      "inputs": [
        {
          "internalType": "address",
          "name": "newOwner",
          "type": "address"
        }
      ],
      "name": "transferOwnership",
      "outputs": [],
      "stateMutability": "nonpayable",
      "type": "function"
    },
    {
      "inputs": [
        {
          "internalType": "uint256",
          "name": "tokenId",
          "type": "uint256"
        }
      ],
      "name": "uri",
      "outputs": [
        {
          "internalType": "string",
          "name": "",
          "type": "string"
        }
      ],
      "stateMutability": "view",
      "type": "function",
      "constant": true
    },
    {
      "inputs": [
        {
          "internalType": "address",
          "name": "account",
          "type": "address"
        },
        {
          "internalType": "uint256",
          "name": "id",
          "type": "uint256"
        },
        {
          "internalType": "uint256",
          "name": "amount",
          "type": "uint256"
        },
        {
          "internalType": "bytes",
          "name": "data",
          "type": "bytes"
        }
      ],
      "name": "mint",
      "outputs": [],
      "stateMutability": "nonpayable",
      "type": "function"
    },
    {
      "inputs": [
        {
          "internalType": "uint256",
          "name": "tokenId",
          "type": "uint256"
        },
        {
          "internalType": "string",
          "name": "newURI",
          "type": "string"
        }
      ],
      "name": "setURI",
      "outputs": [],
      "stateMutability": "nonpayable",
      "type": "function"
    },
    {
      "inputs": [
        {
          "internalType": "uint256",
          "name": "tokenId",
          "type": "uint256"
        }
      ],
      "name": "getTokenSold",
      "outputs": [
        {
          "internalType": "uint256",
          "name": "",
          "type": "uint256"
        }
      ],
      "stateMutability": "view",
      "type": "function",
      "constant": true
    },
    {
      "inputs": [
        {
          "internalType": "uint256",
          "name": "tokenId",
          "type": "uint256"
        },
        {
          "internalType": "uint256",
          "name": "amount",
          "type": "uint256"
        }
      ],
      "name": "updateTokenSold",
      "outputs": [],
      "stateMutability": "nonpayable",
      "type": "function"
    },
    {
      "inputs": [],
      "name": "getTotalTokensCount",
      "outputs": [
        {
          "internalType": "uint256",
          "name": "",
          "type": "uint256"
        }
      ],
      "stateMutability": "view",
      "type": "function",
      "constant": true
    },
    {
      "inputs": [
        {
          "internalType": "uint256",
          "name": "index",
          "type": "uint256"
        }
      ],
      "name": "getTokenByIndex",
      "outputs": [
        {
          "internalType": "uint256",
          "name": "",
          "type": "uint256"
        }
      ],
      "stateMutability": "view",
      "type": "function",
      "constant": true
    },
    {
      "inputs": [
        {
          "internalType": "uint256",
          "name": "tokenId",
          "type": "uint256"
        }
      ],
      "name": "getCarbonCredit",
      "outputs": [
        {
          "components": [
            {
              "internalType": "uint256",
              "name": "tokenId",
              "type": "uint256"
            },
            {
              "internalType": "address",
              "name": "initialOwner",
              "type": "address"
            },
            {
              "internalType": "enum CarbonBase.ApprovalStatus",
              "name": "status",
              "type": "uint8"
            },
            {
              "internalType": "uint256",
              "name": "pricePerCredit",
              "type": "uint256"
            },
            {
              "internalType": "bool",
              "name": "isListed",
              "type": "bool"
            }
          ],
          "internalType": "struct CarbonBase.CarbonCredit",
          "name": "",
          "type": "tuple"
        }
      ],
      "stateMutability": "view",
      "type": "function",
      "constant": true
    },
    {
      "inputs": [
        {
          "internalType": "uint256",
          "name": "tokenId",
          "type": "uint256"
        },
        {
          "internalType": "address",
          "name": "owner",
          "type": "address"
        },
        {
          "internalType": "enum CarbonBase.ApprovalStatus",
          "name": "status",
          "type": "uint8"
        },
        {
          "internalType": "uint256",
          "name": "pricePerCredit",
          "type": "uint256"
        },
        {
          "internalType": "bool",
          "name": "isListed",
          "type": "bool"
        }
      ],
      "name": "setCarbonCredit",
      "outputs": [],
      "stateMutability": "nonpayable",
      "type": "function"
    },
    {
      "inputs": [
        {
          "internalType": "uint256",
          "name": "tokenId",
          "type": "uint256"
        },
        {
          "internalType": "enum CarbonBase.ApprovalStatus",
          "name": "status",
          "type": "uint8"
        }
      ],
      "name": "updateStatus",
      "outputs": [],
      "stateMutability": "nonpayable",
      "type": "function"
    },
    {
      "inputs": [
        {
          "internalType": "uint256",
          "name": "tokenId",
          "type": "uint256"
        },
        {
          "internalType": "uint256",
          "name": "price",
          "type": "uint256"
        }
      ],
      "name": "updatePrice",
      "outputs": [],
      "stateMutability": "nonpayable",
      "type": "function"
    },
    {
      "inputs": [
        {
          "internalType": "uint256",
          "name": "tokenId",
          "type": "uint256"
        },
        {
          "internalType": "bool",
          "name": "isListed",
          "type": "bool"
        }
      ],
      "name": "updateListed",
      "outputs": [],
      "stateMutability": "nonpayable",
      "type": "function"
    },
    {
      "inputs": [
        {
          "internalType": "uint256",
          "name": "tokenId",
          "type": "uint256"
        }
      ],
      "name": "getTokenSupply",
      "outputs": [
        {
          "internalType": "uint256",
          "name": "",
          "type": "uint256"
        }
      ],
      "stateMutability": "view",
      "type": "function",
      "constant": true
    },
    {
      "inputs": [
        {
          "internalType": "address",
          "name": "owner",
          "type": "address"
        }
      ],
      "name": "getOwnedTokensCount",
      "outputs": [
        {
          "internalType": "uint256",
          "name": "",
          "type": "uint256"
        }
      ],
      "stateMutability": "view",
      "type": "function",
      "constant": true
    },
    {
      "inputs": [
        {
          "internalType": "address",
          "name": "owner",
          "type": "address"
        },
        {
          "internalType": "uint256",
          "name": "index",
          "type": "uint256"
        }
      ],
      "name": "getOwnerTokenByIndex",
      "outputs": [
        {
          "internalType": "uint256",
          "name": "",
          "type": "uint256"
        }
      ],
      "stateMutability": "view",
      "type": "function",
      "constant": true
    },
    {
      "inputs": [],
      "name": "getAllCredits",
      "outputs": [
        {
          "components": [
            {
              "internalType": "uint256",
              "name": "tokenId",
              "type": "uint256"
            },
            {
              "internalType": "address",
              "name": "initialOwner",
              "type": "address"
            },
            {
              "internalType": "enum CarbonBase.ApprovalStatus",
              "name": "status",
              "type": "uint8"
            },
            {
              "internalType": "uint256",
              "name": "pricePerCredit",
              "type": "uint256"
            },
            {
              "internalType": "bool",
              "name": "isListed",
              "type": "bool"
            }
          ],
          "internalType": "struct CarbonBase.CarbonCredit[]",
          "name": "",
          "type": "tuple[]"
        }
      ],
      "stateMutability": "view",
      "type": "function",
      "constant": true
    },
    {
      "inputs": [],
      "name": "getOwnedCredits",
      "outputs": [
        {
          "components": [
            {
              "internalType": "uint256",
              "name": "tokenId",
              "type": "uint256"
            },
            {
              "internalType": "address",
              "name": "initialOwner",
              "type": "address"
            },
            {
              "internalType": "enum CarbonBase.ApprovalStatus",
              "name": "status",
              "type": "uint8"
            },
            {
              "internalType": "uint256",
              "name": "pricePerCredit",
              "type": "uint256"
            },
            {
              "internalType": "bool",
              "name": "isListed",
              "type": "bool"
            }
          ],
          "internalType": "struct CarbonBase.CarbonCredit[]",
          "name": "",
          "type": "tuple[]"
        }
      ],
      "stateMutability": "view",
      "type": "function",
      "constant": true
    },
    {
      "inputs": [
        {
          "internalType": "uint256",
          "name": "tokenId",
          "type": "uint256"
        }
      ],
      "name": "getTokenOwners",
      "outputs": [
        {
          "internalType": "address[]",
          "name": "",
          "type": "address[]"
        }
      ],
      "stateMutability": "view",
      "type": "function",
      "constant": true
    },
    {
      "inputs": [
        {
          "internalType": "uint256",
          "name": "tokenId",
          "type": "uint256"
        }
      ],
      "name": "getOwnerCount",
      "outputs": [
        {
          "internalType": "uint256",
          "name": "",
          "type": "uint256"
        }
      ],
      "stateMutability": "view",
      "type": "function",
      "constant": true
    }
  ],
  "bytecode": "0x608060405260405180602001604052806000815250600390805190602001906200002b9291906200016c565b503480156200003957600080fd5b50604051806020016040528060008152506200005b816200008260201b60201c565b506200007c620000706200009e60201b60201c565b620000a660201b60201c565b62000280565b80600290805190602001906200009a9291906200016c565b5050565b600033905090565b6000600560009054906101000a900473ffffffffffffffffffffffffffffffffffffffff16905081600560006101000a81548173ffffffffffffffffffffffffffffffffffffffff021916908373ffffffffffffffffffffffffffffffffffffffff1602179055508173ffffffffffffffffffffffffffffffffffffffff168173ffffffffffffffffffffffffffffffffffffffff167f8be0079c531659141344cd1fd0a4f28419497f9722a3daafe3b4186f6b6457e060405160405180910390a35050565b8280546200017a906200024b565b90600052602060002090601f0160209004810192826200019e5760008555620001ea565b82601f10620001b957805160ff1916838001178555620001ea565b82800160010185558215620001ea579182015b82811115620001e9578251825591602001919060010190620001cc565b5b509050620001f99190620001fd565b5090565b5b8082111562000218576000816000905550600101620001fe565b5090565b7f4e487b7100000000000000000000000000000000000000000000000000000000600052602260045260246000fd5b600060028204905060018216806200026457607f821691505b6020821081036200027a57620002796200021c565b5b50919050565b6154d580620002906000396000f3fe608060405234801561001057600080fd5b50600436106101e45760003560e01c8063715018a61161010f578063b795a881116100a2578063f242432a11610071578063f242432a146105c3578063f2fde38b146105df578063f392243b146105fb578063f5298aca1461062b576101e4565b8063b795a8811461053d578063e985e9c514610559578063ed45aa4514610589578063eeb2982f146105a7576101e4565b80638da5cb5b116100de5780638da5cb5b146104b75780639c0ab5ec146104d5578063a22cb465146104f1578063ab97c4bb1461050d576101e4565b8063715018a614610459578063731133e91461046357806382367b2d1461047f578063862440e21461049b576101e4565b80632eb2c2d611610187578063644b7a4311610156578063644b7a43146103ad578063681ece9d146103dd5780636ab299751461040d5780636b20c4541461043d576101e4565b80632eb2c2d6146103155780633a1b3d31146103315780634e1273f41461034d57806364457aad1461037d576101e4565b80630e89341c116101c35780630e89341c1461026757806313f66c9a1461029757806319b88edb146102c75780632861072e146102f7576101e4565b8062fdd58e146101e957806301ffc9a7146102195780630b2f672514610249575b600080fd5b61020360048036038101906101fe919061372f565b610647565b604051610210919061377e565b60405180910390f35b610233600480360381019061022e91906137f1565b61070f565b6040516102409190613839565b60405180910390f35b6102516107f1565b60405161025e919061377e565b60405180910390f35b610281600480360381019061027c9190613854565b6107fe565b60405161028e919061391a565b60405180910390f35b6102b160048036038101906102ac9190613854565b610810565b6040516102be919061377e565b60405180910390f35b6102e160048036038101906102dc9190613854565b61082d565b6040516102ee919061377e565b60405180910390f35b6102ff61084a565b60405161030c9190613af7565b60405180910390f35b61032f600480360381019061032a9190613d16565b6109e4565b005b61034b60048036038101906103469190613e0a565b610a85565b005b61036760048036038101906103629190613f0d565b610ac7565b6040516103749190614034565b60405180910390f35b61039760048036038101906103929190613854565b610be0565b6040516103a4919061377e565b60405180910390f35b6103c760048036038101906103c29190613854565b610bfd565b6040516103d4919061377e565b60405180910390f35b6103f760048036038101906103f29190613854565b610c6e565b6040516104049190614105565b60405180910390f35b61042760048036038101906104229190614127565b610d0f565b604051610434919061377e565b60405180910390f35b61045760048036038101906104529190614154565b610d5b565b005b610461610df8565b005b61047d600480360381019061047891906141df565b610e0c565b005b61049960048036038101906104949190614262565b610e1e565b005b6104b560048036038101906104b09190614343565b610e3d565b005b6104bf610e4b565b6040516104cc91906143ae565b60405180910390f35b6104ef60048036038101906104ea91906143f5565b610e75565b005b61050b60048036038101906105069190614435565b610ea7565b005b6105276004803603810190610522919061372f565b610ebd565b604051610534919061377e565b60405180910390f35b61055760048036038101906105529190614475565b610f23565b005b610573600480360381019061056e91906144f0565b61103c565b6040516105809190613839565b60405180910390f35b6105916110d0565b60405161059e9190613af7565b60405180910390f35b6105c160048036038101906105bc9190614262565b61126f565b005b6105dd60048036038101906105d89190614530565b61129d565b005b6105f960048036038101906105f49190614127565b61133e565b005b61061560048036038101906106109190613854565b6113c1565b604051610622919061462f565b60405180910390f35b6106456004803603810190610640919061464a565b6114ae565b005b60008073ffffffffffffffffffffffffffffffffffffffff168373ffffffffffffffffffffffffffffffffffffffff16036106b7576040517f08c379a00000000000000000000000000000000000000000000000000000000081526004016106ae9061470f565b60405180910390fd5b60008083815260200190815260200160002060008473ffffffffffffffffffffffffffffffffffffffff1673ffffffffffffffffffffffffffffffffffffffff16815260200190815260200160002054905092915050565b60007fd9b67a26000000000000000000000000000000000000000000000000000000007bffffffffffffffffffffffffffffffffffffffffffffffffffffffff1916827bffffffffffffffffffffffffffffffffffffffffffffffffffffffff191614806107da57507f0e89341c000000000000000000000000000000000000000000000000000000007bffffffffffffffffffffffffffffffffffffffffffffffffffffffff1916827bffffffffffffffffffffffffffffffffffffffffffffffffffffffff1916145b806107ea57506107e98261154b565b5b9050919050565b6000600680549050905090565b6060610809826115b5565b9050919050565b6000600d6000838152602001908152602001600020549050919050565b600060076000838152602001908152602001600020549050919050565b6060600060068054905067ffffffffffffffff81111561086d5761086c613b1e565b5b6040519080825280602002602001820160405280156108a657816020015b61089361358b565b81526020019060019003908161088b5790505b50905060005b6006805490508110156109dc5760006108c482610bfd565b90506000600b60008381526020019081526020016000209050806040518060a0016040529081600082015481526020016001820160009054906101000a900473ffffffffffffffffffffffffffffffffffffffff1673ffffffffffffffffffffffffffffffffffffffff1673ffffffffffffffffffffffffffffffffffffffff1681526020016001820160149054906101000a900460ff16600281111561096e5761096d613986565b5b60028111156109805761097f613986565b5b8152602001600282015481526020016003820160009054906101000a900460ff1615151515815250508484815181106109bc576109bb61472f565b5b6020026020010181905250505080806109d49061478d565b9150506108ac565b508091505090565b6109ec61169a565b73ffffffffffffffffffffffffffffffffffffffff168573ffffffffffffffffffffffffffffffffffffffff161480610a325750610a3185610a2c61169a565b61103c565b5b610a71576040517f08c379a0000000000000000000000000000000000000000000000000000000008152600401610a6890614847565b60405180910390fd5b610a7e85858585856116a2565b5050505050565b80600b600084815260200190815260200160002060010160146101000a81548160ff02191690836002811115610abe57610abd613986565b5b02179055505050565b60608151835114610b0d576040517f08c379a0000000000000000000000000000000000000000000000000000000008152600401610b04906148d9565b60405180910390fd5b6000835167ffffffffffffffff811115610b2a57610b29613b1e565b5b604051908082528060200260200182016040528015610b585781602001602082028036833780820191505090505b50905060005b8451811015610bd557610ba5858281518110610b7d57610b7c61472f565b5b6020026020010151858381518110610b9857610b9761472f565b5b6020026020010151610647565b828281518110610bb857610bb761472f565b5b60200260200101818152505080610bce9061478d565b9050610b5e565b508091505092915050565b6000600e6000838152602001908152602001600020549050919050565b6000610c076107f1565b8210610c48576040517f08c379a0000000000000000000000000000000000000000000000000000000008152600401610c3f90614945565b60405180910390fd5b60068281548110610c5c57610c5b61472f565b5b90600052602060002001549050919050565b6060600c6000838152602001908152602001600020805480602002602001604051908101604052809291908181526020018280548015610d0357602002820191906000526020600020905b8160009054906101000a900473ffffffffffffffffffffffffffffffffffffffff1673ffffffffffffffffffffffffffffffffffffffff1681526020019060010190808311610cb9575b50505050509050919050565b6000600960008373ffffffffffffffffffffffffffffffffffffffff1673ffffffffffffffffffffffffffffffffffffffff168152602001908152602001600020805490509050919050565b610d6361169a565b73ffffffffffffffffffffffffffffffffffffffff168373ffffffffffffffffffffffffffffffffffffffff161480610da95750610da883610da361169a565b61103c565b5b610de8576040517f08c379a0000000000000000000000000000000000000000000000000000000008152600401610ddf90614847565b60405180910390fd5b610df38383836119c3565b505050565b610e00611c91565b610e0a6000611d0f565b565b610e1884848484611dd5565b50505050565b80600b6000848152602001908152602001600020600201819055505050565b610e478282611f85565b5050565b6000600560009054906101000a900473ffffffffffffffffffffffffffffffffffffffff16905090565b80600b600084815260200190815260200160002060030160006101000a81548160ff0219169083151502179055505050565b610eb9610eb261169a565b8383611ff1565b5050565b6000600960008473ffffffffffffffffffffffffffffffffffffffff1673ffffffffffffffffffffffffffffffffffffffff1681526020019081526020016000208281548110610f1057610f0f61472f565b5b9060005260206000200154905092915050565b6040518060a001604052808681526020018573ffffffffffffffffffffffffffffffffffffffff168152602001846002811115610f6357610f62613986565b5b8152602001838152602001821515815250600b60008781526020019081526020016000206000820151816000015560208201518160010160006101000a81548173ffffffffffffffffffffffffffffffffffffffff021916908373ffffffffffffffffffffffffffffffffffffffff16021790555060408201518160010160146101000a81548160ff0219169083600281111561100357611002613986565b5b02179055506060820151816002015560808201518160030160006101000a81548160ff0219169083151502179055509050505050505050565b6000600160008473ffffffffffffffffffffffffffffffffffffffff1673ffffffffffffffffffffffffffffffffffffffff16815260200190815260200160002060008373ffffffffffffffffffffffffffffffffffffffff1673ffffffffffffffffffffffffffffffffffffffff16815260200190815260200160002060009054906101000a900460ff16905092915050565b606060006110dd33610d0f565b905060008167ffffffffffffffff8111156110fb576110fa613b1e565b5b60405190808252806020026020018201604052801561113457816020015b61112161358b565b8152602001906001900390816111195790505b50905060005b8281101561126657600061114e3383610ebd565b90506000600b60008381526020019081526020016000209050806040518060a0016040529081600082015481526020016001820160009054906101000a900473ffffffffffffffffffffffffffffffffffffffff1673ffffffffffffffffffffffffffffffffffffffff1673ffffffffffffffffffffffffffffffffffffffff1681526020016001820160149054906101000a900460ff1660028111156111f8576111f7613986565b5b600281111561120a57611209613986565b5b8152602001600282015481526020016003820160009054906101000a900460ff1615151515815250508484815181106112465761124561472f565b5b60200260200101819052505050808061125e9061478d565b91505061113a565b50809250505090565b80600e600084815260200190815260200160002060008282546112929190614965565b925050819055505050565b6112a561169a565b73ffffffffffffffffffffffffffffffffffffffff168573ffffffffffffffffffffffffffffffffffffffff1614806112eb57506112ea856112e561169a565b61103c565b5b61132a576040517f08c379a000000000000000000000000000000000000000000000000000000000815260040161132190614847565b60405180910390fd5b611337858585858561215d565b5050505050565b611346611c91565b600073ffffffffffffffffffffffffffffffffffffffff168173ffffffffffffffffffffffffffffffffffffffff16036113b5576040517f08c379a00000000000000000000000000000000000000000000000000000000081526004016113ac90614a2d565b60405180910390fd5b6113be81611d0f565b50565b6113c961358b565b600b60008381526020019081526020016000206040518060a0016040529081600082015481526020016001820160009054906101000a900473ffffffffffffffffffffffffffffffffffffffff1673ffffffffffffffffffffffffffffffffffffffff1673ffffffffffffffffffffffffffffffffffffffff1681526020016001820160149054906101000a900460ff16600281111561146c5761146b613986565b5b600281111561147e5761147d613986565b5b8152602001600282015481526020016003820160009054906101000a900460ff1615151515815250509050919050565b6114b661169a565b73ffffffffffffffffffffffffffffffffffffffff168373ffffffffffffffffffffffffffffffffffffffff1614806114fc57506114fb836114f661169a565b61103c565b5b61153b576040517f08c379a000000000000000000000000000000000000000000000000000000000815260040161153290614847565b60405180910390fd5b6115468383836123f8565b505050565b60007f01ffc9a7000000000000000000000000000000000000000000000000000000007bffffffffffffffffffffffffffffffffffffffffffffffffffffffff1916827bffffffffffffffffffffffffffffffffffffffffffffffffffffffff1916149050919050565b606060006004600084815260200190815260200160002080546115d790614a7c565b80601f016020809104026020016040519081016040528092919081815260200182805461160390614a7c565b80156116505780601f1061162557610100808354040283529160200191611650565b820191906000526020600020905b81548152906001019060200180831161163357829003601f168201915b50505050509050600081511161166e576116698361263e565b611692565b600381604051602001611682929190614b7d565b6040516020818303038152906040525b915050919050565b600033905090565b81518351146116e6576040517f08c379a00000000000000000000000000000000000000000000000000000000081526004016116dd90614c13565b60405180910390fd5b600073ffffffffffffffffffffffffffffffffffffffff168473ffffffffffffffffffffffffffffffffffffffff1603611755576040517f08c379a000000000000000000000000000000000000000000000000000000000815260040161174c90614ca5565b60405180910390fd5b600061175f61169a565b905061176f8187878787876126d2565b60005b84518110156119205760008582815181106117905761178f61472f565b5b6020026020010151905060008583815181106117af576117ae61472f565b5b60200260200101519050600080600084815260200190815260200160002060008b73ffffffffffffffffffffffffffffffffffffffff1673ffffffffffffffffffffffffffffffffffffffff16815260200190815260200160002054905081811015611850576040517f08c379a000000000000000000000000000000000000000000000000000000000815260040161184790614d37565b60405180910390fd5b81810360008085815260200190815260200160002060008c73ffffffffffffffffffffffffffffffffffffffff1673ffffffffffffffffffffffffffffffffffffffff168152602001908152602001600020819055508160008085815260200190815260200160002060008b73ffffffffffffffffffffffffffffffffffffffff1673ffffffffffffffffffffffffffffffffffffffff16815260200190815260200160002060008282546119059190614965565b92505081905550505050806119199061478d565b9050611772565b508473ffffffffffffffffffffffffffffffffffffffff168673ffffffffffffffffffffffffffffffffffffffff168273ffffffffffffffffffffffffffffffffffffffff167f4a39dc06d4c0dbc64b70af90fd698a233a518aa5d07e595d983b8c0526c8f7fb8787604051611997929190614d57565b60405180910390a46119ad81878787878761292e565b6119bb818787878787612936565b505050505050565b600073ffffffffffffffffffffffffffffffffffffffff168373ffffffffffffffffffffffffffffffffffffffff1603611a32576040517f08c379a0000000000000000000000000000000000000000000000000000000008152600401611a2990614e00565b60405180910390fd5b8051825114611a76576040517f08c379a0000000000000000000000000000000000000000000000000000000008152600401611a6d90614c13565b60405180910390fd5b6000611a8061169a565b9050611aa0818560008686604051806020016040528060008152506126d2565b60005b8351811015611bed576000848281518110611ac157611ac061472f565b5b602002602001015190506000848381518110611ae057611adf61472f565b5b60200260200101519050600080600084815260200190815260200160002060008973ffffffffffffffffffffffffffffffffffffffff1673ffffffffffffffffffffffffffffffffffffffff16815260200190815260200160002054905081811015611b81576040517f08c379a0000000000000000000000000000000000000000000000000000000008152600401611b7890614e92565b60405180910390fd5b81810360008085815260200190815260200160002060008a73ffffffffffffffffffffffffffffffffffffffff1673ffffffffffffffffffffffffffffffffffffffff168152602001908152602001600020819055505050508080611be59061478d565b915050611aa3565b50600073ffffffffffffffffffffffffffffffffffffffff168473ffffffffffffffffffffffffffffffffffffffff168273ffffffffffffffffffffffffffffffffffffffff167f4a39dc06d4c0dbc64b70af90fd698a233a518aa5d07e595d983b8c0526c8f7fb8686604051611c65929190614d57565b60405180910390a4611c8b8185600086866040518060200160405280600081525061292e565b50505050565b611c9961169a565b73ffffffffffffffffffffffffffffffffffffffff16611cb7610e4b565b73ffffffffffffffffffffffffffffffffffffffff1614611d0d576040517f08c379a0000000000000000000000000000000000000000000000000000000008152600401611d0490614efe565b60405180910390fd5b565b6000600560009054906101000a900473ffffffffffffffffffffffffffffffffffffffff16905081600560006101000a81548173ffffffffffffffffffffffffffffffffffffffff021916908373ffffffffffffffffffffffffffffffffffffffff1602179055508173ffffffffffffffffffffffffffffffffffffffff168173ffffffffffffffffffffffffffffffffffffffff167f8be0079c531659141344cd1fd0a4f28419497f9722a3daafe3b4186f6b6457e060405160405180910390a35050565b600073ffffffffffffffffffffffffffffffffffffffff168473ffffffffffffffffffffffffffffffffffffffff1603611e44576040517f08c379a0000000000000000000000000000000000000000000000000000000008152600401611e3b90614f90565b60405180910390fd5b6000611e4e61169a565b90506000611e5b85612b0d565b90506000611e6885612b0d565b9050611e79836000898585896126d2565b8460008088815260200190815260200160002060008973ffffffffffffffffffffffffffffffffffffffff1673ffffffffffffffffffffffffffffffffffffffff1681526020019081526020016000206000828254611ed89190614965565b925050819055508673ffffffffffffffffffffffffffffffffffffffff16600073ffffffffffffffffffffffffffffffffffffffff168473ffffffffffffffffffffffffffffffffffffffff167fc3d58168c5ae7397731d063d5bbf3d657854427343f4c083240f7aacaa2d0f628989604051611f56929190614fb0565b60405180910390a4611f6d8360008985858961292e565b611f7c83600089898989612b87565b50505050505050565b80600460008481526020019081526020016000209080519060200190611fac9291906135e4565b50817f6bb7ff708619ba0610cba295a58592e0451dee2622938c8755667688daf3529b611fd8846107fe565b604051611fe5919061391a565b60405180910390a25050565b8173ffffffffffffffffffffffffffffffffffffffff168373ffffffffffffffffffffffffffffffffffffffff160361205f576040517f08c379a00000000000000000000000000000000000000000000000000000000081526004016120569061504b565b60405180910390fd5b80600160008573ffffffffffffffffffffffffffffffffffffffff1673ffffffffffffffffffffffffffffffffffffffff16815260200190815260200160002060008473ffffffffffffffffffffffffffffffffffffffff1673ffffffffffffffffffffffffffffffffffffffff16815260200190815260200160002060006101000a81548160ff0219169083151502179055508173ffffffffffffffffffffffffffffffffffffffff168373ffffffffffffffffffffffffffffffffffffffff167f17307eab39ab6107e8899845ad3d59bd9653f200f220920489ca2b5937696c31836040516121509190613839565b60405180910390a3505050565b600073ffffffffffffffffffffffffffffffffffffffff168473ffffffffffffffffffffffffffffffffffffffff16036121cc576040517f08c379a00000000000000000000000000000000000000000000000000000000081526004016121c390614ca5565b60405180910390fd5b60006121d661169a565b905060006121e385612b0d565b905060006121f085612b0d565b90506122008389898585896126d2565b600080600088815260200190815260200160002060008a73ffffffffffffffffffffffffffffffffffffffff1673ffffffffffffffffffffffffffffffffffffffff16815260200190815260200160002054905085811015612297576040517f08c379a000000000000000000000000000000000000000000000000000000000815260040161228e90614d37565b60405180910390fd5b85810360008089815260200190815260200160002060008b73ffffffffffffffffffffffffffffffffffffffff1673ffffffffffffffffffffffffffffffffffffffff168152602001908152602001600020819055508560008089815260200190815260200160002060008a73ffffffffffffffffffffffffffffffffffffffff1673ffffffffffffffffffffffffffffffffffffffff168152602001908152602001600020600082825461234c9190614965565b925050819055508773ffffffffffffffffffffffffffffffffffffffff168973ffffffffffffffffffffffffffffffffffffffff168573ffffffffffffffffffffffffffffffffffffffff167fc3d58168c5ae7397731d063d5bbf3d657854427343f4c083240f7aacaa2d0f628a8a6040516123c9929190614fb0565b60405180910390a46123df848a8a86868a61292e565b6123ed848a8a8a8a8a612b87565b505050505050505050565b600073ffffffffffffffffffffffffffffffffffffffff168373ffffffffffffffffffffffffffffffffffffffff1603612467576040517f08c379a000000000000000000000000000000000000000000000000000000000815260040161245e90614e00565b60405180910390fd5b600061247161169a565b9050600061247e84612b0d565b9050600061248b84612b0d565b90506124ab838760008585604051806020016040528060008152506126d2565b600080600087815260200190815260200160002060008873ffffffffffffffffffffffffffffffffffffffff1673ffffffffffffffffffffffffffffffffffffffff16815260200190815260200160002054905084811015612542576040517f08c379a000000000000000000000000000000000000000000000000000000000815260040161253990614e92565b60405180910390fd5b84810360008088815260200190815260200160002060008973ffffffffffffffffffffffffffffffffffffffff1673ffffffffffffffffffffffffffffffffffffffff16815260200190815260200160002081905550600073ffffffffffffffffffffffffffffffffffffffff168773ffffffffffffffffffffffffffffffffffffffff168573ffffffffffffffffffffffffffffffffffffffff167fc3d58168c5ae7397731d063d5bbf3d657854427343f4c083240f7aacaa2d0f62898960405161260f929190614fb0565b60405180910390a46126358488600086866040518060200160405280600081525061292e565b50505050505050565b60606002805461264d90614a7c565b80601f016020809104026020016040519081016040528092919081815260200182805461267990614a7c565b80156126c65780601f1061269b576101008083540402835291602001916126c6565b820191906000526020600020905b8154815290600101906020018083116126a957829003601f168201915b50505050509050919050565b6126e0868686868686612d5e565b60005b83518110156129255760008482815181106127015761270061472f565b5b60200260200101519050600073ffffffffffffffffffffffffffffffffffffffff168773ffffffffffffffffffffffffffffffffffffffff160361277b5761274881612d66565b83828151811061275b5761275a61472f565b5b602002602001015160076000838152602001908152602001600020819055505b600073ffffffffffffffffffffffffffffffffffffffff168773ffffffffffffffffffffffffffffffffffffffff16141580156127da57508382815181106127c6576127c561472f565b5b60200260200101516127d88883610647565b145b156127f4576127e98782612daf565b6127f38188613034565b5b600073ffffffffffffffffffffffffffffffffffffffff168673ffffffffffffffffffffffffffffffffffffffff161415801561283a575060006128388783610647565b145b1561285857612849868261329a565b6128538187613316565b612911565b600073ffffffffffffffffffffffffffffffffffffffff168673ffffffffffffffffffffffffffffffffffffffff16036129105783828151811061289f5761289e61472f565b5b60200260200101516007600083815260200190815260200160002060008282546128c9919061506b565b92505081905550600060076000838152602001908152602001600020540361290f5761290e8583815181106129015761290061472f565b5b60200260200101516133c6565b5b5b5b50808061291d9061478d565b9150506126e3565b50505050505050565b505050505050565b6129558473ffffffffffffffffffffffffffffffffffffffff16613497565b15612b05578373ffffffffffffffffffffffffffffffffffffffff1663bc197c8187878686866040518663ffffffff1660e01b815260040161299b9594939291906150f4565b6020604051808303816000875af19250505080156129d757506040513d601f19601f820116820180604052508101906129d49190615171565b60015b612a7c576129e36151ab565b806308c379a003612a3f57506129f76151cd565b80612a025750612a41565b806040517f08c379a0000000000000000000000000000000000000000000000000000000008152600401612a36919061391a565b60405180910390fd5b505b6040517f08c379a0000000000000000000000000000000000000000000000000000000008152600401612a73906152cf565b60405180910390fd5b63bc197c8160e01b7bffffffffffffffffffffffffffffffffffffffffffffffffffffffff1916817bffffffffffffffffffffffffffffffffffffffffffffffffffffffff191614612b03576040517f08c379a0000000000000000000000000000000000000000000000000000000008152600401612afa90615361565b60405180910390fd5b505b505050505050565b60606000600167ffffffffffffffff811115612b2c57612b2b613b1e565b5b604051908082528060200260200182016040528015612b5a5781602001602082028036833780820191505090505b5090508281600081518110612b7257612b7161472f565b5b60200260200101818152505080915050919050565b612ba68473ffffffffffffffffffffffffffffffffffffffff16613497565b15612d56578373ffffffffffffffffffffffffffffffffffffffff1663f23a6e6187878686866040518663ffffffff1660e01b8152600401612bec959493929190615381565b6020604051808303816000875af1925050508015612c2857506040513d601f19601f82011682018060405250810190612c259190615171565b60015b612ccd57612c346151ab565b806308c379a003612c905750612c486151cd565b80612c535750612c92565b806040517f08c379a0000000000000000000000000000000000000000000000000000000008152600401612c87919061391a565b60405180910390fd5b505b6040517f08c379a0000000000000000000000000000000000000000000000000000000008152600401612cc4906152cf565b60405180910390fd5b63f23a6e6160e01b7bffffffffffffffffffffffffffffffffffffffffffffffffffffffff1916817bffffffffffffffffffffffffffffffffffffffffffffffffffffffff191614612d54576040517f08c379a0000000000000000000000000000000000000000000000000000000008152600401612d4b90615361565b60405180910390fd5b505b505050505050565b505050505050565b6006805490506008600083815260200190815260200160002081905550600681908060018154018082558091505060019003906000526020600020016000909190919091505550565b60006001600960008573ffffffffffffffffffffffffffffffffffffffff1673ffffffffffffffffffffffffffffffffffffffff16815260200190815260200160002080549050612e00919061506b565b90506000600a60008573ffffffffffffffffffffffffffffffffffffffff1673ffffffffffffffffffffffffffffffffffffffff1681526020019081526020016000206000848152602001908152602001600020549050818114612f75576000600960008673ffffffffffffffffffffffffffffffffffffffff1673ffffffffffffffffffffffffffffffffffffffff1681526020019081526020016000208381548110612eb157612eb061472f565b5b9060005260206000200154905080600960008773ffffffffffffffffffffffffffffffffffffffff1673ffffffffffffffffffffffffffffffffffffffff1681526020019081526020016000208381548110612f1057612f0f61472f565b5b906000526020600020018190555081600a60008773ffffffffffffffffffffffffffffffffffffffff1673ffffffffffffffffffffffffffffffffffffffff168152602001908152602001600020600083815260200190815260200160002081905550505b600960008573ffffffffffffffffffffffffffffffffffffffff1673ffffffffffffffffffffffffffffffffffffffff168152602001908152602001600020805480612fc457612fc36153db565b5b60019003818190600052602060002001600090559055600a60008573ffffffffffffffffffffffffffffffffffffffff1673ffffffffffffffffffffffffffffffffffffffff16815260200190815260200160002060008481526020019081526020016000206000905550505050565b6000600d6000848152602001908152602001600020541161308a576040517f08c379a000000000000000000000000000000000000000000000000000000000815260040161308190615456565b60405180910390fd5b6000600c600084815260200190815260200160002080549050905060005b81811015613294578273ffffffffffffffffffffffffffffffffffffffff16600c600086815260200190815260200160002082815481106130ec576130eb61472f565b5b9060005260206000200160009054906101000a900473ffffffffffffffffffffffffffffffffffffffff1673ffffffffffffffffffffffffffffffffffffffff160361328157600c6000858152602001908152602001600020600183613152919061506b565b815481106131635761316261472f565b5b9060005260206000200160009054906101000a900473ffffffffffffffffffffffffffffffffffffffff16600c600086815260200190815260200160002082815481106131b3576131b261472f565b5b9060005260206000200160006101000a81548173ffffffffffffffffffffffffffffffffffffffff021916908373ffffffffffffffffffffffffffffffffffffffff160217905550600c600085815260200190815260200160002080548061321e5761321d6153db565b5b6001900381819060005260206000200160006101000a81549073ffffffffffffffffffffffffffffffffffffffff02191690559055600d6000858152602001908152602001600020600081548092919061327790615476565b9190505550613294565b808061328c9061478d565b9150506130a8565b50505050565b60006132a68383610647565b0361331257600960008373ffffffffffffffffffffffffffffffffffffffff1673ffffffffffffffffffffffffffffffffffffffff1681526020019081526020016000208190806001815401808255809150506001900390600052602060002001600090919091909150555b5050565b61332082826134ba565b6133c257600c6000838152602001908152602001600020819080600181540180825580915050600190039060005260206000200160009091909190916101000a81548173ffffffffffffffffffffffffffffffffffffffff021916908373ffffffffffffffffffffffffffffffffffffffff160217905550600d600083815260200190815260200160002060008154809291906133bc9061478d565b91905055505b5050565b600060016006805490506133da919061506b565b905060006008600084815260200190815260200160002054905060006006838154811061340a5761340961472f565b5b90600052602060002001549050806006838154811061342c5761342b61472f565b5b90600052602060002001819055508160086000838152602001908152602001600020819055506006805480613464576134636153db565b5b60019003818190600052602060002001600090559055600860008581526020019081526020016000206000905550505050565b6000808273ffffffffffffffffffffffffffffffffffffffff163b119050919050565b600080600090505b600c60008581526020019081526020016000208054905081101561357f578273ffffffffffffffffffffffffffffffffffffffff16600c6000868152602001908152602001600020828154811061351c5761351b61472f565b5b9060005260206000200160009054906101000a900473ffffffffffffffffffffffffffffffffffffffff1673ffffffffffffffffffffffffffffffffffffffff160361356c576001915050613585565b80806135779061478d565b9150506134c2565b50600090505b92915050565b6040518060a0016040528060008152602001600073ffffffffffffffffffffffffffffffffffffffff168152602001600060028111156135ce576135cd613986565b5b8152602001600081526020016000151581525090565b8280546135f090614a7c565b90600052602060002090601f0160209004810192826136125760008555613659565b82601f1061362b57805160ff1916838001178555613659565b82800160010185558215613659579182015b8281111561365857825182559160200191906001019061363d565b5b509050613666919061366a565b5090565b5b8082111561368357600081600090555060010161366b565b5090565b6000604051905090565b600080fd5b600080fd5b600073ffffffffffffffffffffffffffffffffffffffff82169050919050565b60006136c68261369b565b9050919050565b6136d6816136bb565b81146136e157600080fd5b50565b6000813590506136f3816136cd565b92915050565b6000819050919050565b61370c816136f9565b811461371757600080fd5b50565b60008135905061372981613703565b92915050565b6000806040838503121561374657613745613691565b5b6000613754858286016136e4565b92505060206137658582860161371a565b9150509250929050565b613778816136f9565b82525050565b6000602082019050613793600083018461376f565b92915050565b60007fffffffff0000000000000000000000000000000000000000000000000000000082169050919050565b6137ce81613799565b81146137d957600080fd5b50565b6000813590506137eb816137c5565b92915050565b60006020828403121561380757613806613691565b5b6000613815848285016137dc565b91505092915050565b60008115159050919050565b6138338161381e565b82525050565b600060208201905061384e600083018461382a565b92915050565b60006020828403121561386a57613869613691565b5b60006138788482850161371a565b91505092915050565b600081519050919050565b600082825260208201905092915050565b60005b838110156138bb5780820151818401526020810190506138a0565b838111156138ca576000848401525b50505050565b6000601f19601f8301169050919050565b60006138ec82613881565b6138f6818561388c565b935061390681856020860161389d565b61390f816138d0565b840191505092915050565b6000602082019050818103600083015261393481846138e1565b905092915050565b600081519050919050565b600082825260208201905092915050565b6000819050602082019050919050565b613971816136f9565b82525050565b613980816136bb565b82525050565b7f4e487b7100000000000000000000000000000000000000000000000000000000600052602160045260246000fd5b600381106139c6576139c5613986565b5b50565b60008190506139d7826139b5565b919050565b60006139e7826139c9565b9050919050565b6139f7816139dc565b82525050565b613a068161381e565b82525050565b60a082016000820151613a226000850182613968565b506020820151613a356020850182613977565b506040820151613a4860408501826139ee565b506060820151613a5b6060850182613968565b506080820151613a6e60808501826139fd565b50505050565b6000613a808383613a0c565b60a08301905092915050565b6000602082019050919050565b6000613aa48261393c565b613aae8185613947565b9350613ab983613958565b8060005b83811015613aea578151613ad18882613a74565b9750613adc83613a8c565b925050600181019050613abd565b5085935050505092915050565b60006020820190508181036000830152613b118184613a99565b905092915050565b600080fd5b7f4e487b7100000000000000000000000000000000000000000000000000000000600052604160045260246000fd5b613b56826138d0565b810181811067ffffffffffffffff82111715613b7557613b74613b1e565b5b80604052505050565b6000613b88613687565b9050613b948282613b4d565b919050565b600067ffffffffffffffff821115613bb457613bb3613b1e565b5b602082029050602081019050919050565b600080fd5b6000613bdd613bd884613b99565b613b7e565b90508083825260208201905060208402830185811115613c0057613bff613bc5565b5b835b81811015613c295780613c15888261371a565b845260208401935050602081019050613c02565b5050509392505050565b600082601f830112613c4857613c47613b19565b5b8135613c58848260208601613bca565b91505092915050565b600080fd5b600067ffffffffffffffff821115613c8157613c80613b1e565b5b613c8a826138d0565b9050602081019050919050565b82818337600083830152505050565b6000613cb9613cb484613c66565b613b7e565b905082815260208101848484011115613cd557613cd4613c61565b5b613ce0848285613c97565b509392505050565b600082601f830112613cfd57613cfc613b19565b5b8135613d0d848260208601613ca6565b91505092915050565b600080600080600060a08688031215613d3257613d31613691565b5b6000613d40888289016136e4565b9550506020613d51888289016136e4565b945050604086013567ffffffffffffffff811115613d7257613d71613696565b5b613d7e88828901613c33565b935050606086013567ffffffffffffffff811115613d9f57613d9e613696565b5b613dab88828901613c33565b925050608086013567ffffffffffffffff811115613dcc57613dcb613696565b5b613dd888828901613ce8565b9150509295509295909350565b60038110613df257600080fd5b50565b600081359050613e0481613de5565b92915050565b60008060408385031215613e2157613e20613691565b5b6000613e2f8582860161371a565b9250506020613e4085828601613df5565b9150509250929050565b600067ffffffffffffffff821115613e6557613e64613b1e565b5b602082029050602081019050919050565b6000613e89613e8484613e4a565b613b7e565b90508083825260208201905060208402830185811115613eac57613eab613bc5565b5b835b81811015613ed55780613ec188826136e4565b845260208401935050602081019050613eae565b5050509392505050565b600082601f830112613ef457613ef3613b19565b5b8135613f04848260208601613e76565b91505092915050565b60008060408385031215613f2457613f23613691565b5b600083013567ffffffffffffffff811115613f4257613f41613696565b5b613f4e85828601613edf565b925050602083013567ffffffffffffffff811115613f6f57613f6e613696565b5b613f7b85828601613c33565b9150509250929050565b600081519050919050565b600082825260208201905092915050565b6000819050602082019050919050565b6000613fbd8383613968565b60208301905092915050565b6000602082019050919050565b6000613fe182613f85565b613feb8185613f90565b9350613ff683613fa1565b8060005b8381101561402757815161400e8882613fb1565b975061401983613fc9565b925050600181019050613ffa565b5085935050505092915050565b6000602082019050818103600083015261404e8184613fd6565b905092915050565b600081519050919050565b600082825260208201905092915050565b6000819050602082019050919050565b600061408e8383613977565b60208301905092915050565b6000602082019050919050565b60006140b282614056565b6140bc8185614061565b93506140c783614072565b8060005b838110156140f85781516140df8882614082565b97506140ea8361409a565b9250506001810190506140cb565b5085935050505092915050565b6000602082019050818103600083015261411f81846140a7565b905092915050565b60006020828403121561413d5761413c613691565b5b600061414b848285016136e4565b91505092915050565b60008060006060848603121561416d5761416c613691565b5b600061417b868287016136e4565b935050602084013567ffffffffffffffff81111561419c5761419b613696565b5b6141a886828701613c33565b925050604084013567ffffffffffffffff8111156141c9576141c8613696565b5b6141d586828701613c33565b9150509250925092565b600080600080608085870312156141f9576141f8613691565b5b6000614207878288016136e4565b94505060206142188782880161371a565b93505060406142298782880161371a565b925050606085013567ffffffffffffffff81111561424a57614249613696565b5b61425687828801613ce8565b91505092959194509250565b6000806040838503121561427957614278613691565b5b60006142878582860161371a565b92505060206142988582860161371a565b9150509250929050565b600067ffffffffffffffff8211156142bd576142bc613b1e565b5b6142c6826138d0565b9050602081019050919050565b60006142e66142e1846142a2565b613b7e565b90508281526020810184848401111561430257614301613c61565b5b61430d848285613c97565b509392505050565b600082601f83011261432a57614329613b19565b5b813561433a8482602086016142d3565b91505092915050565b6000806040838503121561435a57614359613691565b5b60006143688582860161371a565b925050602083013567ffffffffffffffff81111561438957614388613696565b5b61439585828601614315565b9150509250929050565b6143a8816136bb565b82525050565b60006020820190506143c3600083018461439f565b92915050565b6143d28161381e565b81146143dd57600080fd5b50565b6000813590506143ef816143c9565b92915050565b6000806040838503121561440c5761440b613691565b5b600061441a8582860161371a565b925050602061442b858286016143e0565b9150509250929050565b6000806040838503121561444c5761444b613691565b5b600061445a858286016136e4565b925050602061446b858286016143e0565b9150509250929050565b600080600080600060a0868803121561449157614490613691565b5b600061449f8882890161371a565b95505060206144b0888289016136e4565b94505060406144c188828901613df5565b93505060606144d28882890161371a565b92505060806144e3888289016143e0565b9150509295509295909350565b6000806040838503121561450757614506613691565b5b6000614515858286016136e4565b9250506020614526858286016136e4565b9150509250929050565b600080600080600060a0868803121561454c5761454b613691565b5b600061455a888289016136e4565b955050602061456b888289016136e4565b945050604061457c8882890161371a565b935050606061458d8882890161371a565b925050608086013567ffffffffffffffff8111156145ae576145ad613696565b5b6145ba88828901613ce8565b9150509295509295909350565b60a0820160008201516145dd6000850182613968565b5060208201516145f06020850182613977565b50604082015161460360408501826139ee565b5060608201516146166060850182613968565b50608082015161462960808501826139fd565b50505050565b600060a08201905061464460008301846145c7565b92915050565b60008060006060848603121561466357614662613691565b5b6000614671868287016136e4565b93505060206146828682870161371a565b92505060406146938682870161371a565b9150509250925092565b7f455243313135353a2061646472657373207a65726f206973206e6f742061207660008201527f616c6964206f776e657200000000000000000000000000000000000000000000602082015250565b60006146f9602a8361388c565b91506147048261469d565b604082019050919050565b60006020820190508181036000830152614728816146ec565b9050919050565b7f4e487b7100000000000000000000000000000000000000000000000000000000600052603260045260246000fd5b7f4e487b7100000000000000000000000000000000000000000000000000000000600052601160045260246000fd5b6000614798826136f9565b91507fffffffffffffffffffffffffffffffffffffffffffffffffffffffffffffffff82036147ca576147c961475e565b5b600182019050919050565b7f455243313135353a2063616c6c6572206973206e6f7420746f6b656e206f776e60008201527f6572206f7220617070726f766564000000000000000000000000000000000000602082015250565b6000614831602e8361388c565b915061483c826147d5565b604082019050919050565b6000602082019050818103600083015261486081614824565b9050919050565b7f455243313135353a206163636f756e747320616e6420696473206c656e67746860008201527f206d69736d617463680000000000000000000000000000000000000000000000602082015250565b60006148c360298361388c565b91506148ce82614867565b604082019050919050565b600060208201905081810360008301526148f2816148b6565b9050919050565b7f496e646578206f7574206f6620626f756e64732e000000000000000000000000600082015250565b600061492f60148361388c565b915061493a826148f9565b602082019050919050565b6000602082019050818103600083015261495e81614922565b9050919050565b6000614970826136f9565b915061497b836136f9565b9250827fffffffffffffffffffffffffffffffffffffffffffffffffffffffffffffffff038211156149b0576149af61475e565b5b828201905092915050565b7f4f776e61626c653a206e6577206f776e657220697320746865207a65726f206160008201527f6464726573730000000000000000000000000000000000000000000000000000602082015250565b6000614a1760268361388c565b9150614a22826149bb565b604082019050919050565b60006020820190508181036000830152614a4681614a0a565b9050919050565b7f4e487b7100000000000000000000000000000000000000000000000000000000600052602260045260246000fd5b60006002820490506001821680614a9457607f821691505b602082108103614aa757614aa6614a4d565b5b50919050565b600081905092915050565b60008190508160005260206000209050919050565b60008154614ada81614a7c565b614ae48186614aad565b94506001821660008114614aff5760018114614b1057614b43565b60ff19831686528186019350614b43565b614b1985614ab8565b60005b83811015614b3b57815481890152600182019150602081019050614b1c565b838801955050505b50505092915050565b6000614b5782613881565b614b618185614aad565b9350614b7181856020860161389d565b80840191505092915050565b6000614b898285614acd565b9150614b958284614b4c565b91508190509392505050565b7f455243313135353a2069647320616e6420616d6f756e7473206c656e6774682060008201527f6d69736d61746368000000000000000000000000000000000000000000000000602082015250565b6000614bfd60288361388c565b9150614c0882614ba1565b604082019050919050565b60006020820190508181036000830152614c2c81614bf0565b9050919050565b7f455243313135353a207472616e7366657220746f20746865207a65726f20616460008201527f6472657373000000000000000000000000000000000000000000000000000000602082015250565b6000614c8f60258361388c565b9150614c9a82614c33565b604082019050919050565b60006020820190508181036000830152614cbe81614c82565b9050919050565b7f455243313135353a20696e73756666696369656e742062616c616e636520666f60008201527f72207472616e7366657200000000000000000000000000000000000000000000602082015250565b6000614d21602a8361388c565b9150614d2c82614cc5565b604082019050919050565b60006020820190508181036000830152614d5081614d14565b9050919050565b60006040820190508181036000830152614d718185613fd6565b90508181036020830152614d858184613fd6565b90509392505050565b7f455243313135353a206275726e2066726f6d20746865207a65726f206164647260008201527f6573730000000000000000000000000000000000000000000000000000000000602082015250565b6000614dea60238361388c565b9150614df582614d8e565b604082019050919050565b60006020820190508181036000830152614e1981614ddd565b9050919050565b7f455243313135353a206275726e20616d6f756e7420657863656564732062616c60008201527f616e636500000000000000000000000000000000000000000000000000000000602082015250565b6000614e7c60248361388c565b9150614e8782614e20565b604082019050919050565b60006020820190508181036000830152614eab81614e6f565b9050919050565b7f4f776e61626c653a2063616c6c6572206973206e6f7420746865206f776e6572600082015250565b6000614ee860208361388c565b9150614ef382614eb2565b602082019050919050565b60006020820190508181036000830152614f1781614edb565b9050919050565b7f455243313135353a206d696e7420746f20746865207a65726f2061646472657360008201527f7300000000000000000000000000000000000000000000000000000000000000602082015250565b6000614f7a60218361388c565b9150614f8582614f1e565b604082019050919050565b60006020820190508181036000830152614fa981614f6d565b9050919050565b6000604082019050614fc5600083018561376f565b614fd2602083018461376f565b9392505050565b7f455243313135353a2073657474696e6720617070726f76616c2073746174757360008201527f20666f722073656c660000000000000000000000000000000000000000000000602082015250565b600061503560298361388c565b915061504082614fd9565b604082019050919050565b6000602082019050818103600083015261506481615028565b9050919050565b6000615076826136f9565b9150615081836136f9565b9250828210156150945761509361475e565b5b828203905092915050565b600081519050919050565b600082825260208201905092915050565b60006150c68261509f565b6150d081856150aa565b93506150e081856020860161389d565b6150e9816138d0565b840191505092915050565b600060a082019050615109600083018861439f565b615116602083018761439f565b81810360408301526151288186613fd6565b9050818103606083015261513c8185613fd6565b9050818103608083015261515081846150bb565b90509695505050505050565b60008151905061516b816137c5565b92915050565b60006020828403121561518757615186613691565b5b60006151958482850161515c565b91505092915050565b60008160e01c9050919050565b600060033d11156151ca5760046000803e6151c760005161519e565b90505b90565b600060443d1061525a576151df613687565b60043d036004823e80513d602482011167ffffffffffffffff8211171561520757505061525a565b808201805167ffffffffffffffff811115615225575050505061525a565b80602083010160043d03850181111561524257505050505061525a565b61525182602001850186613b4d565b82955050505050505b90565b7f455243313135353a207472616e7366657220746f206e6f6e2d4552433131353560008201527f526563656976657220696d706c656d656e746572000000000000000000000000602082015250565b60006152b960348361388c565b91506152c48261525d565b604082019050919050565b600060208201905081810360008301526152e8816152ac565b9050919050565b7f455243313135353a204552433131353552656365697665722072656a6563746560008201527f6420746f6b656e73000000000000000000000000000000000000000000000000602082015250565b600061534b60288361388c565b9150615356826152ef565b604082019050919050565b6000602082019050818103600083015261537a8161533e565b9050919050565b600060a082019050615396600083018861439f565b6153a3602083018761439f565b6153b0604083018661376f565b6153bd606083018561376f565b81810360808301526153cf81846150bb565b90509695505050505050565b7f4e487b7100000000000000000000000000000000000000000000000000000000600052603160045260246000fd5b7f4e6f206f776e65727320746f2072656d6f76652e000000000000000000000000600082015250565b600061544060148361388c565b915061544b8261540a565b602082019050919050565b6000602082019050818103600083015261546f81615433565b9050919050565b6000615481826136f9565b9150600082036154945761549361475e565b5b60018203905091905056fea2646970667358221220460bc852c9acb2dc5ebd85a54e47186e3e5b8372d2630f7c8a27b3e44555118864736f6c634300080d0033",
  "immutableReferences": {},
  "source": "// SPDX-License-Identifier: MIT\npragma solidity ^0.8.13;\n\nimport \"@openzeppelin/contracts/token/ERC1155/extensions/ERC1155URIStorage.sol\";\nimport \"@openzeppelin/contracts/token/ERC1155/extensions/ERC1155Burnable.sol\";\nimport \"@openzeppelin/contracts/utils/Strings.sol\";\nimport \"./CarbonBase.sol\";\n\ncontract CarbonToken is CarbonBase {\n    uint256[] private _allTokenIds; // array of all token IDs\n    // uint256 public tokenIds;\n    // mapping(uint256 => CarbonCredit) public _idToCarbonCredit;\n    mapping(uint256 => uint256) private _idToTokenSupply; // mapping of token ID => total supply of token\n    mapping(uint256 => uint256) private _idToTokensIndex; // mapping of token ID => index of token in all tokens array\n    mapping(address => uint256[]) private _ownerToTokenIds; // mapping of owner => list of token IDs\n    mapping(address => mapping(uint256 => uint256)) private _ownedTokensIndex; // Mapping from token ID to index in the above array\n    mapping(uint256 => CarbonCredit) private _idToCarbonCredit;\n    mapping(uint256 => address[]) private _tokenOwners;\n    mapping(uint256 => uint256) private _ownerCount;\n    mapping(uint256 => uint256) private _tokenSold;\n\n    function mint(\n        address account,\n        uint256 id,\n        uint256 amount,\n        bytes memory data\n    ) public {\n        _mint(account, id, amount, data);\n    }\n\n    function setURI(uint256 tokenId, string memory newURI) public {\n        _setURI(tokenId, newURI);\n    }\n\n    function getTokenSold(uint256 tokenId) public view returns (uint256) {\n        return _tokenSold[tokenId];\n    }\n\n    function updateTokenSold(uint256 tokenId, uint256 amount) public {\n        _tokenSold[tokenId] += amount;\n    }\n\n    function getTotalTokensCount() public view returns (uint256) {\n        // returns the total number of credits\n        return _allTokenIds.length;\n    }\n\n    function getTokenByIndex(uint256 index) public view returns (uint256) {\n        require(index < getTotalTokensCount(), \"Index out of bounds.\");\n        return _allTokenIds[index];\n    }\n\n    function getCarbonCredit(\n        uint256 tokenId\n    ) public view returns (CarbonCredit memory) {\n        return _idToCarbonCredit[tokenId];\n    }\n\n    function setCarbonCredit(\n        uint256 tokenId,\n        address owner,\n        ApprovalStatus status,\n        uint256 pricePerCredit,\n        bool isListed\n    ) public {\n        _idToCarbonCredit[tokenId] = CarbonCredit(\n            tokenId,\n            owner,\n            status,\n            pricePerCredit,\n            isListed\n        );\n    }\n\n    function updateStatus(uint256 tokenId, ApprovalStatus status) public {\n        _idToCarbonCredit[tokenId].status = status;\n    }\n\n    function updatePrice(uint256 tokenId, uint256 price) public {\n        _idToCarbonCredit[tokenId].pricePerCredit = price;\n    }\n\n    function updateListed(uint256 tokenId, bool isListed) public {\n        _idToCarbonCredit[tokenId].isListed = isListed;\n    }\n\n    function getTokenSupply(uint256 tokenId) public view returns (uint256) {\n        return _idToTokenSupply[tokenId];\n    }\n\n    function getOwnedTokensCount(address owner) public view returns (uint256) {\n        return _ownerToTokenIds[owner].length;\n    }\n\n    function getOwnerTokenByIndex(\n        address owner,\n        uint256 index\n    ) public view returns (uint256) {\n        // require(\n        //     index < balanceOf(owner, getTokenByIndex(index)),\n        //     \"Index out of bounds.\"\n        // );\n        return _ownerToTokenIds[owner][index];\n    }\n\n    function getAllCredits() public view returns (CarbonCredit[] memory) {\n        CarbonCredit[] memory credits = new CarbonCredit[](_allTokenIds.length);\n        for (uint i = 0; i < _allTokenIds.length; i++) {\n            uint tokenId = getTokenByIndex(i);\n            CarbonCredit storage credit = _idToCarbonCredit[tokenId];\n            credits[i] = credit;\n        }\n        return credits;\n    }\n\n    function getOwnedCredits() public view returns (CarbonCredit[] memory) {\n        uint256 ownedCreditsCount = getOwnedTokensCount(msg.sender);\n        CarbonCredit[] memory credits = new CarbonCredit[](ownedCreditsCount);\n\n        for (uint i = 0; i < ownedCreditsCount; i++) {\n            uint tokenId = getOwnerTokenByIndex(msg.sender, i);\n            CarbonCredit storage credit = _idToCarbonCredit[tokenId];\n            credits[i] = credit;\n        }\n        return credits;\n    }\n\n    function getTokenOwners(\n        uint256 tokenId\n    ) public view returns (address[] memory) {\n        return _tokenOwners[tokenId];\n    }\n\n    function getOwnerCount(uint256 tokenId) public view returns (uint256) {\n        return _ownerCount[tokenId];\n    }\n\n    function _beforeTokenTransfer(\n        address operator,\n        address from,\n        address to,\n        uint256[] memory ids,\n        uint256[] memory amounts,\n        bytes memory data\n    ) internal override {\n        super._beforeTokenTransfer(operator, from, to, ids, amounts, data);\n\n        for (uint256 i = 0; i < ids.length; i++) {\n            uint256 tokenId = ids[i];\n            if (from == address(0)) {\n                // This implies the token is being minted\n                _addTokenToAllTokensEnumeration(tokenId);\n                _idToTokenSupply[tokenId] = amounts[i];\n            }\n            if (from != address(0) && balanceOf(from, tokenId) == amounts[i]) {\n                // checking before transfer\n                // This implies the sender is transferring all their units of this token type\n                _removeTokenFromOwnerEnumeration(from, tokenId);\n                _removeTokenOwner(tokenId, from);\n            }\n            if (to != address(0) && balanceOf(to, tokenId) == 0) {\n                // identify the first time tokens are transferred to a new holder.\n                // This implies the recipient did not previously own any units of this token type\n                _addTokenToOwnerEnumeration(to, tokenId);\n                _addTokenOwner(tokenId, to);\n            } else if (to == address(0)) {\n                // checking before burn\n                _idToTokenSupply[tokenId] -= amounts[i];\n                if (_idToTokenSupply[tokenId] == 0) {\n                    // This implies the recipient is burning all units of a token are burned\n                    _removeTokenFromAllTokensEnumeration(ids[i]);\n                }\n            }\n        }\n    }\n\n    function _removeTokenOwner(uint256 tokenId, address owner) private {\n        require(_ownerCount[tokenId] > 0, \"No owners to remove.\");\n        uint256 length = _tokenOwners[tokenId].length;\n        for (uint256 i = 0; i < length; i++) {\n            if (_tokenOwners[tokenId][i] == owner) {\n                _tokenOwners[tokenId][i] = _tokenOwners[tokenId][length - 1];\n                _tokenOwners[tokenId].pop();\n                _ownerCount[tokenId]--;\n                break;\n            }\n        }\n    }\n\n    function _isOwner(\n        uint256 tokenId,\n        address owner\n    ) private view returns (bool) {\n        for (uint256 i = 0; i < _tokenOwners[tokenId].length; i++) {\n            if (_tokenOwners[tokenId][i] == owner) {\n                return true;\n            }\n        }\n        return false;\n    }\n\n    function _addTokenOwner(uint256 tokenId, address owner) private {\n        if (!_isOwner(tokenId, owner)) {\n            _tokenOwners[tokenId].push(owner);\n            _ownerCount[tokenId]++;\n        }\n    }\n\n    function _addTokenToAllTokensEnumeration(uint256 tokenId) private {\n        _idToTokensIndex[tokenId] = _allTokenIds.length;\n        _allTokenIds.push(tokenId);\n    }\n\n    function _addTokenToOwnerEnumeration(address to, uint256 tokenId) private {\n        if (balanceOf(to, tokenId) == 0) {\n            // Token ID is new to this owner\n            _ownerToTokenIds[to].push(tokenId);\n        }\n    }\n\n    function _removeTokenFromOwnerEnumeration(\n        address owner,\n        uint256 tokenId\n    ) private {\n        // First, we need to find the index of this token ID in the owner's list of token IDs\n        uint256 lastTokenIndex = _ownerToTokenIds[owner].length - 1;\n        uint256 tokenIndex = _ownedTokensIndex[owner][tokenId];\n\n        // If the token being removed is not the last token in the list,\n        // swap the last token with the token to be removed.\n        if (tokenIndex != lastTokenIndex) {\n            uint256 lastTokenId = _ownerToTokenIds[owner][lastTokenIndex];\n\n            _ownerToTokenIds[owner][tokenIndex] = lastTokenId; // Move the last token to the slot of the to-be-removed token\n            _ownedTokensIndex[owner][lastTokenId] = tokenIndex; // Update the moved token's index\n        }\n\n        // Remove the last token's data (since it's now either removed or moved)\n        _ownerToTokenIds[owner].pop();\n        delete _ownedTokensIndex[owner][tokenId]; // Remove the deleted token's index\n    }\n\n    function _removeTokenFromAllTokensEnumeration(uint256 tokenId) private {\n        uint256 lastTokenIndex = _allTokenIds.length - 1;\n        uint256 tokenIndex = _idToTokensIndex[tokenId];\n        uint256 lastTokenId = _allTokenIds[lastTokenIndex];\n\n        _allTokenIds[tokenIndex] = lastTokenId; // Move the last token to the slot of the to-be-removed token\n        _idToTokensIndex[lastTokenId] = tokenIndex; // Update the moved token's index\n\n        // Remove the last token's data (since it's now either removed or moved)\n        _allTokenIds.pop();\n        delete _idToTokensIndex[tokenId]; // Remove the deleted token's index\n    }\n}\n",
  "sourcePath": "/Users/buudinhha/Vscode/DATN/main/contracts/CarbonToken.sol",
  "compiler": {
    "name": "solc",
    "version": "0.8.13+commit.abaa5c0e.Emscripten.clang"
  },
  "schemaVersion": "3.4.16",
  "updatedAt": "2024-05-16T09:25:55.395Z",
  "networkType": "ethereum",
  "devdoc": {
    "kind": "dev",
    "methods": {
      "balanceOf(address,uint256)": {
        "details": "See {IERC1155-balanceOf}. Requirements: - `account` cannot be the zero address."
      },
      "balanceOfBatch(address[],uint256[])": {
        "details": "See {IERC1155-balanceOfBatch}. Requirements: - `accounts` and `ids` must have the same length."
      },
      "isApprovedForAll(address,address)": {
        "details": "See {IERC1155-isApprovedForAll}."
      },
      "owner()": {
        "details": "Returns the address of the current owner."
      },
      "renounceOwnership()": {
        "details": "Leaves the contract without owner. It will not be possible to call `onlyOwner` functions. Can only be called by the current owner. NOTE: Renouncing ownership will leave the contract without an owner, thereby disabling any functionality that is only available to the owner."
      },
      "safeBatchTransferFrom(address,address,uint256[],uint256[],bytes)": {
        "details": "See {IERC1155-safeBatchTransferFrom}."
      },
      "safeTransferFrom(address,address,uint256,uint256,bytes)": {
        "details": "See {IERC1155-safeTransferFrom}."
      },
      "setApprovalForAll(address,bool)": {
        "details": "See {IERC1155-setApprovalForAll}."
      },
      "supportsInterface(bytes4)": {
        "details": "See {IERC165-supportsInterface}."
      },
      "transferOwnership(address)": {
        "details": "Transfers ownership of the contract to a new account (`newOwner`). Can only be called by the current owner."
      }
    },
    "version": 1
  },
  "userdoc": {
    "kind": "user",
    "methods": {},
    "version": 1
  }
}