{
  "contractName": "CarbonToken",
  "abi": [
    {
      "anonymous": false,
      "inputs": [
        {
          "indexed": true,
          "internalType": "address",
          "name": "account",
          "type": "address"
        },
        {
          "indexed": true,
          "internalType": "address",
          "name": "operator",
          "type": "address"
        },
        {
          "indexed": false,
          "internalType": "bool",
          "name": "approved",
          "type": "bool"
        }
      ],
      "name": "ApprovalForAll",
      "type": "event"
    },
    {
      "anonymous": false,
      "inputs": [
        {
          "indexed": false,
          "internalType": "uint256",
          "name": "tokenId",
          "type": "uint256"
        },
        {
          "indexed": false,
          "internalType": "address",
          "name": "initialOwner",
          "type": "address"
        },
        {
          "indexed": false,
          "internalType": "enum CarbonBase.ApprovalStatus",
          "name": "status",
          "type": "uint8"
        },
        {
          "indexed": false,
          "internalType": "uint256",
          "name": "pricePerCredit",
          "type": "uint256"
        },
        {
          "indexed": false,
          "internalType": "bool",
          "name": "isListed",
          "type": "bool"
        }
      ],
      "name": "CarbonCreditCreated",
      "type": "event"
    },
    {
      "anonymous": false,
      "inputs": [
        {
          "indexed": false,
          "internalType": "uint256",
          "name": "tokenId",
          "type": "uint256"
        },
        {
          "indexed": false,
          "internalType": "address",
          "name": "initialOwner",
          "type": "address"
        },
        {
          "indexed": false,
          "internalType": "enum CarbonBase.ApprovalStatus",
          "name": "status",
          "type": "uint8"
        },
        {
          "indexed": false,
          "internalType": "uint256",
          "name": "pricePerCredit",
          "type": "uint256"
        },
        {
          "indexed": false,
          "internalType": "bool",
          "name": "isListed",
          "type": "bool"
        }
      ],
      "name": "CarbonCreditListed",
      "type": "event"
    },
    {
      "anonymous": false,
      "inputs": [
        {
          "indexed": true,
          "internalType": "address",
          "name": "previousOwner",
          "type": "address"
        },
        {
          "indexed": true,
          "internalType": "address",
          "name": "newOwner",
          "type": "address"
        }
      ],
      "name": "OwnershipTransferred",
      "type": "event"
    },
    {
      "anonymous": false,
      "inputs": [
        {
          "indexed": true,
          "internalType": "uint256",
          "name": "tokenId",
          "type": "uint256"
        },
        {
          "indexed": true,
          "internalType": "address",
          "name": "from",
          "type": "address"
        },
        {
          "indexed": true,
          "internalType": "address",
          "name": "to",
          "type": "address"
        },
        {
          "indexed": false,
          "internalType": "uint256",
          "name": "amount",
          "type": "uint256"
        }
      ],
      "name": "TokenTransferred",
      "type": "event"
    },
    {
      "anonymous": false,
      "inputs": [
        {
          "indexed": true,
          "internalType": "address",
          "name": "operator",
          "type": "address"
        },
        {
          "indexed": true,
          "internalType": "address",
          "name": "from",
          "type": "address"
        },
        {
          "indexed": true,
          "internalType": "address",
          "name": "to",
          "type": "address"
        },
        {
          "indexed": false,
          "internalType": "uint256[]",
          "name": "ids",
          "type": "uint256[]"
        },
        {
          "indexed": false,
          "internalType": "uint256[]",
          "name": "values",
          "type": "uint256[]"
        }
      ],
      "name": "TransferBatch",
      "type": "event"
    },
    {
      "anonymous": false,
      "inputs": [
        {
          "indexed": true,
          "internalType": "address",
          "name": "operator",
          "type": "address"
        },
        {
          "indexed": true,
          "internalType": "address",
          "name": "from",
          "type": "address"
        },
        {
          "indexed": true,
          "internalType": "address",
          "name": "to",
          "type": "address"
        },
        {
          "indexed": false,
          "internalType": "uint256",
          "name": "id",
          "type": "uint256"
        },
        {
          "indexed": false,
          "internalType": "uint256",
          "name": "value",
          "type": "uint256"
        }
      ],
      "name": "TransferSingle",
      "type": "event"
    },
    {
      "anonymous": false,
      "inputs": [
        {
          "indexed": false,
          "internalType": "string",
          "name": "value",
          "type": "string"
        },
        {
          "indexed": true,
          "internalType": "uint256",
          "name": "id",
          "type": "uint256"
        }
      ],
      "name": "URI",
      "type": "event"
    },
    {
      "inputs": [
        {
          "internalType": "address",
          "name": "account",
          "type": "address"
        },
        {
          "internalType": "uint256",
          "name": "id",
          "type": "uint256"
        }
      ],
      "name": "balanceOf",
      "outputs": [
        {
          "internalType": "uint256",
          "name": "",
          "type": "uint256"
        }
      ],
      "stateMutability": "view",
      "type": "function",
      "constant": true
    },
    {
      "inputs": [
        {
          "internalType": "address[]",
          "name": "accounts",
          "type": "address[]"
        },
        {
          "internalType": "uint256[]",
          "name": "ids",
          "type": "uint256[]"
        }
      ],
      "name": "balanceOfBatch",
      "outputs": [
        {
          "internalType": "uint256[]",
          "name": "",
          "type": "uint256[]"
        }
      ],
      "stateMutability": "view",
      "type": "function",
      "constant": true
    },
    {
      "inputs": [
        {
          "internalType": "address",
          "name": "account",
          "type": "address"
        },
        {
          "internalType": "uint256",
          "name": "id",
          "type": "uint256"
        },
        {
          "internalType": "uint256",
          "name": "value",
          "type": "uint256"
        }
      ],
      "name": "burn",
      "outputs": [],
      "stateMutability": "nonpayable",
      "type": "function"
    },
    {
      "inputs": [
        {
          "internalType": "address",
          "name": "account",
          "type": "address"
        },
        {
          "internalType": "uint256[]",
          "name": "ids",
          "type": "uint256[]"
        },
        {
          "internalType": "uint256[]",
          "name": "values",
          "type": "uint256[]"
        }
      ],
      "name": "burnBatch",
      "outputs": [],
      "stateMutability": "nonpayable",
      "type": "function"
    },
    {
      "inputs": [
        {
          "internalType": "address",
          "name": "account",
          "type": "address"
        },
        {
          "internalType": "address",
          "name": "operator",
          "type": "address"
        }
      ],
      "name": "isApprovedForAll",
      "outputs": [
        {
          "internalType": "bool",
          "name": "",
          "type": "bool"
        }
      ],
      "stateMutability": "view",
      "type": "function",
      "constant": true
    },
    {
      "inputs": [],
      "name": "owner",
      "outputs": [
        {
          "internalType": "address",
          "name": "",
          "type": "address"
        }
      ],
      "stateMutability": "view",
      "type": "function",
      "constant": true
    },
    {
      "inputs": [],
      "name": "renounceOwnership",
      "outputs": [],
      "stateMutability": "nonpayable",
      "type": "function"
    },
    {
      "inputs": [
        {
          "internalType": "address",
          "name": "from",
          "type": "address"
        },
        {
          "internalType": "address",
          "name": "to",
          "type": "address"
        },
        {
          "internalType": "uint256[]",
          "name": "ids",
          "type": "uint256[]"
        },
        {
          "internalType": "uint256[]",
          "name": "amounts",
          "type": "uint256[]"
        },
        {
          "internalType": "bytes",
          "name": "data",
          "type": "bytes"
        }
      ],
      "name": "safeBatchTransferFrom",
      "outputs": [],
      "stateMutability": "nonpayable",
      "type": "function"
    },
    {
      "inputs": [
        {
          "internalType": "address",
          "name": "from",
          "type": "address"
        },
        {
          "internalType": "address",
          "name": "to",
          "type": "address"
        },
        {
          "internalType": "uint256",
          "name": "id",
          "type": "uint256"
        },
        {
          "internalType": "uint256",
          "name": "amount",
          "type": "uint256"
        },
        {
          "internalType": "bytes",
          "name": "data",
          "type": "bytes"
        }
      ],
      "name": "safeTransferFrom",
      "outputs": [],
      "stateMutability": "nonpayable",
      "type": "function"
    },
    {
      "inputs": [
        {
          "internalType": "address",
          "name": "operator",
          "type": "address"
        },
        {
          "internalType": "bool",
          "name": "approved",
          "type": "bool"
        }
      ],
      "name": "setApprovalForAll",
      "outputs": [],
      "stateMutability": "nonpayable",
      "type": "function"
    },
    {
      "inputs": [
        {
          "internalType": "bytes4",
          "name": "interfaceId",
          "type": "bytes4"
        }
      ],
      "name": "supportsInterface",
      "outputs": [
        {
          "internalType": "bool",
          "name": "",
          "type": "bool"
        }
      ],
      "stateMutability": "view",
      "type": "function",
      "constant": true
    },
    {
      "inputs": [
        {
          "internalType": "address",
          "name": "newOwner",
          "type": "address"
        }
      ],
      "name": "transferOwnership",
      "outputs": [],
      "stateMutability": "nonpayable",
      "type": "function"
    },
    {
      "inputs": [
        {
          "internalType": "uint256",
          "name": "tokenId",
          "type": "uint256"
        }
      ],
      "name": "uri",
      "outputs": [
        {
          "internalType": "string",
          "name": "",
          "type": "string"
        }
      ],
      "stateMutability": "pure",
      "type": "function",
      "constant": true
    },
    {
      "inputs": [
        {
          "internalType": "address",
          "name": "account",
          "type": "address"
        },
        {
          "internalType": "uint256",
          "name": "id",
          "type": "uint256"
        },
        {
          "internalType": "uint256",
          "name": "amount",
          "type": "uint256"
        },
        {
          "internalType": "bytes",
          "name": "data",
          "type": "bytes"
        }
      ],
      "name": "mint",
      "outputs": [],
      "stateMutability": "nonpayable",
      "type": "function"
    },
    {
      "inputs": [
        {
          "internalType": "uint256",
          "name": "tokenId",
          "type": "uint256"
        }
      ],
      "name": "setURI",
      "outputs": [],
      "stateMutability": "nonpayable",
      "type": "function"
    },
    {
      "inputs": [
        {
          "internalType": "uint256",
          "name": "tokenId",
          "type": "uint256"
        }
      ],
      "name": "getTokenSold",
      "outputs": [
        {
          "internalType": "uint256",
          "name": "",
          "type": "uint256"
        }
      ],
      "stateMutability": "view",
      "type": "function",
      "constant": true
    },
    {
      "inputs": [
        {
          "internalType": "uint256",
          "name": "tokenId",
          "type": "uint256"
        },
        {
          "internalType": "uint256",
          "name": "amount",
          "type": "uint256"
        }
      ],
      "name": "updateTokenSold",
      "outputs": [],
      "stateMutability": "nonpayable",
      "type": "function"
    },
    {
      "inputs": [],
      "name": "getTotalTokensCount",
      "outputs": [
        {
          "internalType": "uint256",
          "name": "",
          "type": "uint256"
        }
      ],
      "stateMutability": "view",
      "type": "function",
      "constant": true
    },
    {
      "inputs": [
        {
          "internalType": "uint256",
          "name": "index",
          "type": "uint256"
        }
      ],
      "name": "getTokenByIndex",
      "outputs": [
        {
          "internalType": "uint256",
          "name": "",
          "type": "uint256"
        }
      ],
      "stateMutability": "view",
      "type": "function",
      "constant": true
    },
    {
      "inputs": [
        {
          "internalType": "uint256",
          "name": "tokenId",
          "type": "uint256"
        }
      ],
      "name": "getCarbonCredit",
      "outputs": [
        {
          "components": [
            {
              "internalType": "uint256",
              "name": "tokenId",
              "type": "uint256"
            },
            {
              "internalType": "address",
              "name": "initialOwner",
              "type": "address"
            },
            {
              "internalType": "enum CarbonBase.ApprovalStatus",
              "name": "status",
              "type": "uint8"
            },
            {
              "internalType": "uint256",
              "name": "pricePerCredit",
              "type": "uint256"
            },
            {
              "internalType": "bool",
              "name": "isListed",
              "type": "bool"
            }
          ],
          "internalType": "struct CarbonBase.CarbonCredit",
          "name": "",
          "type": "tuple"
        }
      ],
      "stateMutability": "view",
      "type": "function",
      "constant": true
    },
    {
      "inputs": [
        {
          "internalType": "uint256",
          "name": "tokenId",
          "type": "uint256"
        },
        {
          "internalType": "address",
          "name": "owner",
          "type": "address"
        },
        {
          "internalType": "enum CarbonBase.ApprovalStatus",
          "name": "status",
          "type": "uint8"
        },
        {
          "internalType": "uint256",
          "name": "pricePerCredit",
          "type": "uint256"
        },
        {
          "internalType": "bool",
          "name": "isListed",
          "type": "bool"
        }
      ],
      "name": "setCarbonCredit",
      "outputs": [],
      "stateMutability": "nonpayable",
      "type": "function"
    },
    {
      "inputs": [
        {
          "internalType": "uint256",
          "name": "tokenId",
          "type": "uint256"
        },
        {
          "internalType": "enum CarbonBase.ApprovalStatus",
          "name": "status",
          "type": "uint8"
        }
      ],
      "name": "updateStatus",
      "outputs": [],
      "stateMutability": "nonpayable",
      "type": "function"
    },
    {
      "inputs": [
        {
          "internalType": "uint256",
          "name": "tokenId",
          "type": "uint256"
        },
        {
          "internalType": "uint256",
          "name": "price",
          "type": "uint256"
        }
      ],
      "name": "updatePrice",
      "outputs": [],
      "stateMutability": "nonpayable",
      "type": "function"
    },
    {
      "inputs": [
        {
          "internalType": "uint256",
          "name": "tokenId",
          "type": "uint256"
        },
        {
          "internalType": "bool",
          "name": "isListed",
          "type": "bool"
        }
      ],
      "name": "updateListed",
      "outputs": [],
      "stateMutability": "nonpayable",
      "type": "function"
    },
    {
      "inputs": [
        {
          "internalType": "uint256",
          "name": "tokenId",
          "type": "uint256"
        },
        {
          "internalType": "uint256",
          "name": "supply",
          "type": "uint256"
        }
      ],
      "name": "setTokenSupply",
      "outputs": [],
      "stateMutability": "nonpayable",
      "type": "function"
    },
    {
      "inputs": [
        {
          "internalType": "uint256",
          "name": "tokenId",
          "type": "uint256"
        }
      ],
      "name": "getTokenSupply",
      "outputs": [
        {
          "internalType": "uint256",
          "name": "",
          "type": "uint256"
        }
      ],
      "stateMutability": "view",
      "type": "function",
      "constant": true
    },
    {
      "inputs": [
        {
          "internalType": "address",
          "name": "owner",
          "type": "address"
        }
      ],
      "name": "getOwnedTokensCount",
      "outputs": [
        {
          "internalType": "uint256",
          "name": "",
          "type": "uint256"
        }
      ],
      "stateMutability": "view",
      "type": "function",
      "constant": true
    },
    {
      "inputs": [
        {
          "internalType": "address",
          "name": "owner",
          "type": "address"
        },
        {
          "internalType": "uint256",
          "name": "index",
          "type": "uint256"
        }
      ],
      "name": "getOwnerTokenByIndex",
      "outputs": [
        {
          "internalType": "uint256",
          "name": "",
          "type": "uint256"
        }
      ],
      "stateMutability": "view",
      "type": "function",
      "constant": true
    },
    {
      "inputs": [],
      "name": "getOwnedCredits",
      "outputs": [
        {
          "components": [
            {
              "internalType": "uint256",
              "name": "tokenId",
              "type": "uint256"
            },
            {
              "internalType": "address",
              "name": "initialOwner",
              "type": "address"
            },
            {
              "internalType": "enum CarbonBase.ApprovalStatus",
              "name": "status",
              "type": "uint8"
            },
            {
              "internalType": "uint256",
              "name": "pricePerCredit",
              "type": "uint256"
            },
            {
              "internalType": "bool",
              "name": "isListed",
              "type": "bool"
            }
          ],
          "internalType": "struct CarbonBase.CarbonCredit[]",
          "name": "",
          "type": "tuple[]"
        }
      ],
      "stateMutability": "view",
      "type": "function",
      "constant": true
    },
    {
      "inputs": [
        {
          "internalType": "uint256",
          "name": "tokenId",
          "type": "uint256"
        }
      ],
      "name": "getTokenOwners",
      "outputs": [
        {
          "internalType": "address[]",
          "name": "",
          "type": "address[]"
        }
      ],
      "stateMutability": "view",
      "type": "function",
      "constant": true
    },
    {
      "inputs": [
        {
          "internalType": "uint256",
          "name": "tokenId",
          "type": "uint256"
        }
      ],
      "name": "getOwnerCount",
      "outputs": [
        {
          "internalType": "uint256",
          "name": "",
          "type": "uint256"
        }
      ],
      "stateMutability": "view",
      "type": "function",
      "constant": true
    },
    {
      "inputs": [
        {
          "internalType": "uint256",
          "name": "tokenId",
          "type": "uint256"
        }
      ],
      "name": "getAddTokenToAllTokensEnumeration",
      "outputs": [],
      "stateMutability": "nonpayable",
      "type": "function"
    }
  ],
  "bytecode": "0x608060405260405180602001604052806000815250600390805190602001906200002b92919062000176565b503480156200003957600080fd5b506040518060600160405280602b81526020016200565e602b913962000065816200008c60201b60201c565b50620000866200007a620000a860201b60201c565b620000b060201b60201c565b6200028a565b8060029080519060200190620000a492919062000176565b5050565b600033905090565b6000600560009054906101000a900473ffffffffffffffffffffffffffffffffffffffff16905081600560006101000a81548173ffffffffffffffffffffffffffffffffffffffff021916908373ffffffffffffffffffffffffffffffffffffffff1602179055508173ffffffffffffffffffffffffffffffffffffffff168173ffffffffffffffffffffffffffffffffffffffff167f8be0079c531659141344cd1fd0a4f28419497f9722a3daafe3b4186f6b6457e060405160405180910390a35050565b828054620001849062000255565b90600052602060002090601f016020900481019282620001a85760008555620001f4565b82601f10620001c357805160ff1916838001178555620001f4565b82800160010185558215620001f4579182015b82811115620001f3578251825591602001919060010190620001d6565b5b50905062000203919062000207565b5090565b5b808211156200022257600081600090555060010162000208565b5090565b7f4e487b7100000000000000000000000000000000000000000000000000000000600052602260045260246000fd5b600060028204905060018216806200026e57607f821691505b60208210810362000284576200028362000226565b5b50919050565b6153c4806200029a6000396000f3fe608060405234801561001057600080fd5b50600436106101ef5760003560e01c8063715018a61161010f578063b795a881116100a2578063f242432a11610071578063f242432a146105e8578063f2fde38b14610604578063f392243b14610620578063f5298aca14610650576101ef565b8063b795a88114610562578063e985e9c51461057e578063ed45aa45146105ae578063eeb2982f146105cc576101ef565b80639c0ab5ec116100de5780639c0ab5ec146104de578063a22cb465146104fa578063ab97c4bb14610516578063ac6ad32e14610546576101ef565b8063715018a61461047e578063731133e91461048857806382367b2d146104a45780638da5cb5b146104c0576101ef565b80633a1b3d3111610187578063663680ee11610156578063663680ee146103e6578063681ece9d146104025780636ab29975146104325780636b20c45414610462576101ef565b80633a1b3d311461033a5780634e1273f41461035657806364457aad14610386578063644b7a43146103b6576101ef565b806313f66c9a116101c357806313f66c9a146102a257806319b88edb146102d2578063278d17ad146103025780632eb2c2d61461031e576101ef565b8062fdd58e146101f457806301ffc9a7146102245780630b2f6725146102545780630e89341c14610272575b600080fd5b61020e60048036038101906102099190613693565b61066c565b60405161021b91906136e2565b60405180910390f35b61023e60048036038101906102399190613755565b610734565b60405161024b919061379d565b60405180910390f35b61025c610816565b60405161026991906136e2565b60405180910390f35b61028c600480360381019061028791906137b8565b610823565b604051610299919061387e565b60405180910390f35b6102bc60048036038101906102b791906137b8565b610854565b6040516102c991906136e2565b60405180910390f35b6102ec60048036038101906102e791906137b8565b610871565b6040516102f991906136e2565b60405180910390f35b61031c600480360381019061031791906138a0565b61088e565b005b61033860048036038101906103339190613add565b6108aa565b005b610354600480360381019061034f9190613bd1565b61094b565b005b610370600480360381019061036b9190613cd4565b61098d565b60405161037d9190613e0a565b60405180910390f35b6103a0600480360381019061039b91906137b8565b610aa6565b6040516103ad91906136e2565b60405180910390f35b6103d060048036038101906103cb91906137b8565b610ac3565b6040516103dd91906136e2565b60405180910390f35b61040060048036038101906103fb91906137b8565b610b34565b005b61041c600480360381019061041791906137b8565b610b40565b6040516104299190613eea565b60405180910390f35b61044c60048036038101906104479190613f0c565b610be1565b60405161045991906136e2565b60405180910390f35b61047c60048036038101906104779190613f39565b610c2d565b005b610486610cca565b005b6104a2600480360381019061049d9190613fc4565b610cde565b005b6104be60048036038101906104b991906138a0565b610cf0565b005b6104c8610d0f565b6040516104d59190614056565b60405180910390f35b6104f860048036038101906104f3919061409d565b610d39565b005b610514600480360381019061050f91906140dd565b610d6b565b005b610530600480360381019061052b9190613693565b610d81565b60405161053d91906136e2565b60405180910390f35b610560600480360381019061055b91906137b8565b610e3a565b005b61057c6004803603810190610577919061411d565b610e4f565b005b61059860048036038101906105939190614198565b610f68565b6040516105a5919061379d565b60405180910390f35b6105b6610ffc565b6040516105c39190614375565b60405180910390f35b6105e660048036038101906105e191906138a0565b61119b565b005b61060260048036038101906105fd9190614397565b6111c9565b005b61061e60048036038101906106199190613f0c565b61126a565b005b61063a600480360381019061063591906137b8565b6112ed565b6040516106479190614496565b60405180910390f35b61066a600480360381019061066591906144b1565b6113da565b005b60008073ffffffffffffffffffffffffffffffffffffffff168373ffffffffffffffffffffffffffffffffffffffff16036106dc576040517f08c379a00000000000000000000000000000000000000000000000000000000081526004016106d390614576565b60405180910390fd5b60008083815260200190815260200160002060008473ffffffffffffffffffffffffffffffffffffffff1673ffffffffffffffffffffffffffffffffffffffff16815260200190815260200160002054905092915050565b60007fd9b67a26000000000000000000000000000000000000000000000000000000007bffffffffffffffffffffffffffffffffffffffffffffffffffffffff1916827bffffffffffffffffffffffffffffffffffffffffffffffffffffffff191614806107ff57507f0e89341c000000000000000000000000000000000000000000000000000000007bffffffffffffffffffffffffffffffffffffffffffffffffffffffff1916827bffffffffffffffffffffffffffffffffffffffffffffffffffffffff1916145b8061080f575061080e82611477565b5b9050919050565b6000600680549050905090565b606061082e826114e1565b60405160200161083e91906146b6565b6040516020818303038152906040529050919050565b6000600d6000838152602001908152602001600020549050919050565b600060076000838152602001908152602001600020549050919050565b8060076000848152602001908152602001600020819055505050565b6108b26115af565b73ffffffffffffffffffffffffffffffffffffffff168573ffffffffffffffffffffffffffffffffffffffff1614806108f857506108f7856108f26115af565b610f68565b5b610937576040517f08c379a000000000000000000000000000000000000000000000000000000000815260040161092e90614755565b60405180910390fd5b61094485858585856115b7565b5050505050565b80600b600084815260200190815260200160002060010160146101000a81548160ff0219169083600281111561098457610983614204565b5b02179055505050565b606081518351146109d3576040517f08c379a00000000000000000000000000000000000000000000000000000000081526004016109ca906147e7565b60405180910390fd5b6000835167ffffffffffffffff8111156109f0576109ef6138e5565b5b604051908082528060200260200182016040528015610a1e5781602001602082028036833780820191505090505b50905060005b8451811015610a9b57610a6b858281518110610a4357610a42614807565b5b6020026020010151858381518110610a5e57610a5d614807565b5b602002602001015161066c565b828281518110610a7e57610a7d614807565b5b60200260200101818152505080610a9490614865565b9050610a24565b508091505092915050565b6000600e6000838152602001908152602001600020549050919050565b6000610acd610816565b8210610b0e576040517f08c379a0000000000000000000000000000000000000000000000000000000008152600401610b05906148f9565b60405180910390fd5b60068281548110610b2257610b21614807565b5b90600052602060002001549050919050565b610b3d816118d8565b50565b6060600c6000838152602001908152602001600020805480602002602001604051908101604052809291908181526020018280548015610bd557602002820191906000526020600020905b8160009054906101000a900473ffffffffffffffffffffffffffffffffffffffff1673ffffffffffffffffffffffffffffffffffffffff1681526020019060010190808311610b8b575b50505050509050919050565b6000600960008373ffffffffffffffffffffffffffffffffffffffff1673ffffffffffffffffffffffffffffffffffffffff168152602001908152602001600020805490509050919050565b610c356115af565b73ffffffffffffffffffffffffffffffffffffffff168373ffffffffffffffffffffffffffffffffffffffff161480610c7b5750610c7a83610c756115af565b610f68565b5b610cba576040517f08c379a0000000000000000000000000000000000000000000000000000000008152600401610cb190614755565b60405180910390fd5b610cc5838383611921565b505050565b610cd2611bef565b610cdc6000611c6d565b565b610cea84848484611d33565b50505050565b80600b6000848152602001908152602001600020600201819055505050565b6000600560009054906101000a900473ffffffffffffffffffffffffffffffffffffffff16905090565b80600b600084815260200190815260200160002060030160006101000a81548160ff0219169083151502179055505050565b610d7d610d766115af565b8383611ee3565b5050565b6000610d9583610d9084610ac3565b61066c565b8210610dd6576040517f08c379a0000000000000000000000000000000000000000000000000000000008152600401610dcd906148f9565b60405180910390fd5b600960008473ffffffffffffffffffffffffffffffffffffffff1673ffffffffffffffffffffffffffffffffffffffff1681526020019081526020016000208281548110610e2757610e26614807565b5b9060005260206000200154905092915050565b610e4c81610e4783610823565b61204f565b50565b6040518060a001604052808681526020018573ffffffffffffffffffffffffffffffffffffffff168152602001846002811115610e8f57610e8e614204565b5b8152602001838152602001821515815250600b60008781526020019081526020016000206000820151816000015560208201518160010160006101000a81548173ffffffffffffffffffffffffffffffffffffffff021916908373ffffffffffffffffffffffffffffffffffffffff16021790555060408201518160010160146101000a81548160ff02191690836002811115610f2f57610f2e614204565b5b02179055506060820151816002015560808201518160030160006101000a81548160ff0219169083151502179055509050505050505050565b6000600160008473ffffffffffffffffffffffffffffffffffffffff1673ffffffffffffffffffffffffffffffffffffffff16815260200190815260200160002060008373ffffffffffffffffffffffffffffffffffffffff1673ffffffffffffffffffffffffffffffffffffffff16815260200190815260200160002060009054906101000a900460ff16905092915050565b6060600061100933610be1565b905060008167ffffffffffffffff811115611027576110266138e5565b5b60405190808252806020026020018201604052801561106057816020015b61104d6134ef565b8152602001906001900390816110455790505b50905060005b8281101561119257600061107a3383610d81565b90506000600b60008381526020019081526020016000209050806040518060a0016040529081600082015481526020016001820160009054906101000a900473ffffffffffffffffffffffffffffffffffffffff1673ffffffffffffffffffffffffffffffffffffffff1673ffffffffffffffffffffffffffffffffffffffff1681526020016001820160149054906101000a900460ff16600281111561112457611123614204565b5b600281111561113657611135614204565b5b8152602001600282015481526020016003820160009054906101000a900460ff16151515158152505084848151811061117257611171614807565b5b60200260200101819052505050808061118a90614865565b915050611066565b50809250505090565b80600e600084815260200190815260200160002060008282546111be9190614919565b925050819055505050565b6111d16115af565b73ffffffffffffffffffffffffffffffffffffffff168573ffffffffffffffffffffffffffffffffffffffff1614806112175750611216856112116115af565b610f68565b5b611256576040517f08c379a000000000000000000000000000000000000000000000000000000000815260040161124d90614755565b60405180910390fd5b61126385858585856120bb565b5050505050565b611272611bef565b600073ffffffffffffffffffffffffffffffffffffffff168173ffffffffffffffffffffffffffffffffffffffff16036112e1576040517f08c379a00000000000000000000000000000000000000000000000000000000081526004016112d8906149e1565b60405180910390fd5b6112ea81611c6d565b50565b6112f56134ef565b600b60008381526020019081526020016000206040518060a0016040529081600082015481526020016001820160009054906101000a900473ffffffffffffffffffffffffffffffffffffffff1673ffffffffffffffffffffffffffffffffffffffff1673ffffffffffffffffffffffffffffffffffffffff1681526020016001820160149054906101000a900460ff16600281111561139857611397614204565b5b60028111156113aa576113a9614204565b5b8152602001600282015481526020016003820160009054906101000a900460ff1615151515815250509050919050565b6113e26115af565b73ffffffffffffffffffffffffffffffffffffffff168373ffffffffffffffffffffffffffffffffffffffff1614806114285750611427836114226115af565b610f68565b5b611467576040517f08c379a000000000000000000000000000000000000000000000000000000000815260040161145e90614755565b60405180910390fd5b611472838383612356565b505050565b60007f01ffc9a7000000000000000000000000000000000000000000000000000000007bffffffffffffffffffffffffffffffffffffffffffffffffffffffff1916827bffffffffffffffffffffffffffffffffffffffffffffffffffffffff1916149050919050565b6060600060016114f08461259c565b01905060008167ffffffffffffffff81111561150f5761150e6138e5565b5b6040519080825280601f01601f1916602001820160405280156115415781602001600182028036833780820191505090505b509050600082602001820190505b6001156115a4578080600190039150507f3031323334353637383961626364656600000000000000000000000000000000600a86061a8153600a858161159857611597614a01565b5b0494506000850361154f575b819350505050919050565b600033905090565b81518351146115fb576040517f08c379a00000000000000000000000000000000000000000000000000000000081526004016115f290614aa2565b60405180910390fd5b600073ffffffffffffffffffffffffffffffffffffffff168473ffffffffffffffffffffffffffffffffffffffff160361166a576040517f08c379a000000000000000000000000000000000000000000000000000000000815260040161166190614b34565b60405180910390fd5b60006116746115af565b90506116848187878787876126ef565b60005b84518110156118355760008582815181106116a5576116a4614807565b5b6020026020010151905060008583815181106116c4576116c3614807565b5b60200260200101519050600080600084815260200190815260200160002060008b73ffffffffffffffffffffffffffffffffffffffff1673ffffffffffffffffffffffffffffffffffffffff16815260200190815260200160002054905081811015611765576040517f08c379a000000000000000000000000000000000000000000000000000000000815260040161175c90614bc6565b60405180910390fd5b81810360008085815260200190815260200160002060008c73ffffffffffffffffffffffffffffffffffffffff1673ffffffffffffffffffffffffffffffffffffffff168152602001908152602001600020819055508160008085815260200190815260200160002060008b73ffffffffffffffffffffffffffffffffffffffff1673ffffffffffffffffffffffffffffffffffffffff168152602001908152602001600020600082825461181a9190614919565b925050819055505050508061182e90614865565b9050611687565b508473ffffffffffffffffffffffffffffffffffffffff168673ffffffffffffffffffffffffffffffffffffffff168273ffffffffffffffffffffffffffffffffffffffff167f4a39dc06d4c0dbc64b70af90fd698a233a518aa5d07e595d983b8c0526c8f7fb87876040516118ac929190614be6565b60405180910390a46118c28187878787876128db565b6118d08187878787876128e3565b505050505050565b6006805490506008600083815260200190815260200160002081905550600681908060018154018082558091505060019003906000526020600020016000909190919091505550565b600073ffffffffffffffffffffffffffffffffffffffff168373ffffffffffffffffffffffffffffffffffffffff1603611990576040517f08c379a000000000000000000000000000000000000000000000000000000000815260040161198790614c8f565b60405180910390fd5b80518251146119d4576040517f08c379a00000000000000000000000000000000000000000000000000000000081526004016119cb90614aa2565b60405180910390fd5b60006119de6115af565b90506119fe818560008686604051806020016040528060008152506126ef565b60005b8351811015611b4b576000848281518110611a1f57611a1e614807565b5b602002602001015190506000848381518110611a3e57611a3d614807565b5b60200260200101519050600080600084815260200190815260200160002060008973ffffffffffffffffffffffffffffffffffffffff1673ffffffffffffffffffffffffffffffffffffffff16815260200190815260200160002054905081811015611adf576040517f08c379a0000000000000000000000000000000000000000000000000000000008152600401611ad690614d21565b60405180910390fd5b81810360008085815260200190815260200160002060008a73ffffffffffffffffffffffffffffffffffffffff1673ffffffffffffffffffffffffffffffffffffffff168152602001908152602001600020819055505050508080611b4390614865565b915050611a01565b50600073ffffffffffffffffffffffffffffffffffffffff168473ffffffffffffffffffffffffffffffffffffffff168273ffffffffffffffffffffffffffffffffffffffff167f4a39dc06d4c0dbc64b70af90fd698a233a518aa5d07e595d983b8c0526c8f7fb8686604051611bc3929190614be6565b60405180910390a4611be9818560008686604051806020016040528060008152506128db565b50505050565b611bf76115af565b73ffffffffffffffffffffffffffffffffffffffff16611c15610d0f565b73ffffffffffffffffffffffffffffffffffffffff1614611c6b576040517f08c379a0000000000000000000000000000000000000000000000000000000008152600401611c6290614d8d565b60405180910390fd5b565b6000600560009054906101000a900473ffffffffffffffffffffffffffffffffffffffff16905081600560006101000a81548173ffffffffffffffffffffffffffffffffffffffff021916908373ffffffffffffffffffffffffffffffffffffffff1602179055508173ffffffffffffffffffffffffffffffffffffffff168173ffffffffffffffffffffffffffffffffffffffff167f8be0079c531659141344cd1fd0a4f28419497f9722a3daafe3b4186f6b6457e060405160405180910390a35050565b600073ffffffffffffffffffffffffffffffffffffffff168473ffffffffffffffffffffffffffffffffffffffff1603611da2576040517f08c379a0000000000000000000000000000000000000000000000000000000008152600401611d9990614e1f565b60405180910390fd5b6000611dac6115af565b90506000611db985612aba565b90506000611dc685612aba565b9050611dd7836000898585896126ef565b8460008088815260200190815260200160002060008973ffffffffffffffffffffffffffffffffffffffff1673ffffffffffffffffffffffffffffffffffffffff1681526020019081526020016000206000828254611e369190614919565b925050819055508673ffffffffffffffffffffffffffffffffffffffff16600073ffffffffffffffffffffffffffffffffffffffff168473ffffffffffffffffffffffffffffffffffffffff167fc3d58168c5ae7397731d063d5bbf3d657854427343f4c083240f7aacaa2d0f628989604051611eb4929190614e3f565b60405180910390a4611ecb836000898585896128db565b611eda83600089898989612b34565b50505050505050565b8173ffffffffffffffffffffffffffffffffffffffff168373ffffffffffffffffffffffffffffffffffffffff1603611f51576040517f08c379a0000000000000000000000000000000000000000000000000000000008152600401611f4890614eda565b60405180910390fd5b80600160008573ffffffffffffffffffffffffffffffffffffffff1673ffffffffffffffffffffffffffffffffffffffff16815260200190815260200160002060008473ffffffffffffffffffffffffffffffffffffffff1673ffffffffffffffffffffffffffffffffffffffff16815260200190815260200160002060006101000a81548160ff0219169083151502179055508173ffffffffffffffffffffffffffffffffffffffff168373ffffffffffffffffffffffffffffffffffffffff167f17307eab39ab6107e8899845ad3d59bd9653f200f220920489ca2b5937696c3183604051612042919061379d565b60405180910390a3505050565b80600460008481526020019081526020016000209080519060200190612076929190613548565b50817f6bb7ff708619ba0610cba295a58592e0451dee2622938c8755667688daf3529b6120a284610823565b6040516120af919061387e565b60405180910390a25050565b600073ffffffffffffffffffffffffffffffffffffffff168473ffffffffffffffffffffffffffffffffffffffff160361212a576040517f08c379a000000000000000000000000000000000000000000000000000000000815260040161212190614b34565b60405180910390fd5b60006121346115af565b9050600061214185612aba565b9050600061214e85612aba565b905061215e8389898585896126ef565b600080600088815260200190815260200160002060008a73ffffffffffffffffffffffffffffffffffffffff1673ffffffffffffffffffffffffffffffffffffffff168152602001908152602001600020549050858110156121f5576040517f08c379a00000000000000000000000000000000000000000000000000000000081526004016121ec90614bc6565b60405180910390fd5b85810360008089815260200190815260200160002060008b73ffffffffffffffffffffffffffffffffffffffff1673ffffffffffffffffffffffffffffffffffffffff168152602001908152602001600020819055508560008089815260200190815260200160002060008a73ffffffffffffffffffffffffffffffffffffffff1673ffffffffffffffffffffffffffffffffffffffff16815260200190815260200160002060008282546122aa9190614919565b925050819055508773ffffffffffffffffffffffffffffffffffffffff168973ffffffffffffffffffffffffffffffffffffffff168573ffffffffffffffffffffffffffffffffffffffff167fc3d58168c5ae7397731d063d5bbf3d657854427343f4c083240f7aacaa2d0f628a8a604051612327929190614e3f565b60405180910390a461233d848a8a86868a6128db565b61234b848a8a8a8a8a612b34565b505050505050505050565b600073ffffffffffffffffffffffffffffffffffffffff168373ffffffffffffffffffffffffffffffffffffffff16036123c5576040517f08c379a00000000000000000000000000000000000000000000000000000000081526004016123bc90614c8f565b60405180910390fd5b60006123cf6115af565b905060006123dc84612aba565b905060006123e984612aba565b9050612409838760008585604051806020016040528060008152506126ef565b600080600087815260200190815260200160002060008873ffffffffffffffffffffffffffffffffffffffff1673ffffffffffffffffffffffffffffffffffffffff168152602001908152602001600020549050848110156124a0576040517f08c379a000000000000000000000000000000000000000000000000000000000815260040161249790614d21565b60405180910390fd5b84810360008088815260200190815260200160002060008973ffffffffffffffffffffffffffffffffffffffff1673ffffffffffffffffffffffffffffffffffffffff16815260200190815260200160002081905550600073ffffffffffffffffffffffffffffffffffffffff168773ffffffffffffffffffffffffffffffffffffffff168573ffffffffffffffffffffffffffffffffffffffff167fc3d58168c5ae7397731d063d5bbf3d657854427343f4c083240f7aacaa2d0f62898960405161256d929190614e3f565b60405180910390a4612593848860008686604051806020016040528060008152506128db565b50505050505050565b600080600090507a184f03e93ff9f4daa797ed6e38ed64bf6a1f01000000000000000083106125fa577a184f03e93ff9f4daa797ed6e38ed64bf6a1f01000000000000000083816125f0576125ef614a01565b5b0492506040810190505b6d04ee2d6d415b85acef81000000008310612637576d04ee2d6d415b85acef8100000000838161262d5761262c614a01565b5b0492506020810190505b662386f26fc10000831061266657662386f26fc10000838161265c5761265b614a01565b5b0492506010810190505b6305f5e100831061268f576305f5e100838161268557612684614a01565b5b0492506008810190505b61271083106126b45761271083816126aa576126a9614a01565b5b0492506004810190505b606483106126d757606483816126cd576126cc614a01565b5b0492506002810190505b600a83106126e6576001810190505b80915050919050565b6126fd868686868686612d0b565b60005b83518110156128d257600084828151811061271e5761271d614807565b5b60200260200101519050600073ffffffffffffffffffffffffffffffffffffffff168773ffffffffffffffffffffffffffffffffffffffff1614158015612787575083828151811061277357612772614807565b5b6020026020010151612785888361066c565b145b156127a1576127968782612d13565b6127a08188612f98565b5b600073ffffffffffffffffffffffffffffffffffffffff168673ffffffffffffffffffffffffffffffffffffffff16141580156127e7575060006127e5878361066c565b145b15612805576127f686826131fe565b612800818761327a565b6128be565b600073ffffffffffffffffffffffffffffffffffffffff168673ffffffffffffffffffffffffffffffffffffffff16036128bd5783828151811061284c5761284b614807565b5b60200260200101516007600083815260200190815260200160002060008282546128769190614efa565b9250508190555060006007600083815260200190815260200160002054036128bc576128bb8583815181106128ae576128ad614807565b5b602002602001015161332a565b5b5b5b5080806128ca90614865565b915050612700565b50505050505050565b505050505050565b6129028473ffffffffffffffffffffffffffffffffffffffff166133fb565b15612ab2578373ffffffffffffffffffffffffffffffffffffffff1663bc197c8187878686866040518663ffffffff1660e01b8152600401612948959493929190614f83565b6020604051808303816000875af192505050801561298457506040513d601f19601f820116820180604052508101906129819190615000565b60015b612a295761299061503a565b806308c379a0036129ec57506129a461505c565b806129af57506129ee565b806040517f08c379a00000000000000000000000000000000000000000000000000000000081526004016129e3919061387e565b60405180910390fd5b505b6040517f08c379a0000000000000000000000000000000000000000000000000000000008152600401612a209061515e565b60405180910390fd5b63bc197c8160e01b7bffffffffffffffffffffffffffffffffffffffffffffffffffffffff1916817bffffffffffffffffffffffffffffffffffffffffffffffffffffffff191614612ab0576040517f08c379a0000000000000000000000000000000000000000000000000000000008152600401612aa7906151f0565b60405180910390fd5b505b505050505050565b60606000600167ffffffffffffffff811115612ad957612ad86138e5565b5b604051908082528060200260200182016040528015612b075781602001602082028036833780820191505090505b5090508281600081518110612b1f57612b1e614807565b5b60200260200101818152505080915050919050565b612b538473ffffffffffffffffffffffffffffffffffffffff166133fb565b15612d03578373ffffffffffffffffffffffffffffffffffffffff1663f23a6e6187878686866040518663ffffffff1660e01b8152600401612b99959493929190615210565b6020604051808303816000875af1925050508015612bd557506040513d601f19601f82011682018060405250810190612bd29190615000565b60015b612c7a57612be161503a565b806308c379a003612c3d5750612bf561505c565b80612c005750612c3f565b806040517f08c379a0000000000000000000000000000000000000000000000000000000008152600401612c34919061387e565b60405180910390fd5b505b6040517f08c379a0000000000000000000000000000000000000000000000000000000008152600401612c719061515e565b60405180910390fd5b63f23a6e6160e01b7bffffffffffffffffffffffffffffffffffffffffffffffffffffffff1916817bffffffffffffffffffffffffffffffffffffffffffffffffffffffff191614612d01576040517f08c379a0000000000000000000000000000000000000000000000000000000008152600401612cf8906151f0565b60405180910390fd5b505b505050505050565b505050505050565b60006001600960008573ffffffffffffffffffffffffffffffffffffffff1673ffffffffffffffffffffffffffffffffffffffff16815260200190815260200160002080549050612d649190614efa565b90506000600a60008573ffffffffffffffffffffffffffffffffffffffff1673ffffffffffffffffffffffffffffffffffffffff1681526020019081526020016000206000848152602001908152602001600020549050818114612ed9576000600960008673ffffffffffffffffffffffffffffffffffffffff1673ffffffffffffffffffffffffffffffffffffffff1681526020019081526020016000208381548110612e1557612e14614807565b5b9060005260206000200154905080600960008773ffffffffffffffffffffffffffffffffffffffff1673ffffffffffffffffffffffffffffffffffffffff1681526020019081526020016000208381548110612e7457612e73614807565b5b906000526020600020018190555081600a60008773ffffffffffffffffffffffffffffffffffffffff1673ffffffffffffffffffffffffffffffffffffffff168152602001908152602001600020600083815260200190815260200160002081905550505b600960008573ffffffffffffffffffffffffffffffffffffffff1673ffffffffffffffffffffffffffffffffffffffff168152602001908152602001600020805480612f2857612f2761526a565b5b60019003818190600052602060002001600090559055600a60008573ffffffffffffffffffffffffffffffffffffffff1673ffffffffffffffffffffffffffffffffffffffff16815260200190815260200160002060008481526020019081526020016000206000905550505050565b6000600d60008481526020019081526020016000205411612fee576040517f08c379a0000000000000000000000000000000000000000000000000000000008152600401612fe5906152e5565b60405180910390fd5b6000600c600084815260200190815260200160002080549050905060005b818110156131f8578273ffffffffffffffffffffffffffffffffffffffff16600c600086815260200190815260200160002082815481106130505761304f614807565b5b9060005260206000200160009054906101000a900473ffffffffffffffffffffffffffffffffffffffff1673ffffffffffffffffffffffffffffffffffffffff16036131e557600c60008581526020019081526020016000206001836130b69190614efa565b815481106130c7576130c6614807565b5b9060005260206000200160009054906101000a900473ffffffffffffffffffffffffffffffffffffffff16600c6000868152602001908152602001600020828154811061311757613116614807565b5b9060005260206000200160006101000a81548173ffffffffffffffffffffffffffffffffffffffff021916908373ffffffffffffffffffffffffffffffffffffffff160217905550600c60008581526020019081526020016000208054806131825761318161526a565b5b6001900381819060005260206000200160006101000a81549073ffffffffffffffffffffffffffffffffffffffff02191690559055600d600085815260200190815260200160002060008154809291906131db90615305565b91905055506131f8565b80806131f090614865565b91505061300c565b50505050565b600061320a838361066c565b0361327657600960008373ffffffffffffffffffffffffffffffffffffffff1673ffffffffffffffffffffffffffffffffffffffff1681526020019081526020016000208190806001815401808255809150506001900390600052602060002001600090919091909150555b5050565b613284828261341e565b61332657600c6000838152602001908152602001600020819080600181540180825580915050600190039060005260206000200160009091909190916101000a81548173ffffffffffffffffffffffffffffffffffffffff021916908373ffffffffffffffffffffffffffffffffffffffff160217905550600d6000838152602001908152602001600020600081548092919061332090614865565b91905055505b5050565b6000600160068054905061333e9190614efa565b905060006008600084815260200190815260200160002054905060006006838154811061336e5761336d614807565b5b9060005260206000200154905080600683815481106133905761338f614807565b5b906000526020600020018190555081600860008381526020019081526020016000208190555060068054806133c8576133c761526a565b5b60019003818190600052602060002001600090559055600860008581526020019081526020016000206000905550505050565b6000808273ffffffffffffffffffffffffffffffffffffffff163b119050919050565b600080600090505b600c6000858152602001908152602001600020805490508110156134e3578273ffffffffffffffffffffffffffffffffffffffff16600c600086815260200190815260200160002082815481106134805761347f614807565b5b9060005260206000200160009054906101000a900473ffffffffffffffffffffffffffffffffffffffff1673ffffffffffffffffffffffffffffffffffffffff16036134d05760019150506134e9565b80806134db90614865565b915050613426565b50600090505b92915050565b6040518060a0016040528060008152602001600073ffffffffffffffffffffffffffffffffffffffff1681526020016000600281111561353257613531614204565b5b8152602001600081526020016000151581525090565b8280546135549061535d565b90600052602060002090601f01602090048101928261357657600085556135bd565b82601f1061358f57805160ff19168380011785556135bd565b828001600101855582156135bd579182015b828111156135bc5782518255916020019190600101906135a1565b5b5090506135ca91906135ce565b5090565b5b808211156135e75760008160009055506001016135cf565b5090565b6000604051905090565b600080fd5b600080fd5b600073ffffffffffffffffffffffffffffffffffffffff82169050919050565b600061362a826135ff565b9050919050565b61363a8161361f565b811461364557600080fd5b50565b60008135905061365781613631565b92915050565b6000819050919050565b6136708161365d565b811461367b57600080fd5b50565b60008135905061368d81613667565b92915050565b600080604083850312156136aa576136a96135f5565b5b60006136b885828601613648565b92505060206136c98582860161367e565b9150509250929050565b6136dc8161365d565b82525050565b60006020820190506136f760008301846136d3565b92915050565b60007fffffffff0000000000000000000000000000000000000000000000000000000082169050919050565b613732816136fd565b811461373d57600080fd5b50565b60008135905061374f81613729565b92915050565b60006020828403121561376b5761376a6135f5565b5b600061377984828501613740565b91505092915050565b60008115159050919050565b61379781613782565b82525050565b60006020820190506137b2600083018461378e565b92915050565b6000602082840312156137ce576137cd6135f5565b5b60006137dc8482850161367e565b91505092915050565b600081519050919050565b600082825260208201905092915050565b60005b8381101561381f578082015181840152602081019050613804565b8381111561382e576000848401525b50505050565b6000601f19601f8301169050919050565b6000613850826137e5565b61385a81856137f0565b935061386a818560208601613801565b61387381613834565b840191505092915050565b600060208201905081810360008301526138988184613845565b905092915050565b600080604083850312156138b7576138b66135f5565b5b60006138c58582860161367e565b92505060206138d68582860161367e565b9150509250929050565b600080fd5b7f4e487b7100000000000000000000000000000000000000000000000000000000600052604160045260246000fd5b61391d82613834565b810181811067ffffffffffffffff8211171561393c5761393b6138e5565b5b80604052505050565b600061394f6135eb565b905061395b8282613914565b919050565b600067ffffffffffffffff82111561397b5761397a6138e5565b5b602082029050602081019050919050565b600080fd5b60006139a461399f84613960565b613945565b905080838252602082019050602084028301858111156139c7576139c661398c565b5b835b818110156139f057806139dc888261367e565b8452602084019350506020810190506139c9565b5050509392505050565b600082601f830112613a0f57613a0e6138e0565b5b8135613a1f848260208601613991565b91505092915050565b600080fd5b600067ffffffffffffffff821115613a4857613a476138e5565b5b613a5182613834565b9050602081019050919050565b82818337600083830152505050565b6000613a80613a7b84613a2d565b613945565b905082815260208101848484011115613a9c57613a9b613a28565b5b613aa7848285613a5e565b509392505050565b600082601f830112613ac457613ac36138e0565b5b8135613ad4848260208601613a6d565b91505092915050565b600080600080600060a08688031215613af957613af86135f5565b5b6000613b0788828901613648565b9550506020613b1888828901613648565b945050604086013567ffffffffffffffff811115613b3957613b386135fa565b5b613b45888289016139fa565b935050606086013567ffffffffffffffff811115613b6657613b656135fa565b5b613b72888289016139fa565b925050608086013567ffffffffffffffff811115613b9357613b926135fa565b5b613b9f88828901613aaf565b9150509295509295909350565b60038110613bb957600080fd5b50565b600081359050613bcb81613bac565b92915050565b60008060408385031215613be857613be76135f5565b5b6000613bf68582860161367e565b9250506020613c0785828601613bbc565b9150509250929050565b600067ffffffffffffffff821115613c2c57613c2b6138e5565b5b602082029050602081019050919050565b6000613c50613c4b84613c11565b613945565b90508083825260208201905060208402830185811115613c7357613c7261398c565b5b835b81811015613c9c5780613c888882613648565b845260208401935050602081019050613c75565b5050509392505050565b600082601f830112613cbb57613cba6138e0565b5b8135613ccb848260208601613c3d565b91505092915050565b60008060408385031215613ceb57613cea6135f5565b5b600083013567ffffffffffffffff811115613d0957613d086135fa565b5b613d1585828601613ca6565b925050602083013567ffffffffffffffff811115613d3657613d356135fa565b5b613d42858286016139fa565b9150509250929050565b600081519050919050565b600082825260208201905092915050565b6000819050602082019050919050565b613d818161365d565b82525050565b6000613d938383613d78565b60208301905092915050565b6000602082019050919050565b6000613db782613d4c565b613dc18185613d57565b9350613dcc83613d68565b8060005b83811015613dfd578151613de48882613d87565b9750613def83613d9f565b925050600181019050613dd0565b5085935050505092915050565b60006020820190508181036000830152613e248184613dac565b905092915050565b600081519050919050565b600082825260208201905092915050565b6000819050602082019050919050565b613e618161361f565b82525050565b6000613e738383613e58565b60208301905092915050565b6000602082019050919050565b6000613e9782613e2c565b613ea18185613e37565b9350613eac83613e48565b8060005b83811015613edd578151613ec48882613e67565b9750613ecf83613e7f565b925050600181019050613eb0565b5085935050505092915050565b60006020820190508181036000830152613f048184613e8c565b905092915050565b600060208284031215613f2257613f216135f5565b5b6000613f3084828501613648565b91505092915050565b600080600060608486031215613f5257613f516135f5565b5b6000613f6086828701613648565b935050602084013567ffffffffffffffff811115613f8157613f806135fa565b5b613f8d868287016139fa565b925050604084013567ffffffffffffffff811115613fae57613fad6135fa565b5b613fba868287016139fa565b9150509250925092565b60008060008060808587031215613fde57613fdd6135f5565b5b6000613fec87828801613648565b9450506020613ffd8782880161367e565b935050604061400e8782880161367e565b925050606085013567ffffffffffffffff81111561402f5761402e6135fa565b5b61403b87828801613aaf565b91505092959194509250565b6140508161361f565b82525050565b600060208201905061406b6000830184614047565b92915050565b61407a81613782565b811461408557600080fd5b50565b60008135905061409781614071565b92915050565b600080604083850312156140b4576140b36135f5565b5b60006140c28582860161367e565b92505060206140d385828601614088565b9150509250929050565b600080604083850312156140f4576140f36135f5565b5b600061410285828601613648565b925050602061411385828601614088565b9150509250929050565b600080600080600060a08688031215614139576141386135f5565b5b60006141478882890161367e565b955050602061415888828901613648565b945050604061416988828901613bbc565b935050606061417a8882890161367e565b925050608061418b88828901614088565b9150509295509295909350565b600080604083850312156141af576141ae6135f5565b5b60006141bd85828601613648565b92505060206141ce85828601613648565b9150509250929050565b600081519050919050565b600082825260208201905092915050565b6000819050602082019050919050565b7f4e487b7100000000000000000000000000000000000000000000000000000000600052602160045260246000fd5b6003811061424457614243614204565b5b50565b600081905061425582614233565b919050565b600061426582614247565b9050919050565b6142758161425a565b82525050565b61428481613782565b82525050565b60a0820160008201516142a06000850182613d78565b5060208201516142b36020850182613e58565b5060408201516142c6604085018261426c565b5060608201516142d96060850182613d78565b5060808201516142ec608085018261427b565b50505050565b60006142fe838361428a565b60a08301905092915050565b6000602082019050919050565b6000614322826141d8565b61432c81856141e3565b9350614337836141f4565b8060005b8381101561436857815161434f88826142f2565b975061435a8361430a565b92505060018101905061433b565b5085935050505092915050565b6000602082019050818103600083015261438f8184614317565b905092915050565b600080600080600060a086880312156143b3576143b26135f5565b5b60006143c188828901613648565b95505060206143d288828901613648565b94505060406143e38882890161367e565b93505060606143f48882890161367e565b925050608086013567ffffffffffffffff811115614415576144146135fa565b5b61442188828901613aaf565b9150509295509295909350565b60a0820160008201516144446000850182613d78565b5060208201516144576020850182613e58565b50604082015161446a604085018261426c565b50606082015161447d6060850182613d78565b506080820151614490608085018261427b565b50505050565b600060a0820190506144ab600083018461442e565b92915050565b6000806000606084860312156144ca576144c96135f5565b5b60006144d886828701613648565b93505060206144e98682870161367e565b92505060406144fa8682870161367e565b9150509250925092565b7f455243313135353a2061646472657373207a65726f206973206e6f742061207660008201527f616c6964206f776e657200000000000000000000000000000000000000000000602082015250565b6000614560602a836137f0565b915061456b82614504565b604082019050919050565b6000602082019050818103600083015261458f81614553565b9050919050565b600081905092915050565b7f68747470733a2f2f676174657761792e70696e6174612e636c6f75642f69706660008201527f732f516d52614e785a6f7546756e6e446e6473353756476d747274413245424560208201527f464c65737a6158416f38475a665a38652f000000000000000000000000000000604082015250565b6000614623605183614596565b915061462e826145a1565b605182019050919050565b6000614644826137e5565b61464e8185614596565b935061465e818560208601613801565b80840191505092915050565b7f2e6a736f6e000000000000000000000000000000000000000000000000000000600082015250565b60006146a0600583614596565b91506146ab8261466a565b600582019050919050565b60006146c182614616565b91506146cd8284614639565b91506146d882614693565b915081905092915050565b7f455243313135353a2063616c6c6572206973206e6f7420746f6b656e206f776e60008201527f6572206f7220617070726f766564000000000000000000000000000000000000602082015250565b600061473f602e836137f0565b915061474a826146e3565b604082019050919050565b6000602082019050818103600083015261476e81614732565b9050919050565b7f455243313135353a206163636f756e747320616e6420696473206c656e67746860008201527f206d69736d617463680000000000000000000000000000000000000000000000602082015250565b60006147d16029836137f0565b91506147dc82614775565b604082019050919050565b60006020820190508181036000830152614800816147c4565b9050919050565b7f4e487b7100000000000000000000000000000000000000000000000000000000600052603260045260246000fd5b7f4e487b7100000000000000000000000000000000000000000000000000000000600052601160045260246000fd5b60006148708261365d565b91507fffffffffffffffffffffffffffffffffffffffffffffffffffffffffffffffff82036148a2576148a1614836565b5b600182019050919050565b7f496e646578206f7574206f6620626f756e64732e000000000000000000000000600082015250565b60006148e36014836137f0565b91506148ee826148ad565b602082019050919050565b60006020820190508181036000830152614912816148d6565b9050919050565b60006149248261365d565b915061492f8361365d565b9250827fffffffffffffffffffffffffffffffffffffffffffffffffffffffffffffffff0382111561496457614963614836565b5b828201905092915050565b7f4f776e61626c653a206e6577206f776e657220697320746865207a65726f206160008201527f6464726573730000000000000000000000000000000000000000000000000000602082015250565b60006149cb6026836137f0565b91506149d68261496f565b604082019050919050565b600060208201905081810360008301526149fa816149be565b9050919050565b7f4e487b7100000000000000000000000000000000000000000000000000000000600052601260045260246000fd5b7f455243313135353a2069647320616e6420616d6f756e7473206c656e6774682060008201527f6d69736d61746368000000000000000000000000000000000000000000000000602082015250565b6000614a8c6028836137f0565b9150614a9782614a30565b604082019050919050565b60006020820190508181036000830152614abb81614a7f565b9050919050565b7f455243313135353a207472616e7366657220746f20746865207a65726f20616460008201527f6472657373000000000000000000000000000000000000000000000000000000602082015250565b6000614b1e6025836137f0565b9150614b2982614ac2565b604082019050919050565b60006020820190508181036000830152614b4d81614b11565b9050919050565b7f455243313135353a20696e73756666696369656e742062616c616e636520666f60008201527f72207472616e7366657200000000000000000000000000000000000000000000602082015250565b6000614bb0602a836137f0565b9150614bbb82614b54565b604082019050919050565b60006020820190508181036000830152614bdf81614ba3565b9050919050565b60006040820190508181036000830152614c008185613dac565b90508181036020830152614c148184613dac565b90509392505050565b7f455243313135353a206275726e2066726f6d20746865207a65726f206164647260008201527f6573730000000000000000000000000000000000000000000000000000000000602082015250565b6000614c796023836137f0565b9150614c8482614c1d565b604082019050919050565b60006020820190508181036000830152614ca881614c6c565b9050919050565b7f455243313135353a206275726e20616d6f756e7420657863656564732062616c60008201527f616e636500000000000000000000000000000000000000000000000000000000602082015250565b6000614d0b6024836137f0565b9150614d1682614caf565b604082019050919050565b60006020820190508181036000830152614d3a81614cfe565b9050919050565b7f4f776e61626c653a2063616c6c6572206973206e6f7420746865206f776e6572600082015250565b6000614d776020836137f0565b9150614d8282614d41565b602082019050919050565b60006020820190508181036000830152614da681614d6a565b9050919050565b7f455243313135353a206d696e7420746f20746865207a65726f2061646472657360008201527f7300000000000000000000000000000000000000000000000000000000000000602082015250565b6000614e096021836137f0565b9150614e1482614dad565b604082019050919050565b60006020820190508181036000830152614e3881614dfc565b9050919050565b6000604082019050614e5460008301856136d3565b614e6160208301846136d3565b9392505050565b7f455243313135353a2073657474696e6720617070726f76616c2073746174757360008201527f20666f722073656c660000000000000000000000000000000000000000000000602082015250565b6000614ec46029836137f0565b9150614ecf82614e68565b604082019050919050565b60006020820190508181036000830152614ef381614eb7565b9050919050565b6000614f058261365d565b9150614f108361365d565b925082821015614f2357614f22614836565b5b828203905092915050565b600081519050919050565b600082825260208201905092915050565b6000614f5582614f2e565b614f5f8185614f39565b9350614f6f818560208601613801565b614f7881613834565b840191505092915050565b600060a082019050614f986000830188614047565b614fa56020830187614047565b8181036040830152614fb78186613dac565b90508181036060830152614fcb8185613dac565b90508181036080830152614fdf8184614f4a565b90509695505050505050565b600081519050614ffa81613729565b92915050565b600060208284031215615016576150156135f5565b5b600061502484828501614feb565b91505092915050565b60008160e01c9050919050565b600060033d11156150595760046000803e61505660005161502d565b90505b90565b600060443d106150e95761506e6135eb565b60043d036004823e80513d602482011167ffffffffffffffff821117156150965750506150e9565b808201805167ffffffffffffffff8111156150b457505050506150e9565b80602083010160043d0385018111156150d15750505050506150e9565b6150e082602001850186613914565b82955050505050505b90565b7f455243313135353a207472616e7366657220746f206e6f6e2d4552433131353560008201527f526563656976657220696d706c656d656e746572000000000000000000000000602082015250565b60006151486034836137f0565b9150615153826150ec565b604082019050919050565b600060208201905081810360008301526151778161513b565b9050919050565b7f455243313135353a204552433131353552656365697665722072656a6563746560008201527f6420746f6b656e73000000000000000000000000000000000000000000000000602082015250565b60006151da6028836137f0565b91506151e58261517e565b604082019050919050565b60006020820190508181036000830152615209816151cd565b9050919050565b600060a0820190506152256000830188614047565b6152326020830187614047565b61523f60408301866136d3565b61524c60608301856136d3565b818103608083015261525e8184614f4a565b90509695505050505050565b7f4e487b7100000000000000000000000000000000000000000000000000000000600052603160045260246000fd5b7f4e6f206f776e65727320746f2072656d6f76652e000000000000000000000000600082015250565b60006152cf6014836137f0565b91506152da82615299565b602082019050919050565b600060208201905081810360008301526152fe816152c2565b9050919050565b60006153108261365d565b91506000820361532357615322614836565b5b600182039050919050565b7f4e487b7100000000000000000000000000000000000000000000000000000000600052602260045260246000fd5b6000600282049050600182168061537557607f821691505b6020821081036153885761538761532e565b5b5091905056fea2646970667358221220e213d8b287ace3b437d1610cd07f8d751e266c92bec0a0355e846014c2b14ae464736f6c634300080d003368747470733a2f2f676174657761792e70696e6174612e636c6f75642f697066732f7b69647d2e6a736f6e",
  "immutableReferences": {},
  "source": "// SPDX-License-Identifier: MIT\npragma solidity ^0.8.13;\n\nimport \"@openzeppelin/contracts/token/ERC1155/extensions/ERC1155URIStorage.sol\";\nimport \"@openzeppelin/contracts/token/ERC1155/extensions/ERC1155Burnable.sol\";\nimport \"@openzeppelin/contracts/utils/Strings.sol\";\nimport \"./CarbonBase.sol\";\n\ncontract CarbonToken is CarbonBase {\n    uint256[] private _allTokenIds; // array of all token IDs\n    // uint256 public tokenIds;\n    // mapping(uint256 => CarbonCredit) public _idToCarbonCredit;\n    mapping(uint256 => uint256) private _idToTokenSupply; // mapping of token ID => total supply of token\n    mapping(uint256 => uint256) private _idToTokensIndex; // mapping of token ID => index of token in all tokens array\n    mapping(address => uint256[]) private _ownerToTokenIds; // mapping of owner => list of token IDs\n    mapping(address => mapping(uint256 => uint256)) private _ownedTokensIndex; // Mapping from token ID to index in the above array\n    mapping(uint256 => CarbonCredit) private _idToCarbonCredit;\n    mapping(uint256 => address[]) private _tokenOwners;\n    mapping(uint256 => uint256) private _ownerCount;\n    mapping(uint256 => uint256) private _tokenSold;\n\n    function mint(\n        address account,\n        uint256 id,\n        uint256 amount,\n        bytes memory data\n    ) public {\n        _mint(account, id, amount, data);\n    }\n\n    function setURI(uint256 tokenId) public {\n        _setURI(tokenId, uri(tokenId));\n    }\n\n    function getTokenSold(uint256 tokenId) public view returns (uint256) {\n        return _tokenSold[tokenId];\n    }\n\n    function updateTokenSold(uint256 tokenId, uint256 amount) public {\n        _tokenSold[tokenId] += amount;\n    }\n\n    function getTotalTokensCount() public view returns (uint256) {\n        // returns the total number of credits\n        return _allTokenIds.length;\n    }\n\n    function getTokenByIndex(uint256 index) public view returns (uint256) {\n        require(index < getTotalTokensCount(), \"Index out of bounds.\");\n        return _allTokenIds[index];\n    }\n\n    function getCarbonCredit(\n        uint256 tokenId\n    ) public view returns (CarbonCredit memory) {\n        return _idToCarbonCredit[tokenId];\n    }\n\n    function setCarbonCredit(\n        uint256 tokenId,\n        address owner,\n        ApprovalStatus status,\n        uint256 pricePerCredit,\n        bool isListed\n    ) public {\n        _idToCarbonCredit[tokenId] = CarbonCredit(\n            tokenId,\n            owner,\n            status,\n            pricePerCredit,\n            isListed\n        );\n    }\n\n    function updateStatus(uint256 tokenId, ApprovalStatus status) public {\n        _idToCarbonCredit[tokenId].status = status;\n    }\n\n    function updatePrice(uint256 tokenId, uint256 price) public {\n        _idToCarbonCredit[tokenId].pricePerCredit = price;\n    }\n\n    function updateListed(uint256 tokenId, bool isListed) public {\n        _idToCarbonCredit[tokenId].isListed = isListed;\n    }\n\n    function setTokenSupply(uint256 tokenId, uint256 supply) public {\n        _idToTokenSupply[tokenId] = supply;\n    }\n\n    function getTokenSupply(uint256 tokenId) public view returns (uint256) {\n        return _idToTokenSupply[tokenId];\n    }\n\n    function getOwnedTokensCount(address owner) public view returns (uint256) {\n        return _ownerToTokenIds[owner].length;\n    }\n\n    function getOwnerTokenByIndex(\n        address owner,\n        uint256 index\n    ) public view returns (uint256) {\n        require(\n            index < balanceOf(owner, getTokenByIndex(index)),\n            \"Index out of bounds.\"\n        );\n        return _ownerToTokenIds[owner][index];\n    }\n\n    function getOwnedCredits() public view returns (CarbonCredit[] memory) {\n        uint256 ownedCreditsCount = getOwnedTokensCount(msg.sender);\n        CarbonCredit[] memory credits = new CarbonCredit[](ownedCreditsCount);\n\n        for (uint i = 0; i < ownedCreditsCount; i++) {\n            uint tokenId = getOwnerTokenByIndex(msg.sender, i);\n            CarbonCredit storage credit = _idToCarbonCredit[tokenId];\n            credits[i] = credit;\n        }\n        return credits;\n    }\n\n    function getTokenOwners(\n        uint256 tokenId\n    ) public view returns (address[] memory) {\n        return _tokenOwners[tokenId];\n    }\n\n    function getOwnerCount(uint256 tokenId) public view returns (uint256) {\n        return _ownerCount[tokenId];\n    }\n\n    function _beforeTokenTransfer(\n        address operator,\n        address from,\n        address to,\n        uint256[] memory ids,\n        uint256[] memory amounts,\n        bytes memory data\n    ) internal override {\n        super._beforeTokenTransfer(operator, from, to, ids, amounts, data);\n\n        for (uint256 i = 0; i < ids.length; i++) {\n            uint256 tokenId = ids[i];\n            if (from != address(0) && balanceOf(from, tokenId) == amounts[i]) {\n                // checking before transfer\n                // This implies the sender is transferring all their units of this token type\n                _removeTokenFromOwnerEnumeration(from, tokenId);\n                _removeTokenOwner(tokenId, from);\n            }\n            if (to != address(0) && balanceOf(to, tokenId) == 0) {\n                // checking before mint\n                // This implies the recipient did not previously own any units of this token type\n                _addTokenToOwnerEnumeration(to, tokenId);\n                _addTokenOwner(tokenId, to);\n            } else if (to == address(0)) {\n                // checking before burn\n                _idToTokenSupply[tokenId] -= amounts[i];\n                if (_idToTokenSupply[tokenId] == 0) {\n                    // This implies the recipient is burning all units of a token are burned\n                    _removeTokenFromAllTokensEnumeration(ids[i]);\n                }\n            }\n        }\n    }\n\n    function _removeTokenOwner(uint256 tokenId, address owner) private {\n        require(_ownerCount[tokenId] > 0, \"No owners to remove.\");\n        uint256 length = _tokenOwners[tokenId].length;\n        for (uint256 i = 0; i < length; i++) {\n            if (_tokenOwners[tokenId][i] == owner) {\n                _tokenOwners[tokenId][i] = _tokenOwners[tokenId][length - 1];\n                _tokenOwners[tokenId].pop();\n                _ownerCount[tokenId]--;\n                break;\n            }\n        }\n    }\n\n    function _isOwner(\n        uint256 tokenId,\n        address owner\n    ) private view returns (bool) {\n        for (uint256 i = 0; i < _tokenOwners[tokenId].length; i++) {\n            if (_tokenOwners[tokenId][i] == owner) {\n                return true;\n            }\n        }\n        return false;\n    }\n\n    function _addTokenOwner(uint256 tokenId, address owner) private {\n        if (!_isOwner(tokenId, owner)) {\n            _tokenOwners[tokenId].push(owner);\n            _ownerCount[tokenId]++;\n        }\n    }\n\n    function _addTokenToAllTokensEnumeration(uint256 tokenId) private {\n        _idToTokensIndex[tokenId] = _allTokenIds.length;\n        _allTokenIds.push(tokenId);\n    }\n\n    function _addTokenToOwnerEnumeration(address to, uint256 tokenId) private {\n        if (balanceOf(to, tokenId) == 0) {\n            // Token ID is new to this owner\n            _ownerToTokenIds[to].push(tokenId);\n        }\n    }\n\n    function _removeTokenFromOwnerEnumeration(\n        address owner,\n        uint256 tokenId\n    ) private {\n        // First, we need to find the index of this token ID in the owner's list of token IDs\n        uint256 lastTokenIndex = _ownerToTokenIds[owner].length - 1;\n        uint256 tokenIndex = _ownedTokensIndex[owner][tokenId];\n\n        // If the token being removed is not the last token in the list,\n        // swap the last token with the token to be removed.\n        if (tokenIndex != lastTokenIndex) {\n            uint256 lastTokenId = _ownerToTokenIds[owner][lastTokenIndex];\n\n            _ownerToTokenIds[owner][tokenIndex] = lastTokenId; // Move the last token to the slot of the to-be-removed token\n            _ownedTokensIndex[owner][lastTokenId] = tokenIndex; // Update the moved token's index\n        }\n\n        // Remove the last token's data (since it's now either removed or moved)\n        _ownerToTokenIds[owner].pop();\n        delete _ownedTokensIndex[owner][tokenId]; // Remove the deleted token's index\n    }\n\n    function _removeTokenFromAllTokensEnumeration(uint256 tokenId) private {\n        uint256 lastTokenIndex = _allTokenIds.length - 1;\n        uint256 tokenIndex = _idToTokensIndex[tokenId];\n        uint256 lastTokenId = _allTokenIds[lastTokenIndex];\n\n        _allTokenIds[tokenIndex] = lastTokenId; // Move the last token to the slot of the to-be-removed token\n        _idToTokensIndex[lastTokenId] = tokenIndex; // Update the moved token's index\n\n        // Remove the last token's data (since it's now either removed or moved)\n        _allTokenIds.pop();\n        delete _idToTokensIndex[tokenId]; // Remove the deleted token's index\n    }\n\n    function getAddTokenToAllTokensEnumeration(uint256 tokenId) public {\n        _addTokenToAllTokensEnumeration(tokenId);\n    }\n}\n",
  "sourcePath": "/Users/buudinhha/Vscode/DATN/main/contracts/CarbonToken.sol",
  "compiler": {
    "name": "solc",
    "version": "0.8.13+commit.abaa5c0e.Emscripten.clang"
  },
  "schemaVersion": "3.4.16",
  "updatedAt": "2024-04-27T09:57:15.924Z",
  "networkType": "ethereum",
  "devdoc": {
    "kind": "dev",
    "methods": {
      "balanceOf(address,uint256)": {
        "details": "See {IERC1155-balanceOf}. Requirements: - `account` cannot be the zero address."
      },
      "balanceOfBatch(address[],uint256[])": {
        "details": "See {IERC1155-balanceOfBatch}. Requirements: - `accounts` and `ids` must have the same length."
      },
      "isApprovedForAll(address,address)": {
        "details": "See {IERC1155-isApprovedForAll}."
      },
      "owner()": {
        "details": "Returns the address of the current owner."
      },
      "renounceOwnership()": {
        "details": "Leaves the contract without owner. It will not be possible to call `onlyOwner` functions. Can only be called by the current owner. NOTE: Renouncing ownership will leave the contract without an owner, thereby disabling any functionality that is only available to the owner."
      },
      "safeBatchTransferFrom(address,address,uint256[],uint256[],bytes)": {
        "details": "See {IERC1155-safeBatchTransferFrom}."
      },
      "safeTransferFrom(address,address,uint256,uint256,bytes)": {
        "details": "See {IERC1155-safeTransferFrom}."
      },
      "setApprovalForAll(address,bool)": {
        "details": "See {IERC1155-setApprovalForAll}."
      },
      "supportsInterface(bytes4)": {
        "details": "See {IERC165-supportsInterface}."
      },
      "transferOwnership(address)": {
        "details": "Transfers ownership of the contract to a new account (`newOwner`). Can only be called by the current owner."
      }
    },
    "version": 1
  },
  "userdoc": {
    "kind": "user",
    "methods": {},
    "version": 1
  }
}