{
  "contractName": "CarbonMarket",
  "abi": [
    {
      "inputs": [
        {
          "internalType": "address",
          "name": "_tokenAddress",
          "type": "address"
        },
        {
          "internalType": "address",
          "name": "_accountAddress",
          "type": "address"
        }
      ],
      "stateMutability": "nonpayable",
      "type": "constructor"
    },
    {
      "anonymous": false,
      "inputs": [
        {
          "indexed": true,
          "internalType": "address",
          "name": "account",
          "type": "address"
        },
        {
          "indexed": true,
          "internalType": "address",
          "name": "operator",
          "type": "address"
        },
        {
          "indexed": false,
          "internalType": "bool",
          "name": "approved",
          "type": "bool"
        }
      ],
      "name": "ApprovalForAll",
      "type": "event"
    },
    {
      "anonymous": false,
      "inputs": [
        {
          "indexed": false,
          "internalType": "uint256",
          "name": "tokenId",
          "type": "uint256"
        },
        {
          "indexed": false,
          "internalType": "address",
          "name": "auditor",
          "type": "address"
        },
        {
          "indexed": false,
          "internalType": "address",
          "name": "projectOwner",
          "type": "address"
        },
        {
          "indexed": false,
          "internalType": "enum CarbonBase.ApprovalStatus",
          "name": "status",
          "type": "uint8"
        },
        {
          "indexed": false,
          "internalType": "uint256",
          "name": "time",
          "type": "uint256"
        }
      ],
      "name": "CarbonCreditAudited",
      "type": "event"
    },
    {
      "anonymous": false,
      "inputs": [
        {
          "indexed": false,
          "internalType": "uint256",
          "name": "tokenId",
          "type": "uint256"
        },
        {
          "indexed": false,
          "internalType": "address",
          "name": "initialOwner",
          "type": "address"
        },
        {
          "indexed": false,
          "internalType": "uint256",
          "name": "amount",
          "type": "uint256"
        },
        {
          "indexed": false,
          "internalType": "uint256",
          "name": "creationTime",
          "type": "uint256"
        }
      ],
      "name": "CarbonCreditCreated",
      "type": "event"
    },
    {
      "anonymous": false,
      "inputs": [
        {
          "indexed": false,
          "internalType": "uint256",
          "name": "tokenId",
          "type": "uint256"
        },
        {
          "indexed": false,
          "internalType": "address",
          "name": "initialOwner",
          "type": "address"
        },
        {
          "indexed": false,
          "internalType": "uint256",
          "name": "amount",
          "type": "uint256"
        },
        {
          "indexed": false,
          "internalType": "uint256",
          "name": "pricePerCredit",
          "type": "uint256"
        },
        {
          "indexed": false,
          "internalType": "uint256",
          "name": "time",
          "type": "uint256"
        }
      ],
      "name": "CarbonCreditListed",
      "type": "event"
    },
    {
      "anonymous": false,
      "inputs": [
        {
          "indexed": false,
          "internalType": "uint256",
          "name": "tokenId",
          "type": "uint256"
        },
        {
          "indexed": false,
          "internalType": "address",
          "name": "from",
          "type": "address"
        },
        {
          "indexed": false,
          "internalType": "address",
          "name": "to",
          "type": "address"
        },
        {
          "indexed": false,
          "internalType": "uint256",
          "name": "amount",
          "type": "uint256"
        },
        {
          "indexed": false,
          "internalType": "uint256",
          "name": "time",
          "type": "uint256"
        }
      ],
      "name": "CarbonCreditPurchased",
      "type": "event"
    },
    {
      "anonymous": false,
      "inputs": [
        {
          "indexed": false,
          "internalType": "uint256",
          "name": "tokenId",
          "type": "uint256"
        },
        {
          "indexed": false,
          "internalType": "address",
          "name": "owner",
          "type": "address"
        },
        {
          "indexed": false,
          "internalType": "uint256",
          "name": "amount",
          "type": "uint256"
        },
        {
          "indexed": false,
          "internalType": "uint256",
          "name": "time",
          "type": "uint256"
        }
      ],
      "name": "CarbonCreditRetired",
      "type": "event"
    },
    {
      "anonymous": false,
      "inputs": [
        {
          "indexed": false,
          "internalType": "string",
          "name": "message",
          "type": "string"
        },
        {
          "indexed": false,
          "internalType": "uint256",
          "name": "value",
          "type": "uint256"
        }
      ],
      "name": "Log",
      "type": "event"
    },
    {
      "anonymous": false,
      "inputs": [
        {
          "indexed": true,
          "internalType": "address",
          "name": "previousOwner",
          "type": "address"
        },
        {
          "indexed": true,
          "internalType": "address",
          "name": "newOwner",
          "type": "address"
        }
      ],
      "name": "OwnershipTransferred",
      "type": "event"
    },
    {
      "anonymous": false,
      "inputs": [
        {
          "indexed": true,
          "internalType": "address",
          "name": "operator",
          "type": "address"
        },
        {
          "indexed": true,
          "internalType": "address",
          "name": "from",
          "type": "address"
        },
        {
          "indexed": true,
          "internalType": "address",
          "name": "to",
          "type": "address"
        },
        {
          "indexed": false,
          "internalType": "uint256[]",
          "name": "ids",
          "type": "uint256[]"
        },
        {
          "indexed": false,
          "internalType": "uint256[]",
          "name": "values",
          "type": "uint256[]"
        }
      ],
      "name": "TransferBatch",
      "type": "event"
    },
    {
      "anonymous": false,
      "inputs": [
        {
          "indexed": true,
          "internalType": "address",
          "name": "operator",
          "type": "address"
        },
        {
          "indexed": true,
          "internalType": "address",
          "name": "from",
          "type": "address"
        },
        {
          "indexed": true,
          "internalType": "address",
          "name": "to",
          "type": "address"
        },
        {
          "indexed": false,
          "internalType": "uint256",
          "name": "id",
          "type": "uint256"
        },
        {
          "indexed": false,
          "internalType": "uint256",
          "name": "value",
          "type": "uint256"
        }
      ],
      "name": "TransferSingle",
      "type": "event"
    },
    {
      "anonymous": false,
      "inputs": [
        {
          "indexed": false,
          "internalType": "string",
          "name": "value",
          "type": "string"
        },
        {
          "indexed": true,
          "internalType": "uint256",
          "name": "id",
          "type": "uint256"
        }
      ],
      "name": "URI",
      "type": "event"
    },
    {
      "inputs": [
        {
          "internalType": "address",
          "name": "account",
          "type": "address"
        },
        {
          "internalType": "uint256",
          "name": "id",
          "type": "uint256"
        }
      ],
      "name": "balanceOf",
      "outputs": [
        {
          "internalType": "uint256",
          "name": "",
          "type": "uint256"
        }
      ],
      "stateMutability": "view",
      "type": "function",
      "constant": true
    },
    {
      "inputs": [
        {
          "internalType": "address[]",
          "name": "accounts",
          "type": "address[]"
        },
        {
          "internalType": "uint256[]",
          "name": "ids",
          "type": "uint256[]"
        }
      ],
      "name": "balanceOfBatch",
      "outputs": [
        {
          "internalType": "uint256[]",
          "name": "",
          "type": "uint256[]"
        }
      ],
      "stateMutability": "view",
      "type": "function",
      "constant": true
    },
    {
      "inputs": [
        {
          "internalType": "address",
          "name": "account",
          "type": "address"
        },
        {
          "internalType": "uint256",
          "name": "id",
          "type": "uint256"
        },
        {
          "internalType": "uint256",
          "name": "value",
          "type": "uint256"
        }
      ],
      "name": "burn",
      "outputs": [],
      "stateMutability": "nonpayable",
      "type": "function"
    },
    {
      "inputs": [
        {
          "internalType": "address",
          "name": "account",
          "type": "address"
        },
        {
          "internalType": "uint256[]",
          "name": "ids",
          "type": "uint256[]"
        },
        {
          "internalType": "uint256[]",
          "name": "values",
          "type": "uint256[]"
        }
      ],
      "name": "burnBatch",
      "outputs": [],
      "stateMutability": "nonpayable",
      "type": "function"
    },
    {
      "inputs": [
        {
          "internalType": "address",
          "name": "account",
          "type": "address"
        },
        {
          "internalType": "address",
          "name": "operator",
          "type": "address"
        }
      ],
      "name": "isApprovedForAll",
      "outputs": [
        {
          "internalType": "bool",
          "name": "",
          "type": "bool"
        }
      ],
      "stateMutability": "view",
      "type": "function",
      "constant": true
    },
    {
      "inputs": [],
      "name": "owner",
      "outputs": [
        {
          "internalType": "address",
          "name": "",
          "type": "address"
        }
      ],
      "stateMutability": "view",
      "type": "function",
      "constant": true
    },
    {
      "inputs": [],
      "name": "renounceOwnership",
      "outputs": [],
      "stateMutability": "nonpayable",
      "type": "function"
    },
    {
      "inputs": [
        {
          "internalType": "address",
          "name": "from",
          "type": "address"
        },
        {
          "internalType": "address",
          "name": "to",
          "type": "address"
        },
        {
          "internalType": "uint256[]",
          "name": "ids",
          "type": "uint256[]"
        },
        {
          "internalType": "uint256[]",
          "name": "amounts",
          "type": "uint256[]"
        },
        {
          "internalType": "bytes",
          "name": "data",
          "type": "bytes"
        }
      ],
      "name": "safeBatchTransferFrom",
      "outputs": [],
      "stateMutability": "nonpayable",
      "type": "function"
    },
    {
      "inputs": [
        {
          "internalType": "address",
          "name": "from",
          "type": "address"
        },
        {
          "internalType": "address",
          "name": "to",
          "type": "address"
        },
        {
          "internalType": "uint256",
          "name": "id",
          "type": "uint256"
        },
        {
          "internalType": "uint256",
          "name": "amount",
          "type": "uint256"
        },
        {
          "internalType": "bytes",
          "name": "data",
          "type": "bytes"
        }
      ],
      "name": "safeTransferFrom",
      "outputs": [],
      "stateMutability": "nonpayable",
      "type": "function"
    },
    {
      "inputs": [
        {
          "internalType": "address",
          "name": "operator",
          "type": "address"
        },
        {
          "internalType": "bool",
          "name": "approved",
          "type": "bool"
        }
      ],
      "name": "setApprovalForAll",
      "outputs": [],
      "stateMutability": "nonpayable",
      "type": "function"
    },
    {
      "inputs": [
        {
          "internalType": "bytes4",
          "name": "interfaceId",
          "type": "bytes4"
        }
      ],
      "name": "supportsInterface",
      "outputs": [
        {
          "internalType": "bool",
          "name": "",
          "type": "bool"
        }
      ],
      "stateMutability": "view",
      "type": "function",
      "constant": true
    },
    {
      "inputs": [
        {
          "internalType": "address",
          "name": "newOwner",
          "type": "address"
        }
      ],
      "name": "transferOwnership",
      "outputs": [],
      "stateMutability": "nonpayable",
      "type": "function"
    },
    {
      "inputs": [
        {
          "internalType": "uint256",
          "name": "tokenId",
          "type": "uint256"
        }
      ],
      "name": "uri",
      "outputs": [
        {
          "internalType": "string",
          "name": "",
          "type": "string"
        }
      ],
      "stateMutability": "view",
      "type": "function",
      "constant": true
    },
    {
      "inputs": [],
      "name": "getListedTokensCount",
      "outputs": [
        {
          "internalType": "uint256",
          "name": "",
          "type": "uint256"
        }
      ],
      "stateMutability": "view",
      "type": "function",
      "constant": true
    },
    {
      "inputs": [
        {
          "internalType": "uint256",
          "name": "tokenId",
          "type": "uint256"
        },
        {
          "internalType": "uint256",
          "name": "price",
          "type": "uint256"
        }
      ],
      "name": "listCreditsForSale",
      "outputs": [],
      "stateMutability": "nonpayable",
      "type": "function"
    },
    {
      "inputs": [
        {
          "internalType": "uint256",
          "name": "tokenId",
          "type": "uint256"
        }
      ],
      "name": "delistCredits",
      "outputs": [],
      "stateMutability": "nonpayable",
      "type": "function"
    },
    {
      "inputs": [
        {
          "internalType": "uint256",
          "name": "tokenId",
          "type": "uint256"
        },
        {
          "internalType": "uint256",
          "name": "price",
          "type": "uint256"
        }
      ],
      "name": "changePrice",
      "outputs": [],
      "stateMutability": "nonpayable",
      "type": "function"
    },
    {
      "inputs": [],
      "name": "getAllListedCredits",
      "outputs": [
        {
          "components": [
            {
              "internalType": "uint256",
              "name": "tokenId",
              "type": "uint256"
            },
            {
              "internalType": "address",
              "name": "initialOwner",
              "type": "address"
            },
            {
              "internalType": "enum CarbonBase.ApprovalStatus",
              "name": "status",
              "type": "uint8"
            },
            {
              "internalType": "uint256",
              "name": "pricePerCredit",
              "type": "uint256"
            },
            {
              "internalType": "bool",
              "name": "isListed",
              "type": "bool"
            }
          ],
          "internalType": "struct CarbonBase.CarbonCredit[]",
          "name": "",
          "type": "tuple[]"
        }
      ],
      "stateMutability": "view",
      "type": "function",
      "constant": true
    },
    {
      "inputs": [
        {
          "internalType": "uint256",
          "name": "tokenId",
          "type": "uint256"
        },
        {
          "internalType": "uint256",
          "name": "amount",
          "type": "uint256"
        }
      ],
      "name": "buyCredits",
      "outputs": [],
      "stateMutability": "payable",
      "type": "function",
      "payable": true
    },
    {
      "inputs": [
        {
          "internalType": "address",
          "name": "caller",
          "type": "address"
        },
        {
          "internalType": "uint256",
          "name": "tokenId",
          "type": "uint256"
        },
        {
          "internalType": "uint256",
          "name": "amount",
          "type": "uint256"
        }
      ],
      "name": "retireCredits",
      "outputs": [],
      "stateMutability": "nonpayable",
      "type": "function"
    }
  ],
  "bytecode": "0x608060405260405180602001604052806000815250600390805190602001906200002b92919062000215565b503480156200003957600080fd5b506040516200618e3803806200618e83398181016040528101906200005f91906200032f565b6040518060200160405280600081525062000080816200012b60201b60201c565b50620000a1620000956200014760201b60201c565b6200014f60201b60201c565b81600660006101000a81548173ffffffffffffffffffffffffffffffffffffffff021916908373ffffffffffffffffffffffffffffffffffffffff16021790555080600760006101000a81548173ffffffffffffffffffffffffffffffffffffffff021916908373ffffffffffffffffffffffffffffffffffffffff1602179055505050620003da565b80600290805190602001906200014392919062000215565b5050565b600033905090565b6000600560009054906101000a900473ffffffffffffffffffffffffffffffffffffffff16905081600560006101000a81548173ffffffffffffffffffffffffffffffffffffffff021916908373ffffffffffffffffffffffffffffffffffffffff1602179055508173ffffffffffffffffffffffffffffffffffffffff168173ffffffffffffffffffffffffffffffffffffffff167f8be0079c531659141344cd1fd0a4f28419497f9722a3daafe3b4186f6b6457e060405160405180910390a35050565b8280546200022390620003a5565b90600052602060002090601f01602090048101928262000247576000855562000293565b82601f106200026257805160ff191683800117855562000293565b8280016001018555821562000293579182015b828111156200029257825182559160200191906001019062000275565b5b509050620002a29190620002a6565b5090565b5b80821115620002c1576000816000905550600101620002a7565b5090565b600080fd5b600073ffffffffffffffffffffffffffffffffffffffff82169050919050565b6000620002f782620002ca565b9050919050565b6200030981620002ea565b81146200031557600080fd5b50565b6000815190506200032981620002fe565b92915050565b60008060408385031215620003495762000348620002c5565b5b6000620003598582860162000318565b92505060206200036c8582860162000318565b9150509250929050565b7f4e487b7100000000000000000000000000000000000000000000000000000000600052602260045260246000fd5b60006002820490506001821680620003be57607f821691505b602082108103620003d457620003d362000376565b5b50919050565b615da480620003ea6000396000f3fe60806040526004361061011e5760003560e01c80638da5cb5b116100a0578063e7c2829f11610064578063e7c2829f146103bf578063e985e9c5146103ea578063f242432a14610427578063f2fde38b14610450578063f5298aca146104795761011e565b80638da5cb5b146102f0578063a22cb4651461031b578063a30a97c714610344578063b3de019c1461036d578063d7896e6d146103965761011e565b8063479c8457116100e7578063479c84571461022c5780634c974221146102485780634e1273f4146102735780636b20c454146102b0578063715018a6146102d95761011e565b8062fdd58e1461012357806301ffc9a7146101605780630e89341c1461019d57806319adf6ad146101da5780632eb2c2d614610203575b600080fd5b34801561012f57600080fd5b5061014a60048036038101906101459190613b04565b6104a2565b6040516101579190613b53565b60405180910390f35b34801561016c57600080fd5b5061018760048036038101906101829190613bc6565b61056a565b6040516101949190613c0e565b60405180910390f35b3480156101a957600080fd5b506101c460048036038101906101bf9190613c29565b61064c565b6040516101d19190613cef565b60405180910390f35b3480156101e657600080fd5b5061020160048036038101906101fc9190613d11565b61065e565b005b34801561020f57600080fd5b5061022a60048036038101906102259190613f4e565b61096f565b005b61024660048036038101906102419190613d11565b610a10565b005b34801561025457600080fd5b5061025d611361565b60405161026a9190613b53565b60405180910390f35b34801561027f57600080fd5b5061029a600480360381019061029591906140e0565b61136b565b6040516102a79190614216565b60405180910390f35b3480156102bc57600080fd5b506102d760048036038101906102d29190614238565b611484565b005b3480156102e557600080fd5b506102ee611521565b005b3480156102fc57600080fd5b50610305611535565b60405161031291906142d2565b60405180910390f35b34801561032757600080fd5b50610342600480360381019061033d9190614319565b61155f565b005b34801561035057600080fd5b5061036b60048036038101906103669190613c29565b611575565b005b34801561037957600080fd5b50610394600480360381019061038f9190613d11565b611630565b005b3480156103a257600080fd5b506103bd60048036038101906103b89190614359565b611714565b005b3480156103cb57600080fd5b506103d4611de8565b6040516103e19190614558565b60405180910390f35b3480156103f657600080fd5b50610411600480360381019061040c919061457a565b612083565b60405161041e9190613c0e565b60405180910390f35b34801561043357600080fd5b5061044e600480360381019061044991906145ba565b612117565b005b34801561045c57600080fd5b5061047760048036038101906104729190614651565b6121b8565b005b34801561048557600080fd5b506104a0600480360381019061049b9190614359565b61223b565b005b60008073ffffffffffffffffffffffffffffffffffffffff168373ffffffffffffffffffffffffffffffffffffffff1603610512576040517f08c379a0000000000000000000000000000000000000000000000000000000008152600401610509906146f0565b60405180910390fd5b60008083815260200190815260200160002060008473ffffffffffffffffffffffffffffffffffffffff1673ffffffffffffffffffffffffffffffffffffffff16815260200190815260200160002054905092915050565b60007fd9b67a26000000000000000000000000000000000000000000000000000000007bffffffffffffffffffffffffffffffffffffffffffffffffffffffff1916827bffffffffffffffffffffffffffffffffffffffffffffffffffffffff1916148061063557507f0e89341c000000000000000000000000000000000000000000000000000000007bffffffffffffffffffffffffffffffffffffffffffffffffffffffff1916827bffffffffffffffffffffffffffffffffffffffffffffffffffffffff1916145b806106455750610644826122d8565b5b9050919050565b606061065782612342565b9050919050565b6000600660009054906101000a900473ffffffffffffffffffffffffffffffffffffffff1673ffffffffffffffffffffffffffffffffffffffff1663f392243b846040518263ffffffff1660e01b81526004016106bb9190613b53565b60a060405180830381865afa1580156106d8573d6000803e3d6000fd5b505050506040513d601f19601f820116820180604052508101906106fc9190614805565b905061071083826020015160016000612427565b60008211610753576040517f08c379a000000000000000000000000000000000000000000000000000000000815260040161074a9061487e565b60405180910390fd5b600660009054906101000a900473ffffffffffffffffffffffffffffffffffffffff1673ffffffffffffffffffffffffffffffffffffffff16639c0ab5ec8460016040518363ffffffff1660e01b81526004016107b192919061489e565b600060405180830381600087803b1580156107cb57600080fd5b505af11580156107df573d6000803e3d6000fd5b50505050600660009054906101000a900473ffffffffffffffffffffffffffffffffffffffff1673ffffffffffffffffffffffffffffffffffffffff166382367b2d84846040518363ffffffff1660e01b81526004016108409291906148c7565b600060405180830381600087803b15801561085a57600080fd5b505af115801561086e573d6000803e3d6000fd5b50505050600160086000828254610885919061491f565b925050819055507fb7a455907b74aaf4828ce5121f0db638eb92c3ee60333d4c2f6e86e48285b469838260200151600660009054906101000a900473ffffffffffffffffffffffffffffffffffffffff1673ffffffffffffffffffffffffffffffffffffffff166319b88edb876040518263ffffffff1660e01b815260040161090e9190613b53565b602060405180830381865afa15801561092b573d6000803e3d6000fd5b505050506040513d601f19601f8201168201806040525081019061094f9190614975565b85426040516109629594939291906149a2565b60405180910390a1505050565b61097761278c565b73ffffffffffffffffffffffffffffffffffffffff168573ffffffffffffffffffffffffffffffffffffffff1614806109bd57506109bc856109b761278c565b612083565b5b6109fc576040517f08c379a00000000000000000000000000000000000000000000000000000000081526004016109f390614a67565b60405180910390fd5b610a098585858585612794565b5050505050565b6000600660009054906101000a900473ffffffffffffffffffffffffffffffffffffffff1673ffffffffffffffffffffffffffffffffffffffff1663f392243b846040518263ffffffff1660e01b8152600401610a6d9190613b53565b60a060405180830381865afa158015610a8a573d6000803e3d6000fd5b505050506040513d601f19601f82011682018060405250810190610aae9190614805565b9050600760009054906101000a900473ffffffffffffffffffffffffffffffffffffffff1673ffffffffffffffffffffffffffffffffffffffff166333dab3bc336040518263ffffffff1660e01b8152600401610b0b91906142d2565b602060405180830381865afa158015610b28573d6000803e3d6000fd5b505050506040513d601f19601f82011682018060405250810190610b4c9190614a87565b610b8b576040517f08c379a0000000000000000000000000000000000000000000000000000000008152600401610b8290614b00565b60405180910390fd5b8060800151610bcf576040517f08c379a0000000000000000000000000000000000000000000000000000000008152600401610bc690614b6c565b60405180910390fd5b81600660009054906101000a900473ffffffffffffffffffffffffffffffffffffffff1673ffffffffffffffffffffffffffffffffffffffff1662fdd58e8360200151866040518363ffffffff1660e01b8152600401610c30929190614b8c565b602060405180830381865afa158015610c4d573d6000803e3d6000fd5b505050506040513d601f19601f82011682018060405250810190610c719190614975565b1015610cb2576040517f08c379a0000000000000000000000000000000000000000000000000000000008152600401610ca990614c01565b60405180910390fd5b818160600151610cc29190614c21565b341015610d04576040517f08c379a0000000000000000000000000000000000000000000000000000000008152600401610cfb90614cc7565b60405180910390fd5b600660009054906101000a900473ffffffffffffffffffffffffffffffffffffffff1673ffffffffffffffffffffffffffffffffffffffff1663e985e9c58260200151306040518363ffffffff1660e01b8152600401610d65929190614ce7565b602060405180830381865afa158015610d82573d6000803e3d6000fd5b505050506040513d601f19601f82011682018060405250810190610da69190614a87565b610de5576040517f08c379a0000000000000000000000000000000000000000000000000000000008152600401610ddc90614d5c565b60405180910390fd5b600660009054906101000a900473ffffffffffffffffffffffffffffffffffffffff1673ffffffffffffffffffffffffffffffffffffffff1663f242432a82602001513386866040518563ffffffff1660e01b8152600401610e4a9493929190614db3565b600060405180830381600087803b158015610e6457600080fd5b505af1158015610e78573d6000803e3d6000fd5b50505050806020015173ffffffffffffffffffffffffffffffffffffffff166108fc349081150290604051600060405180830381858888f19350505050158015610ec6573d6000803e3d6000fd5b50600660009054906101000a900473ffffffffffffffffffffffffffffffffffffffff1673ffffffffffffffffffffffffffffffffffffffff1663eeb2982f84846040518363ffffffff1660e01b8152600401610f249291906148c7565b600060405180830381600087803b158015610f3e57600080fd5b505af1158015610f52573d6000803e3d6000fd5b505050506000600660009054906101000a900473ffffffffffffffffffffffffffffffffffffffff1673ffffffffffffffffffffffffffffffffffffffff1662fdd58e8360200151866040518363ffffffff1660e01b8152600401610fb8929190614b8c565b602060405180830381865afa158015610fd5573d6000803e3d6000fd5b505050506040513d601f19601f82011682018060405250810190610ff99190614975565b036110a757600660009054906101000a900473ffffffffffffffffffffffffffffffffffffffff1673ffffffffffffffffffffffffffffffffffffffff16639c0ab5ec8460006040518363ffffffff1660e01b815260040161105c92919061489e565b600060405180830381600087803b15801561107657600080fd5b505af115801561108a573d6000803e3d6000fd5b50505050600860008154809291906110a190614e0b565b91905055505b600760009054906101000a900473ffffffffffffffffffffffffffffffffffffffff1673ffffffffffffffffffffffffffffffffffffffff1663af7ff0bb826020015184600760009054906101000a900473ffffffffffffffffffffffffffffffffffffffff1673ffffffffffffffffffffffffffffffffffffffff16631f15ad1a86602001516040518263ffffffff1660e01b815260040161114a91906142d2565b602060405180830381865afa158015611167573d6000803e3d6000fd5b505050506040513d601f19601f8201168201806040525081019061118b9190614975565b6111959190614e34565b6040518363ffffffff1660e01b81526004016111b2929190614b8c565b600060405180830381600087803b1580156111cc57600080fd5b505af11580156111e0573d6000803e3d6000fd5b50505050600760009054906101000a900473ffffffffffffffffffffffffffffffffffffffff1673ffffffffffffffffffffffffffffffffffffffff1663af7ff0bb3384600760009054906101000a900473ffffffffffffffffffffffffffffffffffffffff1673ffffffffffffffffffffffffffffffffffffffff16631f15ad1a336040518263ffffffff1660e01b815260040161127f91906142d2565b602060405180830381865afa15801561129c573d6000803e3d6000fd5b505050506040513d601f19601f820116820180604052508101906112c09190614975565b6112ca919061491f565b6040518363ffffffff1660e01b81526004016112e7929190614b8c565b600060405180830381600087803b15801561130157600080fd5b505af1158015611315573d6000803e3d6000fd5b505050507fadbbaff5d3f24e7a13aaf13c504d323cd85ecba120c82f46762b3f57e5fa5d76838260200151338542604051611354959493929190614e68565b60405180910390a1505050565b6000600854905090565b606081518351146113b1576040517f08c379a00000000000000000000000000000000000000000000000000000000081526004016113a890614f2d565b60405180910390fd5b6000835167ffffffffffffffff8111156113ce576113cd613d56565b5b6040519080825280602002602001820160405280156113fc5781602001602082028036833780820191505090505b50905060005b84518110156114795761144985828151811061142157611420614f4d565b5b602002602001015185838151811061143c5761143b614f4d565b5b60200260200101516104a2565b82828151811061145c5761145b614f4d565b5b6020026020010181815250508061147290614f7c565b9050611402565b508091505092915050565b61148c61278c565b73ffffffffffffffffffffffffffffffffffffffff168373ffffffffffffffffffffffffffffffffffffffff1614806114d257506114d1836114cc61278c565b612083565b5b611511576040517f08c379a000000000000000000000000000000000000000000000000000000000815260040161150890614a67565b60405180910390fd5b61151c838383612ab5565b505050565b611529612d83565b6115336000612e01565b565b6000600560009054906101000a900473ffffffffffffffffffffffffffffffffffffffff16905090565b61157161156a61278c565b8383612ec7565b5050565b611583813360006001612427565b600660009054906101000a900473ffffffffffffffffffffffffffffffffffffffff1673ffffffffffffffffffffffffffffffffffffffff16639c0ab5ec8260006040518363ffffffff1660e01b81526004016115e192919061489e565b600060405180830381600087803b1580156115fb57600080fd5b505af115801561160f573d6000803e3d6000fd5b505050506001600860008282546116269190614e34565b9250508190555050565b61163e823360006001612427565b60008111611681576040517f08c379a00000000000000000000000000000000000000000000000000000000081526004016116789061487e565b60405180910390fd5b600660009054906101000a900473ffffffffffffffffffffffffffffffffffffffff1673ffffffffffffffffffffffffffffffffffffffff166382367b2d83836040518363ffffffff1660e01b81526004016116de9291906148c7565b600060405180830381600087803b1580156116f857600080fd5b505af115801561170c573d6000803e3d6000fd5b505050505050565b60008111611757576040517f08c379a000000000000000000000000000000000000000000000000000000000815260040161174e90615036565b60405180910390fd5b600760009054906101000a900473ffffffffffffffffffffffffffffffffffffffff1673ffffffffffffffffffffffffffffffffffffffff166333dab3bc846040518263ffffffff1660e01b81526004016117b291906142d2565b602060405180830381865afa1580156117cf573d6000803e3d6000fd5b505050506040513d601f19601f820116820180604052508101906117f39190614a87565b611832576040517f08c379a000000000000000000000000000000000000000000000000000000000815260040161182990614b00565b60405180910390fd5b80600660009054906101000a900473ffffffffffffffffffffffffffffffffffffffff1673ffffffffffffffffffffffffffffffffffffffff1662fdd58e85856040518363ffffffff1660e01b815260040161188f929190614b8c565b602060405180830381865afa1580156118ac573d6000803e3d6000fd5b505050506040513d601f19601f820116820180604052508101906118d09190614975565b1015611911576040517f08c379a000000000000000000000000000000000000000000000000000000000815260040161190890614c01565b60405180910390fd5b600660009054906101000a900473ffffffffffffffffffffffffffffffffffffffff1673ffffffffffffffffffffffffffffffffffffffff1663e985e9c584306040518363ffffffff1660e01b815260040161196e929190614ce7565b602060405180830381865afa15801561198b573d6000803e3d6000fd5b505050506040513d601f19601f820116820180604052508101906119af9190614a87565b6119ee576040517f08c379a00000000000000000000000000000000000000000000000000000000081526004016119e590614d5c565b60405180910390fd5b600660009054906101000a900473ffffffffffffffffffffffffffffffffffffffff1673ffffffffffffffffffffffffffffffffffffffff1663f5298aca8484846040518463ffffffff1660e01b8152600401611a4d93929190615056565b600060405180830381600087803b158015611a6757600080fd5b505af1158015611a7b573d6000803e3d6000fd5b505050506000600760009054906101000a900473ffffffffffffffffffffffffffffffffffffffff1673ffffffffffffffffffffffffffffffffffffffff16631f15ad1a856040518263ffffffff1660e01b8152600401611adc91906142d2565b602060405180830381865afa158015611af9573d6000803e3d6000fd5b505050506040513d601f19601f82011682018060405250810190611b1d9190614975565b90506000600760009054906101000a900473ffffffffffffffffffffffffffffffffffffffff1673ffffffffffffffffffffffffffffffffffffffff1663df5c0639866040518263ffffffff1660e01b8152600401611b7c91906142d2565b602060405180830381865afa158015611b99573d6000803e3d6000fd5b505050506040513d601f19601f82011682018060405250810190611bbd9190614975565b90507fdd970dd9b5bfe707922155b058a407655cb18288b807e2216442bca8ad83d6b582604051611bee91906150d9565b60405180910390a17fdd970dd9b5bfe707922155b058a407655cb18288b807e2216442bca8ad83d6b581604051611c259190615153565b60405180910390a182821015611c70576040517f08c379a0000000000000000000000000000000000000000000000000000000008152600401611c67906151cd565b60405180910390fd5b600760009054906101000a900473ffffffffffffffffffffffffffffffffffffffff1673ffffffffffffffffffffffffffffffffffffffff1663af7ff0bb868585611cbb9190614e34565b6040518363ffffffff1660e01b8152600401611cd8929190614b8c565b600060405180830381600087803b158015611cf257600080fd5b505af1158015611d06573d6000803e3d6000fd5b50505050600760009054906101000a900473ffffffffffffffffffffffffffffffffffffffff1673ffffffffffffffffffffffffffffffffffffffff166323413d35868584611d55919061491f565b6040518363ffffffff1660e01b8152600401611d72929190614b8c565b600060405180830381600087803b158015611d8c57600080fd5b505af1158015611da0573d6000803e3d6000fd5b505050507f86e4ad062b281f0afdca6d3083c06d8602ea1ad4cea7dd132332b96160cd020484868542604051611dd994939291906151ed565b60405180910390a15050505050565b60606000600660009054906101000a900473ffffffffffffffffffffffffffffffffffffffff1673ffffffffffffffffffffffffffffffffffffffff16630b2f67256040518163ffffffff1660e01b8152600401602060405180830381865afa158015611e59573d6000803e3d6000fd5b505050506040513d601f19601f82011682018060405250810190611e7d9190614975565b905060008060085467ffffffffffffffff811115611e9e57611e9d613d56565b5b604051908082528060200260200182016040528015611ed757816020015b611ec4613a03565b815260200190600190039081611ebc5790505b50905060005b83811015612079576000600660009054906101000a900473ffffffffffffffffffffffffffffffffffffffff1673ffffffffffffffffffffffffffffffffffffffff1663644b7a43836040518263ffffffff1660e01b8152600401611f429190613b53565b602060405180830381865afa158015611f5f573d6000803e3d6000fd5b505050506040513d601f19601f82011682018060405250810190611f839190614975565b90506000600660009054906101000a900473ffffffffffffffffffffffffffffffffffffffff1673ffffffffffffffffffffffffffffffffffffffff1663f392243b836040518263ffffffff1660e01b8152600401611fe29190613b53565b60a060405180830381865afa158015611fff573d6000803e3d6000fd5b505050506040513d601f19601f820116820180604052508101906120239190614805565b9050600115158160800151151503612064578084868151811061204957612048614f4d565b5b6020026020010181905250600185612061919061491f565b94505b5050808061207190614f7c565b915050611edd565b5080935050505090565b6000600160008473ffffffffffffffffffffffffffffffffffffffff1673ffffffffffffffffffffffffffffffffffffffff16815260200190815260200160002060008373ffffffffffffffffffffffffffffffffffffffff1673ffffffffffffffffffffffffffffffffffffffff16815260200190815260200160002060009054906101000a900460ff16905092915050565b61211f61278c565b73ffffffffffffffffffffffffffffffffffffffff168573ffffffffffffffffffffffffffffffffffffffff16148061216557506121648561215f61278c565b612083565b5b6121a4576040517f08c379a000000000000000000000000000000000000000000000000000000000815260040161219b90614a67565b60405180910390fd5b6121b18585858585613033565b5050505050565b6121c0612d83565b600073ffffffffffffffffffffffffffffffffffffffff168173ffffffffffffffffffffffffffffffffffffffff160361222f576040517f08c379a0000000000000000000000000000000000000000000000000000000008152600401612226906152a4565b60405180910390fd5b61223881612e01565b50565b61224361278c565b73ffffffffffffffffffffffffffffffffffffffff168373ffffffffffffffffffffffffffffffffffffffff16148061228957506122888361228361278c565b612083565b5b6122c8576040517f08c379a00000000000000000000000000000000000000000000000000000000081526004016122bf90614a67565b60405180910390fd5b6122d38383836132ce565b505050565b60007f01ffc9a7000000000000000000000000000000000000000000000000000000007bffffffffffffffffffffffffffffffffffffffffffffffffffffffff1916827bffffffffffffffffffffffffffffffffffffffffffffffffffffffff1916149050919050565b60606000600460008481526020019081526020016000208054612364906152f3565b80601f0160208091040260200160405190810160405280929190818152602001828054612390906152f3565b80156123dd5780601f106123b2576101008083540402835291602001916123dd565b820191906000526020600020905b8154815290600101906020018083116123c057829003601f168201915b5050505050905060008151116123fb576123f683613514565b61241f565b60038160405160200161240f9291906153f4565b6040516020818303038152906040525b915050919050565b6000600660009054906101000a900473ffffffffffffffffffffffffffffffffffffffff1673ffffffffffffffffffffffffffffffffffffffff1663f392243b866040518263ffffffff1660e01b81526004016124849190613b53565b60a060405180830381865afa1580156124a1573d6000803e3d6000fd5b505050506040513d601f19601f820116820180604052508101906124c59190614805565b90506000600660009054906101000a900473ffffffffffffffffffffffffffffffffffffffff1673ffffffffffffffffffffffffffffffffffffffff1662fdd58e86886040518363ffffffff1660e01b8152600401612525929190614b8c565b602060405180830381865afa158015612542573d6000803e3d6000fd5b505050506040513d601f19601f820116820180604052508101906125669190614975565b116125a6576040517f08c379a000000000000000000000000000000000000000000000000000000000815260040161259d90615464565b60405180910390fd5b600160028111156125ba576125b96143e7565b5b816040015160028111156125d1576125d06143e7565b5b14612611576040517f08c379a0000000000000000000000000000000000000000000000000000000008152600401612608906154d0565b60405180910390fd5b600660009054906101000a900473ffffffffffffffffffffffffffffffffffffffff1673ffffffffffffffffffffffffffffffffffffffff1663e985e9c585306040518363ffffffff1660e01b815260040161266e929190614ce7565b602060405180830381865afa15801561268b573d6000803e3d6000fd5b505050506040513d601f19601f820116820180604052508101906126af9190614a87565b6126ee576040517f08c379a00000000000000000000000000000000000000000000000000000000081526004016126e59061553c565b60405180910390fd5b821561273a57806080015115612739576040517f08c379a0000000000000000000000000000000000000000000000000000000008152600401612730906155a8565b60405180910390fd5b5b8115612785578060800151612784576040517f08c379a000000000000000000000000000000000000000000000000000000000815260040161277b90615614565b60405180910390fd5b5b5050505050565b600033905090565b81518351146127d8576040517f08c379a00000000000000000000000000000000000000000000000000000000081526004016127cf906156a6565b60405180910390fd5b600073ffffffffffffffffffffffffffffffffffffffff168473ffffffffffffffffffffffffffffffffffffffff1603612847576040517f08c379a000000000000000000000000000000000000000000000000000000000815260040161283e90615738565b60405180910390fd5b600061285161278c565b90506128618187878787876135a8565b60005b8451811015612a1257600085828151811061288257612881614f4d565b5b6020026020010151905060008583815181106128a1576128a0614f4d565b5b60200260200101519050600080600084815260200190815260200160002060008b73ffffffffffffffffffffffffffffffffffffffff1673ffffffffffffffffffffffffffffffffffffffff16815260200190815260200160002054905081811015612942576040517f08c379a0000000000000000000000000000000000000000000000000000000008152600401612939906157ca565b60405180910390fd5b81810360008085815260200190815260200160002060008c73ffffffffffffffffffffffffffffffffffffffff1673ffffffffffffffffffffffffffffffffffffffff168152602001908152602001600020819055508160008085815260200190815260200160002060008b73ffffffffffffffffffffffffffffffffffffffff1673ffffffffffffffffffffffffffffffffffffffff16815260200190815260200160002060008282546129f7919061491f565b9250508190555050505080612a0b90614f7c565b9050612864565b508473ffffffffffffffffffffffffffffffffffffffff168673ffffffffffffffffffffffffffffffffffffffff168273ffffffffffffffffffffffffffffffffffffffff167f4a39dc06d4c0dbc64b70af90fd698a233a518aa5d07e595d983b8c0526c8f7fb8787604051612a899291906157ea565b60405180910390a4612a9f8187878787876135b0565b612aad8187878787876135b8565b505050505050565b600073ffffffffffffffffffffffffffffffffffffffff168373ffffffffffffffffffffffffffffffffffffffff1603612b24576040517f08c379a0000000000000000000000000000000000000000000000000000000008152600401612b1b90615893565b60405180910390fd5b8051825114612b68576040517f08c379a0000000000000000000000000000000000000000000000000000000008152600401612b5f906156a6565b60405180910390fd5b6000612b7261278c565b9050612b92818560008686604051806020016040528060008152506135a8565b60005b8351811015612cdf576000848281518110612bb357612bb2614f4d565b5b602002602001015190506000848381518110612bd257612bd1614f4d565b5b60200260200101519050600080600084815260200190815260200160002060008973ffffffffffffffffffffffffffffffffffffffff1673ffffffffffffffffffffffffffffffffffffffff16815260200190815260200160002054905081811015612c73576040517f08c379a0000000000000000000000000000000000000000000000000000000008152600401612c6a90615925565b60405180910390fd5b81810360008085815260200190815260200160002060008a73ffffffffffffffffffffffffffffffffffffffff1673ffffffffffffffffffffffffffffffffffffffff168152602001908152602001600020819055505050508080612cd790614f7c565b915050612b95565b50600073ffffffffffffffffffffffffffffffffffffffff168473ffffffffffffffffffffffffffffffffffffffff168273ffffffffffffffffffffffffffffffffffffffff167f4a39dc06d4c0dbc64b70af90fd698a233a518aa5d07e595d983b8c0526c8f7fb8686604051612d579291906157ea565b60405180910390a4612d7d818560008686604051806020016040528060008152506135b0565b50505050565b612d8b61278c565b73ffffffffffffffffffffffffffffffffffffffff16612da9611535565b73ffffffffffffffffffffffffffffffffffffffff1614612dff576040517f08c379a0000000000000000000000000000000000000000000000000000000008152600401612df690615991565b60405180910390fd5b565b6000600560009054906101000a900473ffffffffffffffffffffffffffffffffffffffff16905081600560006101000a81548173ffffffffffffffffffffffffffffffffffffffff021916908373ffffffffffffffffffffffffffffffffffffffff1602179055508173ffffffffffffffffffffffffffffffffffffffff168173ffffffffffffffffffffffffffffffffffffffff167f8be0079c531659141344cd1fd0a4f28419497f9722a3daafe3b4186f6b6457e060405160405180910390a35050565b8173ffffffffffffffffffffffffffffffffffffffff168373ffffffffffffffffffffffffffffffffffffffff1603612f35576040517f08c379a0000000000000000000000000000000000000000000000000000000008152600401612f2c90615a23565b60405180910390fd5b80600160008573ffffffffffffffffffffffffffffffffffffffff1673ffffffffffffffffffffffffffffffffffffffff16815260200190815260200160002060008473ffffffffffffffffffffffffffffffffffffffff1673ffffffffffffffffffffffffffffffffffffffff16815260200190815260200160002060006101000a81548160ff0219169083151502179055508173ffffffffffffffffffffffffffffffffffffffff168373ffffffffffffffffffffffffffffffffffffffff167f17307eab39ab6107e8899845ad3d59bd9653f200f220920489ca2b5937696c31836040516130269190613c0e565b60405180910390a3505050565b600073ffffffffffffffffffffffffffffffffffffffff168473ffffffffffffffffffffffffffffffffffffffff16036130a2576040517f08c379a000000000000000000000000000000000000000000000000000000000815260040161309990615738565b60405180910390fd5b60006130ac61278c565b905060006130b98561378f565b905060006130c68561378f565b90506130d68389898585896135a8565b600080600088815260200190815260200160002060008a73ffffffffffffffffffffffffffffffffffffffff1673ffffffffffffffffffffffffffffffffffffffff1681526020019081526020016000205490508581101561316d576040517f08c379a0000000000000000000000000000000000000000000000000000000008152600401613164906157ca565b60405180910390fd5b85810360008089815260200190815260200160002060008b73ffffffffffffffffffffffffffffffffffffffff1673ffffffffffffffffffffffffffffffffffffffff168152602001908152602001600020819055508560008089815260200190815260200160002060008a73ffffffffffffffffffffffffffffffffffffffff1673ffffffffffffffffffffffffffffffffffffffff1681526020019081526020016000206000828254613222919061491f565b925050819055508773ffffffffffffffffffffffffffffffffffffffff168973ffffffffffffffffffffffffffffffffffffffff168573ffffffffffffffffffffffffffffffffffffffff167fc3d58168c5ae7397731d063d5bbf3d657854427343f4c083240f7aacaa2d0f628a8a60405161329f9291906148c7565b60405180910390a46132b5848a8a86868a6135b0565b6132c3848a8a8a8a8a613809565b505050505050505050565b600073ffffffffffffffffffffffffffffffffffffffff168373ffffffffffffffffffffffffffffffffffffffff160361333d576040517f08c379a000000000000000000000000000000000000000000000000000000000815260040161333490615893565b60405180910390fd5b600061334761278c565b905060006133548461378f565b905060006133618461378f565b9050613381838760008585604051806020016040528060008152506135a8565b600080600087815260200190815260200160002060008873ffffffffffffffffffffffffffffffffffffffff1673ffffffffffffffffffffffffffffffffffffffff16815260200190815260200160002054905084811015613418576040517f08c379a000000000000000000000000000000000000000000000000000000000815260040161340f90615925565b60405180910390fd5b84810360008088815260200190815260200160002060008973ffffffffffffffffffffffffffffffffffffffff1673ffffffffffffffffffffffffffffffffffffffff16815260200190815260200160002081905550600073ffffffffffffffffffffffffffffffffffffffff168773ffffffffffffffffffffffffffffffffffffffff168573ffffffffffffffffffffffffffffffffffffffff167fc3d58168c5ae7397731d063d5bbf3d657854427343f4c083240f7aacaa2d0f6289896040516134e59291906148c7565b60405180910390a461350b848860008686604051806020016040528060008152506135b0565b50505050505050565b606060028054613523906152f3565b80601f016020809104026020016040519081016040528092919081815260200182805461354f906152f3565b801561359c5780601f106135715761010080835404028352916020019161359c565b820191906000526020600020905b81548152906001019060200180831161357f57829003601f168201915b50505050509050919050565b505050505050565b505050505050565b6135d78473ffffffffffffffffffffffffffffffffffffffff166139e0565b15613787578373ffffffffffffffffffffffffffffffffffffffff1663bc197c8187878686866040518663ffffffff1660e01b815260040161361d959493929190615a87565b6020604051808303816000875af192505050801561365957506040513d601f19601f820116820180604052508101906136569190615b04565b60015b6136fe57613665615b3e565b806308c379a0036136c15750613679615b60565b8061368457506136c3565b806040517f08c379a00000000000000000000000000000000000000000000000000000000081526004016136b89190613cef565b60405180910390fd5b505b6040517f08c379a00000000000000000000000000000000000000000000000000000000081526004016136f590615c62565b60405180910390fd5b63bc197c8160e01b7bffffffffffffffffffffffffffffffffffffffffffffffffffffffff1916817bffffffffffffffffffffffffffffffffffffffffffffffffffffffff191614613785576040517f08c379a000000000000000000000000000000000000000000000000000000000815260040161377c90615cf4565b60405180910390fd5b505b505050505050565b60606000600167ffffffffffffffff8111156137ae576137ad613d56565b5b6040519080825280602002602001820160405280156137dc5781602001602082028036833780820191505090505b50905082816000815181106137f4576137f3614f4d565b5b60200260200101818152505080915050919050565b6138288473ffffffffffffffffffffffffffffffffffffffff166139e0565b156139d8578373ffffffffffffffffffffffffffffffffffffffff1663f23a6e6187878686866040518663ffffffff1660e01b815260040161386e959493929190615d14565b6020604051808303816000875af19250505080156138aa57506040513d601f19601f820116820180604052508101906138a79190615b04565b60015b61394f576138b6615b3e565b806308c379a00361391257506138ca615b60565b806138d55750613914565b806040517f08c379a00000000000000000000000000000000000000000000000000000000081526004016139099190613cef565b60405180910390fd5b505b6040517f08c379a000000000000000000000000000000000000000000000000000000000815260040161394690615c62565b60405180910390fd5b63f23a6e6160e01b7bffffffffffffffffffffffffffffffffffffffffffffffffffffffff1916817bffffffffffffffffffffffffffffffffffffffffffffffffffffffff1916146139d6576040517f08c379a00000000000000000000000000000000000000000000000000000000081526004016139cd90615cf4565b60405180910390fd5b505b505050505050565b6000808273ffffffffffffffffffffffffffffffffffffffff163b119050919050565b6040518060a0016040528060008152602001600073ffffffffffffffffffffffffffffffffffffffff16815260200160006002811115613a4657613a456143e7565b5b8152602001600081526020016000151581525090565b6000604051905090565b600080fd5b600080fd5b600073ffffffffffffffffffffffffffffffffffffffff82169050919050565b6000613a9b82613a70565b9050919050565b613aab81613a90565b8114613ab657600080fd5b50565b600081359050613ac881613aa2565b92915050565b6000819050919050565b613ae181613ace565b8114613aec57600080fd5b50565b600081359050613afe81613ad8565b92915050565b60008060408385031215613b1b57613b1a613a66565b5b6000613b2985828601613ab9565b9250506020613b3a85828601613aef565b9150509250929050565b613b4d81613ace565b82525050565b6000602082019050613b686000830184613b44565b92915050565b60007fffffffff0000000000000000000000000000000000000000000000000000000082169050919050565b613ba381613b6e565b8114613bae57600080fd5b50565b600081359050613bc081613b9a565b92915050565b600060208284031215613bdc57613bdb613a66565b5b6000613bea84828501613bb1565b91505092915050565b60008115159050919050565b613c0881613bf3565b82525050565b6000602082019050613c236000830184613bff565b92915050565b600060208284031215613c3f57613c3e613a66565b5b6000613c4d84828501613aef565b91505092915050565b600081519050919050565b600082825260208201905092915050565b60005b83811015613c90578082015181840152602081019050613c75565b83811115613c9f576000848401525b50505050565b6000601f19601f8301169050919050565b6000613cc182613c56565b613ccb8185613c61565b9350613cdb818560208601613c72565b613ce481613ca5565b840191505092915050565b60006020820190508181036000830152613d098184613cb6565b905092915050565b60008060408385031215613d2857613d27613a66565b5b6000613d3685828601613aef565b9250506020613d4785828601613aef565b9150509250929050565b600080fd5b7f4e487b7100000000000000000000000000000000000000000000000000000000600052604160045260246000fd5b613d8e82613ca5565b810181811067ffffffffffffffff82111715613dad57613dac613d56565b5b80604052505050565b6000613dc0613a5c565b9050613dcc8282613d85565b919050565b600067ffffffffffffffff821115613dec57613deb613d56565b5b602082029050602081019050919050565b600080fd5b6000613e15613e1084613dd1565b613db6565b90508083825260208201905060208402830185811115613e3857613e37613dfd565b5b835b81811015613e615780613e4d8882613aef565b845260208401935050602081019050613e3a565b5050509392505050565b600082601f830112613e8057613e7f613d51565b5b8135613e90848260208601613e02565b91505092915050565b600080fd5b600067ffffffffffffffff821115613eb957613eb8613d56565b5b613ec282613ca5565b9050602081019050919050565b82818337600083830152505050565b6000613ef1613eec84613e9e565b613db6565b905082815260208101848484011115613f0d57613f0c613e99565b5b613f18848285613ecf565b509392505050565b600082601f830112613f3557613f34613d51565b5b8135613f45848260208601613ede565b91505092915050565b600080600080600060a08688031215613f6a57613f69613a66565b5b6000613f7888828901613ab9565b9550506020613f8988828901613ab9565b945050604086013567ffffffffffffffff811115613faa57613fa9613a6b565b5b613fb688828901613e6b565b935050606086013567ffffffffffffffff811115613fd757613fd6613a6b565b5b613fe388828901613e6b565b925050608086013567ffffffffffffffff81111561400457614003613a6b565b5b61401088828901613f20565b9150509295509295909350565b600067ffffffffffffffff82111561403857614037613d56565b5b602082029050602081019050919050565b600061405c6140578461401d565b613db6565b9050808382526020820190506020840283018581111561407f5761407e613dfd565b5b835b818110156140a857806140948882613ab9565b845260208401935050602081019050614081565b5050509392505050565b600082601f8301126140c7576140c6613d51565b5b81356140d7848260208601614049565b91505092915050565b600080604083850312156140f7576140f6613a66565b5b600083013567ffffffffffffffff81111561411557614114613a6b565b5b614121858286016140b2565b925050602083013567ffffffffffffffff81111561414257614141613a6b565b5b61414e85828601613e6b565b9150509250929050565b600081519050919050565b600082825260208201905092915050565b6000819050602082019050919050565b61418d81613ace565b82525050565b600061419f8383614184565b60208301905092915050565b6000602082019050919050565b60006141c382614158565b6141cd8185614163565b93506141d883614174565b8060005b838110156142095781516141f08882614193565b97506141fb836141ab565b9250506001810190506141dc565b5085935050505092915050565b6000602082019050818103600083015261423081846141b8565b905092915050565b60008060006060848603121561425157614250613a66565b5b600061425f86828701613ab9565b935050602084013567ffffffffffffffff8111156142805761427f613a6b565b5b61428c86828701613e6b565b925050604084013567ffffffffffffffff8111156142ad576142ac613a6b565b5b6142b986828701613e6b565b9150509250925092565b6142cc81613a90565b82525050565b60006020820190506142e760008301846142c3565b92915050565b6142f681613bf3565b811461430157600080fd5b50565b600081359050614313816142ed565b92915050565b600080604083850312156143305761432f613a66565b5b600061433e85828601613ab9565b925050602061434f85828601614304565b9150509250929050565b60008060006060848603121561437257614371613a66565b5b600061438086828701613ab9565b935050602061439186828701613aef565b92505060406143a286828701613aef565b9150509250925092565b600081519050919050565b600082825260208201905092915050565b6000819050602082019050919050565b6143e181613a90565b82525050565b7f4e487b7100000000000000000000000000000000000000000000000000000000600052602160045260246000fd5b60038110614427576144266143e7565b5b50565b600081905061443882614416565b919050565b60006144488261442a565b9050919050565b6144588161443d565b82525050565b61446781613bf3565b82525050565b60a0820160008201516144836000850182614184565b50602082015161449660208501826143d8565b5060408201516144a9604085018261444f565b5060608201516144bc6060850182614184565b5060808201516144cf608085018261445e565b50505050565b60006144e1838361446d565b60a08301905092915050565b6000602082019050919050565b6000614505826143ac565b61450f81856143b7565b935061451a836143c8565b8060005b8381101561454b57815161453288826144d5565b975061453d836144ed565b92505060018101905061451e565b5085935050505092915050565b6000602082019050818103600083015261457281846144fa565b905092915050565b6000806040838503121561459157614590613a66565b5b600061459f85828601613ab9565b92505060206145b085828601613ab9565b9150509250929050565b600080600080600060a086880312156145d6576145d5613a66565b5b60006145e488828901613ab9565b95505060206145f588828901613ab9565b945050604061460688828901613aef565b935050606061461788828901613aef565b925050608086013567ffffffffffffffff81111561463857614637613a6b565b5b61464488828901613f20565b9150509295509295909350565b60006020828403121561466757614666613a66565b5b600061467584828501613ab9565b91505092915050565b7f455243313135353a2061646472657373207a65726f206973206e6f742061207660008201527f616c6964206f776e657200000000000000000000000000000000000000000000602082015250565b60006146da602a83613c61565b91506146e58261467e565b604082019050919050565b60006020820190508181036000830152614709816146cd565b9050919050565b600080fd5b60008151905061472481613ad8565b92915050565b60008151905061473981613aa2565b92915050565b6003811061474c57600080fd5b50565b60008151905061475e8161473f565b92915050565b600081519050614773816142ed565b92915050565b600060a0828403121561478f5761478e614710565b5b61479960a0613db6565b905060006147a984828501614715565b60008301525060206147bd8482850161472a565b60208301525060406147d18482850161474f565b60408301525060606147e584828501614715565b60608301525060806147f984828501614764565b60808301525092915050565b600060a0828403121561481b5761481a613a66565b5b600061482984828501614779565b91505092915050565b7f496e76616c696420707269636500000000000000000000000000000000000000600082015250565b6000614868600d83613c61565b915061487382614832565b602082019050919050565b600060208201905081810360008301526148978161485b565b9050919050565b60006040820190506148b36000830185613b44565b6148c06020830184613bff565b9392505050565b60006040820190506148dc6000830185613b44565b6148e96020830184613b44565b9392505050565b7f4e487b7100000000000000000000000000000000000000000000000000000000600052601160045260246000fd5b600061492a82613ace565b915061493583613ace565b9250827fffffffffffffffffffffffffffffffffffffffffffffffffffffffffffffffff0382111561496a576149696148f0565b5b828201905092915050565b60006020828403121561498b5761498a613a66565b5b600061499984828501614715565b91505092915050565b600060a0820190506149b76000830188613b44565b6149c460208301876142c3565b6149d16040830186613b44565b6149de6060830185613b44565b6149eb6080830184613b44565b9695505050505050565b7f455243313135353a2063616c6c6572206973206e6f7420746f6b656e206f776e60008201527f6572206f7220617070726f766564000000000000000000000000000000000000602082015250565b6000614a51602e83613c61565b9150614a5c826149f5565b604082019050919050565b60006020820190508181036000830152614a8081614a44565b9050919050565b600060208284031215614a9d57614a9c613a66565b5b6000614aab84828501614764565b91505092915050565b7f4163636f756e74206e6f7420726567697374657265642e000000000000000000600082015250565b6000614aea601783613c61565b9150614af582614ab4565b602082019050919050565b60006020820190508181036000830152614b1981614add565b9050919050565b7f496e76616c69642069734c6973746564207374617475732e0000000000000000600082015250565b6000614b56601883613c61565b9150614b6182614b20565b602082019050919050565b60006020820190508181036000830152614b8581614b49565b9050919050565b6000604082019050614ba160008301856142c3565b614bae6020830184613b44565b9392505050565b7f496e73756666696369656e742062616c616e63652e0000000000000000000000600082015250565b6000614beb601583613c61565b9150614bf682614bb5565b602082019050919050565b60006020820190508181036000830152614c1a81614bde565b9050919050565b6000614c2c82613ace565b9150614c3783613ace565b9250817fffffffffffffffffffffffffffffffffffffffffffffffffffffffffffffffff0483118215151615614c7057614c6f6148f0565b5b828202905092915050565b7f496e73756666696369656e742066756e64732e00000000000000000000000000600082015250565b6000614cb1601383613c61565b9150614cbc82614c7b565b602082019050919050565b60006020820190508181036000830152614ce081614ca4565b9050919050565b6000604082019050614cfc60008301856142c3565b614d0960208301846142c3565b9392505050565b7f4d61726b6574706c616365206e6f742079657420617574686f72697a65642e00600082015250565b6000614d46601f83613c61565b9150614d5182614d10565b602082019050919050565b60006020820190508181036000830152614d7581614d39565b9050919050565b600082825260208201905092915050565b50565b6000614d9d600083614d7c565b9150614da882614d8d565b600082019050919050565b600060a082019050614dc860008301876142c3565b614dd560208301866142c3565b614de26040830185613b44565b614def6060830184613b44565b8181036080830152614e0081614d90565b905095945050505050565b6000614e1682613ace565b915060008203614e2957614e286148f0565b5b600182039050919050565b6000614e3f82613ace565b9150614e4a83613ace565b925082821015614e5d57614e5c6148f0565b5b828203905092915050565b600060a082019050614e7d6000830188613b44565b614e8a60208301876142c3565b614e9760408301866142c3565b614ea46060830185613b44565b614eb16080830184613b44565b9695505050505050565b7f455243313135353a206163636f756e747320616e6420696473206c656e67746860008201527f206d69736d617463680000000000000000000000000000000000000000000000602082015250565b6000614f17602983613c61565b9150614f2282614ebb565b604082019050919050565b60006020820190508181036000830152614f4681614f0a565b9050919050565b7f4e487b7100000000000000000000000000000000000000000000000000000000600052603260045260246000fd5b6000614f8782613ace565b91507fffffffffffffffffffffffffffffffffffffffffffffffffffffffffffffffff8203614fb957614fb86148f0565b5b600182019050919050565b7f416d6f756e74206d7573742062652067726561746572207468616e207a65726f60008201527f2e00000000000000000000000000000000000000000000000000000000000000602082015250565b6000615020602183613c61565b915061502b82614fc4565b604082019050919050565b6000602082019050818103600083015261504f81615013565b9050919050565b600060608201905061506b60008301866142c3565b6150786020830185613b44565b6150856040830184613b44565b949350505050565b7f43757272656e7420546f74616c20437265646974730000000000000000000000600082015250565b60006150c3601583613c61565b91506150ce8261508d565b602082019050919050565b600060408201905081810360008301526150f2816150b6565b90506151016020830184613b44565b92915050565b7f43757272656e7420546f74616c20526574697265000000000000000000000000600082015250565b600061513d601483613c61565b915061514882615107565b602082019050919050565b6000604082019050818103600083015261516c81615130565b905061517b6020830184613b44565b92915050565b7f556e646572666c6f772064657465637465642e00000000000000000000000000600082015250565b60006151b7601383613c61565b91506151c282615181565b602082019050919050565b600060208201905081810360008301526151e6816151aa565b9050919050565b60006080820190506152026000830187613b44565b61520f60208301866142c3565b61521c6040830185613b44565b6152296060830184613b44565b95945050505050565b7f4f776e61626c653a206e6577206f776e657220697320746865207a65726f206160008201527f6464726573730000000000000000000000000000000000000000000000000000602082015250565b600061528e602683613c61565b915061529982615232565b604082019050919050565b600060208201905081810360008301526152bd81615281565b9050919050565b7f4e487b7100000000000000000000000000000000000000000000000000000000600052602260045260246000fd5b6000600282049050600182168061530b57607f821691505b60208210810361531e5761531d6152c4565b5b50919050565b600081905092915050565b60008190508160005260206000209050919050565b60008154615351816152f3565b61535b8186615324565b945060018216600081146153765760018114615387576153ba565b60ff198316865281860193506153ba565b6153908561532f565b60005b838110156153b257815481890152600182019150602081019050615393565b838801955050505b50505092915050565b60006153ce82613c56565b6153d88185615324565b93506153e8818560208601613c72565b80840191505092915050565b60006154008285615344565b915061540c82846153c3565b91508190509392505050565b7f496e76616c696420746f6b656e2062616c616e63650000000000000000000000600082015250565b600061544e601583613c61565b915061545982615418565b602082019050919050565b6000602082019050818103600083015261547d81615441565b9050919050565b7f496e76616c696420737461747573000000000000000000000000000000000000600082015250565b60006154ba600e83613c61565b91506154c582615484565b602082019050919050565b600060208201905081810360008301526154e9816154ad565b9050919050565b7f4d61726b6574706c616365206e6f742079657420617574686f72697a65640000600082015250565b6000615526601e83613c61565b9150615531826154f0565b602082019050919050565b6000602082019050818103600083015261555581615519565b9050919050565b7f416c7265616479206c69737465642e0000000000000000000000000000000000600082015250565b6000615592600f83613c61565b915061559d8261555c565b602082019050919050565b600060208201905081810360008301526155c181615585565b9050919050565b7f4e6f74206c69737465642e000000000000000000000000000000000000000000600082015250565b60006155fe600b83613c61565b9150615609826155c8565b602082019050919050565b6000602082019050818103600083015261562d816155f1565b9050919050565b7f455243313135353a2069647320616e6420616d6f756e7473206c656e6774682060008201527f6d69736d61746368000000000000000000000000000000000000000000000000602082015250565b6000615690602883613c61565b915061569b82615634565b604082019050919050565b600060208201905081810360008301526156bf81615683565b9050919050565b7f455243313135353a207472616e7366657220746f20746865207a65726f20616460008201527f6472657373000000000000000000000000000000000000000000000000000000602082015250565b6000615722602583613c61565b915061572d826156c6565b604082019050919050565b6000602082019050818103600083015261575181615715565b9050919050565b7f455243313135353a20696e73756666696369656e742062616c616e636520666f60008201527f72207472616e7366657200000000000000000000000000000000000000000000602082015250565b60006157b4602a83613c61565b91506157bf82615758565b604082019050919050565b600060208201905081810360008301526157e3816157a7565b9050919050565b6000604082019050818103600083015261580481856141b8565b9050818103602083015261581881846141b8565b90509392505050565b7f455243313135353a206275726e2066726f6d20746865207a65726f206164647260008201527f6573730000000000000000000000000000000000000000000000000000000000602082015250565b600061587d602383613c61565b915061588882615821565b604082019050919050565b600060208201905081810360008301526158ac81615870565b9050919050565b7f455243313135353a206275726e20616d6f756e7420657863656564732062616c60008201527f616e636500000000000000000000000000000000000000000000000000000000602082015250565b600061590f602483613c61565b915061591a826158b3565b604082019050919050565b6000602082019050818103600083015261593e81615902565b9050919050565b7f4f776e61626c653a2063616c6c6572206973206e6f7420746865206f776e6572600082015250565b600061597b602083613c61565b915061598682615945565b602082019050919050565b600060208201905081810360008301526159aa8161596e565b9050919050565b7f455243313135353a2073657474696e6720617070726f76616c2073746174757360008201527f20666f722073656c660000000000000000000000000000000000000000000000602082015250565b6000615a0d602983613c61565b9150615a18826159b1565b604082019050919050565b60006020820190508181036000830152615a3c81615a00565b9050919050565b600081519050919050565b6000615a5982615a43565b615a638185614d7c565b9350615a73818560208601613c72565b615a7c81613ca5565b840191505092915050565b600060a082019050615a9c60008301886142c3565b615aa960208301876142c3565b8181036040830152615abb81866141b8565b90508181036060830152615acf81856141b8565b90508181036080830152615ae38184615a4e565b90509695505050505050565b600081519050615afe81613b9a565b92915050565b600060208284031215615b1a57615b19613a66565b5b6000615b2884828501615aef565b91505092915050565b60008160e01c9050919050565b600060033d1115615b5d5760046000803e615b5a600051615b31565b90505b90565b600060443d10615bed57615b72613a5c565b60043d036004823e80513d602482011167ffffffffffffffff82111715615b9a575050615bed565b808201805167ffffffffffffffff811115615bb85750505050615bed565b80602083010160043d038501811115615bd5575050505050615bed565b615be482602001850186613d85565b82955050505050505b90565b7f455243313135353a207472616e7366657220746f206e6f6e2d4552433131353560008201527f526563656976657220696d706c656d656e746572000000000000000000000000602082015250565b6000615c4c603483613c61565b9150615c5782615bf0565b604082019050919050565b60006020820190508181036000830152615c7b81615c3f565b9050919050565b7f455243313135353a204552433131353552656365697665722072656a6563746560008201527f6420746f6b656e73000000000000000000000000000000000000000000000000602082015250565b6000615cde602883613c61565b9150615ce982615c82565b604082019050919050565b60006020820190508181036000830152615d0d81615cd1565b9050919050565b600060a082019050615d2960008301886142c3565b615d3660208301876142c3565b615d436040830186613b44565b615d506060830185613b44565b8181036080830152615d628184615a4e565b9050969550505050505056fea26469706673582212203258846af51743a2e26c944ff56fea0b9f07c9f7eccebdc6e3010684d67cd08a64736f6c634300080d0033",
  "immutableReferences": {},
  "source": "// SPDX-License-Identifier: MIT\npragma solidity ^0.8.13;\n\nimport \"./AccountManagement.sol\";\nimport \"./CarbonToken.sol\";\nimport \"./CarbonBase.sol\";\n\ncontract CarbonMarket is CarbonBase {\n    CarbonToken private _token;\n    AccountManagement private _account;\n    uint256 private _listedTokens; // number of listed credits\n\n    event Log(string message, uint256 value);\n\n    constructor(address _tokenAddress, address _accountAddress) {\n        _token = CarbonToken(_tokenAddress);\n        _account = AccountManagement(_accountAddress);\n    }\n\n    function _validateCarbonCredit(\n        uint256 tokenId,\n        address owner,\n        bool checkListed,\n        bool checkDelisted\n    ) internal view {\n        CarbonCredit memory credit = _token.getCarbonCredit(tokenId);\n\n        require(_token.balanceOf(owner, tokenId) > 0, \"Invalid token balance\");\n        require(credit.status == ApprovalStatus.Approved, \"Invalid status\");\n        require(\n            _token.isApprovedForAll(owner, address(this)),\n            \"Marketplace not yet authorized\"\n        );\n\n        if (checkListed) {\n            require(!credit.isListed, \"Already listed.\");\n        }\n\n        if (checkDelisted) {\n            require(credit.isListed, \"Not listed.\");\n        }\n    }\n\n    function getListedTokensCount() public view returns (uint256) {\n        // returns the total number of listed credits\n        return _listedTokens;\n    }\n\n    function listCreditsForSale(uint256 tokenId, uint256 price) public {\n        CarbonCredit memory credit = _token.getCarbonCredit(tokenId);\n\n        _validateCarbonCredit(tokenId, credit.initialOwner, true, false);\n        require(price > 0, \"Invalid price\");\n\n        _token.updateListed(tokenId, true);\n        _token.updatePrice(tokenId, price);\n        _listedTokens += 1;\n\n        emit CarbonCreditListed(\n            tokenId,\n            credit.initialOwner,\n            _token.getTokenSupply(tokenId),\n            price,\n            block.timestamp\n        );\n    }\n\n    function delistCredits(uint256 tokenId) public {\n        _validateCarbonCredit(tokenId, msg.sender, false, true);\n\n        _token.updateListed(tokenId, false);\n        _listedTokens -= 1;\n    }\n\n    function changePrice(uint256 tokenId, uint256 price) public {\n        _validateCarbonCredit(tokenId, msg.sender, false, true);\n        require(price > 0, \"Invalid price\");\n\n        _token.updatePrice(tokenId, price);\n    }\n\n    function getAllListedCredits() public view returns (CarbonCredit[] memory) {\n        // [{}, {}, ...]\n        uint allCreditsCount = _token.getTotalTokensCount();\n        uint currentIndex = 0;\n        CarbonCredit[] memory credits = new CarbonCredit[](_listedTokens);\n\n        for (uint i = 0; i < allCreditsCount; i++) {\n            uint tokenId = _token.getTokenByIndex(i);\n            CarbonCredit memory credit = _token.getCarbonCredit(tokenId);\n            if (credit.isListed == true) {\n                credits[currentIndex] = credit;\n                currentIndex += 1;\n            }\n        }\n        return credits;\n    }\n\n    function buyCredits(uint256 tokenId, uint256 amount) public payable {\n        CarbonCredit memory credit = _token.getCarbonCredit(tokenId);\n\n        require(\n            _account.checkAccountRegistered(msg.sender),\n            \"Account not registered.\"\n        );\n        require(credit.isListed, \"Invalid isListed status.\");\n        require(\n            _token.balanceOf(credit.initialOwner, tokenId) >= amount,\n            \"Insufficient balance.\"\n        );\n        require(\n            msg.value >= credit.pricePerCredit * amount,\n            \"Insufficient funds.\"\n        );\n        require(\n            _token.isApprovedForAll(credit.initialOwner, address(this)),\n            \"Marketplace not yet authorized.\"\n        );\n\n        _token.safeTransferFrom(\n            credit.initialOwner,\n            msg.sender,\n            tokenId,\n            amount,\n            \"\"\n        );\n        payable(credit.initialOwner).transfer(msg.value);\n\n        _token.updateTokenSold(tokenId, amount);\n\n        // Additional custom logic post-transfer\n        // If all tokens of this ID are transferred, update the CarbonCredit struct\n        if (_token.balanceOf(credit.initialOwner, tokenId) == 0) {\n            _token.updateListed(tokenId, false);\n            _listedTokens--;\n        }\n\n        // Update account total credits\n        _account.setAccountTotalCredits(\n            credit.initialOwner,\n            _account.getAccountTotalCredits(credit.initialOwner) - amount\n        );\n        _account.setAccountTotalCredits(\n            msg.sender,\n            _account.getAccountTotalCredits(msg.sender) + amount\n        );\n\n        emit CarbonCreditPurchased(\n            tokenId,\n            credit.initialOwner,\n            msg.sender,\n            amount,\n            block.timestamp\n        );\n    }\n\n    function retireCredits(address caller, uint256 tokenId, uint256 amount) public {\n        require(amount > 0, \"Amount must be greater than zero.\");\n        require(\n            _account.checkAccountRegistered(caller),\n            \"Account not registered.\"\n        );\n\n        require(\n            _token.balanceOf(caller, tokenId) >= amount,\n            \"Insufficient balance.\"\n        );\n        require(\n            _token.isApprovedForAll(caller, address(this)),\n            \"Marketplace not yet authorized.\"\n        );\n\n        _token.burn(caller, tokenId, amount);\n\n        uint256 currentTotalCredits = _account.getAccountTotalCredits(\n            caller\n        );\n        uint256 currentTotalRetire = _account.getAccountTotalRetire(caller);\n\n        emit Log(\"Current Total Credits\", currentTotalCredits);\n        emit Log(\"Current Total Retire\", currentTotalRetire);\n\n        require(currentTotalCredits >= amount, \"Underflow detected.\");\n\n        _account.setAccountTotalCredits(\n            caller,\n            currentTotalCredits - amount\n        );\n        _account.setAccountTotalRetire(caller, currentTotalRetire + amount);\n\n        emit CarbonCreditRetired(tokenId, caller, amount, block.timestamp);\n    }\n}\n",
  "sourcePath": "/Users/buudinhha/Vscode/DATN/main/contracts/CarbonMarket.sol",
  "compiler": {
    "name": "solc",
    "version": "0.8.13+commit.abaa5c0e.Emscripten.clang"
  },
  "schemaVersion": "3.4.16",
  "updatedAt": "2024-06-06T17:27:03.749Z",
  "networkType": "ethereum",
  "devdoc": {
    "kind": "dev",
    "methods": {
      "balanceOf(address,uint256)": {
        "details": "See {IERC1155-balanceOf}. Requirements: - `account` cannot be the zero address."
      },
      "balanceOfBatch(address[],uint256[])": {
        "details": "See {IERC1155-balanceOfBatch}. Requirements: - `accounts` and `ids` must have the same length."
      },
      "isApprovedForAll(address,address)": {
        "details": "See {IERC1155-isApprovedForAll}."
      },
      "owner()": {
        "details": "Returns the address of the current owner."
      },
      "renounceOwnership()": {
        "details": "Leaves the contract without owner. It will not be possible to call `onlyOwner` functions. Can only be called by the current owner. NOTE: Renouncing ownership will leave the contract without an owner, thereby disabling any functionality that is only available to the owner."
      },
      "safeBatchTransferFrom(address,address,uint256[],uint256[],bytes)": {
        "details": "See {IERC1155-safeBatchTransferFrom}."
      },
      "safeTransferFrom(address,address,uint256,uint256,bytes)": {
        "details": "See {IERC1155-safeTransferFrom}."
      },
      "setApprovalForAll(address,bool)": {
        "details": "See {IERC1155-setApprovalForAll}."
      },
      "supportsInterface(bytes4)": {
        "details": "See {IERC165-supportsInterface}."
      },
      "transferOwnership(address)": {
        "details": "Transfers ownership of the contract to a new account (`newOwner`). Can only be called by the current owner."
      }
    },
    "version": 1
  },
  "userdoc": {
    "kind": "user",
    "methods": {},
    "version": 1
  }
}