{
  "contractName": "CarbonToken",
  "abi": [
    {
      "anonymous": false,
      "inputs": [
        {
          "indexed": true,
          "internalType": "address",
          "name": "account",
          "type": "address"
        },
        {
          "indexed": true,
          "internalType": "address",
          "name": "operator",
          "type": "address"
        },
        {
          "indexed": false,
          "internalType": "bool",
          "name": "approved",
          "type": "bool"
        }
      ],
      "name": "ApprovalForAll",
      "type": "event"
    },
    {
      "anonymous": false,
      "inputs": [
        {
          "indexed": false,
          "internalType": "uint256",
          "name": "tokenId",
          "type": "uint256"
        },
        {
          "indexed": false,
          "internalType": "address",
          "name": "auditor",
          "type": "address"
        },
        {
          "indexed": false,
          "internalType": "address",
          "name": "projectOwner",
          "type": "address"
        },
        {
          "indexed": false,
          "internalType": "enum CarbonBase.ApprovalStatus",
          "name": "status",
          "type": "uint8"
        },
        {
          "indexed": false,
          "internalType": "uint256",
          "name": "time",
          "type": "uint256"
        }
      ],
      "name": "CarbonCreditAudited",
      "type": "event"
    },
    {
      "anonymous": false,
      "inputs": [
        {
          "indexed": false,
          "internalType": "uint256",
          "name": "tokenId",
          "type": "uint256"
        },
        {
          "indexed": false,
          "internalType": "address",
          "name": "initialOwner",
          "type": "address"
        },
        {
          "indexed": false,
          "internalType": "uint256",
          "name": "amount",
          "type": "uint256"
        },
        {
          "indexed": false,
          "internalType": "uint256",
          "name": "creationTime",
          "type": "uint256"
        }
      ],
      "name": "CarbonCreditCreated",
      "type": "event"
    },
    {
      "anonymous": false,
      "inputs": [
        {
          "indexed": false,
          "internalType": "uint256",
          "name": "tokenId",
          "type": "uint256"
        },
        {
          "indexed": false,
          "internalType": "address",
          "name": "initialOwner",
          "type": "address"
        },
        {
          "indexed": false,
          "internalType": "uint256",
          "name": "amount",
          "type": "uint256"
        },
        {
          "indexed": false,
          "internalType": "uint256",
          "name": "pricePerCredit",
          "type": "uint256"
        },
        {
          "indexed": false,
          "internalType": "uint256",
          "name": "time",
          "type": "uint256"
        }
      ],
      "name": "CarbonCreditListed",
      "type": "event"
    },
    {
      "anonymous": false,
      "inputs": [
        {
          "indexed": false,
          "internalType": "uint256",
          "name": "tokenId",
          "type": "uint256"
        },
        {
          "indexed": false,
          "internalType": "address",
          "name": "from",
          "type": "address"
        },
        {
          "indexed": false,
          "internalType": "address",
          "name": "to",
          "type": "address"
        },
        {
          "indexed": false,
          "internalType": "uint256",
          "name": "amount",
          "type": "uint256"
        },
        {
          "indexed": false,
          "internalType": "uint256",
          "name": "time",
          "type": "uint256"
        }
      ],
      "name": "CarbonCreditPurchased",
      "type": "event"
    },
    {
      "anonymous": false,
      "inputs": [
        {
          "indexed": false,
          "internalType": "uint256",
          "name": "tokenId",
          "type": "uint256"
        },
        {
          "indexed": false,
          "internalType": "address",
          "name": "owner",
          "type": "address"
        },
        {
          "indexed": false,
          "internalType": "uint256",
          "name": "amount",
          "type": "uint256"
        },
        {
          "indexed": false,
          "internalType": "uint256",
          "name": "time",
          "type": "uint256"
        }
      ],
      "name": "CarbonCreditRetired",
      "type": "event"
    },
    {
      "anonymous": false,
      "inputs": [
        {
          "indexed": true,
          "internalType": "address",
          "name": "previousOwner",
          "type": "address"
        },
        {
          "indexed": true,
          "internalType": "address",
          "name": "newOwner",
          "type": "address"
        }
      ],
      "name": "OwnershipTransferred",
      "type": "event"
    },
    {
      "anonymous": false,
      "inputs": [
        {
          "indexed": true,
          "internalType": "address",
          "name": "operator",
          "type": "address"
        },
        {
          "indexed": true,
          "internalType": "address",
          "name": "from",
          "type": "address"
        },
        {
          "indexed": true,
          "internalType": "address",
          "name": "to",
          "type": "address"
        },
        {
          "indexed": false,
          "internalType": "uint256[]",
          "name": "ids",
          "type": "uint256[]"
        },
        {
          "indexed": false,
          "internalType": "uint256[]",
          "name": "values",
          "type": "uint256[]"
        }
      ],
      "name": "TransferBatch",
      "type": "event"
    },
    {
      "anonymous": false,
      "inputs": [
        {
          "indexed": true,
          "internalType": "address",
          "name": "operator",
          "type": "address"
        },
        {
          "indexed": true,
          "internalType": "address",
          "name": "from",
          "type": "address"
        },
        {
          "indexed": true,
          "internalType": "address",
          "name": "to",
          "type": "address"
        },
        {
          "indexed": false,
          "internalType": "uint256",
          "name": "id",
          "type": "uint256"
        },
        {
          "indexed": false,
          "internalType": "uint256",
          "name": "value",
          "type": "uint256"
        }
      ],
      "name": "TransferSingle",
      "type": "event"
    },
    {
      "anonymous": false,
      "inputs": [
        {
          "indexed": false,
          "internalType": "string",
          "name": "value",
          "type": "string"
        },
        {
          "indexed": true,
          "internalType": "uint256",
          "name": "id",
          "type": "uint256"
        }
      ],
      "name": "URI",
      "type": "event"
    },
    {
      "inputs": [
        {
          "internalType": "address",
          "name": "account",
          "type": "address"
        },
        {
          "internalType": "uint256",
          "name": "id",
          "type": "uint256"
        }
      ],
      "name": "balanceOf",
      "outputs": [
        {
          "internalType": "uint256",
          "name": "",
          "type": "uint256"
        }
      ],
      "stateMutability": "view",
      "type": "function",
      "constant": true
    },
    {
      "inputs": [
        {
          "internalType": "address[]",
          "name": "accounts",
          "type": "address[]"
        },
        {
          "internalType": "uint256[]",
          "name": "ids",
          "type": "uint256[]"
        }
      ],
      "name": "balanceOfBatch",
      "outputs": [
        {
          "internalType": "uint256[]",
          "name": "",
          "type": "uint256[]"
        }
      ],
      "stateMutability": "view",
      "type": "function",
      "constant": true
    },
    {
      "inputs": [
        {
          "internalType": "address",
          "name": "account",
          "type": "address"
        },
        {
          "internalType": "uint256",
          "name": "id",
          "type": "uint256"
        },
        {
          "internalType": "uint256",
          "name": "value",
          "type": "uint256"
        }
      ],
      "name": "burn",
      "outputs": [],
      "stateMutability": "nonpayable",
      "type": "function"
    },
    {
      "inputs": [
        {
          "internalType": "address",
          "name": "account",
          "type": "address"
        },
        {
          "internalType": "uint256[]",
          "name": "ids",
          "type": "uint256[]"
        },
        {
          "internalType": "uint256[]",
          "name": "values",
          "type": "uint256[]"
        }
      ],
      "name": "burnBatch",
      "outputs": [],
      "stateMutability": "nonpayable",
      "type": "function"
    },
    {
      "inputs": [
        {
          "internalType": "address",
          "name": "account",
          "type": "address"
        },
        {
          "internalType": "address",
          "name": "operator",
          "type": "address"
        }
      ],
      "name": "isApprovedForAll",
      "outputs": [
        {
          "internalType": "bool",
          "name": "",
          "type": "bool"
        }
      ],
      "stateMutability": "view",
      "type": "function",
      "constant": true
    },
    {
      "inputs": [],
      "name": "owner",
      "outputs": [
        {
          "internalType": "address",
          "name": "",
          "type": "address"
        }
      ],
      "stateMutability": "view",
      "type": "function",
      "constant": true
    },
    {
      "inputs": [],
      "name": "renounceOwnership",
      "outputs": [],
      "stateMutability": "nonpayable",
      "type": "function"
    },
    {
      "inputs": [
        {
          "internalType": "address",
          "name": "from",
          "type": "address"
        },
        {
          "internalType": "address",
          "name": "to",
          "type": "address"
        },
        {
          "internalType": "uint256[]",
          "name": "ids",
          "type": "uint256[]"
        },
        {
          "internalType": "uint256[]",
          "name": "amounts",
          "type": "uint256[]"
        },
        {
          "internalType": "bytes",
          "name": "data",
          "type": "bytes"
        }
      ],
      "name": "safeBatchTransferFrom",
      "outputs": [],
      "stateMutability": "nonpayable",
      "type": "function"
    },
    {
      "inputs": [
        {
          "internalType": "address",
          "name": "from",
          "type": "address"
        },
        {
          "internalType": "address",
          "name": "to",
          "type": "address"
        },
        {
          "internalType": "uint256",
          "name": "id",
          "type": "uint256"
        },
        {
          "internalType": "uint256",
          "name": "amount",
          "type": "uint256"
        },
        {
          "internalType": "bytes",
          "name": "data",
          "type": "bytes"
        }
      ],
      "name": "safeTransferFrom",
      "outputs": [],
      "stateMutability": "nonpayable",
      "type": "function"
    },
    {
      "inputs": [
        {
          "internalType": "address",
          "name": "operator",
          "type": "address"
        },
        {
          "internalType": "bool",
          "name": "approved",
          "type": "bool"
        }
      ],
      "name": "setApprovalForAll",
      "outputs": [],
      "stateMutability": "nonpayable",
      "type": "function"
    },
    {
      "inputs": [
        {
          "internalType": "bytes4",
          "name": "interfaceId",
          "type": "bytes4"
        }
      ],
      "name": "supportsInterface",
      "outputs": [
        {
          "internalType": "bool",
          "name": "",
          "type": "bool"
        }
      ],
      "stateMutability": "view",
      "type": "function",
      "constant": true
    },
    {
      "inputs": [
        {
          "internalType": "address",
          "name": "newOwner",
          "type": "address"
        }
      ],
      "name": "transferOwnership",
      "outputs": [],
      "stateMutability": "nonpayable",
      "type": "function"
    },
    {
      "inputs": [
        {
          "internalType": "uint256",
          "name": "tokenId",
          "type": "uint256"
        }
      ],
      "name": "uri",
      "outputs": [
        {
          "internalType": "string",
          "name": "",
          "type": "string"
        }
      ],
      "stateMutability": "view",
      "type": "function",
      "constant": true
    },
    {
      "inputs": [
        {
          "internalType": "address",
          "name": "account",
          "type": "address"
        },
        {
          "internalType": "uint256",
          "name": "id",
          "type": "uint256"
        },
        {
          "internalType": "uint256",
          "name": "amount",
          "type": "uint256"
        },
        {
          "internalType": "bytes",
          "name": "data",
          "type": "bytes"
        }
      ],
      "name": "mint",
      "outputs": [],
      "stateMutability": "nonpayable",
      "type": "function"
    },
    {
      "inputs": [
        {
          "internalType": "uint256",
          "name": "tokenId",
          "type": "uint256"
        },
        {
          "internalType": "string",
          "name": "newURI",
          "type": "string"
        }
      ],
      "name": "setURI",
      "outputs": [],
      "stateMutability": "nonpayable",
      "type": "function"
    },
    {
      "inputs": [
        {
          "internalType": "uint256",
          "name": "tokenId",
          "type": "uint256"
        },
        {
          "internalType": "uint256",
          "name": "supply",
          "type": "uint256"
        }
      ],
      "name": "setTokenSupply",
      "outputs": [],
      "stateMutability": "nonpayable",
      "type": "function"
    },
    {
      "inputs": [
        {
          "internalType": "uint256",
          "name": "tokenId",
          "type": "uint256"
        }
      ],
      "name": "getTokenSupply",
      "outputs": [
        {
          "internalType": "uint256",
          "name": "",
          "type": "uint256"
        }
      ],
      "stateMutability": "view",
      "type": "function",
      "constant": true
    },
    {
      "inputs": [
        {
          "internalType": "uint256",
          "name": "tokenId",
          "type": "uint256"
        }
      ],
      "name": "getTokenSold",
      "outputs": [
        {
          "internalType": "uint256",
          "name": "",
          "type": "uint256"
        }
      ],
      "stateMutability": "view",
      "type": "function",
      "constant": true
    },
    {
      "inputs": [
        {
          "internalType": "uint256",
          "name": "tokenId",
          "type": "uint256"
        },
        {
          "internalType": "uint256",
          "name": "amount",
          "type": "uint256"
        }
      ],
      "name": "updateTokenSold",
      "outputs": [],
      "stateMutability": "nonpayable",
      "type": "function"
    },
    {
      "inputs": [],
      "name": "getTotalTokensCount",
      "outputs": [
        {
          "internalType": "uint256",
          "name": "",
          "type": "uint256"
        }
      ],
      "stateMutability": "view",
      "type": "function",
      "constant": true
    },
    {
      "inputs": [
        {
          "internalType": "uint256",
          "name": "index",
          "type": "uint256"
        }
      ],
      "name": "getTokenByIndex",
      "outputs": [
        {
          "internalType": "uint256",
          "name": "",
          "type": "uint256"
        }
      ],
      "stateMutability": "view",
      "type": "function",
      "constant": true
    },
    {
      "inputs": [
        {
          "internalType": "uint256",
          "name": "tokenId",
          "type": "uint256"
        }
      ],
      "name": "getCarbonCredit",
      "outputs": [
        {
          "components": [
            {
              "internalType": "uint256",
              "name": "tokenId",
              "type": "uint256"
            },
            {
              "internalType": "address",
              "name": "initialOwner",
              "type": "address"
            },
            {
              "internalType": "enum CarbonBase.ApprovalStatus",
              "name": "status",
              "type": "uint8"
            },
            {
              "internalType": "uint256",
              "name": "pricePerCredit",
              "type": "uint256"
            },
            {
              "internalType": "bool",
              "name": "isListed",
              "type": "bool"
            }
          ],
          "internalType": "struct CarbonBase.CarbonCredit",
          "name": "",
          "type": "tuple"
        }
      ],
      "stateMutability": "view",
      "type": "function",
      "constant": true
    },
    {
      "inputs": [
        {
          "internalType": "uint256",
          "name": "tokenId",
          "type": "uint256"
        },
        {
          "internalType": "address",
          "name": "owner",
          "type": "address"
        },
        {
          "internalType": "enum CarbonBase.ApprovalStatus",
          "name": "status",
          "type": "uint8"
        },
        {
          "internalType": "uint256",
          "name": "pricePerCredit",
          "type": "uint256"
        },
        {
          "internalType": "bool",
          "name": "isListed",
          "type": "bool"
        }
      ],
      "name": "setCarbonCredit",
      "outputs": [],
      "stateMutability": "nonpayable",
      "type": "function"
    },
    {
      "inputs": [
        {
          "internalType": "uint256",
          "name": "tokenId",
          "type": "uint256"
        },
        {
          "internalType": "enum CarbonBase.ApprovalStatus",
          "name": "status",
          "type": "uint8"
        }
      ],
      "name": "updateStatus",
      "outputs": [],
      "stateMutability": "nonpayable",
      "type": "function"
    },
    {
      "inputs": [
        {
          "internalType": "uint256",
          "name": "tokenId",
          "type": "uint256"
        },
        {
          "internalType": "uint256",
          "name": "price",
          "type": "uint256"
        }
      ],
      "name": "updatePrice",
      "outputs": [],
      "stateMutability": "nonpayable",
      "type": "function"
    },
    {
      "inputs": [
        {
          "internalType": "uint256",
          "name": "tokenId",
          "type": "uint256"
        },
        {
          "internalType": "bool",
          "name": "isListed",
          "type": "bool"
        }
      ],
      "name": "updateListed",
      "outputs": [],
      "stateMutability": "nonpayable",
      "type": "function"
    },
    {
      "inputs": [
        {
          "internalType": "address",
          "name": "owner",
          "type": "address"
        }
      ],
      "name": "getOwnedTokensCount",
      "outputs": [
        {
          "internalType": "uint256",
          "name": "",
          "type": "uint256"
        }
      ],
      "stateMutability": "view",
      "type": "function",
      "constant": true
    },
    {
      "inputs": [
        {
          "internalType": "uint256",
          "name": "tokenId",
          "type": "uint256"
        }
      ],
      "name": "getAddTokenToAllTokensEnumeration",
      "outputs": [],
      "stateMutability": "nonpayable",
      "type": "function"
    },
    {
      "inputs": [
        {
          "internalType": "address",
          "name": "owner",
          "type": "address"
        },
        {
          "internalType": "uint256",
          "name": "index",
          "type": "uint256"
        }
      ],
      "name": "getOwnerTokenByIndex",
      "outputs": [
        {
          "internalType": "uint256",
          "name": "",
          "type": "uint256"
        }
      ],
      "stateMutability": "view",
      "type": "function",
      "constant": true
    },
    {
      "inputs": [],
      "name": "getAllCredits",
      "outputs": [
        {
          "components": [
            {
              "internalType": "uint256",
              "name": "tokenId",
              "type": "uint256"
            },
            {
              "internalType": "address",
              "name": "initialOwner",
              "type": "address"
            },
            {
              "internalType": "enum CarbonBase.ApprovalStatus",
              "name": "status",
              "type": "uint8"
            },
            {
              "internalType": "uint256",
              "name": "pricePerCredit",
              "type": "uint256"
            },
            {
              "internalType": "bool",
              "name": "isListed",
              "type": "bool"
            }
          ],
          "internalType": "struct CarbonBase.CarbonCredit[]",
          "name": "",
          "type": "tuple[]"
        }
      ],
      "stateMutability": "view",
      "type": "function",
      "constant": true
    },
    {
      "inputs": [],
      "name": "getOwnedCredits",
      "outputs": [
        {
          "components": [
            {
              "internalType": "uint256",
              "name": "tokenId",
              "type": "uint256"
            },
            {
              "internalType": "address",
              "name": "initialOwner",
              "type": "address"
            },
            {
              "internalType": "enum CarbonBase.ApprovalStatus",
              "name": "status",
              "type": "uint8"
            },
            {
              "internalType": "uint256",
              "name": "pricePerCredit",
              "type": "uint256"
            },
            {
              "internalType": "bool",
              "name": "isListed",
              "type": "bool"
            }
          ],
          "internalType": "struct CarbonBase.CarbonCredit[]",
          "name": "",
          "type": "tuple[]"
        }
      ],
      "stateMutability": "view",
      "type": "function",
      "constant": true
    },
    {
      "inputs": [
        {
          "internalType": "uint256",
          "name": "tokenId",
          "type": "uint256"
        }
      ],
      "name": "getTokenOwners",
      "outputs": [
        {
          "internalType": "address[]",
          "name": "",
          "type": "address[]"
        }
      ],
      "stateMutability": "view",
      "type": "function",
      "constant": true
    },
    {
      "inputs": [
        {
          "internalType": "uint256",
          "name": "tokenId",
          "type": "uint256"
        }
      ],
      "name": "getOwnerCount",
      "outputs": [
        {
          "internalType": "uint256",
          "name": "",
          "type": "uint256"
        }
      ],
      "stateMutability": "view",
      "type": "function",
      "constant": true
    }
  ],
  "bytecode": "0x608060405260405180602001604052806000815250600390805190602001906200002b9291906200016c565b503480156200003957600080fd5b50604051806020016040528060008152506200005b816200008260201b60201c565b506200007c620000706200009e60201b60201c565b620000a660201b60201c565b62000280565b80600290805190602001906200009a9291906200016c565b5050565b600033905090565b6000600560009054906101000a900473ffffffffffffffffffffffffffffffffffffffff16905081600560006101000a81548173ffffffffffffffffffffffffffffffffffffffff021916908373ffffffffffffffffffffffffffffffffffffffff1602179055508173ffffffffffffffffffffffffffffffffffffffff168173ffffffffffffffffffffffffffffffffffffffff167f8be0079c531659141344cd1fd0a4f28419497f9722a3daafe3b4186f6b6457e060405160405180910390a35050565b8280546200017a906200024b565b90600052602060002090601f0160209004810192826200019e5760008555620001ea565b82601f10620001b957805160ff1916838001178555620001ea565b82800160010185558215620001ea579182015b82811115620001e9578251825591602001919060010190620001cc565b5b509050620001f99190620001fd565b5090565b5b8082111562000218576000816000905550600101620001fe565b5090565b7f4e487b7100000000000000000000000000000000000000000000000000000000600052602260045260246000fd5b600060028204905060018216806200026457607f821691505b6020821081036200027a57620002796200021c565b5b50919050565b6154db80620002906000396000f3fe608060405234801561001057600080fd5b50600436106101fa5760003560e01c80636b20c4541161011a578063ab97c4bb116100ad578063eeb2982f1161007c578063eeb2982f146105f5578063f242432a14610611578063f2fde38b1461062d578063f392243b14610649578063f5298aca14610679576101fa565b8063ab97c4bb1461055b578063b795a8811461058b578063e985e9c5146105a7578063ed45aa45146105d7576101fa565b8063862440e2116100e9578063862440e2146104e95780638da5cb5b146105055780639c0ab5ec14610523578063a22cb4651461053f576101fa565b80636b20c4541461048b578063715018a6146104a7578063731133e9146104b157806382367b2d146104cd576101fa565b80632eb2c2d611610192578063644b7a4311610161578063644b7a43146103df578063663680ee1461040f578063681ece9d1461042b5780636ab299751461045b576101fa565b80632eb2c2d6146103475780633a1b3d31146103635780634e1273f41461037f57806364457aad146103af576101fa565b806313f66c9a116101ce57806313f66c9a146102ad57806319b88edb146102dd578063278d17ad1461030d5780632861072e14610329576101fa565b8062fdd58e146101ff57806301ffc9a71461022f5780630b2f67251461025f5780630e89341c1461027d575b600080fd5b61021960048036038101906102149190613735565b610695565b6040516102269190613784565b60405180910390f35b610249600480360381019061024491906137f7565b61075d565b604051610256919061383f565b60405180910390f35b61026761083f565b6040516102749190613784565b60405180910390f35b6102976004803603810190610292919061385a565b61084c565b6040516102a49190613920565b60405180910390f35b6102c760048036038101906102c2919061385a565b61085e565b6040516102d49190613784565b60405180910390f35b6102f760048036038101906102f2919061385a565b61087b565b6040516103049190613784565b60405180910390f35b61032760048036038101906103229190613942565b610898565b005b6103316108b4565b60405161033e9190613b3d565b60405180910390f35b610361600480360381019061035c9190613d5c565b610a4e565b005b61037d60048036038101906103789190613e50565b610aef565b005b61039960048036038101906103949190613f53565b610b31565b6040516103a6919061407a565b60405180910390f35b6103c960048036038101906103c4919061385a565b610c4a565b6040516103d69190613784565b60405180910390f35b6103f960048036038101906103f4919061385a565b610c67565b6040516104069190613784565b60405180910390f35b6104296004803603810190610424919061385a565b610cd8565b005b6104456004803603810190610440919061385a565b610ce4565b604051610452919061414b565b60405180910390f35b6104756004803603810190610470919061416d565b610d85565b6040516104829190613784565b60405180910390f35b6104a560048036038101906104a0919061419a565b610dd1565b005b6104af610e6e565b005b6104cb60048036038101906104c69190614225565b610e82565b005b6104e760048036038101906104e29190613942565b610e94565b005b61050360048036038101906104fe9190614349565b610eb3565b005b61050d610ec1565b60405161051a91906143b4565b60405180910390f35b61053d600480360381019061053891906143fb565b610eeb565b005b6105596004803603810190610554919061443b565b610f1d565b005b61057560048036038101906105709190613735565b610f33565b6040516105829190613784565b60405180910390f35b6105a560048036038101906105a0919061447b565b610f99565b005b6105c160048036038101906105bc91906144f6565b6110b2565b6040516105ce919061383f565b60405180910390f35b6105df611146565b6040516105ec9190613b3d565b60405180910390f35b61060f600480360381019061060a9190613942565b6112e5565b005b61062b60048036038101906106269190614536565b611313565b005b6106476004803603810190610642919061416d565b6113b4565b005b610663600480360381019061065e919061385a565b611437565b6040516106709190614635565b60405180910390f35b610693600480360381019061068e9190614650565b611524565b005b60008073ffffffffffffffffffffffffffffffffffffffff168373ffffffffffffffffffffffffffffffffffffffff1603610705576040517f08c379a00000000000000000000000000000000000000000000000000000000081526004016106fc90614715565b60405180910390fd5b60008083815260200190815260200160002060008473ffffffffffffffffffffffffffffffffffffffff1673ffffffffffffffffffffffffffffffffffffffff16815260200190815260200160002054905092915050565b60007fd9b67a26000000000000000000000000000000000000000000000000000000007bffffffffffffffffffffffffffffffffffffffffffffffffffffffff1916827bffffffffffffffffffffffffffffffffffffffffffffffffffffffff1916148061082857507f0e89341c000000000000000000000000000000000000000000000000000000007bffffffffffffffffffffffffffffffffffffffffffffffffffffffff1916827bffffffffffffffffffffffffffffffffffffffffffffffffffffffff1916145b806108385750610837826115c1565b5b9050919050565b6000600680549050905090565b60606108578261162b565b9050919050565b6000600d6000838152602001908152602001600020549050919050565b600060076000838152602001908152602001600020549050919050565b8060076000848152602001908152602001600020819055505050565b6060600060068054905067ffffffffffffffff8111156108d7576108d6613b64565b5b60405190808252806020026020018201604052801561091057816020015b6108fd613591565b8152602001906001900390816108f55790505b50905060005b600680549050811015610a4657600061092e82610c67565b90506000600b60008381526020019081526020016000209050806040518060a0016040529081600082015481526020016001820160009054906101000a900473ffffffffffffffffffffffffffffffffffffffff1673ffffffffffffffffffffffffffffffffffffffff1673ffffffffffffffffffffffffffffffffffffffff1681526020016001820160149054906101000a900460ff1660028111156109d8576109d76139cc565b5b60028111156109ea576109e96139cc565b5b8152602001600282015481526020016003820160009054906101000a900460ff161515151581525050848481518110610a2657610a25614735565b5b602002602001018190525050508080610a3e90614793565b915050610916565b508091505090565b610a56611710565b73ffffffffffffffffffffffffffffffffffffffff168573ffffffffffffffffffffffffffffffffffffffff161480610a9c5750610a9b85610a96611710565b6110b2565b5b610adb576040517f08c379a0000000000000000000000000000000000000000000000000000000008152600401610ad29061484d565b60405180910390fd5b610ae88585858585611718565b5050505050565b80600b600084815260200190815260200160002060010160146101000a81548160ff02191690836002811115610b2857610b276139cc565b5b02179055505050565b60608151835114610b77576040517f08c379a0000000000000000000000000000000000000000000000000000000008152600401610b6e906148df565b60405180910390fd5b6000835167ffffffffffffffff811115610b9457610b93613b64565b5b604051908082528060200260200182016040528015610bc25781602001602082028036833780820191505090505b50905060005b8451811015610c3f57610c0f858281518110610be757610be6614735565b5b6020026020010151858381518110610c0257610c01614735565b5b6020026020010151610695565b828281518110610c2257610c21614735565b5b60200260200101818152505080610c3890614793565b9050610bc8565b508091505092915050565b6000600e6000838152602001908152602001600020549050919050565b6000610c7161083f565b8210610cb2576040517f08c379a0000000000000000000000000000000000000000000000000000000008152600401610ca99061494b565b60405180910390fd5b60068281548110610cc657610cc5614735565b5b90600052602060002001549050919050565b610ce181611a39565b50565b6060600c6000838152602001908152602001600020805480602002602001604051908101604052809291908181526020018280548015610d7957602002820191906000526020600020905b8160009054906101000a900473ffffffffffffffffffffffffffffffffffffffff1673ffffffffffffffffffffffffffffffffffffffff1681526020019060010190808311610d2f575b50505050509050919050565b6000600960008373ffffffffffffffffffffffffffffffffffffffff1673ffffffffffffffffffffffffffffffffffffffff168152602001908152602001600020805490509050919050565b610dd9611710565b73ffffffffffffffffffffffffffffffffffffffff168373ffffffffffffffffffffffffffffffffffffffff161480610e1f5750610e1e83610e19611710565b6110b2565b5b610e5e576040517f08c379a0000000000000000000000000000000000000000000000000000000008152600401610e559061484d565b60405180910390fd5b610e69838383611a82565b505050565b610e76611d50565b610e806000611dce565b565b610e8e84848484611e94565b50505050565b80600b6000848152602001908152602001600020600201819055505050565b610ebd8282612044565b5050565b6000600560009054906101000a900473ffffffffffffffffffffffffffffffffffffffff16905090565b80600b600084815260200190815260200160002060030160006101000a81548160ff0219169083151502179055505050565b610f2f610f28611710565b83836120b0565b5050565b6000600960008473ffffffffffffffffffffffffffffffffffffffff1673ffffffffffffffffffffffffffffffffffffffff1681526020019081526020016000208281548110610f8657610f85614735565b5b9060005260206000200154905092915050565b6040518060a001604052808681526020018573ffffffffffffffffffffffffffffffffffffffff168152602001846002811115610fd957610fd86139cc565b5b8152602001838152602001821515815250600b60008781526020019081526020016000206000820151816000015560208201518160010160006101000a81548173ffffffffffffffffffffffffffffffffffffffff021916908373ffffffffffffffffffffffffffffffffffffffff16021790555060408201518160010160146101000a81548160ff02191690836002811115611079576110786139cc565b5b02179055506060820151816002015560808201518160030160006101000a81548160ff0219169083151502179055509050505050505050565b6000600160008473ffffffffffffffffffffffffffffffffffffffff1673ffffffffffffffffffffffffffffffffffffffff16815260200190815260200160002060008373ffffffffffffffffffffffffffffffffffffffff1673ffffffffffffffffffffffffffffffffffffffff16815260200190815260200160002060009054906101000a900460ff16905092915050565b6060600061115333610d85565b905060008167ffffffffffffffff81111561117157611170613b64565b5b6040519080825280602002602001820160405280156111aa57816020015b611197613591565b81526020019060019003908161118f5790505b50905060005b828110156112dc5760006111c43383610f33565b90506000600b60008381526020019081526020016000209050806040518060a0016040529081600082015481526020016001820160009054906101000a900473ffffffffffffffffffffffffffffffffffffffff1673ffffffffffffffffffffffffffffffffffffffff1673ffffffffffffffffffffffffffffffffffffffff1681526020016001820160149054906101000a900460ff16600281111561126e5761126d6139cc565b5b60028111156112805761127f6139cc565b5b8152602001600282015481526020016003820160009054906101000a900460ff1615151515815250508484815181106112bc576112bb614735565b5b6020026020010181905250505080806112d490614793565b9150506111b0565b50809250505090565b80600e60008481526020019081526020016000206000828254611308919061496b565b925050819055505050565b61131b611710565b73ffffffffffffffffffffffffffffffffffffffff168573ffffffffffffffffffffffffffffffffffffffff16148061136157506113608561135b611710565b6110b2565b5b6113a0576040517f08c379a00000000000000000000000000000000000000000000000000000000081526004016113979061484d565b60405180910390fd5b6113ad858585858561221c565b5050505050565b6113bc611d50565b600073ffffffffffffffffffffffffffffffffffffffff168173ffffffffffffffffffffffffffffffffffffffff160361142b576040517f08c379a000000000000000000000000000000000000000000000000000000000815260040161142290614a33565b60405180910390fd5b61143481611dce565b50565b61143f613591565b600b60008381526020019081526020016000206040518060a0016040529081600082015481526020016001820160009054906101000a900473ffffffffffffffffffffffffffffffffffffffff1673ffffffffffffffffffffffffffffffffffffffff1673ffffffffffffffffffffffffffffffffffffffff1681526020016001820160149054906101000a900460ff1660028111156114e2576114e16139cc565b5b60028111156114f4576114f36139cc565b5b8152602001600282015481526020016003820160009054906101000a900460ff1615151515815250509050919050565b61152c611710565b73ffffffffffffffffffffffffffffffffffffffff168373ffffffffffffffffffffffffffffffffffffffff16148061157257506115718361156c611710565b6110b2565b5b6115b1576040517f08c379a00000000000000000000000000000000000000000000000000000000081526004016115a89061484d565b60405180910390fd5b6115bc8383836124b7565b505050565b60007f01ffc9a7000000000000000000000000000000000000000000000000000000007bffffffffffffffffffffffffffffffffffffffffffffffffffffffff1916827bffffffffffffffffffffffffffffffffffffffffffffffffffffffff1916149050919050565b6060600060046000848152602001908152602001600020805461164d90614a82565b80601f016020809104026020016040519081016040528092919081815260200182805461167990614a82565b80156116c65780601f1061169b576101008083540402835291602001916116c6565b820191906000526020600020905b8154815290600101906020018083116116a957829003601f168201915b5050505050905060008151116116e4576116df836126fd565b611708565b6003816040516020016116f8929190614b83565b6040516020818303038152906040525b915050919050565b600033905090565b815183511461175c576040517f08c379a000000000000000000000000000000000000000000000000000000000815260040161175390614c19565b60405180910390fd5b600073ffffffffffffffffffffffffffffffffffffffff168473ffffffffffffffffffffffffffffffffffffffff16036117cb576040517f08c379a00000000000000000000000000000000000000000000000000000000081526004016117c290614cab565b60405180910390fd5b60006117d5611710565b90506117e5818787878787612791565b60005b845181101561199657600085828151811061180657611805614735565b5b60200260200101519050600085838151811061182557611824614735565b5b60200260200101519050600080600084815260200190815260200160002060008b73ffffffffffffffffffffffffffffffffffffffff1673ffffffffffffffffffffffffffffffffffffffff168152602001908152602001600020549050818110156118c6576040517f08c379a00000000000000000000000000000000000000000000000000000000081526004016118bd90614d3d565b60405180910390fd5b81810360008085815260200190815260200160002060008c73ffffffffffffffffffffffffffffffffffffffff1673ffffffffffffffffffffffffffffffffffffffff168152602001908152602001600020819055508160008085815260200190815260200160002060008b73ffffffffffffffffffffffffffffffffffffffff1673ffffffffffffffffffffffffffffffffffffffff168152602001908152602001600020600082825461197b919061496b565b925050819055505050508061198f90614793565b90506117e8565b508473ffffffffffffffffffffffffffffffffffffffff168673ffffffffffffffffffffffffffffffffffffffff168273ffffffffffffffffffffffffffffffffffffffff167f4a39dc06d4c0dbc64b70af90fd698a233a518aa5d07e595d983b8c0526c8f7fb8787604051611a0d929190614d5d565b60405180910390a4611a2381878787878761297d565b611a31818787878787612985565b505050505050565b6006805490506008600083815260200190815260200160002081905550600681908060018154018082558091505060019003906000526020600020016000909190919091505550565b600073ffffffffffffffffffffffffffffffffffffffff168373ffffffffffffffffffffffffffffffffffffffff1603611af1576040517f08c379a0000000000000000000000000000000000000000000000000000000008152600401611ae890614e06565b60405180910390fd5b8051825114611b35576040517f08c379a0000000000000000000000000000000000000000000000000000000008152600401611b2c90614c19565b60405180910390fd5b6000611b3f611710565b9050611b5f81856000868660405180602001604052806000815250612791565b60005b8351811015611cac576000848281518110611b8057611b7f614735565b5b602002602001015190506000848381518110611b9f57611b9e614735565b5b60200260200101519050600080600084815260200190815260200160002060008973ffffffffffffffffffffffffffffffffffffffff1673ffffffffffffffffffffffffffffffffffffffff16815260200190815260200160002054905081811015611c40576040517f08c379a0000000000000000000000000000000000000000000000000000000008152600401611c3790614e98565b60405180910390fd5b81810360008085815260200190815260200160002060008a73ffffffffffffffffffffffffffffffffffffffff1673ffffffffffffffffffffffffffffffffffffffff168152602001908152602001600020819055505050508080611ca490614793565b915050611b62565b50600073ffffffffffffffffffffffffffffffffffffffff168473ffffffffffffffffffffffffffffffffffffffff168273ffffffffffffffffffffffffffffffffffffffff167f4a39dc06d4c0dbc64b70af90fd698a233a518aa5d07e595d983b8c0526c8f7fb8686604051611d24929190614d5d565b60405180910390a4611d4a8185600086866040518060200160405280600081525061297d565b50505050565b611d58611710565b73ffffffffffffffffffffffffffffffffffffffff16611d76610ec1565b73ffffffffffffffffffffffffffffffffffffffff1614611dcc576040517f08c379a0000000000000000000000000000000000000000000000000000000008152600401611dc390614f04565b60405180910390fd5b565b6000600560009054906101000a900473ffffffffffffffffffffffffffffffffffffffff16905081600560006101000a81548173ffffffffffffffffffffffffffffffffffffffff021916908373ffffffffffffffffffffffffffffffffffffffff1602179055508173ffffffffffffffffffffffffffffffffffffffff168173ffffffffffffffffffffffffffffffffffffffff167f8be0079c531659141344cd1fd0a4f28419497f9722a3daafe3b4186f6b6457e060405160405180910390a35050565b600073ffffffffffffffffffffffffffffffffffffffff168473ffffffffffffffffffffffffffffffffffffffff1603611f03576040517f08c379a0000000000000000000000000000000000000000000000000000000008152600401611efa90614f96565b60405180910390fd5b6000611f0d611710565b90506000611f1a85612b5c565b90506000611f2785612b5c565b9050611f3883600089858589612791565b8460008088815260200190815260200160002060008973ffffffffffffffffffffffffffffffffffffffff1673ffffffffffffffffffffffffffffffffffffffff1681526020019081526020016000206000828254611f97919061496b565b925050819055508673ffffffffffffffffffffffffffffffffffffffff16600073ffffffffffffffffffffffffffffffffffffffff168473ffffffffffffffffffffffffffffffffffffffff167fc3d58168c5ae7397731d063d5bbf3d657854427343f4c083240f7aacaa2d0f628989604051612015929190614fb6565b60405180910390a461202c8360008985858961297d565b61203b83600089898989612bd6565b50505050505050565b8060046000848152602001908152602001600020908051906020019061206b9291906135ea565b50817f6bb7ff708619ba0610cba295a58592e0451dee2622938c8755667688daf3529b6120978461084c565b6040516120a49190613920565b60405180910390a25050565b8173ffffffffffffffffffffffffffffffffffffffff168373ffffffffffffffffffffffffffffffffffffffff160361211e576040517f08c379a000000000000000000000000000000000000000000000000000000000815260040161211590615051565b60405180910390fd5b80600160008573ffffffffffffffffffffffffffffffffffffffff1673ffffffffffffffffffffffffffffffffffffffff16815260200190815260200160002060008473ffffffffffffffffffffffffffffffffffffffff1673ffffffffffffffffffffffffffffffffffffffff16815260200190815260200160002060006101000a81548160ff0219169083151502179055508173ffffffffffffffffffffffffffffffffffffffff168373ffffffffffffffffffffffffffffffffffffffff167f17307eab39ab6107e8899845ad3d59bd9653f200f220920489ca2b5937696c318360405161220f919061383f565b60405180910390a3505050565b600073ffffffffffffffffffffffffffffffffffffffff168473ffffffffffffffffffffffffffffffffffffffff160361228b576040517f08c379a000000000000000000000000000000000000000000000000000000000815260040161228290614cab565b60405180910390fd5b6000612295611710565b905060006122a285612b5c565b905060006122af85612b5c565b90506122bf838989858589612791565b600080600088815260200190815260200160002060008a73ffffffffffffffffffffffffffffffffffffffff1673ffffffffffffffffffffffffffffffffffffffff16815260200190815260200160002054905085811015612356576040517f08c379a000000000000000000000000000000000000000000000000000000000815260040161234d90614d3d565b60405180910390fd5b85810360008089815260200190815260200160002060008b73ffffffffffffffffffffffffffffffffffffffff1673ffffffffffffffffffffffffffffffffffffffff168152602001908152602001600020819055508560008089815260200190815260200160002060008a73ffffffffffffffffffffffffffffffffffffffff1673ffffffffffffffffffffffffffffffffffffffff168152602001908152602001600020600082825461240b919061496b565b925050819055508773ffffffffffffffffffffffffffffffffffffffff168973ffffffffffffffffffffffffffffffffffffffff168573ffffffffffffffffffffffffffffffffffffffff167fc3d58168c5ae7397731d063d5bbf3d657854427343f4c083240f7aacaa2d0f628a8a604051612488929190614fb6565b60405180910390a461249e848a8a86868a61297d565b6124ac848a8a8a8a8a612bd6565b505050505050505050565b600073ffffffffffffffffffffffffffffffffffffffff168373ffffffffffffffffffffffffffffffffffffffff1603612526576040517f08c379a000000000000000000000000000000000000000000000000000000000815260040161251d90614e06565b60405180910390fd5b6000612530611710565b9050600061253d84612b5c565b9050600061254a84612b5c565b905061256a83876000858560405180602001604052806000815250612791565b600080600087815260200190815260200160002060008873ffffffffffffffffffffffffffffffffffffffff1673ffffffffffffffffffffffffffffffffffffffff16815260200190815260200160002054905084811015612601576040517f08c379a00000000000000000000000000000000000000000000000000000000081526004016125f890614e98565b60405180910390fd5b84810360008088815260200190815260200160002060008973ffffffffffffffffffffffffffffffffffffffff1673ffffffffffffffffffffffffffffffffffffffff16815260200190815260200160002081905550600073ffffffffffffffffffffffffffffffffffffffff168773ffffffffffffffffffffffffffffffffffffffff168573ffffffffffffffffffffffffffffffffffffffff167fc3d58168c5ae7397731d063d5bbf3d657854427343f4c083240f7aacaa2d0f6289896040516126ce929190614fb6565b60405180910390a46126f48488600086866040518060200160405280600081525061297d565b50505050505050565b60606002805461270c90614a82565b80601f016020809104026020016040519081016040528092919081815260200182805461273890614a82565b80156127855780601f1061275a57610100808354040283529160200191612785565b820191906000526020600020905b81548152906001019060200180831161276857829003601f168201915b50505050509050919050565b61279f868686868686612dad565b60005b83518110156129745760008482815181106127c0576127bf614735565b5b60200260200101519050600073ffffffffffffffffffffffffffffffffffffffff168773ffffffffffffffffffffffffffffffffffffffff1614158015612829575083828151811061281557612814614735565b5b60200260200101516128278883610695565b145b15612843576128388782612db5565b612842818861303a565b5b600073ffffffffffffffffffffffffffffffffffffffff168673ffffffffffffffffffffffffffffffffffffffff1614158015612889575060006128878783610695565b145b156128a75761289886826132a0565b6128a2818761331c565b612960565b600073ffffffffffffffffffffffffffffffffffffffff168673ffffffffffffffffffffffffffffffffffffffff160361295f578382815181106128ee576128ed614735565b5b60200260200101516007600083815260200190815260200160002060008282546129189190615071565b92505081905550600060076000838152602001908152602001600020540361295e5761295d8583815181106129505761294f614735565b5b60200260200101516133cc565b5b5b5b50808061296c90614793565b9150506127a2565b50505050505050565b505050505050565b6129a48473ffffffffffffffffffffffffffffffffffffffff1661349d565b15612b54578373ffffffffffffffffffffffffffffffffffffffff1663bc197c8187878686866040518663ffffffff1660e01b81526004016129ea9594939291906150fa565b6020604051808303816000875af1925050508015612a2657506040513d601f19601f82011682018060405250810190612a239190615177565b60015b612acb57612a326151b1565b806308c379a003612a8e5750612a466151d3565b80612a515750612a90565b806040517f08c379a0000000000000000000000000000000000000000000000000000000008152600401612a859190613920565b60405180910390fd5b505b6040517f08c379a0000000000000000000000000000000000000000000000000000000008152600401612ac2906152d5565b60405180910390fd5b63bc197c8160e01b7bffffffffffffffffffffffffffffffffffffffffffffffffffffffff1916817bffffffffffffffffffffffffffffffffffffffffffffffffffffffff191614612b52576040517f08c379a0000000000000000000000000000000000000000000000000000000008152600401612b4990615367565b60405180910390fd5b505b505050505050565b60606000600167ffffffffffffffff811115612b7b57612b7a613b64565b5b604051908082528060200260200182016040528015612ba95781602001602082028036833780820191505090505b5090508281600081518110612bc157612bc0614735565b5b60200260200101818152505080915050919050565b612bf58473ffffffffffffffffffffffffffffffffffffffff1661349d565b15612da5578373ffffffffffffffffffffffffffffffffffffffff1663f23a6e6187878686866040518663ffffffff1660e01b8152600401612c3b959493929190615387565b6020604051808303816000875af1925050508015612c7757506040513d601f19601f82011682018060405250810190612c749190615177565b60015b612d1c57612c836151b1565b806308c379a003612cdf5750612c976151d3565b80612ca25750612ce1565b806040517f08c379a0000000000000000000000000000000000000000000000000000000008152600401612cd69190613920565b60405180910390fd5b505b6040517f08c379a0000000000000000000000000000000000000000000000000000000008152600401612d13906152d5565b60405180910390fd5b63f23a6e6160e01b7bffffffffffffffffffffffffffffffffffffffffffffffffffffffff1916817bffffffffffffffffffffffffffffffffffffffffffffffffffffffff191614612da3576040517f08c379a0000000000000000000000000000000000000000000000000000000008152600401612d9a90615367565b60405180910390fd5b505b505050505050565b505050505050565b60006001600960008573ffffffffffffffffffffffffffffffffffffffff1673ffffffffffffffffffffffffffffffffffffffff16815260200190815260200160002080549050612e069190615071565b90506000600a60008573ffffffffffffffffffffffffffffffffffffffff1673ffffffffffffffffffffffffffffffffffffffff1681526020019081526020016000206000848152602001908152602001600020549050818114612f7b576000600960008673ffffffffffffffffffffffffffffffffffffffff1673ffffffffffffffffffffffffffffffffffffffff1681526020019081526020016000208381548110612eb757612eb6614735565b5b9060005260206000200154905080600960008773ffffffffffffffffffffffffffffffffffffffff1673ffffffffffffffffffffffffffffffffffffffff1681526020019081526020016000208381548110612f1657612f15614735565b5b906000526020600020018190555081600a60008773ffffffffffffffffffffffffffffffffffffffff1673ffffffffffffffffffffffffffffffffffffffff168152602001908152602001600020600083815260200190815260200160002081905550505b600960008573ffffffffffffffffffffffffffffffffffffffff1673ffffffffffffffffffffffffffffffffffffffff168152602001908152602001600020805480612fca57612fc96153e1565b5b60019003818190600052602060002001600090559055600a60008573ffffffffffffffffffffffffffffffffffffffff1673ffffffffffffffffffffffffffffffffffffffff16815260200190815260200160002060008481526020019081526020016000206000905550505050565b6000600d60008481526020019081526020016000205411613090576040517f08c379a00000000000000000000000000000000000000000000000000000000081526004016130879061545c565b60405180910390fd5b6000600c600084815260200190815260200160002080549050905060005b8181101561329a578273ffffffffffffffffffffffffffffffffffffffff16600c600086815260200190815260200160002082815481106130f2576130f1614735565b5b9060005260206000200160009054906101000a900473ffffffffffffffffffffffffffffffffffffffff1673ffffffffffffffffffffffffffffffffffffffff160361328757600c60008581526020019081526020016000206001836131589190615071565b8154811061316957613168614735565b5b9060005260206000200160009054906101000a900473ffffffffffffffffffffffffffffffffffffffff16600c600086815260200190815260200160002082815481106131b9576131b8614735565b5b9060005260206000200160006101000a81548173ffffffffffffffffffffffffffffffffffffffff021916908373ffffffffffffffffffffffffffffffffffffffff160217905550600c6000858152602001908152602001600020805480613224576132236153e1565b5b6001900381819060005260206000200160006101000a81549073ffffffffffffffffffffffffffffffffffffffff02191690559055600d6000858152602001908152602001600020600081548092919061327d9061547c565b919050555061329a565b808061329290614793565b9150506130ae565b50505050565b60006132ac8383610695565b0361331857600960008373ffffffffffffffffffffffffffffffffffffffff1673ffffffffffffffffffffffffffffffffffffffff1681526020019081526020016000208190806001815401808255809150506001900390600052602060002001600090919091909150555b5050565b61332682826134c0565b6133c857600c6000838152602001908152602001600020819080600181540180825580915050600190039060005260206000200160009091909190916101000a81548173ffffffffffffffffffffffffffffffffffffffff021916908373ffffffffffffffffffffffffffffffffffffffff160217905550600d600083815260200190815260200160002060008154809291906133c290614793565b91905055505b5050565b600060016006805490506133e09190615071565b90506000600860008481526020019081526020016000205490506000600683815481106134105761340f614735565b5b90600052602060002001549050806006838154811061343257613431614735565b5b9060005260206000200181905550816008600083815260200190815260200160002081905550600680548061346a576134696153e1565b5b60019003818190600052602060002001600090559055600860008581526020019081526020016000206000905550505050565b6000808273ffffffffffffffffffffffffffffffffffffffff163b119050919050565b600080600090505b600c600085815260200190815260200160002080549050811015613585578273ffffffffffffffffffffffffffffffffffffffff16600c6000868152602001908152602001600020828154811061352257613521614735565b5b9060005260206000200160009054906101000a900473ffffffffffffffffffffffffffffffffffffffff1673ffffffffffffffffffffffffffffffffffffffff160361357257600191505061358b565b808061357d90614793565b9150506134c8565b50600090505b92915050565b6040518060a0016040528060008152602001600073ffffffffffffffffffffffffffffffffffffffff168152602001600060028111156135d4576135d36139cc565b5b8152602001600081526020016000151581525090565b8280546135f690614a82565b90600052602060002090601f016020900481019282613618576000855561365f565b82601f1061363157805160ff191683800117855561365f565b8280016001018555821561365f579182015b8281111561365e578251825591602001919060010190613643565b5b50905061366c9190613670565b5090565b5b80821115613689576000816000905550600101613671565b5090565b6000604051905090565b600080fd5b600080fd5b600073ffffffffffffffffffffffffffffffffffffffff82169050919050565b60006136cc826136a1565b9050919050565b6136dc816136c1565b81146136e757600080fd5b50565b6000813590506136f9816136d3565b92915050565b6000819050919050565b613712816136ff565b811461371d57600080fd5b50565b60008135905061372f81613709565b92915050565b6000806040838503121561374c5761374b613697565b5b600061375a858286016136ea565b925050602061376b85828601613720565b9150509250929050565b61377e816136ff565b82525050565b60006020820190506137996000830184613775565b92915050565b60007fffffffff0000000000000000000000000000000000000000000000000000000082169050919050565b6137d48161379f565b81146137df57600080fd5b50565b6000813590506137f1816137cb565b92915050565b60006020828403121561380d5761380c613697565b5b600061381b848285016137e2565b91505092915050565b60008115159050919050565b61383981613824565b82525050565b60006020820190506138546000830184613830565b92915050565b6000602082840312156138705761386f613697565b5b600061387e84828501613720565b91505092915050565b600081519050919050565b600082825260208201905092915050565b60005b838110156138c15780820151818401526020810190506138a6565b838111156138d0576000848401525b50505050565b6000601f19601f8301169050919050565b60006138f282613887565b6138fc8185613892565b935061390c8185602086016138a3565b613915816138d6565b840191505092915050565b6000602082019050818103600083015261393a81846138e7565b905092915050565b6000806040838503121561395957613958613697565b5b600061396785828601613720565b925050602061397885828601613720565b9150509250929050565b600081519050919050565b600082825260208201905092915050565b6000819050602082019050919050565b6139b7816136ff565b82525050565b6139c6816136c1565b82525050565b7f4e487b7100000000000000000000000000000000000000000000000000000000600052602160045260246000fd5b60038110613a0c57613a0b6139cc565b5b50565b6000819050613a1d826139fb565b919050565b6000613a2d82613a0f565b9050919050565b613a3d81613a22565b82525050565b613a4c81613824565b82525050565b60a082016000820151613a6860008501826139ae565b506020820151613a7b60208501826139bd565b506040820151613a8e6040850182613a34565b506060820151613aa160608501826139ae565b506080820151613ab46080850182613a43565b50505050565b6000613ac68383613a52565b60a08301905092915050565b6000602082019050919050565b6000613aea82613982565b613af4818561398d565b9350613aff8361399e565b8060005b83811015613b30578151613b178882613aba565b9750613b2283613ad2565b925050600181019050613b03565b5085935050505092915050565b60006020820190508181036000830152613b578184613adf565b905092915050565b600080fd5b7f4e487b7100000000000000000000000000000000000000000000000000000000600052604160045260246000fd5b613b9c826138d6565b810181811067ffffffffffffffff82111715613bbb57613bba613b64565b5b80604052505050565b6000613bce61368d565b9050613bda8282613b93565b919050565b600067ffffffffffffffff821115613bfa57613bf9613b64565b5b602082029050602081019050919050565b600080fd5b6000613c23613c1e84613bdf565b613bc4565b90508083825260208201905060208402830185811115613c4657613c45613c0b565b5b835b81811015613c6f5780613c5b8882613720565b845260208401935050602081019050613c48565b5050509392505050565b600082601f830112613c8e57613c8d613b5f565b5b8135613c9e848260208601613c10565b91505092915050565b600080fd5b600067ffffffffffffffff821115613cc757613cc6613b64565b5b613cd0826138d6565b9050602081019050919050565b82818337600083830152505050565b6000613cff613cfa84613cac565b613bc4565b905082815260208101848484011115613d1b57613d1a613ca7565b5b613d26848285613cdd565b509392505050565b600082601f830112613d4357613d42613b5f565b5b8135613d53848260208601613cec565b91505092915050565b600080600080600060a08688031215613d7857613d77613697565b5b6000613d86888289016136ea565b9550506020613d97888289016136ea565b945050604086013567ffffffffffffffff811115613db857613db761369c565b5b613dc488828901613c79565b935050606086013567ffffffffffffffff811115613de557613de461369c565b5b613df188828901613c79565b925050608086013567ffffffffffffffff811115613e1257613e1161369c565b5b613e1e88828901613d2e565b9150509295509295909350565b60038110613e3857600080fd5b50565b600081359050613e4a81613e2b565b92915050565b60008060408385031215613e6757613e66613697565b5b6000613e7585828601613720565b9250506020613e8685828601613e3b565b9150509250929050565b600067ffffffffffffffff821115613eab57613eaa613b64565b5b602082029050602081019050919050565b6000613ecf613eca84613e90565b613bc4565b90508083825260208201905060208402830185811115613ef257613ef1613c0b565b5b835b81811015613f1b5780613f0788826136ea565b845260208401935050602081019050613ef4565b5050509392505050565b600082601f830112613f3a57613f39613b5f565b5b8135613f4a848260208601613ebc565b91505092915050565b60008060408385031215613f6a57613f69613697565b5b600083013567ffffffffffffffff811115613f8857613f8761369c565b5b613f9485828601613f25565b925050602083013567ffffffffffffffff811115613fb557613fb461369c565b5b613fc185828601613c79565b9150509250929050565b600081519050919050565b600082825260208201905092915050565b6000819050602082019050919050565b600061400383836139ae565b60208301905092915050565b6000602082019050919050565b600061402782613fcb565b6140318185613fd6565b935061403c83613fe7565b8060005b8381101561406d5781516140548882613ff7565b975061405f8361400f565b925050600181019050614040565b5085935050505092915050565b60006020820190508181036000830152614094818461401c565b905092915050565b600081519050919050565b600082825260208201905092915050565b6000819050602082019050919050565b60006140d483836139bd565b60208301905092915050565b6000602082019050919050565b60006140f88261409c565b61410281856140a7565b935061410d836140b8565b8060005b8381101561413e57815161412588826140c8565b9750614130836140e0565b925050600181019050614111565b5085935050505092915050565b6000602082019050818103600083015261416581846140ed565b905092915050565b60006020828403121561418357614182613697565b5b6000614191848285016136ea565b91505092915050565b6000806000606084860312156141b3576141b2613697565b5b60006141c1868287016136ea565b935050602084013567ffffffffffffffff8111156141e2576141e161369c565b5b6141ee86828701613c79565b925050604084013567ffffffffffffffff81111561420f5761420e61369c565b5b61421b86828701613c79565b9150509250925092565b6000806000806080858703121561423f5761423e613697565b5b600061424d878288016136ea565b945050602061425e87828801613720565b935050604061426f87828801613720565b925050606085013567ffffffffffffffff8111156142905761428f61369c565b5b61429c87828801613d2e565b91505092959194509250565b600067ffffffffffffffff8211156142c3576142c2613b64565b5b6142cc826138d6565b9050602081019050919050565b60006142ec6142e7846142a8565b613bc4565b90508281526020810184848401111561430857614307613ca7565b5b614313848285613cdd565b509392505050565b600082601f8301126143305761432f613b5f565b5b81356143408482602086016142d9565b91505092915050565b600080604083850312156143605761435f613697565b5b600061436e85828601613720565b925050602083013567ffffffffffffffff81111561438f5761438e61369c565b5b61439b8582860161431b565b9150509250929050565b6143ae816136c1565b82525050565b60006020820190506143c960008301846143a5565b92915050565b6143d881613824565b81146143e357600080fd5b50565b6000813590506143f5816143cf565b92915050565b6000806040838503121561441257614411613697565b5b600061442085828601613720565b9250506020614431858286016143e6565b9150509250929050565b6000806040838503121561445257614451613697565b5b6000614460858286016136ea565b9250506020614471858286016143e6565b9150509250929050565b600080600080600060a0868803121561449757614496613697565b5b60006144a588828901613720565b95505060206144b6888289016136ea565b94505060406144c788828901613e3b565b93505060606144d888828901613720565b92505060806144e9888289016143e6565b9150509295509295909350565b6000806040838503121561450d5761450c613697565b5b600061451b858286016136ea565b925050602061452c858286016136ea565b9150509250929050565b600080600080600060a0868803121561455257614551613697565b5b6000614560888289016136ea565b9550506020614571888289016136ea565b945050604061458288828901613720565b935050606061459388828901613720565b925050608086013567ffffffffffffffff8111156145b4576145b361369c565b5b6145c088828901613d2e565b9150509295509295909350565b60a0820160008201516145e360008501826139ae565b5060208201516145f660208501826139bd565b5060408201516146096040850182613a34565b50606082015161461c60608501826139ae565b50608082015161462f6080850182613a43565b50505050565b600060a08201905061464a60008301846145cd565b92915050565b60008060006060848603121561466957614668613697565b5b6000614677868287016136ea565b935050602061468886828701613720565b925050604061469986828701613720565b9150509250925092565b7f455243313135353a2061646472657373207a65726f206973206e6f742061207660008201527f616c6964206f776e657200000000000000000000000000000000000000000000602082015250565b60006146ff602a83613892565b915061470a826146a3565b604082019050919050565b6000602082019050818103600083015261472e816146f2565b9050919050565b7f4e487b7100000000000000000000000000000000000000000000000000000000600052603260045260246000fd5b7f4e487b7100000000000000000000000000000000000000000000000000000000600052601160045260246000fd5b600061479e826136ff565b91507fffffffffffffffffffffffffffffffffffffffffffffffffffffffffffffffff82036147d0576147cf614764565b5b600182019050919050565b7f455243313135353a2063616c6c6572206973206e6f7420746f6b656e206f776e60008201527f6572206f7220617070726f766564000000000000000000000000000000000000602082015250565b6000614837602e83613892565b9150614842826147db565b604082019050919050565b600060208201905081810360008301526148668161482a565b9050919050565b7f455243313135353a206163636f756e747320616e6420696473206c656e67746860008201527f206d69736d617463680000000000000000000000000000000000000000000000602082015250565b60006148c9602983613892565b91506148d48261486d565b604082019050919050565b600060208201905081810360008301526148f8816148bc565b9050919050565b7f496e646578206f7574206f6620626f756e64732e000000000000000000000000600082015250565b6000614935601483613892565b9150614940826148ff565b602082019050919050565b6000602082019050818103600083015261496481614928565b9050919050565b6000614976826136ff565b9150614981836136ff565b9250827fffffffffffffffffffffffffffffffffffffffffffffffffffffffffffffffff038211156149b6576149b5614764565b5b828201905092915050565b7f4f776e61626c653a206e6577206f776e657220697320746865207a65726f206160008201527f6464726573730000000000000000000000000000000000000000000000000000602082015250565b6000614a1d602683613892565b9150614a28826149c1565b604082019050919050565b60006020820190508181036000830152614a4c81614a10565b9050919050565b7f4e487b7100000000000000000000000000000000000000000000000000000000600052602260045260246000fd5b60006002820490506001821680614a9a57607f821691505b602082108103614aad57614aac614a53565b5b50919050565b600081905092915050565b60008190508160005260206000209050919050565b60008154614ae081614a82565b614aea8186614ab3565b94506001821660008114614b055760018114614b1657614b49565b60ff19831686528186019350614b49565b614b1f85614abe565b60005b83811015614b4157815481890152600182019150602081019050614b22565b838801955050505b50505092915050565b6000614b5d82613887565b614b678185614ab3565b9350614b778185602086016138a3565b80840191505092915050565b6000614b8f8285614ad3565b9150614b9b8284614b52565b91508190509392505050565b7f455243313135353a2069647320616e6420616d6f756e7473206c656e6774682060008201527f6d69736d61746368000000000000000000000000000000000000000000000000602082015250565b6000614c03602883613892565b9150614c0e82614ba7565b604082019050919050565b60006020820190508181036000830152614c3281614bf6565b9050919050565b7f455243313135353a207472616e7366657220746f20746865207a65726f20616460008201527f6472657373000000000000000000000000000000000000000000000000000000602082015250565b6000614c95602583613892565b9150614ca082614c39565b604082019050919050565b60006020820190508181036000830152614cc481614c88565b9050919050565b7f455243313135353a20696e73756666696369656e742062616c616e636520666f60008201527f72207472616e7366657200000000000000000000000000000000000000000000602082015250565b6000614d27602a83613892565b9150614d3282614ccb565b604082019050919050565b60006020820190508181036000830152614d5681614d1a565b9050919050565b60006040820190508181036000830152614d77818561401c565b90508181036020830152614d8b818461401c565b90509392505050565b7f455243313135353a206275726e2066726f6d20746865207a65726f206164647260008201527f6573730000000000000000000000000000000000000000000000000000000000602082015250565b6000614df0602383613892565b9150614dfb82614d94565b604082019050919050565b60006020820190508181036000830152614e1f81614de3565b9050919050565b7f455243313135353a206275726e20616d6f756e7420657863656564732062616c60008201527f616e636500000000000000000000000000000000000000000000000000000000602082015250565b6000614e82602483613892565b9150614e8d82614e26565b604082019050919050565b60006020820190508181036000830152614eb181614e75565b9050919050565b7f4f776e61626c653a2063616c6c6572206973206e6f7420746865206f776e6572600082015250565b6000614eee602083613892565b9150614ef982614eb8565b602082019050919050565b60006020820190508181036000830152614f1d81614ee1565b9050919050565b7f455243313135353a206d696e7420746f20746865207a65726f2061646472657360008201527f7300000000000000000000000000000000000000000000000000000000000000602082015250565b6000614f80602183613892565b9150614f8b82614f24565b604082019050919050565b60006020820190508181036000830152614faf81614f73565b9050919050565b6000604082019050614fcb6000830185613775565b614fd86020830184613775565b9392505050565b7f455243313135353a2073657474696e6720617070726f76616c2073746174757360008201527f20666f722073656c660000000000000000000000000000000000000000000000602082015250565b600061503b602983613892565b915061504682614fdf565b604082019050919050565b6000602082019050818103600083015261506a8161502e565b9050919050565b600061507c826136ff565b9150615087836136ff565b92508282101561509a57615099614764565b5b828203905092915050565b600081519050919050565b600082825260208201905092915050565b60006150cc826150a5565b6150d681856150b0565b93506150e68185602086016138a3565b6150ef816138d6565b840191505092915050565b600060a08201905061510f60008301886143a5565b61511c60208301876143a5565b818103604083015261512e818661401c565b90508181036060830152615142818561401c565b9050818103608083015261515681846150c1565b90509695505050505050565b600081519050615171816137cb565b92915050565b60006020828403121561518d5761518c613697565b5b600061519b84828501615162565b91505092915050565b60008160e01c9050919050565b600060033d11156151d05760046000803e6151cd6000516151a4565b90505b90565b600060443d10615260576151e561368d565b60043d036004823e80513d602482011167ffffffffffffffff8211171561520d575050615260565b808201805167ffffffffffffffff81111561522b5750505050615260565b80602083010160043d038501811115615248575050505050615260565b61525782602001850186613b93565b82955050505050505b90565b7f455243313135353a207472616e7366657220746f206e6f6e2d4552433131353560008201527f526563656976657220696d706c656d656e746572000000000000000000000000602082015250565b60006152bf603483613892565b91506152ca82615263565b604082019050919050565b600060208201905081810360008301526152ee816152b2565b9050919050565b7f455243313135353a204552433131353552656365697665722072656a6563746560008201527f6420746f6b656e73000000000000000000000000000000000000000000000000602082015250565b6000615351602883613892565b915061535c826152f5565b604082019050919050565b6000602082019050818103600083015261538081615344565b9050919050565b600060a08201905061539c60008301886143a5565b6153a960208301876143a5565b6153b66040830186613775565b6153c36060830185613775565b81810360808301526153d581846150c1565b90509695505050505050565b7f4e487b7100000000000000000000000000000000000000000000000000000000600052603160045260246000fd5b7f4e6f206f776e65727320746f2072656d6f76652e000000000000000000000000600082015250565b6000615446601483613892565b915061545182615410565b602082019050919050565b6000602082019050818103600083015261547581615439565b9050919050565b6000615487826136ff565b91506000820361549a57615499614764565b5b60018203905091905056fea2646970667358221220e3437b81eccf56c7b9d0eed549b0d66c37c9c47fe151157470d50ab887a5599264736f6c634300080d0033",
  "immutableReferences": {},
  "source": "// SPDX-License-Identifier: MIT\npragma solidity ^0.8.13;\n\nimport \"@openzeppelin/contracts/token/ERC1155/extensions/ERC1155URIStorage.sol\";\nimport \"@openzeppelin/contracts/token/ERC1155/extensions/ERC1155Burnable.sol\";\nimport \"@openzeppelin/contracts/utils/Strings.sol\";\nimport \"./CarbonBase.sol\";\n\ncontract CarbonToken is CarbonBase {\n    uint256[] private _allTokenIds; // array of all token IDs\n    // uint256 public tokenIds;\n    // mapping(uint256 => CarbonCredit) public _idToCarbonCredit;\n    mapping(uint256 => uint256) private _idToTokenSupply; // mapping of token ID => total supply of token\n    mapping(uint256 => uint256) private _idToTokensIndex; // mapping of token ID => index of token in all tokens array\n    mapping(address => uint256[]) private _ownerToTokenIds; // mapping of owner => list of token IDs\n    mapping(address => mapping(uint256 => uint256)) private _ownedTokensIndex; // Mapping from token ID to index in the above array\n    mapping(uint256 => CarbonCredit) private _idToCarbonCredit;\n    mapping(uint256 => address[]) private _tokenOwners;\n    mapping(uint256 => uint256) private _ownerCount;\n    mapping(uint256 => uint256) private _tokenSold;\n\n    function mint(\n        address account,\n        uint256 id,\n        uint256 amount,\n        bytes memory data\n    ) public {\n        _mint(account, id, amount, data);\n    }\n\n    function setURI(uint256 tokenId, string memory newURI) public {\n        _setURI(tokenId, newURI);\n    }\n\n    function setTokenSupply(uint256 tokenId, uint256 supply) public {\n        _idToTokenSupply[tokenId] = supply;\n    }\n\n    function getTokenSupply(uint256 tokenId) public view returns (uint256) {\n        return _idToTokenSupply[tokenId];\n    }\n\n    function getTokenSold(uint256 tokenId) public view returns (uint256) {\n        return _tokenSold[tokenId];\n    }\n\n    function updateTokenSold(uint256 tokenId, uint256 amount) public {\n        _tokenSold[tokenId] += amount;\n    }\n\n    function getTotalTokensCount() public view returns (uint256) {\n        // returns the total number of credits\n        return _allTokenIds.length;\n    }\n\n    function getTokenByIndex(uint256 index) public view returns (uint256) {\n        require(index < getTotalTokensCount(), \"Index out of bounds.\");\n        return _allTokenIds[index];\n    }\n\n    function getCarbonCredit(\n        uint256 tokenId\n    ) public view returns (CarbonCredit memory) {\n        return _idToCarbonCredit[tokenId];\n    }\n\n    function setCarbonCredit(\n        uint256 tokenId,\n        address owner,\n        ApprovalStatus status,\n        uint256 pricePerCredit,\n        bool isListed\n    ) public {\n        _idToCarbonCredit[tokenId] = CarbonCredit(\n            tokenId,\n            owner,\n            status,\n            pricePerCredit,\n            isListed\n        );\n    }\n\n    function updateStatus(uint256 tokenId, ApprovalStatus status) public {\n        _idToCarbonCredit[tokenId].status = status;\n    }\n\n    function updatePrice(uint256 tokenId, uint256 price) public {\n        _idToCarbonCredit[tokenId].pricePerCredit = price;\n    }\n\n    function updateListed(uint256 tokenId, bool isListed) public {\n        _idToCarbonCredit[tokenId].isListed = isListed;\n    }\n\n    function getOwnedTokensCount(address owner) public view returns (uint256) {\n        return _ownerToTokenIds[owner].length;\n    }\n\n    function getAddTokenToAllTokensEnumeration(uint256 tokenId) public {\n        _addTokenToAllTokensEnumeration(tokenId);\n    }\n\n    function getOwnerTokenByIndex(\n        address owner,\n        uint256 index\n    ) public view returns (uint256) {\n        // require(\n        //     index < balanceOf(owner, getTokenByIndex(index)),\n        //     \"Index out of bounds.\"\n        // );\n        return _ownerToTokenIds[owner][index];\n    }\n\n    function getAllCredits() public view returns (CarbonCredit[] memory) {\n        CarbonCredit[] memory credits = new CarbonCredit[](_allTokenIds.length);\n        for (uint i = 0; i < _allTokenIds.length; i++) {\n            uint tokenId = getTokenByIndex(i);\n            CarbonCredit storage credit = _idToCarbonCredit[tokenId];\n            credits[i] = credit;\n        }\n        return credits;\n    }\n\n    function getOwnedCredits() public view returns (CarbonCredit[] memory) {\n        uint256 ownedCreditsCount = getOwnedTokensCount(msg.sender);\n        CarbonCredit[] memory credits = new CarbonCredit[](ownedCreditsCount);\n\n        for (uint i = 0; i < ownedCreditsCount; i++) {\n            uint tokenId = getOwnerTokenByIndex(msg.sender, i);\n            CarbonCredit storage credit = _idToCarbonCredit[tokenId];\n            credits[i] = credit;\n        }\n        return credits;\n    }\n\n    function getTokenOwners(\n        uint256 tokenId\n    ) public view returns (address[] memory) {\n        return _tokenOwners[tokenId];\n    }\n\n    function getOwnerCount(uint256 tokenId) public view returns (uint256) {\n        return _ownerCount[tokenId];\n    }\n\n    function _beforeTokenTransfer(\n        address operator,\n        address from,\n        address to,\n        uint256[] memory ids,\n        uint256[] memory amounts,\n        bytes memory data\n    ) internal override {\n        super._beforeTokenTransfer(operator, from, to, ids, amounts, data);\n\n        for (uint256 i = 0; i < ids.length; i++) {\n            uint256 tokenId = ids[i];\n            // if (from == address(0)) {\n            //     // This implies the token is being minted\n            //     _addTokenToAllTokensEnumeration(tokenId);\n            //     _idToTokenSupply[tokenId] = amounts[i];\n            // }\n            if (from != address(0) && balanceOf(from, tokenId) == amounts[i]) {\n                // checking before transfer\n                // This implies the sender is transferring all their units of this token type\n                _removeTokenFromOwnerEnumeration(from, tokenId);\n                _removeTokenOwner(tokenId, from);\n            }\n            if (to != address(0) && balanceOf(to, tokenId) == 0) {\n                // identify the first time tokens are transferred to a new holder.\n                // This implies the recipient did not previously own any units of this token type\n                _addTokenToOwnerEnumeration(to, tokenId);\n                _addTokenOwner(tokenId, to);\n            } else if (to == address(0)) {\n                // checking before burn\n                _idToTokenSupply[tokenId] -= amounts[i];\n                if (_idToTokenSupply[tokenId] == 0) {\n                    // This implies the recipient is burning all units of a token are burned\n                    _removeTokenFromAllTokensEnumeration(ids[i]);\n                }\n            }\n        }\n    }\n\n    function _removeTokenOwner(uint256 tokenId, address owner) private {\n        require(_ownerCount[tokenId] > 0, \"No owners to remove.\");\n        uint256 length = _tokenOwners[tokenId].length;\n        for (uint256 i = 0; i < length; i++) {\n            if (_tokenOwners[tokenId][i] == owner) {\n                _tokenOwners[tokenId][i] = _tokenOwners[tokenId][length - 1];\n                _tokenOwners[tokenId].pop();\n                _ownerCount[tokenId]--;\n                break;\n            }\n        }\n    }\n\n    function _isOwner(\n        uint256 tokenId,\n        address owner\n    ) private view returns (bool) {\n        for (uint256 i = 0; i < _tokenOwners[tokenId].length; i++) {\n            if (_tokenOwners[tokenId][i] == owner) {\n                return true;\n            }\n        }\n        return false;\n    }\n\n    function _addTokenOwner(uint256 tokenId, address owner) private {\n        if (!_isOwner(tokenId, owner)) {\n            _tokenOwners[tokenId].push(owner);\n            _ownerCount[tokenId]++;\n        }\n    }\n\n    function _addTokenToAllTokensEnumeration(uint256 tokenId) private {\n        _idToTokensIndex[tokenId] = _allTokenIds.length;\n        _allTokenIds.push(tokenId);\n    }\n\n    function _addTokenToOwnerEnumeration(address to, uint256 tokenId) private {\n        if (balanceOf(to, tokenId) == 0) {\n            // Token ID is new to this owner\n            _ownerToTokenIds[to].push(tokenId);\n        }\n    }\n\n    function _removeTokenFromOwnerEnumeration(\n        address owner,\n        uint256 tokenId\n    ) private {\n        // First, we need to find the index of this token ID in the owner's list of token IDs\n        uint256 lastTokenIndex = _ownerToTokenIds[owner].length - 1;\n        uint256 tokenIndex = _ownedTokensIndex[owner][tokenId];\n\n        // If the token being removed is not the last token in the list,\n        // swap the last token with the token to be removed.\n        if (tokenIndex != lastTokenIndex) {\n            uint256 lastTokenId = _ownerToTokenIds[owner][lastTokenIndex];\n\n            _ownerToTokenIds[owner][tokenIndex] = lastTokenId; // Move the last token to the slot of the to-be-removed token\n            _ownedTokensIndex[owner][lastTokenId] = tokenIndex; // Update the moved token's index\n        }\n\n        // Remove the last token's data (since it's now either removed or moved)\n        _ownerToTokenIds[owner].pop();\n        delete _ownedTokensIndex[owner][tokenId]; // Remove the deleted token's index\n    }\n\n    function _removeTokenFromAllTokensEnumeration(uint256 tokenId) private {\n        uint256 lastTokenIndex = _allTokenIds.length - 1;\n        uint256 tokenIndex = _idToTokensIndex[tokenId];\n        uint256 lastTokenId = _allTokenIds[lastTokenIndex];\n\n        _allTokenIds[tokenIndex] = lastTokenId; // Move the last token to the slot of the to-be-removed token\n        _idToTokensIndex[lastTokenId] = tokenIndex; // Update the moved token's index\n\n        // Remove the last token's data (since it's now either removed or moved)\n        _allTokenIds.pop();\n        delete _idToTokensIndex[tokenId]; // Remove the deleted token's index\n    }\n}\n",
  "sourcePath": "/Users/buudinhha/Vscode/DATN/main/contracts/CarbonToken.sol",
  "compiler": {
    "name": "solc",
    "version": "0.8.13+commit.abaa5c0e.Emscripten.clang"
  },
  "schemaVersion": "3.4.16",
  "updatedAt": "2024-05-30T16:59:47.503Z",
  "networkType": "ethereum",
  "devdoc": {
    "kind": "dev",
    "methods": {
      "balanceOf(address,uint256)": {
        "details": "See {IERC1155-balanceOf}. Requirements: - `account` cannot be the zero address."
      },
      "balanceOfBatch(address[],uint256[])": {
        "details": "See {IERC1155-balanceOfBatch}. Requirements: - `accounts` and `ids` must have the same length."
      },
      "isApprovedForAll(address,address)": {
        "details": "See {IERC1155-isApprovedForAll}."
      },
      "owner()": {
        "details": "Returns the address of the current owner."
      },
      "renounceOwnership()": {
        "details": "Leaves the contract without owner. It will not be possible to call `onlyOwner` functions. Can only be called by the current owner. NOTE: Renouncing ownership will leave the contract without an owner, thereby disabling any functionality that is only available to the owner."
      },
      "safeBatchTransferFrom(address,address,uint256[],uint256[],bytes)": {
        "details": "See {IERC1155-safeBatchTransferFrom}."
      },
      "safeTransferFrom(address,address,uint256,uint256,bytes)": {
        "details": "See {IERC1155-safeTransferFrom}."
      },
      "setApprovalForAll(address,bool)": {
        "details": "See {IERC1155-setApprovalForAll}."
      },
      "supportsInterface(bytes4)": {
        "details": "See {IERC165-supportsInterface}."
      },
      "transferOwnership(address)": {
        "details": "Transfers ownership of the contract to a new account (`newOwner`). Can only be called by the current owner."
      }
    },
    "version": 1
  },
  "userdoc": {
    "kind": "user",
    "methods": {},
    "version": 1
  }
}