{
  "contractName": "Final",
  "abi": [
    {
      "inputs": [],
      "stateMutability": "nonpayable",
      "type": "constructor"
    },
    {
      "anonymous": false,
      "inputs": [
        {
          "indexed": true,
          "internalType": "address",
          "name": "account",
          "type": "address"
        },
        {
          "indexed": true,
          "internalType": "address",
          "name": "operator",
          "type": "address"
        },
        {
          "indexed": false,
          "internalType": "bool",
          "name": "approved",
          "type": "bool"
        }
      ],
      "name": "ApprovalForAll",
      "type": "event"
    },
    {
      "anonymous": false,
      "inputs": [
        {
          "indexed": false,
          "internalType": "uint256",
          "name": "tokenId",
          "type": "uint256"
        },
        {
          "indexed": false,
          "internalType": "address",
          "name": "owner",
          "type": "address"
        },
        {
          "indexed": false,
          "internalType": "enum Final.ApprovalStatus",
          "name": "status",
          "type": "uint8"
        },
        {
          "indexed": false,
          "internalType": "uint256",
          "name": "pricePerCredit",
          "type": "uint256"
        },
        {
          "indexed": false,
          "internalType": "bool",
          "name": "isListed",
          "type": "bool"
        }
      ],
      "name": "CarbonCreditCreated",
      "type": "event"
    },
    {
      "anonymous": false,
      "inputs": [
        {
          "indexed": false,
          "internalType": "uint256",
          "name": "tokenId",
          "type": "uint256"
        },
        {
          "indexed": false,
          "internalType": "address",
          "name": "owner",
          "type": "address"
        },
        {
          "indexed": false,
          "internalType": "enum Final.ApprovalStatus",
          "name": "status",
          "type": "uint8"
        },
        {
          "indexed": false,
          "internalType": "uint256",
          "name": "pricePerCredit",
          "type": "uint256"
        },
        {
          "indexed": false,
          "internalType": "bool",
          "name": "isListed",
          "type": "bool"
        }
      ],
      "name": "CarbonCreditListed",
      "type": "event"
    },
    {
      "anonymous": false,
      "inputs": [
        {
          "indexed": true,
          "internalType": "address",
          "name": "previousOwner",
          "type": "address"
        },
        {
          "indexed": true,
          "internalType": "address",
          "name": "newOwner",
          "type": "address"
        }
      ],
      "name": "OwnershipTransferred",
      "type": "event"
    },
    {
      "anonymous": false,
      "inputs": [
        {
          "indexed": true,
          "internalType": "address",
          "name": "operator",
          "type": "address"
        },
        {
          "indexed": true,
          "internalType": "address",
          "name": "from",
          "type": "address"
        },
        {
          "indexed": true,
          "internalType": "address",
          "name": "to",
          "type": "address"
        },
        {
          "indexed": false,
          "internalType": "uint256[]",
          "name": "ids",
          "type": "uint256[]"
        },
        {
          "indexed": false,
          "internalType": "uint256[]",
          "name": "values",
          "type": "uint256[]"
        }
      ],
      "name": "TransferBatch",
      "type": "event"
    },
    {
      "anonymous": false,
      "inputs": [
        {
          "indexed": true,
          "internalType": "address",
          "name": "operator",
          "type": "address"
        },
        {
          "indexed": true,
          "internalType": "address",
          "name": "from",
          "type": "address"
        },
        {
          "indexed": true,
          "internalType": "address",
          "name": "to",
          "type": "address"
        },
        {
          "indexed": false,
          "internalType": "uint256",
          "name": "id",
          "type": "uint256"
        },
        {
          "indexed": false,
          "internalType": "uint256",
          "name": "value",
          "type": "uint256"
        }
      ],
      "name": "TransferSingle",
      "type": "event"
    },
    {
      "anonymous": false,
      "inputs": [
        {
          "indexed": false,
          "internalType": "string",
          "name": "value",
          "type": "string"
        },
        {
          "indexed": true,
          "internalType": "uint256",
          "name": "id",
          "type": "uint256"
        }
      ],
      "name": "URI",
      "type": "event"
    },
    {
      "inputs": [
        {
          "internalType": "address",
          "name": "account",
          "type": "address"
        },
        {
          "internalType": "uint256",
          "name": "id",
          "type": "uint256"
        }
      ],
      "name": "balanceOf",
      "outputs": [
        {
          "internalType": "uint256",
          "name": "",
          "type": "uint256"
        }
      ],
      "stateMutability": "view",
      "type": "function",
      "constant": true
    },
    {
      "inputs": [
        {
          "internalType": "address[]",
          "name": "accounts",
          "type": "address[]"
        },
        {
          "internalType": "uint256[]",
          "name": "ids",
          "type": "uint256[]"
        }
      ],
      "name": "balanceOfBatch",
      "outputs": [
        {
          "internalType": "uint256[]",
          "name": "",
          "type": "uint256[]"
        }
      ],
      "stateMutability": "view",
      "type": "function",
      "constant": true
    },
    {
      "inputs": [
        {
          "internalType": "address",
          "name": "account",
          "type": "address"
        },
        {
          "internalType": "uint256",
          "name": "id",
          "type": "uint256"
        },
        {
          "internalType": "uint256",
          "name": "value",
          "type": "uint256"
        }
      ],
      "name": "burn",
      "outputs": [],
      "stateMutability": "nonpayable",
      "type": "function"
    },
    {
      "inputs": [
        {
          "internalType": "address",
          "name": "account",
          "type": "address"
        },
        {
          "internalType": "uint256[]",
          "name": "ids",
          "type": "uint256[]"
        },
        {
          "internalType": "uint256[]",
          "name": "values",
          "type": "uint256[]"
        }
      ],
      "name": "burnBatch",
      "outputs": [],
      "stateMutability": "nonpayable",
      "type": "function"
    },
    {
      "inputs": [
        {
          "internalType": "uint256",
          "name": "",
          "type": "uint256"
        }
      ],
      "name": "carbonCredits",
      "outputs": [
        {
          "internalType": "uint256",
          "name": "tokenId",
          "type": "uint256"
        },
        {
          "internalType": "address",
          "name": "owner",
          "type": "address"
        },
        {
          "internalType": "enum Final.ApprovalStatus",
          "name": "status",
          "type": "uint8"
        },
        {
          "internalType": "uint256",
          "name": "pricePerCredit",
          "type": "uint256"
        },
        {
          "internalType": "bool",
          "name": "isListed",
          "type": "bool"
        }
      ],
      "stateMutability": "view",
      "type": "function",
      "constant": true
    },
    {
      "inputs": [
        {
          "internalType": "uint256",
          "name": "",
          "type": "uint256"
        }
      ],
      "name": "creditTokenSupply",
      "outputs": [
        {
          "internalType": "uint256",
          "name": "",
          "type": "uint256"
        }
      ],
      "stateMutability": "view",
      "type": "function",
      "constant": true
    },
    {
      "inputs": [
        {
          "internalType": "address",
          "name": "account",
          "type": "address"
        },
        {
          "internalType": "address",
          "name": "operator",
          "type": "address"
        }
      ],
      "name": "isApprovedForAll",
      "outputs": [
        {
          "internalType": "bool",
          "name": "",
          "type": "bool"
        }
      ],
      "stateMutability": "view",
      "type": "function",
      "constant": true
    },
    {
      "inputs": [],
      "name": "owner",
      "outputs": [
        {
          "internalType": "address",
          "name": "",
          "type": "address"
        }
      ],
      "stateMutability": "view",
      "type": "function",
      "constant": true
    },
    {
      "inputs": [],
      "name": "renounceOwnership",
      "outputs": [],
      "stateMutability": "nonpayable",
      "type": "function"
    },
    {
      "inputs": [
        {
          "internalType": "address",
          "name": "from",
          "type": "address"
        },
        {
          "internalType": "address",
          "name": "to",
          "type": "address"
        },
        {
          "internalType": "uint256[]",
          "name": "ids",
          "type": "uint256[]"
        },
        {
          "internalType": "uint256[]",
          "name": "amounts",
          "type": "uint256[]"
        },
        {
          "internalType": "bytes",
          "name": "data",
          "type": "bytes"
        }
      ],
      "name": "safeBatchTransferFrom",
      "outputs": [],
      "stateMutability": "nonpayable",
      "type": "function"
    },
    {
      "inputs": [
        {
          "internalType": "address",
          "name": "from",
          "type": "address"
        },
        {
          "internalType": "address",
          "name": "to",
          "type": "address"
        },
        {
          "internalType": "uint256",
          "name": "id",
          "type": "uint256"
        },
        {
          "internalType": "uint256",
          "name": "amount",
          "type": "uint256"
        },
        {
          "internalType": "bytes",
          "name": "data",
          "type": "bytes"
        }
      ],
      "name": "safeTransferFrom",
      "outputs": [],
      "stateMutability": "nonpayable",
      "type": "function"
    },
    {
      "inputs": [
        {
          "internalType": "address",
          "name": "operator",
          "type": "address"
        },
        {
          "internalType": "bool",
          "name": "approved",
          "type": "bool"
        }
      ],
      "name": "setApprovalForAll",
      "outputs": [],
      "stateMutability": "nonpayable",
      "type": "function"
    },
    {
      "inputs": [
        {
          "internalType": "bytes4",
          "name": "interfaceId",
          "type": "bytes4"
        }
      ],
      "name": "supportsInterface",
      "outputs": [
        {
          "internalType": "bool",
          "name": "",
          "type": "bool"
        }
      ],
      "stateMutability": "view",
      "type": "function",
      "constant": true
    },
    {
      "inputs": [
        {
          "internalType": "address",
          "name": "newOwner",
          "type": "address"
        }
      ],
      "name": "transferOwnership",
      "outputs": [],
      "stateMutability": "nonpayable",
      "type": "function"
    },
    {
      "inputs": [
        {
          "internalType": "uint256",
          "name": "tokenId",
          "type": "uint256"
        }
      ],
      "name": "uri",
      "outputs": [
        {
          "internalType": "string",
          "name": "",
          "type": "string"
        }
      ],
      "stateMutability": "pure",
      "type": "function",
      "constant": true
    },
    {
      "inputs": [
        {
          "internalType": "uint256",
          "name": "tokenSupply",
          "type": "uint256"
        }
      ],
      "name": "registerProject",
      "outputs": [],
      "stateMutability": "nonpayable",
      "type": "function"
    },
    {
      "inputs": [
        {
          "internalType": "uint256",
          "name": "tokenId",
          "type": "uint256"
        }
      ],
      "name": "approveProject",
      "outputs": [],
      "stateMutability": "nonpayable",
      "type": "function"
    },
    {
      "inputs": [
        {
          "internalType": "uint256",
          "name": "tokenId",
          "type": "uint256"
        }
      ],
      "name": "declineProject",
      "outputs": [],
      "stateMutability": "nonpayable",
      "type": "function"
    },
    {
      "inputs": [
        {
          "internalType": "uint256",
          "name": "tokenId",
          "type": "uint256"
        },
        {
          "internalType": "uint256",
          "name": "price",
          "type": "uint256"
        }
      ],
      "name": "listCreditsForSale",
      "outputs": [],
      "stateMutability": "nonpayable",
      "type": "function"
    },
    {
      "inputs": [
        {
          "internalType": "uint256",
          "name": "tokenId",
          "type": "uint256"
        }
      ],
      "name": "getCreditItem",
      "outputs": [
        {
          "components": [
            {
              "internalType": "uint256",
              "name": "tokenId",
              "type": "uint256"
            },
            {
              "internalType": "address",
              "name": "owner",
              "type": "address"
            },
            {
              "internalType": "enum Final.ApprovalStatus",
              "name": "status",
              "type": "uint8"
            },
            {
              "internalType": "uint256",
              "name": "pricePerCredit",
              "type": "uint256"
            },
            {
              "internalType": "bool",
              "name": "isListed",
              "type": "bool"
            }
          ],
          "internalType": "struct Final.CarbonCredit",
          "name": "",
          "type": "tuple"
        }
      ],
      "stateMutability": "view",
      "type": "function",
      "constant": true
    },
    {
      "inputs": [],
      "name": "getListedTokensCount",
      "outputs": [
        {
          "internalType": "uint256",
          "name": "",
          "type": "uint256"
        }
      ],
      "stateMutability": "view",
      "type": "function",
      "constant": true
    }
  ],
  "bytecode": "0x608060405260405180602001604052806000815250600390805190602001906200002b92919062000176565b503480156200003957600080fd5b506040518060800160405280604d815260200162004a1e604d913962000065816200008c60201b60201c565b50620000866200007a620000a860201b60201c565b620000b060201b60201c565b6200028a565b8060029080519060200190620000a492919062000176565b5050565b600033905090565b6000600560009054906101000a900473ffffffffffffffffffffffffffffffffffffffff16905081600560006101000a81548173ffffffffffffffffffffffffffffffffffffffff021916908373ffffffffffffffffffffffffffffffffffffffff1602179055508173ffffffffffffffffffffffffffffffffffffffff168173ffffffffffffffffffffffffffffffffffffffff167f8be0079c531659141344cd1fd0a4f28419497f9722a3daafe3b4186f6b6457e060405160405180910390a35050565b828054620001849062000255565b90600052602060002090601f016020900481019282620001a85760008555620001f4565b82601f10620001c357805160ff1916838001178555620001f4565b82800160010185558215620001f4579182015b82811115620001f3578251825591602001919060010190620001d6565b5b50905062000203919062000207565b5090565b5b808211156200022257600081600090555060010162000208565b5090565b7f4e487b7100000000000000000000000000000000000000000000000000000000600052602260045260246000fd5b600060028204905060018216806200026e57607f821691505b60208210810362000284576200028362000226565b5b50919050565b614784806200029a6000396000f3fe608060405234801561001057600080fd5b50600436106101365760003560e01c8063715018a6116100b8578063e985e9c51161007c578063e985e9c514610361578063f242432a14610391578063f2fde38b146103ad578063f3fdf552146103c9578063f5298aca146103e5578063fc69d8361461040157610136565b8063715018a6146102bd5780638da5cb5b146102c7578063a22cb465146102e5578063ca5f378114610301578063e60f6ba31461033157610136565b80632eb2c2d6116100ff5780632eb2c2d6146102035780634c9742211461021f5780634e1273f41461023d5780635a7dd27c1461026d5780636b20c454146102a157610136565b8062fdd58e1461013b57806301ffc9a71461016b5780630e89341c1461019b57806319adf6ad146101cb57806326726e6b146101e7575b600080fd5b61015560048036038101906101509190612b4a565b61041d565b6040516101629190612b99565b60405180910390f35b61018560048036038101906101809190612c0c565b6104e5565b6040516101929190612c54565b60405180910390f35b6101b560048036038101906101b09190612c6f565b6105c7565b6040516101c29190612d35565b60405180910390f35b6101e560048036038101906101e09190612d57565b6105f8565b005b61020160048036038101906101fc9190612c6f565b610892565b005b61021d60048036038101906102189190612f94565b6109de565b005b610227610a7f565b6040516102349190612b99565b60405180910390f35b61025760048036038101906102529190613126565b610a89565b604051610264919061325c565b60405180910390f35b61028760048036038101906102829190612c6f565b610ba2565b604051610298959493929190613304565b60405180910390f35b6102bb60048036038101906102b69190613357565b610c12565b005b6102c5610caf565b005b6102cf610cc3565b6040516102dc91906133e2565b60405180910390f35b6102ff60048036038101906102fa9190613429565b610ced565b005b61031b60048036038101906103169190612c6f565b610d03565b60405161032891906134fe565b60405180910390f35b61034b60048036038101906103469190612c6f565b610df0565b6040516103589190612b99565b60405180910390f35b61037b60048036038101906103769190613519565b610e08565b6040516103889190612c54565b60405180910390f35b6103ab60048036038101906103a69190613559565b610e9c565b005b6103c760048036038101906103c291906135f0565b610f3d565b005b6103e360048036038101906103de9190612c6f565b610fc0565b005b6103ff60048036038101906103fa919061361d565b6110a6565b005b61041b60048036038101906104169190612c6f565b611143565b005b60008073ffffffffffffffffffffffffffffffffffffffff168373ffffffffffffffffffffffffffffffffffffffff160361048d576040517f08c379a0000000000000000000000000000000000000000000000000000000008152600401610484906136e2565b60405180910390fd5b60008083815260200190815260200160002060008473ffffffffffffffffffffffffffffffffffffffff1673ffffffffffffffffffffffffffffffffffffffff16815260200190815260200160002054905092915050565b60007fd9b67a26000000000000000000000000000000000000000000000000000000007bffffffffffffffffffffffffffffffffffffffffffffffffffffffff1916827bffffffffffffffffffffffffffffffffffffffffffffffffffffffff191614806105b057507f0e89341c000000000000000000000000000000000000000000000000000000007bffffffffffffffffffffffffffffffffffffffffffffffffffffffff1916827bffffffffffffffffffffffffffffffffffffffffffffffffffffffff1916145b806105c057506105bf8261131c565b5b9050919050565b60606105d282611386565b6040516020016105e29190613822565b6040516020818303038152906040529050919050565b6008600083815260200190815260200160002060010160009054906101000a900473ffffffffffffffffffffffffffffffffffffffff1673ffffffffffffffffffffffffffffffffffffffff163373ffffffffffffffffffffffffffffffffffffffff161461069c576040517f08c379a0000000000000000000000000000000000000000000000000000000008152600401610693906138c1565b60405180910390fd5b600160028111156106b0576106af61328d565b5b6008600084815260200190815260200160002060010160149054906101000a900460ff1660028111156106e6576106e561328d565b5b14610726576040517f08c379a000000000000000000000000000000000000000000000000000000000815260040161071d90613953565b60405180910390fd5b6008600083815260200190815260200160002060030160009054906101000a900460ff161561078a576040517f08c379a0000000000000000000000000000000000000000000000000000000008152600401610781906139e5565b60405180910390fd5b600081116107cd576040517f08c379a00000000000000000000000000000000000000000000000000000000081526004016107c490613a77565b60405180910390fd5b60016008600084815260200190815260200160002060030160006101000a81548160ff0219169083151502179055508060086000848152602001908152602001600020600201819055507f67bd36e179e7b4bfeaa67bf625a5bbf07708e538a16738bf20db3cf7b7d76a17826008600085815260200190815260200160002060010160009054906101000a900473ffffffffffffffffffffffffffffffffffffffff166001846001604051610886959493929190613304565b60405180910390a15050565b6000600660008154809291906108a790613ac6565b9190505590506040518060a001604052808281526020013373ffffffffffffffffffffffffffffffffffffffff168152602001600060028111156108ee576108ed61328d565b5b81526020016000815260200160001515815250600860008381526020019081526020016000206000820151816000015560208201518160010160006101000a81548173ffffffffffffffffffffffffffffffffffffffff021916908373ffffffffffffffffffffffffffffffffffffffff16021790555060408201518160010160146101000a81548160ff021916908360028111156109905761098f61328d565b5b02179055506060820151816002015560808201518160030160006101000a81548160ff0219169083151502179055509050508160096000838152602001908152602001600020819055505050565b6109e6611454565b73ffffffffffffffffffffffffffffffffffffffff168573ffffffffffffffffffffffffffffffffffffffff161480610a2c5750610a2b85610a26611454565b610e08565b5b610a6b576040517f08c379a0000000000000000000000000000000000000000000000000000000008152600401610a6290613b80565b60405180910390fd5b610a78858585858561145c565b5050505050565b6000600754905090565b60608151835114610acf576040517f08c379a0000000000000000000000000000000000000000000000000000000008152600401610ac690613c12565b60405180910390fd5b6000835167ffffffffffffffff811115610aec57610aeb612d9c565b5b604051908082528060200260200182016040528015610b1a5781602001602082028036833780820191505090505b50905060005b8451811015610b9757610b67858281518110610b3f57610b3e613c32565b5b6020026020010151858381518110610b5a57610b59613c32565b5b602002602001015161041d565b828281518110610b7a57610b79613c32565b5b60200260200101818152505080610b9090613ac6565b9050610b20565b508091505092915050565b60086020528060005260406000206000915090508060000154908060010160009054906101000a900473ffffffffffffffffffffffffffffffffffffffff16908060010160149054906101000a900460ff16908060020154908060030160009054906101000a900460ff16905085565b610c1a611454565b73ffffffffffffffffffffffffffffffffffffffff168373ffffffffffffffffffffffffffffffffffffffff161480610c605750610c5f83610c5a611454565b610e08565b5b610c9f576040517f08c379a0000000000000000000000000000000000000000000000000000000008152600401610c9690613b80565b60405180910390fd5b610caa83838361177d565b505050565b610cb7611a4b565b610cc16000611ac9565b565b6000600560009054906101000a900473ffffffffffffffffffffffffffffffffffffffff16905090565b610cff610cf8611454565b8383611b8f565b5050565b610d0b6129a6565b600860008381526020019081526020016000206040518060a0016040529081600082015481526020016001820160009054906101000a900473ffffffffffffffffffffffffffffffffffffffff1673ffffffffffffffffffffffffffffffffffffffff1673ffffffffffffffffffffffffffffffffffffffff1681526020016001820160149054906101000a900460ff166002811115610dae57610dad61328d565b5b6002811115610dc057610dbf61328d565b5b8152602001600282015481526020016003820160009054906101000a900460ff1615151515815250509050919050565b60096020528060005260406000206000915090505481565b6000600160008473ffffffffffffffffffffffffffffffffffffffff1673ffffffffffffffffffffffffffffffffffffffff16815260200190815260200160002060008373ffffffffffffffffffffffffffffffffffffffff1673ffffffffffffffffffffffffffffffffffffffff16815260200190815260200160002060009054906101000a900460ff16905092915050565b610ea4611454565b73ffffffffffffffffffffffffffffffffffffffff168573ffffffffffffffffffffffffffffffffffffffff161480610eea5750610ee985610ee4611454565b610e08565b5b610f29576040517f08c379a0000000000000000000000000000000000000000000000000000000008152600401610f2090613b80565b60405180910390fd5b610f368585858585611cfb565b5050505050565b610f45611a4b565b600073ffffffffffffffffffffffffffffffffffffffff168173ffffffffffffffffffffffffffffffffffffffff1603610fb4576040517f08c379a0000000000000000000000000000000000000000000000000000000008152600401610fab90613cd3565b60405180910390fd5b610fbd81611ac9565b50565b610fc8611a4b565b60006002811115610fdc57610fdb61328d565b5b6008600083815260200190815260200160002060010160149054906101000a900460ff1660028111156110125761101161328d565b5b14611052576040517f08c379a000000000000000000000000000000000000000000000000000000000815260040161104990613d3f565b60405180910390fd5b60026008600083815260200190815260200160002060010160146101000a81548160ff0219169083600281111561108c5761108b61328d565b5b02179055506110a38161109e836105c7565b611f96565b50565b6110ae611454565b73ffffffffffffffffffffffffffffffffffffffff168373ffffffffffffffffffffffffffffffffffffffff1614806110f457506110f3836110ee611454565b610e08565b5b611133576040517f08c379a000000000000000000000000000000000000000000000000000000000815260040161112a90613b80565b60405180910390fd5b61113e838383612002565b505050565b61114b611a4b565b6000600281111561115f5761115e61328d565b5b6008600083815260200190815260200160002060010160149054906101000a900460ff1660028111156111955761119461328d565b5b146111d5576040517f08c379a00000000000000000000000000000000000000000000000000000000081526004016111cc90613dab565b60405180910390fd5b600760008154809291906111e890613ac6565b919050555060016008600083815260200190815260200160002060010160146101000a81548160ff021916908360028111156112275761122661328d565b5b02179055506112906008600083815260200190815260200160002060010160009054906101000a900473ffffffffffffffffffffffffffffffffffffffff1682600960008581526020019081526020016000205460405180602001604052806000815250612248565b6112a28161129d836105c7565b611f96565b7f2323df2a7aedd89684600618a0eeb6393cb28d37814e3bd3dd1fad49c249f541816008600084815260200190815260200160002060010160009054906101000a900473ffffffffffffffffffffffffffffffffffffffff166001600080604051611311959493929190613e10565b60405180910390a150565b60007f01ffc9a7000000000000000000000000000000000000000000000000000000007bffffffffffffffffffffffffffffffffffffffffffffffffffffffff1916827bffffffffffffffffffffffffffffffffffffffffffffffffffffffff1916149050919050565b606060006001611395846123f8565b01905060008167ffffffffffffffff8111156113b4576113b3612d9c565b5b6040519080825280601f01601f1916602001820160405280156113e65781602001600182028036833780820191505090505b509050600082602001820190505b600115611449578080600190039150507f3031323334353637383961626364656600000000000000000000000000000000600a86061a8153600a858161143d5761143c613e63565b5b049450600085036113f4575b819350505050919050565b600033905090565b81518351146114a0576040517f08c379a000000000000000000000000000000000000000000000000000000000815260040161149790613f04565b60405180910390fd5b600073ffffffffffffffffffffffffffffffffffffffff168473ffffffffffffffffffffffffffffffffffffffff160361150f576040517f08c379a000000000000000000000000000000000000000000000000000000000815260040161150690613f96565b60405180910390fd5b6000611519611454565b905061152981878787878761254b565b60005b84518110156116da57600085828151811061154a57611549613c32565b5b60200260200101519050600085838151811061156957611568613c32565b5b60200260200101519050600080600084815260200190815260200160002060008b73ffffffffffffffffffffffffffffffffffffffff1673ffffffffffffffffffffffffffffffffffffffff1681526020019081526020016000205490508181101561160a576040517f08c379a000000000000000000000000000000000000000000000000000000000815260040161160190614028565b60405180910390fd5b81810360008085815260200190815260200160002060008c73ffffffffffffffffffffffffffffffffffffffff1673ffffffffffffffffffffffffffffffffffffffff168152602001908152602001600020819055508160008085815260200190815260200160002060008b73ffffffffffffffffffffffffffffffffffffffff1673ffffffffffffffffffffffffffffffffffffffff16815260200190815260200160002060008282546116bf9190614048565b92505081905550505050806116d390613ac6565b905061152c565b508473ffffffffffffffffffffffffffffffffffffffff168673ffffffffffffffffffffffffffffffffffffffff168273ffffffffffffffffffffffffffffffffffffffff167f4a39dc06d4c0dbc64b70af90fd698a233a518aa5d07e595d983b8c0526c8f7fb878760405161175192919061409e565b60405180910390a4611767818787878787612553565b61177581878787878761255b565b505050505050565b600073ffffffffffffffffffffffffffffffffffffffff168373ffffffffffffffffffffffffffffffffffffffff16036117ec576040517f08c379a00000000000000000000000000000000000000000000000000000000081526004016117e390614147565b60405180910390fd5b8051825114611830576040517f08c379a000000000000000000000000000000000000000000000000000000000815260040161182790613f04565b60405180910390fd5b600061183a611454565b905061185a8185600086866040518060200160405280600081525061254b565b60005b83518110156119a757600084828151811061187b5761187a613c32565b5b60200260200101519050600084838151811061189a57611899613c32565b5b60200260200101519050600080600084815260200190815260200160002060008973ffffffffffffffffffffffffffffffffffffffff1673ffffffffffffffffffffffffffffffffffffffff1681526020019081526020016000205490508181101561193b576040517f08c379a0000000000000000000000000000000000000000000000000000000008152600401611932906141d9565b60405180910390fd5b81810360008085815260200190815260200160002060008a73ffffffffffffffffffffffffffffffffffffffff1673ffffffffffffffffffffffffffffffffffffffff16815260200190815260200160002081905550505050808061199f90613ac6565b91505061185d565b50600073ffffffffffffffffffffffffffffffffffffffff168473ffffffffffffffffffffffffffffffffffffffff168273ffffffffffffffffffffffffffffffffffffffff167f4a39dc06d4c0dbc64b70af90fd698a233a518aa5d07e595d983b8c0526c8f7fb8686604051611a1f92919061409e565b60405180910390a4611a4581856000868660405180602001604052806000815250612553565b50505050565b611a53611454565b73ffffffffffffffffffffffffffffffffffffffff16611a71610cc3565b73ffffffffffffffffffffffffffffffffffffffff1614611ac7576040517f08c379a0000000000000000000000000000000000000000000000000000000008152600401611abe90614245565b60405180910390fd5b565b6000600560009054906101000a900473ffffffffffffffffffffffffffffffffffffffff16905081600560006101000a81548173ffffffffffffffffffffffffffffffffffffffff021916908373ffffffffffffffffffffffffffffffffffffffff1602179055508173ffffffffffffffffffffffffffffffffffffffff168173ffffffffffffffffffffffffffffffffffffffff167f8be0079c531659141344cd1fd0a4f28419497f9722a3daafe3b4186f6b6457e060405160405180910390a35050565b8173ffffffffffffffffffffffffffffffffffffffff168373ffffffffffffffffffffffffffffffffffffffff1603611bfd576040517f08c379a0000000000000000000000000000000000000000000000000000000008152600401611bf4906142d7565b60405180910390fd5b80600160008573ffffffffffffffffffffffffffffffffffffffff1673ffffffffffffffffffffffffffffffffffffffff16815260200190815260200160002060008473ffffffffffffffffffffffffffffffffffffffff1673ffffffffffffffffffffffffffffffffffffffff16815260200190815260200160002060006101000a81548160ff0219169083151502179055508173ffffffffffffffffffffffffffffffffffffffff168373ffffffffffffffffffffffffffffffffffffffff167f17307eab39ab6107e8899845ad3d59bd9653f200f220920489ca2b5937696c3183604051611cee9190612c54565b60405180910390a3505050565b600073ffffffffffffffffffffffffffffffffffffffff168473ffffffffffffffffffffffffffffffffffffffff1603611d6a576040517f08c379a0000000000000000000000000000000000000000000000000000000008152600401611d6190613f96565b60405180910390fd5b6000611d74611454565b90506000611d8185612732565b90506000611d8e85612732565b9050611d9e83898985858961254b565b600080600088815260200190815260200160002060008a73ffffffffffffffffffffffffffffffffffffffff1673ffffffffffffffffffffffffffffffffffffffff16815260200190815260200160002054905085811015611e35576040517f08c379a0000000000000000000000000000000000000000000000000000000008152600401611e2c90614028565b60405180910390fd5b85810360008089815260200190815260200160002060008b73ffffffffffffffffffffffffffffffffffffffff1673ffffffffffffffffffffffffffffffffffffffff168152602001908152602001600020819055508560008089815260200190815260200160002060008a73ffffffffffffffffffffffffffffffffffffffff1673ffffffffffffffffffffffffffffffffffffffff1681526020019081526020016000206000828254611eea9190614048565b925050819055508773ffffffffffffffffffffffffffffffffffffffff168973ffffffffffffffffffffffffffffffffffffffff168573ffffffffffffffffffffffffffffffffffffffff167fc3d58168c5ae7397731d063d5bbf3d657854427343f4c083240f7aacaa2d0f628a8a604051611f679291906142f7565b60405180910390a4611f7d848a8a86868a612553565b611f8b848a8a8a8a8a6127ac565b505050505050505050565b80600460008481526020019081526020016000209080519060200190611fbd9291906129ff565b50817f6bb7ff708619ba0610cba295a58592e0451dee2622938c8755667688daf3529b611fe9846105c7565b604051611ff69190612d35565b60405180910390a25050565b600073ffffffffffffffffffffffffffffffffffffffff168373ffffffffffffffffffffffffffffffffffffffff1603612071576040517f08c379a000000000000000000000000000000000000000000000000000000000815260040161206890614147565b60405180910390fd5b600061207b611454565b9050600061208884612732565b9050600061209584612732565b90506120b58387600085856040518060200160405280600081525061254b565b600080600087815260200190815260200160002060008873ffffffffffffffffffffffffffffffffffffffff1673ffffffffffffffffffffffffffffffffffffffff1681526020019081526020016000205490508481101561214c576040517f08c379a0000000000000000000000000000000000000000000000000000000008152600401612143906141d9565b60405180910390fd5b84810360008088815260200190815260200160002060008973ffffffffffffffffffffffffffffffffffffffff1673ffffffffffffffffffffffffffffffffffffffff16815260200190815260200160002081905550600073ffffffffffffffffffffffffffffffffffffffff168773ffffffffffffffffffffffffffffffffffffffff168573ffffffffffffffffffffffffffffffffffffffff167fc3d58168c5ae7397731d063d5bbf3d657854427343f4c083240f7aacaa2d0f6289896040516122199291906142f7565b60405180910390a461223f84886000868660405180602001604052806000815250612553565b50505050505050565b600073ffffffffffffffffffffffffffffffffffffffff168473ffffffffffffffffffffffffffffffffffffffff16036122b7576040517f08c379a00000000000000000000000000000000000000000000000000000000081526004016122ae90614392565b60405180910390fd5b60006122c1611454565b905060006122ce85612732565b905060006122db85612732565b90506122ec8360008985858961254b565b8460008088815260200190815260200160002060008973ffffffffffffffffffffffffffffffffffffffff1673ffffffffffffffffffffffffffffffffffffffff168152602001908152602001600020600082825461234b9190614048565b925050819055508673ffffffffffffffffffffffffffffffffffffffff16600073ffffffffffffffffffffffffffffffffffffffff168473ffffffffffffffffffffffffffffffffffffffff167fc3d58168c5ae7397731d063d5bbf3d657854427343f4c083240f7aacaa2d0f6289896040516123c99291906142f7565b60405180910390a46123e083600089858589612553565b6123ef836000898989896127ac565b50505050505050565b600080600090507a184f03e93ff9f4daa797ed6e38ed64bf6a1f0100000000000000008310612456577a184f03e93ff9f4daa797ed6e38ed64bf6a1f010000000000000000838161244c5761244b613e63565b5b0492506040810190505b6d04ee2d6d415b85acef81000000008310612493576d04ee2d6d415b85acef8100000000838161248957612488613e63565b5b0492506020810190505b662386f26fc1000083106124c257662386f26fc1000083816124b8576124b7613e63565b5b0492506010810190505b6305f5e10083106124eb576305f5e10083816124e1576124e0613e63565b5b0492506008810190505b612710831061251057612710838161250657612505613e63565b5b0492506004810190505b60648310612533576064838161252957612528613e63565b5b0492506002810190505b600a8310612542576001810190505b80915050919050565b505050505050565b505050505050565b61257a8473ffffffffffffffffffffffffffffffffffffffff16612983565b1561272a578373ffffffffffffffffffffffffffffffffffffffff1663bc197c8187878686866040518663ffffffff1660e01b81526004016125c0959493929190614407565b6020604051808303816000875af19250505080156125fc57506040513d601f19601f820116820180604052508101906125f99190614484565b60015b6126a1576126086144be565b806308c379a003612664575061261c6144e0565b806126275750612666565b806040517f08c379a000000000000000000000000000000000000000000000000000000000815260040161265b9190612d35565b60405180910390fd5b505b6040517f08c379a0000000000000000000000000000000000000000000000000000000008152600401612698906145e2565b60405180910390fd5b63bc197c8160e01b7bffffffffffffffffffffffffffffffffffffffffffffffffffffffff1916817bffffffffffffffffffffffffffffffffffffffffffffffffffffffff191614612728576040517f08c379a000000000000000000000000000000000000000000000000000000000815260040161271f90614674565b60405180910390fd5b505b505050505050565b60606000600167ffffffffffffffff81111561275157612750612d9c565b5b60405190808252806020026020018201604052801561277f5781602001602082028036833780820191505090505b509050828160008151811061279757612796613c32565b5b60200260200101818152505080915050919050565b6127cb8473ffffffffffffffffffffffffffffffffffffffff16612983565b1561297b578373ffffffffffffffffffffffffffffffffffffffff1663f23a6e6187878686866040518663ffffffff1660e01b8152600401612811959493929190614694565b6020604051808303816000875af192505050801561284d57506040513d601f19601f8201168201806040525081019061284a9190614484565b60015b6128f2576128596144be565b806308c379a0036128b5575061286d6144e0565b8061287857506128b7565b806040517f08c379a00000000000000000000000000000000000000000000000000000000081526004016128ac9190612d35565b60405180910390fd5b505b6040517f08c379a00000000000000000000000000000000000000000000000000000000081526004016128e9906145e2565b60405180910390fd5b63f23a6e6160e01b7bffffffffffffffffffffffffffffffffffffffffffffffffffffffff1916817bffffffffffffffffffffffffffffffffffffffffffffffffffffffff191614612979576040517f08c379a000000000000000000000000000000000000000000000000000000000815260040161297090614674565b60405180910390fd5b505b505050505050565b6000808273ffffffffffffffffffffffffffffffffffffffff163b119050919050565b6040518060a0016040528060008152602001600073ffffffffffffffffffffffffffffffffffffffff168152602001600060028111156129e9576129e861328d565b5b8152602001600081526020016000151581525090565b828054612a0b9061471d565b90600052602060002090601f016020900481019282612a2d5760008555612a74565b82601f10612a4657805160ff1916838001178555612a74565b82800160010185558215612a74579182015b82811115612a73578251825591602001919060010190612a58565b5b509050612a819190612a85565b5090565b5b80821115612a9e576000816000905550600101612a86565b5090565b6000604051905090565b600080fd5b600080fd5b600073ffffffffffffffffffffffffffffffffffffffff82169050919050565b6000612ae182612ab6565b9050919050565b612af181612ad6565b8114612afc57600080fd5b50565b600081359050612b0e81612ae8565b92915050565b6000819050919050565b612b2781612b14565b8114612b3257600080fd5b50565b600081359050612b4481612b1e565b92915050565b60008060408385031215612b6157612b60612aac565b5b6000612b6f85828601612aff565b9250506020612b8085828601612b35565b9150509250929050565b612b9381612b14565b82525050565b6000602082019050612bae6000830184612b8a565b92915050565b60007fffffffff0000000000000000000000000000000000000000000000000000000082169050919050565b612be981612bb4565b8114612bf457600080fd5b50565b600081359050612c0681612be0565b92915050565b600060208284031215612c2257612c21612aac565b5b6000612c3084828501612bf7565b91505092915050565b60008115159050919050565b612c4e81612c39565b82525050565b6000602082019050612c696000830184612c45565b92915050565b600060208284031215612c8557612c84612aac565b5b6000612c9384828501612b35565b91505092915050565b600081519050919050565b600082825260208201905092915050565b60005b83811015612cd6578082015181840152602081019050612cbb565b83811115612ce5576000848401525b50505050565b6000601f19601f8301169050919050565b6000612d0782612c9c565b612d118185612ca7565b9350612d21818560208601612cb8565b612d2a81612ceb565b840191505092915050565b60006020820190508181036000830152612d4f8184612cfc565b905092915050565b60008060408385031215612d6e57612d6d612aac565b5b6000612d7c85828601612b35565b9250506020612d8d85828601612b35565b9150509250929050565b600080fd5b7f4e487b7100000000000000000000000000000000000000000000000000000000600052604160045260246000fd5b612dd482612ceb565b810181811067ffffffffffffffff82111715612df357612df2612d9c565b5b80604052505050565b6000612e06612aa2565b9050612e128282612dcb565b919050565b600067ffffffffffffffff821115612e3257612e31612d9c565b5b602082029050602081019050919050565b600080fd5b6000612e5b612e5684612e17565b612dfc565b90508083825260208201905060208402830185811115612e7e57612e7d612e43565b5b835b81811015612ea75780612e938882612b35565b845260208401935050602081019050612e80565b5050509392505050565b600082601f830112612ec657612ec5612d97565b5b8135612ed6848260208601612e48565b91505092915050565b600080fd5b600067ffffffffffffffff821115612eff57612efe612d9c565b5b612f0882612ceb565b9050602081019050919050565b82818337600083830152505050565b6000612f37612f3284612ee4565b612dfc565b905082815260208101848484011115612f5357612f52612edf565b5b612f5e848285612f15565b509392505050565b600082601f830112612f7b57612f7a612d97565b5b8135612f8b848260208601612f24565b91505092915050565b600080600080600060a08688031215612fb057612faf612aac565b5b6000612fbe88828901612aff565b9550506020612fcf88828901612aff565b945050604086013567ffffffffffffffff811115612ff057612fef612ab1565b5b612ffc88828901612eb1565b935050606086013567ffffffffffffffff81111561301d5761301c612ab1565b5b61302988828901612eb1565b925050608086013567ffffffffffffffff81111561304a57613049612ab1565b5b61305688828901612f66565b9150509295509295909350565b600067ffffffffffffffff82111561307e5761307d612d9c565b5b602082029050602081019050919050565b60006130a261309d84613063565b612dfc565b905080838252602082019050602084028301858111156130c5576130c4612e43565b5b835b818110156130ee57806130da8882612aff565b8452602084019350506020810190506130c7565b5050509392505050565b600082601f83011261310d5761310c612d97565b5b813561311d84826020860161308f565b91505092915050565b6000806040838503121561313d5761313c612aac565b5b600083013567ffffffffffffffff81111561315b5761315a612ab1565b5b613167858286016130f8565b925050602083013567ffffffffffffffff81111561318857613187612ab1565b5b61319485828601612eb1565b9150509250929050565b600081519050919050565b600082825260208201905092915050565b6000819050602082019050919050565b6131d381612b14565b82525050565b60006131e583836131ca565b60208301905092915050565b6000602082019050919050565b60006132098261319e565b61321381856131a9565b935061321e836131ba565b8060005b8381101561324f57815161323688826131d9565b9750613241836131f1565b925050600181019050613222565b5085935050505092915050565b6000602082019050818103600083015261327681846131fe565b905092915050565b61328781612ad6565b82525050565b7f4e487b7100000000000000000000000000000000000000000000000000000000600052602160045260246000fd5b600381106132cd576132cc61328d565b5b50565b60008190506132de826132bc565b919050565b60006132ee826132d0565b9050919050565b6132fe816132e3565b82525050565b600060a0820190506133196000830188612b8a565b613326602083018761327e565b61333360408301866132f5565b6133406060830185612b8a565b61334d6080830184612c45565b9695505050505050565b6000806000606084860312156133705761336f612aac565b5b600061337e86828701612aff565b935050602084013567ffffffffffffffff81111561339f5761339e612ab1565b5b6133ab86828701612eb1565b925050604084013567ffffffffffffffff8111156133cc576133cb612ab1565b5b6133d886828701612eb1565b9150509250925092565b60006020820190506133f7600083018461327e565b92915050565b61340681612c39565b811461341157600080fd5b50565b600081359050613423816133fd565b92915050565b600080604083850312156134405761343f612aac565b5b600061344e85828601612aff565b925050602061345f85828601613414565b9150509250929050565b61347281612ad6565b82525050565b613481816132e3565b82525050565b61349081612c39565b82525050565b60a0820160008201516134ac60008501826131ca565b5060208201516134bf6020850182613469565b5060408201516134d26040850182613478565b5060608201516134e560608501826131ca565b5060808201516134f86080850182613487565b50505050565b600060a0820190506135136000830184613496565b92915050565b600080604083850312156135305761352f612aac565b5b600061353e85828601612aff565b925050602061354f85828601612aff565b9150509250929050565b600080600080600060a0868803121561357557613574612aac565b5b600061358388828901612aff565b955050602061359488828901612aff565b94505060406135a588828901612b35565b93505060606135b688828901612b35565b925050608086013567ffffffffffffffff8111156135d7576135d6612ab1565b5b6135e388828901612f66565b9150509295509295909350565b60006020828403121561360657613605612aac565b5b600061361484828501612aff565b91505092915050565b60008060006060848603121561363657613635612aac565b5b600061364486828701612aff565b935050602061365586828701612b35565b925050604061366686828701612b35565b9150509250925092565b7f455243313135353a2061646472657373207a65726f206973206e6f742061207660008201527f616c6964206f776e657200000000000000000000000000000000000000000000602082015250565b60006136cc602a83612ca7565b91506136d782613670565b604082019050919050565b600060208201905081810360008301526136fb816136bf565b9050919050565b600081905092915050565b7f68747470733a2f2f697066732e696f2f697066732f516d64734676686f374b3160008201527f477453434c625361716874567a36454153464b506b66684e41354e584c735a5a60208201527f3163682f00000000000000000000000000000000000000000000000000000000604082015250565b600061378f604483613702565b915061379a8261370d565b604482019050919050565b60006137b082612c9c565b6137ba8185613702565b93506137ca818560208601612cb8565b80840191505092915050565b7f2e6a736f6e000000000000000000000000000000000000000000000000000000600082015250565b600061380c600583613702565b9150613817826137d6565b600582019050919050565b600061382d82613782565b915061383982846137a5565b9150613844826137ff565b915081905092915050565b7f4f6e6c79207468652063726564697473206f776e65722063616e206c6973742060008201527f746865206372656469747320666f722073616c652e0000000000000000000000602082015250565b60006138ab603583612ca7565b91506138b68261384f565b604082019050919050565b600060208201905081810360008301526138da8161389e565b9050919050565b7f5468652063726564697473206d75737420626520617070726f7665642062656660008201527f6f72652069742063616e206265206c697374656420666f722073616c652e0000602082015250565b600061393d603e83612ca7565b9150613948826138e1565b604082019050919050565b6000602082019050818103600083015261396c81613930565b9050919050565b7f546865206372656469747320697320616c7265616479206c697374656420666f60008201527f722073616c652e00000000000000000000000000000000000000000000000000602082015250565b60006139cf602783612ca7565b91506139da82613973565b604082019050919050565b600060208201905081810360008301526139fe816139c2565b9050919050565b7f5468652070726963652070657220637265646974206d7573742062652067726560008201527f61746572207468616e207a65726f2e0000000000000000000000000000000000602082015250565b6000613a61602f83612ca7565b9150613a6c82613a05565b604082019050919050565b60006020820190508181036000830152613a9081613a54565b9050919050565b7f4e487b7100000000000000000000000000000000000000000000000000000000600052601160045260246000fd5b6000613ad182612b14565b91507fffffffffffffffffffffffffffffffffffffffffffffffffffffffffffffffff8203613b0357613b02613a97565b5b600182019050919050565b7f455243313135353a2063616c6c6572206973206e6f7420746f6b656e206f776e60008201527f6572206f7220617070726f766564000000000000000000000000000000000000602082015250565b6000613b6a602e83612ca7565b9150613b7582613b0e565b604082019050919050565b60006020820190508181036000830152613b9981613b5d565b9050919050565b7f455243313135353a206163636f756e747320616e6420696473206c656e67746860008201527f206d69736d617463680000000000000000000000000000000000000000000000602082015250565b6000613bfc602983612ca7565b9150613c0782613ba0565b604082019050919050565b60006020820190508181036000830152613c2b81613bef565b9050919050565b7f4e487b7100000000000000000000000000000000000000000000000000000000600052603260045260246000fd5b7f4f776e61626c653a206e6577206f776e657220697320746865207a65726f206160008201527f6464726573730000000000000000000000000000000000000000000000000000602082015250565b6000613cbd602683612ca7565b9150613cc882613c61565b604082019050919050565b60006020820190508181036000830152613cec81613cb0565b9050919050565b7f50726f6a6563742063616e6e6f74206265206465636c696e6564000000000000600082015250565b6000613d29601a83612ca7565b9150613d3482613cf3565b602082019050919050565b60006020820190508181036000830152613d5881613d1c565b9050919050565b7f50726f6a6563742063616e6e6f7420626520617070726f766564000000000000600082015250565b6000613d95601a83612ca7565b9150613da082613d5f565b602082019050919050565b60006020820190508181036000830152613dc481613d88565b9050919050565b6000819050919050565b6000819050919050565b6000613dfa613df5613df084613dcb565b613dd5565b612b14565b9050919050565b613e0a81613ddf565b82525050565b600060a082019050613e256000830188612b8a565b613e32602083018761327e565b613e3f60408301866132f5565b613e4c6060830185613e01565b613e596080830184612c45565b9695505050505050565b7f4e487b7100000000000000000000000000000000000000000000000000000000600052601260045260246000fd5b7f455243313135353a2069647320616e6420616d6f756e7473206c656e6774682060008201527f6d69736d61746368000000000000000000000000000000000000000000000000602082015250565b6000613eee602883612ca7565b9150613ef982613e92565b604082019050919050565b60006020820190508181036000830152613f1d81613ee1565b9050919050565b7f455243313135353a207472616e7366657220746f20746865207a65726f20616460008201527f6472657373000000000000000000000000000000000000000000000000000000602082015250565b6000613f80602583612ca7565b9150613f8b82613f24565b604082019050919050565b60006020820190508181036000830152613faf81613f73565b9050919050565b7f455243313135353a20696e73756666696369656e742062616c616e636520666f60008201527f72207472616e7366657200000000000000000000000000000000000000000000602082015250565b6000614012602a83612ca7565b915061401d82613fb6565b604082019050919050565b6000602082019050818103600083015261404181614005565b9050919050565b600061405382612b14565b915061405e83612b14565b9250827fffffffffffffffffffffffffffffffffffffffffffffffffffffffffffffffff0382111561409357614092613a97565b5b828201905092915050565b600060408201905081810360008301526140b881856131fe565b905081810360208301526140cc81846131fe565b90509392505050565b7f455243313135353a206275726e2066726f6d20746865207a65726f206164647260008201527f6573730000000000000000000000000000000000000000000000000000000000602082015250565b6000614131602383612ca7565b915061413c826140d5565b604082019050919050565b6000602082019050818103600083015261416081614124565b9050919050565b7f455243313135353a206275726e20616d6f756e7420657863656564732062616c60008201527f616e636500000000000000000000000000000000000000000000000000000000602082015250565b60006141c3602483612ca7565b91506141ce82614167565b604082019050919050565b600060208201905081810360008301526141f2816141b6565b9050919050565b7f4f776e61626c653a2063616c6c6572206973206e6f7420746865206f776e6572600082015250565b600061422f602083612ca7565b915061423a826141f9565b602082019050919050565b6000602082019050818103600083015261425e81614222565b9050919050565b7f455243313135353a2073657474696e6720617070726f76616c2073746174757360008201527f20666f722073656c660000000000000000000000000000000000000000000000602082015250565b60006142c1602983612ca7565b91506142cc82614265565b604082019050919050565b600060208201905081810360008301526142f0816142b4565b9050919050565b600060408201905061430c6000830185612b8a565b6143196020830184612b8a565b9392505050565b7f455243313135353a206d696e7420746f20746865207a65726f2061646472657360008201527f7300000000000000000000000000000000000000000000000000000000000000602082015250565b600061437c602183612ca7565b915061438782614320565b604082019050919050565b600060208201905081810360008301526143ab8161436f565b9050919050565b600081519050919050565b600082825260208201905092915050565b60006143d9826143b2565b6143e381856143bd565b93506143f3818560208601612cb8565b6143fc81612ceb565b840191505092915050565b600060a08201905061441c600083018861327e565b614429602083018761327e565b818103604083015261443b81866131fe565b9050818103606083015261444f81856131fe565b9050818103608083015261446381846143ce565b90509695505050505050565b60008151905061447e81612be0565b92915050565b60006020828403121561449a57614499612aac565b5b60006144a88482850161446f565b91505092915050565b60008160e01c9050919050565b600060033d11156144dd5760046000803e6144da6000516144b1565b90505b90565b600060443d1061456d576144f2612aa2565b60043d036004823e80513d602482011167ffffffffffffffff8211171561451a57505061456d565b808201805167ffffffffffffffff811115614538575050505061456d565b80602083010160043d03850181111561455557505050505061456d565b61456482602001850186612dcb565b82955050505050505b90565b7f455243313135353a207472616e7366657220746f206e6f6e2d4552433131353560008201527f526563656976657220696d706c656d656e746572000000000000000000000000602082015250565b60006145cc603483612ca7565b91506145d782614570565b604082019050919050565b600060208201905081810360008301526145fb816145bf565b9050919050565b7f455243313135353a204552433131353552656365697665722072656a6563746560008201527f6420746f6b656e73000000000000000000000000000000000000000000000000602082015250565b600061465e602883612ca7565b915061466982614602565b604082019050919050565b6000602082019050818103600083015261468d81614651565b9050919050565b600060a0820190506146a9600083018861327e565b6146b6602083018761327e565b6146c36040830186612b8a565b6146d06060830185612b8a565b81810360808301526146e281846143ce565b90509695505050505050565b7f4e487b7100000000000000000000000000000000000000000000000000000000600052602260045260246000fd5b6000600282049050600182168061473557607f821691505b602082108103614748576147476146ee565b5b5091905056fea2646970667358221220ebe511672efcf47f118cfd507665bfc993fafcbe29f5ede757995050220802cd64736f6c634300080d003368747470733a2f2f697066732e696f2f697066732f516d64734676686f374b31477453434c625361716874567a36454153464b506b66684e41354e584c735a5a3163682f7b69647d2e6a736f6e",
  "immutableReferences": {},
  "source": "// SPDX-License-Identifier: MIT\npragma solidity ^0.8.13;\n\nimport \"@openzeppelin/contracts/token/ERC1155/extensions/ERC1155URIStorage.sol\";\nimport \"@openzeppelin/contracts/access/Ownable.sol\";\nimport \"@openzeppelin/contracts/token/ERC1155/extensions/ERC1155Burnable.sol\";\nimport \"@openzeppelin/contracts/utils/Strings.sol\";\n\ncontract Final is ERC1155URIStorage, ERC1155Burnable, Ownable {\n    enum ApprovalStatus {\n        Pending,\n        Approved,\n        Declined\n    }\n\n    struct CarbonCredit {\n        uint256 tokenId;\n        address owner;\n        ApprovalStatus status;\n        uint256 pricePerCredit;\n        bool isListed;\n    }\n\n    event CarbonCreditCreated(\n        uint256 tokenId,\n        address owner,\n        ApprovalStatus status,\n        uint256 pricePerCredit,\n        bool isListed\n    );\n\n    event CarbonCreditListed(\n        uint256 tokenId,\n        address owner,\n        ApprovalStatus status,\n        uint256 pricePerCredit,\n        bool isListed\n    );\n\n    uint256 private _tokenIds;\n    uint256 private _listedTokens;\n    mapping(uint256 => CarbonCredit) public carbonCredits;\n    mapping(uint256 => uint256) public creditTokenSupply;\n\n    constructor()\n        ERC1155(\n            \"https://ipfs.io/ipfs/QmdsFvho7K1GtSCLbSaqhtVz6EASFKPkfhNA5NXLsZZ1ch/{id}.json\"\n        )\n    {}\n\n    // function uri(\n    //     uint256 tokenId\n    // ) public view override(ERC1155, ERC1155URIStorage) returns (string memory) {\n    //     return ERC1155URIStorage.uri(tokenId);\n    // }\n\n    function uri(\n        uint256 tokenId\n    ) public pure override(ERC1155, ERC1155URIStorage) returns (string memory) {\n        return\n            string(\n                abi.encodePacked(\n                    \"https://ipfs.io/ipfs/QmdsFvho7K1GtSCLbSaqhtVz6EASFKPkfhNA5NXLsZZ1ch/\",\n                    Strings.toString(tokenId),\n                    \".json\"\n                )\n            );\n    }\n\n    // Allows user to register a project\n    function registerProject(uint256 tokenSupply) public {\n        uint256 currentId = _tokenIds++;\n        carbonCredits[currentId] = CarbonCredit(\n            currentId,\n            msg.sender,\n            ApprovalStatus.Pending,\n            0,\n            false\n        );\n        creditTokenSupply[currentId] = tokenSupply;\n    }\n\n    function approveProject(uint256 tokenId) public onlyOwner {\n        require(\n            carbonCredits[tokenId].status == ApprovalStatus.Pending,\n            \"Project cannot be approved\"\n        );\n        _listedTokens++;\n        carbonCredits[tokenId].status = ApprovalStatus.Approved;\n        _mint(\n            carbonCredits[tokenId].owner,\n            tokenId,\n            creditTokenSupply[tokenId],\n            \"\"\n        );\n        _setURI(tokenId, uri(tokenId));\n        emit CarbonCreditCreated(\n            tokenId,\n            carbonCredits[tokenId].owner,\n            ApprovalStatus.Approved,\n            0,\n            false\n        );\n    }\n\n    function declineProject(uint256 tokenId) public onlyOwner {\n        require(\n            carbonCredits[tokenId].status == ApprovalStatus.Pending,\n            \"Project cannot be declined\"\n        );\n        carbonCredits[tokenId].status = ApprovalStatus.Declined;\n        _setURI(tokenId, uri(tokenId));\n    }\n\n    function listCreditsForSale(uint256 tokenId, uint256 price) public {\n        require(\n            msg.sender == carbonCredits[tokenId].owner,\n            \"Only the credits owner can list the credits for sale.\"\n        );\n        require(\n            carbonCredits[tokenId].status == ApprovalStatus.Approved,\n            \"The credits must be approved before it can be listed for sale.\"\n        );\n        require(\n            !carbonCredits[tokenId].isListed,\n            \"The credits is already listed for sale.\"\n        );\n        require(price > 0, \"The price per credit must be greater than zero.\");\n\n        // Set the token as listed and update the price\n        carbonCredits[tokenId].isListed = true;\n        carbonCredits[tokenId].pricePerCredit = price;\n        emit CarbonCreditListed(\n            tokenId,\n            carbonCredits[tokenId].owner,\n            ApprovalStatus.Approved,\n            price,\n            true\n        );\n    }\n\n    function getCreditItem(\n        uint256 tokenId\n    ) public view returns (CarbonCredit memory) {\n        return carbonCredits[tokenId];\n    }\n\n    function getListedTokensCount() public view returns (uint256) {\n        return _listedTokens;\n    }\n}\n",
  "sourcePath": "/Users/buudinhha/Vscode/DATN/main/contracts/Final.sol",
  "compiler": {
    "name": "solc",
    "version": "0.8.13+commit.abaa5c0e.Emscripten.clang"
  },
  "schemaVersion": "3.4.16",
  "updatedAt": "2024-04-09T16:11:19.286Z",
  "networkType": "ethereum",
  "devdoc": {
    "kind": "dev",
    "methods": {
      "balanceOf(address,uint256)": {
        "details": "See {IERC1155-balanceOf}. Requirements: - `account` cannot be the zero address."
      },
      "balanceOfBatch(address[],uint256[])": {
        "details": "See {IERC1155-balanceOfBatch}. Requirements: - `accounts` and `ids` must have the same length."
      },
      "isApprovedForAll(address,address)": {
        "details": "See {IERC1155-isApprovedForAll}."
      },
      "owner()": {
        "details": "Returns the address of the current owner."
      },
      "renounceOwnership()": {
        "details": "Leaves the contract without owner. It will not be possible to call `onlyOwner` functions. Can only be called by the current owner. NOTE: Renouncing ownership will leave the contract without an owner, thereby disabling any functionality that is only available to the owner."
      },
      "safeBatchTransferFrom(address,address,uint256[],uint256[],bytes)": {
        "details": "See {IERC1155-safeBatchTransferFrom}."
      },
      "safeTransferFrom(address,address,uint256,uint256,bytes)": {
        "details": "See {IERC1155-safeTransferFrom}."
      },
      "setApprovalForAll(address,bool)": {
        "details": "See {IERC1155-setApprovalForAll}."
      },
      "supportsInterface(bytes4)": {
        "details": "See {IERC165-supportsInterface}."
      },
      "transferOwnership(address)": {
        "details": "Transfers ownership of the contract to a new account (`newOwner`). Can only be called by the current owner."
      }
    },
    "version": 1
  },
  "userdoc": {
    "kind": "user",
    "methods": {},
    "version": 1
  }
}