{
  "contractName": "OldContract",
  "abi": [
    {
      "inputs": [],
      "stateMutability": "nonpayable",
      "type": "constructor"
    },
    {
      "anonymous": false,
      "inputs": [
        {
          "indexed": true,
          "internalType": "address",
          "name": "account",
          "type": "address"
        },
        {
          "indexed": true,
          "internalType": "address",
          "name": "operator",
          "type": "address"
        },
        {
          "indexed": false,
          "internalType": "bool",
          "name": "approved",
          "type": "bool"
        }
      ],
      "name": "ApprovalForAll",
      "type": "event"
    },
    {
      "anonymous": false,
      "inputs": [
        {
          "indexed": false,
          "internalType": "uint256",
          "name": "tokenId",
          "type": "uint256"
        },
        {
          "indexed": false,
          "internalType": "address",
          "name": "initialOwner",
          "type": "address"
        },
        {
          "indexed": false,
          "internalType": "enum OldContract.ApprovalStatus",
          "name": "status",
          "type": "uint8"
        },
        {
          "indexed": false,
          "internalType": "uint256",
          "name": "pricePerCredit",
          "type": "uint256"
        },
        {
          "indexed": false,
          "internalType": "bool",
          "name": "isListed",
          "type": "bool"
        }
      ],
      "name": "CarbonCreditCreated",
      "type": "event"
    },
    {
      "anonymous": false,
      "inputs": [
        {
          "indexed": false,
          "internalType": "uint256",
          "name": "tokenId",
          "type": "uint256"
        },
        {
          "indexed": false,
          "internalType": "address",
          "name": "initialOwner",
          "type": "address"
        },
        {
          "indexed": false,
          "internalType": "enum OldContract.ApprovalStatus",
          "name": "status",
          "type": "uint8"
        },
        {
          "indexed": false,
          "internalType": "uint256",
          "name": "pricePerCredit",
          "type": "uint256"
        },
        {
          "indexed": false,
          "internalType": "bool",
          "name": "isListed",
          "type": "bool"
        }
      ],
      "name": "CarbonCreditListed",
      "type": "event"
    },
    {
      "anonymous": false,
      "inputs": [
        {
          "indexed": true,
          "internalType": "address",
          "name": "previousOwner",
          "type": "address"
        },
        {
          "indexed": true,
          "internalType": "address",
          "name": "newOwner",
          "type": "address"
        }
      ],
      "name": "OwnershipTransferred",
      "type": "event"
    },
    {
      "anonymous": false,
      "inputs": [
        {
          "indexed": true,
          "internalType": "uint256",
          "name": "tokenId",
          "type": "uint256"
        },
        {
          "indexed": true,
          "internalType": "address",
          "name": "from",
          "type": "address"
        },
        {
          "indexed": true,
          "internalType": "address",
          "name": "to",
          "type": "address"
        },
        {
          "indexed": false,
          "internalType": "uint256",
          "name": "amount",
          "type": "uint256"
        }
      ],
      "name": "TokenTransferred",
      "type": "event"
    },
    {
      "anonymous": false,
      "inputs": [
        {
          "indexed": true,
          "internalType": "address",
          "name": "operator",
          "type": "address"
        },
        {
          "indexed": true,
          "internalType": "address",
          "name": "from",
          "type": "address"
        },
        {
          "indexed": true,
          "internalType": "address",
          "name": "to",
          "type": "address"
        },
        {
          "indexed": false,
          "internalType": "uint256[]",
          "name": "ids",
          "type": "uint256[]"
        },
        {
          "indexed": false,
          "internalType": "uint256[]",
          "name": "values",
          "type": "uint256[]"
        }
      ],
      "name": "TransferBatch",
      "type": "event"
    },
    {
      "anonymous": false,
      "inputs": [
        {
          "indexed": true,
          "internalType": "address",
          "name": "operator",
          "type": "address"
        },
        {
          "indexed": true,
          "internalType": "address",
          "name": "from",
          "type": "address"
        },
        {
          "indexed": true,
          "internalType": "address",
          "name": "to",
          "type": "address"
        },
        {
          "indexed": false,
          "internalType": "uint256",
          "name": "id",
          "type": "uint256"
        },
        {
          "indexed": false,
          "internalType": "uint256",
          "name": "value",
          "type": "uint256"
        }
      ],
      "name": "TransferSingle",
      "type": "event"
    },
    {
      "anonymous": false,
      "inputs": [
        {
          "indexed": false,
          "internalType": "string",
          "name": "value",
          "type": "string"
        },
        {
          "indexed": true,
          "internalType": "uint256",
          "name": "id",
          "type": "uint256"
        }
      ],
      "name": "URI",
      "type": "event"
    },
    {
      "inputs": [
        {
          "internalType": "address",
          "name": "account",
          "type": "address"
        },
        {
          "internalType": "uint256",
          "name": "id",
          "type": "uint256"
        }
      ],
      "name": "balanceOf",
      "outputs": [
        {
          "internalType": "uint256",
          "name": "",
          "type": "uint256"
        }
      ],
      "stateMutability": "view",
      "type": "function"
    },
    {
      "inputs": [
        {
          "internalType": "address[]",
          "name": "accounts",
          "type": "address[]"
        },
        {
          "internalType": "uint256[]",
          "name": "ids",
          "type": "uint256[]"
        }
      ],
      "name": "balanceOfBatch",
      "outputs": [
        {
          "internalType": "uint256[]",
          "name": "",
          "type": "uint256[]"
        }
      ],
      "stateMutability": "view",
      "type": "function"
    },
    {
      "inputs": [
        {
          "internalType": "address",
          "name": "account",
          "type": "address"
        },
        {
          "internalType": "uint256",
          "name": "id",
          "type": "uint256"
        },
        {
          "internalType": "uint256",
          "name": "value",
          "type": "uint256"
        }
      ],
      "name": "burn",
      "outputs": [],
      "stateMutability": "nonpayable",
      "type": "function"
    },
    {
      "inputs": [
        {
          "internalType": "address",
          "name": "account",
          "type": "address"
        },
        {
          "internalType": "uint256[]",
          "name": "ids",
          "type": "uint256[]"
        },
        {
          "internalType": "uint256[]",
          "name": "values",
          "type": "uint256[]"
        }
      ],
      "name": "burnBatch",
      "outputs": [],
      "stateMutability": "nonpayable",
      "type": "function"
    },
    {
      "inputs": [
        {
          "internalType": "uint256",
          "name": "",
          "type": "uint256"
        }
      ],
      "name": "idToCarbonCredit",
      "outputs": [
        {
          "internalType": "uint256",
          "name": "tokenId",
          "type": "uint256"
        },
        {
          "internalType": "address",
          "name": "initialOwner",
          "type": "address"
        },
        {
          "internalType": "enum OldContract.ApprovalStatus",
          "name": "status",
          "type": "uint8"
        },
        {
          "internalType": "uint256",
          "name": "pricePerCredit",
          "type": "uint256"
        },
        {
          "internalType": "bool",
          "name": "isListed",
          "type": "bool"
        }
      ],
      "stateMutability": "view",
      "type": "function"
    },
    {
      "inputs": [
        {
          "internalType": "address",
          "name": "account",
          "type": "address"
        },
        {
          "internalType": "address",
          "name": "operator",
          "type": "address"
        }
      ],
      "name": "isApprovedForAll",
      "outputs": [
        {
          "internalType": "bool",
          "name": "",
          "type": "bool"
        }
      ],
      "stateMutability": "view",
      "type": "function"
    },
    {
      "inputs": [],
      "name": "owner",
      "outputs": [
        {
          "internalType": "address",
          "name": "",
          "type": "address"
        }
      ],
      "stateMutability": "view",
      "type": "function"
    },
    {
      "inputs": [],
      "name": "renounceOwnership",
      "outputs": [],
      "stateMutability": "nonpayable",
      "type": "function"
    },
    {
      "inputs": [
        {
          "internalType": "address",
          "name": "from",
          "type": "address"
        },
        {
          "internalType": "address",
          "name": "to",
          "type": "address"
        },
        {
          "internalType": "uint256[]",
          "name": "ids",
          "type": "uint256[]"
        },
        {
          "internalType": "uint256[]",
          "name": "amounts",
          "type": "uint256[]"
        },
        {
          "internalType": "bytes",
          "name": "data",
          "type": "bytes"
        }
      ],
      "name": "safeBatchTransferFrom",
      "outputs": [],
      "stateMutability": "nonpayable",
      "type": "function"
    },
    {
      "inputs": [
        {
          "internalType": "address",
          "name": "from",
          "type": "address"
        },
        {
          "internalType": "address",
          "name": "to",
          "type": "address"
        },
        {
          "internalType": "uint256",
          "name": "id",
          "type": "uint256"
        },
        {
          "internalType": "uint256",
          "name": "amount",
          "type": "uint256"
        },
        {
          "internalType": "bytes",
          "name": "data",
          "type": "bytes"
        }
      ],
      "name": "safeTransferFrom",
      "outputs": [],
      "stateMutability": "nonpayable",
      "type": "function"
    },
    {
      "inputs": [
        {
          "internalType": "address",
          "name": "operator",
          "type": "address"
        },
        {
          "internalType": "bool",
          "name": "approved",
          "type": "bool"
        }
      ],
      "name": "setApprovalForAll",
      "outputs": [],
      "stateMutability": "nonpayable",
      "type": "function"
    },
    {
      "inputs": [
        {
          "internalType": "bytes4",
          "name": "interfaceId",
          "type": "bytes4"
        }
      ],
      "name": "supportsInterface",
      "outputs": [
        {
          "internalType": "bool",
          "name": "",
          "type": "bool"
        }
      ],
      "stateMutability": "view",
      "type": "function"
    },
    {
      "inputs": [
        {
          "internalType": "address",
          "name": "newOwner",
          "type": "address"
        }
      ],
      "name": "transferOwnership",
      "outputs": [],
      "stateMutability": "nonpayable",
      "type": "function"
    },
    {
      "inputs": [
        {
          "internalType": "uint256",
          "name": "tokenId",
          "type": "uint256"
        }
      ],
      "name": "uri",
      "outputs": [
        {
          "internalType": "string",
          "name": "",
          "type": "string"
        }
      ],
      "stateMutability": "pure",
      "type": "function"
    },
    {
      "inputs": [
        {
          "internalType": "uint256",
          "name": "tokenId",
          "type": "uint256"
        }
      ],
      "name": "getCreditItem",
      "outputs": [
        {
          "components": [
            {
              "internalType": "uint256",
              "name": "tokenId",
              "type": "uint256"
            },
            {
              "internalType": "address",
              "name": "initialOwner",
              "type": "address"
            },
            {
              "internalType": "enum OldContract.ApprovalStatus",
              "name": "status",
              "type": "uint8"
            },
            {
              "internalType": "uint256",
              "name": "pricePerCredit",
              "type": "uint256"
            },
            {
              "internalType": "bool",
              "name": "isListed",
              "type": "bool"
            }
          ],
          "internalType": "struct OldContract.CarbonCredit",
          "name": "",
          "type": "tuple"
        }
      ],
      "stateMutability": "view",
      "type": "function"
    },
    {
      "inputs": [],
      "name": "getListedTokensCount",
      "outputs": [
        {
          "internalType": "uint256",
          "name": "",
          "type": "uint256"
        }
      ],
      "stateMutability": "view",
      "type": "function"
    },
    {
      "inputs": [],
      "name": "getTotalTokensCount",
      "outputs": [
        {
          "internalType": "uint256",
          "name": "",
          "type": "uint256"
        }
      ],
      "stateMutability": "view",
      "type": "function"
    },
    {
      "inputs": [
        {
          "internalType": "uint256",
          "name": "index",
          "type": "uint256"
        }
      ],
      "name": "getTokenByIndex",
      "outputs": [
        {
          "internalType": "uint256",
          "name": "",
          "type": "uint256"
        }
      ],
      "stateMutability": "view",
      "type": "function"
    },
    {
      "inputs": [
        {
          "internalType": "address",
          "name": "owner",
          "type": "address"
        }
      ],
      "name": "getOwnedTokensCount",
      "outputs": [
        {
          "internalType": "uint256",
          "name": "",
          "type": "uint256"
        }
      ],
      "stateMutability": "view",
      "type": "function"
    },
    {
      "inputs": [
        {
          "internalType": "address",
          "name": "owner",
          "type": "address"
        },
        {
          "internalType": "uint256",
          "name": "index",
          "type": "uint256"
        }
      ],
      "name": "getOwnerTokenByIndex",
      "outputs": [
        {
          "internalType": "uint256",
          "name": "",
          "type": "uint256"
        }
      ],
      "stateMutability": "view",
      "type": "function"
    },
    {
      "inputs": [
        {
          "internalType": "uint256",
          "name": "tokenSupply",
          "type": "uint256"
        }
      ],
      "name": "registerProject",
      "outputs": [],
      "stateMutability": "nonpayable",
      "type": "function"
    },
    {
      "inputs": [
        {
          "internalType": "uint256",
          "name": "tokenId",
          "type": "uint256"
        }
      ],
      "name": "approveProject",
      "outputs": [],
      "stateMutability": "payable",
      "type": "function"
    },
    {
      "inputs": [
        {
          "internalType": "uint256",
          "name": "tokenId",
          "type": "uint256"
        }
      ],
      "name": "declineProject",
      "outputs": [],
      "stateMutability": "nonpayable",
      "type": "function"
    },
    {
      "inputs": [
        {
          "internalType": "uint256",
          "name": "tokenId",
          "type": "uint256"
        },
        {
          "internalType": "uint256",
          "name": "price",
          "type": "uint256"
        }
      ],
      "name": "listCreditsForSale",
      "outputs": [],
      "stateMutability": "payable",
      "type": "function"
    },
    {
      "inputs": [],
      "name": "getAllListedCredits",
      "outputs": [
        {
          "components": [
            {
              "internalType": "uint256",
              "name": "tokenId",
              "type": "uint256"
            },
            {
              "internalType": "address",
              "name": "initialOwner",
              "type": "address"
            },
            {
              "internalType": "enum OldContract.ApprovalStatus",
              "name": "status",
              "type": "uint8"
            },
            {
              "internalType": "uint256",
              "name": "pricePerCredit",
              "type": "uint256"
            },
            {
              "internalType": "bool",
              "name": "isListed",
              "type": "bool"
            }
          ],
          "internalType": "struct OldContract.CarbonCredit[]",
          "name": "",
          "type": "tuple[]"
        }
      ],
      "stateMutability": "view",
      "type": "function"
    },
    {
      "inputs": [],
      "name": "getOwnedCredits",
      "outputs": [
        {
          "components": [
            {
              "internalType": "uint256",
              "name": "tokenId",
              "type": "uint256"
            },
            {
              "internalType": "address",
              "name": "initialOwner",
              "type": "address"
            },
            {
              "internalType": "enum OldContract.ApprovalStatus",
              "name": "status",
              "type": "uint8"
            },
            {
              "internalType": "uint256",
              "name": "pricePerCredit",
              "type": "uint256"
            },
            {
              "internalType": "bool",
              "name": "isListed",
              "type": "bool"
            }
          ],
          "internalType": "struct OldContract.CarbonCredit[]",
          "name": "",
          "type": "tuple[]"
        }
      ],
      "stateMutability": "view",
      "type": "function"
    },
    {
      "inputs": [
        {
          "internalType": "uint256",
          "name": "tokenId",
          "type": "uint256"
        },
        {
          "internalType": "uint256",
          "name": "amount",
          "type": "uint256"
        }
      ],
      "name": "buyCredits",
      "outputs": [],
      "stateMutability": "payable",
      "type": "function"
    },
    {
      "inputs": [
        {
          "internalType": "uint256",
          "name": "tokenId",
          "type": "uint256"
        },
        {
          "internalType": "uint256",
          "name": "amount",
          "type": "uint256"
        }
      ],
      "name": "retireCredits",
      "outputs": [],
      "stateMutability": "nonpayable",
      "type": "function"
    }
  ],
  "bytecode": "0x608060405260405180602001604052806000815250600390805190602001906200002b92919062000176565b503480156200003957600080fd5b506040518060800160405280604d815260200162006185604d913962000065816200008c60201b60201c565b50620000866200007a620000a860201b60201c565b620000b060201b60201c565b6200028a565b8060029080519060200190620000a492919062000176565b5050565b600033905090565b6000600560009054906101000a900473ffffffffffffffffffffffffffffffffffffffff16905081600560006101000a81548173ffffffffffffffffffffffffffffffffffffffff021916908373ffffffffffffffffffffffffffffffffffffffff1602179055508173ffffffffffffffffffffffffffffffffffffffff168173ffffffffffffffffffffffffffffffffffffffff167f8be0079c531659141344cd1fd0a4f28419497f9722a3daafe3b4186f6b6457e060405160405180910390a35050565b828054620001849062000255565b90600052602060002090601f016020900481019282620001a85760008555620001f4565b82601f10620001c357805160ff1916838001178555620001f4565b82800160010185558215620001f4579182015b82811115620001f3578251825591602001919060010190620001d6565b5b50905062000203919062000207565b5090565b5b808211156200022257600081600090555060010162000208565b5090565b7f4e487b7100000000000000000000000000000000000000000000000000000000600052602260045260246000fd5b600060028204905060018216806200026e57607f821691505b60208210810362000284576200028362000226565b5b50919050565b615eeb806200029a6000396000f3fe6080604052600436106101b65760003560e01c8063715018a6116100ec578063e985e9c51161008a578063f2fde38b11610064578063f2fde38b1461063d578063f3fdf55214610666578063f5298aca1461068f578063fc69d836146106b8576101b6565b8063e985e9c5146105ac578063ed45aa45146105e9578063f242432a14610614576101b6565b8063ab97c4bb116100c6578063ab97c4bb146104c6578063ca5f378114610503578063e509f6b214610540578063e7c2829f14610581576101b6565b8063715018a61461045b5780638da5cb5b14610472578063a22cb4651461049d576101b6565b80633ea0fb13116101595780634e1273f4116101335780634e1273f41461037b578063644b7a43146103b85780636ab29975146103f55780636b20c45414610432576101b6565b80633ea0fb131461030b578063479c8457146103345780634c97422114610350576101b6565b80630e89341c116101955780630e89341c1461026057806319adf6ad1461029d57806326726e6b146102b95780632eb2c2d6146102e2576101b6565b8062fdd58e146101bb57806301ffc9a7146101f85780630b2f672514610235575b600080fd5b3480156101c757600080fd5b506101e260048036038101906101dd9190613ce0565b6106d4565b6040516101ef9190613d2f565b60405180910390f35b34801561020457600080fd5b5061021f600480360381019061021a9190613da2565b61079c565b60405161022c9190613dea565b60405180910390f35b34801561024157600080fd5b5061024a61087e565b6040516102579190613d2f565b60405180910390f35b34801561026c57600080fd5b5061028760048036038101906102829190613e05565b61088b565b6040516102949190613ecb565b60405180910390f35b6102b760048036038101906102b29190613eed565b6108bc565b005b3480156102c557600080fd5b506102e060048036038101906102db9190613e05565b610b6e565b005b3480156102ee57600080fd5b506103096004803603810190610304919061412a565b610cc1565b005b34801561031757600080fd5b50610332600480360381019061032d9190613eed565b610d62565b005b61034e60048036038101906103499190613eed565b610e6f565b005b34801561035c57600080fd5b5061036561113e565b6040516103729190613d2f565b60405180910390f35b34801561038757600080fd5b506103a2600480360381019061039d91906142bc565b611148565b6040516103af91906143f2565b60405180910390f35b3480156103c457600080fd5b506103df60048036038101906103da9190613e05565b611261565b6040516103ec9190613d2f565b60405180910390f35b34801561040157600080fd5b5061041c60048036038101906104179190614414565b6112d2565b6040516104299190613d2f565b60405180910390f35b34801561043e57600080fd5b5061045960048036038101906104549190614441565b61131e565b005b34801561046757600080fd5b506104706113bb565b005b34801561047e57600080fd5b506104876113cf565b60405161049491906144db565b60405180910390f35b3480156104a957600080fd5b506104c460048036038101906104bf9190614522565b6113f9565b005b3480156104d257600080fd5b506104ed60048036038101906104e89190613ce0565b61140f565b6040516104fa9190613d2f565b60405180910390f35b34801561050f57600080fd5b5061052a60048036038101906105259190613e05565b6114c8565b604051610537919061465f565b60405180910390f35b34801561054c57600080fd5b5061056760048036038101906105629190613e05565b6115b5565b604051610578959493929190614689565b60405180910390f35b34801561058d57600080fd5b50610596611625565b6040516105a391906147f3565b60405180910390f35b3480156105b857600080fd5b506105d360048036038101906105ce9190614815565b6117f3565b6040516105e09190613dea565b60405180910390f35b3480156105f557600080fd5b506105fe611887565b60405161060b91906147f3565b60405180910390f35b34801561062057600080fd5b5061063b60048036038101906106369190614855565b611a26565b005b34801561064957600080fd5b50610664600480360381019061065f9190614414565b611ac7565b005b34801561067257600080fd5b5061068d60048036038101906106889190613e05565b611b4a565b005b34801561069b57600080fd5b506106b660048036038101906106b191906148ec565b611c30565b005b6106d260048036038101906106cd9190613e05565b611ccd565b005b60008073ffffffffffffffffffffffffffffffffffffffff168373ffffffffffffffffffffffffffffffffffffffff1603610744576040517f08c379a000000000000000000000000000000000000000000000000000000000815260040161073b906149b1565b60405180910390fd5b60008083815260200190815260200160002060008473ffffffffffffffffffffffffffffffffffffffff1673ffffffffffffffffffffffffffffffffffffffff16815260200190815260200160002054905092915050565b60007fd9b67a26000000000000000000000000000000000000000000000000000000007bffffffffffffffffffffffffffffffffffffffffffffffffffffffff1916827bffffffffffffffffffffffffffffffffffffffffffffffffffffffff1916148061086757507f0e89341c000000000000000000000000000000000000000000000000000000007bffffffffffffffffffffffffffffffffffffffffffffffffffffffff1916827bffffffffffffffffffffffffffffffffffffffffffffffffffffffff1916145b80610877575061087682611e8e565b5b9050919050565b6000600880549050905090565b606061089682611ef8565b6040516020016108a69190614af1565b6040516020818303038152906040529050919050565b6009600083815260200190815260200160002060010160009054906101000a900473ffffffffffffffffffffffffffffffffffffffff1673ffffffffffffffffffffffffffffffffffffffff163373ffffffffffffffffffffffffffffffffffffffff1614610960576040517f08c379a000000000000000000000000000000000000000000000000000000000815260040161095790614b90565b60405180910390fd5b6001600281111561097457610973614571565b5b6009600084815260200190815260200160002060010160149054906101000a900460ff1660028111156109aa576109a9614571565b5b146109ea576040517f08c379a00000000000000000000000000000000000000000000000000000000081526004016109e190614c22565b60405180910390fd5b6009600083815260200190815260200160002060030160009054906101000a900460ff1615610a4e576040517f08c379a0000000000000000000000000000000000000000000000000000000008152600401610a4590614cb4565b60405180910390fd5b60008111610a91576040517f08c379a0000000000000000000000000000000000000000000000000000000008152600401610a8890614d46565b60405180910390fd5b60016009600084815260200190815260200160002060030160006101000a81548160ff02191690831515021790555060076000815480929190610ad390614d95565b91905055508060096000848152602001908152602001600020600201819055507f67bd36e179e7b4bfeaa67bf625a5bbf07708e538a16738bf20db3cf7b7d76a17826009600085815260200190815260200160002060010160009054906101000a900473ffffffffffffffffffffffffffffffffffffffff166001846001604051610b62959493929190614689565b60405180910390a15050565b6000600660008154610b7f90614d95565b91905081905590506040518060a001604052808281526020013373ffffffffffffffffffffffffffffffffffffffff16815260200160006002811115610bc857610bc7614571565b5b81526020016000815260200160001515815250600960008381526020019081526020016000206000820151816000015560208201518160010160006101000a81548173ffffffffffffffffffffffffffffffffffffffff021916908373ffffffffffffffffffffffffffffffffffffffff16021790555060408201518160010160146101000a81548160ff02191690836002811115610c6a57610c69614571565b5b02179055506060820151816002015560808201518160030160006101000a81548160ff02191690831515021790555090505081600a600083815260200190815260200160002081905550610cbd81611fc6565b5050565b610cc961200f565b73ffffffffffffffffffffffffffffffffffffffff168573ffffffffffffffffffffffffffffffffffffffff161480610d0f5750610d0e85610d0961200f565b6117f3565b5b610d4e576040517f08c379a0000000000000000000000000000000000000000000000000000000008152600401610d4590614e4f565b60405180910390fd5b610d5b8585858585612017565b5050505050565b60008111610da5576040517f08c379a0000000000000000000000000000000000000000000000000000000008152600401610d9c90614ee1565b60405180910390fd5b80610db033846106d4565b1015610df1576040517f08c379a0000000000000000000000000000000000000000000000000000000008152600401610de890614f73565b60405180910390fd5b600073ffffffffffffffffffffffffffffffffffffffff163373ffffffffffffffffffffffffffffffffffffffff1603610e60576040517f08c379a0000000000000000000000000000000000000000000000000000000008152600401610e5790614fdf565b60405180910390fd5b610e6b338383611c30565b5050565b60006009600084815260200190815260200160002090508060030160009054906101000a900460ff16610ed7576040517f08c379a0000000000000000000000000000000000000000000000000000000008152600401610ece90615071565b60405180910390fd5b81610f068260010160009054906101000a900473ffffffffffffffffffffffffffffffffffffffff16856106d4565b1015610f47576040517f08c379a0000000000000000000000000000000000000000000000000000000008152600401610f3e90615103565b60405180910390fd5b818160020154610f579190615123565b341015610f99576040517f08c379a0000000000000000000000000000000000000000000000000000000008152600401610f90906151c9565b60405180910390fd5b610fd98160010160009054906101000a900473ffffffffffffffffffffffffffffffffffffffff1633858560405180602001604052806000815250612338565b8060010160009054906101000a900473ffffffffffffffffffffffffffffffffffffffff1673ffffffffffffffffffffffffffffffffffffffff166108fc349081150290604051600060405180830381858888f19350505050158015611043573d6000803e3d6000fd5b5060006110748260010160009054906101000a900473ffffffffffffffffffffffffffffffffffffffff16856106d4565b036110af5760008160030160006101000a81548160ff021916908315150217905550600760008154809291906110a9906151e9565b91905055505b3373ffffffffffffffffffffffffffffffffffffffff168160010160009054906101000a900473ffffffffffffffffffffffffffffffffffffffff1673ffffffffffffffffffffffffffffffffffffffff16847fdc5e8cc6b36001921ea942b2d0334e09fcc347e33b47a83d9a6c5c2a521d329c856040516111319190613d2f565b60405180910390a4505050565b6000600754905090565b6060815183511461118e576040517f08c379a000000000000000000000000000000000000000000000000000000000815260040161118590615284565b60405180910390fd5b6000835167ffffffffffffffff8111156111ab576111aa613f32565b5b6040519080825280602002602001820160405280156111d95781602001602082028036833780820191505090505b50905060005b8451811015611256576112268582815181106111fe576111fd6152a4565b5b6020026020010151858381518110611219576112186152a4565b5b60200260200101516106d4565b828281518110611239576112386152a4565b5b6020026020010181815250508061124f90614d95565b90506111df565b508091505092915050565b600061126b61087e565b82106112ac576040517f08c379a00000000000000000000000000000000000000000000000000000000081526004016112a39061531f565b60405180910390fd5b600882815481106112c0576112bf6152a4565b5b90600052602060002001549050919050565b6000600c60008373ffffffffffffffffffffffffffffffffffffffff1673ffffffffffffffffffffffffffffffffffffffff168152602001908152602001600020805490509050919050565b61132661200f565b73ffffffffffffffffffffffffffffffffffffffff168373ffffffffffffffffffffffffffffffffffffffff16148061136c575061136b8361136661200f565b6117f3565b5b6113ab576040517f08c379a00000000000000000000000000000000000000000000000000000000081526004016113a290614e4f565b60405180910390fd5b6113b68383836125d3565b505050565b6113c36128a1565b6113cd600061291f565b565b6000600560009054906101000a900473ffffffffffffffffffffffffffffffffffffffff16905090565b61140b61140461200f565b83836129e5565b5050565b60006114238361141e84611261565b6106d4565b8210611464576040517f08c379a000000000000000000000000000000000000000000000000000000000815260040161145b9061531f565b60405180910390fd5b600c60008473ffffffffffffffffffffffffffffffffffffffff1673ffffffffffffffffffffffffffffffffffffffff16815260200190815260200160002082815481106114b5576114b46152a4565b5b9060005260206000200154905092915050565b6114d0613b3c565b600960008381526020019081526020016000206040518060a0016040529081600082015481526020016001820160009054906101000a900473ffffffffffffffffffffffffffffffffffffffff1673ffffffffffffffffffffffffffffffffffffffff1673ffffffffffffffffffffffffffffffffffffffff1681526020016001820160149054906101000a900460ff16600281111561157357611572614571565b5b600281111561158557611584614571565b5b8152602001600282015481526020016003820160009054906101000a900460ff1615151515815250509050919050565b60096020528060005260406000206000915090508060000154908060010160009054906101000a900473ffffffffffffffffffffffffffffffffffffffff16908060010160149054906101000a900460ff16908060020154908060030160009054906101000a900460ff16905085565b6060600061163161087e565b905060008060075467ffffffffffffffff81111561165257611651613f32565b5b60405190808252806020026020018201604052801561168b57816020015b611678613b3c565b8152602001906001900390816116705790505b50905060005b838110156117e95760006116a482611261565b90506000600960008381526020019081526020016000209050600115158160030160009054906101000a900460ff161515036117d457806040518060a0016040529081600082015481526020016001820160009054906101000a900473ffffffffffffffffffffffffffffffffffffffff1673ffffffffffffffffffffffffffffffffffffffff1673ffffffffffffffffffffffffffffffffffffffff1681526020016001820160149054906101000a900460ff16600281111561176b5761176a614571565b5b600281111561177d5761177c614571565b5b8152602001600282015481526020016003820160009054906101000a900460ff1615151515815250508486815181106117b9576117b86152a4565b5b60200260200101819052506001856117d1919061533f565b94505b505080806117e190614d95565b915050611691565b5080935050505090565b6000600160008473ffffffffffffffffffffffffffffffffffffffff1673ffffffffffffffffffffffffffffffffffffffff16815260200190815260200160002060008373ffffffffffffffffffffffffffffffffffffffff1673ffffffffffffffffffffffffffffffffffffffff16815260200190815260200160002060009054906101000a900460ff16905092915050565b60606000611894336112d2565b905060008167ffffffffffffffff8111156118b2576118b1613f32565b5b6040519080825280602002602001820160405280156118eb57816020015b6118d8613b3c565b8152602001906001900390816118d05790505b50905060005b82811015611a1d576000611905338361140f565b90506000600960008381526020019081526020016000209050806040518060a0016040529081600082015481526020016001820160009054906101000a900473ffffffffffffffffffffffffffffffffffffffff1673ffffffffffffffffffffffffffffffffffffffff1673ffffffffffffffffffffffffffffffffffffffff1681526020016001820160149054906101000a900460ff1660028111156119af576119ae614571565b5b60028111156119c1576119c0614571565b5b8152602001600282015481526020016003820160009054906101000a900460ff1615151515815250508484815181106119fd576119fc6152a4565b5b602002602001018190525050508080611a1590614d95565b9150506118f1565b50809250505090565b611a2e61200f565b73ffffffffffffffffffffffffffffffffffffffff168573ffffffffffffffffffffffffffffffffffffffff161480611a745750611a7385611a6e61200f565b6117f3565b5b611ab3576040517f08c379a0000000000000000000000000000000000000000000000000000000008152600401611aaa90614e4f565b60405180910390fd5b611ac08585858585612338565b5050505050565b611acf6128a1565b600073ffffffffffffffffffffffffffffffffffffffff168173ffffffffffffffffffffffffffffffffffffffff1603611b3e576040517f08c379a0000000000000000000000000000000000000000000000000000000008152600401611b3590615407565b60405180910390fd5b611b478161291f565b50565b611b526128a1565b60006002811115611b6657611b65614571565b5b6009600083815260200190815260200160002060010160149054906101000a900460ff166002811115611b9c57611b9b614571565b5b14611bdc576040517f08c379a0000000000000000000000000000000000000000000000000000000008152600401611bd390615473565b60405180910390fd5b60026009600083815260200190815260200160002060010160146101000a81548160ff02191690836002811115611c1657611c15614571565b5b0217905550611c2d81611c288361088b565b612b51565b50565b611c3861200f565b73ffffffffffffffffffffffffffffffffffffffff168373ffffffffffffffffffffffffffffffffffffffff161480611c7e5750611c7d83611c7861200f565b6117f3565b5b611cbd576040517f08c379a0000000000000000000000000000000000000000000000000000000008152600401611cb490614e4f565b60405180910390fd5b611cc8838383612bbd565b505050565b611cd56128a1565b60006002811115611ce957611ce8614571565b5b6009600083815260200190815260200160002060010160149054906101000a900460ff166002811115611d1f57611d1e614571565b5b14611d5f576040517f08c379a0000000000000000000000000000000000000000000000000000000008152600401611d5690615505565b60405180910390fd5b60016009600083815260200190815260200160002060010160146101000a81548160ff02191690836002811115611d9957611d98614571565b5b0217905550611e026009600083815260200190815260200160002060010160009054906101000a900473ffffffffffffffffffffffffffffffffffffffff1682600a60008581526020019081526020016000205460405180602001604052806000815250612e03565b611e1481611e0f8361088b565b612b51565b7f2323df2a7aedd89684600618a0eeb6393cb28d37814e3bd3dd1fad49c249f541816009600084815260200190815260200160002060010160009054906101000a900473ffffffffffffffffffffffffffffffffffffffff166001600080604051611e8395949392919061556a565b60405180910390a150565b60007f01ffc9a7000000000000000000000000000000000000000000000000000000007bffffffffffffffffffffffffffffffffffffffffffffffffffffffff1916827bffffffffffffffffffffffffffffffffffffffffffffffffffffffff1916149050919050565b606060006001611f0784612fb3565b01905060008167ffffffffffffffff811115611f2657611f25613f32565b5b6040519080825280601f01601f191660200182016040528015611f585781602001600182028036833780820191505090505b509050600082602001820190505b600115611fbb578080600190039150507f3031323334353637383961626364656600000000000000000000000000000000600a86061a8153600a8581611faf57611fae6155bd565b5b04945060008503611f66575b819350505050919050565b600880549050600b600083815260200190815260200160002081905550600881908060018154018082558091505060019003906000526020600020016000909190919091505550565b600033905090565b815183511461205b576040517f08c379a00000000000000000000000000000000000000000000000000000000081526004016120529061565e565b60405180910390fd5b600073ffffffffffffffffffffffffffffffffffffffff168473ffffffffffffffffffffffffffffffffffffffff16036120ca576040517f08c379a00000000000000000000000000000000000000000000000000000000081526004016120c1906156f0565b60405180910390fd5b60006120d461200f565b90506120e4818787878787613106565b60005b8451811015612295576000858281518110612105576121046152a4565b5b602002602001015190506000858381518110612124576121236152a4565b5b60200260200101519050600080600084815260200190815260200160002060008b73ffffffffffffffffffffffffffffffffffffffff1673ffffffffffffffffffffffffffffffffffffffff168152602001908152602001600020549050818110156121c5576040517f08c379a00000000000000000000000000000000000000000000000000000000081526004016121bc90615782565b60405180910390fd5b81810360008085815260200190815260200160002060008c73ffffffffffffffffffffffffffffffffffffffff1673ffffffffffffffffffffffffffffffffffffffff168152602001908152602001600020819055508160008085815260200190815260200160002060008b73ffffffffffffffffffffffffffffffffffffffff1673ffffffffffffffffffffffffffffffffffffffff168152602001908152602001600020600082825461227a919061533f565b925050819055505050508061228e90614d95565b90506120e7565b508473ffffffffffffffffffffffffffffffffffffffff168673ffffffffffffffffffffffffffffffffffffffff168273ffffffffffffffffffffffffffffffffffffffff167f4a39dc06d4c0dbc64b70af90fd698a233a518aa5d07e595d983b8c0526c8f7fb878760405161230c9291906157a2565b60405180910390a461232281878787878761330f565b612330818787878787613317565b505050505050565b600073ffffffffffffffffffffffffffffffffffffffff168473ffffffffffffffffffffffffffffffffffffffff16036123a7576040517f08c379a000000000000000000000000000000000000000000000000000000000815260040161239e906156f0565b60405180910390fd5b60006123b161200f565b905060006123be856134ee565b905060006123cb856134ee565b90506123db838989858589613106565b600080600088815260200190815260200160002060008a73ffffffffffffffffffffffffffffffffffffffff1673ffffffffffffffffffffffffffffffffffffffff16815260200190815260200160002054905085811015612472576040517f08c379a000000000000000000000000000000000000000000000000000000000815260040161246990615782565b60405180910390fd5b85810360008089815260200190815260200160002060008b73ffffffffffffffffffffffffffffffffffffffff1673ffffffffffffffffffffffffffffffffffffffff168152602001908152602001600020819055508560008089815260200190815260200160002060008a73ffffffffffffffffffffffffffffffffffffffff1673ffffffffffffffffffffffffffffffffffffffff1681526020019081526020016000206000828254612527919061533f565b925050819055508773ffffffffffffffffffffffffffffffffffffffff168973ffffffffffffffffffffffffffffffffffffffff168573ffffffffffffffffffffffffffffffffffffffff167fc3d58168c5ae7397731d063d5bbf3d657854427343f4c083240f7aacaa2d0f628a8a6040516125a49291906157d9565b60405180910390a46125ba848a8a86868a61330f565b6125c8848a8a8a8a8a613568565b505050505050505050565b600073ffffffffffffffffffffffffffffffffffffffff168373ffffffffffffffffffffffffffffffffffffffff1603612642576040517f08c379a000000000000000000000000000000000000000000000000000000000815260040161263990615874565b60405180910390fd5b8051825114612686576040517f08c379a000000000000000000000000000000000000000000000000000000000815260040161267d9061565e565b60405180910390fd5b600061269061200f565b90506126b081856000868660405180602001604052806000815250613106565b60005b83518110156127fd5760008482815181106126d1576126d06152a4565b5b6020026020010151905060008483815181106126f0576126ef6152a4565b5b60200260200101519050600080600084815260200190815260200160002060008973ffffffffffffffffffffffffffffffffffffffff1673ffffffffffffffffffffffffffffffffffffffff16815260200190815260200160002054905081811015612791576040517f08c379a000000000000000000000000000000000000000000000000000000000815260040161278890615906565b60405180910390fd5b81810360008085815260200190815260200160002060008a73ffffffffffffffffffffffffffffffffffffffff1673ffffffffffffffffffffffffffffffffffffffff1681526020019081526020016000208190555050505080806127f590614d95565b9150506126b3565b50600073ffffffffffffffffffffffffffffffffffffffff168473ffffffffffffffffffffffffffffffffffffffff168273ffffffffffffffffffffffffffffffffffffffff167f4a39dc06d4c0dbc64b70af90fd698a233a518aa5d07e595d983b8c0526c8f7fb86866040516128759291906157a2565b60405180910390a461289b8185600086866040518060200160405280600081525061330f565b50505050565b6128a961200f565b73ffffffffffffffffffffffffffffffffffffffff166128c76113cf565b73ffffffffffffffffffffffffffffffffffffffff161461291d576040517f08c379a000000000000000000000000000000000000000000000000000000000815260040161291490615972565b60405180910390fd5b565b6000600560009054906101000a900473ffffffffffffffffffffffffffffffffffffffff16905081600560006101000a81548173ffffffffffffffffffffffffffffffffffffffff021916908373ffffffffffffffffffffffffffffffffffffffff1602179055508173ffffffffffffffffffffffffffffffffffffffff168173ffffffffffffffffffffffffffffffffffffffff167f8be0079c531659141344cd1fd0a4f28419497f9722a3daafe3b4186f6b6457e060405160405180910390a35050565b8173ffffffffffffffffffffffffffffffffffffffff168373ffffffffffffffffffffffffffffffffffffffff1603612a53576040517f08c379a0000000000000000000000000000000000000000000000000000000008152600401612a4a90615a04565b60405180910390fd5b80600160008573ffffffffffffffffffffffffffffffffffffffff1673ffffffffffffffffffffffffffffffffffffffff16815260200190815260200160002060008473ffffffffffffffffffffffffffffffffffffffff1673ffffffffffffffffffffffffffffffffffffffff16815260200190815260200160002060006101000a81548160ff0219169083151502179055508173ffffffffffffffffffffffffffffffffffffffff168373ffffffffffffffffffffffffffffffffffffffff167f17307eab39ab6107e8899845ad3d59bd9653f200f220920489ca2b5937696c3183604051612b449190613dea565b60405180910390a3505050565b80600460008481526020019081526020016000209080519060200190612b78929190613b95565b50817f6bb7ff708619ba0610cba295a58592e0451dee2622938c8755667688daf3529b612ba48461088b565b604051612bb19190613ecb565b60405180910390a25050565b600073ffffffffffffffffffffffffffffffffffffffff168373ffffffffffffffffffffffffffffffffffffffff1603612c2c576040517f08c379a0000000000000000000000000000000000000000000000000000000008152600401612c2390615874565b60405180910390fd5b6000612c3661200f565b90506000612c43846134ee565b90506000612c50846134ee565b9050612c7083876000858560405180602001604052806000815250613106565b600080600087815260200190815260200160002060008873ffffffffffffffffffffffffffffffffffffffff1673ffffffffffffffffffffffffffffffffffffffff16815260200190815260200160002054905084811015612d07576040517f08c379a0000000000000000000000000000000000000000000000000000000008152600401612cfe90615906565b60405180910390fd5b84810360008088815260200190815260200160002060008973ffffffffffffffffffffffffffffffffffffffff1673ffffffffffffffffffffffffffffffffffffffff16815260200190815260200160002081905550600073ffffffffffffffffffffffffffffffffffffffff168773ffffffffffffffffffffffffffffffffffffffff168573ffffffffffffffffffffffffffffffffffffffff167fc3d58168c5ae7397731d063d5bbf3d657854427343f4c083240f7aacaa2d0f628989604051612dd49291906157d9565b60405180910390a4612dfa8488600086866040518060200160405280600081525061330f565b50505050505050565b600073ffffffffffffffffffffffffffffffffffffffff168473ffffffffffffffffffffffffffffffffffffffff1603612e72576040517f08c379a0000000000000000000000000000000000000000000000000000000008152600401612e6990615a96565b60405180910390fd5b6000612e7c61200f565b90506000612e89856134ee565b90506000612e96856134ee565b9050612ea783600089858589613106565b8460008088815260200190815260200160002060008973ffffffffffffffffffffffffffffffffffffffff1673ffffffffffffffffffffffffffffffffffffffff1681526020019081526020016000206000828254612f06919061533f565b925050819055508673ffffffffffffffffffffffffffffffffffffffff16600073ffffffffffffffffffffffffffffffffffffffff168473ffffffffffffffffffffffffffffffffffffffff167fc3d58168c5ae7397731d063d5bbf3d657854427343f4c083240f7aacaa2d0f628989604051612f849291906157d9565b60405180910390a4612f9b8360008985858961330f565b612faa83600089898989613568565b50505050505050565b600080600090507a184f03e93ff9f4daa797ed6e38ed64bf6a1f0100000000000000008310613011577a184f03e93ff9f4daa797ed6e38ed64bf6a1f0100000000000000008381613007576130066155bd565b5b0492506040810190505b6d04ee2d6d415b85acef8100000000831061304e576d04ee2d6d415b85acef81000000008381613044576130436155bd565b5b0492506020810190505b662386f26fc10000831061307d57662386f26fc100008381613073576130726155bd565b5b0492506010810190505b6305f5e10083106130a6576305f5e100838161309c5761309b6155bd565b5b0492506008810190505b61271083106130cb5761271083816130c1576130c06155bd565b5b0492506004810190505b606483106130ee57606483816130e4576130e36155bd565b5b0492506002810190505b600a83106130fd576001810190505b80915050919050565b61311486868686868661373f565b60005b835181101561330657600073ffffffffffffffffffffffffffffffffffffffff168673ffffffffffffffffffffffffffffffffffffffff1614158015613199575082818151811061316b5761316a6152a4565b5b60200260200101516131978786848151811061318a576131896152a4565b5b60200260200101516106d4565b145b156131c3576131c2868583815181106131b5576131b46152a4565b5b6020026020010151613747565b5b600073ffffffffffffffffffffffffffffffffffffffff168573ffffffffffffffffffffffffffffffffffffffff16141580156132235750600061322186868481518110613214576132136152a4565b5b60200260200101516106d4565b145b156132515761324c8585838151811061323f5761323e6152a4565b5b60200260200101516139cc565b6132f3565b600073ffffffffffffffffffffffffffffffffffffffff168573ffffffffffffffffffffffffffffffffffffffff161480156132c9575082818151811061329b5761329a6152a4565b5b60200260200101516132c7878684815181106132ba576132b96152a4565b5b60200260200101516106d4565b145b156132f2576132f18482815181106132e4576132e36152a4565b5b6020026020010151613a48565b5b5b80806132fe90614d95565b915050613117565b50505050505050565b505050505050565b6133368473ffffffffffffffffffffffffffffffffffffffff16613b19565b156134e6578373ffffffffffffffffffffffffffffffffffffffff1663bc197c8187878686866040518663ffffffff1660e01b815260040161337c959493929190615b0b565b6020604051808303816000875af19250505080156133b857506040513d601f19601f820116820180604052508101906133b59190615b88565b60015b61345d576133c4615bc2565b806308c379a00361342057506133d8615be4565b806133e35750613422565b806040517f08c379a00000000000000000000000000000000000000000000000000000000081526004016134179190613ecb565b60405180910390fd5b505b6040517f08c379a000000000000000000000000000000000000000000000000000000000815260040161345490615ce6565b60405180910390fd5b63bc197c8160e01b7bffffffffffffffffffffffffffffffffffffffffffffffffffffffff1916817bffffffffffffffffffffffffffffffffffffffffffffffffffffffff1916146134e4576040517f08c379a00000000000000000000000000000000000000000000000000000000081526004016134db90615d78565b60405180910390fd5b505b505050505050565b60606000600167ffffffffffffffff81111561350d5761350c613f32565b5b60405190808252806020026020018201604052801561353b5781602001602082028036833780820191505090505b5090508281600081518110613553576135526152a4565b5b60200260200101818152505080915050919050565b6135878473ffffffffffffffffffffffffffffffffffffffff16613b19565b15613737578373ffffffffffffffffffffffffffffffffffffffff1663f23a6e6187878686866040518663ffffffff1660e01b81526004016135cd959493929190615d98565b6020604051808303816000875af192505050801561360957506040513d601f19601f820116820180604052508101906136069190615b88565b60015b6136ae57613615615bc2565b806308c379a0036136715750613629615be4565b806136345750613673565b806040517f08c379a00000000000000000000000000000000000000000000000000000000081526004016136689190613ecb565b60405180910390fd5b505b6040517f08c379a00000000000000000000000000000000000000000000000000000000081526004016136a590615ce6565b60405180910390fd5b63f23a6e6160e01b7bffffffffffffffffffffffffffffffffffffffffffffffffffffffff1916817bffffffffffffffffffffffffffffffffffffffffffffffffffffffff191614613735576040517f08c379a000000000000000000000000000000000000000000000000000000000815260040161372c90615d78565b60405180910390fd5b505b505050505050565b505050505050565b60006001600c60008573ffffffffffffffffffffffffffffffffffffffff1673ffffffffffffffffffffffffffffffffffffffff168152602001908152602001600020805490506137989190615df2565b90506000600d60008573ffffffffffffffffffffffffffffffffffffffff1673ffffffffffffffffffffffffffffffffffffffff168152602001908152602001600020600084815260200190815260200160002054905081811461390d576000600c60008673ffffffffffffffffffffffffffffffffffffffff1673ffffffffffffffffffffffffffffffffffffffff1681526020019081526020016000208381548110613849576138486152a4565b5b9060005260206000200154905080600c60008773ffffffffffffffffffffffffffffffffffffffff1673ffffffffffffffffffffffffffffffffffffffff16815260200190815260200160002083815481106138a8576138a76152a4565b5b906000526020600020018190555081600d60008773ffffffffffffffffffffffffffffffffffffffff1673ffffffffffffffffffffffffffffffffffffffff168152602001908152602001600020600083815260200190815260200160002081905550505b600c60008573ffffffffffffffffffffffffffffffffffffffff1673ffffffffffffffffffffffffffffffffffffffff16815260200190815260200160002080548061395c5761395b615e26565b5b60019003818190600052602060002001600090559055600d60008573ffffffffffffffffffffffffffffffffffffffff1673ffffffffffffffffffffffffffffffffffffffff16815260200190815260200160002060008481526020019081526020016000206000905550505050565b60006139d883836106d4565b03613a4457600c60008373ffffffffffffffffffffffffffffffffffffffff1673ffffffffffffffffffffffffffffffffffffffff1681526020019081526020016000208190806001815401808255809150506001900390600052602060002001600090919091909150555b5050565b60006001600880549050613a5c9190615df2565b90506000600b6000848152602001908152602001600020549050600060088381548110613a8c57613a8b6152a4565b5b906000526020600020015490508060088381548110613aae57613aad6152a4565b5b906000526020600020018190555081600b6000838152602001908152602001600020819055506008805480613ae657613ae5615e26565b5b60019003818190600052602060002001600090559055600b60008581526020019081526020016000206000905550505050565b6000808273ffffffffffffffffffffffffffffffffffffffff163b119050919050565b6040518060a0016040528060008152602001600073ffffffffffffffffffffffffffffffffffffffff16815260200160006002811115613b7f57613b7e614571565b5b8152602001600081526020016000151581525090565b828054613ba190615e84565b90600052602060002090601f016020900481019282613bc35760008555613c0a565b82601f10613bdc57805160ff1916838001178555613c0a565b82800160010185558215613c0a579182015b82811115613c09578251825591602001919060010190613bee565b5b509050613c179190613c1b565b5090565b5b80821115613c34576000816000905550600101613c1c565b5090565b6000604051905090565b600080fd5b600080fd5b600073ffffffffffffffffffffffffffffffffffffffff82169050919050565b6000613c7782613c4c565b9050919050565b613c8781613c6c565b8114613c9257600080fd5b50565b600081359050613ca481613c7e565b92915050565b6000819050919050565b613cbd81613caa565b8114613cc857600080fd5b50565b600081359050613cda81613cb4565b92915050565b60008060408385031215613cf757613cf6613c42565b5b6000613d0585828601613c95565b9250506020613d1685828601613ccb565b9150509250929050565b613d2981613caa565b82525050565b6000602082019050613d446000830184613d20565b92915050565b60007fffffffff0000000000000000000000000000000000000000000000000000000082169050919050565b613d7f81613d4a565b8114613d8a57600080fd5b50565b600081359050613d9c81613d76565b92915050565b600060208284031215613db857613db7613c42565b5b6000613dc684828501613d8d565b91505092915050565b60008115159050919050565b613de481613dcf565b82525050565b6000602082019050613dff6000830184613ddb565b92915050565b600060208284031215613e1b57613e1a613c42565b5b6000613e2984828501613ccb565b91505092915050565b600081519050919050565b600082825260208201905092915050565b60005b83811015613e6c578082015181840152602081019050613e51565b83811115613e7b576000848401525b50505050565b6000601f19601f8301169050919050565b6000613e9d82613e32565b613ea78185613e3d565b9350613eb7818560208601613e4e565b613ec081613e81565b840191505092915050565b60006020820190508181036000830152613ee58184613e92565b905092915050565b60008060408385031215613f0457613f03613c42565b5b6000613f1285828601613ccb565b9250506020613f2385828601613ccb565b9150509250929050565b600080fd5b7f4e487b7100000000000000000000000000000000000000000000000000000000600052604160045260246000fd5b613f6a82613e81565b810181811067ffffffffffffffff82111715613f8957613f88613f32565b5b80604052505050565b6000613f9c613c38565b9050613fa88282613f61565b919050565b600067ffffffffffffffff821115613fc857613fc7613f32565b5b602082029050602081019050919050565b600080fd5b6000613ff1613fec84613fad565b613f92565b9050808382526020820190506020840283018581111561401457614013613fd9565b5b835b8181101561403d57806140298882613ccb565b845260208401935050602081019050614016565b5050509392505050565b600082601f83011261405c5761405b613f2d565b5b813561406c848260208601613fde565b91505092915050565b600080fd5b600067ffffffffffffffff82111561409557614094613f32565b5b61409e82613e81565b9050602081019050919050565b82818337600083830152505050565b60006140cd6140c88461407a565b613f92565b9050828152602081018484840111156140e9576140e8614075565b5b6140f48482856140ab565b509392505050565b600082601f83011261411157614110613f2d565b5b81356141218482602086016140ba565b91505092915050565b600080600080600060a0868803121561414657614145613c42565b5b600061415488828901613c95565b955050602061416588828901613c95565b945050604086013567ffffffffffffffff81111561418657614185613c47565b5b61419288828901614047565b935050606086013567ffffffffffffffff8111156141b3576141b2613c47565b5b6141bf88828901614047565b925050608086013567ffffffffffffffff8111156141e0576141df613c47565b5b6141ec888289016140fc565b9150509295509295909350565b600067ffffffffffffffff82111561421457614213613f32565b5b602082029050602081019050919050565b6000614238614233846141f9565b613f92565b9050808382526020820190506020840283018581111561425b5761425a613fd9565b5b835b8181101561428457806142708882613c95565b84526020840193505060208101905061425d565b5050509392505050565b600082601f8301126142a3576142a2613f2d565b5b81356142b3848260208601614225565b91505092915050565b600080604083850312156142d3576142d2613c42565b5b600083013567ffffffffffffffff8111156142f1576142f0613c47565b5b6142fd8582860161428e565b925050602083013567ffffffffffffffff81111561431e5761431d613c47565b5b61432a85828601614047565b9150509250929050565b600081519050919050565b600082825260208201905092915050565b6000819050602082019050919050565b61436981613caa565b82525050565b600061437b8383614360565b60208301905092915050565b6000602082019050919050565b600061439f82614334565b6143a9818561433f565b93506143b483614350565b8060005b838110156143e55781516143cc888261436f565b97506143d783614387565b9250506001810190506143b8565b5085935050505092915050565b6000602082019050818103600083015261440c8184614394565b905092915050565b60006020828403121561442a57614429613c42565b5b600061443884828501613c95565b91505092915050565b60008060006060848603121561445a57614459613c42565b5b600061446886828701613c95565b935050602084013567ffffffffffffffff81111561448957614488613c47565b5b61449586828701614047565b925050604084013567ffffffffffffffff8111156144b6576144b5613c47565b5b6144c286828701614047565b9150509250925092565b6144d581613c6c565b82525050565b60006020820190506144f060008301846144cc565b92915050565b6144ff81613dcf565b811461450a57600080fd5b50565b60008135905061451c816144f6565b92915050565b6000806040838503121561453957614538613c42565b5b600061454785828601613c95565b92505060206145588582860161450d565b9150509250929050565b61456b81613c6c565b82525050565b7f4e487b7100000000000000000000000000000000000000000000000000000000600052602160045260246000fd5b600381106145b1576145b0614571565b5b50565b60008190506145c2826145a0565b919050565b60006145d2826145b4565b9050919050565b6145e2816145c7565b82525050565b6145f181613dcf565b82525050565b60a08201600082015161460d6000850182614360565b5060208201516146206020850182614562565b50604082015161463360408501826145d9565b5060608201516146466060850182614360565b50608082015161465960808501826145e8565b50505050565b600060a08201905061467460008301846145f7565b92915050565b614683816145c7565b82525050565b600060a08201905061469e6000830188613d20565b6146ab60208301876144cc565b6146b8604083018661467a565b6146c56060830185613d20565b6146d26080830184613ddb565b9695505050505050565b600081519050919050565b600082825260208201905092915050565b6000819050602082019050919050565b60a08201600082015161471e6000850182614360565b5060208201516147316020850182614562565b50604082015161474460408501826145d9565b5060608201516147576060850182614360565b50608082015161476a60808501826145e8565b50505050565b600061477c8383614708565b60a08301905092915050565b6000602082019050919050565b60006147a0826146dc565b6147aa81856146e7565b93506147b5836146f8565b8060005b838110156147e65781516147cd8882614770565b97506147d883614788565b9250506001810190506147b9565b5085935050505092915050565b6000602082019050818103600083015261480d8184614795565b905092915050565b6000806040838503121561482c5761482b613c42565b5b600061483a85828601613c95565b925050602061484b85828601613c95565b9150509250929050565b600080600080600060a0868803121561487157614870613c42565b5b600061487f88828901613c95565b955050602061489088828901613c95565b94505060406148a188828901613ccb565b93505060606148b288828901613ccb565b925050608086013567ffffffffffffffff8111156148d3576148d2613c47565b5b6148df888289016140fc565b9150509295509295909350565b60008060006060848603121561490557614904613c42565b5b600061491386828701613c95565b935050602061492486828701613ccb565b925050604061493586828701613ccb565b9150509250925092565b7f455243313135353a2061646472657373207a65726f206973206e6f742061207660008201527f616c6964206f776e657200000000000000000000000000000000000000000000602082015250565b600061499b602a83613e3d565b91506149a68261493f565b604082019050919050565b600060208201905081810360008301526149ca8161498e565b9050919050565b600081905092915050565b7f68747470733a2f2f676174657761792e70696e6174612e636c6f75642f69706660008201527f732f516d52614e785a6f7546756e6e446e6473353756476d747274413245424560208201527f464c65737a6158416f38475a665a38652f000000000000000000000000000000604082015250565b6000614a5e6051836149d1565b9150614a69826149dc565b605182019050919050565b6000614a7f82613e32565b614a8981856149d1565b9350614a99818560208601613e4e565b80840191505092915050565b7f2e6a736f6e000000000000000000000000000000000000000000000000000000600082015250565b6000614adb6005836149d1565b9150614ae682614aa5565b600582019050919050565b6000614afc82614a51565b9150614b088284614a74565b9150614b1382614ace565b915081905092915050565b7f4f6e6c792074686520696e697469616c206f776e65722063616e206c6973742060008201527f746865206372656469747320666f722073616c652e0000000000000000000000602082015250565b6000614b7a603583613e3d565b9150614b8582614b1e565b604082019050919050565b60006020820190508181036000830152614ba981614b6d565b9050919050565b7f5468652063726564697473206d75737420626520617070726f7665642062656660008201527f6f72652069742063616e206265206c697374656420666f722073616c652e0000602082015250565b6000614c0c603e83613e3d565b9150614c1782614bb0565b604082019050919050565b60006020820190508181036000830152614c3b81614bff565b9050919050565b7f546865206372656469747320697320616c7265616479206c697374656420666f60008201527f722073616c652e00000000000000000000000000000000000000000000000000602082015250565b6000614c9e602783613e3d565b9150614ca982614c42565b604082019050919050565b60006020820190508181036000830152614ccd81614c91565b9050919050565b7f5468652070726963652070657220637265646974206d7573742062652067726560008201527f61746572207468616e207a65726f2e0000000000000000000000000000000000602082015250565b6000614d30602f83613e3d565b9150614d3b82614cd4565b604082019050919050565b60006020820190508181036000830152614d5f81614d23565b9050919050565b7f4e487b7100000000000000000000000000000000000000000000000000000000600052601160045260246000fd5b6000614da082613caa565b91507fffffffffffffffffffffffffffffffffffffffffffffffffffffffffffffffff8203614dd257614dd1614d66565b5b600182019050919050565b7f455243313135353a2063616c6c6572206973206e6f7420746f6b656e206f776e60008201527f6572206f7220617070726f766564000000000000000000000000000000000000602082015250565b6000614e39602e83613e3d565b9150614e4482614ddd565b604082019050919050565b60006020820190508181036000830152614e6881614e2c565b9050919050565b7f416d6f756e74206d7573742062652067726561746572207468616e207a65726f60008201527f2e00000000000000000000000000000000000000000000000000000000000000602082015250565b6000614ecb602183613e3d565b9150614ed682614e6f565b604082019050919050565b60006020820190508181036000830152614efa81614ebe565b9050919050565b7f496e73756666696369656e7420746f6b656e2062616c616e636520746f20726560008201527f746972652e000000000000000000000000000000000000000000000000000000602082015250565b6000614f5d602583613e3d565b9150614f6882614f01565b604082019050919050565b60006020820190508181036000830152614f8c81614f50565b9050919050565b7f496e76616c696420616464726573732e00000000000000000000000000000000600082015250565b6000614fc9601083613e3d565b9150614fd482614f93565b602082019050919050565b60006020820190508181036000830152614ff881614fbc565b9050919050565b7f546f6b656e206d757374206265206c697374656420666f722073616c6520626560008201527f666f72652069742063616e206265207075726368617365642e00000000000000602082015250565b600061505b603983613e3d565b915061506682614fff565b604082019050919050565b6000602082019050818103600083015261508a8161504e565b9050919050565b7f496e73756666696369656e742062616c616e636520746f20707572636861736560008201527f2e00000000000000000000000000000000000000000000000000000000000000602082015250565b60006150ed602183613e3d565b91506150f882615091565b604082019050919050565b6000602082019050818103600083015261511c816150e0565b9050919050565b600061512e82613caa565b915061513983613caa565b9250817fffffffffffffffffffffffffffffffffffffffffffffffffffffffffffffffff048311821515161561517257615171614d66565b5b828202905092915050565b7f496e73756666696369656e742066756e647320746f2070757263686173652e00600082015250565b60006151b3601f83613e3d565b91506151be8261517d565b602082019050919050565b600060208201905081810360008301526151e2816151a6565b9050919050565b60006151f482613caa565b91506000820361520757615206614d66565b5b600182039050919050565b7f455243313135353a206163636f756e747320616e6420696473206c656e67746860008201527f206d69736d617463680000000000000000000000000000000000000000000000602082015250565b600061526e602983613e3d565b915061527982615212565b604082019050919050565b6000602082019050818103600083015261529d81615261565b9050919050565b7f4e487b7100000000000000000000000000000000000000000000000000000000600052603260045260246000fd5b7f496e646578206f7574206f6620626f756e64732e000000000000000000000000600082015250565b6000615309601483613e3d565b9150615314826152d3565b602082019050919050565b60006020820190508181036000830152615338816152fc565b9050919050565b600061534a82613caa565b915061535583613caa565b9250827fffffffffffffffffffffffffffffffffffffffffffffffffffffffffffffffff0382111561538a57615389614d66565b5b828201905092915050565b7f4f776e61626c653a206e6577206f776e657220697320746865207a65726f206160008201527f6464726573730000000000000000000000000000000000000000000000000000602082015250565b60006153f1602683613e3d565b91506153fc82615395565b604082019050919050565b60006020820190508181036000830152615420816153e4565b9050919050565b7f50726f6a6563742063616e6e6f74206265206465636c696e6564000000000000600082015250565b600061545d601a83613e3d565b915061546882615427565b602082019050919050565b6000602082019050818103600083015261548c81615450565b9050919050565b7f50726f6a6563742063616e6e6f7420626520617070726f76656420617320697460008201527f206973206e6f742070656e64696e672e00000000000000000000000000000000602082015250565b60006154ef603083613e3d565b91506154fa82615493565b604082019050919050565b6000602082019050818103600083015261551e816154e2565b9050919050565b6000819050919050565b6000819050919050565b600061555461554f61554a84615525565b61552f565b613caa565b9050919050565b61556481615539565b82525050565b600060a08201905061557f6000830188613d20565b61558c60208301876144cc565b615599604083018661467a565b6155a6606083018561555b565b6155b36080830184613ddb565b9695505050505050565b7f4e487b7100000000000000000000000000000000000000000000000000000000600052601260045260246000fd5b7f455243313135353a2069647320616e6420616d6f756e7473206c656e6774682060008201527f6d69736d61746368000000000000000000000000000000000000000000000000602082015250565b6000615648602883613e3d565b9150615653826155ec565b604082019050919050565b600060208201905081810360008301526156778161563b565b9050919050565b7f455243313135353a207472616e7366657220746f20746865207a65726f20616460008201527f6472657373000000000000000000000000000000000000000000000000000000602082015250565b60006156da602583613e3d565b91506156e58261567e565b604082019050919050565b60006020820190508181036000830152615709816156cd565b9050919050565b7f455243313135353a20696e73756666696369656e742062616c616e636520666f60008201527f72207472616e7366657200000000000000000000000000000000000000000000602082015250565b600061576c602a83613e3d565b915061577782615710565b604082019050919050565b6000602082019050818103600083015261579b8161575f565b9050919050565b600060408201905081810360008301526157bc8185614394565b905081810360208301526157d08184614394565b90509392505050565b60006040820190506157ee6000830185613d20565b6157fb6020830184613d20565b9392505050565b7f455243313135353a206275726e2066726f6d20746865207a65726f206164647260008201527f6573730000000000000000000000000000000000000000000000000000000000602082015250565b600061585e602383613e3d565b915061586982615802565b604082019050919050565b6000602082019050818103600083015261588d81615851565b9050919050565b7f455243313135353a206275726e20616d6f756e7420657863656564732062616c60008201527f616e636500000000000000000000000000000000000000000000000000000000602082015250565b60006158f0602483613e3d565b91506158fb82615894565b604082019050919050565b6000602082019050818103600083015261591f816158e3565b9050919050565b7f4f776e61626c653a2063616c6c6572206973206e6f7420746865206f776e6572600082015250565b600061595c602083613e3d565b915061596782615926565b602082019050919050565b6000602082019050818103600083015261598b8161594f565b9050919050565b7f455243313135353a2073657474696e6720617070726f76616c2073746174757360008201527f20666f722073656c660000000000000000000000000000000000000000000000602082015250565b60006159ee602983613e3d565b91506159f982615992565b604082019050919050565b60006020820190508181036000830152615a1d816159e1565b9050919050565b7f455243313135353a206d696e7420746f20746865207a65726f2061646472657360008201527f7300000000000000000000000000000000000000000000000000000000000000602082015250565b6000615a80602183613e3d565b9150615a8b82615a24565b604082019050919050565b60006020820190508181036000830152615aaf81615a73565b9050919050565b600081519050919050565b600082825260208201905092915050565b6000615add82615ab6565b615ae78185615ac1565b9350615af7818560208601613e4e565b615b0081613e81565b840191505092915050565b600060a082019050615b2060008301886144cc565b615b2d60208301876144cc565b8181036040830152615b3f8186614394565b90508181036060830152615b538185614394565b90508181036080830152615b678184615ad2565b90509695505050505050565b600081519050615b8281613d76565b92915050565b600060208284031215615b9e57615b9d613c42565b5b6000615bac84828501615b73565b91505092915050565b60008160e01c9050919050565b600060033d1115615be15760046000803e615bde600051615bb5565b90505b90565b600060443d10615c7157615bf6613c38565b60043d036004823e80513d602482011167ffffffffffffffff82111715615c1e575050615c71565b808201805167ffffffffffffffff811115615c3c5750505050615c71565b80602083010160043d038501811115615c59575050505050615c71565b615c6882602001850186613f61565b82955050505050505b90565b7f455243313135353a207472616e7366657220746f206e6f6e2d4552433131353560008201527f526563656976657220696d706c656d656e746572000000000000000000000000602082015250565b6000615cd0603483613e3d565b9150615cdb82615c74565b604082019050919050565b60006020820190508181036000830152615cff81615cc3565b9050919050565b7f455243313135353a204552433131353552656365697665722072656a6563746560008201527f6420746f6b656e73000000000000000000000000000000000000000000000000602082015250565b6000615d62602883613e3d565b9150615d6d82615d06565b604082019050919050565b60006020820190508181036000830152615d9181615d55565b9050919050565b600060a082019050615dad60008301886144cc565b615dba60208301876144cc565b615dc76040830186613d20565b615dd46060830185613d20565b8181036080830152615de68184615ad2565b90509695505050505050565b6000615dfd82613caa565b9150615e0883613caa565b925082821015615e1b57615e1a614d66565b5b828203905092915050565b7f4e487b7100000000000000000000000000000000000000000000000000000000600052603160045260246000fd5b7f4e487b7100000000000000000000000000000000000000000000000000000000600052602260045260246000fd5b60006002820490506001821680615e9c57607f821691505b602082108103615eaf57615eae615e55565b5b5091905056fea264697066735822122044c7b8de62c1b05ec762256f883ff83c01b8ebfa4ef2b16e1e3ea6ef4155759664736f6c634300080d003368747470733a2f2f697066732e696f2f697066732f516d52614e785a6f7546756e6e446e6473353756476d7472744132454245464c65737a6158416f38475a665a38652f7b69647d2e6a736f6e",
  "immutableReferences": {},
  "source": "// SPDX-License-Identifier: MIT\npragma solidity ^0.8.13;\nimport \"@openzeppelin/contracts/token/ERC1155/extensions/ERC1155URIStorage.sol\";\nimport \"@openzeppelin/contracts/access/Ownable.sol\";\nimport \"@openzeppelin/contracts/token/ERC1155/extensions/ERC1155Burnable.sol\";\nimport \"@openzeppelin/contracts/utils/Strings.sol\";\ncontract OldContract is ERC1155URIStorage, ERC1155Burnable, Ownable {\n    enum ApprovalStatus {\n        Pending,\n        Approved,\n        Declined\n    }\n    struct CarbonCredit {\n        uint256 tokenId;\n        address initialOwner;\n        ApprovalStatus status;\n        uint256 pricePerCredit;\n        bool isListed;\n    }\n    event CarbonCreditCreated(\n        uint256 tokenId,\n        address initialOwner,\n        ApprovalStatus status,\n        uint256 pricePerCredit,\n        bool isListed\n    );\n    event CarbonCreditListed(\n        uint256 tokenId,\n        address initialOwner,\n        ApprovalStatus status,\n        uint256 pricePerCredit,\n        bool isListed\n    );\n    event TokenTransferred(\n        uint256 indexed tokenId,\n        address indexed from,\n        address indexed to,\n        uint256 amount\n    );\n    uint256 private _tokenIds;\n    uint256 private _listedTokens; // number of listed credits\n    uint256[] private _allTokenIds; // array of all token IDs\n    mapping(uint256 => CarbonCredit) public idToCarbonCredit;\n    mapping(uint256 => uint256) private _idToTokenSupply;\n    mapping(uint256 => uint256) private _idToTokensIndex; // mapping of token ID => index of token in all tokens array\n    // mapping(address => mapping(uint256 => uint256)) private _ownedTokens;   // mapping of owner => number of tokens owner owns => token ID\n    // mapping(uint256 => uint256) private _idToOwnedIndex; // mapping of token ID => index of token in owner's list of tokens (number of tokens owner owns)\n    mapping(address => uint256[]) private _ownerToTokenIds; // mapping of owner => list of token IDs\n    mapping(address => mapping(uint256 => uint256)) private _ownedTokensIndex; // Mapping from token ID to index in the above array\n    constructor()\n        ERC1155(\n            \"https://ipfs.io/ipfs/QmRaNxZouFunnDnds57VGmtrtA2EBEFLeszaXAo8GZfZ8e/{id}.json\"\n        )\n    {}\n    // function uri(\n    //     uint256 tokenId\n    // ) public view override(ERC1155, ERC1155URIStorage) returns (string memory) {\n    //     return ERC1155URIStorage.uri(tokenId);\n    // }\n    function uri(\n        uint256 tokenId\n    ) public pure override(ERC1155, ERC1155URIStorage) returns (string memory) {\n        return\n            string(\n                abi.encodePacked(\n                    \"https://gateway.pinata.cloud/ipfs/QmRaNxZouFunnDnds57VGmtrtA2EBEFLeszaXAo8GZfZ8e/\",\n                    Strings.toString(tokenId),\n                    \".json\"\n                )\n            );\n    }\n    function getCreditItem(\n        uint256 tokenId\n    ) public view returns (CarbonCredit memory) {\n        return idToCarbonCredit[tokenId];\n    }\n    function getListedTokensCount() public view returns (uint256) {\n        // returns the total number of listed credits\n        return _listedTokens;\n    }\n    function getTotalTokensCount() public view returns (uint256) {\n        // returns the total number of credits\n        return _allTokenIds.length;\n    }\n    function getTokenByIndex(uint256 index) public view returns (uint256) {\n        require(index < getTotalTokensCount(), \"Index out of bounds.\");\n        return _allTokenIds[index];\n    }\n    function getOwnedTokensCount(address owner) public view returns (uint256) {\n        return _ownerToTokenIds[owner].length;\n    }\n    function getOwnerTokenByIndex(\n        address owner,\n        uint256 index\n    ) public view returns (uint256) {\n        require(\n            index < balanceOf(owner, getTokenByIndex(index)),\n            \"Index out of bounds.\"\n        );\n        return _ownerToTokenIds[owner][index];\n    }\n    // Allows user to register a project\n    function registerProject(uint256 tokenSupply) public {\n        uint256 currentId = ++_tokenIds; // tokenID starts from 1\n        idToCarbonCredit[currentId] = CarbonCredit(\n            currentId,\n            msg.sender,\n            ApprovalStatus.Pending,\n            0,\n            false\n        );\n        _idToTokenSupply[currentId] = tokenSupply;\n        _addTokenToAllTokensEnumeration(currentId);\n    }\n    function approveProject(uint256 tokenId) public payable onlyOwner {\n        require(\n            idToCarbonCredit[tokenId].status == ApprovalStatus.Pending,\n            \"Project cannot be approved as it is not pending.\"\n        );\n        idToCarbonCredit[tokenId].status = ApprovalStatus.Approved;\n        _mint(\n            idToCarbonCredit[tokenId].initialOwner,\n            tokenId,\n            _idToTokenSupply[tokenId],\n            \"\"\n        );\n        _setURI(tokenId, uri(tokenId));\n        emit CarbonCreditCreated(\n            tokenId,\n            idToCarbonCredit[tokenId].initialOwner,\n            ApprovalStatus.Approved,\n            0,\n            false\n        );\n    }\n    function declineProject(uint256 tokenId) public onlyOwner {\n        require(\n            idToCarbonCredit[tokenId].status == ApprovalStatus.Pending,\n            \"Project cannot be declined\"\n        );\n        idToCarbonCredit[tokenId].status = ApprovalStatus.Declined;\n        _setURI(tokenId, uri(tokenId));\n    }\n    function listCreditsForSale(uint256 tokenId, uint256 price) public payable {\n        require(\n            msg.sender == idToCarbonCredit[tokenId].initialOwner,\n            \"Only the initial owner can list the credits for sale.\"\n        );\n        require(\n            idToCarbonCredit[tokenId].status == ApprovalStatus.Approved,\n            \"The credits must be approved before it can be listed for sale.\"\n        );\n        require(\n            !idToCarbonCredit[tokenId].isListed,\n            \"The credits is already listed for sale.\"\n        );\n        require(price > 0, \"The price per credit must be greater than zero.\");\n        // Set the token as listed and update the price\n        idToCarbonCredit[tokenId].isListed = true;\n        _listedTokens++;\n        idToCarbonCredit[tokenId].pricePerCredit = price;\n        emit CarbonCreditListed(\n            tokenId,\n            idToCarbonCredit[tokenId].initialOwner,\n            ApprovalStatus.Approved,\n            price,\n            true\n        );\n    }\n    function getAllListedCredits() public view returns (CarbonCredit[] memory) {\n        // [{}, {}, ...]\n        uint allCreditsCount = getTotalTokensCount();\n        uint currentIndex = 0;\n        CarbonCredit[] memory credits = new CarbonCredit[](_listedTokens);\n        for (uint i = 0; i < allCreditsCount; i++) {\n            uint tokenId = getTokenByIndex(i);\n            CarbonCredit storage credit = idToCarbonCredit[tokenId];\n            if (credit.isListed == true) {\n                credits[currentIndex] = credit;\n                currentIndex += 1;\n            }\n        }\n        return credits;\n    }\n    function getOwnedCredits() public view returns (CarbonCredit[] memory) {\n        uint256 ownedCreditsCount = getOwnedTokensCount(msg.sender);\n        CarbonCredit[] memory credits = new CarbonCredit[](ownedCreditsCount);\n        for (uint i = 0; i < ownedCreditsCount; i++) {\n            uint tokenId = getOwnerTokenByIndex(msg.sender, i);\n            CarbonCredit storage credit = idToCarbonCredit[tokenId];\n            credits[i] = credit;\n        }\n        return credits;\n    }\n    function buyCredits(uint256 tokenId, uint256 amount) public payable {\n        CarbonCredit storage credit = idToCarbonCredit[tokenId];\n        require(\n            credit.isListed,\n            \"Token must be listed for sale before it can be purchased.\"\n        );\n        require(\n            balanceOf(credit.initialOwner, tokenId) >= amount,\n            \"Insufficient balance to purchase.\"\n        );\n        require(\n            msg.value >= credit.pricePerCredit * amount,\n            \"Insufficient funds to purchase.\"\n        );\n        _safeTransferFrom(credit.initialOwner, msg.sender, tokenId, amount, \"\");\n        payable(credit.initialOwner).transfer(msg.value);\n        // Additional custom logic post-transfer\n        // If all tokens of this ID are transferred, update the CarbonCredit struct\n        if (balanceOf(credit.initialOwner, tokenId) == 0) {\n            credit.isListed = false;\n            _listedTokens--;\n        }\n        emit TokenTransferred(tokenId, credit.initialOwner, msg.sender, amount);\n    }\n    function retireCredits(uint256 tokenId, uint256 amount) public {\n        require(amount > 0, \"Amount must be greater than zero.\");\n        require(\n            balanceOf(msg.sender, tokenId) >= amount,\n            \"Insufficient token balance to retire.\"\n        );\n        require(msg.sender != address(0), \"Invalid address.\");\n        // Call the burn function inherited from ERC1155Burnable\n        burn(msg.sender, tokenId, amount);\n        // Emit an event or additional logic if needed\n        // Example: Emitting an event (uncomment the next line if you decide to implement the event)\n        // emit CreditsRetired(msg.sender, tokenId, amount);\n    }\n    // Optional: Define an event for retiring credits\n    // event CreditsRetired(address indexed account, uint256 indexed tokenId, uint256 amount);\n    function _beforeTokenTransfer(\n        address operator,\n        address from,\n        address to,\n        uint256[] memory ids,\n        uint256[] memory amounts,\n        bytes memory data\n    ) internal override {\n        super._beforeTokenTransfer(operator, from, to, ids, amounts, data);\n        for (uint256 i = 0; i < ids.length; i++) {\n            if (from != address(0) && balanceOf(from, ids[i]) == amounts[i]) {\n                // checking before transfer\n                // ids[i] is the token ID\n                // This implies the sender is transferring all their units of this token type\n                _removeTokenFromOwnerEnumeration(from, ids[i]);\n            }\n            if (to != address(0) && balanceOf(to, ids[i]) == 0) {\n                // checking before mint\n                // This implies the recipient did not previously own any units of this token type\n                _addTokenToOwnerEnumeration(to, ids[i]);\n            } else if (\n                to == address(0) && balanceOf(from, ids[i]) == amounts[i]\n            ) {\n                // checking before burn\n                // This implies the recipient is burning all units of a token are burned\n                _removeTokenFromAllTokensEnumeration(ids[i]);\n            }\n        }\n    }\n    function _addTokenToAllTokensEnumeration(uint256 tokenId) private {\n        _idToTokensIndex[tokenId] = _allTokenIds.length;\n        _allTokenIds.push(tokenId);\n    }\n    function _addTokenToOwnerEnumeration(address to, uint256 tokenId) private {\n        if (balanceOf(to, tokenId) == 0) {\n            // Token ID is new to this owner\n            _ownerToTokenIds[to].push(tokenId);\n        }\n    }\n    function _removeTokenFromOwnerEnumeration(\n        address owner,\n        uint256 tokenId\n    ) private {\n        // First, we need to find the index of this token ID in the owner's list of token IDs\n        uint256 lastTokenIndex = _ownerToTokenIds[owner].length - 1;\n        uint256 tokenIndex = _ownedTokensIndex[owner][tokenId];\n        // If the token being removed is not the last token in the list,\n        // swap the last token with the token to be removed.\n        if (tokenIndex != lastTokenIndex) {\n            uint256 lastTokenId = _ownerToTokenIds[owner][lastTokenIndex];\n            _ownerToTokenIds[owner][tokenIndex] = lastTokenId; // Move the last token to the slot of the to-be-removed token\n            _ownedTokensIndex[owner][lastTokenId] = tokenIndex; // Update the moved token's index\n        }\n        // Remove the last token's data (since it's now either removed or moved)\n        _ownerToTokenIds[owner].pop();\n        delete _ownedTokensIndex[owner][tokenId]; // Remove the deleted token's index\n    }\n    function _removeTokenFromAllTokensEnumeration(uint256 tokenId) private {\n        uint256 lastTokenIndex = _allTokenIds.length - 1;\n        uint256 tokenIndex = _idToTokensIndex[tokenId];\n        uint256 lastTokenId = _allTokenIds[lastTokenIndex];\n        _allTokenIds[tokenIndex] = lastTokenId; // Move the last token to the slot of the to-be-removed token\n        _idToTokensIndex[lastTokenId] = tokenIndex; // Update the moved token's index\n        // Remove the last token's data (since it's now either removed or moved)\n        _allTokenIds.pop();\n        delete _idToTokensIndex[tokenId]; // Remove the deleted token's index\n    }\n}\n",
  "sourcePath": "/Users/buudinhha/Vscode/DATN/main/contracts/OldContract.sol",
  "compiler": {
    "name": "solc",
    "version": "0.8.13+commit.abaa5c0e.Emscripten.clang"
  },
  "schemaVersion": "3.4.16",
  "updatedAt": "2024-04-25T06:03:54.249Z",
  "devdoc": {
    "kind": "dev",
    "methods": {
      "balanceOf(address,uint256)": {
        "details": "See {IERC1155-balanceOf}. Requirements: - `account` cannot be the zero address."
      },
      "balanceOfBatch(address[],uint256[])": {
        "details": "See {IERC1155-balanceOfBatch}. Requirements: - `accounts` and `ids` must have the same length."
      },
      "isApprovedForAll(address,address)": {
        "details": "See {IERC1155-isApprovedForAll}."
      },
      "owner()": {
        "details": "Returns the address of the current owner."
      },
      "renounceOwnership()": {
        "details": "Leaves the contract without owner. It will not be possible to call `onlyOwner` functions. Can only be called by the current owner. NOTE: Renouncing ownership will leave the contract without an owner, thereby disabling any functionality that is only available to the owner."
      },
      "safeBatchTransferFrom(address,address,uint256[],uint256[],bytes)": {
        "details": "See {IERC1155-safeBatchTransferFrom}."
      },
      "safeTransferFrom(address,address,uint256,uint256,bytes)": {
        "details": "See {IERC1155-safeTransferFrom}."
      },
      "setApprovalForAll(address,bool)": {
        "details": "See {IERC1155-setApprovalForAll}."
      },
      "supportsInterface(bytes4)": {
        "details": "See {IERC165-supportsInterface}."
      },
      "transferOwnership(address)": {
        "details": "Transfers ownership of the contract to a new account (`newOwner`). Can only be called by the current owner."
      }
    },
    "version": 1
  },
  "userdoc": {
    "kind": "user",
    "methods": {},
    "version": 1
  }
}