{
  "contractName": "ProjectManagement",
  "abi": [
    {
      "inputs": [
        {
          "internalType": "address",
          "name": "_tokenAddress",
          "type": "address"
        }
      ],
      "stateMutability": "nonpayable",
      "type": "constructor"
    },
    {
      "anonymous": false,
      "inputs": [
        {
          "indexed": true,
          "internalType": "address",
          "name": "account",
          "type": "address"
        },
        {
          "indexed": true,
          "internalType": "address",
          "name": "operator",
          "type": "address"
        },
        {
          "indexed": false,
          "internalType": "bool",
          "name": "approved",
          "type": "bool"
        }
      ],
      "name": "ApprovalForAll",
      "type": "event"
    },
    {
      "anonymous": false,
      "inputs": [
        {
          "indexed": false,
          "internalType": "uint256",
          "name": "tokenId",
          "type": "uint256"
        },
        {
          "indexed": false,
          "internalType": "address",
          "name": "initialOwner",
          "type": "address"
        },
        {
          "indexed": false,
          "internalType": "enum CarbonBase.ApprovalStatus",
          "name": "status",
          "type": "uint8"
        },
        {
          "indexed": false,
          "internalType": "uint256",
          "name": "pricePerCredit",
          "type": "uint256"
        },
        {
          "indexed": false,
          "internalType": "bool",
          "name": "isListed",
          "type": "bool"
        }
      ],
      "name": "CarbonCreditCreated",
      "type": "event"
    },
    {
      "anonymous": false,
      "inputs": [
        {
          "indexed": false,
          "internalType": "uint256",
          "name": "tokenId",
          "type": "uint256"
        },
        {
          "indexed": false,
          "internalType": "address",
          "name": "initialOwner",
          "type": "address"
        },
        {
          "indexed": false,
          "internalType": "enum CarbonBase.ApprovalStatus",
          "name": "status",
          "type": "uint8"
        },
        {
          "indexed": false,
          "internalType": "uint256",
          "name": "pricePerCredit",
          "type": "uint256"
        },
        {
          "indexed": false,
          "internalType": "bool",
          "name": "isListed",
          "type": "bool"
        }
      ],
      "name": "CarbonCreditListed",
      "type": "event"
    },
    {
      "anonymous": false,
      "inputs": [
        {
          "indexed": true,
          "internalType": "address",
          "name": "previousOwner",
          "type": "address"
        },
        {
          "indexed": true,
          "internalType": "address",
          "name": "newOwner",
          "type": "address"
        }
      ],
      "name": "OwnershipTransferred",
      "type": "event"
    },
    {
      "anonymous": false,
      "inputs": [
        {
          "indexed": true,
          "internalType": "uint256",
          "name": "tokenId",
          "type": "uint256"
        },
        {
          "indexed": true,
          "internalType": "address",
          "name": "from",
          "type": "address"
        },
        {
          "indexed": true,
          "internalType": "address",
          "name": "to",
          "type": "address"
        },
        {
          "indexed": false,
          "internalType": "uint256",
          "name": "amount",
          "type": "uint256"
        }
      ],
      "name": "TokenTransferred",
      "type": "event"
    },
    {
      "anonymous": false,
      "inputs": [
        {
          "indexed": true,
          "internalType": "address",
          "name": "operator",
          "type": "address"
        },
        {
          "indexed": true,
          "internalType": "address",
          "name": "from",
          "type": "address"
        },
        {
          "indexed": true,
          "internalType": "address",
          "name": "to",
          "type": "address"
        },
        {
          "indexed": false,
          "internalType": "uint256[]",
          "name": "ids",
          "type": "uint256[]"
        },
        {
          "indexed": false,
          "internalType": "uint256[]",
          "name": "values",
          "type": "uint256[]"
        }
      ],
      "name": "TransferBatch",
      "type": "event"
    },
    {
      "anonymous": false,
      "inputs": [
        {
          "indexed": true,
          "internalType": "address",
          "name": "operator",
          "type": "address"
        },
        {
          "indexed": true,
          "internalType": "address",
          "name": "from",
          "type": "address"
        },
        {
          "indexed": true,
          "internalType": "address",
          "name": "to",
          "type": "address"
        },
        {
          "indexed": false,
          "internalType": "uint256",
          "name": "id",
          "type": "uint256"
        },
        {
          "indexed": false,
          "internalType": "uint256",
          "name": "value",
          "type": "uint256"
        }
      ],
      "name": "TransferSingle",
      "type": "event"
    },
    {
      "anonymous": false,
      "inputs": [
        {
          "indexed": false,
          "internalType": "string",
          "name": "value",
          "type": "string"
        },
        {
          "indexed": true,
          "internalType": "uint256",
          "name": "id",
          "type": "uint256"
        }
      ],
      "name": "URI",
      "type": "event"
    },
    {
      "inputs": [
        {
          "internalType": "address",
          "name": "account",
          "type": "address"
        },
        {
          "internalType": "uint256",
          "name": "id",
          "type": "uint256"
        }
      ],
      "name": "balanceOf",
      "outputs": [
        {
          "internalType": "uint256",
          "name": "",
          "type": "uint256"
        }
      ],
      "stateMutability": "view",
      "type": "function",
      "constant": true
    },
    {
      "inputs": [
        {
          "internalType": "address[]",
          "name": "accounts",
          "type": "address[]"
        },
        {
          "internalType": "uint256[]",
          "name": "ids",
          "type": "uint256[]"
        }
      ],
      "name": "balanceOfBatch",
      "outputs": [
        {
          "internalType": "uint256[]",
          "name": "",
          "type": "uint256[]"
        }
      ],
      "stateMutability": "view",
      "type": "function",
      "constant": true
    },
    {
      "inputs": [
        {
          "internalType": "address",
          "name": "account",
          "type": "address"
        },
        {
          "internalType": "uint256",
          "name": "id",
          "type": "uint256"
        },
        {
          "internalType": "uint256",
          "name": "value",
          "type": "uint256"
        }
      ],
      "name": "burn",
      "outputs": [],
      "stateMutability": "nonpayable",
      "type": "function"
    },
    {
      "inputs": [
        {
          "internalType": "address",
          "name": "account",
          "type": "address"
        },
        {
          "internalType": "uint256[]",
          "name": "ids",
          "type": "uint256[]"
        },
        {
          "internalType": "uint256[]",
          "name": "values",
          "type": "uint256[]"
        }
      ],
      "name": "burnBatch",
      "outputs": [],
      "stateMutability": "nonpayable",
      "type": "function"
    },
    {
      "inputs": [
        {
          "internalType": "address",
          "name": "account",
          "type": "address"
        },
        {
          "internalType": "address",
          "name": "operator",
          "type": "address"
        }
      ],
      "name": "isApprovedForAll",
      "outputs": [
        {
          "internalType": "bool",
          "name": "",
          "type": "bool"
        }
      ],
      "stateMutability": "view",
      "type": "function",
      "constant": true
    },
    {
      "inputs": [],
      "name": "owner",
      "outputs": [
        {
          "internalType": "address",
          "name": "",
          "type": "address"
        }
      ],
      "stateMutability": "view",
      "type": "function",
      "constant": true
    },
    {
      "inputs": [],
      "name": "renounceOwnership",
      "outputs": [],
      "stateMutability": "nonpayable",
      "type": "function"
    },
    {
      "inputs": [
        {
          "internalType": "address",
          "name": "from",
          "type": "address"
        },
        {
          "internalType": "address",
          "name": "to",
          "type": "address"
        },
        {
          "internalType": "uint256[]",
          "name": "ids",
          "type": "uint256[]"
        },
        {
          "internalType": "uint256[]",
          "name": "amounts",
          "type": "uint256[]"
        },
        {
          "internalType": "bytes",
          "name": "data",
          "type": "bytes"
        }
      ],
      "name": "safeBatchTransferFrom",
      "outputs": [],
      "stateMutability": "nonpayable",
      "type": "function"
    },
    {
      "inputs": [
        {
          "internalType": "address",
          "name": "from",
          "type": "address"
        },
        {
          "internalType": "address",
          "name": "to",
          "type": "address"
        },
        {
          "internalType": "uint256",
          "name": "id",
          "type": "uint256"
        },
        {
          "internalType": "uint256",
          "name": "amount",
          "type": "uint256"
        },
        {
          "internalType": "bytes",
          "name": "data",
          "type": "bytes"
        }
      ],
      "name": "safeTransferFrom",
      "outputs": [],
      "stateMutability": "nonpayable",
      "type": "function"
    },
    {
      "inputs": [
        {
          "internalType": "address",
          "name": "operator",
          "type": "address"
        },
        {
          "internalType": "bool",
          "name": "approved",
          "type": "bool"
        }
      ],
      "name": "setApprovalForAll",
      "outputs": [],
      "stateMutability": "nonpayable",
      "type": "function"
    },
    {
      "inputs": [
        {
          "internalType": "bytes4",
          "name": "interfaceId",
          "type": "bytes4"
        }
      ],
      "name": "supportsInterface",
      "outputs": [
        {
          "internalType": "bool",
          "name": "",
          "type": "bool"
        }
      ],
      "stateMutability": "view",
      "type": "function",
      "constant": true
    },
    {
      "inputs": [
        {
          "internalType": "address",
          "name": "newOwner",
          "type": "address"
        }
      ],
      "name": "transferOwnership",
      "outputs": [],
      "stateMutability": "nonpayable",
      "type": "function"
    },
    {
      "inputs": [
        {
          "internalType": "uint256",
          "name": "tokenId",
          "type": "uint256"
        }
      ],
      "name": "uri",
      "outputs": [
        {
          "internalType": "string",
          "name": "",
          "type": "string"
        }
      ],
      "stateMutability": "view",
      "type": "function",
      "constant": true
    },
    {
      "inputs": [
        {
          "internalType": "uint256",
          "name": "tokenSupply",
          "type": "uint256"
        },
        {
          "internalType": "string",
          "name": "tokenURI",
          "type": "string"
        }
      ],
      "name": "registerProject",
      "outputs": [],
      "stateMutability": "nonpayable",
      "type": "function"
    },
    {
      "inputs": [
        {
          "internalType": "uint256",
          "name": "tokenId",
          "type": "uint256"
        }
      ],
      "name": "approveProject",
      "outputs": [],
      "stateMutability": "payable",
      "type": "function",
      "payable": true
    },
    {
      "inputs": [
        {
          "internalType": "uint256",
          "name": "tokenId",
          "type": "uint256"
        }
      ],
      "name": "declineProject",
      "outputs": [],
      "stateMutability": "nonpayable",
      "type": "function"
    },
    {
      "inputs": [],
      "name": "getTokenAddress",
      "outputs": [
        {
          "internalType": "address",
          "name": "",
          "type": "address"
        }
      ],
      "stateMutability": "view",
      "type": "function",
      "constant": true
    }
  ],
  "bytecode": "0x608060405260405180602001604052806000815250600390805190602001906200002b929190620001d3565b503480156200003957600080fd5b50604051620042cc380380620042cc83398181016040528101906200005f9190620002ed565b604051806020016040528060008152506200008081620000e960201b60201c565b50620000a1620000956200010560201b60201c565b6200010d60201b60201c565b80600660006101000a81548173ffffffffffffffffffffffffffffffffffffffff021916908373ffffffffffffffffffffffffffffffffffffffff1602179055505062000383565b806002908051906020019062000101929190620001d3565b5050565b600033905090565b6000600560009054906101000a900473ffffffffffffffffffffffffffffffffffffffff16905081600560006101000a81548173ffffffffffffffffffffffffffffffffffffffff021916908373ffffffffffffffffffffffffffffffffffffffff1602179055508173ffffffffffffffffffffffffffffffffffffffff168173ffffffffffffffffffffffffffffffffffffffff167f8be0079c531659141344cd1fd0a4f28419497f9722a3daafe3b4186f6b6457e060405160405180910390a35050565b828054620001e1906200034e565b90600052602060002090601f01602090048101928262000205576000855562000251565b82601f106200022057805160ff191683800117855562000251565b8280016001018555821562000251579182015b828111156200025057825182559160200191906001019062000233565b5b50905062000260919062000264565b5090565b5b808211156200027f57600081600090555060010162000265565b5090565b600080fd5b600073ffffffffffffffffffffffffffffffffffffffff82169050919050565b6000620002b58262000288565b9050919050565b620002c781620002a8565b8114620002d357600080fd5b50565b600081519050620002e781620002bc565b92915050565b60006020828403121562000306576200030562000283565b5b60006200031684828501620002d6565b91505092915050565b7f4e487b7100000000000000000000000000000000000000000000000000000000600052602260045260246000fd5b600060028204905060018216806200036757607f821691505b6020821081036200037d576200037c6200031f565b5b50919050565b613f3980620003936000396000f3fe6080604052600436106100fd5760003560e01c80638da5cb5b11610095578063f242432a11610064578063f242432a14610344578063f2fde38b1461036d578063f3fdf55214610396578063f5298aca146103bf578063fc69d836146103e8576100fd565b80638da5cb5b1461028a578063a22cb465146102b5578063cf4d832c146102de578063e985e9c514610307576100fd565b80632eb2c2d6116100d15780632eb2c2d6146101e45780634e1273f41461020d5780636b20c4541461024a578063715018a614610273576100fd565b8062fdd58e1461010257806301ffc9a71461013f5780630e89341c1461017c57806310fe9ae8146101b9575b600080fd5b34801561010e57600080fd5b50610129600480360381019061012491906124bc565b610404565b604051610136919061250b565b60405180910390f35b34801561014b57600080fd5b506101666004803603810190610161919061257e565b6104cc565b60405161017391906125c6565b60405180910390f35b34801561018857600080fd5b506101a3600480360381019061019e91906125e1565b6105ae565b6040516101b091906126a7565b60405180910390f35b3480156101c557600080fd5b506101ce6105c0565b6040516101db91906126d8565b60405180910390f35b3480156101f057600080fd5b5061020b600480360381019061020691906128f0565b6105ea565b005b34801561021957600080fd5b50610234600480360381019061022f9190612a82565b61068b565b6040516102419190612bb8565b60405180910390f35b34801561025657600080fd5b50610271600480360381019061026c9190612bda565b6107a4565b005b34801561027f57600080fd5b50610288610841565b005b34801561029657600080fd5b5061029f610855565b6040516102ac91906126d8565b60405180910390f35b3480156102c157600080fd5b506102dc60048036038101906102d79190612c91565b61087f565b005b3480156102ea57600080fd5b5061030560048036038101906103009190612d72565b610895565b005b34801561031357600080fd5b5061032e60048036038101906103299190612dce565b610aab565b60405161033b91906125c6565b60405180910390f35b34801561035057600080fd5b5061036b60048036038101906103669190612e0e565b610b3f565b005b34801561037957600080fd5b50610394600480360381019061038f9190612ea5565b610be0565b005b3480156103a257600080fd5b506103bd60048036038101906103b891906125e1565b610c63565b005b3480156103cb57600080fd5b506103e660048036038101906103e19190612ed2565b610e0a565b005b61040260048036038101906103fd91906125e1565b610ea7565b005b60008073ffffffffffffffffffffffffffffffffffffffff168373ffffffffffffffffffffffffffffffffffffffff1603610474576040517f08c379a000000000000000000000000000000000000000000000000000000000815260040161046b90612f97565b60405180910390fd5b60008083815260200190815260200160002060008473ffffffffffffffffffffffffffffffffffffffff1673ffffffffffffffffffffffffffffffffffffffff16815260200190815260200160002054905092915050565b60007fd9b67a26000000000000000000000000000000000000000000000000000000007bffffffffffffffffffffffffffffffffffffffffffffffffffffffff1916827bffffffffffffffffffffffffffffffffffffffffffffffffffffffff1916148061059757507f0e89341c000000000000000000000000000000000000000000000000000000007bffffffffffffffffffffffffffffffffffffffffffffffffffffffff1916827bffffffffffffffffffffffffffffffffffffffffffffffffffffffff1916145b806105a757506105a68261104e565b5b9050919050565b60606105b9826110b8565b9050919050565b6000600660009054906101000a900473ffffffffffffffffffffffffffffffffffffffff16905090565b6105f261119d565b73ffffffffffffffffffffffffffffffffffffffff168573ffffffffffffffffffffffffffffffffffffffff16148061063857506106378561063261119d565b610aab565b5b610677576040517f08c379a000000000000000000000000000000000000000000000000000000000815260040161066e90613029565b60405180910390fd5b61068485858585856111a5565b5050505050565b606081518351146106d1576040517f08c379a00000000000000000000000000000000000000000000000000000000081526004016106c8906130bb565b60405180910390fd5b6000835167ffffffffffffffff8111156106ee576106ed6126f8565b5b60405190808252806020026020018201604052801561071c5781602001602082028036833780820191505090505b50905060005b845181101561079957610769858281518110610741576107406130db565b5b602002602001015185838151811061075c5761075b6130db565b5b6020026020010151610404565b82828151811061077c5761077b6130db565b5b6020026020010181815250508061079290613139565b9050610722565b508091505092915050565b6107ac61119d565b73ffffffffffffffffffffffffffffffffffffffff168373ffffffffffffffffffffffffffffffffffffffff1614806107f257506107f1836107ec61119d565b610aab565b5b610831576040517f08c379a000000000000000000000000000000000000000000000000000000000815260040161082890613029565b60405180910390fd5b61083c8383836114c6565b505050565b610849611794565b6108536000611812565b565b6000600560009054906101000a900473ffffffffffffffffffffffffffffffffffffffff16905090565b61089161088a61119d565b83836118d8565b5050565b60006007600081546108a690613139565b9190508190559050600660009054906101000a900473ffffffffffffffffffffffffffffffffffffffff1673ffffffffffffffffffffffffffffffffffffffff1663b795a881823360008060006040518663ffffffff1660e01b815260040161091395949392919061323d565b600060405180830381600087803b15801561092d57600080fd5b505af1158015610941573d6000803e3d6000fd5b50505050600660009054906101000a900473ffffffffffffffffffffffffffffffffffffffff1673ffffffffffffffffffffffffffffffffffffffff1663731133e93383866040518463ffffffff1660e01b81526004016109a4939291906132c7565b600060405180830381600087803b1580156109be57600080fd5b505af11580156109d2573d6000803e3d6000fd5b50505050600660009054906101000a900473ffffffffffffffffffffffffffffffffffffffff1673ffffffffffffffffffffffffffffffffffffffff1663862440e282846040518363ffffffff1660e01b8152600401610a33929190613311565b600060405180830381600087803b158015610a4d57600080fd5b505af1158015610a61573d6000803e3d6000fd5b505050507f2323df2a7aedd89684600618a0eeb6393cb28d37814e3bd3dd1fad49c249f54181336000806000604051610a9e95949392919061323d565b60405180910390a1505050565b6000600160008473ffffffffffffffffffffffffffffffffffffffff1673ffffffffffffffffffffffffffffffffffffffff16815260200190815260200160002060008373ffffffffffffffffffffffffffffffffffffffff1673ffffffffffffffffffffffffffffffffffffffff16815260200190815260200160002060009054906101000a900460ff16905092915050565b610b4761119d565b73ffffffffffffffffffffffffffffffffffffffff168573ffffffffffffffffffffffffffffffffffffffff161480610b8d5750610b8c85610b8761119d565b610aab565b5b610bcc576040517f08c379a0000000000000000000000000000000000000000000000000000000008152600401610bc390613029565b60405180910390fd5b610bd98585858585611a44565b5050505050565b610be8611794565b600073ffffffffffffffffffffffffffffffffffffffff168173ffffffffffffffffffffffffffffffffffffffff1603610c57576040517f08c379a0000000000000000000000000000000000000000000000000000000008152600401610c4e906133b3565b60405180910390fd5b610c6081611812565b50565b610c6b611794565b6000600660009054906101000a900473ffffffffffffffffffffffffffffffffffffffff1673ffffffffffffffffffffffffffffffffffffffff1663f392243b836040518263ffffffff1660e01b8152600401610cc8919061250b565b60a060405180830381865afa158015610ce5573d6000803e3d6000fd5b505050506040513d601f19601f82011682018060405250810190610d0991906134c8565b905060006002811115610d1f57610d1e613181565b5b81604001516002811115610d3657610d35613181565b5b14610d76576040517f08c379a0000000000000000000000000000000000000000000000000000000008152600401610d6d90613541565b60405180910390fd5b600660009054906101000a900473ffffffffffffffffffffffffffffffffffffffff1673ffffffffffffffffffffffffffffffffffffffff16633a1b3d318360026040518363ffffffff1660e01b8152600401610dd4929190613561565b600060405180830381600087803b158015610dee57600080fd5b505af1158015610e02573d6000803e3d6000fd5b505050505050565b610e1261119d565b73ffffffffffffffffffffffffffffffffffffffff168373ffffffffffffffffffffffffffffffffffffffff161480610e585750610e5783610e5261119d565b610aab565b5b610e97576040517f08c379a0000000000000000000000000000000000000000000000000000000008152600401610e8e90613029565b60405180910390fd5b610ea2838383611cdf565b505050565b610eaf611794565b6000600660009054906101000a900473ffffffffffffffffffffffffffffffffffffffff1673ffffffffffffffffffffffffffffffffffffffff1663f392243b836040518263ffffffff1660e01b8152600401610f0c919061250b565b60a060405180830381865afa158015610f29573d6000803e3d6000fd5b505050506040513d601f19601f82011682018060405250810190610f4d91906134c8565b905060006002811115610f6357610f62613181565b5b81604001516002811115610f7a57610f79613181565b5b14610fba576040517f08c379a0000000000000000000000000000000000000000000000000000000008152600401610fb1906135d6565b60405180910390fd5b600660009054906101000a900473ffffffffffffffffffffffffffffffffffffffff1673ffffffffffffffffffffffffffffffffffffffff16633a1b3d318360016040518363ffffffff1660e01b8152600401611018929190613561565b600060405180830381600087803b15801561103257600080fd5b505af1158015611046573d6000803e3d6000fd5b505050505050565b60007f01ffc9a7000000000000000000000000000000000000000000000000000000007bffffffffffffffffffffffffffffffffffffffffffffffffffffffff1916827bffffffffffffffffffffffffffffffffffffffffffffffffffffffff1916149050919050565b606060006004600084815260200190815260200160002080546110da90613625565b80601f016020809104026020016040519081016040528092919081815260200182805461110690613625565b80156111535780601f1061112857610100808354040283529160200191611153565b820191906000526020600020905b81548152906001019060200180831161113657829003601f168201915b5050505050905060008151116111715761116c83611f25565b611195565b600381604051602001611185929190613726565b6040516020818303038152906040525b915050919050565b600033905090565b81518351146111e9576040517f08c379a00000000000000000000000000000000000000000000000000000000081526004016111e0906137bc565b60405180910390fd5b600073ffffffffffffffffffffffffffffffffffffffff168473ffffffffffffffffffffffffffffffffffffffff1603611258576040517f08c379a000000000000000000000000000000000000000000000000000000000815260040161124f9061384e565b60405180910390fd5b600061126261119d565b9050611272818787878787611fb9565b60005b8451811015611423576000858281518110611293576112926130db565b5b6020026020010151905060008583815181106112b2576112b16130db565b5b60200260200101519050600080600084815260200190815260200160002060008b73ffffffffffffffffffffffffffffffffffffffff1673ffffffffffffffffffffffffffffffffffffffff16815260200190815260200160002054905081811015611353576040517f08c379a000000000000000000000000000000000000000000000000000000000815260040161134a906138e0565b60405180910390fd5b81810360008085815260200190815260200160002060008c73ffffffffffffffffffffffffffffffffffffffff1673ffffffffffffffffffffffffffffffffffffffff168152602001908152602001600020819055508160008085815260200190815260200160002060008b73ffffffffffffffffffffffffffffffffffffffff1673ffffffffffffffffffffffffffffffffffffffff16815260200190815260200160002060008282546114089190613900565b925050819055505050508061141c90613139565b9050611275565b508473ffffffffffffffffffffffffffffffffffffffff168673ffffffffffffffffffffffffffffffffffffffff168273ffffffffffffffffffffffffffffffffffffffff167f4a39dc06d4c0dbc64b70af90fd698a233a518aa5d07e595d983b8c0526c8f7fb878760405161149a929190613956565b60405180910390a46114b0818787878787611fc1565b6114be818787878787611fc9565b505050505050565b600073ffffffffffffffffffffffffffffffffffffffff168373ffffffffffffffffffffffffffffffffffffffff1603611535576040517f08c379a000000000000000000000000000000000000000000000000000000000815260040161152c906139ff565b60405180910390fd5b8051825114611579576040517f08c379a0000000000000000000000000000000000000000000000000000000008152600401611570906137bc565b60405180910390fd5b600061158361119d565b90506115a381856000868660405180602001604052806000815250611fb9565b60005b83518110156116f05760008482815181106115c4576115c36130db565b5b6020026020010151905060008483815181106115e3576115e26130db565b5b60200260200101519050600080600084815260200190815260200160002060008973ffffffffffffffffffffffffffffffffffffffff1673ffffffffffffffffffffffffffffffffffffffff16815260200190815260200160002054905081811015611684576040517f08c379a000000000000000000000000000000000000000000000000000000000815260040161167b90613a91565b60405180910390fd5b81810360008085815260200190815260200160002060008a73ffffffffffffffffffffffffffffffffffffffff1673ffffffffffffffffffffffffffffffffffffffff1681526020019081526020016000208190555050505080806116e890613139565b9150506115a6565b50600073ffffffffffffffffffffffffffffffffffffffff168473ffffffffffffffffffffffffffffffffffffffff168273ffffffffffffffffffffffffffffffffffffffff167f4a39dc06d4c0dbc64b70af90fd698a233a518aa5d07e595d983b8c0526c8f7fb8686604051611768929190613956565b60405180910390a461178e81856000868660405180602001604052806000815250611fc1565b50505050565b61179c61119d565b73ffffffffffffffffffffffffffffffffffffffff166117ba610855565b73ffffffffffffffffffffffffffffffffffffffff1614611810576040517f08c379a000000000000000000000000000000000000000000000000000000000815260040161180790613afd565b60405180910390fd5b565b6000600560009054906101000a900473ffffffffffffffffffffffffffffffffffffffff16905081600560006101000a81548173ffffffffffffffffffffffffffffffffffffffff021916908373ffffffffffffffffffffffffffffffffffffffff1602179055508173ffffffffffffffffffffffffffffffffffffffff168173ffffffffffffffffffffffffffffffffffffffff167f8be0079c531659141344cd1fd0a4f28419497f9722a3daafe3b4186f6b6457e060405160405180910390a35050565b8173ffffffffffffffffffffffffffffffffffffffff168373ffffffffffffffffffffffffffffffffffffffff1603611946576040517f08c379a000000000000000000000000000000000000000000000000000000000815260040161193d90613b8f565b60405180910390fd5b80600160008573ffffffffffffffffffffffffffffffffffffffff1673ffffffffffffffffffffffffffffffffffffffff16815260200190815260200160002060008473ffffffffffffffffffffffffffffffffffffffff1673ffffffffffffffffffffffffffffffffffffffff16815260200190815260200160002060006101000a81548160ff0219169083151502179055508173ffffffffffffffffffffffffffffffffffffffff168373ffffffffffffffffffffffffffffffffffffffff167f17307eab39ab6107e8899845ad3d59bd9653f200f220920489ca2b5937696c3183604051611a3791906125c6565b60405180910390a3505050565b600073ffffffffffffffffffffffffffffffffffffffff168473ffffffffffffffffffffffffffffffffffffffff1603611ab3576040517f08c379a0000000000000000000000000000000000000000000000000000000008152600401611aaa9061384e565b60405180910390fd5b6000611abd61119d565b90506000611aca856121a0565b90506000611ad7856121a0565b9050611ae7838989858589611fb9565b600080600088815260200190815260200160002060008a73ffffffffffffffffffffffffffffffffffffffff1673ffffffffffffffffffffffffffffffffffffffff16815260200190815260200160002054905085811015611b7e576040517f08c379a0000000000000000000000000000000000000000000000000000000008152600401611b75906138e0565b60405180910390fd5b85810360008089815260200190815260200160002060008b73ffffffffffffffffffffffffffffffffffffffff1673ffffffffffffffffffffffffffffffffffffffff168152602001908152602001600020819055508560008089815260200190815260200160002060008a73ffffffffffffffffffffffffffffffffffffffff1673ffffffffffffffffffffffffffffffffffffffff1681526020019081526020016000206000828254611c339190613900565b925050819055508773ffffffffffffffffffffffffffffffffffffffff168973ffffffffffffffffffffffffffffffffffffffff168573ffffffffffffffffffffffffffffffffffffffff167fc3d58168c5ae7397731d063d5bbf3d657854427343f4c083240f7aacaa2d0f628a8a604051611cb0929190613baf565b60405180910390a4611cc6848a8a86868a611fc1565b611cd4848a8a8a8a8a61221a565b505050505050505050565b600073ffffffffffffffffffffffffffffffffffffffff168373ffffffffffffffffffffffffffffffffffffffff1603611d4e576040517f08c379a0000000000000000000000000000000000000000000000000000000008152600401611d45906139ff565b60405180910390fd5b6000611d5861119d565b90506000611d65846121a0565b90506000611d72846121a0565b9050611d9283876000858560405180602001604052806000815250611fb9565b600080600087815260200190815260200160002060008873ffffffffffffffffffffffffffffffffffffffff1673ffffffffffffffffffffffffffffffffffffffff16815260200190815260200160002054905084811015611e29576040517f08c379a0000000000000000000000000000000000000000000000000000000008152600401611e2090613a91565b60405180910390fd5b84810360008088815260200190815260200160002060008973ffffffffffffffffffffffffffffffffffffffff1673ffffffffffffffffffffffffffffffffffffffff16815260200190815260200160002081905550600073ffffffffffffffffffffffffffffffffffffffff168773ffffffffffffffffffffffffffffffffffffffff168573ffffffffffffffffffffffffffffffffffffffff167fc3d58168c5ae7397731d063d5bbf3d657854427343f4c083240f7aacaa2d0f628989604051611ef6929190613baf565b60405180910390a4611f1c84886000868660405180602001604052806000815250611fc1565b50505050505050565b606060028054611f3490613625565b80601f0160208091040260200160405190810160405280929190818152602001828054611f6090613625565b8015611fad5780601f10611f8257610100808354040283529160200191611fad565b820191906000526020600020905b815481529060010190602001808311611f9057829003601f168201915b50505050509050919050565b505050505050565b505050505050565b611fe88473ffffffffffffffffffffffffffffffffffffffff166123f1565b15612198578373ffffffffffffffffffffffffffffffffffffffff1663bc197c8187878686866040518663ffffffff1660e01b815260040161202e959493929190613c1c565b6020604051808303816000875af192505050801561206a57506040513d601f19601f820116820180604052508101906120679190613c99565b60015b61210f57612076613cd3565b806308c379a0036120d2575061208a613cf5565b8061209557506120d4565b806040517f08c379a00000000000000000000000000000000000000000000000000000000081526004016120c991906126a7565b60405180910390fd5b505b6040517f08c379a000000000000000000000000000000000000000000000000000000000815260040161210690613df7565b60405180910390fd5b63bc197c8160e01b7bffffffffffffffffffffffffffffffffffffffffffffffffffffffff1916817bffffffffffffffffffffffffffffffffffffffffffffffffffffffff191614612196576040517f08c379a000000000000000000000000000000000000000000000000000000000815260040161218d90613e89565b60405180910390fd5b505b505050505050565b60606000600167ffffffffffffffff8111156121bf576121be6126f8565b5b6040519080825280602002602001820160405280156121ed5781602001602082028036833780820191505090505b5090508281600081518110612205576122046130db565b5b60200260200101818152505080915050919050565b6122398473ffffffffffffffffffffffffffffffffffffffff166123f1565b156123e9578373ffffffffffffffffffffffffffffffffffffffff1663f23a6e6187878686866040518663ffffffff1660e01b815260040161227f959493929190613ea9565b6020604051808303816000875af19250505080156122bb57506040513d601f19601f820116820180604052508101906122b89190613c99565b60015b612360576122c7613cd3565b806308c379a00361232357506122db613cf5565b806122e65750612325565b806040517f08c379a000000000000000000000000000000000000000000000000000000000815260040161231a91906126a7565b60405180910390fd5b505b6040517f08c379a000000000000000000000000000000000000000000000000000000000815260040161235790613df7565b60405180910390fd5b63f23a6e6160e01b7bffffffffffffffffffffffffffffffffffffffffffffffffffffffff1916817bffffffffffffffffffffffffffffffffffffffffffffffffffffffff1916146123e7576040517f08c379a00000000000000000000000000000000000000000000000000000000081526004016123de90613e89565b60405180910390fd5b505b505050505050565b6000808273ffffffffffffffffffffffffffffffffffffffff163b119050919050565b6000604051905090565b600080fd5b600080fd5b600073ffffffffffffffffffffffffffffffffffffffff82169050919050565b600061245382612428565b9050919050565b61246381612448565b811461246e57600080fd5b50565b6000813590506124808161245a565b92915050565b6000819050919050565b61249981612486565b81146124a457600080fd5b50565b6000813590506124b681612490565b92915050565b600080604083850312156124d3576124d261241e565b5b60006124e185828601612471565b92505060206124f2858286016124a7565b9150509250929050565b61250581612486565b82525050565b600060208201905061252060008301846124fc565b92915050565b60007fffffffff0000000000000000000000000000000000000000000000000000000082169050919050565b61255b81612526565b811461256657600080fd5b50565b60008135905061257881612552565b92915050565b6000602082840312156125945761259361241e565b5b60006125a284828501612569565b91505092915050565b60008115159050919050565b6125c0816125ab565b82525050565b60006020820190506125db60008301846125b7565b92915050565b6000602082840312156125f7576125f661241e565b5b6000612605848285016124a7565b91505092915050565b600081519050919050565b600082825260208201905092915050565b60005b8381101561264857808201518184015260208101905061262d565b83811115612657576000848401525b50505050565b6000601f19601f8301169050919050565b60006126798261260e565b6126838185612619565b935061269381856020860161262a565b61269c8161265d565b840191505092915050565b600060208201905081810360008301526126c1818461266e565b905092915050565b6126d281612448565b82525050565b60006020820190506126ed60008301846126c9565b92915050565b600080fd5b7f4e487b7100000000000000000000000000000000000000000000000000000000600052604160045260246000fd5b6127308261265d565b810181811067ffffffffffffffff8211171561274f5761274e6126f8565b5b80604052505050565b6000612762612414565b905061276e8282612727565b919050565b600067ffffffffffffffff82111561278e5761278d6126f8565b5b602082029050602081019050919050565b600080fd5b60006127b76127b284612773565b612758565b905080838252602082019050602084028301858111156127da576127d961279f565b5b835b8181101561280357806127ef88826124a7565b8452602084019350506020810190506127dc565b5050509392505050565b600082601f830112612822576128216126f3565b5b81356128328482602086016127a4565b91505092915050565b600080fd5b600067ffffffffffffffff82111561285b5761285a6126f8565b5b6128648261265d565b9050602081019050919050565b82818337600083830152505050565b600061289361288e84612840565b612758565b9050828152602081018484840111156128af576128ae61283b565b5b6128ba848285612871565b509392505050565b600082601f8301126128d7576128d66126f3565b5b81356128e7848260208601612880565b91505092915050565b600080600080600060a0868803121561290c5761290b61241e565b5b600061291a88828901612471565b955050602061292b88828901612471565b945050604086013567ffffffffffffffff81111561294c5761294b612423565b5b6129588882890161280d565b935050606086013567ffffffffffffffff81111561297957612978612423565b5b6129858882890161280d565b925050608086013567ffffffffffffffff8111156129a6576129a5612423565b5b6129b2888289016128c2565b9150509295509295909350565b600067ffffffffffffffff8211156129da576129d96126f8565b5b602082029050602081019050919050565b60006129fe6129f9846129bf565b612758565b90508083825260208201905060208402830185811115612a2157612a2061279f565b5b835b81811015612a4a5780612a368882612471565b845260208401935050602081019050612a23565b5050509392505050565b600082601f830112612a6957612a686126f3565b5b8135612a798482602086016129eb565b91505092915050565b60008060408385031215612a9957612a9861241e565b5b600083013567ffffffffffffffff811115612ab757612ab6612423565b5b612ac385828601612a54565b925050602083013567ffffffffffffffff811115612ae457612ae3612423565b5b612af08582860161280d565b9150509250929050565b600081519050919050565b600082825260208201905092915050565b6000819050602082019050919050565b612b2f81612486565b82525050565b6000612b418383612b26565b60208301905092915050565b6000602082019050919050565b6000612b6582612afa565b612b6f8185612b05565b9350612b7a83612b16565b8060005b83811015612bab578151612b928882612b35565b9750612b9d83612b4d565b925050600181019050612b7e565b5085935050505092915050565b60006020820190508181036000830152612bd28184612b5a565b905092915050565b600080600060608486031215612bf357612bf261241e565b5b6000612c0186828701612471565b935050602084013567ffffffffffffffff811115612c2257612c21612423565b5b612c2e8682870161280d565b925050604084013567ffffffffffffffff811115612c4f57612c4e612423565b5b612c5b8682870161280d565b9150509250925092565b612c6e816125ab565b8114612c7957600080fd5b50565b600081359050612c8b81612c65565b92915050565b60008060408385031215612ca857612ca761241e565b5b6000612cb685828601612471565b9250506020612cc785828601612c7c565b9150509250929050565b600067ffffffffffffffff821115612cec57612ceb6126f8565b5b612cf58261265d565b9050602081019050919050565b6000612d15612d1084612cd1565b612758565b905082815260208101848484011115612d3157612d3061283b565b5b612d3c848285612871565b509392505050565b600082601f830112612d5957612d586126f3565b5b8135612d69848260208601612d02565b91505092915050565b60008060408385031215612d8957612d8861241e565b5b6000612d97858286016124a7565b925050602083013567ffffffffffffffff811115612db857612db7612423565b5b612dc485828601612d44565b9150509250929050565b60008060408385031215612de557612de461241e565b5b6000612df385828601612471565b9250506020612e0485828601612471565b9150509250929050565b600080600080600060a08688031215612e2a57612e2961241e565b5b6000612e3888828901612471565b9550506020612e4988828901612471565b9450506040612e5a888289016124a7565b9350506060612e6b888289016124a7565b925050608086013567ffffffffffffffff811115612e8c57612e8b612423565b5b612e98888289016128c2565b9150509295509295909350565b600060208284031215612ebb57612eba61241e565b5b6000612ec984828501612471565b91505092915050565b600080600060608486031215612eeb57612eea61241e565b5b6000612ef986828701612471565b9350506020612f0a868287016124a7565b9250506040612f1b868287016124a7565b9150509250925092565b7f455243313135353a2061646472657373207a65726f206973206e6f742061207660008201527f616c6964206f776e657200000000000000000000000000000000000000000000602082015250565b6000612f81602a83612619565b9150612f8c82612f25565b604082019050919050565b60006020820190508181036000830152612fb081612f74565b9050919050565b7f455243313135353a2063616c6c6572206973206e6f7420746f6b656e206f776e60008201527f6572206f7220617070726f766564000000000000000000000000000000000000602082015250565b6000613013602e83612619565b915061301e82612fb7565b604082019050919050565b6000602082019050818103600083015261304281613006565b9050919050565b7f455243313135353a206163636f756e747320616e6420696473206c656e67746860008201527f206d69736d617463680000000000000000000000000000000000000000000000602082015250565b60006130a5602983612619565b91506130b082613049565b604082019050919050565b600060208201905081810360008301526130d481613098565b9050919050565b7f4e487b7100000000000000000000000000000000000000000000000000000000600052603260045260246000fd5b7f4e487b7100000000000000000000000000000000000000000000000000000000600052601160045260246000fd5b600061314482612486565b91507fffffffffffffffffffffffffffffffffffffffffffffffffffffffffffffffff82036131765761317561310a565b5b600182019050919050565b7f4e487b7100000000000000000000000000000000000000000000000000000000600052602160045260246000fd5b600381106131c1576131c0613181565b5b50565b60008190506131d2826131b0565b919050565b60006131e2826131c4565b9050919050565b6131f2816131d7565b82525050565b6000819050919050565b6000819050919050565b600061322761322261321d846131f8565b613202565b612486565b9050919050565b6132378161320c565b82525050565b600060a08201905061325260008301886124fc565b61325f60208301876126c9565b61326c60408301866131e9565b613279606083018561322e565b61328660808301846125b7565b9695505050505050565b600082825260208201905092915050565b50565b60006132b1600083613290565b91506132bc826132a1565b600082019050919050565b60006080820190506132dc60008301866126c9565b6132e960208301856124fc565b6132f660408301846124fc565b8181036060830152613307816132a4565b9050949350505050565b600060408201905061332660008301856124fc565b8181036020830152613338818461266e565b90509392505050565b7f4f776e61626c653a206e6577206f776e657220697320746865207a65726f206160008201527f6464726573730000000000000000000000000000000000000000000000000000602082015250565b600061339d602683612619565b91506133a882613341565b604082019050919050565b600060208201905081810360008301526133cc81613390565b9050919050565b600080fd5b6000815190506133e781612490565b92915050565b6000815190506133fc8161245a565b92915050565b6003811061340f57600080fd5b50565b60008151905061342181613402565b92915050565b60008151905061343681612c65565b92915050565b600060a08284031215613452576134516133d3565b5b61345c60a0612758565b9050600061346c848285016133d8565b6000830152506020613480848285016133ed565b602083015250604061349484828501613412565b60408301525060606134a8848285016133d8565b60608301525060806134bc84828501613427565b60808301525092915050565b600060a082840312156134de576134dd61241e565b5b60006134ec8482850161343c565b91505092915050565b7f50726f6a6563742063616e6e6f74206265206465636c696e6564000000000000600082015250565b600061352b601a83612619565b9150613536826134f5565b602082019050919050565b6000602082019050818103600083015261355a8161351e565b9050919050565b600060408201905061357660008301856124fc565b61358360208301846131e9565b9392505050565b7f50726f6a6563742063616e6e6f7420626520617070726f766564000000000000600082015250565b60006135c0601a83612619565b91506135cb8261358a565b602082019050919050565b600060208201905081810360008301526135ef816135b3565b9050919050565b7f4e487b7100000000000000000000000000000000000000000000000000000000600052602260045260246000fd5b6000600282049050600182168061363d57607f821691505b6020821081036136505761364f6135f6565b5b50919050565b600081905092915050565b60008190508160005260206000209050919050565b6000815461368381613625565b61368d8186613656565b945060018216600081146136a857600181146136b9576136ec565b60ff198316865281860193506136ec565b6136c285613661565b60005b838110156136e4578154818901526001820191506020810190506136c5565b838801955050505b50505092915050565b60006137008261260e565b61370a8185613656565b935061371a81856020860161262a565b80840191505092915050565b60006137328285613676565b915061373e82846136f5565b91508190509392505050565b7f455243313135353a2069647320616e6420616d6f756e7473206c656e6774682060008201527f6d69736d61746368000000000000000000000000000000000000000000000000602082015250565b60006137a6602883612619565b91506137b18261374a565b604082019050919050565b600060208201905081810360008301526137d581613799565b9050919050565b7f455243313135353a207472616e7366657220746f20746865207a65726f20616460008201527f6472657373000000000000000000000000000000000000000000000000000000602082015250565b6000613838602583612619565b9150613843826137dc565b604082019050919050565b600060208201905081810360008301526138678161382b565b9050919050565b7f455243313135353a20696e73756666696369656e742062616c616e636520666f60008201527f72207472616e7366657200000000000000000000000000000000000000000000602082015250565b60006138ca602a83612619565b91506138d58261386e565b604082019050919050565b600060208201905081810360008301526138f9816138bd565b9050919050565b600061390b82612486565b915061391683612486565b9250827fffffffffffffffffffffffffffffffffffffffffffffffffffffffffffffffff0382111561394b5761394a61310a565b5b828201905092915050565b600060408201905081810360008301526139708185612b5a565b905081810360208301526139848184612b5a565b90509392505050565b7f455243313135353a206275726e2066726f6d20746865207a65726f206164647260008201527f6573730000000000000000000000000000000000000000000000000000000000602082015250565b60006139e9602383612619565b91506139f48261398d565b604082019050919050565b60006020820190508181036000830152613a18816139dc565b9050919050565b7f455243313135353a206275726e20616d6f756e7420657863656564732062616c60008201527f616e636500000000000000000000000000000000000000000000000000000000602082015250565b6000613a7b602483612619565b9150613a8682613a1f565b604082019050919050565b60006020820190508181036000830152613aaa81613a6e565b9050919050565b7f4f776e61626c653a2063616c6c6572206973206e6f7420746865206f776e6572600082015250565b6000613ae7602083612619565b9150613af282613ab1565b602082019050919050565b60006020820190508181036000830152613b1681613ada565b9050919050565b7f455243313135353a2073657474696e6720617070726f76616c2073746174757360008201527f20666f722073656c660000000000000000000000000000000000000000000000602082015250565b6000613b79602983612619565b9150613b8482613b1d565b604082019050919050565b60006020820190508181036000830152613ba881613b6c565b9050919050565b6000604082019050613bc460008301856124fc565b613bd160208301846124fc565b9392505050565b600081519050919050565b6000613bee82613bd8565b613bf88185613290565b9350613c0881856020860161262a565b613c118161265d565b840191505092915050565b600060a082019050613c3160008301886126c9565b613c3e60208301876126c9565b8181036040830152613c508186612b5a565b90508181036060830152613c648185612b5a565b90508181036080830152613c788184613be3565b90509695505050505050565b600081519050613c9381612552565b92915050565b600060208284031215613caf57613cae61241e565b5b6000613cbd84828501613c84565b91505092915050565b60008160e01c9050919050565b600060033d1115613cf25760046000803e613cef600051613cc6565b90505b90565b600060443d10613d8257613d07612414565b60043d036004823e80513d602482011167ffffffffffffffff82111715613d2f575050613d82565b808201805167ffffffffffffffff811115613d4d5750505050613d82565b80602083010160043d038501811115613d6a575050505050613d82565b613d7982602001850186612727565b82955050505050505b90565b7f455243313135353a207472616e7366657220746f206e6f6e2d4552433131353560008201527f526563656976657220696d706c656d656e746572000000000000000000000000602082015250565b6000613de1603483612619565b9150613dec82613d85565b604082019050919050565b60006020820190508181036000830152613e1081613dd4565b9050919050565b7f455243313135353a204552433131353552656365697665722072656a6563746560008201527f6420746f6b656e73000000000000000000000000000000000000000000000000602082015250565b6000613e73602883612619565b9150613e7e82613e17565b604082019050919050565b60006020820190508181036000830152613ea281613e66565b9050919050565b600060a082019050613ebe60008301886126c9565b613ecb60208301876126c9565b613ed860408301866124fc565b613ee560608301856124fc565b8181036080830152613ef78184613be3565b9050969550505050505056fea2646970667358221220d3d1442c1bb7cae93d8ae801052b7db41395be4aa0177894c14c13be273b92a364736f6c634300080d0033",
  "immutableReferences": {},
  "source": "// SPDX-License-Identifier: MIT\npragma solidity ^0.8.13;\n\nimport \"./CarbonToken.sol\";\nimport \"./CarbonBase.sol\";\nimport \"@openzeppelin/contracts/access/Ownable.sol\";\n\ncontract ProjectManagement is Ownable, CarbonBase {\n    CarbonToken private _token;\n    uint256 private _tokenIds;\n\n    constructor(address _tokenAddress) {\n        _token = CarbonToken(_tokenAddress);\n    }\n\n    function registerProject(uint256 tokenSupply, string memory tokenURI) public {\n        uint256 currentId = ++_tokenIds; // tokenID starts from 1\n         _token.setCarbonCredit(\n            currentId,\n            msg.sender,\n            ApprovalStatus.Pending,\n            0,\n            false\n        );\n        _token.mint(msg.sender, currentId, tokenSupply, \"\");\n        _token.setURI(currentId, tokenURI);\n        emit CarbonCreditCreated(\n            currentId,\n            msg.sender,\n            ApprovalStatus.Pending,\n            0,\n            false\n        );\n    }\n\n    function approveProject(uint256 tokenId) public payable onlyOwner {\n        CarbonCredit memory credit = _token.getCarbonCredit(tokenId);\n\n        require(\n            credit.status == ApprovalStatus.Pending,\n            \"Project cannot be approved\"\n        );\n\n        _token.updateStatus(tokenId, ApprovalStatus.Approved);\n    }\n\n    function declineProject(uint256 tokenId) public onlyOwner {\n        CarbonCredit memory credit = _token.getCarbonCredit(tokenId);\n\n        require(\n            credit.status == ApprovalStatus.Pending,\n            \"Project cannot be declined\"\n        );\n        _token.updateStatus(tokenId, ApprovalStatus.Declined);\n    }\n\n    function getTokenAddress() public view returns (address) {\n        return address(_token);\n    }\n}\n",
  "sourcePath": "/Users/buudinhha/Vscode/DATN/main/contracts/ProjectManagement.sol",
  "compiler": {
    "name": "solc",
    "version": "0.8.13+commit.abaa5c0e.Emscripten.clang"
  },
  "schemaVersion": "3.4.16",
  "updatedAt": "2024-05-17T05:53:24.044Z",
  "networkType": "ethereum",
  "devdoc": {
    "kind": "dev",
    "methods": {
      "balanceOf(address,uint256)": {
        "details": "See {IERC1155-balanceOf}. Requirements: - `account` cannot be the zero address."
      },
      "balanceOfBatch(address[],uint256[])": {
        "details": "See {IERC1155-balanceOfBatch}. Requirements: - `accounts` and `ids` must have the same length."
      },
      "isApprovedForAll(address,address)": {
        "details": "See {IERC1155-isApprovedForAll}."
      },
      "owner()": {
        "details": "Returns the address of the current owner."
      },
      "renounceOwnership()": {
        "details": "Leaves the contract without owner. It will not be possible to call `onlyOwner` functions. Can only be called by the current owner. NOTE: Renouncing ownership will leave the contract without an owner, thereby disabling any functionality that is only available to the owner."
      },
      "safeBatchTransferFrom(address,address,uint256[],uint256[],bytes)": {
        "details": "See {IERC1155-safeBatchTransferFrom}."
      },
      "safeTransferFrom(address,address,uint256,uint256,bytes)": {
        "details": "See {IERC1155-safeTransferFrom}."
      },
      "setApprovalForAll(address,bool)": {
        "details": "See {IERC1155-setApprovalForAll}."
      },
      "supportsInterface(bytes4)": {
        "details": "See {IERC165-supportsInterface}."
      },
      "transferOwnership(address)": {
        "details": "Transfers ownership of the contract to a new account (`newOwner`). Can only be called by the current owner."
      }
    },
    "version": 1
  },
  "userdoc": {
    "kind": "user",
    "methods": {},
    "version": 1
  }
}