{
  "contractName": "ProjectManagement",
  "abi": [
    {
      "inputs": [
        {
          "internalType": "address",
          "name": "_tokenAddress",
          "type": "address"
        }
      ],
      "stateMutability": "nonpayable",
      "type": "constructor"
    },
    {
      "anonymous": false,
      "inputs": [
        {
          "indexed": true,
          "internalType": "address",
          "name": "account",
          "type": "address"
        },
        {
          "indexed": true,
          "internalType": "address",
          "name": "operator",
          "type": "address"
        },
        {
          "indexed": false,
          "internalType": "bool",
          "name": "approved",
          "type": "bool"
        }
      ],
      "name": "ApprovalForAll",
      "type": "event"
    },
    {
      "anonymous": false,
      "inputs": [
        {
          "indexed": false,
          "internalType": "uint256",
          "name": "tokenId",
          "type": "uint256"
        },
        {
          "indexed": false,
          "internalType": "address",
          "name": "initialOwner",
          "type": "address"
        },
        {
          "indexed": false,
          "internalType": "enum CarbonBase.ApprovalStatus",
          "name": "status",
          "type": "uint8"
        },
        {
          "indexed": false,
          "internalType": "uint256",
          "name": "pricePerCredit",
          "type": "uint256"
        },
        {
          "indexed": false,
          "internalType": "bool",
          "name": "isListed",
          "type": "bool"
        }
      ],
      "name": "CarbonCreditCreated",
      "type": "event"
    },
    {
      "anonymous": false,
      "inputs": [
        {
          "indexed": false,
          "internalType": "uint256",
          "name": "tokenId",
          "type": "uint256"
        },
        {
          "indexed": false,
          "internalType": "address",
          "name": "initialOwner",
          "type": "address"
        },
        {
          "indexed": false,
          "internalType": "enum CarbonBase.ApprovalStatus",
          "name": "status",
          "type": "uint8"
        },
        {
          "indexed": false,
          "internalType": "uint256",
          "name": "pricePerCredit",
          "type": "uint256"
        },
        {
          "indexed": false,
          "internalType": "bool",
          "name": "isListed",
          "type": "bool"
        }
      ],
      "name": "CarbonCreditListed",
      "type": "event"
    },
    {
      "anonymous": false,
      "inputs": [
        {
          "indexed": true,
          "internalType": "address",
          "name": "previousOwner",
          "type": "address"
        },
        {
          "indexed": true,
          "internalType": "address",
          "name": "newOwner",
          "type": "address"
        }
      ],
      "name": "OwnershipTransferred",
      "type": "event"
    },
    {
      "anonymous": false,
      "inputs": [
        {
          "indexed": true,
          "internalType": "uint256",
          "name": "tokenId",
          "type": "uint256"
        },
        {
          "indexed": true,
          "internalType": "address",
          "name": "from",
          "type": "address"
        },
        {
          "indexed": true,
          "internalType": "address",
          "name": "to",
          "type": "address"
        },
        {
          "indexed": false,
          "internalType": "uint256",
          "name": "amount",
          "type": "uint256"
        }
      ],
      "name": "TokenTransferred",
      "type": "event"
    },
    {
      "anonymous": false,
      "inputs": [
        {
          "indexed": true,
          "internalType": "address",
          "name": "operator",
          "type": "address"
        },
        {
          "indexed": true,
          "internalType": "address",
          "name": "from",
          "type": "address"
        },
        {
          "indexed": true,
          "internalType": "address",
          "name": "to",
          "type": "address"
        },
        {
          "indexed": false,
          "internalType": "uint256[]",
          "name": "ids",
          "type": "uint256[]"
        },
        {
          "indexed": false,
          "internalType": "uint256[]",
          "name": "values",
          "type": "uint256[]"
        }
      ],
      "name": "TransferBatch",
      "type": "event"
    },
    {
      "anonymous": false,
      "inputs": [
        {
          "indexed": true,
          "internalType": "address",
          "name": "operator",
          "type": "address"
        },
        {
          "indexed": true,
          "internalType": "address",
          "name": "from",
          "type": "address"
        },
        {
          "indexed": true,
          "internalType": "address",
          "name": "to",
          "type": "address"
        },
        {
          "indexed": false,
          "internalType": "uint256",
          "name": "id",
          "type": "uint256"
        },
        {
          "indexed": false,
          "internalType": "uint256",
          "name": "value",
          "type": "uint256"
        }
      ],
      "name": "TransferSingle",
      "type": "event"
    },
    {
      "anonymous": false,
      "inputs": [
        {
          "indexed": false,
          "internalType": "string",
          "name": "value",
          "type": "string"
        },
        {
          "indexed": true,
          "internalType": "uint256",
          "name": "id",
          "type": "uint256"
        }
      ],
      "name": "URI",
      "type": "event"
    },
    {
      "inputs": [
        {
          "internalType": "address",
          "name": "account",
          "type": "address"
        },
        {
          "internalType": "uint256",
          "name": "id",
          "type": "uint256"
        }
      ],
      "name": "balanceOf",
      "outputs": [
        {
          "internalType": "uint256",
          "name": "",
          "type": "uint256"
        }
      ],
      "stateMutability": "view",
      "type": "function",
      "constant": true
    },
    {
      "inputs": [
        {
          "internalType": "address[]",
          "name": "accounts",
          "type": "address[]"
        },
        {
          "internalType": "uint256[]",
          "name": "ids",
          "type": "uint256[]"
        }
      ],
      "name": "balanceOfBatch",
      "outputs": [
        {
          "internalType": "uint256[]",
          "name": "",
          "type": "uint256[]"
        }
      ],
      "stateMutability": "view",
      "type": "function",
      "constant": true
    },
    {
      "inputs": [
        {
          "internalType": "address",
          "name": "account",
          "type": "address"
        },
        {
          "internalType": "uint256",
          "name": "id",
          "type": "uint256"
        },
        {
          "internalType": "uint256",
          "name": "value",
          "type": "uint256"
        }
      ],
      "name": "burn",
      "outputs": [],
      "stateMutability": "nonpayable",
      "type": "function"
    },
    {
      "inputs": [
        {
          "internalType": "address",
          "name": "account",
          "type": "address"
        },
        {
          "internalType": "uint256[]",
          "name": "ids",
          "type": "uint256[]"
        },
        {
          "internalType": "uint256[]",
          "name": "values",
          "type": "uint256[]"
        }
      ],
      "name": "burnBatch",
      "outputs": [],
      "stateMutability": "nonpayable",
      "type": "function"
    },
    {
      "inputs": [
        {
          "internalType": "address",
          "name": "account",
          "type": "address"
        },
        {
          "internalType": "address",
          "name": "operator",
          "type": "address"
        }
      ],
      "name": "isApprovedForAll",
      "outputs": [
        {
          "internalType": "bool",
          "name": "",
          "type": "bool"
        }
      ],
      "stateMutability": "view",
      "type": "function",
      "constant": true
    },
    {
      "inputs": [],
      "name": "owner",
      "outputs": [
        {
          "internalType": "address",
          "name": "",
          "type": "address"
        }
      ],
      "stateMutability": "view",
      "type": "function",
      "constant": true
    },
    {
      "inputs": [],
      "name": "renounceOwnership",
      "outputs": [],
      "stateMutability": "nonpayable",
      "type": "function"
    },
    {
      "inputs": [
        {
          "internalType": "address",
          "name": "from",
          "type": "address"
        },
        {
          "internalType": "address",
          "name": "to",
          "type": "address"
        },
        {
          "internalType": "uint256[]",
          "name": "ids",
          "type": "uint256[]"
        },
        {
          "internalType": "uint256[]",
          "name": "amounts",
          "type": "uint256[]"
        },
        {
          "internalType": "bytes",
          "name": "data",
          "type": "bytes"
        }
      ],
      "name": "safeBatchTransferFrom",
      "outputs": [],
      "stateMutability": "nonpayable",
      "type": "function"
    },
    {
      "inputs": [
        {
          "internalType": "address",
          "name": "from",
          "type": "address"
        },
        {
          "internalType": "address",
          "name": "to",
          "type": "address"
        },
        {
          "internalType": "uint256",
          "name": "id",
          "type": "uint256"
        },
        {
          "internalType": "uint256",
          "name": "amount",
          "type": "uint256"
        },
        {
          "internalType": "bytes",
          "name": "data",
          "type": "bytes"
        }
      ],
      "name": "safeTransferFrom",
      "outputs": [],
      "stateMutability": "nonpayable",
      "type": "function"
    },
    {
      "inputs": [
        {
          "internalType": "address",
          "name": "operator",
          "type": "address"
        },
        {
          "internalType": "bool",
          "name": "approved",
          "type": "bool"
        }
      ],
      "name": "setApprovalForAll",
      "outputs": [],
      "stateMutability": "nonpayable",
      "type": "function"
    },
    {
      "inputs": [
        {
          "internalType": "bytes4",
          "name": "interfaceId",
          "type": "bytes4"
        }
      ],
      "name": "supportsInterface",
      "outputs": [
        {
          "internalType": "bool",
          "name": "",
          "type": "bool"
        }
      ],
      "stateMutability": "view",
      "type": "function",
      "constant": true
    },
    {
      "inputs": [
        {
          "internalType": "address",
          "name": "newOwner",
          "type": "address"
        }
      ],
      "name": "transferOwnership",
      "outputs": [],
      "stateMutability": "nonpayable",
      "type": "function"
    },
    {
      "inputs": [
        {
          "internalType": "uint256",
          "name": "tokenId",
          "type": "uint256"
        }
      ],
      "name": "uri",
      "outputs": [
        {
          "internalType": "string",
          "name": "",
          "type": "string"
        }
      ],
      "stateMutability": "pure",
      "type": "function",
      "constant": true
    },
    {
      "inputs": [
        {
          "internalType": "uint256",
          "name": "tokenSupply",
          "type": "uint256"
        }
      ],
      "name": "registerProject",
      "outputs": [],
      "stateMutability": "nonpayable",
      "type": "function"
    },
    {
      "inputs": [
        {
          "internalType": "uint256",
          "name": "tokenId",
          "type": "uint256"
        }
      ],
      "name": "approveProject",
      "outputs": [],
      "stateMutability": "payable",
      "type": "function",
      "payable": true
    },
    {
      "inputs": [
        {
          "internalType": "uint256",
          "name": "tokenId",
          "type": "uint256"
        }
      ],
      "name": "declineProject",
      "outputs": [],
      "stateMutability": "nonpayable",
      "type": "function"
    },
    {
      "inputs": [],
      "name": "getTokenAddress",
      "outputs": [
        {
          "internalType": "address",
          "name": "",
          "type": "address"
        }
      ],
      "stateMutability": "view",
      "type": "function",
      "constant": true
    }
  ],
  "bytecode": "0x608060405260405180602001604052806000815250600390805190602001906200002b929190620001dd565b503480156200003957600080fd5b50604051620045393803806200453983398181016040528101906200005f9190620002f7565b6040518060600160405280602b81526020016200450e602b91396200008a81620000f360201b60201c565b50620000ab6200009f6200010f60201b60201c565b6200011760201b60201c565b80600660006101000a81548173ffffffffffffffffffffffffffffffffffffffff021916908373ffffffffffffffffffffffffffffffffffffffff160217905550506200038d565b80600290805190602001906200010b929190620001dd565b5050565b600033905090565b6000600560009054906101000a900473ffffffffffffffffffffffffffffffffffffffff16905081600560006101000a81548173ffffffffffffffffffffffffffffffffffffffff021916908373ffffffffffffffffffffffffffffffffffffffff1602179055508173ffffffffffffffffffffffffffffffffffffffff168173ffffffffffffffffffffffffffffffffffffffff167f8be0079c531659141344cd1fd0a4f28419497f9722a3daafe3b4186f6b6457e060405160405180910390a35050565b828054620001eb9062000358565b90600052602060002090601f0160209004810192826200020f57600085556200025b565b82601f106200022a57805160ff19168380011785556200025b565b828001600101855582156200025b579182015b828111156200025a5782518255916020019190600101906200023d565b5b5090506200026a91906200026e565b5090565b5b80821115620002895760008160009055506001016200026f565b5090565b600080fd5b600073ffffffffffffffffffffffffffffffffffffffff82169050919050565b6000620002bf8262000292565b9050919050565b620002d181620002b2565b8114620002dd57600080fd5b50565b600081519050620002f181620002c6565b92915050565b60006020828403121562000310576200030f6200028d565b5b60006200032084828501620002e0565b91505092915050565b7f4e487b7100000000000000000000000000000000000000000000000000000000600052602260045260246000fd5b600060028204905060018216806200037157607f821691505b60208210810362000387576200038662000329565b5b50919050565b614171806200039d6000396000f3fe6080604052600436106100fd5760003560e01c8063715018a611610095578063f242432a11610064578063f242432a14610344578063f2fde38b1461036d578063f3fdf55214610396578063f5298aca146103bf578063fc69d836146103e8576100fd565b8063715018a61461029c5780638da5cb5b146102b3578063a22cb465146102de578063e985e9c514610307576100fd565b806326726e6b116100d157806326726e6b146101e45780632eb2c2d61461020d5780634e1273f4146102365780636b20c45414610273576100fd565b8062fdd58e1461010257806301ffc9a71461013f5780630e89341c1461017c57806310fe9ae8146101b9575b600080fd5b34801561010e57600080fd5b50610129600480360381019061012491906127cc565b610404565b604051610136919061281b565b60405180910390f35b34801561014b57600080fd5b506101666004803603810190610161919061288e565b6104cc565b60405161017391906128d6565b60405180910390f35b34801561018857600080fd5b506101a3600480360381019061019e91906128f1565b6105ae565b6040516101b091906129b7565b60405180910390f35b3480156101c557600080fd5b506101ce6105df565b6040516101db91906129e8565b60405180910390f35b3480156101f057600080fd5b5061020b600480360381019061020691906128f1565b610609565b005b34801561021957600080fd5b50610234600480360381019061022f9190612c00565b6107d9565b005b34801561024257600080fd5b5061025d60048036038101906102589190612d92565b61087a565b60405161026a9190612ec8565b60405180910390f35b34801561027f57600080fd5b5061029a60048036038101906102959190612eea565b610993565b005b3480156102a857600080fd5b506102b1610a30565b005b3480156102bf57600080fd5b506102c8610a44565b6040516102d591906129e8565b60405180910390f35b3480156102ea57600080fd5b5061030560048036038101906103009190612fa1565b610a6e565b005b34801561031357600080fd5b5061032e60048036038101906103299190612fe1565b610a84565b60405161033b91906128d6565b60405180910390f35b34801561035057600080fd5b5061036b60048036038101906103669190613021565b610b18565b005b34801561037957600080fd5b50610394600480360381019061038f91906130b8565b610bb9565b005b3480156103a257600080fd5b506103bd60048036038101906103b891906128f1565b610c3c565b005b3480156103cb57600080fd5b506103e660048036038101906103e191906130e5565b610e70565b005b61040260048036038101906103fd91906128f1565b610f0d565b005b60008073ffffffffffffffffffffffffffffffffffffffff168373ffffffffffffffffffffffffffffffffffffffff1603610474576040517f08c379a000000000000000000000000000000000000000000000000000000000815260040161046b906131aa565b60405180910390fd5b60008083815260200190815260200160002060008473ffffffffffffffffffffffffffffffffffffffff1673ffffffffffffffffffffffffffffffffffffffff16815260200190815260200160002054905092915050565b60007fd9b67a26000000000000000000000000000000000000000000000000000000007bffffffffffffffffffffffffffffffffffffffffffffffffffffffff1916827bffffffffffffffffffffffffffffffffffffffffffffffffffffffff1916148061059757507f0e89341c000000000000000000000000000000000000000000000000000000007bffffffffffffffffffffffffffffffffffffffffffffffffffffffff1916827bffffffffffffffffffffffffffffffffffffffffffffffffffffffff1916145b806105a757506105a6826112b6565b5b9050919050565b60606105b982611320565b6040516020016105c991906132ea565b6040516020818303038152906040529050919050565b6000600660009054906101000a900473ffffffffffffffffffffffffffffffffffffffff16905090565b600060076000815461061a90613346565b9190508190559050600660009054906101000a900473ffffffffffffffffffffffffffffffffffffffff1673ffffffffffffffffffffffffffffffffffffffff1663b795a881823360008060006040518663ffffffff1660e01b815260040161068795949392919061344a565b600060405180830381600087803b1580156106a157600080fd5b505af11580156106b5573d6000803e3d6000fd5b50505050600660009054906101000a900473ffffffffffffffffffffffffffffffffffffffff1673ffffffffffffffffffffffffffffffffffffffff1663278d17ad82846040518363ffffffff1660e01b815260040161071692919061349d565b600060405180830381600087803b15801561073057600080fd5b505af1158015610744573d6000803e3d6000fd5b50505050600660009054906101000a900473ffffffffffffffffffffffffffffffffffffffff1673ffffffffffffffffffffffffffffffffffffffff1663663680ee826040518263ffffffff1660e01b81526004016107a3919061281b565b600060405180830381600087803b1580156107bd57600080fd5b505af11580156107d1573d6000803e3d6000fd5b505050505050565b6107e16113ee565b73ffffffffffffffffffffffffffffffffffffffff168573ffffffffffffffffffffffffffffffffffffffff1614806108275750610826856108216113ee565b610a84565b5b610866576040517f08c379a000000000000000000000000000000000000000000000000000000000815260040161085d90613538565b60405180910390fd5b61087385858585856113f6565b5050505050565b606081518351146108c0576040517f08c379a00000000000000000000000000000000000000000000000000000000081526004016108b7906135ca565b60405180910390fd5b6000835167ffffffffffffffff8111156108dd576108dc612a08565b5b60405190808252806020026020018201604052801561090b5781602001602082028036833780820191505090505b50905060005b8451811015610988576109588582815181106109305761092f6135ea565b5b602002602001015185838151811061094b5761094a6135ea565b5b6020026020010151610404565b82828151811061096b5761096a6135ea565b5b6020026020010181815250508061098190613346565b9050610911565b508091505092915050565b61099b6113ee565b73ffffffffffffffffffffffffffffffffffffffff168373ffffffffffffffffffffffffffffffffffffffff1614806109e157506109e0836109db6113ee565b610a84565b5b610a20576040517f08c379a0000000000000000000000000000000000000000000000000000000008152600401610a1790613538565b60405180910390fd5b610a2b838383611717565b505050565b610a386119e5565b610a426000611a63565b565b6000600560009054906101000a900473ffffffffffffffffffffffffffffffffffffffff16905090565b610a80610a796113ee565b8383611b29565b5050565b6000600160008473ffffffffffffffffffffffffffffffffffffffff1673ffffffffffffffffffffffffffffffffffffffff16815260200190815260200160002060008373ffffffffffffffffffffffffffffffffffffffff1673ffffffffffffffffffffffffffffffffffffffff16815260200190815260200160002060009054906101000a900460ff16905092915050565b610b206113ee565b73ffffffffffffffffffffffffffffffffffffffff168573ffffffffffffffffffffffffffffffffffffffff161480610b665750610b6585610b606113ee565b610a84565b5b610ba5576040517f08c379a0000000000000000000000000000000000000000000000000000000008152600401610b9c90613538565b60405180910390fd5b610bb28585858585611c95565b5050505050565b610bc16119e5565b600073ffffffffffffffffffffffffffffffffffffffff168173ffffffffffffffffffffffffffffffffffffffff1603610c30576040517f08c379a0000000000000000000000000000000000000000000000000000000008152600401610c279061368b565b60405180910390fd5b610c3981611a63565b50565b610c446119e5565b6000600660009054906101000a900473ffffffffffffffffffffffffffffffffffffffff1673ffffffffffffffffffffffffffffffffffffffff1663f392243b836040518263ffffffff1660e01b8152600401610ca1919061281b565b60a060405180830381865afa158015610cbe573d6000803e3d6000fd5b505050506040513d601f19601f82011682018060405250810190610ce291906137a0565b905060006002811115610cf857610cf761338e565b5b81604001516002811115610d0f57610d0e61338e565b5b14610d4f576040517f08c379a0000000000000000000000000000000000000000000000000000000008152600401610d4690613819565b60405180910390fd5b600660009054906101000a900473ffffffffffffffffffffffffffffffffffffffff1673ffffffffffffffffffffffffffffffffffffffff16633a1b3d318360026040518363ffffffff1660e01b8152600401610dad929190613839565b600060405180830381600087803b158015610dc757600080fd5b505af1158015610ddb573d6000803e3d6000fd5b50505050600660009054906101000a900473ffffffffffffffffffffffffffffffffffffffff1673ffffffffffffffffffffffffffffffffffffffff1663ac6ad32e836040518263ffffffff1660e01b8152600401610e3a919061281b565b600060405180830381600087803b158015610e5457600080fd5b505af1158015610e68573d6000803e3d6000fd5b505050505050565b610e786113ee565b73ffffffffffffffffffffffffffffffffffffffff168373ffffffffffffffffffffffffffffffffffffffff161480610ebe5750610ebd83610eb86113ee565b610a84565b5b610efd576040517f08c379a0000000000000000000000000000000000000000000000000000000008152600401610ef490613538565b60405180910390fd5b610f08838383611f30565b505050565b610f156119e5565b6000600660009054906101000a900473ffffffffffffffffffffffffffffffffffffffff1673ffffffffffffffffffffffffffffffffffffffff1663f392243b836040518263ffffffff1660e01b8152600401610f72919061281b565b60a060405180830381865afa158015610f8f573d6000803e3d6000fd5b505050506040513d601f19601f82011682018060405250810190610fb391906137a0565b905060006002811115610fc957610fc861338e565b5b81604001516002811115610fe057610fdf61338e565b5b14611020576040517f08c379a0000000000000000000000000000000000000000000000000000000008152600401611017906138ae565b60405180910390fd5b600660009054906101000a900473ffffffffffffffffffffffffffffffffffffffff1673ffffffffffffffffffffffffffffffffffffffff16633a1b3d318360016040518363ffffffff1660e01b815260040161107e929190613839565b600060405180830381600087803b15801561109857600080fd5b505af11580156110ac573d6000803e3d6000fd5b50505050600660009054906101000a900473ffffffffffffffffffffffffffffffffffffffff1673ffffffffffffffffffffffffffffffffffffffff1663731133e9826020015184600660009054906101000a900473ffffffffffffffffffffffffffffffffffffffff1673ffffffffffffffffffffffffffffffffffffffff166319b88edb876040518263ffffffff1660e01b815260040161114f919061281b565b602060405180830381865afa15801561116c573d6000803e3d6000fd5b505050506040513d601f19601f8201168201806040525081019061119091906138ce565b6040518463ffffffff1660e01b81526004016111ae93929190613932565b600060405180830381600087803b1580156111c857600080fd5b505af11580156111dc573d6000803e3d6000fd5b50505050600660009054906101000a900473ffffffffffffffffffffffffffffffffffffffff1673ffffffffffffffffffffffffffffffffffffffff1663ac6ad32e836040518263ffffffff1660e01b815260040161123b919061281b565b600060405180830381600087803b15801561125557600080fd5b505af1158015611269573d6000803e3d6000fd5b505050507f2323df2a7aedd89684600618a0eeb6393cb28d37814e3bd3dd1fad49c249f54182826020015160016000806040516112aa95949392919061344a565b60405180910390a15050565b60007f01ffc9a7000000000000000000000000000000000000000000000000000000007bffffffffffffffffffffffffffffffffffffffffffffffffffffffff1916827bffffffffffffffffffffffffffffffffffffffffffffffffffffffff1916149050919050565b60606000600161132f84612176565b01905060008167ffffffffffffffff81111561134e5761134d612a08565b5b6040519080825280601f01601f1916602001820160405280156113805781602001600182028036833780820191505090505b509050600082602001820190505b6001156113e3578080600190039150507f3031323334353637383961626364656600000000000000000000000000000000600a86061a8153600a85816113d7576113d661397c565b5b0494506000850361138e575b819350505050919050565b600033905090565b815183511461143a576040517f08c379a000000000000000000000000000000000000000000000000000000000815260040161143190613a1d565b60405180910390fd5b600073ffffffffffffffffffffffffffffffffffffffff168473ffffffffffffffffffffffffffffffffffffffff16036114a9576040517f08c379a00000000000000000000000000000000000000000000000000000000081526004016114a090613aaf565b60405180910390fd5b60006114b36113ee565b90506114c38187878787876122c9565b60005b84518110156116745760008582815181106114e4576114e36135ea565b5b602002602001015190506000858381518110611503576115026135ea565b5b60200260200101519050600080600084815260200190815260200160002060008b73ffffffffffffffffffffffffffffffffffffffff1673ffffffffffffffffffffffffffffffffffffffff168152602001908152602001600020549050818110156115a4576040517f08c379a000000000000000000000000000000000000000000000000000000000815260040161159b90613b41565b60405180910390fd5b81810360008085815260200190815260200160002060008c73ffffffffffffffffffffffffffffffffffffffff1673ffffffffffffffffffffffffffffffffffffffff168152602001908152602001600020819055508160008085815260200190815260200160002060008b73ffffffffffffffffffffffffffffffffffffffff1673ffffffffffffffffffffffffffffffffffffffff16815260200190815260200160002060008282546116599190613b61565b925050819055505050508061166d90613346565b90506114c6565b508473ffffffffffffffffffffffffffffffffffffffff168673ffffffffffffffffffffffffffffffffffffffff168273ffffffffffffffffffffffffffffffffffffffff167f4a39dc06d4c0dbc64b70af90fd698a233a518aa5d07e595d983b8c0526c8f7fb87876040516116eb929190613bb7565b60405180910390a46117018187878787876122d1565b61170f8187878787876122d9565b505050505050565b600073ffffffffffffffffffffffffffffffffffffffff168373ffffffffffffffffffffffffffffffffffffffff1603611786576040517f08c379a000000000000000000000000000000000000000000000000000000000815260040161177d90613c60565b60405180910390fd5b80518251146117ca576040517f08c379a00000000000000000000000000000000000000000000000000000000081526004016117c190613a1d565b60405180910390fd5b60006117d46113ee565b90506117f4818560008686604051806020016040528060008152506122c9565b60005b8351811015611941576000848281518110611815576118146135ea565b5b602002602001015190506000848381518110611834576118336135ea565b5b60200260200101519050600080600084815260200190815260200160002060008973ffffffffffffffffffffffffffffffffffffffff1673ffffffffffffffffffffffffffffffffffffffff168152602001908152602001600020549050818110156118d5576040517f08c379a00000000000000000000000000000000000000000000000000000000081526004016118cc90613cf2565b60405180910390fd5b81810360008085815260200190815260200160002060008a73ffffffffffffffffffffffffffffffffffffffff1673ffffffffffffffffffffffffffffffffffffffff16815260200190815260200160002081905550505050808061193990613346565b9150506117f7565b50600073ffffffffffffffffffffffffffffffffffffffff168473ffffffffffffffffffffffffffffffffffffffff168273ffffffffffffffffffffffffffffffffffffffff167f4a39dc06d4c0dbc64b70af90fd698a233a518aa5d07e595d983b8c0526c8f7fb86866040516119b9929190613bb7565b60405180910390a46119df818560008686604051806020016040528060008152506122d1565b50505050565b6119ed6113ee565b73ffffffffffffffffffffffffffffffffffffffff16611a0b610a44565b73ffffffffffffffffffffffffffffffffffffffff1614611a61576040517f08c379a0000000000000000000000000000000000000000000000000000000008152600401611a5890613d5e565b60405180910390fd5b565b6000600560009054906101000a900473ffffffffffffffffffffffffffffffffffffffff16905081600560006101000a81548173ffffffffffffffffffffffffffffffffffffffff021916908373ffffffffffffffffffffffffffffffffffffffff1602179055508173ffffffffffffffffffffffffffffffffffffffff168173ffffffffffffffffffffffffffffffffffffffff167f8be0079c531659141344cd1fd0a4f28419497f9722a3daafe3b4186f6b6457e060405160405180910390a35050565b8173ffffffffffffffffffffffffffffffffffffffff168373ffffffffffffffffffffffffffffffffffffffff1603611b97576040517f08c379a0000000000000000000000000000000000000000000000000000000008152600401611b8e90613df0565b60405180910390fd5b80600160008573ffffffffffffffffffffffffffffffffffffffff1673ffffffffffffffffffffffffffffffffffffffff16815260200190815260200160002060008473ffffffffffffffffffffffffffffffffffffffff1673ffffffffffffffffffffffffffffffffffffffff16815260200190815260200160002060006101000a81548160ff0219169083151502179055508173ffffffffffffffffffffffffffffffffffffffff168373ffffffffffffffffffffffffffffffffffffffff167f17307eab39ab6107e8899845ad3d59bd9653f200f220920489ca2b5937696c3183604051611c8891906128d6565b60405180910390a3505050565b600073ffffffffffffffffffffffffffffffffffffffff168473ffffffffffffffffffffffffffffffffffffffff1603611d04576040517f08c379a0000000000000000000000000000000000000000000000000000000008152600401611cfb90613aaf565b60405180910390fd5b6000611d0e6113ee565b90506000611d1b856124b0565b90506000611d28856124b0565b9050611d388389898585896122c9565b600080600088815260200190815260200160002060008a73ffffffffffffffffffffffffffffffffffffffff1673ffffffffffffffffffffffffffffffffffffffff16815260200190815260200160002054905085811015611dcf576040517f08c379a0000000000000000000000000000000000000000000000000000000008152600401611dc690613b41565b60405180910390fd5b85810360008089815260200190815260200160002060008b73ffffffffffffffffffffffffffffffffffffffff1673ffffffffffffffffffffffffffffffffffffffff168152602001908152602001600020819055508560008089815260200190815260200160002060008a73ffffffffffffffffffffffffffffffffffffffff1673ffffffffffffffffffffffffffffffffffffffff1681526020019081526020016000206000828254611e849190613b61565b925050819055508773ffffffffffffffffffffffffffffffffffffffff168973ffffffffffffffffffffffffffffffffffffffff168573ffffffffffffffffffffffffffffffffffffffff167fc3d58168c5ae7397731d063d5bbf3d657854427343f4c083240f7aacaa2d0f628a8a604051611f0192919061349d565b60405180910390a4611f17848a8a86868a6122d1565b611f25848a8a8a8a8a61252a565b505050505050505050565b600073ffffffffffffffffffffffffffffffffffffffff168373ffffffffffffffffffffffffffffffffffffffff1603611f9f576040517f08c379a0000000000000000000000000000000000000000000000000000000008152600401611f9690613c60565b60405180910390fd5b6000611fa96113ee565b90506000611fb6846124b0565b90506000611fc3846124b0565b9050611fe3838760008585604051806020016040528060008152506122c9565b600080600087815260200190815260200160002060008873ffffffffffffffffffffffffffffffffffffffff1673ffffffffffffffffffffffffffffffffffffffff1681526020019081526020016000205490508481101561207a576040517f08c379a000000000000000000000000000000000000000000000000000000000815260040161207190613cf2565b60405180910390fd5b84810360008088815260200190815260200160002060008973ffffffffffffffffffffffffffffffffffffffff1673ffffffffffffffffffffffffffffffffffffffff16815260200190815260200160002081905550600073ffffffffffffffffffffffffffffffffffffffff168773ffffffffffffffffffffffffffffffffffffffff168573ffffffffffffffffffffffffffffffffffffffff167fc3d58168c5ae7397731d063d5bbf3d657854427343f4c083240f7aacaa2d0f62898960405161214792919061349d565b60405180910390a461216d848860008686604051806020016040528060008152506122d1565b50505050505050565b600080600090507a184f03e93ff9f4daa797ed6e38ed64bf6a1f01000000000000000083106121d4577a184f03e93ff9f4daa797ed6e38ed64bf6a1f01000000000000000083816121ca576121c961397c565b5b0492506040810190505b6d04ee2d6d415b85acef81000000008310612211576d04ee2d6d415b85acef810000000083816122075761220661397c565b5b0492506020810190505b662386f26fc10000831061224057662386f26fc1000083816122365761223561397c565b5b0492506010810190505b6305f5e1008310612269576305f5e100838161225f5761225e61397c565b5b0492506008810190505b612710831061228e5761271083816122845761228361397c565b5b0492506004810190505b606483106122b157606483816122a7576122a661397c565b5b0492506002810190505b600a83106122c0576001810190505b80915050919050565b505050505050565b505050505050565b6122f88473ffffffffffffffffffffffffffffffffffffffff16612701565b156124a8578373ffffffffffffffffffffffffffffffffffffffff1663bc197c8187878686866040518663ffffffff1660e01b815260040161233e959493929190613e54565b6020604051808303816000875af192505050801561237a57506040513d601f19601f820116820180604052508101906123779190613ed1565b60015b61241f57612386613f0b565b806308c379a0036123e2575061239a613f2d565b806123a557506123e4565b806040517f08c379a00000000000000000000000000000000000000000000000000000000081526004016123d991906129b7565b60405180910390fd5b505b6040517f08c379a00000000000000000000000000000000000000000000000000000000081526004016124169061402f565b60405180910390fd5b63bc197c8160e01b7bffffffffffffffffffffffffffffffffffffffffffffffffffffffff1916817bffffffffffffffffffffffffffffffffffffffffffffffffffffffff1916146124a6576040517f08c379a000000000000000000000000000000000000000000000000000000000815260040161249d906140c1565b60405180910390fd5b505b505050505050565b60606000600167ffffffffffffffff8111156124cf576124ce612a08565b5b6040519080825280602002602001820160405280156124fd5781602001602082028036833780820191505090505b5090508281600081518110612515576125146135ea565b5b60200260200101818152505080915050919050565b6125498473ffffffffffffffffffffffffffffffffffffffff16612701565b156126f9578373ffffffffffffffffffffffffffffffffffffffff1663f23a6e6187878686866040518663ffffffff1660e01b815260040161258f9594939291906140e1565b6020604051808303816000875af19250505080156125cb57506040513d601f19601f820116820180604052508101906125c89190613ed1565b60015b612670576125d7613f0b565b806308c379a00361263357506125eb613f2d565b806125f65750612635565b806040517f08c379a000000000000000000000000000000000000000000000000000000000815260040161262a91906129b7565b60405180910390fd5b505b6040517f08c379a00000000000000000000000000000000000000000000000000000000081526004016126679061402f565b60405180910390fd5b63f23a6e6160e01b7bffffffffffffffffffffffffffffffffffffffffffffffffffffffff1916817bffffffffffffffffffffffffffffffffffffffffffffffffffffffff1916146126f7576040517f08c379a00000000000000000000000000000000000000000000000000000000081526004016126ee906140c1565b60405180910390fd5b505b505050505050565b6000808273ffffffffffffffffffffffffffffffffffffffff163b119050919050565b6000604051905090565b600080fd5b600080fd5b600073ffffffffffffffffffffffffffffffffffffffff82169050919050565b600061276382612738565b9050919050565b61277381612758565b811461277e57600080fd5b50565b6000813590506127908161276a565b92915050565b6000819050919050565b6127a981612796565b81146127b457600080fd5b50565b6000813590506127c6816127a0565b92915050565b600080604083850312156127e3576127e261272e565b5b60006127f185828601612781565b9250506020612802858286016127b7565b9150509250929050565b61281581612796565b82525050565b6000602082019050612830600083018461280c565b92915050565b60007fffffffff0000000000000000000000000000000000000000000000000000000082169050919050565b61286b81612836565b811461287657600080fd5b50565b60008135905061288881612862565b92915050565b6000602082840312156128a4576128a361272e565b5b60006128b284828501612879565b91505092915050565b60008115159050919050565b6128d0816128bb565b82525050565b60006020820190506128eb60008301846128c7565b92915050565b6000602082840312156129075761290661272e565b5b6000612915848285016127b7565b91505092915050565b600081519050919050565b600082825260208201905092915050565b60005b8381101561295857808201518184015260208101905061293d565b83811115612967576000848401525b50505050565b6000601f19601f8301169050919050565b60006129898261291e565b6129938185612929565b93506129a381856020860161293a565b6129ac8161296d565b840191505092915050565b600060208201905081810360008301526129d1818461297e565b905092915050565b6129e281612758565b82525050565b60006020820190506129fd60008301846129d9565b92915050565b600080fd5b7f4e487b7100000000000000000000000000000000000000000000000000000000600052604160045260246000fd5b612a408261296d565b810181811067ffffffffffffffff82111715612a5f57612a5e612a08565b5b80604052505050565b6000612a72612724565b9050612a7e8282612a37565b919050565b600067ffffffffffffffff821115612a9e57612a9d612a08565b5b602082029050602081019050919050565b600080fd5b6000612ac7612ac284612a83565b612a68565b90508083825260208201905060208402830185811115612aea57612ae9612aaf565b5b835b81811015612b135780612aff88826127b7565b845260208401935050602081019050612aec565b5050509392505050565b600082601f830112612b3257612b31612a03565b5b8135612b42848260208601612ab4565b91505092915050565b600080fd5b600067ffffffffffffffff821115612b6b57612b6a612a08565b5b612b748261296d565b9050602081019050919050565b82818337600083830152505050565b6000612ba3612b9e84612b50565b612a68565b905082815260208101848484011115612bbf57612bbe612b4b565b5b612bca848285612b81565b509392505050565b600082601f830112612be757612be6612a03565b5b8135612bf7848260208601612b90565b91505092915050565b600080600080600060a08688031215612c1c57612c1b61272e565b5b6000612c2a88828901612781565b9550506020612c3b88828901612781565b945050604086013567ffffffffffffffff811115612c5c57612c5b612733565b5b612c6888828901612b1d565b935050606086013567ffffffffffffffff811115612c8957612c88612733565b5b612c9588828901612b1d565b925050608086013567ffffffffffffffff811115612cb657612cb5612733565b5b612cc288828901612bd2565b9150509295509295909350565b600067ffffffffffffffff821115612cea57612ce9612a08565b5b602082029050602081019050919050565b6000612d0e612d0984612ccf565b612a68565b90508083825260208201905060208402830185811115612d3157612d30612aaf565b5b835b81811015612d5a5780612d468882612781565b845260208401935050602081019050612d33565b5050509392505050565b600082601f830112612d7957612d78612a03565b5b8135612d89848260208601612cfb565b91505092915050565b60008060408385031215612da957612da861272e565b5b600083013567ffffffffffffffff811115612dc757612dc6612733565b5b612dd385828601612d64565b925050602083013567ffffffffffffffff811115612df457612df3612733565b5b612e0085828601612b1d565b9150509250929050565b600081519050919050565b600082825260208201905092915050565b6000819050602082019050919050565b612e3f81612796565b82525050565b6000612e518383612e36565b60208301905092915050565b6000602082019050919050565b6000612e7582612e0a565b612e7f8185612e15565b9350612e8a83612e26565b8060005b83811015612ebb578151612ea28882612e45565b9750612ead83612e5d565b925050600181019050612e8e565b5085935050505092915050565b60006020820190508181036000830152612ee28184612e6a565b905092915050565b600080600060608486031215612f0357612f0261272e565b5b6000612f1186828701612781565b935050602084013567ffffffffffffffff811115612f3257612f31612733565b5b612f3e86828701612b1d565b925050604084013567ffffffffffffffff811115612f5f57612f5e612733565b5b612f6b86828701612b1d565b9150509250925092565b612f7e816128bb565b8114612f8957600080fd5b50565b600081359050612f9b81612f75565b92915050565b60008060408385031215612fb857612fb761272e565b5b6000612fc685828601612781565b9250506020612fd785828601612f8c565b9150509250929050565b60008060408385031215612ff857612ff761272e565b5b600061300685828601612781565b925050602061301785828601612781565b9150509250929050565b600080600080600060a0868803121561303d5761303c61272e565b5b600061304b88828901612781565b955050602061305c88828901612781565b945050604061306d888289016127b7565b935050606061307e888289016127b7565b925050608086013567ffffffffffffffff81111561309f5761309e612733565b5b6130ab88828901612bd2565b9150509295509295909350565b6000602082840312156130ce576130cd61272e565b5b60006130dc84828501612781565b91505092915050565b6000806000606084860312156130fe576130fd61272e565b5b600061310c86828701612781565b935050602061311d868287016127b7565b925050604061312e868287016127b7565b9150509250925092565b7f455243313135353a2061646472657373207a65726f206973206e6f742061207660008201527f616c6964206f776e657200000000000000000000000000000000000000000000602082015250565b6000613194602a83612929565b915061319f82613138565b604082019050919050565b600060208201905081810360008301526131c381613187565b9050919050565b600081905092915050565b7f68747470733a2f2f676174657761792e70696e6174612e636c6f75642f69706660008201527f732f516d52614e785a6f7546756e6e446e6473353756476d747274413245424560208201527f464c65737a6158416f38475a665a38652f000000000000000000000000000000604082015250565b60006132576051836131ca565b9150613262826131d5565b605182019050919050565b60006132788261291e565b61328281856131ca565b935061329281856020860161293a565b80840191505092915050565b7f2e6a736f6e000000000000000000000000000000000000000000000000000000600082015250565b60006132d46005836131ca565b91506132df8261329e565b600582019050919050565b60006132f58261324a565b9150613301828461326d565b915061330c826132c7565b915081905092915050565b7f4e487b7100000000000000000000000000000000000000000000000000000000600052601160045260246000fd5b600061335182612796565b91507fffffffffffffffffffffffffffffffffffffffffffffffffffffffffffffffff820361338357613382613317565b5b600182019050919050565b7f4e487b7100000000000000000000000000000000000000000000000000000000600052602160045260246000fd5b600381106133ce576133cd61338e565b5b50565b60008190506133df826133bd565b919050565b60006133ef826133d1565b9050919050565b6133ff816133e4565b82525050565b6000819050919050565b6000819050919050565b600061343461342f61342a84613405565b61340f565b612796565b9050919050565b61344481613419565b82525050565b600060a08201905061345f600083018861280c565b61346c60208301876129d9565b61347960408301866133f6565b613486606083018561343b565b61349360808301846128c7565b9695505050505050565b60006040820190506134b2600083018561280c565b6134bf602083018461280c565b9392505050565b7f455243313135353a2063616c6c6572206973206e6f7420746f6b656e206f776e60008201527f6572206f7220617070726f766564000000000000000000000000000000000000602082015250565b6000613522602e83612929565b915061352d826134c6565b604082019050919050565b6000602082019050818103600083015261355181613515565b9050919050565b7f455243313135353a206163636f756e747320616e6420696473206c656e67746860008201527f206d69736d617463680000000000000000000000000000000000000000000000602082015250565b60006135b4602983612929565b91506135bf82613558565b604082019050919050565b600060208201905081810360008301526135e3816135a7565b9050919050565b7f4e487b7100000000000000000000000000000000000000000000000000000000600052603260045260246000fd5b7f4f776e61626c653a206e6577206f776e657220697320746865207a65726f206160008201527f6464726573730000000000000000000000000000000000000000000000000000602082015250565b6000613675602683612929565b915061368082613619565b604082019050919050565b600060208201905081810360008301526136a481613668565b9050919050565b600080fd5b6000815190506136bf816127a0565b92915050565b6000815190506136d48161276a565b92915050565b600381106136e757600080fd5b50565b6000815190506136f9816136da565b92915050565b60008151905061370e81612f75565b92915050565b600060a0828403121561372a576137296136ab565b5b61373460a0612a68565b90506000613744848285016136b0565b6000830152506020613758848285016136c5565b602083015250604061376c848285016136ea565b6040830152506060613780848285016136b0565b6060830152506080613794848285016136ff565b60808301525092915050565b600060a082840312156137b6576137b561272e565b5b60006137c484828501613714565b91505092915050565b7f50726f6a6563742063616e6e6f74206265206465636c696e6564000000000000600082015250565b6000613803601a83612929565b915061380e826137cd565b602082019050919050565b60006020820190508181036000830152613832816137f6565b9050919050565b600060408201905061384e600083018561280c565b61385b60208301846133f6565b9392505050565b7f50726f6a6563742063616e6e6f7420626520617070726f766564000000000000600082015250565b6000613898601a83612929565b91506138a382613862565b602082019050919050565b600060208201905081810360008301526138c78161388b565b9050919050565b6000602082840312156138e4576138e361272e565b5b60006138f2848285016136b0565b91505092915050565b600082825260208201905092915050565b50565b600061391c6000836138fb565b91506139278261390c565b600082019050919050565b600060808201905061394760008301866129d9565b613954602083018561280c565b613961604083018461280c565b81810360608301526139728161390f565b9050949350505050565b7f4e487b7100000000000000000000000000000000000000000000000000000000600052601260045260246000fd5b7f455243313135353a2069647320616e6420616d6f756e7473206c656e6774682060008201527f6d69736d61746368000000000000000000000000000000000000000000000000602082015250565b6000613a07602883612929565b9150613a12826139ab565b604082019050919050565b60006020820190508181036000830152613a36816139fa565b9050919050565b7f455243313135353a207472616e7366657220746f20746865207a65726f20616460008201527f6472657373000000000000000000000000000000000000000000000000000000602082015250565b6000613a99602583612929565b9150613aa482613a3d565b604082019050919050565b60006020820190508181036000830152613ac881613a8c565b9050919050565b7f455243313135353a20696e73756666696369656e742062616c616e636520666f60008201527f72207472616e7366657200000000000000000000000000000000000000000000602082015250565b6000613b2b602a83612929565b9150613b3682613acf565b604082019050919050565b60006020820190508181036000830152613b5a81613b1e565b9050919050565b6000613b6c82612796565b9150613b7783612796565b9250827fffffffffffffffffffffffffffffffffffffffffffffffffffffffffffffffff03821115613bac57613bab613317565b5b828201905092915050565b60006040820190508181036000830152613bd18185612e6a565b90508181036020830152613be58184612e6a565b90509392505050565b7f455243313135353a206275726e2066726f6d20746865207a65726f206164647260008201527f6573730000000000000000000000000000000000000000000000000000000000602082015250565b6000613c4a602383612929565b9150613c5582613bee565b604082019050919050565b60006020820190508181036000830152613c7981613c3d565b9050919050565b7f455243313135353a206275726e20616d6f756e7420657863656564732062616c60008201527f616e636500000000000000000000000000000000000000000000000000000000602082015250565b6000613cdc602483612929565b9150613ce782613c80565b604082019050919050565b60006020820190508181036000830152613d0b81613ccf565b9050919050565b7f4f776e61626c653a2063616c6c6572206973206e6f7420746865206f776e6572600082015250565b6000613d48602083612929565b9150613d5382613d12565b602082019050919050565b60006020820190508181036000830152613d7781613d3b565b9050919050565b7f455243313135353a2073657474696e6720617070726f76616c2073746174757360008201527f20666f722073656c660000000000000000000000000000000000000000000000602082015250565b6000613dda602983612929565b9150613de582613d7e565b604082019050919050565b60006020820190508181036000830152613e0981613dcd565b9050919050565b600081519050919050565b6000613e2682613e10565b613e3081856138fb565b9350613e4081856020860161293a565b613e498161296d565b840191505092915050565b600060a082019050613e6960008301886129d9565b613e7660208301876129d9565b8181036040830152613e888186612e6a565b90508181036060830152613e9c8185612e6a565b90508181036080830152613eb08184613e1b565b90509695505050505050565b600081519050613ecb81612862565b92915050565b600060208284031215613ee757613ee661272e565b5b6000613ef584828501613ebc565b91505092915050565b60008160e01c9050919050565b600060033d1115613f2a5760046000803e613f27600051613efe565b90505b90565b600060443d10613fba57613f3f612724565b60043d036004823e80513d602482011167ffffffffffffffff82111715613f67575050613fba565b808201805167ffffffffffffffff811115613f855750505050613fba565b80602083010160043d038501811115613fa2575050505050613fba565b613fb182602001850186612a37565b82955050505050505b90565b7f455243313135353a207472616e7366657220746f206e6f6e2d4552433131353560008201527f526563656976657220696d706c656d656e746572000000000000000000000000602082015250565b6000614019603483612929565b915061402482613fbd565b604082019050919050565b600060208201905081810360008301526140488161400c565b9050919050565b7f455243313135353a204552433131353552656365697665722072656a6563746560008201527f6420746f6b656e73000000000000000000000000000000000000000000000000602082015250565b60006140ab602883612929565b91506140b68261404f565b604082019050919050565b600060208201905081810360008301526140da8161409e565b9050919050565b600060a0820190506140f660008301886129d9565b61410360208301876129d9565b614110604083018661280c565b61411d606083018561280c565b818103608083015261412f8184613e1b565b9050969550505050505056fea26469706673582212200bb35899c15d30264ff8d2ee19c5a2458075bc744cfc1a7b63ae3de4902a911864736f6c634300080d003368747470733a2f2f676174657761792e70696e6174612e636c6f75642f697066732f7b69647d2e6a736f6e",
  "immutableReferences": {},
  "source": "// SPDX-License-Identifier: MIT\npragma solidity ^0.8.13;\n\nimport \"./CarbonToken.sol\";\nimport \"./CarbonBase.sol\";\nimport \"@openzeppelin/contracts/access/Ownable.sol\";\n\ncontract ProjectManagement is Ownable, CarbonBase {\n    CarbonToken private _token;\n    uint256 private _tokenIds;\n\n    constructor(address _tokenAddress) {\n        _token = CarbonToken(_tokenAddress);\n    }\n\n    function registerProject(uint256 tokenSupply) public {\n        uint256 currentId = ++_tokenIds; // tokenID starts from 1\n\n        _token.setCarbonCredit(\n            currentId,\n            msg.sender,\n            ApprovalStatus.Pending,\n            0,\n            false\n        );\n\n        _token.setTokenSupply(currentId, tokenSupply);\n        _token.getAddTokenToAllTokensEnumeration(currentId);\n    }\n\n    function approveProject(uint256 tokenId) public payable onlyOwner {\n        CarbonCredit memory credit = _token.getCarbonCredit(tokenId);\n\n        require(\n            credit.status == ApprovalStatus.Pending,\n            \"Project cannot be approved\"\n        );\n\n        _token.updateStatus(tokenId, ApprovalStatus.Approved);\n        _token.mint(credit.initialOwner, tokenId, _token.getTokenSupply(tokenId), \"\");\n        _token.setURI(tokenId);\n\n        emit CarbonCreditCreated(\n            tokenId,\n            credit.initialOwner,\n            ApprovalStatus.Approved,\n            0,\n            false\n        );\n    }\n\n    function declineProject(uint256 tokenId) public onlyOwner {\n        CarbonCredit memory credit = _token.getCarbonCredit(tokenId);\n\n        require(\n            credit.status == ApprovalStatus.Pending,\n            \"Project cannot be declined\"\n        );\n        _token.updateStatus(tokenId, ApprovalStatus.Declined);\n        _token.setURI(tokenId);\n    }\n\n    function getTokenAddress() public view returns (address) {\n        return address(_token);\n    }\n}\n",
  "sourcePath": "/Users/buudinhha/Vscode/DATN/main/contracts/ProjectManagement.sol",
  "compiler": {
    "name": "solc",
    "version": "0.8.13+commit.abaa5c0e.Emscripten.clang"
  },
  "schemaVersion": "3.4.16",
  "updatedAt": "2024-04-30T09:30:00.726Z",
  "networkType": "ethereum",
  "devdoc": {
    "kind": "dev",
    "methods": {
      "balanceOf(address,uint256)": {
        "details": "See {IERC1155-balanceOf}. Requirements: - `account` cannot be the zero address."
      },
      "balanceOfBatch(address[],uint256[])": {
        "details": "See {IERC1155-balanceOfBatch}. Requirements: - `accounts` and `ids` must have the same length."
      },
      "isApprovedForAll(address,address)": {
        "details": "See {IERC1155-isApprovedForAll}."
      },
      "owner()": {
        "details": "Returns the address of the current owner."
      },
      "renounceOwnership()": {
        "details": "Leaves the contract without owner. It will not be possible to call `onlyOwner` functions. Can only be called by the current owner. NOTE: Renouncing ownership will leave the contract without an owner, thereby disabling any functionality that is only available to the owner."
      },
      "safeBatchTransferFrom(address,address,uint256[],uint256[],bytes)": {
        "details": "See {IERC1155-safeBatchTransferFrom}."
      },
      "safeTransferFrom(address,address,uint256,uint256,bytes)": {
        "details": "See {IERC1155-safeTransferFrom}."
      },
      "setApprovalForAll(address,bool)": {
        "details": "See {IERC1155-setApprovalForAll}."
      },
      "supportsInterface(bytes4)": {
        "details": "See {IERC165-supportsInterface}."
      },
      "transferOwnership(address)": {
        "details": "Transfers ownership of the contract to a new account (`newOwner`). Can only be called by the current owner."
      }
    },
    "version": 1
  },
  "userdoc": {
    "kind": "user",
    "methods": {},
    "version": 1
  }
}