{
  "contractName": "ProjectManagement",
  "abi": [
    {
      "inputs": [
        {
          "internalType": "address",
          "name": "_tokenAddress",
          "type": "address"
        }
      ],
      "stateMutability": "nonpayable",
      "type": "constructor"
    },
    {
      "anonymous": false,
      "inputs": [
        {
          "indexed": true,
          "internalType": "address",
          "name": "account",
          "type": "address"
        },
        {
          "indexed": true,
          "internalType": "address",
          "name": "operator",
          "type": "address"
        },
        {
          "indexed": false,
          "internalType": "bool",
          "name": "approved",
          "type": "bool"
        }
      ],
      "name": "ApprovalForAll",
      "type": "event"
    },
    {
      "anonymous": false,
      "inputs": [
        {
          "indexed": false,
          "internalType": "uint256",
          "name": "tokenId",
          "type": "uint256"
        },
        {
          "indexed": false,
          "internalType": "address",
          "name": "initialOwner",
          "type": "address"
        },
        {
          "indexed": false,
          "internalType": "enum CarbonBase.ApprovalStatus",
          "name": "status",
          "type": "uint8"
        },
        {
          "indexed": false,
          "internalType": "uint256",
          "name": "pricePerCredit",
          "type": "uint256"
        },
        {
          "indexed": false,
          "internalType": "bool",
          "name": "isListed",
          "type": "bool"
        }
      ],
      "name": "CarbonCreditCreated",
      "type": "event"
    },
    {
      "anonymous": false,
      "inputs": [
        {
          "indexed": false,
          "internalType": "uint256",
          "name": "tokenId",
          "type": "uint256"
        },
        {
          "indexed": false,
          "internalType": "address",
          "name": "initialOwner",
          "type": "address"
        },
        {
          "indexed": false,
          "internalType": "enum CarbonBase.ApprovalStatus",
          "name": "status",
          "type": "uint8"
        },
        {
          "indexed": false,
          "internalType": "uint256",
          "name": "pricePerCredit",
          "type": "uint256"
        },
        {
          "indexed": false,
          "internalType": "bool",
          "name": "isListed",
          "type": "bool"
        }
      ],
      "name": "CarbonCreditListed",
      "type": "event"
    },
    {
      "anonymous": false,
      "inputs": [
        {
          "indexed": true,
          "internalType": "address",
          "name": "previousOwner",
          "type": "address"
        },
        {
          "indexed": true,
          "internalType": "address",
          "name": "newOwner",
          "type": "address"
        }
      ],
      "name": "OwnershipTransferred",
      "type": "event"
    },
    {
      "anonymous": false,
      "inputs": [
        {
          "indexed": true,
          "internalType": "uint256",
          "name": "tokenId",
          "type": "uint256"
        },
        {
          "indexed": true,
          "internalType": "address",
          "name": "from",
          "type": "address"
        },
        {
          "indexed": true,
          "internalType": "address",
          "name": "to",
          "type": "address"
        },
        {
          "indexed": false,
          "internalType": "uint256",
          "name": "amount",
          "type": "uint256"
        }
      ],
      "name": "TokenTransferred",
      "type": "event"
    },
    {
      "anonymous": false,
      "inputs": [
        {
          "indexed": true,
          "internalType": "address",
          "name": "operator",
          "type": "address"
        },
        {
          "indexed": true,
          "internalType": "address",
          "name": "from",
          "type": "address"
        },
        {
          "indexed": true,
          "internalType": "address",
          "name": "to",
          "type": "address"
        },
        {
          "indexed": false,
          "internalType": "uint256[]",
          "name": "ids",
          "type": "uint256[]"
        },
        {
          "indexed": false,
          "internalType": "uint256[]",
          "name": "values",
          "type": "uint256[]"
        }
      ],
      "name": "TransferBatch",
      "type": "event"
    },
    {
      "anonymous": false,
      "inputs": [
        {
          "indexed": true,
          "internalType": "address",
          "name": "operator",
          "type": "address"
        },
        {
          "indexed": true,
          "internalType": "address",
          "name": "from",
          "type": "address"
        },
        {
          "indexed": true,
          "internalType": "address",
          "name": "to",
          "type": "address"
        },
        {
          "indexed": false,
          "internalType": "uint256",
          "name": "id",
          "type": "uint256"
        },
        {
          "indexed": false,
          "internalType": "uint256",
          "name": "value",
          "type": "uint256"
        }
      ],
      "name": "TransferSingle",
      "type": "event"
    },
    {
      "anonymous": false,
      "inputs": [
        {
          "indexed": false,
          "internalType": "string",
          "name": "value",
          "type": "string"
        },
        {
          "indexed": true,
          "internalType": "uint256",
          "name": "id",
          "type": "uint256"
        }
      ],
      "name": "URI",
      "type": "event"
    },
    {
      "inputs": [
        {
          "internalType": "address",
          "name": "account",
          "type": "address"
        },
        {
          "internalType": "uint256",
          "name": "id",
          "type": "uint256"
        }
      ],
      "name": "balanceOf",
      "outputs": [
        {
          "internalType": "uint256",
          "name": "",
          "type": "uint256"
        }
      ],
      "stateMutability": "view",
      "type": "function",
      "constant": true
    },
    {
      "inputs": [
        {
          "internalType": "address[]",
          "name": "accounts",
          "type": "address[]"
        },
        {
          "internalType": "uint256[]",
          "name": "ids",
          "type": "uint256[]"
        }
      ],
      "name": "balanceOfBatch",
      "outputs": [
        {
          "internalType": "uint256[]",
          "name": "",
          "type": "uint256[]"
        }
      ],
      "stateMutability": "view",
      "type": "function",
      "constant": true
    },
    {
      "inputs": [
        {
          "internalType": "address",
          "name": "account",
          "type": "address"
        },
        {
          "internalType": "uint256",
          "name": "id",
          "type": "uint256"
        },
        {
          "internalType": "uint256",
          "name": "value",
          "type": "uint256"
        }
      ],
      "name": "burn",
      "outputs": [],
      "stateMutability": "nonpayable",
      "type": "function"
    },
    {
      "inputs": [
        {
          "internalType": "address",
          "name": "account",
          "type": "address"
        },
        {
          "internalType": "uint256[]",
          "name": "ids",
          "type": "uint256[]"
        },
        {
          "internalType": "uint256[]",
          "name": "values",
          "type": "uint256[]"
        }
      ],
      "name": "burnBatch",
      "outputs": [],
      "stateMutability": "nonpayable",
      "type": "function"
    },
    {
      "inputs": [
        {
          "internalType": "address",
          "name": "account",
          "type": "address"
        },
        {
          "internalType": "address",
          "name": "operator",
          "type": "address"
        }
      ],
      "name": "isApprovedForAll",
      "outputs": [
        {
          "internalType": "bool",
          "name": "",
          "type": "bool"
        }
      ],
      "stateMutability": "view",
      "type": "function",
      "constant": true
    },
    {
      "inputs": [],
      "name": "owner",
      "outputs": [
        {
          "internalType": "address",
          "name": "",
          "type": "address"
        }
      ],
      "stateMutability": "view",
      "type": "function",
      "constant": true
    },
    {
      "inputs": [],
      "name": "renounceOwnership",
      "outputs": [],
      "stateMutability": "nonpayable",
      "type": "function"
    },
    {
      "inputs": [
        {
          "internalType": "address",
          "name": "from",
          "type": "address"
        },
        {
          "internalType": "address",
          "name": "to",
          "type": "address"
        },
        {
          "internalType": "uint256[]",
          "name": "ids",
          "type": "uint256[]"
        },
        {
          "internalType": "uint256[]",
          "name": "amounts",
          "type": "uint256[]"
        },
        {
          "internalType": "bytes",
          "name": "data",
          "type": "bytes"
        }
      ],
      "name": "safeBatchTransferFrom",
      "outputs": [],
      "stateMutability": "nonpayable",
      "type": "function"
    },
    {
      "inputs": [
        {
          "internalType": "address",
          "name": "from",
          "type": "address"
        },
        {
          "internalType": "address",
          "name": "to",
          "type": "address"
        },
        {
          "internalType": "uint256",
          "name": "id",
          "type": "uint256"
        },
        {
          "internalType": "uint256",
          "name": "amount",
          "type": "uint256"
        },
        {
          "internalType": "bytes",
          "name": "data",
          "type": "bytes"
        }
      ],
      "name": "safeTransferFrom",
      "outputs": [],
      "stateMutability": "nonpayable",
      "type": "function"
    },
    {
      "inputs": [
        {
          "internalType": "address",
          "name": "operator",
          "type": "address"
        },
        {
          "internalType": "bool",
          "name": "approved",
          "type": "bool"
        }
      ],
      "name": "setApprovalForAll",
      "outputs": [],
      "stateMutability": "nonpayable",
      "type": "function"
    },
    {
      "inputs": [
        {
          "internalType": "bytes4",
          "name": "interfaceId",
          "type": "bytes4"
        }
      ],
      "name": "supportsInterface",
      "outputs": [
        {
          "internalType": "bool",
          "name": "",
          "type": "bool"
        }
      ],
      "stateMutability": "view",
      "type": "function",
      "constant": true
    },
    {
      "inputs": [
        {
          "internalType": "address",
          "name": "newOwner",
          "type": "address"
        }
      ],
      "name": "transferOwnership",
      "outputs": [],
      "stateMutability": "nonpayable",
      "type": "function"
    },
    {
      "inputs": [
        {
          "internalType": "uint256",
          "name": "tokenId",
          "type": "uint256"
        }
      ],
      "name": "uri",
      "outputs": [
        {
          "internalType": "string",
          "name": "",
          "type": "string"
        }
      ],
      "stateMutability": "pure",
      "type": "function",
      "constant": true
    },
    {
      "inputs": [
        {
          "internalType": "uint256",
          "name": "tokenSupply",
          "type": "uint256"
        }
      ],
      "name": "registerProject",
      "outputs": [],
      "stateMutability": "nonpayable",
      "type": "function"
    },
    {
      "inputs": [
        {
          "internalType": "uint256",
          "name": "tokenId",
          "type": "uint256"
        }
      ],
      "name": "approveProject",
      "outputs": [],
      "stateMutability": "payable",
      "type": "function",
      "payable": true
    },
    {
      "inputs": [
        {
          "internalType": "uint256",
          "name": "tokenId",
          "type": "uint256"
        }
      ],
      "name": "declineProject",
      "outputs": [],
      "stateMutability": "nonpayable",
      "type": "function"
    },
    {
      "inputs": [],
      "name": "getTokenAddress",
      "outputs": [
        {
          "internalType": "address",
          "name": "",
          "type": "address"
        }
      ],
      "stateMutability": "view",
      "type": "function",
      "constant": true
    }
  ],
  "bytecode": "0x608060405260405180602001604052806000815250600390805190602001906200002b929190620001dd565b503480156200003957600080fd5b506040516200434d3803806200434d83398181016040528101906200005f9190620002f7565b6040518060600160405280602b815260200162004322602b91396200008a81620000f360201b60201c565b50620000ab6200009f6200010f60201b60201c565b6200011760201b60201c565b80600660006101000a81548173ffffffffffffffffffffffffffffffffffffffff021916908373ffffffffffffffffffffffffffffffffffffffff160217905550506200038d565b80600290805190602001906200010b929190620001dd565b5050565b600033905090565b6000600560009054906101000a900473ffffffffffffffffffffffffffffffffffffffff16905081600560006101000a81548173ffffffffffffffffffffffffffffffffffffffff021916908373ffffffffffffffffffffffffffffffffffffffff1602179055508173ffffffffffffffffffffffffffffffffffffffff168173ffffffffffffffffffffffffffffffffffffffff167f8be0079c531659141344cd1fd0a4f28419497f9722a3daafe3b4186f6b6457e060405160405180910390a35050565b828054620001eb9062000358565b90600052602060002090601f0160209004810192826200020f57600085556200025b565b82601f106200022a57805160ff19168380011785556200025b565b828001600101855582156200025b579182015b828111156200025a5782518255916020019190600101906200023d565b5b5090506200026a91906200026e565b5090565b5b80821115620002895760008160009055506001016200026f565b5090565b600080fd5b600073ffffffffffffffffffffffffffffffffffffffff82169050919050565b6000620002bf8262000292565b9050919050565b620002d181620002b2565b8114620002dd57600080fd5b50565b600081519050620002f181620002c6565b92915050565b60006020828403121562000310576200030f6200028d565b5b60006200032084828501620002e0565b91505092915050565b7f4e487b7100000000000000000000000000000000000000000000000000000000600052602260045260246000fd5b600060028204905060018216806200037157607f821691505b60208210810362000387576200038662000329565b5b50919050565b613f85806200039d6000396000f3fe6080604052600436106100fd5760003560e01c8063715018a611610095578063f242432a11610064578063f242432a14610344578063f2fde38b1461036d578063f3fdf55214610396578063f5298aca146103bf578063fc69d836146103e8576100fd565b8063715018a61461029c5780638da5cb5b146102b3578063a22cb465146102de578063e985e9c514610307576100fd565b806326726e6b116100d157806326726e6b146101e45780632eb2c2d61461020d5780634e1273f4146102365780636b20c45414610273576100fd565b8062fdd58e1461010257806301ffc9a71461013f5780630e89341c1461017c57806310fe9ae8146101b9575b600080fd5b34801561010e57600080fd5b506101296004803603810190610124919061260d565b610404565b604051610136919061265c565b60405180910390f35b34801561014b57600080fd5b50610166600480360381019061016191906126cf565b6104cc565b6040516101739190612717565b60405180910390f35b34801561018857600080fd5b506101a3600480360381019061019e9190612732565b6105ae565b6040516101b091906127f8565b60405180910390f35b3480156101c557600080fd5b506101ce6105df565b6040516101db9190612829565b60405180910390f35b3480156101f057600080fd5b5061020b60048036038101906102069190612732565b610609565b005b34801561021957600080fd5b50610234600480360381019061022f9190612a41565b61081c565b005b34801561024257600080fd5b5061025d60048036038101906102589190612bd3565b6108bd565b60405161026a9190612d09565b60405180910390f35b34801561027f57600080fd5b5061029a60048036038101906102959190612d2b565b6109d6565b005b3480156102a857600080fd5b506102b1610a73565b005b3480156102bf57600080fd5b506102c8610a87565b6040516102d59190612829565b60405180910390f35b3480156102ea57600080fd5b5061030560048036038101906103009190612de2565b610ab1565b005b34801561031357600080fd5b5061032e60048036038101906103299190612e22565b610ac7565b60405161033b9190612717565b60405180910390f35b34801561035057600080fd5b5061036b60048036038101906103669190612e62565b610b5b565b005b34801561037957600080fd5b50610394600480360381019061038f9190612ef9565b610bfc565b005b3480156103a257600080fd5b506103bd60048036038101906103b89190612732565b610c7f565b005b3480156103cb57600080fd5b506103e660048036038101906103e19190612f26565b610eb3565b005b61040260048036038101906103fd9190612732565b610f50565b005b60008073ffffffffffffffffffffffffffffffffffffffff168373ffffffffffffffffffffffffffffffffffffffff1603610474576040517f08c379a000000000000000000000000000000000000000000000000000000000815260040161046b90612feb565b60405180910390fd5b60008083815260200190815260200160002060008473ffffffffffffffffffffffffffffffffffffffff1673ffffffffffffffffffffffffffffffffffffffff16815260200190815260200160002054905092915050565b60007fd9b67a26000000000000000000000000000000000000000000000000000000007bffffffffffffffffffffffffffffffffffffffffffffffffffffffff1916827bffffffffffffffffffffffffffffffffffffffffffffffffffffffff1916148061059757507f0e89341c000000000000000000000000000000000000000000000000000000007bffffffffffffffffffffffffffffffffffffffffffffffffffffffff1916827bffffffffffffffffffffffffffffffffffffffffffffffffffffffff1916145b806105a757506105a6826110f7565b5b9050919050565b60606105b982611161565b6040516020016105c9919061312b565b6040516020818303038152906040529050919050565b6000600660009054906101000a900473ffffffffffffffffffffffffffffffffffffffff16905090565b600060076000815461061a90613187565b9190508190559050600660009054906101000a900473ffffffffffffffffffffffffffffffffffffffff1673ffffffffffffffffffffffffffffffffffffffff1663b795a881823360008060006040518663ffffffff1660e01b815260040161068795949392919061328b565b600060405180830381600087803b1580156106a157600080fd5b505af11580156106b5573d6000803e3d6000fd5b50505050600660009054906101000a900473ffffffffffffffffffffffffffffffffffffffff1673ffffffffffffffffffffffffffffffffffffffff1663731133e93383856040518463ffffffff1660e01b815260040161071893929190613315565b600060405180830381600087803b15801561073257600080fd5b505af1158015610746573d6000803e3d6000fd5b50505050600660009054906101000a900473ffffffffffffffffffffffffffffffffffffffff1673ffffffffffffffffffffffffffffffffffffffff1663ac6ad32e826040518263ffffffff1660e01b81526004016107a5919061265c565b600060405180830381600087803b1580156107bf57600080fd5b505af11580156107d3573d6000803e3d6000fd5b505050507f2323df2a7aedd89684600618a0eeb6393cb28d37814e3bd3dd1fad49c249f5418133600080600060405161081095949392919061328b565b60405180910390a15050565b61082461122f565b73ffffffffffffffffffffffffffffffffffffffff168573ffffffffffffffffffffffffffffffffffffffff16148061086a57506108698561086461122f565b610ac7565b5b6108a9576040517f08c379a00000000000000000000000000000000000000000000000000000000081526004016108a0906133d1565b60405180910390fd5b6108b68585858585611237565b5050505050565b60608151835114610903576040517f08c379a00000000000000000000000000000000000000000000000000000000081526004016108fa90613463565b60405180910390fd5b6000835167ffffffffffffffff8111156109205761091f612849565b5b60405190808252806020026020018201604052801561094e5781602001602082028036833780820191505090505b50905060005b84518110156109cb5761099b85828151811061097357610972613483565b5b602002602001015185838151811061098e5761098d613483565b5b6020026020010151610404565b8282815181106109ae576109ad613483565b5b602002602001018181525050806109c490613187565b9050610954565b508091505092915050565b6109de61122f565b73ffffffffffffffffffffffffffffffffffffffff168373ffffffffffffffffffffffffffffffffffffffff161480610a245750610a2383610a1e61122f565b610ac7565b5b610a63576040517f08c379a0000000000000000000000000000000000000000000000000000000008152600401610a5a906133d1565b60405180910390fd5b610a6e838383611558565b505050565b610a7b611826565b610a8560006118a4565b565b6000600560009054906101000a900473ffffffffffffffffffffffffffffffffffffffff16905090565b610ac3610abc61122f565b838361196a565b5050565b6000600160008473ffffffffffffffffffffffffffffffffffffffff1673ffffffffffffffffffffffffffffffffffffffff16815260200190815260200160002060008373ffffffffffffffffffffffffffffffffffffffff1673ffffffffffffffffffffffffffffffffffffffff16815260200190815260200160002060009054906101000a900460ff16905092915050565b610b6361122f565b73ffffffffffffffffffffffffffffffffffffffff168573ffffffffffffffffffffffffffffffffffffffff161480610ba95750610ba885610ba361122f565b610ac7565b5b610be8576040517f08c379a0000000000000000000000000000000000000000000000000000000008152600401610bdf906133d1565b60405180910390fd5b610bf58585858585611ad6565b5050505050565b610c04611826565b600073ffffffffffffffffffffffffffffffffffffffff168173ffffffffffffffffffffffffffffffffffffffff1603610c73576040517f08c379a0000000000000000000000000000000000000000000000000000000008152600401610c6a90613524565b60405180910390fd5b610c7c816118a4565b50565b610c87611826565b6000600660009054906101000a900473ffffffffffffffffffffffffffffffffffffffff1673ffffffffffffffffffffffffffffffffffffffff1663f392243b836040518263ffffffff1660e01b8152600401610ce4919061265c565b60a060405180830381865afa158015610d01573d6000803e3d6000fd5b505050506040513d601f19601f82011682018060405250810190610d259190613639565b905060006002811115610d3b57610d3a6131cf565b5b81604001516002811115610d5257610d516131cf565b5b14610d92576040517f08c379a0000000000000000000000000000000000000000000000000000000008152600401610d89906136b2565b60405180910390fd5b600660009054906101000a900473ffffffffffffffffffffffffffffffffffffffff1673ffffffffffffffffffffffffffffffffffffffff16633a1b3d318360026040518363ffffffff1660e01b8152600401610df09291906136d2565b600060405180830381600087803b158015610e0a57600080fd5b505af1158015610e1e573d6000803e3d6000fd5b50505050600660009054906101000a900473ffffffffffffffffffffffffffffffffffffffff1673ffffffffffffffffffffffffffffffffffffffff1663ac6ad32e836040518263ffffffff1660e01b8152600401610e7d919061265c565b600060405180830381600087803b158015610e9757600080fd5b505af1158015610eab573d6000803e3d6000fd5b505050505050565b610ebb61122f565b73ffffffffffffffffffffffffffffffffffffffff168373ffffffffffffffffffffffffffffffffffffffff161480610f015750610f0083610efb61122f565b610ac7565b5b610f40576040517f08c379a0000000000000000000000000000000000000000000000000000000008152600401610f37906133d1565b60405180910390fd5b610f4b838383611d71565b505050565b610f58611826565b6000600660009054906101000a900473ffffffffffffffffffffffffffffffffffffffff1673ffffffffffffffffffffffffffffffffffffffff1663f392243b836040518263ffffffff1660e01b8152600401610fb5919061265c565b60a060405180830381865afa158015610fd2573d6000803e3d6000fd5b505050506040513d601f19601f82011682018060405250810190610ff69190613639565b90506000600281111561100c5761100b6131cf565b5b81604001516002811115611023576110226131cf565b5b14611063576040517f08c379a000000000000000000000000000000000000000000000000000000000815260040161105a90613747565b60405180910390fd5b600660009054906101000a900473ffffffffffffffffffffffffffffffffffffffff1673ffffffffffffffffffffffffffffffffffffffff16633a1b3d318360016040518363ffffffff1660e01b81526004016110c19291906136d2565b600060405180830381600087803b1580156110db57600080fd5b505af11580156110ef573d6000803e3d6000fd5b505050505050565b60007f01ffc9a7000000000000000000000000000000000000000000000000000000007bffffffffffffffffffffffffffffffffffffffffffffffffffffffff1916827bffffffffffffffffffffffffffffffffffffffffffffffffffffffff1916149050919050565b60606000600161117084611fb7565b01905060008167ffffffffffffffff81111561118f5761118e612849565b5b6040519080825280601f01601f1916602001820160405280156111c15781602001600182028036833780820191505090505b509050600082602001820190505b600115611224578080600190039150507f3031323334353637383961626364656600000000000000000000000000000000600a86061a8153600a858161121857611217613767565b5b049450600085036111cf575b819350505050919050565b600033905090565b815183511461127b576040517f08c379a000000000000000000000000000000000000000000000000000000000815260040161127290613808565b60405180910390fd5b600073ffffffffffffffffffffffffffffffffffffffff168473ffffffffffffffffffffffffffffffffffffffff16036112ea576040517f08c379a00000000000000000000000000000000000000000000000000000000081526004016112e19061389a565b60405180910390fd5b60006112f461122f565b905061130481878787878761210a565b60005b84518110156114b557600085828151811061132557611324613483565b5b60200260200101519050600085838151811061134457611343613483565b5b60200260200101519050600080600084815260200190815260200160002060008b73ffffffffffffffffffffffffffffffffffffffff1673ffffffffffffffffffffffffffffffffffffffff168152602001908152602001600020549050818110156113e5576040517f08c379a00000000000000000000000000000000000000000000000000000000081526004016113dc9061392c565b60405180910390fd5b81810360008085815260200190815260200160002060008c73ffffffffffffffffffffffffffffffffffffffff1673ffffffffffffffffffffffffffffffffffffffff168152602001908152602001600020819055508160008085815260200190815260200160002060008b73ffffffffffffffffffffffffffffffffffffffff1673ffffffffffffffffffffffffffffffffffffffff168152602001908152602001600020600082825461149a919061394c565b92505081905550505050806114ae90613187565b9050611307565b508473ffffffffffffffffffffffffffffffffffffffff168673ffffffffffffffffffffffffffffffffffffffff168273ffffffffffffffffffffffffffffffffffffffff167f4a39dc06d4c0dbc64b70af90fd698a233a518aa5d07e595d983b8c0526c8f7fb878760405161152c9291906139a2565b60405180910390a4611542818787878787612112565b61155081878787878761211a565b505050505050565b600073ffffffffffffffffffffffffffffffffffffffff168373ffffffffffffffffffffffffffffffffffffffff16036115c7576040517f08c379a00000000000000000000000000000000000000000000000000000000081526004016115be90613a4b565b60405180910390fd5b805182511461160b576040517f08c379a000000000000000000000000000000000000000000000000000000000815260040161160290613808565b60405180910390fd5b600061161561122f565b90506116358185600086866040518060200160405280600081525061210a565b60005b835181101561178257600084828151811061165657611655613483565b5b60200260200101519050600084838151811061167557611674613483565b5b60200260200101519050600080600084815260200190815260200160002060008973ffffffffffffffffffffffffffffffffffffffff1673ffffffffffffffffffffffffffffffffffffffff16815260200190815260200160002054905081811015611716576040517f08c379a000000000000000000000000000000000000000000000000000000000815260040161170d90613add565b60405180910390fd5b81810360008085815260200190815260200160002060008a73ffffffffffffffffffffffffffffffffffffffff1673ffffffffffffffffffffffffffffffffffffffff16815260200190815260200160002081905550505050808061177a90613187565b915050611638565b50600073ffffffffffffffffffffffffffffffffffffffff168473ffffffffffffffffffffffffffffffffffffffff168273ffffffffffffffffffffffffffffffffffffffff167f4a39dc06d4c0dbc64b70af90fd698a233a518aa5d07e595d983b8c0526c8f7fb86866040516117fa9291906139a2565b60405180910390a461182081856000868660405180602001604052806000815250612112565b50505050565b61182e61122f565b73ffffffffffffffffffffffffffffffffffffffff1661184c610a87565b73ffffffffffffffffffffffffffffffffffffffff16146118a2576040517f08c379a000000000000000000000000000000000000000000000000000000000815260040161189990613b49565b60405180910390fd5b565b6000600560009054906101000a900473ffffffffffffffffffffffffffffffffffffffff16905081600560006101000a81548173ffffffffffffffffffffffffffffffffffffffff021916908373ffffffffffffffffffffffffffffffffffffffff1602179055508173ffffffffffffffffffffffffffffffffffffffff168173ffffffffffffffffffffffffffffffffffffffff167f8be0079c531659141344cd1fd0a4f28419497f9722a3daafe3b4186f6b6457e060405160405180910390a35050565b8173ffffffffffffffffffffffffffffffffffffffff168373ffffffffffffffffffffffffffffffffffffffff16036119d8576040517f08c379a00000000000000000000000000000000000000000000000000000000081526004016119cf90613bdb565b60405180910390fd5b80600160008573ffffffffffffffffffffffffffffffffffffffff1673ffffffffffffffffffffffffffffffffffffffff16815260200190815260200160002060008473ffffffffffffffffffffffffffffffffffffffff1673ffffffffffffffffffffffffffffffffffffffff16815260200190815260200160002060006101000a81548160ff0219169083151502179055508173ffffffffffffffffffffffffffffffffffffffff168373ffffffffffffffffffffffffffffffffffffffff167f17307eab39ab6107e8899845ad3d59bd9653f200f220920489ca2b5937696c3183604051611ac99190612717565b60405180910390a3505050565b600073ffffffffffffffffffffffffffffffffffffffff168473ffffffffffffffffffffffffffffffffffffffff1603611b45576040517f08c379a0000000000000000000000000000000000000000000000000000000008152600401611b3c9061389a565b60405180910390fd5b6000611b4f61122f565b90506000611b5c856122f1565b90506000611b69856122f1565b9050611b7983898985858961210a565b600080600088815260200190815260200160002060008a73ffffffffffffffffffffffffffffffffffffffff1673ffffffffffffffffffffffffffffffffffffffff16815260200190815260200160002054905085811015611c10576040517f08c379a0000000000000000000000000000000000000000000000000000000008152600401611c079061392c565b60405180910390fd5b85810360008089815260200190815260200160002060008b73ffffffffffffffffffffffffffffffffffffffff1673ffffffffffffffffffffffffffffffffffffffff168152602001908152602001600020819055508560008089815260200190815260200160002060008a73ffffffffffffffffffffffffffffffffffffffff1673ffffffffffffffffffffffffffffffffffffffff1681526020019081526020016000206000828254611cc5919061394c565b925050819055508773ffffffffffffffffffffffffffffffffffffffff168973ffffffffffffffffffffffffffffffffffffffff168573ffffffffffffffffffffffffffffffffffffffff167fc3d58168c5ae7397731d063d5bbf3d657854427343f4c083240f7aacaa2d0f628a8a604051611d42929190613bfb565b60405180910390a4611d58848a8a86868a612112565b611d66848a8a8a8a8a61236b565b505050505050505050565b600073ffffffffffffffffffffffffffffffffffffffff168373ffffffffffffffffffffffffffffffffffffffff1603611de0576040517f08c379a0000000000000000000000000000000000000000000000000000000008152600401611dd790613a4b565b60405180910390fd5b6000611dea61122f565b90506000611df7846122f1565b90506000611e04846122f1565b9050611e248387600085856040518060200160405280600081525061210a565b600080600087815260200190815260200160002060008873ffffffffffffffffffffffffffffffffffffffff1673ffffffffffffffffffffffffffffffffffffffff16815260200190815260200160002054905084811015611ebb576040517f08c379a0000000000000000000000000000000000000000000000000000000008152600401611eb290613add565b60405180910390fd5b84810360008088815260200190815260200160002060008973ffffffffffffffffffffffffffffffffffffffff1673ffffffffffffffffffffffffffffffffffffffff16815260200190815260200160002081905550600073ffffffffffffffffffffffffffffffffffffffff168773ffffffffffffffffffffffffffffffffffffffff168573ffffffffffffffffffffffffffffffffffffffff167fc3d58168c5ae7397731d063d5bbf3d657854427343f4c083240f7aacaa2d0f628989604051611f88929190613bfb565b60405180910390a4611fae84886000868660405180602001604052806000815250612112565b50505050505050565b600080600090507a184f03e93ff9f4daa797ed6e38ed64bf6a1f0100000000000000008310612015577a184f03e93ff9f4daa797ed6e38ed64bf6a1f010000000000000000838161200b5761200a613767565b5b0492506040810190505b6d04ee2d6d415b85acef81000000008310612052576d04ee2d6d415b85acef8100000000838161204857612047613767565b5b0492506020810190505b662386f26fc10000831061208157662386f26fc10000838161207757612076613767565b5b0492506010810190505b6305f5e10083106120aa576305f5e10083816120a05761209f613767565b5b0492506008810190505b61271083106120cf5761271083816120c5576120c4613767565b5b0492506004810190505b606483106120f257606483816120e8576120e7613767565b5b0492506002810190505b600a8310612101576001810190505b80915050919050565b505050505050565b505050505050565b6121398473ffffffffffffffffffffffffffffffffffffffff16612542565b156122e9578373ffffffffffffffffffffffffffffffffffffffff1663bc197c8187878686866040518663ffffffff1660e01b815260040161217f959493929190613c68565b6020604051808303816000875af19250505080156121bb57506040513d601f19601f820116820180604052508101906121b89190613ce5565b60015b612260576121c7613d1f565b806308c379a00361222357506121db613d41565b806121e65750612225565b806040517f08c379a000000000000000000000000000000000000000000000000000000000815260040161221a91906127f8565b60405180910390fd5b505b6040517f08c379a000000000000000000000000000000000000000000000000000000000815260040161225790613e43565b60405180910390fd5b63bc197c8160e01b7bffffffffffffffffffffffffffffffffffffffffffffffffffffffff1916817bffffffffffffffffffffffffffffffffffffffffffffffffffffffff1916146122e7576040517f08c379a00000000000000000000000000000000000000000000000000000000081526004016122de90613ed5565b60405180910390fd5b505b505050505050565b60606000600167ffffffffffffffff8111156123105761230f612849565b5b60405190808252806020026020018201604052801561233e5781602001602082028036833780820191505090505b509050828160008151811061235657612355613483565b5b60200260200101818152505080915050919050565b61238a8473ffffffffffffffffffffffffffffffffffffffff16612542565b1561253a578373ffffffffffffffffffffffffffffffffffffffff1663f23a6e6187878686866040518663ffffffff1660e01b81526004016123d0959493929190613ef5565b6020604051808303816000875af192505050801561240c57506040513d601f19601f820116820180604052508101906124099190613ce5565b60015b6124b157612418613d1f565b806308c379a003612474575061242c613d41565b806124375750612476565b806040517f08c379a000000000000000000000000000000000000000000000000000000000815260040161246b91906127f8565b60405180910390fd5b505b6040517f08c379a00000000000000000000000000000000000000000000000000000000081526004016124a890613e43565b60405180910390fd5b63f23a6e6160e01b7bffffffffffffffffffffffffffffffffffffffffffffffffffffffff1916817bffffffffffffffffffffffffffffffffffffffffffffffffffffffff191614612538576040517f08c379a000000000000000000000000000000000000000000000000000000000815260040161252f90613ed5565b60405180910390fd5b505b505050505050565b6000808273ffffffffffffffffffffffffffffffffffffffff163b119050919050565b6000604051905090565b600080fd5b600080fd5b600073ffffffffffffffffffffffffffffffffffffffff82169050919050565b60006125a482612579565b9050919050565b6125b481612599565b81146125bf57600080fd5b50565b6000813590506125d1816125ab565b92915050565b6000819050919050565b6125ea816125d7565b81146125f557600080fd5b50565b600081359050612607816125e1565b92915050565b600080604083850312156126245761262361256f565b5b6000612632858286016125c2565b9250506020612643858286016125f8565b9150509250929050565b612656816125d7565b82525050565b6000602082019050612671600083018461264d565b92915050565b60007fffffffff0000000000000000000000000000000000000000000000000000000082169050919050565b6126ac81612677565b81146126b757600080fd5b50565b6000813590506126c9816126a3565b92915050565b6000602082840312156126e5576126e461256f565b5b60006126f3848285016126ba565b91505092915050565b60008115159050919050565b612711816126fc565b82525050565b600060208201905061272c6000830184612708565b92915050565b6000602082840312156127485761274761256f565b5b6000612756848285016125f8565b91505092915050565b600081519050919050565b600082825260208201905092915050565b60005b8381101561279957808201518184015260208101905061277e565b838111156127a8576000848401525b50505050565b6000601f19601f8301169050919050565b60006127ca8261275f565b6127d4818561276a565b93506127e481856020860161277b565b6127ed816127ae565b840191505092915050565b6000602082019050818103600083015261281281846127bf565b905092915050565b61282381612599565b82525050565b600060208201905061283e600083018461281a565b92915050565b600080fd5b7f4e487b7100000000000000000000000000000000000000000000000000000000600052604160045260246000fd5b612881826127ae565b810181811067ffffffffffffffff821117156128a05761289f612849565b5b80604052505050565b60006128b3612565565b90506128bf8282612878565b919050565b600067ffffffffffffffff8211156128df576128de612849565b5b602082029050602081019050919050565b600080fd5b6000612908612903846128c4565b6128a9565b9050808382526020820190506020840283018581111561292b5761292a6128f0565b5b835b81811015612954578061294088826125f8565b84526020840193505060208101905061292d565b5050509392505050565b600082601f83011261297357612972612844565b5b81356129838482602086016128f5565b91505092915050565b600080fd5b600067ffffffffffffffff8211156129ac576129ab612849565b5b6129b5826127ae565b9050602081019050919050565b82818337600083830152505050565b60006129e46129df84612991565b6128a9565b905082815260208101848484011115612a00576129ff61298c565b5b612a0b8482856129c2565b509392505050565b600082601f830112612a2857612a27612844565b5b8135612a388482602086016129d1565b91505092915050565b600080600080600060a08688031215612a5d57612a5c61256f565b5b6000612a6b888289016125c2565b9550506020612a7c888289016125c2565b945050604086013567ffffffffffffffff811115612a9d57612a9c612574565b5b612aa98882890161295e565b935050606086013567ffffffffffffffff811115612aca57612ac9612574565b5b612ad68882890161295e565b925050608086013567ffffffffffffffff811115612af757612af6612574565b5b612b0388828901612a13565b9150509295509295909350565b600067ffffffffffffffff821115612b2b57612b2a612849565b5b602082029050602081019050919050565b6000612b4f612b4a84612b10565b6128a9565b90508083825260208201905060208402830185811115612b7257612b716128f0565b5b835b81811015612b9b5780612b8788826125c2565b845260208401935050602081019050612b74565b5050509392505050565b600082601f830112612bba57612bb9612844565b5b8135612bca848260208601612b3c565b91505092915050565b60008060408385031215612bea57612be961256f565b5b600083013567ffffffffffffffff811115612c0857612c07612574565b5b612c1485828601612ba5565b925050602083013567ffffffffffffffff811115612c3557612c34612574565b5b612c418582860161295e565b9150509250929050565b600081519050919050565b600082825260208201905092915050565b6000819050602082019050919050565b612c80816125d7565b82525050565b6000612c928383612c77565b60208301905092915050565b6000602082019050919050565b6000612cb682612c4b565b612cc08185612c56565b9350612ccb83612c67565b8060005b83811015612cfc578151612ce38882612c86565b9750612cee83612c9e565b925050600181019050612ccf565b5085935050505092915050565b60006020820190508181036000830152612d238184612cab565b905092915050565b600080600060608486031215612d4457612d4361256f565b5b6000612d52868287016125c2565b935050602084013567ffffffffffffffff811115612d7357612d72612574565b5b612d7f8682870161295e565b925050604084013567ffffffffffffffff811115612da057612d9f612574565b5b612dac8682870161295e565b9150509250925092565b612dbf816126fc565b8114612dca57600080fd5b50565b600081359050612ddc81612db6565b92915050565b60008060408385031215612df957612df861256f565b5b6000612e07858286016125c2565b9250506020612e1885828601612dcd565b9150509250929050565b60008060408385031215612e3957612e3861256f565b5b6000612e47858286016125c2565b9250506020612e58858286016125c2565b9150509250929050565b600080600080600060a08688031215612e7e57612e7d61256f565b5b6000612e8c888289016125c2565b9550506020612e9d888289016125c2565b9450506040612eae888289016125f8565b9350506060612ebf888289016125f8565b925050608086013567ffffffffffffffff811115612ee057612edf612574565b5b612eec88828901612a13565b9150509295509295909350565b600060208284031215612f0f57612f0e61256f565b5b6000612f1d848285016125c2565b91505092915050565b600080600060608486031215612f3f57612f3e61256f565b5b6000612f4d868287016125c2565b9350506020612f5e868287016125f8565b9250506040612f6f868287016125f8565b9150509250925092565b7f455243313135353a2061646472657373207a65726f206973206e6f742061207660008201527f616c6964206f776e657200000000000000000000000000000000000000000000602082015250565b6000612fd5602a8361276a565b9150612fe082612f79565b604082019050919050565b6000602082019050818103600083015261300481612fc8565b9050919050565b600081905092915050565b7f68747470733a2f2f676174657761792e70696e6174612e636c6f75642f69706660008201527f732f516d52614e785a6f7546756e6e446e6473353756476d747274413245424560208201527f464c65737a6158416f38475a665a38652f000000000000000000000000000000604082015250565b600061309860518361300b565b91506130a382613016565b605182019050919050565b60006130b98261275f565b6130c3818561300b565b93506130d381856020860161277b565b80840191505092915050565b7f2e6a736f6e000000000000000000000000000000000000000000000000000000600082015250565b600061311560058361300b565b9150613120826130df565b600582019050919050565b60006131368261308b565b915061314282846130ae565b915061314d82613108565b915081905092915050565b7f4e487b7100000000000000000000000000000000000000000000000000000000600052601160045260246000fd5b6000613192826125d7565b91507fffffffffffffffffffffffffffffffffffffffffffffffffffffffffffffffff82036131c4576131c3613158565b5b600182019050919050565b7f4e487b7100000000000000000000000000000000000000000000000000000000600052602160045260246000fd5b6003811061320f5761320e6131cf565b5b50565b6000819050613220826131fe565b919050565b600061323082613212565b9050919050565b61324081613225565b82525050565b6000819050919050565b6000819050919050565b600061327561327061326b84613246565b613250565b6125d7565b9050919050565b6132858161325a565b82525050565b600060a0820190506132a0600083018861264d565b6132ad602083018761281a565b6132ba6040830186613237565b6132c7606083018561327c565b6132d46080830184612708565b9695505050505050565b600082825260208201905092915050565b50565b60006132ff6000836132de565b915061330a826132ef565b600082019050919050565b600060808201905061332a600083018661281a565b613337602083018561264d565b613344604083018461264d565b8181036060830152613355816132f2565b9050949350505050565b7f455243313135353a2063616c6c6572206973206e6f7420746f6b656e206f776e60008201527f6572206f7220617070726f766564000000000000000000000000000000000000602082015250565b60006133bb602e8361276a565b91506133c68261335f565b604082019050919050565b600060208201905081810360008301526133ea816133ae565b9050919050565b7f455243313135353a206163636f756e747320616e6420696473206c656e67746860008201527f206d69736d617463680000000000000000000000000000000000000000000000602082015250565b600061344d60298361276a565b9150613458826133f1565b604082019050919050565b6000602082019050818103600083015261347c81613440565b9050919050565b7f4e487b7100000000000000000000000000000000000000000000000000000000600052603260045260246000fd5b7f4f776e61626c653a206e6577206f776e657220697320746865207a65726f206160008201527f6464726573730000000000000000000000000000000000000000000000000000602082015250565b600061350e60268361276a565b9150613519826134b2565b604082019050919050565b6000602082019050818103600083015261353d81613501565b9050919050565b600080fd5b600081519050613558816125e1565b92915050565b60008151905061356d816125ab565b92915050565b6003811061358057600080fd5b50565b60008151905061359281613573565b92915050565b6000815190506135a781612db6565b92915050565b600060a082840312156135c3576135c2613544565b5b6135cd60a06128a9565b905060006135dd84828501613549565b60008301525060206135f18482850161355e565b602083015250604061360584828501613583565b604083015250606061361984828501613549565b606083015250608061362d84828501613598565b60808301525092915050565b600060a0828403121561364f5761364e61256f565b5b600061365d848285016135ad565b91505092915050565b7f50726f6a6563742063616e6e6f74206265206465636c696e6564000000000000600082015250565b600061369c601a8361276a565b91506136a782613666565b602082019050919050565b600060208201905081810360008301526136cb8161368f565b9050919050565b60006040820190506136e7600083018561264d565b6136f46020830184613237565b9392505050565b7f50726f6a6563742063616e6e6f7420626520617070726f766564000000000000600082015250565b6000613731601a8361276a565b915061373c826136fb565b602082019050919050565b6000602082019050818103600083015261376081613724565b9050919050565b7f4e487b7100000000000000000000000000000000000000000000000000000000600052601260045260246000fd5b7f455243313135353a2069647320616e6420616d6f756e7473206c656e6774682060008201527f6d69736d61746368000000000000000000000000000000000000000000000000602082015250565b60006137f260288361276a565b91506137fd82613796565b604082019050919050565b60006020820190508181036000830152613821816137e5565b9050919050565b7f455243313135353a207472616e7366657220746f20746865207a65726f20616460008201527f6472657373000000000000000000000000000000000000000000000000000000602082015250565b600061388460258361276a565b915061388f82613828565b604082019050919050565b600060208201905081810360008301526138b381613877565b9050919050565b7f455243313135353a20696e73756666696369656e742062616c616e636520666f60008201527f72207472616e7366657200000000000000000000000000000000000000000000602082015250565b6000613916602a8361276a565b9150613921826138ba565b604082019050919050565b6000602082019050818103600083015261394581613909565b9050919050565b6000613957826125d7565b9150613962836125d7565b9250827fffffffffffffffffffffffffffffffffffffffffffffffffffffffffffffffff0382111561399757613996613158565b5b828201905092915050565b600060408201905081810360008301526139bc8185612cab565b905081810360208301526139d08184612cab565b90509392505050565b7f455243313135353a206275726e2066726f6d20746865207a65726f206164647260008201527f6573730000000000000000000000000000000000000000000000000000000000602082015250565b6000613a3560238361276a565b9150613a40826139d9565b604082019050919050565b60006020820190508181036000830152613a6481613a28565b9050919050565b7f455243313135353a206275726e20616d6f756e7420657863656564732062616c60008201527f616e636500000000000000000000000000000000000000000000000000000000602082015250565b6000613ac760248361276a565b9150613ad282613a6b565b604082019050919050565b60006020820190508181036000830152613af681613aba565b9050919050565b7f4f776e61626c653a2063616c6c6572206973206e6f7420746865206f776e6572600082015250565b6000613b3360208361276a565b9150613b3e82613afd565b602082019050919050565b60006020820190508181036000830152613b6281613b26565b9050919050565b7f455243313135353a2073657474696e6720617070726f76616c2073746174757360008201527f20666f722073656c660000000000000000000000000000000000000000000000602082015250565b6000613bc560298361276a565b9150613bd082613b69565b604082019050919050565b60006020820190508181036000830152613bf481613bb8565b9050919050565b6000604082019050613c10600083018561264d565b613c1d602083018461264d565b9392505050565b600081519050919050565b6000613c3a82613c24565b613c4481856132de565b9350613c5481856020860161277b565b613c5d816127ae565b840191505092915050565b600060a082019050613c7d600083018861281a565b613c8a602083018761281a565b8181036040830152613c9c8186612cab565b90508181036060830152613cb08185612cab565b90508181036080830152613cc48184613c2f565b90509695505050505050565b600081519050613cdf816126a3565b92915050565b600060208284031215613cfb57613cfa61256f565b5b6000613d0984828501613cd0565b91505092915050565b60008160e01c9050919050565b600060033d1115613d3e5760046000803e613d3b600051613d12565b90505b90565b600060443d10613dce57613d53612565565b60043d036004823e80513d602482011167ffffffffffffffff82111715613d7b575050613dce565b808201805167ffffffffffffffff811115613d995750505050613dce565b80602083010160043d038501811115613db6575050505050613dce565b613dc582602001850186612878565b82955050505050505b90565b7f455243313135353a207472616e7366657220746f206e6f6e2d4552433131353560008201527f526563656976657220696d706c656d656e746572000000000000000000000000602082015250565b6000613e2d60348361276a565b9150613e3882613dd1565b604082019050919050565b60006020820190508181036000830152613e5c81613e20565b9050919050565b7f455243313135353a204552433131353552656365697665722072656a6563746560008201527f6420746f6b656e73000000000000000000000000000000000000000000000000602082015250565b6000613ebf60288361276a565b9150613eca82613e63565b604082019050919050565b60006020820190508181036000830152613eee81613eb2565b9050919050565b600060a082019050613f0a600083018861281a565b613f17602083018761281a565b613f24604083018661264d565b613f31606083018561264d565b8181036080830152613f438184613c2f565b9050969550505050505056fea2646970667358221220a99f5017cb813274acdff6723eb16ac4216c5c1716ad6d68946b01d7683d35eb64736f6c634300080d003368747470733a2f2f676174657761792e70696e6174612e636c6f75642f697066732f7b69647d2e6a736f6e",
  "immutableReferences": {},
  "source": "// SPDX-License-Identifier: MIT\npragma solidity ^0.8.13;\n\nimport \"./CarbonToken.sol\";\nimport \"./CarbonBase.sol\";\nimport \"@openzeppelin/contracts/access/Ownable.sol\";\n\ncontract ProjectManagement is Ownable, CarbonBase {\n    CarbonToken private _token;\n    uint256 private _tokenIds;\n\n    constructor(address _tokenAddress) {\n        _token = CarbonToken(_tokenAddress);\n    }\n\n    function registerProject(uint256 tokenSupply) public {\n        uint256 currentId = ++_tokenIds; // tokenID starts from 1\n         _token.setCarbonCredit(\n            currentId,\n            msg.sender,\n            ApprovalStatus.Pending,\n            0,\n            false\n        );\n        _token.mint(msg.sender, currentId, tokenSupply, \"\");\n        _token.setURI(currentId);\n        emit CarbonCreditCreated(\n            currentId,\n            msg.sender,\n            ApprovalStatus.Pending,\n            0,\n            false\n        );\n    }\n\n    function approveProject(uint256 tokenId) public payable onlyOwner {\n        CarbonCredit memory credit = _token.getCarbonCredit(tokenId);\n\n        require(\n            credit.status == ApprovalStatus.Pending,\n            \"Project cannot be approved\"\n        );\n\n        _token.updateStatus(tokenId, ApprovalStatus.Approved);\n    }\n\n    function declineProject(uint256 tokenId) public onlyOwner {\n        CarbonCredit memory credit = _token.getCarbonCredit(tokenId);\n\n        require(\n            credit.status == ApprovalStatus.Pending,\n            \"Project cannot be declined\"\n        );\n        _token.updateStatus(tokenId, ApprovalStatus.Declined);\n        _token.setURI(tokenId);\n    }\n\n    function getTokenAddress() public view returns (address) {\n        return address(_token);\n    }\n}\n",
  "sourcePath": "/Users/buudinhha/Vscode/DATN/main/contracts/ProjectManagement.sol",
  "compiler": {
    "name": "solc",
    "version": "0.8.13+commit.abaa5c0e.Emscripten.clang"
  },
  "schemaVersion": "3.4.16",
  "updatedAt": "2024-05-08T07:14:48.307Z",
  "networkType": "ethereum",
  "devdoc": {
    "kind": "dev",
    "methods": {
      "balanceOf(address,uint256)": {
        "details": "See {IERC1155-balanceOf}. Requirements: - `account` cannot be the zero address."
      },
      "balanceOfBatch(address[],uint256[])": {
        "details": "See {IERC1155-balanceOfBatch}. Requirements: - `accounts` and `ids` must have the same length."
      },
      "isApprovedForAll(address,address)": {
        "details": "See {IERC1155-isApprovedForAll}."
      },
      "owner()": {
        "details": "Returns the address of the current owner."
      },
      "renounceOwnership()": {
        "details": "Leaves the contract without owner. It will not be possible to call `onlyOwner` functions. Can only be called by the current owner. NOTE: Renouncing ownership will leave the contract without an owner, thereby disabling any functionality that is only available to the owner."
      },
      "safeBatchTransferFrom(address,address,uint256[],uint256[],bytes)": {
        "details": "See {IERC1155-safeBatchTransferFrom}."
      },
      "safeTransferFrom(address,address,uint256,uint256,bytes)": {
        "details": "See {IERC1155-safeTransferFrom}."
      },
      "setApprovalForAll(address,bool)": {
        "details": "See {IERC1155-setApprovalForAll}."
      },
      "supportsInterface(bytes4)": {
        "details": "See {IERC165-supportsInterface}."
      },
      "transferOwnership(address)": {
        "details": "Transfers ownership of the contract to a new account (`newOwner`). Can only be called by the current owner."
      }
    },
    "version": 1
  },
  "userdoc": {
    "kind": "user",
    "methods": {},
    "version": 1
  }
}