{
  "contractName": "ProjectManagement",
  "abi": [
    {
      "inputs": [
        {
          "internalType": "address",
          "name": "_tokenAddress",
          "type": "address"
        }
      ],
      "stateMutability": "nonpayable",
      "type": "constructor"
    },
    {
      "anonymous": false,
      "inputs": [
        {
          "indexed": true,
          "internalType": "address",
          "name": "account",
          "type": "address"
        },
        {
          "indexed": true,
          "internalType": "address",
          "name": "operator",
          "type": "address"
        },
        {
          "indexed": false,
          "internalType": "bool",
          "name": "approved",
          "type": "bool"
        }
      ],
      "name": "ApprovalForAll",
      "type": "event"
    },
    {
      "anonymous": false,
      "inputs": [
        {
          "indexed": false,
          "internalType": "uint256",
          "name": "tokenId",
          "type": "uint256"
        },
        {
          "indexed": false,
          "internalType": "address",
          "name": "auditor",
          "type": "address"
        },
        {
          "indexed": false,
          "internalType": "address",
          "name": "projectOwner",
          "type": "address"
        },
        {
          "indexed": false,
          "internalType": "enum CarbonBase.ApprovalStatus",
          "name": "status",
          "type": "uint8"
        },
        {
          "indexed": false,
          "internalType": "uint256",
          "name": "time",
          "type": "uint256"
        }
      ],
      "name": "CarbonCreditAudited",
      "type": "event"
    },
    {
      "anonymous": false,
      "inputs": [
        {
          "indexed": false,
          "internalType": "uint256",
          "name": "tokenId",
          "type": "uint256"
        },
        {
          "indexed": false,
          "internalType": "address",
          "name": "initialOwner",
          "type": "address"
        },
        {
          "indexed": false,
          "internalType": "uint256",
          "name": "amount",
          "type": "uint256"
        },
        {
          "indexed": false,
          "internalType": "uint256",
          "name": "creationTime",
          "type": "uint256"
        }
      ],
      "name": "CarbonCreditCreated",
      "type": "event"
    },
    {
      "anonymous": false,
      "inputs": [
        {
          "indexed": false,
          "internalType": "uint256",
          "name": "tokenId",
          "type": "uint256"
        },
        {
          "indexed": false,
          "internalType": "address",
          "name": "initialOwner",
          "type": "address"
        },
        {
          "indexed": false,
          "internalType": "uint256",
          "name": "amount",
          "type": "uint256"
        },
        {
          "indexed": false,
          "internalType": "uint256",
          "name": "pricePerCredit",
          "type": "uint256"
        },
        {
          "indexed": false,
          "internalType": "uint256",
          "name": "time",
          "type": "uint256"
        }
      ],
      "name": "CarbonCreditListed",
      "type": "event"
    },
    {
      "anonymous": false,
      "inputs": [
        {
          "indexed": false,
          "internalType": "uint256",
          "name": "tokenId",
          "type": "uint256"
        },
        {
          "indexed": false,
          "internalType": "address",
          "name": "from",
          "type": "address"
        },
        {
          "indexed": false,
          "internalType": "address",
          "name": "to",
          "type": "address"
        },
        {
          "indexed": false,
          "internalType": "uint256",
          "name": "amount",
          "type": "uint256"
        },
        {
          "indexed": false,
          "internalType": "uint256",
          "name": "time",
          "type": "uint256"
        }
      ],
      "name": "CarbonCreditPurchased",
      "type": "event"
    },
    {
      "anonymous": false,
      "inputs": [
        {
          "indexed": false,
          "internalType": "uint256",
          "name": "tokenId",
          "type": "uint256"
        },
        {
          "indexed": false,
          "internalType": "address",
          "name": "owner",
          "type": "address"
        },
        {
          "indexed": false,
          "internalType": "uint256",
          "name": "amount",
          "type": "uint256"
        },
        {
          "indexed": false,
          "internalType": "uint256",
          "name": "time",
          "type": "uint256"
        }
      ],
      "name": "CarbonCreditRetired",
      "type": "event"
    },
    {
      "anonymous": false,
      "inputs": [
        {
          "indexed": true,
          "internalType": "address",
          "name": "previousOwner",
          "type": "address"
        },
        {
          "indexed": true,
          "internalType": "address",
          "name": "newOwner",
          "type": "address"
        }
      ],
      "name": "OwnershipTransferred",
      "type": "event"
    },
    {
      "anonymous": false,
      "inputs": [
        {
          "indexed": true,
          "internalType": "address",
          "name": "operator",
          "type": "address"
        },
        {
          "indexed": true,
          "internalType": "address",
          "name": "from",
          "type": "address"
        },
        {
          "indexed": true,
          "internalType": "address",
          "name": "to",
          "type": "address"
        },
        {
          "indexed": false,
          "internalType": "uint256[]",
          "name": "ids",
          "type": "uint256[]"
        },
        {
          "indexed": false,
          "internalType": "uint256[]",
          "name": "values",
          "type": "uint256[]"
        }
      ],
      "name": "TransferBatch",
      "type": "event"
    },
    {
      "anonymous": false,
      "inputs": [
        {
          "indexed": true,
          "internalType": "address",
          "name": "operator",
          "type": "address"
        },
        {
          "indexed": true,
          "internalType": "address",
          "name": "from",
          "type": "address"
        },
        {
          "indexed": true,
          "internalType": "address",
          "name": "to",
          "type": "address"
        },
        {
          "indexed": false,
          "internalType": "uint256",
          "name": "id",
          "type": "uint256"
        },
        {
          "indexed": false,
          "internalType": "uint256",
          "name": "value",
          "type": "uint256"
        }
      ],
      "name": "TransferSingle",
      "type": "event"
    },
    {
      "anonymous": false,
      "inputs": [
        {
          "indexed": false,
          "internalType": "string",
          "name": "value",
          "type": "string"
        },
        {
          "indexed": true,
          "internalType": "uint256",
          "name": "id",
          "type": "uint256"
        }
      ],
      "name": "URI",
      "type": "event"
    },
    {
      "inputs": [
        {
          "internalType": "address",
          "name": "account",
          "type": "address"
        },
        {
          "internalType": "uint256",
          "name": "id",
          "type": "uint256"
        }
      ],
      "name": "balanceOf",
      "outputs": [
        {
          "internalType": "uint256",
          "name": "",
          "type": "uint256"
        }
      ],
      "stateMutability": "view",
      "type": "function",
      "constant": true
    },
    {
      "inputs": [
        {
          "internalType": "address[]",
          "name": "accounts",
          "type": "address[]"
        },
        {
          "internalType": "uint256[]",
          "name": "ids",
          "type": "uint256[]"
        }
      ],
      "name": "balanceOfBatch",
      "outputs": [
        {
          "internalType": "uint256[]",
          "name": "",
          "type": "uint256[]"
        }
      ],
      "stateMutability": "view",
      "type": "function",
      "constant": true
    },
    {
      "inputs": [
        {
          "internalType": "address",
          "name": "account",
          "type": "address"
        },
        {
          "internalType": "uint256",
          "name": "id",
          "type": "uint256"
        },
        {
          "internalType": "uint256",
          "name": "value",
          "type": "uint256"
        }
      ],
      "name": "burn",
      "outputs": [],
      "stateMutability": "nonpayable",
      "type": "function"
    },
    {
      "inputs": [
        {
          "internalType": "address",
          "name": "account",
          "type": "address"
        },
        {
          "internalType": "uint256[]",
          "name": "ids",
          "type": "uint256[]"
        },
        {
          "internalType": "uint256[]",
          "name": "values",
          "type": "uint256[]"
        }
      ],
      "name": "burnBatch",
      "outputs": [],
      "stateMutability": "nonpayable",
      "type": "function"
    },
    {
      "inputs": [
        {
          "internalType": "address",
          "name": "account",
          "type": "address"
        },
        {
          "internalType": "address",
          "name": "operator",
          "type": "address"
        }
      ],
      "name": "isApprovedForAll",
      "outputs": [
        {
          "internalType": "bool",
          "name": "",
          "type": "bool"
        }
      ],
      "stateMutability": "view",
      "type": "function",
      "constant": true
    },
    {
      "inputs": [],
      "name": "owner",
      "outputs": [
        {
          "internalType": "address",
          "name": "",
          "type": "address"
        }
      ],
      "stateMutability": "view",
      "type": "function",
      "constant": true
    },
    {
      "inputs": [],
      "name": "renounceOwnership",
      "outputs": [],
      "stateMutability": "nonpayable",
      "type": "function"
    },
    {
      "inputs": [
        {
          "internalType": "address",
          "name": "from",
          "type": "address"
        },
        {
          "internalType": "address",
          "name": "to",
          "type": "address"
        },
        {
          "internalType": "uint256[]",
          "name": "ids",
          "type": "uint256[]"
        },
        {
          "internalType": "uint256[]",
          "name": "amounts",
          "type": "uint256[]"
        },
        {
          "internalType": "bytes",
          "name": "data",
          "type": "bytes"
        }
      ],
      "name": "safeBatchTransferFrom",
      "outputs": [],
      "stateMutability": "nonpayable",
      "type": "function"
    },
    {
      "inputs": [
        {
          "internalType": "address",
          "name": "from",
          "type": "address"
        },
        {
          "internalType": "address",
          "name": "to",
          "type": "address"
        },
        {
          "internalType": "uint256",
          "name": "id",
          "type": "uint256"
        },
        {
          "internalType": "uint256",
          "name": "amount",
          "type": "uint256"
        },
        {
          "internalType": "bytes",
          "name": "data",
          "type": "bytes"
        }
      ],
      "name": "safeTransferFrom",
      "outputs": [],
      "stateMutability": "nonpayable",
      "type": "function"
    },
    {
      "inputs": [
        {
          "internalType": "address",
          "name": "operator",
          "type": "address"
        },
        {
          "internalType": "bool",
          "name": "approved",
          "type": "bool"
        }
      ],
      "name": "setApprovalForAll",
      "outputs": [],
      "stateMutability": "nonpayable",
      "type": "function"
    },
    {
      "inputs": [
        {
          "internalType": "bytes4",
          "name": "interfaceId",
          "type": "bytes4"
        }
      ],
      "name": "supportsInterface",
      "outputs": [
        {
          "internalType": "bool",
          "name": "",
          "type": "bool"
        }
      ],
      "stateMutability": "view",
      "type": "function",
      "constant": true
    },
    {
      "inputs": [
        {
          "internalType": "address",
          "name": "newOwner",
          "type": "address"
        }
      ],
      "name": "transferOwnership",
      "outputs": [],
      "stateMutability": "nonpayable",
      "type": "function"
    },
    {
      "inputs": [
        {
          "internalType": "uint256",
          "name": "tokenId",
          "type": "uint256"
        }
      ],
      "name": "uri",
      "outputs": [
        {
          "internalType": "string",
          "name": "",
          "type": "string"
        }
      ],
      "stateMutability": "view",
      "type": "function",
      "constant": true
    },
    {
      "inputs": [
        {
          "internalType": "uint256",
          "name": "tokenSupply",
          "type": "uint256"
        },
        {
          "internalType": "string",
          "name": "tokenURI",
          "type": "string"
        }
      ],
      "name": "registerProject",
      "outputs": [],
      "stateMutability": "nonpayable",
      "type": "function"
    },
    {
      "inputs": [
        {
          "internalType": "uint256",
          "name": "tokenId",
          "type": "uint256"
        }
      ],
      "name": "approveProject",
      "outputs": [],
      "stateMutability": "payable",
      "type": "function",
      "payable": true
    },
    {
      "inputs": [
        {
          "internalType": "uint256",
          "name": "tokenId",
          "type": "uint256"
        }
      ],
      "name": "declineProject",
      "outputs": [],
      "stateMutability": "nonpayable",
      "type": "function"
    },
    {
      "inputs": [],
      "name": "getTokenAddress",
      "outputs": [
        {
          "internalType": "address",
          "name": "",
          "type": "address"
        }
      ],
      "stateMutability": "view",
      "type": "function",
      "constant": true
    }
  ],
  "bytecode": "0x608060405260405180602001604052806000815250600390805190602001906200002b929190620001d3565b503480156200003957600080fd5b50604051620043e8380380620043e883398181016040528101906200005f9190620002ed565b604051806020016040528060008152506200008081620000e960201b60201c565b50620000a1620000956200010560201b60201c565b6200010d60201b60201c565b80600660006101000a81548173ffffffffffffffffffffffffffffffffffffffff021916908373ffffffffffffffffffffffffffffffffffffffff1602179055505062000383565b806002908051906020019062000101929190620001d3565b5050565b600033905090565b6000600560009054906101000a900473ffffffffffffffffffffffffffffffffffffffff16905081600560006101000a81548173ffffffffffffffffffffffffffffffffffffffff021916908373ffffffffffffffffffffffffffffffffffffffff1602179055508173ffffffffffffffffffffffffffffffffffffffff168173ffffffffffffffffffffffffffffffffffffffff167f8be0079c531659141344cd1fd0a4f28419497f9722a3daafe3b4186f6b6457e060405160405180910390a35050565b828054620001e1906200034e565b90600052602060002090601f01602090048101928262000205576000855562000251565b82601f106200022057805160ff191683800117855562000251565b8280016001018555821562000251579182015b828111156200025057825182559160200191906001019062000233565b5b50905062000260919062000264565b5090565b5b808211156200027f57600081600090555060010162000265565b5090565b600080fd5b600073ffffffffffffffffffffffffffffffffffffffff82169050919050565b6000620002b58262000288565b9050919050565b620002c781620002a8565b8114620002d357600080fd5b50565b600081519050620002e781620002bc565b92915050565b60006020828403121562000306576200030562000283565b5b60006200031684828501620002d6565b91505092915050565b7f4e487b7100000000000000000000000000000000000000000000000000000000600052602260045260246000fd5b600060028204905060018216806200036757607f821691505b6020821081036200037d576200037c6200031f565b5b50919050565b61405580620003936000396000f3fe6080604052600436106100fd5760003560e01c80638da5cb5b11610095578063f242432a11610064578063f242432a14610344578063f2fde38b1461036d578063f3fdf55214610396578063f5298aca146103bf578063fc69d836146103e8576100fd565b80638da5cb5b1461028a578063a22cb465146102b5578063cf4d832c146102de578063e985e9c514610307576100fd565b80632eb2c2d6116100d15780632eb2c2d6146101e45780634e1273f41461020d5780636b20c4541461024a578063715018a614610273576100fd565b8062fdd58e1461010257806301ffc9a71461013f5780630e89341c1461017c57806310fe9ae8146101b9575b600080fd5b34801561010e57600080fd5b5061012960048036038101906101249190612540565b610404565b604051610136919061258f565b60405180910390f35b34801561014b57600080fd5b5061016660048036038101906101619190612602565b6104cc565b604051610173919061264a565b60405180910390f35b34801561018857600080fd5b506101a3600480360381019061019e9190612665565b6105ae565b6040516101b0919061272b565b60405180910390f35b3480156101c557600080fd5b506101ce6105c0565b6040516101db919061275c565b60405180910390f35b3480156101f057600080fd5b5061020b60048036038101906102069190612974565b6105ea565b005b34801561021957600080fd5b50610234600480360381019061022f9190612b06565b61068b565b6040516102419190612c3c565b60405180910390f35b34801561025657600080fd5b50610271600480360381019061026c9190612c5e565b6107a4565b005b34801561027f57600080fd5b50610288610841565b005b34801561029657600080fd5b5061029f610855565b6040516102ac919061275c565b60405180910390f35b3480156102c157600080fd5b506102dc60048036038101906102d79190612d15565b61087f565b005b3480156102ea57600080fd5b5061030560048036038101906103009190612df6565b610895565b005b34801561031357600080fd5b5061032e60048036038101906103299190612e52565b610aa7565b60405161033b919061264a565b60405180910390f35b34801561035057600080fd5b5061036b60048036038101906103669190612e92565b610b3b565b005b34801561037957600080fd5b50610394600480360381019061038f9190612f29565b610bdc565b005b3480156103a257600080fd5b506103bd60048036038101906103b89190612665565b610c5f565b005b3480156103cb57600080fd5b506103e660048036038101906103e19190612f56565b610e4a565b005b61040260048036038101906103fd9190612665565b610ee7565b005b60008073ffffffffffffffffffffffffffffffffffffffff168373ffffffffffffffffffffffffffffffffffffffff1603610474576040517f08c379a000000000000000000000000000000000000000000000000000000000815260040161046b9061301b565b60405180910390fd5b60008083815260200190815260200160002060008473ffffffffffffffffffffffffffffffffffffffff1673ffffffffffffffffffffffffffffffffffffffff16815260200190815260200160002054905092915050565b60007fd9b67a26000000000000000000000000000000000000000000000000000000007bffffffffffffffffffffffffffffffffffffffffffffffffffffffff1916827bffffffffffffffffffffffffffffffffffffffffffffffffffffffff1916148061059757507f0e89341c000000000000000000000000000000000000000000000000000000007bffffffffffffffffffffffffffffffffffffffffffffffffffffffff1916827bffffffffffffffffffffffffffffffffffffffffffffffffffffffff1916145b806105a757506105a6826110d2565b5b9050919050565b60606105b98261113c565b9050919050565b6000600660009054906101000a900473ffffffffffffffffffffffffffffffffffffffff16905090565b6105f2611221565b73ffffffffffffffffffffffffffffffffffffffff168573ffffffffffffffffffffffffffffffffffffffff161480610638575061063785610632611221565b610aa7565b5b610677576040517f08c379a000000000000000000000000000000000000000000000000000000000815260040161066e906130ad565b60405180910390fd5b6106848585858585611229565b5050505050565b606081518351146106d1576040517f08c379a00000000000000000000000000000000000000000000000000000000081526004016106c89061313f565b60405180910390fd5b6000835167ffffffffffffffff8111156106ee576106ed61277c565b5b60405190808252806020026020018201604052801561071c5781602001602082028036833780820191505090505b50905060005b8451811015610799576107698582815181106107415761074061315f565b5b602002602001015185838151811061075c5761075b61315f565b5b6020026020010151610404565b82828151811061077c5761077b61315f565b5b60200260200101818152505080610792906131bd565b9050610722565b508091505092915050565b6107ac611221565b73ffffffffffffffffffffffffffffffffffffffff168373ffffffffffffffffffffffffffffffffffffffff1614806107f257506107f1836107ec611221565b610aa7565b5b610831576040517f08c379a0000000000000000000000000000000000000000000000000000000008152600401610828906130ad565b60405180910390fd5b61083c83838361154a565b505050565b610849611818565b6108536000611896565b565b6000600560009054906101000a900473ffffffffffffffffffffffffffffffffffffffff16905090565b61089161088a611221565b838361195c565b5050565b60006007600081546108a6906131bd565b9190508190559050600660009054906101000a900473ffffffffffffffffffffffffffffffffffffffff1673ffffffffffffffffffffffffffffffffffffffff1663b795a881823360008060006040518663ffffffff1660e01b81526004016109139594939291906132c1565b600060405180830381600087803b15801561092d57600080fd5b505af1158015610941573d6000803e3d6000fd5b50505050600660009054906101000a900473ffffffffffffffffffffffffffffffffffffffff1673ffffffffffffffffffffffffffffffffffffffff1663731133e93383866040518463ffffffff1660e01b81526004016109a49392919061334b565b600060405180830381600087803b1580156109be57600080fd5b505af11580156109d2573d6000803e3d6000fd5b50505050600660009054906101000a900473ffffffffffffffffffffffffffffffffffffffff1673ffffffffffffffffffffffffffffffffffffffff1663862440e282846040518363ffffffff1660e01b8152600401610a33929190613395565b600060405180830381600087803b158015610a4d57600080fd5b505af1158015610a61573d6000803e3d6000fd5b505050507f04cff4dde52bf3a5f12d8ffa90e89ced1e9f650edd188cf8575d16c6bd3b049b81338542604051610a9a94939291906133c5565b60405180910390a1505050565b6000600160008473ffffffffffffffffffffffffffffffffffffffff1673ffffffffffffffffffffffffffffffffffffffff16815260200190815260200160002060008373ffffffffffffffffffffffffffffffffffffffff1673ffffffffffffffffffffffffffffffffffffffff16815260200190815260200160002060009054906101000a900460ff16905092915050565b610b43611221565b73ffffffffffffffffffffffffffffffffffffffff168573ffffffffffffffffffffffffffffffffffffffff161480610b895750610b8885610b83611221565b610aa7565b5b610bc8576040517f08c379a0000000000000000000000000000000000000000000000000000000008152600401610bbf906130ad565b60405180910390fd5b610bd58585858585611ac8565b5050505050565b610be4611818565b600073ffffffffffffffffffffffffffffffffffffffff168173ffffffffffffffffffffffffffffffffffffffff1603610c53576040517f08c379a0000000000000000000000000000000000000000000000000000000008152600401610c4a9061347c565b60405180910390fd5b610c5c81611896565b50565b610c67611818565b6000600660009054906101000a900473ffffffffffffffffffffffffffffffffffffffff1673ffffffffffffffffffffffffffffffffffffffff1663f392243b836040518263ffffffff1660e01b8152600401610cc4919061258f565b60a060405180830381865afa158015610ce1573d6000803e3d6000fd5b505050506040513d601f19601f82011682018060405250810190610d059190613591565b905060006002811115610d1b57610d1a613205565b5b81604001516002811115610d3257610d31613205565b5b14610d72576040517f08c379a0000000000000000000000000000000000000000000000000000000008152600401610d699061360a565b60405180910390fd5b600660009054906101000a900473ffffffffffffffffffffffffffffffffffffffff1673ffffffffffffffffffffffffffffffffffffffff16633a1b3d318360026040518363ffffffff1660e01b8152600401610dd092919061362a565b600060405180830381600087803b158015610dea57600080fd5b505af1158015610dfe573d6000803e3d6000fd5b505050507fff92bfbf152c989285c438364b2cf43f2cff458b1bbc5dc4d0999a7d90a26da782338360200151600242604051610e3e959493929190613653565b60405180910390a15050565b610e52611221565b73ffffffffffffffffffffffffffffffffffffffff168373ffffffffffffffffffffffffffffffffffffffff161480610e985750610e9783610e92611221565b610aa7565b5b610ed7576040517f08c379a0000000000000000000000000000000000000000000000000000000008152600401610ece906130ad565b60405180910390fd5b610ee2838383611d63565b505050565b610eef611818565b6000600660009054906101000a900473ffffffffffffffffffffffffffffffffffffffff1673ffffffffffffffffffffffffffffffffffffffff1663f392243b836040518263ffffffff1660e01b8152600401610f4c919061258f565b60a060405180830381865afa158015610f69573d6000803e3d6000fd5b505050506040513d601f19601f82011682018060405250810190610f8d9190613591565b905060006002811115610fa357610fa2613205565b5b81604001516002811115610fba57610fb9613205565b5b14610ffa576040517f08c379a0000000000000000000000000000000000000000000000000000000008152600401610ff1906136f2565b60405180910390fd5b600660009054906101000a900473ffffffffffffffffffffffffffffffffffffffff1673ffffffffffffffffffffffffffffffffffffffff16633a1b3d318360016040518363ffffffff1660e01b815260040161105892919061362a565b600060405180830381600087803b15801561107257600080fd5b505af1158015611086573d6000803e3d6000fd5b505050507fff92bfbf152c989285c438364b2cf43f2cff458b1bbc5dc4d0999a7d90a26da7823383602001516001426040516110c6959493929190613653565b60405180910390a15050565b60007f01ffc9a7000000000000000000000000000000000000000000000000000000007bffffffffffffffffffffffffffffffffffffffffffffffffffffffff1916827bffffffffffffffffffffffffffffffffffffffffffffffffffffffff1916149050919050565b6060600060046000848152602001908152602001600020805461115e90613741565b80601f016020809104026020016040519081016040528092919081815260200182805461118a90613741565b80156111d75780601f106111ac576101008083540402835291602001916111d7565b820191906000526020600020905b8154815290600101906020018083116111ba57829003601f168201915b5050505050905060008151116111f5576111f083611fa9565b611219565b600381604051602001611209929190613842565b6040516020818303038152906040525b915050919050565b600033905090565b815183511461126d576040517f08c379a0000000000000000000000000000000000000000000000000000000008152600401611264906138d8565b60405180910390fd5b600073ffffffffffffffffffffffffffffffffffffffff168473ffffffffffffffffffffffffffffffffffffffff16036112dc576040517f08c379a00000000000000000000000000000000000000000000000000000000081526004016112d39061396a565b60405180910390fd5b60006112e6611221565b90506112f681878787878761203d565b60005b84518110156114a75760008582815181106113175761131661315f565b5b6020026020010151905060008583815181106113365761133561315f565b5b60200260200101519050600080600084815260200190815260200160002060008b73ffffffffffffffffffffffffffffffffffffffff1673ffffffffffffffffffffffffffffffffffffffff168152602001908152602001600020549050818110156113d7576040517f08c379a00000000000000000000000000000000000000000000000000000000081526004016113ce906139fc565b60405180910390fd5b81810360008085815260200190815260200160002060008c73ffffffffffffffffffffffffffffffffffffffff1673ffffffffffffffffffffffffffffffffffffffff168152602001908152602001600020819055508160008085815260200190815260200160002060008b73ffffffffffffffffffffffffffffffffffffffff1673ffffffffffffffffffffffffffffffffffffffff168152602001908152602001600020600082825461148c9190613a1c565b92505081905550505050806114a0906131bd565b90506112f9565b508473ffffffffffffffffffffffffffffffffffffffff168673ffffffffffffffffffffffffffffffffffffffff168273ffffffffffffffffffffffffffffffffffffffff167f4a39dc06d4c0dbc64b70af90fd698a233a518aa5d07e595d983b8c0526c8f7fb878760405161151e929190613a72565b60405180910390a4611534818787878787612045565b61154281878787878761204d565b505050505050565b600073ffffffffffffffffffffffffffffffffffffffff168373ffffffffffffffffffffffffffffffffffffffff16036115b9576040517f08c379a00000000000000000000000000000000000000000000000000000000081526004016115b090613b1b565b60405180910390fd5b80518251146115fd576040517f08c379a00000000000000000000000000000000000000000000000000000000081526004016115f4906138d8565b60405180910390fd5b6000611607611221565b90506116278185600086866040518060200160405280600081525061203d565b60005b83518110156117745760008482815181106116485761164761315f565b5b6020026020010151905060008483815181106116675761166661315f565b5b60200260200101519050600080600084815260200190815260200160002060008973ffffffffffffffffffffffffffffffffffffffff1673ffffffffffffffffffffffffffffffffffffffff16815260200190815260200160002054905081811015611708576040517f08c379a00000000000000000000000000000000000000000000000000000000081526004016116ff90613bad565b60405180910390fd5b81810360008085815260200190815260200160002060008a73ffffffffffffffffffffffffffffffffffffffff1673ffffffffffffffffffffffffffffffffffffffff16815260200190815260200160002081905550505050808061176c906131bd565b91505061162a565b50600073ffffffffffffffffffffffffffffffffffffffff168473ffffffffffffffffffffffffffffffffffffffff168273ffffffffffffffffffffffffffffffffffffffff167f4a39dc06d4c0dbc64b70af90fd698a233a518aa5d07e595d983b8c0526c8f7fb86866040516117ec929190613a72565b60405180910390a461181281856000868660405180602001604052806000815250612045565b50505050565b611820611221565b73ffffffffffffffffffffffffffffffffffffffff1661183e610855565b73ffffffffffffffffffffffffffffffffffffffff1614611894576040517f08c379a000000000000000000000000000000000000000000000000000000000815260040161188b90613c19565b60405180910390fd5b565b6000600560009054906101000a900473ffffffffffffffffffffffffffffffffffffffff16905081600560006101000a81548173ffffffffffffffffffffffffffffffffffffffff021916908373ffffffffffffffffffffffffffffffffffffffff1602179055508173ffffffffffffffffffffffffffffffffffffffff168173ffffffffffffffffffffffffffffffffffffffff167f8be0079c531659141344cd1fd0a4f28419497f9722a3daafe3b4186f6b6457e060405160405180910390a35050565b8173ffffffffffffffffffffffffffffffffffffffff168373ffffffffffffffffffffffffffffffffffffffff16036119ca576040517f08c379a00000000000000000000000000000000000000000000000000000000081526004016119c190613cab565b60405180910390fd5b80600160008573ffffffffffffffffffffffffffffffffffffffff1673ffffffffffffffffffffffffffffffffffffffff16815260200190815260200160002060008473ffffffffffffffffffffffffffffffffffffffff1673ffffffffffffffffffffffffffffffffffffffff16815260200190815260200160002060006101000a81548160ff0219169083151502179055508173ffffffffffffffffffffffffffffffffffffffff168373ffffffffffffffffffffffffffffffffffffffff167f17307eab39ab6107e8899845ad3d59bd9653f200f220920489ca2b5937696c3183604051611abb919061264a565b60405180910390a3505050565b600073ffffffffffffffffffffffffffffffffffffffff168473ffffffffffffffffffffffffffffffffffffffff1603611b37576040517f08c379a0000000000000000000000000000000000000000000000000000000008152600401611b2e9061396a565b60405180910390fd5b6000611b41611221565b90506000611b4e85612224565b90506000611b5b85612224565b9050611b6b83898985858961203d565b600080600088815260200190815260200160002060008a73ffffffffffffffffffffffffffffffffffffffff1673ffffffffffffffffffffffffffffffffffffffff16815260200190815260200160002054905085811015611c02576040517f08c379a0000000000000000000000000000000000000000000000000000000008152600401611bf9906139fc565b60405180910390fd5b85810360008089815260200190815260200160002060008b73ffffffffffffffffffffffffffffffffffffffff1673ffffffffffffffffffffffffffffffffffffffff168152602001908152602001600020819055508560008089815260200190815260200160002060008a73ffffffffffffffffffffffffffffffffffffffff1673ffffffffffffffffffffffffffffffffffffffff1681526020019081526020016000206000828254611cb79190613a1c565b925050819055508773ffffffffffffffffffffffffffffffffffffffff168973ffffffffffffffffffffffffffffffffffffffff168573ffffffffffffffffffffffffffffffffffffffff167fc3d58168c5ae7397731d063d5bbf3d657854427343f4c083240f7aacaa2d0f628a8a604051611d34929190613ccb565b60405180910390a4611d4a848a8a86868a612045565b611d58848a8a8a8a8a61229e565b505050505050505050565b600073ffffffffffffffffffffffffffffffffffffffff168373ffffffffffffffffffffffffffffffffffffffff1603611dd2576040517f08c379a0000000000000000000000000000000000000000000000000000000008152600401611dc990613b1b565b60405180910390fd5b6000611ddc611221565b90506000611de984612224565b90506000611df684612224565b9050611e168387600085856040518060200160405280600081525061203d565b600080600087815260200190815260200160002060008873ffffffffffffffffffffffffffffffffffffffff1673ffffffffffffffffffffffffffffffffffffffff16815260200190815260200160002054905084811015611ead576040517f08c379a0000000000000000000000000000000000000000000000000000000008152600401611ea490613bad565b60405180910390fd5b84810360008088815260200190815260200160002060008973ffffffffffffffffffffffffffffffffffffffff1673ffffffffffffffffffffffffffffffffffffffff16815260200190815260200160002081905550600073ffffffffffffffffffffffffffffffffffffffff168773ffffffffffffffffffffffffffffffffffffffff168573ffffffffffffffffffffffffffffffffffffffff167fc3d58168c5ae7397731d063d5bbf3d657854427343f4c083240f7aacaa2d0f628989604051611f7a929190613ccb565b60405180910390a4611fa084886000868660405180602001604052806000815250612045565b50505050505050565b606060028054611fb890613741565b80601f0160208091040260200160405190810160405280929190818152602001828054611fe490613741565b80156120315780601f1061200657610100808354040283529160200191612031565b820191906000526020600020905b81548152906001019060200180831161201457829003601f168201915b50505050509050919050565b505050505050565b505050505050565b61206c8473ffffffffffffffffffffffffffffffffffffffff16612475565b1561221c578373ffffffffffffffffffffffffffffffffffffffff1663bc197c8187878686866040518663ffffffff1660e01b81526004016120b2959493929190613d38565b6020604051808303816000875af19250505080156120ee57506040513d601f19601f820116820180604052508101906120eb9190613db5565b60015b612193576120fa613def565b806308c379a003612156575061210e613e11565b806121195750612158565b806040517f08c379a000000000000000000000000000000000000000000000000000000000815260040161214d919061272b565b60405180910390fd5b505b6040517f08c379a000000000000000000000000000000000000000000000000000000000815260040161218a90613f13565b60405180910390fd5b63bc197c8160e01b7bffffffffffffffffffffffffffffffffffffffffffffffffffffffff1916817bffffffffffffffffffffffffffffffffffffffffffffffffffffffff19161461221a576040517f08c379a000000000000000000000000000000000000000000000000000000000815260040161221190613fa5565b60405180910390fd5b505b505050505050565b60606000600167ffffffffffffffff8111156122435761224261277c565b5b6040519080825280602002602001820160405280156122715781602001602082028036833780820191505090505b50905082816000815181106122895761228861315f565b5b60200260200101818152505080915050919050565b6122bd8473ffffffffffffffffffffffffffffffffffffffff16612475565b1561246d578373ffffffffffffffffffffffffffffffffffffffff1663f23a6e6187878686866040518663ffffffff1660e01b8152600401612303959493929190613fc5565b6020604051808303816000875af192505050801561233f57506040513d601f19601f8201168201806040525081019061233c9190613db5565b60015b6123e45761234b613def565b806308c379a0036123a7575061235f613e11565b8061236a57506123a9565b806040517f08c379a000000000000000000000000000000000000000000000000000000000815260040161239e919061272b565b60405180910390fd5b505b6040517f08c379a00000000000000000000000000000000000000000000000000000000081526004016123db90613f13565b60405180910390fd5b63f23a6e6160e01b7bffffffffffffffffffffffffffffffffffffffffffffffffffffffff1916817bffffffffffffffffffffffffffffffffffffffffffffffffffffffff19161461246b576040517f08c379a000000000000000000000000000000000000000000000000000000000815260040161246290613fa5565b60405180910390fd5b505b505050505050565b6000808273ffffffffffffffffffffffffffffffffffffffff163b119050919050565b6000604051905090565b600080fd5b600080fd5b600073ffffffffffffffffffffffffffffffffffffffff82169050919050565b60006124d7826124ac565b9050919050565b6124e7816124cc565b81146124f257600080fd5b50565b600081359050612504816124de565b92915050565b6000819050919050565b61251d8161250a565b811461252857600080fd5b50565b60008135905061253a81612514565b92915050565b60008060408385031215612557576125566124a2565b5b6000612565858286016124f5565b92505060206125768582860161252b565b9150509250929050565b6125898161250a565b82525050565b60006020820190506125a46000830184612580565b92915050565b60007fffffffff0000000000000000000000000000000000000000000000000000000082169050919050565b6125df816125aa565b81146125ea57600080fd5b50565b6000813590506125fc816125d6565b92915050565b600060208284031215612618576126176124a2565b5b6000612626848285016125ed565b91505092915050565b60008115159050919050565b6126448161262f565b82525050565b600060208201905061265f600083018461263b565b92915050565b60006020828403121561267b5761267a6124a2565b5b60006126898482850161252b565b91505092915050565b600081519050919050565b600082825260208201905092915050565b60005b838110156126cc5780820151818401526020810190506126b1565b838111156126db576000848401525b50505050565b6000601f19601f8301169050919050565b60006126fd82612692565b612707818561269d565b93506127178185602086016126ae565b612720816126e1565b840191505092915050565b6000602082019050818103600083015261274581846126f2565b905092915050565b612756816124cc565b82525050565b6000602082019050612771600083018461274d565b92915050565b600080fd5b7f4e487b7100000000000000000000000000000000000000000000000000000000600052604160045260246000fd5b6127b4826126e1565b810181811067ffffffffffffffff821117156127d3576127d261277c565b5b80604052505050565b60006127e6612498565b90506127f282826127ab565b919050565b600067ffffffffffffffff8211156128125761281161277c565b5b602082029050602081019050919050565b600080fd5b600061283b612836846127f7565b6127dc565b9050808382526020820190506020840283018581111561285e5761285d612823565b5b835b818110156128875780612873888261252b565b845260208401935050602081019050612860565b5050509392505050565b600082601f8301126128a6576128a5612777565b5b81356128b6848260208601612828565b91505092915050565b600080fd5b600067ffffffffffffffff8211156128df576128de61277c565b5b6128e8826126e1565b9050602081019050919050565b82818337600083830152505050565b6000612917612912846128c4565b6127dc565b905082815260208101848484011115612933576129326128bf565b5b61293e8482856128f5565b509392505050565b600082601f83011261295b5761295a612777565b5b813561296b848260208601612904565b91505092915050565b600080600080600060a086880312156129905761298f6124a2565b5b600061299e888289016124f5565b95505060206129af888289016124f5565b945050604086013567ffffffffffffffff8111156129d0576129cf6124a7565b5b6129dc88828901612891565b935050606086013567ffffffffffffffff8111156129fd576129fc6124a7565b5b612a0988828901612891565b925050608086013567ffffffffffffffff811115612a2a57612a296124a7565b5b612a3688828901612946565b9150509295509295909350565b600067ffffffffffffffff821115612a5e57612a5d61277c565b5b602082029050602081019050919050565b6000612a82612a7d84612a43565b6127dc565b90508083825260208201905060208402830185811115612aa557612aa4612823565b5b835b81811015612ace5780612aba88826124f5565b845260208401935050602081019050612aa7565b5050509392505050565b600082601f830112612aed57612aec612777565b5b8135612afd848260208601612a6f565b91505092915050565b60008060408385031215612b1d57612b1c6124a2565b5b600083013567ffffffffffffffff811115612b3b57612b3a6124a7565b5b612b4785828601612ad8565b925050602083013567ffffffffffffffff811115612b6857612b676124a7565b5b612b7485828601612891565b9150509250929050565b600081519050919050565b600082825260208201905092915050565b6000819050602082019050919050565b612bb38161250a565b82525050565b6000612bc58383612baa565b60208301905092915050565b6000602082019050919050565b6000612be982612b7e565b612bf38185612b89565b9350612bfe83612b9a565b8060005b83811015612c2f578151612c168882612bb9565b9750612c2183612bd1565b925050600181019050612c02565b5085935050505092915050565b60006020820190508181036000830152612c568184612bde565b905092915050565b600080600060608486031215612c7757612c766124a2565b5b6000612c85868287016124f5565b935050602084013567ffffffffffffffff811115612ca657612ca56124a7565b5b612cb286828701612891565b925050604084013567ffffffffffffffff811115612cd357612cd26124a7565b5b612cdf86828701612891565b9150509250925092565b612cf28161262f565b8114612cfd57600080fd5b50565b600081359050612d0f81612ce9565b92915050565b60008060408385031215612d2c57612d2b6124a2565b5b6000612d3a858286016124f5565b9250506020612d4b85828601612d00565b9150509250929050565b600067ffffffffffffffff821115612d7057612d6f61277c565b5b612d79826126e1565b9050602081019050919050565b6000612d99612d9484612d55565b6127dc565b905082815260208101848484011115612db557612db46128bf565b5b612dc08482856128f5565b509392505050565b600082601f830112612ddd57612ddc612777565b5b8135612ded848260208601612d86565b91505092915050565b60008060408385031215612e0d57612e0c6124a2565b5b6000612e1b8582860161252b565b925050602083013567ffffffffffffffff811115612e3c57612e3b6124a7565b5b612e4885828601612dc8565b9150509250929050565b60008060408385031215612e6957612e686124a2565b5b6000612e77858286016124f5565b9250506020612e88858286016124f5565b9150509250929050565b600080600080600060a08688031215612eae57612ead6124a2565b5b6000612ebc888289016124f5565b9550506020612ecd888289016124f5565b9450506040612ede8882890161252b565b9350506060612eef8882890161252b565b925050608086013567ffffffffffffffff811115612f1057612f0f6124a7565b5b612f1c88828901612946565b9150509295509295909350565b600060208284031215612f3f57612f3e6124a2565b5b6000612f4d848285016124f5565b91505092915050565b600080600060608486031215612f6f57612f6e6124a2565b5b6000612f7d868287016124f5565b9350506020612f8e8682870161252b565b9250506040612f9f8682870161252b565b9150509250925092565b7f455243313135353a2061646472657373207a65726f206973206e6f742061207660008201527f616c6964206f776e657200000000000000000000000000000000000000000000602082015250565b6000613005602a8361269d565b915061301082612fa9565b604082019050919050565b6000602082019050818103600083015261303481612ff8565b9050919050565b7f455243313135353a2063616c6c6572206973206e6f7420746f6b656e206f776e60008201527f6572206f7220617070726f766564000000000000000000000000000000000000602082015250565b6000613097602e8361269d565b91506130a28261303b565b604082019050919050565b600060208201905081810360008301526130c68161308a565b9050919050565b7f455243313135353a206163636f756e747320616e6420696473206c656e67746860008201527f206d69736d617463680000000000000000000000000000000000000000000000602082015250565b600061312960298361269d565b9150613134826130cd565b604082019050919050565b600060208201905081810360008301526131588161311c565b9050919050565b7f4e487b7100000000000000000000000000000000000000000000000000000000600052603260045260246000fd5b7f4e487b7100000000000000000000000000000000000000000000000000000000600052601160045260246000fd5b60006131c88261250a565b91507fffffffffffffffffffffffffffffffffffffffffffffffffffffffffffffffff82036131fa576131f961318e565b5b600182019050919050565b7f4e487b7100000000000000000000000000000000000000000000000000000000600052602160045260246000fd5b6003811061324557613244613205565b5b50565b600081905061325682613234565b919050565b600061326682613248565b9050919050565b6132768161325b565b82525050565b6000819050919050565b6000819050919050565b60006132ab6132a66132a18461327c565b613286565b61250a565b9050919050565b6132bb81613290565b82525050565b600060a0820190506132d66000830188612580565b6132e3602083018761274d565b6132f0604083018661326d565b6132fd60608301856132b2565b61330a608083018461263b565b9695505050505050565b600082825260208201905092915050565b50565b6000613335600083613314565b915061334082613325565b600082019050919050565b6000608082019050613360600083018661274d565b61336d6020830185612580565b61337a6040830184612580565b818103606083015261338b81613328565b9050949350505050565b60006040820190506133aa6000830185612580565b81810360208301526133bc81846126f2565b90509392505050565b60006080820190506133da6000830187612580565b6133e7602083018661274d565b6133f46040830185612580565b6134016060830184612580565b95945050505050565b7f4f776e61626c653a206e6577206f776e657220697320746865207a65726f206160008201527f6464726573730000000000000000000000000000000000000000000000000000602082015250565b600061346660268361269d565b91506134718261340a565b604082019050919050565b6000602082019050818103600083015261349581613459565b9050919050565b600080fd5b6000815190506134b081612514565b92915050565b6000815190506134c5816124de565b92915050565b600381106134d857600080fd5b50565b6000815190506134ea816134cb565b92915050565b6000815190506134ff81612ce9565b92915050565b600060a0828403121561351b5761351a61349c565b5b61352560a06127dc565b90506000613535848285016134a1565b6000830152506020613549848285016134b6565b602083015250604061355d848285016134db565b6040830152506060613571848285016134a1565b6060830152506080613585848285016134f0565b60808301525092915050565b600060a082840312156135a7576135a66124a2565b5b60006135b584828501613505565b91505092915050565b7f50726f6a6563742063616e6e6f74206265206465636c696e6564000000000000600082015250565b60006135f4601a8361269d565b91506135ff826135be565b602082019050919050565b60006020820190508181036000830152613623816135e7565b9050919050565b600060408201905061363f6000830185612580565b61364c602083018461326d565b9392505050565b600060a0820190506136686000830188612580565b613675602083018761274d565b613682604083018661274d565b61368f606083018561326d565b61369c6080830184612580565b9695505050505050565b7f50726f6a6563742063616e6e6f7420626520617070726f766564000000000000600082015250565b60006136dc601a8361269d565b91506136e7826136a6565b602082019050919050565b6000602082019050818103600083015261370b816136cf565b9050919050565b7f4e487b7100000000000000000000000000000000000000000000000000000000600052602260045260246000fd5b6000600282049050600182168061375957607f821691505b60208210810361376c5761376b613712565b5b50919050565b600081905092915050565b60008190508160005260206000209050919050565b6000815461379f81613741565b6137a98186613772565b945060018216600081146137c457600181146137d557613808565b60ff19831686528186019350613808565b6137de8561377d565b60005b83811015613800578154818901526001820191506020810190506137e1565b838801955050505b50505092915050565b600061381c82612692565b6138268185613772565b93506138368185602086016126ae565b80840191505092915050565b600061384e8285613792565b915061385a8284613811565b91508190509392505050565b7f455243313135353a2069647320616e6420616d6f756e7473206c656e6774682060008201527f6d69736d61746368000000000000000000000000000000000000000000000000602082015250565b60006138c260288361269d565b91506138cd82613866565b604082019050919050565b600060208201905081810360008301526138f1816138b5565b9050919050565b7f455243313135353a207472616e7366657220746f20746865207a65726f20616460008201527f6472657373000000000000000000000000000000000000000000000000000000602082015250565b600061395460258361269d565b915061395f826138f8565b604082019050919050565b6000602082019050818103600083015261398381613947565b9050919050565b7f455243313135353a20696e73756666696369656e742062616c616e636520666f60008201527f72207472616e7366657200000000000000000000000000000000000000000000602082015250565b60006139e6602a8361269d565b91506139f18261398a565b604082019050919050565b60006020820190508181036000830152613a15816139d9565b9050919050565b6000613a278261250a565b9150613a328361250a565b9250827fffffffffffffffffffffffffffffffffffffffffffffffffffffffffffffffff03821115613a6757613a6661318e565b5b828201905092915050565b60006040820190508181036000830152613a8c8185612bde565b90508181036020830152613aa08184612bde565b90509392505050565b7f455243313135353a206275726e2066726f6d20746865207a65726f206164647260008201527f6573730000000000000000000000000000000000000000000000000000000000602082015250565b6000613b0560238361269d565b9150613b1082613aa9565b604082019050919050565b60006020820190508181036000830152613b3481613af8565b9050919050565b7f455243313135353a206275726e20616d6f756e7420657863656564732062616c60008201527f616e636500000000000000000000000000000000000000000000000000000000602082015250565b6000613b9760248361269d565b9150613ba282613b3b565b604082019050919050565b60006020820190508181036000830152613bc681613b8a565b9050919050565b7f4f776e61626c653a2063616c6c6572206973206e6f7420746865206f776e6572600082015250565b6000613c0360208361269d565b9150613c0e82613bcd565b602082019050919050565b60006020820190508181036000830152613c3281613bf6565b9050919050565b7f455243313135353a2073657474696e6720617070726f76616c2073746174757360008201527f20666f722073656c660000000000000000000000000000000000000000000000602082015250565b6000613c9560298361269d565b9150613ca082613c39565b604082019050919050565b60006020820190508181036000830152613cc481613c88565b9050919050565b6000604082019050613ce06000830185612580565b613ced6020830184612580565b9392505050565b600081519050919050565b6000613d0a82613cf4565b613d148185613314565b9350613d248185602086016126ae565b613d2d816126e1565b840191505092915050565b600060a082019050613d4d600083018861274d565b613d5a602083018761274d565b8181036040830152613d6c8186612bde565b90508181036060830152613d808185612bde565b90508181036080830152613d948184613cff565b90509695505050505050565b600081519050613daf816125d6565b92915050565b600060208284031215613dcb57613dca6124a2565b5b6000613dd984828501613da0565b91505092915050565b60008160e01c9050919050565b600060033d1115613e0e5760046000803e613e0b600051613de2565b90505b90565b600060443d10613e9e57613e23612498565b60043d036004823e80513d602482011167ffffffffffffffff82111715613e4b575050613e9e565b808201805167ffffffffffffffff811115613e695750505050613e9e565b80602083010160043d038501811115613e86575050505050613e9e565b613e95826020018501866127ab565b82955050505050505b90565b7f455243313135353a207472616e7366657220746f206e6f6e2d4552433131353560008201527f526563656976657220696d706c656d656e746572000000000000000000000000602082015250565b6000613efd60348361269d565b9150613f0882613ea1565b604082019050919050565b60006020820190508181036000830152613f2c81613ef0565b9050919050565b7f455243313135353a204552433131353552656365697665722072656a6563746560008201527f6420746f6b656e73000000000000000000000000000000000000000000000000602082015250565b6000613f8f60288361269d565b9150613f9a82613f33565b604082019050919050565b60006020820190508181036000830152613fbe81613f82565b9050919050565b600060a082019050613fda600083018861274d565b613fe7602083018761274d565b613ff46040830186612580565b6140016060830185612580565b81810360808301526140138184613cff565b9050969550505050505056fea2646970667358221220b9dddced84f6056e62645b66575033889033cfd8e6d5517af0e53b142b8ebb8464736f6c634300080d0033",
  "immutableReferences": {},
  "source": "// SPDX-License-Identifier: MIT\npragma solidity ^0.8.13;\n\nimport \"./CarbonToken.sol\";\nimport \"./CarbonBase.sol\";\nimport \"@openzeppelin/contracts/access/Ownable.sol\";\n\ncontract ProjectManagement is Ownable, CarbonBase {\n    CarbonToken private _token;\n    uint256 private _tokenIds;\n\n    constructor(address _tokenAddress) {\n        _token = CarbonToken(_tokenAddress);\n    }\n\n    function registerProject(uint256 tokenSupply, string memory tokenURI) public {\n        uint256 currentId = ++_tokenIds; // tokenID starts from 1\n         _token.setCarbonCredit(\n            currentId,\n            msg.sender,\n            ApprovalStatus.Pending,\n            0,\n            false\n        );\n        _token.mint(msg.sender, currentId, tokenSupply, \"\");\n        _token.setURI(currentId, tokenURI);\n        emit CarbonCreditCreated(\n            currentId,\n            msg.sender,\n            tokenSupply,\n            block.timestamp\n        );\n    }\n\n    function approveProject(uint256 tokenId) public payable onlyOwner {\n        CarbonCredit memory credit = _token.getCarbonCredit(tokenId);\n\n        require(\n            credit.status == ApprovalStatus.Pending,\n            \"Project cannot be approved\"\n        );\n\n        _token.updateStatus(tokenId, ApprovalStatus.Approved);\n        emit CarbonCreditAudited(\n            tokenId,\n            msg.sender,\n            credit.initialOwner,\n            ApprovalStatus.Approved,\n            block.timestamp\n        );\n    }\n\n    function declineProject(uint256 tokenId) public onlyOwner {\n        CarbonCredit memory credit = _token.getCarbonCredit(tokenId);\n\n        require(\n            credit.status == ApprovalStatus.Pending,\n            \"Project cannot be declined\"\n        );\n        _token.updateStatus(tokenId, ApprovalStatus.Declined);\n        emit CarbonCreditAudited(\n            tokenId,\n            msg.sender,\n            credit.initialOwner,\n            ApprovalStatus.Declined,\n            block.timestamp\n        );\n    }\n\n    function getTokenAddress() public view returns (address) {\n        return address(_token);\n    }\n}\n",
  "sourcePath": "/Users/buudinhha/Vscode/DATN/main/contracts/ProjectManagement.sol",
  "compiler": {
    "name": "solc",
    "version": "0.8.13+commit.abaa5c0e.Emscripten.clang"
  },
  "schemaVersion": "3.4.16",
  "updatedAt": "2024-05-21T17:42:05.032Z",
  "networkType": "ethereum",
  "devdoc": {
    "kind": "dev",
    "methods": {
      "balanceOf(address,uint256)": {
        "details": "See {IERC1155-balanceOf}. Requirements: - `account` cannot be the zero address."
      },
      "balanceOfBatch(address[],uint256[])": {
        "details": "See {IERC1155-balanceOfBatch}. Requirements: - `accounts` and `ids` must have the same length."
      },
      "isApprovedForAll(address,address)": {
        "details": "See {IERC1155-isApprovedForAll}."
      },
      "owner()": {
        "details": "Returns the address of the current owner."
      },
      "renounceOwnership()": {
        "details": "Leaves the contract without owner. It will not be possible to call `onlyOwner` functions. Can only be called by the current owner. NOTE: Renouncing ownership will leave the contract without an owner, thereby disabling any functionality that is only available to the owner."
      },
      "safeBatchTransferFrom(address,address,uint256[],uint256[],bytes)": {
        "details": "See {IERC1155-safeBatchTransferFrom}."
      },
      "safeTransferFrom(address,address,uint256,uint256,bytes)": {
        "details": "See {IERC1155-safeTransferFrom}."
      },
      "setApprovalForAll(address,bool)": {
        "details": "See {IERC1155-setApprovalForAll}."
      },
      "supportsInterface(bytes4)": {
        "details": "See {IERC165-supportsInterface}."
      },
      "transferOwnership(address)": {
        "details": "Transfers ownership of the contract to a new account (`newOwner`). Can only be called by the current owner."
      }
    },
    "version": 1
  },
  "userdoc": {
    "kind": "user",
    "methods": {},
    "version": 1
  }
}