{
  "contractName": "ProjectManagement",
  "abi": [
    {
      "inputs": [
        {
          "internalType": "address",
          "name": "_tokenAddress",
          "type": "address"
        },
        {
          "internalType": "address",
          "name": "_accountAddress",
          "type": "address"
        },
        {
          "internalType": "address",
          "name": "_marketAddress",
          "type": "address"
        }
      ],
      "stateMutability": "nonpayable",
      "type": "constructor"
    },
    {
      "anonymous": false,
      "inputs": [
        {
          "indexed": true,
          "internalType": "address",
          "name": "account",
          "type": "address"
        },
        {
          "indexed": true,
          "internalType": "address",
          "name": "operator",
          "type": "address"
        },
        {
          "indexed": false,
          "internalType": "bool",
          "name": "approved",
          "type": "bool"
        }
      ],
      "name": "ApprovalForAll",
      "type": "event"
    },
    {
      "anonymous": false,
      "inputs": [
        {
          "indexed": false,
          "internalType": "uint256",
          "name": "tokenId",
          "type": "uint256"
        },
        {
          "indexed": false,
          "internalType": "address",
          "name": "auditor",
          "type": "address"
        },
        {
          "indexed": false,
          "internalType": "address",
          "name": "projectOwner",
          "type": "address"
        },
        {
          "indexed": false,
          "internalType": "enum CarbonBase.ApprovalStatus",
          "name": "status",
          "type": "uint8"
        },
        {
          "indexed": false,
          "internalType": "uint256",
          "name": "time",
          "type": "uint256"
        }
      ],
      "name": "CarbonCreditAudited",
      "type": "event"
    },
    {
      "anonymous": false,
      "inputs": [
        {
          "indexed": false,
          "internalType": "uint256",
          "name": "tokenId",
          "type": "uint256"
        },
        {
          "indexed": false,
          "internalType": "address",
          "name": "initialOwner",
          "type": "address"
        },
        {
          "indexed": false,
          "internalType": "uint256",
          "name": "amount",
          "type": "uint256"
        },
        {
          "indexed": false,
          "internalType": "uint256",
          "name": "creationTime",
          "type": "uint256"
        }
      ],
      "name": "CarbonCreditCreated",
      "type": "event"
    },
    {
      "anonymous": false,
      "inputs": [
        {
          "indexed": false,
          "internalType": "uint256",
          "name": "tokenId",
          "type": "uint256"
        },
        {
          "indexed": false,
          "internalType": "address",
          "name": "initialOwner",
          "type": "address"
        },
        {
          "indexed": false,
          "internalType": "uint256",
          "name": "amount",
          "type": "uint256"
        },
        {
          "indexed": false,
          "internalType": "uint256",
          "name": "pricePerCredit",
          "type": "uint256"
        },
        {
          "indexed": false,
          "internalType": "uint256",
          "name": "time",
          "type": "uint256"
        }
      ],
      "name": "CarbonCreditListed",
      "type": "event"
    },
    {
      "anonymous": false,
      "inputs": [
        {
          "indexed": false,
          "internalType": "uint256",
          "name": "tokenId",
          "type": "uint256"
        },
        {
          "indexed": false,
          "internalType": "address",
          "name": "from",
          "type": "address"
        },
        {
          "indexed": false,
          "internalType": "address",
          "name": "to",
          "type": "address"
        },
        {
          "indexed": false,
          "internalType": "uint256",
          "name": "amount",
          "type": "uint256"
        },
        {
          "indexed": false,
          "internalType": "uint256",
          "name": "time",
          "type": "uint256"
        }
      ],
      "name": "CarbonCreditPurchased",
      "type": "event"
    },
    {
      "anonymous": false,
      "inputs": [
        {
          "indexed": false,
          "internalType": "uint256",
          "name": "tokenId",
          "type": "uint256"
        },
        {
          "indexed": false,
          "internalType": "address",
          "name": "owner",
          "type": "address"
        },
        {
          "indexed": false,
          "internalType": "uint256",
          "name": "amount",
          "type": "uint256"
        },
        {
          "indexed": false,
          "internalType": "uint256",
          "name": "time",
          "type": "uint256"
        }
      ],
      "name": "CarbonCreditRetired",
      "type": "event"
    },
    {
      "anonymous": false,
      "inputs": [
        {
          "indexed": true,
          "internalType": "address",
          "name": "previousOwner",
          "type": "address"
        },
        {
          "indexed": true,
          "internalType": "address",
          "name": "newOwner",
          "type": "address"
        }
      ],
      "name": "OwnershipTransferred",
      "type": "event"
    },
    {
      "anonymous": false,
      "inputs": [
        {
          "indexed": true,
          "internalType": "address",
          "name": "operator",
          "type": "address"
        },
        {
          "indexed": true,
          "internalType": "address",
          "name": "from",
          "type": "address"
        },
        {
          "indexed": true,
          "internalType": "address",
          "name": "to",
          "type": "address"
        },
        {
          "indexed": false,
          "internalType": "uint256[]",
          "name": "ids",
          "type": "uint256[]"
        },
        {
          "indexed": false,
          "internalType": "uint256[]",
          "name": "values",
          "type": "uint256[]"
        }
      ],
      "name": "TransferBatch",
      "type": "event"
    },
    {
      "anonymous": false,
      "inputs": [
        {
          "indexed": true,
          "internalType": "address",
          "name": "operator",
          "type": "address"
        },
        {
          "indexed": true,
          "internalType": "address",
          "name": "from",
          "type": "address"
        },
        {
          "indexed": true,
          "internalType": "address",
          "name": "to",
          "type": "address"
        },
        {
          "indexed": false,
          "internalType": "uint256",
          "name": "id",
          "type": "uint256"
        },
        {
          "indexed": false,
          "internalType": "uint256",
          "name": "value",
          "type": "uint256"
        }
      ],
      "name": "TransferSingle",
      "type": "event"
    },
    {
      "anonymous": false,
      "inputs": [
        {
          "indexed": false,
          "internalType": "string",
          "name": "value",
          "type": "string"
        },
        {
          "indexed": true,
          "internalType": "uint256",
          "name": "id",
          "type": "uint256"
        }
      ],
      "name": "URI",
      "type": "event"
    },
    {
      "inputs": [
        {
          "internalType": "address",
          "name": "account",
          "type": "address"
        },
        {
          "internalType": "uint256",
          "name": "id",
          "type": "uint256"
        }
      ],
      "name": "balanceOf",
      "outputs": [
        {
          "internalType": "uint256",
          "name": "",
          "type": "uint256"
        }
      ],
      "stateMutability": "view",
      "type": "function",
      "constant": true
    },
    {
      "inputs": [
        {
          "internalType": "address[]",
          "name": "accounts",
          "type": "address[]"
        },
        {
          "internalType": "uint256[]",
          "name": "ids",
          "type": "uint256[]"
        }
      ],
      "name": "balanceOfBatch",
      "outputs": [
        {
          "internalType": "uint256[]",
          "name": "",
          "type": "uint256[]"
        }
      ],
      "stateMutability": "view",
      "type": "function",
      "constant": true
    },
    {
      "inputs": [
        {
          "internalType": "address",
          "name": "account",
          "type": "address"
        },
        {
          "internalType": "uint256",
          "name": "id",
          "type": "uint256"
        },
        {
          "internalType": "uint256",
          "name": "value",
          "type": "uint256"
        }
      ],
      "name": "burn",
      "outputs": [],
      "stateMutability": "nonpayable",
      "type": "function"
    },
    {
      "inputs": [
        {
          "internalType": "address",
          "name": "account",
          "type": "address"
        },
        {
          "internalType": "uint256[]",
          "name": "ids",
          "type": "uint256[]"
        },
        {
          "internalType": "uint256[]",
          "name": "values",
          "type": "uint256[]"
        }
      ],
      "name": "burnBatch",
      "outputs": [],
      "stateMutability": "nonpayable",
      "type": "function"
    },
    {
      "inputs": [
        {
          "internalType": "address",
          "name": "account",
          "type": "address"
        },
        {
          "internalType": "address",
          "name": "operator",
          "type": "address"
        }
      ],
      "name": "isApprovedForAll",
      "outputs": [
        {
          "internalType": "bool",
          "name": "",
          "type": "bool"
        }
      ],
      "stateMutability": "view",
      "type": "function",
      "constant": true
    },
    {
      "inputs": [],
      "name": "owner",
      "outputs": [
        {
          "internalType": "address",
          "name": "",
          "type": "address"
        }
      ],
      "stateMutability": "view",
      "type": "function",
      "constant": true
    },
    {
      "inputs": [],
      "name": "renounceOwnership",
      "outputs": [],
      "stateMutability": "nonpayable",
      "type": "function"
    },
    {
      "inputs": [
        {
          "internalType": "address",
          "name": "from",
          "type": "address"
        },
        {
          "internalType": "address",
          "name": "to",
          "type": "address"
        },
        {
          "internalType": "uint256[]",
          "name": "ids",
          "type": "uint256[]"
        },
        {
          "internalType": "uint256[]",
          "name": "amounts",
          "type": "uint256[]"
        },
        {
          "internalType": "bytes",
          "name": "data",
          "type": "bytes"
        }
      ],
      "name": "safeBatchTransferFrom",
      "outputs": [],
      "stateMutability": "nonpayable",
      "type": "function"
    },
    {
      "inputs": [
        {
          "internalType": "address",
          "name": "from",
          "type": "address"
        },
        {
          "internalType": "address",
          "name": "to",
          "type": "address"
        },
        {
          "internalType": "uint256",
          "name": "id",
          "type": "uint256"
        },
        {
          "internalType": "uint256",
          "name": "amount",
          "type": "uint256"
        },
        {
          "internalType": "bytes",
          "name": "data",
          "type": "bytes"
        }
      ],
      "name": "safeTransferFrom",
      "outputs": [],
      "stateMutability": "nonpayable",
      "type": "function"
    },
    {
      "inputs": [
        {
          "internalType": "address",
          "name": "operator",
          "type": "address"
        },
        {
          "internalType": "bool",
          "name": "approved",
          "type": "bool"
        }
      ],
      "name": "setApprovalForAll",
      "outputs": [],
      "stateMutability": "nonpayable",
      "type": "function"
    },
    {
      "inputs": [
        {
          "internalType": "bytes4",
          "name": "interfaceId",
          "type": "bytes4"
        }
      ],
      "name": "supportsInterface",
      "outputs": [
        {
          "internalType": "bool",
          "name": "",
          "type": "bool"
        }
      ],
      "stateMutability": "view",
      "type": "function",
      "constant": true
    },
    {
      "inputs": [
        {
          "internalType": "address",
          "name": "newOwner",
          "type": "address"
        }
      ],
      "name": "transferOwnership",
      "outputs": [],
      "stateMutability": "nonpayable",
      "type": "function"
    },
    {
      "inputs": [
        {
          "internalType": "uint256",
          "name": "tokenId",
          "type": "uint256"
        }
      ],
      "name": "uri",
      "outputs": [
        {
          "internalType": "string",
          "name": "",
          "type": "string"
        }
      ],
      "stateMutability": "view",
      "type": "function",
      "constant": true
    },
    {
      "inputs": [
        {
          "internalType": "uint256",
          "name": "tokenSupply",
          "type": "uint256"
        },
        {
          "internalType": "string",
          "name": "tokenURI",
          "type": "string"
        },
        {
          "internalType": "uint256",
          "name": "price",
          "type": "uint256"
        }
      ],
      "name": "registerProject",
      "outputs": [],
      "stateMutability": "nonpayable",
      "type": "function"
    },
    {
      "inputs": [
        {
          "internalType": "uint256",
          "name": "tokenId",
          "type": "uint256"
        }
      ],
      "name": "approveProject",
      "outputs": [],
      "stateMutability": "payable",
      "type": "function",
      "payable": true
    },
    {
      "inputs": [
        {
          "internalType": "uint256",
          "name": "tokenId",
          "type": "uint256"
        }
      ],
      "name": "declineProject",
      "outputs": [],
      "stateMutability": "nonpayable",
      "type": "function"
    }
  ],
  "bytecode": "0x608060405260405180602001604052806000815250600390805190602001906200002b92919062000257565b503480156200003957600080fd5b5060405162004ae738038062004ae783398181016040528101906200005f919062000371565b6040518060200160405280600081525062000080816200016d60201b60201c565b50620000a1620000956200018960201b60201c565b6200019160201b60201c565b82600660006101000a81548173ffffffffffffffffffffffffffffffffffffffff021916908373ffffffffffffffffffffffffffffffffffffffff16021790555081600860006101000a81548173ffffffffffffffffffffffffffffffffffffffff021916908373ffffffffffffffffffffffffffffffffffffffff16021790555080600760006101000a81548173ffffffffffffffffffffffffffffffffffffffff021916908373ffffffffffffffffffffffffffffffffffffffff16021790555050505062000431565b80600290805190602001906200018592919062000257565b5050565b600033905090565b6000600560009054906101000a900473ffffffffffffffffffffffffffffffffffffffff16905081600560006101000a81548173ffffffffffffffffffffffffffffffffffffffff021916908373ffffffffffffffffffffffffffffffffffffffff1602179055508173ffffffffffffffffffffffffffffffffffffffff168173ffffffffffffffffffffffffffffffffffffffff167f8be0079c531659141344cd1fd0a4f28419497f9722a3daafe3b4186f6b6457e060405160405180910390a35050565b8280546200026590620003fc565b90600052602060002090601f016020900481019282620002895760008555620002d5565b82601f10620002a457805160ff1916838001178555620002d5565b82800160010185558215620002d5579182015b82811115620002d4578251825591602001919060010190620002b7565b5b509050620002e49190620002e8565b5090565b5b8082111562000303576000816000905550600101620002e9565b5090565b600080fd5b600073ffffffffffffffffffffffffffffffffffffffff82169050919050565b600062000339826200030c565b9050919050565b6200034b816200032c565b81146200035757600080fd5b50565b6000815190506200036b8162000340565b92915050565b6000806000606084860312156200038d576200038c62000307565b5b60006200039d868287016200035a565b9350506020620003b0868287016200035a565b9250506040620003c3868287016200035a565b9150509250925092565b7f4e487b7100000000000000000000000000000000000000000000000000000000600052602260045260246000fd5b600060028204905060018216806200041557607f821691505b6020821081036200042b576200042a620003cd565b5b50919050565b6146a680620004416000396000f3fe6080604052600436106100f25760003560e01c8063a22cb4651161008a578063f2fde38b11610059578063f2fde38b14610337578063f3fdf55214610360578063f5298aca14610389578063fc69d836146103b2576100f2565b8063a22cb4651461027f578063c1288a8d146102a8578063e985e9c5146102d1578063f242432a1461030e576100f2565b80634e1273f4116100c65780634e1273f4146101d75780636b20c45414610214578063715018a61461023d5780638da5cb5b14610254576100f2565b8062fdd58e146100f757806301ffc9a7146101345780630e89341c146101715780632eb2c2d6146101ae575b600080fd5b34801561010357600080fd5b5061011e60048036038101906101199190612a91565b6103ce565b60405161012b9190612ae0565b60405180910390f35b34801561014057600080fd5b5061015b60048036038101906101569190612b53565b610496565b6040516101689190612b9b565b60405180910390f35b34801561017d57600080fd5b5061019860048036038101906101939190612bb6565b610578565b6040516101a59190612c7c565b60405180910390f35b3480156101ba57600080fd5b506101d560048036038101906101d09190612e9b565b61058a565b005b3480156101e357600080fd5b506101fe60048036038101906101f9919061302d565b61062b565b60405161020b9190613163565b60405180910390f35b34801561022057600080fd5b5061023b60048036038101906102369190613185565b610744565b005b34801561024957600080fd5b506102526107e1565b005b34801561026057600080fd5b506102696107f5565b604051610276919061321f565b60405180910390f35b34801561028b57600080fd5b506102a660048036038101906102a19190613266565b61081f565b005b3480156102b457600080fd5b506102cf60048036038101906102ca9190613347565b610835565b005b3480156102dd57600080fd5b506102f860048036038101906102f391906133b6565b610bb7565b6040516103059190612b9b565b60405180910390f35b34801561031a57600080fd5b50610335600480360381019061033091906133f6565b610c4b565b005b34801561034357600080fd5b5061035e6004803603810190610359919061348d565b610cec565b005b34801561036c57600080fd5b5061038760048036038101906103829190612bb6565b610d6f565b005b34801561039557600080fd5b506103b060048036038101906103ab91906134ba565b61102d565b005b6103cc60048036038101906103c79190612bb6565b6110ca565b005b60008073ffffffffffffffffffffffffffffffffffffffff168373ffffffffffffffffffffffffffffffffffffffff160361043e576040517f08c379a00000000000000000000000000000000000000000000000000000000081526004016104359061357f565b60405180910390fd5b60008083815260200190815260200160002060008473ffffffffffffffffffffffffffffffffffffffff1673ffffffffffffffffffffffffffffffffffffffff16815260200190815260200160002054905092915050565b60007fd9b67a26000000000000000000000000000000000000000000000000000000007bffffffffffffffffffffffffffffffffffffffffffffffffffffffff1916827bffffffffffffffffffffffffffffffffffffffffffffffffffffffff1916148061056157507f0e89341c000000000000000000000000000000000000000000000000000000007bffffffffffffffffffffffffffffffffffffffffffffffffffffffff1916827bffffffffffffffffffffffffffffffffffffffffffffffffffffffff1916145b80610571575061057082611623565b5b9050919050565b60606105838261168d565b9050919050565b610592611772565b73ffffffffffffffffffffffffffffffffffffffff168573ffffffffffffffffffffffffffffffffffffffff1614806105d857506105d7856105d2611772565b610bb7565b5b610617576040517f08c379a000000000000000000000000000000000000000000000000000000000815260040161060e90613611565b60405180910390fd5b610624858585858561177a565b5050505050565b60608151835114610671576040517f08c379a0000000000000000000000000000000000000000000000000000000008152600401610668906136a3565b60405180910390fd5b6000835167ffffffffffffffff81111561068e5761068d612ca3565b5b6040519080825280602002602001820160405280156106bc5781602001602082028036833780820191505090505b50905060005b8451811015610739576107098582815181106106e1576106e06136c3565b5b60200260200101518583815181106106fc576106fb6136c3565b5b60200260200101516103ce565b82828151811061071c5761071b6136c3565b5b6020026020010181815250508061073290613721565b90506106c2565b508091505092915050565b61074c611772565b73ffffffffffffffffffffffffffffffffffffffff168373ffffffffffffffffffffffffffffffffffffffff16148061079257506107918361078c611772565b610bb7565b5b6107d1576040517f08c379a00000000000000000000000000000000000000000000000000000000081526004016107c890613611565b60405180910390fd5b6107dc838383611a9b565b505050565b6107e9611d69565b6107f36000611de7565b565b6000600560009054906101000a900473ffffffffffffffffffffffffffffffffffffffff16905090565b61083161082a611772565b8383611ead565b5050565b600860009054906101000a900473ffffffffffffffffffffffffffffffffffffffff1673ffffffffffffffffffffffffffffffffffffffff16631f15ad1a336040518263ffffffff1660e01b8152600401610890919061321f565b602060405180830381865afa1580156108ad573d6000803e3d6000fd5b505050506040513d601f19601f820116820180604052508101906108d1919061377e565b831115610913576040517f08c379a000000000000000000000000000000000000000000000000000000000815260040161090a906137f7565b60405180910390fd5b60008111610956576040517f08c379a000000000000000000000000000000000000000000000000000000000815260040161094d90613863565b60405180910390fd5b600060096000815461096790613721565b9190508190559050600660009054906101000a900473ffffffffffffffffffffffffffffffffffffffff1673ffffffffffffffffffffffffffffffffffffffff1663b795a881823360008660006040518663ffffffff1660e01b81526004016109d49594939291906138fa565b600060405180830381600087803b1580156109ee57600080fd5b505af1158015610a02573d6000803e3d6000fd5b50505050600660009054906101000a900473ffffffffffffffffffffffffffffffffffffffff1673ffffffffffffffffffffffffffffffffffffffff1663278d17ad82866040518363ffffffff1660e01b8152600401610a6392919061394d565b600060405180830381600087803b158015610a7d57600080fd5b505af1158015610a91573d6000803e3d6000fd5b50505050600660009054906101000a900473ffffffffffffffffffffffffffffffffffffffff1673ffffffffffffffffffffffffffffffffffffffff1663862440e282856040518363ffffffff1660e01b8152600401610af2929190613976565b600060405180830381600087803b158015610b0c57600080fd5b505af1158015610b20573d6000803e3d6000fd5b50505050600660009054906101000a900473ffffffffffffffffffffffffffffffffffffffff1673ffffffffffffffffffffffffffffffffffffffff1663663680ee826040518263ffffffff1660e01b8152600401610b7f9190612ae0565b600060405180830381600087803b158015610b9957600080fd5b505af1158015610bad573d6000803e3d6000fd5b5050505050505050565b6000600160008473ffffffffffffffffffffffffffffffffffffffff1673ffffffffffffffffffffffffffffffffffffffff16815260200190815260200160002060008373ffffffffffffffffffffffffffffffffffffffff1673ffffffffffffffffffffffffffffffffffffffff16815260200190815260200160002060009054906101000a900460ff16905092915050565b610c53611772565b73ffffffffffffffffffffffffffffffffffffffff168573ffffffffffffffffffffffffffffffffffffffff161480610c995750610c9885610c93611772565b610bb7565b5b610cd8576040517f08c379a0000000000000000000000000000000000000000000000000000000008152600401610ccf90613611565b60405180910390fd5b610ce58585858585612019565b5050505050565b610cf4611d69565b600073ffffffffffffffffffffffffffffffffffffffff168173ffffffffffffffffffffffffffffffffffffffff1603610d63576040517f08c379a0000000000000000000000000000000000000000000000000000000008152600401610d5a90613a18565b60405180910390fd5b610d6c81611de7565b50565b600860009054906101000a900473ffffffffffffffffffffffffffffffffffffffff1673ffffffffffffffffffffffffffffffffffffffff166349b90557336040518263ffffffff1660e01b8152600401610dca919061321f565b602060405180830381865afa158015610de7573d6000803e3d6000fd5b505050506040513d601f19601f82011682018060405250810190610e0b9190613a4d565b610e4a576040517f08c379a0000000000000000000000000000000000000000000000000000000008152600401610e4190613ac6565b60405180910390fd5b6000600660009054906101000a900473ffffffffffffffffffffffffffffffffffffffff1673ffffffffffffffffffffffffffffffffffffffff1663f392243b836040518263ffffffff1660e01b8152600401610ea79190612ae0565b60a060405180830381865afa158015610ec4573d6000803e3d6000fd5b505050506040513d601f19601f82011682018060405250810190610ee89190613bb1565b905060006002811115610efe57610efd613883565b5b81604001516002811115610f1557610f14613883565b5b14610f55576040517f08c379a0000000000000000000000000000000000000000000000000000000008152600401610f4c90613c2a565b60405180910390fd5b600660009054906101000a900473ffffffffffffffffffffffffffffffffffffffff1673ffffffffffffffffffffffffffffffffffffffff16633a1b3d318360026040518363ffffffff1660e01b8152600401610fb3929190613c4a565b600060405180830381600087803b158015610fcd57600080fd5b505af1158015610fe1573d6000803e3d6000fd5b505050507fff92bfbf152c989285c438364b2cf43f2cff458b1bbc5dc4d0999a7d90a26da782338360200151600242604051611021959493929190613c73565b60405180910390a15050565b611035611772565b73ffffffffffffffffffffffffffffffffffffffff168373ffffffffffffffffffffffffffffffffffffffff16148061107b575061107a83611075611772565b610bb7565b5b6110ba576040517f08c379a00000000000000000000000000000000000000000000000000000000081526004016110b190613611565b60405180910390fd5b6110c58383836122b4565b505050565b600860009054906101000a900473ffffffffffffffffffffffffffffffffffffffff1673ffffffffffffffffffffffffffffffffffffffff166349b90557336040518263ffffffff1660e01b8152600401611125919061321f565b602060405180830381865afa158015611142573d6000803e3d6000fd5b505050506040513d601f19601f820116820180604052508101906111669190613a4d565b6111a5576040517f08c379a000000000000000000000000000000000000000000000000000000000815260040161119c90613ac6565b60405180910390fd5b6000600660009054906101000a900473ffffffffffffffffffffffffffffffffffffffff1673ffffffffffffffffffffffffffffffffffffffff1663f392243b836040518263ffffffff1660e01b81526004016112029190612ae0565b60a060405180830381865afa15801561121f573d6000803e3d6000fd5b505050506040513d601f19601f820116820180604052508101906112439190613bb1565b90506000600281111561125957611258613883565b5b816040015160028111156112705761126f613883565b5b146112b0576040517f08c379a00000000000000000000000000000000000000000000000000000000081526004016112a790613c2a565b60405180910390fd5b600660009054906101000a900473ffffffffffffffffffffffffffffffffffffffff1673ffffffffffffffffffffffffffffffffffffffff16633a1b3d318360016040518363ffffffff1660e01b815260040161130e929190613c4a565b600060405180830381600087803b15801561132857600080fd5b505af115801561133c573d6000803e3d6000fd5b50505050600660009054906101000a900473ffffffffffffffffffffffffffffffffffffffff1673ffffffffffffffffffffffffffffffffffffffff1663731133e9826020015184600660009054906101000a900473ffffffffffffffffffffffffffffffffffffffff1673ffffffffffffffffffffffffffffffffffffffff166319b88edb876040518263ffffffff1660e01b81526004016113df9190612ae0565b602060405180830381865afa1580156113fc573d6000803e3d6000fd5b505050506040513d601f19601f82011682018060405250810190611420919061377e565b6040518463ffffffff1660e01b815260040161143e93929190613cfd565b600060405180830381600087803b15801561145857600080fd5b505af115801561146c573d6000803e3d6000fd5b505050507f04cff4dde52bf3a5f12d8ffa90e89ced1e9f650edd188cf8575d16c6bd3b049b8233600660009054906101000a900473ffffffffffffffffffffffffffffffffffffffff1673ffffffffffffffffffffffffffffffffffffffff166319b88edb866040518263ffffffff1660e01b81526004016114ee9190612ae0565b602060405180830381865afa15801561150b573d6000803e3d6000fd5b505050506040513d601f19601f8201168201806040525081019061152f919061377e565b426040516115409493929190613d47565b60405180910390a17fff92bfbf152c989285c438364b2cf43f2cff458b1bbc5dc4d0999a7d90a26da782338360200151600142604051611584959493929190613c73565b60405180910390a1600760009054906101000a900473ffffffffffffffffffffffffffffffffffffffff1673ffffffffffffffffffffffffffffffffffffffff166319adf6ad8383606001516040518363ffffffff1660e01b81526004016115ed92919061394d565b600060405180830381600087803b15801561160757600080fd5b505af115801561161b573d6000803e3d6000fd5b505050505050565b60007f01ffc9a7000000000000000000000000000000000000000000000000000000007bffffffffffffffffffffffffffffffffffffffffffffffffffffffff1916827bffffffffffffffffffffffffffffffffffffffffffffffffffffffff1916149050919050565b606060006004600084815260200190815260200160002080546116af90613dbb565b80601f01602080910402602001604051908101604052809291908181526020018280546116db90613dbb565b80156117285780601f106116fd57610100808354040283529160200191611728565b820191906000526020600020905b81548152906001019060200180831161170b57829003601f168201915b50505050509050600081511161174657611741836124fa565b61176a565b60038160405160200161175a929190613ebc565b6040516020818303038152906040525b915050919050565b600033905090565b81518351146117be576040517f08c379a00000000000000000000000000000000000000000000000000000000081526004016117b590613f52565b60405180910390fd5b600073ffffffffffffffffffffffffffffffffffffffff168473ffffffffffffffffffffffffffffffffffffffff160361182d576040517f08c379a000000000000000000000000000000000000000000000000000000000815260040161182490613fe4565b60405180910390fd5b6000611837611772565b905061184781878787878761258e565b60005b84518110156119f8576000858281518110611868576118676136c3565b5b602002602001015190506000858381518110611887576118866136c3565b5b60200260200101519050600080600084815260200190815260200160002060008b73ffffffffffffffffffffffffffffffffffffffff1673ffffffffffffffffffffffffffffffffffffffff16815260200190815260200160002054905081811015611928576040517f08c379a000000000000000000000000000000000000000000000000000000000815260040161191f90614076565b60405180910390fd5b81810360008085815260200190815260200160002060008c73ffffffffffffffffffffffffffffffffffffffff1673ffffffffffffffffffffffffffffffffffffffff168152602001908152602001600020819055508160008085815260200190815260200160002060008b73ffffffffffffffffffffffffffffffffffffffff1673ffffffffffffffffffffffffffffffffffffffff16815260200190815260200160002060008282546119dd9190614096565b92505081905550505050806119f190613721565b905061184a565b508473ffffffffffffffffffffffffffffffffffffffff168673ffffffffffffffffffffffffffffffffffffffff168273ffffffffffffffffffffffffffffffffffffffff167f4a39dc06d4c0dbc64b70af90fd698a233a518aa5d07e595d983b8c0526c8f7fb8787604051611a6f9291906140ec565b60405180910390a4611a85818787878787612596565b611a9381878787878761259e565b505050505050565b600073ffffffffffffffffffffffffffffffffffffffff168373ffffffffffffffffffffffffffffffffffffffff1603611b0a576040517f08c379a0000000000000000000000000000000000000000000000000000000008152600401611b0190614195565b60405180910390fd5b8051825114611b4e576040517f08c379a0000000000000000000000000000000000000000000000000000000008152600401611b4590613f52565b60405180910390fd5b6000611b58611772565b9050611b788185600086866040518060200160405280600081525061258e565b60005b8351811015611cc5576000848281518110611b9957611b986136c3565b5b602002602001015190506000848381518110611bb857611bb76136c3565b5b60200260200101519050600080600084815260200190815260200160002060008973ffffffffffffffffffffffffffffffffffffffff1673ffffffffffffffffffffffffffffffffffffffff16815260200190815260200160002054905081811015611c59576040517f08c379a0000000000000000000000000000000000000000000000000000000008152600401611c5090614227565b60405180910390fd5b81810360008085815260200190815260200160002060008a73ffffffffffffffffffffffffffffffffffffffff1673ffffffffffffffffffffffffffffffffffffffff168152602001908152602001600020819055505050508080611cbd90613721565b915050611b7b565b50600073ffffffffffffffffffffffffffffffffffffffff168473ffffffffffffffffffffffffffffffffffffffff168273ffffffffffffffffffffffffffffffffffffffff167f4a39dc06d4c0dbc64b70af90fd698a233a518aa5d07e595d983b8c0526c8f7fb8686604051611d3d9291906140ec565b60405180910390a4611d6381856000868660405180602001604052806000815250612596565b50505050565b611d71611772565b73ffffffffffffffffffffffffffffffffffffffff16611d8f6107f5565b73ffffffffffffffffffffffffffffffffffffffff1614611de5576040517f08c379a0000000000000000000000000000000000000000000000000000000008152600401611ddc90614293565b60405180910390fd5b565b6000600560009054906101000a900473ffffffffffffffffffffffffffffffffffffffff16905081600560006101000a81548173ffffffffffffffffffffffffffffffffffffffff021916908373ffffffffffffffffffffffffffffffffffffffff1602179055508173ffffffffffffffffffffffffffffffffffffffff168173ffffffffffffffffffffffffffffffffffffffff167f8be0079c531659141344cd1fd0a4f28419497f9722a3daafe3b4186f6b6457e060405160405180910390a35050565b8173ffffffffffffffffffffffffffffffffffffffff168373ffffffffffffffffffffffffffffffffffffffff1603611f1b576040517f08c379a0000000000000000000000000000000000000000000000000000000008152600401611f1290614325565b60405180910390fd5b80600160008573ffffffffffffffffffffffffffffffffffffffff1673ffffffffffffffffffffffffffffffffffffffff16815260200190815260200160002060008473ffffffffffffffffffffffffffffffffffffffff1673ffffffffffffffffffffffffffffffffffffffff16815260200190815260200160002060006101000a81548160ff0219169083151502179055508173ffffffffffffffffffffffffffffffffffffffff168373ffffffffffffffffffffffffffffffffffffffff167f17307eab39ab6107e8899845ad3d59bd9653f200f220920489ca2b5937696c318360405161200c9190612b9b565b60405180910390a3505050565b600073ffffffffffffffffffffffffffffffffffffffff168473ffffffffffffffffffffffffffffffffffffffff1603612088576040517f08c379a000000000000000000000000000000000000000000000000000000000815260040161207f90613fe4565b60405180910390fd5b6000612092611772565b9050600061209f85612775565b905060006120ac85612775565b90506120bc83898985858961258e565b600080600088815260200190815260200160002060008a73ffffffffffffffffffffffffffffffffffffffff1673ffffffffffffffffffffffffffffffffffffffff16815260200190815260200160002054905085811015612153576040517f08c379a000000000000000000000000000000000000000000000000000000000815260040161214a90614076565b60405180910390fd5b85810360008089815260200190815260200160002060008b73ffffffffffffffffffffffffffffffffffffffff1673ffffffffffffffffffffffffffffffffffffffff168152602001908152602001600020819055508560008089815260200190815260200160002060008a73ffffffffffffffffffffffffffffffffffffffff1673ffffffffffffffffffffffffffffffffffffffff16815260200190815260200160002060008282546122089190614096565b925050819055508773ffffffffffffffffffffffffffffffffffffffff168973ffffffffffffffffffffffffffffffffffffffff168573ffffffffffffffffffffffffffffffffffffffff167fc3d58168c5ae7397731d063d5bbf3d657854427343f4c083240f7aacaa2d0f628a8a60405161228592919061394d565b60405180910390a461229b848a8a86868a612596565b6122a9848a8a8a8a8a6127ef565b505050505050505050565b600073ffffffffffffffffffffffffffffffffffffffff168373ffffffffffffffffffffffffffffffffffffffff1603612323576040517f08c379a000000000000000000000000000000000000000000000000000000000815260040161231a90614195565b60405180910390fd5b600061232d611772565b9050600061233a84612775565b9050600061234784612775565b90506123678387600085856040518060200160405280600081525061258e565b600080600087815260200190815260200160002060008873ffffffffffffffffffffffffffffffffffffffff1673ffffffffffffffffffffffffffffffffffffffff168152602001908152602001600020549050848110156123fe576040517f08c379a00000000000000000000000000000000000000000000000000000000081526004016123f590614227565b60405180910390fd5b84810360008088815260200190815260200160002060008973ffffffffffffffffffffffffffffffffffffffff1673ffffffffffffffffffffffffffffffffffffffff16815260200190815260200160002081905550600073ffffffffffffffffffffffffffffffffffffffff168773ffffffffffffffffffffffffffffffffffffffff168573ffffffffffffffffffffffffffffffffffffffff167fc3d58168c5ae7397731d063d5bbf3d657854427343f4c083240f7aacaa2d0f6289896040516124cb92919061394d565b60405180910390a46124f184886000868660405180602001604052806000815250612596565b50505050505050565b60606002805461250990613dbb565b80601f016020809104026020016040519081016040528092919081815260200182805461253590613dbb565b80156125825780601f1061255757610100808354040283529160200191612582565b820191906000526020600020905b81548152906001019060200180831161256557829003601f168201915b50505050509050919050565b505050505050565b505050505050565b6125bd8473ffffffffffffffffffffffffffffffffffffffff166129c6565b1561276d578373ffffffffffffffffffffffffffffffffffffffff1663bc197c8187878686866040518663ffffffff1660e01b8152600401612603959493929190614389565b6020604051808303816000875af192505050801561263f57506040513d601f19601f8201168201806040525081019061263c9190614406565b60015b6126e45761264b614440565b806308c379a0036126a7575061265f614462565b8061266a57506126a9565b806040517f08c379a000000000000000000000000000000000000000000000000000000000815260040161269e9190612c7c565b60405180910390fd5b505b6040517f08c379a00000000000000000000000000000000000000000000000000000000081526004016126db90614564565b60405180910390fd5b63bc197c8160e01b7bffffffffffffffffffffffffffffffffffffffffffffffffffffffff1916817bffffffffffffffffffffffffffffffffffffffffffffffffffffffff19161461276b576040517f08c379a0000000000000000000000000000000000000000000000000000000008152600401612762906145f6565b60405180910390fd5b505b505050505050565b60606000600167ffffffffffffffff81111561279457612793612ca3565b5b6040519080825280602002602001820160405280156127c25781602001602082028036833780820191505090505b50905082816000815181106127da576127d96136c3565b5b60200260200101818152505080915050919050565b61280e8473ffffffffffffffffffffffffffffffffffffffff166129c6565b156129be578373ffffffffffffffffffffffffffffffffffffffff1663f23a6e6187878686866040518663ffffffff1660e01b8152600401612854959493929190614616565b6020604051808303816000875af192505050801561289057506040513d601f19601f8201168201806040525081019061288d9190614406565b60015b6129355761289c614440565b806308c379a0036128f857506128b0614462565b806128bb57506128fa565b806040517f08c379a00000000000000000000000000000000000000000000000000000000081526004016128ef9190612c7c565b60405180910390fd5b505b6040517f08c379a000000000000000000000000000000000000000000000000000000000815260040161292c90614564565b60405180910390fd5b63f23a6e6160e01b7bffffffffffffffffffffffffffffffffffffffffffffffffffffffff1916817bffffffffffffffffffffffffffffffffffffffffffffffffffffffff1916146129bc576040517f08c379a00000000000000000000000000000000000000000000000000000000081526004016129b3906145f6565b60405180910390fd5b505b505050505050565b6000808273ffffffffffffffffffffffffffffffffffffffff163b119050919050565b6000604051905090565b600080fd5b600080fd5b600073ffffffffffffffffffffffffffffffffffffffff82169050919050565b6000612a28826129fd565b9050919050565b612a3881612a1d565b8114612a4357600080fd5b50565b600081359050612a5581612a2f565b92915050565b6000819050919050565b612a6e81612a5b565b8114612a7957600080fd5b50565b600081359050612a8b81612a65565b92915050565b60008060408385031215612aa857612aa76129f3565b5b6000612ab685828601612a46565b9250506020612ac785828601612a7c565b9150509250929050565b612ada81612a5b565b82525050565b6000602082019050612af56000830184612ad1565b92915050565b60007fffffffff0000000000000000000000000000000000000000000000000000000082169050919050565b612b3081612afb565b8114612b3b57600080fd5b50565b600081359050612b4d81612b27565b92915050565b600060208284031215612b6957612b686129f3565b5b6000612b7784828501612b3e565b91505092915050565b60008115159050919050565b612b9581612b80565b82525050565b6000602082019050612bb06000830184612b8c565b92915050565b600060208284031215612bcc57612bcb6129f3565b5b6000612bda84828501612a7c565b91505092915050565b600081519050919050565b600082825260208201905092915050565b60005b83811015612c1d578082015181840152602081019050612c02565b83811115612c2c576000848401525b50505050565b6000601f19601f8301169050919050565b6000612c4e82612be3565b612c588185612bee565b9350612c68818560208601612bff565b612c7181612c32565b840191505092915050565b60006020820190508181036000830152612c968184612c43565b905092915050565b600080fd5b7f4e487b7100000000000000000000000000000000000000000000000000000000600052604160045260246000fd5b612cdb82612c32565b810181811067ffffffffffffffff82111715612cfa57612cf9612ca3565b5b80604052505050565b6000612d0d6129e9565b9050612d198282612cd2565b919050565b600067ffffffffffffffff821115612d3957612d38612ca3565b5b602082029050602081019050919050565b600080fd5b6000612d62612d5d84612d1e565b612d03565b90508083825260208201905060208402830185811115612d8557612d84612d4a565b5b835b81811015612dae5780612d9a8882612a7c565b845260208401935050602081019050612d87565b5050509392505050565b600082601f830112612dcd57612dcc612c9e565b5b8135612ddd848260208601612d4f565b91505092915050565b600080fd5b600067ffffffffffffffff821115612e0657612e05612ca3565b5b612e0f82612c32565b9050602081019050919050565b82818337600083830152505050565b6000612e3e612e3984612deb565b612d03565b905082815260208101848484011115612e5a57612e59612de6565b5b612e65848285612e1c565b509392505050565b600082601f830112612e8257612e81612c9e565b5b8135612e92848260208601612e2b565b91505092915050565b600080600080600060a08688031215612eb757612eb66129f3565b5b6000612ec588828901612a46565b9550506020612ed688828901612a46565b945050604086013567ffffffffffffffff811115612ef757612ef66129f8565b5b612f0388828901612db8565b935050606086013567ffffffffffffffff811115612f2457612f236129f8565b5b612f3088828901612db8565b925050608086013567ffffffffffffffff811115612f5157612f506129f8565b5b612f5d88828901612e6d565b9150509295509295909350565b600067ffffffffffffffff821115612f8557612f84612ca3565b5b602082029050602081019050919050565b6000612fa9612fa484612f6a565b612d03565b90508083825260208201905060208402830185811115612fcc57612fcb612d4a565b5b835b81811015612ff55780612fe18882612a46565b845260208401935050602081019050612fce565b5050509392505050565b600082601f83011261301457613013612c9e565b5b8135613024848260208601612f96565b91505092915050565b60008060408385031215613044576130436129f3565b5b600083013567ffffffffffffffff811115613062576130616129f8565b5b61306e85828601612fff565b925050602083013567ffffffffffffffff81111561308f5761308e6129f8565b5b61309b85828601612db8565b9150509250929050565b600081519050919050565b600082825260208201905092915050565b6000819050602082019050919050565b6130da81612a5b565b82525050565b60006130ec83836130d1565b60208301905092915050565b6000602082019050919050565b6000613110826130a5565b61311a81856130b0565b9350613125836130c1565b8060005b8381101561315657815161313d88826130e0565b9750613148836130f8565b925050600181019050613129565b5085935050505092915050565b6000602082019050818103600083015261317d8184613105565b905092915050565b60008060006060848603121561319e5761319d6129f3565b5b60006131ac86828701612a46565b935050602084013567ffffffffffffffff8111156131cd576131cc6129f8565b5b6131d986828701612db8565b925050604084013567ffffffffffffffff8111156131fa576131f96129f8565b5b61320686828701612db8565b9150509250925092565b61321981612a1d565b82525050565b60006020820190506132346000830184613210565b92915050565b61324381612b80565b811461324e57600080fd5b50565b6000813590506132608161323a565b92915050565b6000806040838503121561327d5761327c6129f3565b5b600061328b85828601612a46565b925050602061329c85828601613251565b9150509250929050565b600067ffffffffffffffff8211156132c1576132c0612ca3565b5b6132ca82612c32565b9050602081019050919050565b60006132ea6132e5846132a6565b612d03565b90508281526020810184848401111561330657613305612de6565b5b613311848285612e1c565b509392505050565b600082601f83011261332e5761332d612c9e565b5b813561333e8482602086016132d7565b91505092915050565b6000806000606084860312156133605761335f6129f3565b5b600061336e86828701612a7c565b935050602084013567ffffffffffffffff81111561338f5761338e6129f8565b5b61339b86828701613319565b92505060406133ac86828701612a7c565b9150509250925092565b600080604083850312156133cd576133cc6129f3565b5b60006133db85828601612a46565b92505060206133ec85828601612a46565b9150509250929050565b600080600080600060a08688031215613412576134116129f3565b5b600061342088828901612a46565b955050602061343188828901612a46565b945050604061344288828901612a7c565b935050606061345388828901612a7c565b925050608086013567ffffffffffffffff811115613474576134736129f8565b5b61348088828901612e6d565b9150509295509295909350565b6000602082840312156134a3576134a26129f3565b5b60006134b184828501612a46565b91505092915050565b6000806000606084860312156134d3576134d26129f3565b5b60006134e186828701612a46565b93505060206134f286828701612a7c565b925050604061350386828701612a7c565b9150509250925092565b7f455243313135353a2061646472657373207a65726f206973206e6f742061207660008201527f616c6964206f776e657200000000000000000000000000000000000000000000602082015250565b6000613569602a83612bee565b91506135748261350d565b604082019050919050565b600060208201905081810360008301526135988161355c565b9050919050565b7f455243313135353a2063616c6c6572206973206e6f7420746f6b656e206f776e60008201527f6572206f7220617070726f766564000000000000000000000000000000000000602082015250565b60006135fb602e83612bee565b91506136068261359f565b604082019050919050565b6000602082019050818103600083015261362a816135ee565b9050919050565b7f455243313135353a206163636f756e747320616e6420696473206c656e67746860008201527f206d69736d617463680000000000000000000000000000000000000000000000602082015250565b600061368d602983612bee565b915061369882613631565b604082019050919050565b600060208201905081810360008301526136bc81613680565b9050919050565b7f4e487b7100000000000000000000000000000000000000000000000000000000600052603260045260246000fd5b7f4e487b7100000000000000000000000000000000000000000000000000000000600052601160045260246000fd5b600061372c82612a5b565b91507fffffffffffffffffffffffffffffffffffffffffffffffffffffffffffffffff820361375e5761375d6136f2565b5b600182019050919050565b60008151905061377881612a65565b92915050565b600060208284031215613794576137936129f3565b5b60006137a284828501613769565b91505092915050565b7f546f6b656e20737570706c7920696e76616c6964000000000000000000000000600082015250565b60006137e1601483612bee565b91506137ec826137ab565b602082019050919050565b60006020820190508181036000830152613810816137d4565b9050919050565b7f496e76616c696420707269636500000000000000000000000000000000000000600082015250565b600061384d600d83612bee565b915061385882613817565b602082019050919050565b6000602082019050818103600083015261387c81613840565b9050919050565b7f4e487b7100000000000000000000000000000000000000000000000000000000600052602160045260246000fd5b600381106138c3576138c2613883565b5b50565b60008190506138d4826138b2565b919050565b60006138e4826138c6565b9050919050565b6138f4816138d9565b82525050565b600060a08201905061390f6000830188612ad1565b61391c6020830187613210565b61392960408301866138eb565b6139366060830185612ad1565b6139436080830184612b8c565b9695505050505050565b60006040820190506139626000830185612ad1565b61396f6020830184612ad1565b9392505050565b600060408201905061398b6000830185612ad1565b818103602083015261399d8184612c43565b90509392505050565b7f4f776e61626c653a206e6577206f776e657220697320746865207a65726f206160008201527f6464726573730000000000000000000000000000000000000000000000000000602082015250565b6000613a02602683612bee565b9150613a0d826139a6565b604082019050919050565b60006020820190508181036000830152613a31816139f5565b9050919050565b600081519050613a478161323a565b92915050565b600060208284031215613a6357613a626129f3565b5b6000613a7184828501613a38565b91505092915050565b7f496e76616c69642061756469746f720000000000000000000000000000000000600082015250565b6000613ab0600f83612bee565b9150613abb82613a7a565b602082019050919050565b60006020820190508181036000830152613adf81613aa3565b9050919050565b600080fd5b600081519050613afa81612a2f565b92915050565b60038110613b0d57600080fd5b50565b600081519050613b1f81613b00565b92915050565b600060a08284031215613b3b57613b3a613ae6565b5b613b4560a0612d03565b90506000613b5584828501613769565b6000830152506020613b6984828501613aeb565b6020830152506040613b7d84828501613b10565b6040830152506060613b9184828501613769565b6060830152506080613ba584828501613a38565b60808301525092915050565b600060a08284031215613bc757613bc66129f3565b5b6000613bd584828501613b25565b91505092915050565b7f496e76616c696420737461747573000000000000000000000000000000000000600082015250565b6000613c14600e83612bee565b9150613c1f82613bde565b602082019050919050565b60006020820190508181036000830152613c4381613c07565b9050919050565b6000604082019050613c5f6000830185612ad1565b613c6c60208301846138eb565b9392505050565b600060a082019050613c886000830188612ad1565b613c956020830187613210565b613ca26040830186613210565b613caf60608301856138eb565b613cbc6080830184612ad1565b9695505050505050565b600082825260208201905092915050565b50565b6000613ce7600083613cc6565b9150613cf282613cd7565b600082019050919050565b6000608082019050613d126000830186613210565b613d1f6020830185612ad1565b613d2c6040830184612ad1565b8181036060830152613d3d81613cda565b9050949350505050565b6000608082019050613d5c6000830187612ad1565b613d696020830186613210565b613d766040830185612ad1565b613d836060830184612ad1565b95945050505050565b7f4e487b7100000000000000000000000000000000000000000000000000000000600052602260045260246000fd5b60006002820490506001821680613dd357607f821691505b602082108103613de657613de5613d8c565b5b50919050565b600081905092915050565b60008190508160005260206000209050919050565b60008154613e1981613dbb565b613e238186613dec565b94506001821660008114613e3e5760018114613e4f57613e82565b60ff19831686528186019350613e82565b613e5885613df7565b60005b83811015613e7a57815481890152600182019150602081019050613e5b565b838801955050505b50505092915050565b6000613e9682612be3565b613ea08185613dec565b9350613eb0818560208601612bff565b80840191505092915050565b6000613ec88285613e0c565b9150613ed48284613e8b565b91508190509392505050565b7f455243313135353a2069647320616e6420616d6f756e7473206c656e6774682060008201527f6d69736d61746368000000000000000000000000000000000000000000000000602082015250565b6000613f3c602883612bee565b9150613f4782613ee0565b604082019050919050565b60006020820190508181036000830152613f6b81613f2f565b9050919050565b7f455243313135353a207472616e7366657220746f20746865207a65726f20616460008201527f6472657373000000000000000000000000000000000000000000000000000000602082015250565b6000613fce602583612bee565b9150613fd982613f72565b604082019050919050565b60006020820190508181036000830152613ffd81613fc1565b9050919050565b7f455243313135353a20696e73756666696369656e742062616c616e636520666f60008201527f72207472616e7366657200000000000000000000000000000000000000000000602082015250565b6000614060602a83612bee565b915061406b82614004565b604082019050919050565b6000602082019050818103600083015261408f81614053565b9050919050565b60006140a182612a5b565b91506140ac83612a5b565b9250827fffffffffffffffffffffffffffffffffffffffffffffffffffffffffffffffff038211156140e1576140e06136f2565b5b828201905092915050565b600060408201905081810360008301526141068185613105565b9050818103602083015261411a8184613105565b90509392505050565b7f455243313135353a206275726e2066726f6d20746865207a65726f206164647260008201527f6573730000000000000000000000000000000000000000000000000000000000602082015250565b600061417f602383612bee565b915061418a82614123565b604082019050919050565b600060208201905081810360008301526141ae81614172565b9050919050565b7f455243313135353a206275726e20616d6f756e7420657863656564732062616c60008201527f616e636500000000000000000000000000000000000000000000000000000000602082015250565b6000614211602483612bee565b915061421c826141b5565b604082019050919050565b6000602082019050818103600083015261424081614204565b9050919050565b7f4f776e61626c653a2063616c6c6572206973206e6f7420746865206f776e6572600082015250565b600061427d602083612bee565b915061428882614247565b602082019050919050565b600060208201905081810360008301526142ac81614270565b9050919050565b7f455243313135353a2073657474696e6720617070726f76616c2073746174757360008201527f20666f722073656c660000000000000000000000000000000000000000000000602082015250565b600061430f602983612bee565b915061431a826142b3565b604082019050919050565b6000602082019050818103600083015261433e81614302565b9050919050565b600081519050919050565b600061435b82614345565b6143658185613cc6565b9350614375818560208601612bff565b61437e81612c32565b840191505092915050565b600060a08201905061439e6000830188613210565b6143ab6020830187613210565b81810360408301526143bd8186613105565b905081810360608301526143d18185613105565b905081810360808301526143e58184614350565b90509695505050505050565b60008151905061440081612b27565b92915050565b60006020828403121561441c5761441b6129f3565b5b600061442a848285016143f1565b91505092915050565b60008160e01c9050919050565b600060033d111561445f5760046000803e61445c600051614433565b90505b90565b600060443d106144ef576144746129e9565b60043d036004823e80513d602482011167ffffffffffffffff8211171561449c5750506144ef565b808201805167ffffffffffffffff8111156144ba57505050506144ef565b80602083010160043d0385018111156144d75750505050506144ef565b6144e682602001850186612cd2565b82955050505050505b90565b7f455243313135353a207472616e7366657220746f206e6f6e2d4552433131353560008201527f526563656976657220696d706c656d656e746572000000000000000000000000602082015250565b600061454e603483612bee565b9150614559826144f2565b604082019050919050565b6000602082019050818103600083015261457d81614541565b9050919050565b7f455243313135353a204552433131353552656365697665722072656a6563746560008201527f6420746f6b656e73000000000000000000000000000000000000000000000000602082015250565b60006145e0602883612bee565b91506145eb82614584565b604082019050919050565b6000602082019050818103600083015261460f816145d3565b9050919050565b600060a08201905061462b6000830188613210565b6146386020830187613210565b6146456040830186612ad1565b6146526060830185612ad1565b81810360808301526146648184614350565b9050969550505050505056fea26469706673582212205fbdc01cc112210e802434dcefafa6c4db746c2e16426c30a610b96dc12d013664736f6c634300080d0033",
  "immutableReferences": {},
  "source": "// SPDX-License-Identifier: MIT\npragma solidity ^0.8.13;\n\nimport \"./CarbonToken.sol\";\nimport \"./CarbonMarket.sol\";\nimport \"./CarbonBase.sol\";\nimport \"./AccountManagement.sol\";\nimport \"@openzeppelin/contracts/access/Ownable.sol\";\n\ncontract ProjectManagement is Ownable, CarbonBase {\n    CarbonToken private _token;\n    CarbonMarket private _market;\n    AccountManagement private _account;\n    uint256 private _tokenIds;\n\n    constructor(\n        address _tokenAddress,\n        address _accountAddress,\n        address _marketAddress\n    ) {\n        _token = CarbonToken(_tokenAddress);\n        _account = AccountManagement(_accountAddress);\n        _market = CarbonMarket(_marketAddress);\n    }\n\n    modifier onlyAuditor() {\n        require(_account.isAuditor(msg.sender), \"Invalid auditor\");\n        _;\n    }\n\n    function registerProject(\n        uint256 tokenSupply,\n        string memory tokenURI,\n        uint256 price\n    ) public {\n        require(\n            tokenSupply <= _account.getAccountTotalCredits(msg.sender),\n            \"Token supply invalid\"\n        );\n        require(price > 0, \"Invalid price\");\n        uint256 currentId = ++_tokenIds; // tokenID starts from 1\n        _token.setCarbonCredit(\n            currentId,\n            msg.sender,\n            ApprovalStatus.Pending,\n            price,\n            false\n        );\n        _token.setTokenSupply(currentId, tokenSupply);\n        _token.setURI(currentId, tokenURI);\n        _token.getAddTokenToAllTokensEnumeration(currentId);\n    }\n\n    function approveProject(uint256 tokenId) public payable onlyAuditor {\n        CarbonCredit memory credit = _token.getCarbonCredit(tokenId);\n\n        require(credit.status == ApprovalStatus.Pending, \"Invalid status\");\n\n        _token.updateStatus(tokenId, ApprovalStatus.Approved);\n        _token.mint(\n            credit.initialOwner,\n            tokenId,\n            _token.getTokenSupply(tokenId),\n            \"\"\n        );\n\n        emit CarbonCreditCreated(\n            tokenId,\n            msg.sender,\n            _token.getTokenSupply(tokenId),\n            block.timestamp\n        );\n        emit CarbonCreditAudited(\n            tokenId,\n            msg.sender,\n            credit.initialOwner,\n            ApprovalStatus.Approved,\n            block.timestamp\n        );\n\n        _market.listCreditsForSale(tokenId, credit.pricePerCredit);\n    }\n\n    function declineProject(uint256 tokenId) public onlyAuditor {\n        CarbonCredit memory credit = _token.getCarbonCredit(tokenId);\n\n        require(credit.status == ApprovalStatus.Pending, \"Invalid status\");\n        _token.updateStatus(tokenId, ApprovalStatus.Declined);\n        emit CarbonCreditAudited(\n            tokenId,\n            msg.sender,\n            credit.initialOwner,\n            ApprovalStatus.Declined,\n            block.timestamp\n        );\n    }\n}\n",
  "sourcePath": "/Users/buudinhha/Vscode/DATN/main/contracts/ProjectManagement.sol",
  "compiler": {
    "name": "solc",
    "version": "0.8.13+commit.abaa5c0e.Emscripten.clang"
  },
  "schemaVersion": "3.4.16",
  "updatedAt": "2024-05-30T16:59:47.542Z",
  "networkType": "ethereum",
  "devdoc": {
    "kind": "dev",
    "methods": {
      "balanceOf(address,uint256)": {
        "details": "See {IERC1155-balanceOf}. Requirements: - `account` cannot be the zero address."
      },
      "balanceOfBatch(address[],uint256[])": {
        "details": "See {IERC1155-balanceOfBatch}. Requirements: - `accounts` and `ids` must have the same length."
      },
      "isApprovedForAll(address,address)": {
        "details": "See {IERC1155-isApprovedForAll}."
      },
      "owner()": {
        "details": "Returns the address of the current owner."
      },
      "renounceOwnership()": {
        "details": "Leaves the contract without owner. It will not be possible to call `onlyOwner` functions. Can only be called by the current owner. NOTE: Renouncing ownership will leave the contract without an owner, thereby disabling any functionality that is only available to the owner."
      },
      "safeBatchTransferFrom(address,address,uint256[],uint256[],bytes)": {
        "details": "See {IERC1155-safeBatchTransferFrom}."
      },
      "safeTransferFrom(address,address,uint256,uint256,bytes)": {
        "details": "See {IERC1155-safeTransferFrom}."
      },
      "setApprovalForAll(address,bool)": {
        "details": "See {IERC1155-setApprovalForAll}."
      },
      "supportsInterface(bytes4)": {
        "details": "See {IERC165-supportsInterface}."
      },
      "transferOwnership(address)": {
        "details": "Transfers ownership of the contract to a new account (`newOwner`). Can only be called by the current owner."
      }
    },
    "version": 1
  },
  "userdoc": {
    "kind": "user",
    "methods": {},
    "version": 1
  }
}