{
  "contractName": "ProjectManagement",
  "abi": [
    {
      "inputs": [
        {
          "internalType": "address",
          "name": "_tokenAddress",
          "type": "address"
        },
        {
          "internalType": "address",
          "name": "_accountAddress",
          "type": "address"
        },
        {
          "internalType": "address",
          "name": "_marketAddress",
          "type": "address"
        }
      ],
      "stateMutability": "nonpayable",
      "type": "constructor"
    },
    {
      "anonymous": false,
      "inputs": [
        {
          "indexed": true,
          "internalType": "address",
          "name": "account",
          "type": "address"
        },
        {
          "indexed": true,
          "internalType": "address",
          "name": "operator",
          "type": "address"
        },
        {
          "indexed": false,
          "internalType": "bool",
          "name": "approved",
          "type": "bool"
        }
      ],
      "name": "ApprovalForAll",
      "type": "event"
    },
    {
      "anonymous": false,
      "inputs": [
        {
          "indexed": false,
          "internalType": "uint256",
          "name": "tokenId",
          "type": "uint256"
        },
        {
          "indexed": false,
          "internalType": "address",
          "name": "auditor",
          "type": "address"
        },
        {
          "indexed": false,
          "internalType": "address",
          "name": "projectOwner",
          "type": "address"
        },
        {
          "indexed": false,
          "internalType": "enum CarbonBase.ApprovalStatus",
          "name": "status",
          "type": "uint8"
        },
        {
          "indexed": false,
          "internalType": "uint256",
          "name": "time",
          "type": "uint256"
        }
      ],
      "name": "CarbonCreditAudited",
      "type": "event"
    },
    {
      "anonymous": false,
      "inputs": [
        {
          "indexed": false,
          "internalType": "uint256",
          "name": "tokenId",
          "type": "uint256"
        },
        {
          "indexed": false,
          "internalType": "address",
          "name": "initialOwner",
          "type": "address"
        },
        {
          "indexed": false,
          "internalType": "uint256",
          "name": "amount",
          "type": "uint256"
        },
        {
          "indexed": false,
          "internalType": "uint256",
          "name": "creationTime",
          "type": "uint256"
        }
      ],
      "name": "CarbonCreditCreated",
      "type": "event"
    },
    {
      "anonymous": false,
      "inputs": [
        {
          "indexed": false,
          "internalType": "uint256",
          "name": "tokenId",
          "type": "uint256"
        },
        {
          "indexed": false,
          "internalType": "address",
          "name": "initialOwner",
          "type": "address"
        },
        {
          "indexed": false,
          "internalType": "uint256",
          "name": "amount",
          "type": "uint256"
        },
        {
          "indexed": false,
          "internalType": "uint256",
          "name": "pricePerCredit",
          "type": "uint256"
        },
        {
          "indexed": false,
          "internalType": "uint256",
          "name": "time",
          "type": "uint256"
        }
      ],
      "name": "CarbonCreditListed",
      "type": "event"
    },
    {
      "anonymous": false,
      "inputs": [
        {
          "indexed": false,
          "internalType": "uint256",
          "name": "tokenId",
          "type": "uint256"
        },
        {
          "indexed": false,
          "internalType": "address",
          "name": "from",
          "type": "address"
        },
        {
          "indexed": false,
          "internalType": "address",
          "name": "to",
          "type": "address"
        },
        {
          "indexed": false,
          "internalType": "uint256",
          "name": "amount",
          "type": "uint256"
        },
        {
          "indexed": false,
          "internalType": "uint256",
          "name": "time",
          "type": "uint256"
        }
      ],
      "name": "CarbonCreditPurchased",
      "type": "event"
    },
    {
      "anonymous": false,
      "inputs": [
        {
          "indexed": false,
          "internalType": "uint256",
          "name": "tokenId",
          "type": "uint256"
        },
        {
          "indexed": false,
          "internalType": "address",
          "name": "owner",
          "type": "address"
        },
        {
          "indexed": false,
          "internalType": "uint256",
          "name": "amount",
          "type": "uint256"
        },
        {
          "indexed": false,
          "internalType": "uint256",
          "name": "time",
          "type": "uint256"
        }
      ],
      "name": "CarbonCreditRetired",
      "type": "event"
    },
    {
      "anonymous": false,
      "inputs": [
        {
          "indexed": true,
          "internalType": "address",
          "name": "previousOwner",
          "type": "address"
        },
        {
          "indexed": true,
          "internalType": "address",
          "name": "newOwner",
          "type": "address"
        }
      ],
      "name": "OwnershipTransferred",
      "type": "event"
    },
    {
      "anonymous": false,
      "inputs": [
        {
          "indexed": true,
          "internalType": "address",
          "name": "operator",
          "type": "address"
        },
        {
          "indexed": true,
          "internalType": "address",
          "name": "from",
          "type": "address"
        },
        {
          "indexed": true,
          "internalType": "address",
          "name": "to",
          "type": "address"
        },
        {
          "indexed": false,
          "internalType": "uint256[]",
          "name": "ids",
          "type": "uint256[]"
        },
        {
          "indexed": false,
          "internalType": "uint256[]",
          "name": "values",
          "type": "uint256[]"
        }
      ],
      "name": "TransferBatch",
      "type": "event"
    },
    {
      "anonymous": false,
      "inputs": [
        {
          "indexed": true,
          "internalType": "address",
          "name": "operator",
          "type": "address"
        },
        {
          "indexed": true,
          "internalType": "address",
          "name": "from",
          "type": "address"
        },
        {
          "indexed": true,
          "internalType": "address",
          "name": "to",
          "type": "address"
        },
        {
          "indexed": false,
          "internalType": "uint256",
          "name": "id",
          "type": "uint256"
        },
        {
          "indexed": false,
          "internalType": "uint256",
          "name": "value",
          "type": "uint256"
        }
      ],
      "name": "TransferSingle",
      "type": "event"
    },
    {
      "anonymous": false,
      "inputs": [
        {
          "indexed": false,
          "internalType": "string",
          "name": "value",
          "type": "string"
        },
        {
          "indexed": true,
          "internalType": "uint256",
          "name": "id",
          "type": "uint256"
        }
      ],
      "name": "URI",
      "type": "event"
    },
    {
      "inputs": [
        {
          "internalType": "address",
          "name": "account",
          "type": "address"
        },
        {
          "internalType": "uint256",
          "name": "id",
          "type": "uint256"
        }
      ],
      "name": "balanceOf",
      "outputs": [
        {
          "internalType": "uint256",
          "name": "",
          "type": "uint256"
        }
      ],
      "stateMutability": "view",
      "type": "function",
      "constant": true
    },
    {
      "inputs": [
        {
          "internalType": "address[]",
          "name": "accounts",
          "type": "address[]"
        },
        {
          "internalType": "uint256[]",
          "name": "ids",
          "type": "uint256[]"
        }
      ],
      "name": "balanceOfBatch",
      "outputs": [
        {
          "internalType": "uint256[]",
          "name": "",
          "type": "uint256[]"
        }
      ],
      "stateMutability": "view",
      "type": "function",
      "constant": true
    },
    {
      "inputs": [
        {
          "internalType": "address",
          "name": "account",
          "type": "address"
        },
        {
          "internalType": "uint256",
          "name": "id",
          "type": "uint256"
        },
        {
          "internalType": "uint256",
          "name": "value",
          "type": "uint256"
        }
      ],
      "name": "burn",
      "outputs": [],
      "stateMutability": "nonpayable",
      "type": "function"
    },
    {
      "inputs": [
        {
          "internalType": "address",
          "name": "account",
          "type": "address"
        },
        {
          "internalType": "uint256[]",
          "name": "ids",
          "type": "uint256[]"
        },
        {
          "internalType": "uint256[]",
          "name": "values",
          "type": "uint256[]"
        }
      ],
      "name": "burnBatch",
      "outputs": [],
      "stateMutability": "nonpayable",
      "type": "function"
    },
    {
      "inputs": [
        {
          "internalType": "address",
          "name": "account",
          "type": "address"
        },
        {
          "internalType": "address",
          "name": "operator",
          "type": "address"
        }
      ],
      "name": "isApprovedForAll",
      "outputs": [
        {
          "internalType": "bool",
          "name": "",
          "type": "bool"
        }
      ],
      "stateMutability": "view",
      "type": "function",
      "constant": true
    },
    {
      "inputs": [],
      "name": "owner",
      "outputs": [
        {
          "internalType": "address",
          "name": "",
          "type": "address"
        }
      ],
      "stateMutability": "view",
      "type": "function",
      "constant": true
    },
    {
      "inputs": [],
      "name": "renounceOwnership",
      "outputs": [],
      "stateMutability": "nonpayable",
      "type": "function"
    },
    {
      "inputs": [
        {
          "internalType": "address",
          "name": "from",
          "type": "address"
        },
        {
          "internalType": "address",
          "name": "to",
          "type": "address"
        },
        {
          "internalType": "uint256[]",
          "name": "ids",
          "type": "uint256[]"
        },
        {
          "internalType": "uint256[]",
          "name": "amounts",
          "type": "uint256[]"
        },
        {
          "internalType": "bytes",
          "name": "data",
          "type": "bytes"
        }
      ],
      "name": "safeBatchTransferFrom",
      "outputs": [],
      "stateMutability": "nonpayable",
      "type": "function"
    },
    {
      "inputs": [
        {
          "internalType": "address",
          "name": "from",
          "type": "address"
        },
        {
          "internalType": "address",
          "name": "to",
          "type": "address"
        },
        {
          "internalType": "uint256",
          "name": "id",
          "type": "uint256"
        },
        {
          "internalType": "uint256",
          "name": "amount",
          "type": "uint256"
        },
        {
          "internalType": "bytes",
          "name": "data",
          "type": "bytes"
        }
      ],
      "name": "safeTransferFrom",
      "outputs": [],
      "stateMutability": "nonpayable",
      "type": "function"
    },
    {
      "inputs": [
        {
          "internalType": "address",
          "name": "operator",
          "type": "address"
        },
        {
          "internalType": "bool",
          "name": "approved",
          "type": "bool"
        }
      ],
      "name": "setApprovalForAll",
      "outputs": [],
      "stateMutability": "nonpayable",
      "type": "function"
    },
    {
      "inputs": [
        {
          "internalType": "bytes4",
          "name": "interfaceId",
          "type": "bytes4"
        }
      ],
      "name": "supportsInterface",
      "outputs": [
        {
          "internalType": "bool",
          "name": "",
          "type": "bool"
        }
      ],
      "stateMutability": "view",
      "type": "function",
      "constant": true
    },
    {
      "inputs": [
        {
          "internalType": "address",
          "name": "newOwner",
          "type": "address"
        }
      ],
      "name": "transferOwnership",
      "outputs": [],
      "stateMutability": "nonpayable",
      "type": "function"
    },
    {
      "inputs": [
        {
          "internalType": "uint256",
          "name": "tokenId",
          "type": "uint256"
        }
      ],
      "name": "uri",
      "outputs": [
        {
          "internalType": "string",
          "name": "",
          "type": "string"
        }
      ],
      "stateMutability": "view",
      "type": "function",
      "constant": true
    },
    {
      "inputs": [
        {
          "internalType": "uint256",
          "name": "tokenSupply",
          "type": "uint256"
        },
        {
          "internalType": "string",
          "name": "tokenURI",
          "type": "string"
        },
        {
          "internalType": "uint256",
          "name": "price",
          "type": "uint256"
        }
      ],
      "name": "registerProject",
      "outputs": [],
      "stateMutability": "nonpayable",
      "type": "function"
    },
    {
      "inputs": [
        {
          "internalType": "uint256",
          "name": "tokenId",
          "type": "uint256"
        }
      ],
      "name": "approveProject",
      "outputs": [],
      "stateMutability": "payable",
      "type": "function",
      "payable": true
    },
    {
      "inputs": [
        {
          "internalType": "uint256",
          "name": "tokenId",
          "type": "uint256"
        }
      ],
      "name": "declineProject",
      "outputs": [],
      "stateMutability": "nonpayable",
      "type": "function"
    }
  ],
  "bytecode": "0x608060405260405180602001604052806000815250600390805190602001906200002b92919062000257565b503480156200003957600080fd5b5060405162004b9f38038062004b9f83398181016040528101906200005f919062000371565b6040518060200160405280600081525062000080816200016d60201b60201c565b50620000a1620000956200018960201b60201c565b6200019160201b60201c565b82600660006101000a81548173ffffffffffffffffffffffffffffffffffffffff021916908373ffffffffffffffffffffffffffffffffffffffff16021790555081600860006101000a81548173ffffffffffffffffffffffffffffffffffffffff021916908373ffffffffffffffffffffffffffffffffffffffff16021790555080600760006101000a81548173ffffffffffffffffffffffffffffffffffffffff021916908373ffffffffffffffffffffffffffffffffffffffff16021790555050505062000431565b80600290805190602001906200018592919062000257565b5050565b600033905090565b6000600560009054906101000a900473ffffffffffffffffffffffffffffffffffffffff16905081600560006101000a81548173ffffffffffffffffffffffffffffffffffffffff021916908373ffffffffffffffffffffffffffffffffffffffff1602179055508173ffffffffffffffffffffffffffffffffffffffff168173ffffffffffffffffffffffffffffffffffffffff167f8be0079c531659141344cd1fd0a4f28419497f9722a3daafe3b4186f6b6457e060405160405180910390a35050565b8280546200026590620003fc565b90600052602060002090601f016020900481019282620002895760008555620002d5565b82601f10620002a457805160ff1916838001178555620002d5565b82800160010185558215620002d5579182015b82811115620002d4578251825591602001919060010190620002b7565b5b509050620002e49190620002e8565b5090565b5b8082111562000303576000816000905550600101620002e9565b5090565b600080fd5b600073ffffffffffffffffffffffffffffffffffffffff82169050919050565b600062000339826200030c565b9050919050565b6200034b816200032c565b81146200035757600080fd5b50565b6000815190506200036b8162000340565b92915050565b6000806000606084860312156200038d576200038c62000307565b5b60006200039d868287016200035a565b9350506020620003b0868287016200035a565b9250506040620003c3868287016200035a565b9150509250925092565b7f4e487b7100000000000000000000000000000000000000000000000000000000600052602260045260246000fd5b600060028204905060018216806200041557607f821691505b6020821081036200042b576200042a620003cd565b5b50919050565b61475e80620004416000396000f3fe6080604052600436106100f25760003560e01c8063a22cb4651161008a578063f2fde38b11610059578063f2fde38b14610337578063f3fdf55214610360578063f5298aca14610389578063fc69d836146103b2576100f2565b8063a22cb4651461027f578063c1288a8d146102a8578063e985e9c5146102d1578063f242432a1461030e576100f2565b80634e1273f4116100c65780634e1273f4146101d75780636b20c45414610214578063715018a61461023d5780638da5cb5b14610254576100f2565b8062fdd58e146100f757806301ffc9a7146101345780630e89341c146101715780632eb2c2d6146101ae575b600080fd5b34801561010357600080fd5b5061011e60048036038101906101199190612b20565b6103ce565b60405161012b9190612b6f565b60405180910390f35b34801561014057600080fd5b5061015b60048036038101906101569190612be2565b610496565b6040516101689190612c2a565b60405180910390f35b34801561017d57600080fd5b5061019860048036038101906101939190612c45565b610578565b6040516101a59190612d0b565b60405180910390f35b3480156101ba57600080fd5b506101d560048036038101906101d09190612f2a565b61058a565b005b3480156101e357600080fd5b506101fe60048036038101906101f991906130bc565b61062b565b60405161020b91906131f2565b60405180910390f35b34801561022057600080fd5b5061023b60048036038101906102369190613214565b610744565b005b34801561024957600080fd5b506102526107e1565b005b34801561026057600080fd5b506102696107f5565b60405161027691906132ae565b60405180910390f35b34801561028b57600080fd5b506102a660048036038101906102a191906132f5565b61081f565b005b3480156102b457600080fd5b506102cf60048036038101906102ca91906133d6565b610835565b005b3480156102dd57600080fd5b506102f860048036038101906102f39190613445565b610c46565b6040516103059190612c2a565b60405180910390f35b34801561031a57600080fd5b5061033560048036038101906103309190613485565b610cda565b005b34801561034357600080fd5b5061035e6004803603810190610359919061351c565b610d7b565b005b34801561036c57600080fd5b5061038760048036038101906103829190612c45565b610dfe565b005b34801561039557600080fd5b506103b060048036038101906103ab9190613549565b6110bc565b005b6103cc60048036038101906103c79190612c45565b611159565b005b60008073ffffffffffffffffffffffffffffffffffffffff168373ffffffffffffffffffffffffffffffffffffffff160361043e576040517f08c379a00000000000000000000000000000000000000000000000000000000081526004016104359061360e565b60405180910390fd5b60008083815260200190815260200160002060008473ffffffffffffffffffffffffffffffffffffffff1673ffffffffffffffffffffffffffffffffffffffff16815260200190815260200160002054905092915050565b60007fd9b67a26000000000000000000000000000000000000000000000000000000007bffffffffffffffffffffffffffffffffffffffffffffffffffffffff1916827bffffffffffffffffffffffffffffffffffffffffffffffffffffffff1916148061056157507f0e89341c000000000000000000000000000000000000000000000000000000007bffffffffffffffffffffffffffffffffffffffffffffffffffffffff1916827bffffffffffffffffffffffffffffffffffffffffffffffffffffffff1916145b806105715750610570826116b2565b5b9050919050565b60606105838261171c565b9050919050565b610592611801565b73ffffffffffffffffffffffffffffffffffffffff168573ffffffffffffffffffffffffffffffffffffffff1614806105d857506105d7856105d2611801565b610c46565b5b610617576040517f08c379a000000000000000000000000000000000000000000000000000000000815260040161060e906136a0565b60405180910390fd5b6106248585858585611809565b5050505050565b60608151835114610671576040517f08c379a000000000000000000000000000000000000000000000000000000000815260040161066890613732565b60405180910390fd5b6000835167ffffffffffffffff81111561068e5761068d612d32565b5b6040519080825280602002602001820160405280156106bc5781602001602082028036833780820191505090505b50905060005b8451811015610739576107098582815181106106e1576106e0613752565b5b60200260200101518583815181106106fc576106fb613752565b5b60200260200101516103ce565b82828151811061071c5761071b613752565b5b60200260200101818152505080610732906137b0565b90506106c2565b508091505092915050565b61074c611801565b73ffffffffffffffffffffffffffffffffffffffff168373ffffffffffffffffffffffffffffffffffffffff16148061079257506107918361078c611801565b610c46565b5b6107d1576040517f08c379a00000000000000000000000000000000000000000000000000000000081526004016107c8906136a0565b60405180910390fd5b6107dc838383611b2a565b505050565b6107e9611df8565b6107f36000611e76565b565b6000600560009054906101000a900473ffffffffffffffffffffffffffffffffffffffff16905090565b61083161082a611801565b8383611f3c565b5050565b600860009054906101000a900473ffffffffffffffffffffffffffffffffffffffff1673ffffffffffffffffffffffffffffffffffffffff16631f15ad1a336040518263ffffffff1660e01b815260040161089091906132ae565b602060405180830381865afa1580156108ad573d6000803e3d6000fd5b505050506040513d601f19601f820116820180604052508101906108d1919061380d565b831115610913576040517f08c379a000000000000000000000000000000000000000000000000000000000815260040161090a90613886565b60405180910390fd5b60008111610956576040517f08c379a000000000000000000000000000000000000000000000000000000000815260040161094d906138f2565b60405180910390fd5b6000600960008154610967906137b0565b9190508190559050600660009054906101000a900473ffffffffffffffffffffffffffffffffffffffff1673ffffffffffffffffffffffffffffffffffffffff1663b795a881823360008660006040518663ffffffff1660e01b81526004016109d4959493929190613989565b600060405180830381600087803b1580156109ee57600080fd5b505af1158015610a02573d6000803e3d6000fd5b50505050600660009054906101000a900473ffffffffffffffffffffffffffffffffffffffff1673ffffffffffffffffffffffffffffffffffffffff1663278d17ad82866040518363ffffffff1660e01b8152600401610a639291906139dc565b600060405180830381600087803b158015610a7d57600080fd5b505af1158015610a91573d6000803e3d6000fd5b50505050600660009054906101000a900473ffffffffffffffffffffffffffffffffffffffff1673ffffffffffffffffffffffffffffffffffffffff1663862440e282856040518363ffffffff1660e01b8152600401610af2929190613a05565b600060405180830381600087803b158015610b0c57600080fd5b505af1158015610b20573d6000803e3d6000fd5b50505050600660009054906101000a900473ffffffffffffffffffffffffffffffffffffffff1673ffffffffffffffffffffffffffffffffffffffff1663663680ee826040518263ffffffff1660e01b8152600401610b7f9190612b6f565b600060405180830381600087803b158015610b9957600080fd5b505af1158015610bad573d6000803e3d6000fd5b50505050600660009054906101000a900473ffffffffffffffffffffffffffffffffffffffff1673ffffffffffffffffffffffffffffffffffffffff16638988db3333836040518363ffffffff1660e01b8152600401610c0e929190613a35565b600060405180830381600087803b158015610c2857600080fd5b505af1158015610c3c573d6000803e3d6000fd5b5050505050505050565b6000600160008473ffffffffffffffffffffffffffffffffffffffff1673ffffffffffffffffffffffffffffffffffffffff16815260200190815260200160002060008373ffffffffffffffffffffffffffffffffffffffff1673ffffffffffffffffffffffffffffffffffffffff16815260200190815260200160002060009054906101000a900460ff16905092915050565b610ce2611801565b73ffffffffffffffffffffffffffffffffffffffff168573ffffffffffffffffffffffffffffffffffffffff161480610d285750610d2785610d22611801565b610c46565b5b610d67576040517f08c379a0000000000000000000000000000000000000000000000000000000008152600401610d5e906136a0565b60405180910390fd5b610d7485858585856120a8565b5050505050565b610d83611df8565b600073ffffffffffffffffffffffffffffffffffffffff168173ffffffffffffffffffffffffffffffffffffffff1603610df2576040517f08c379a0000000000000000000000000000000000000000000000000000000008152600401610de990613ad0565b60405180910390fd5b610dfb81611e76565b50565b600860009054906101000a900473ffffffffffffffffffffffffffffffffffffffff1673ffffffffffffffffffffffffffffffffffffffff166349b90557336040518263ffffffff1660e01b8152600401610e5991906132ae565b602060405180830381865afa158015610e76573d6000803e3d6000fd5b505050506040513d601f19601f82011682018060405250810190610e9a9190613b05565b610ed9576040517f08c379a0000000000000000000000000000000000000000000000000000000008152600401610ed090613b7e565b60405180910390fd5b6000600660009054906101000a900473ffffffffffffffffffffffffffffffffffffffff1673ffffffffffffffffffffffffffffffffffffffff1663f392243b836040518263ffffffff1660e01b8152600401610f369190612b6f565b60a060405180830381865afa158015610f53573d6000803e3d6000fd5b505050506040513d601f19601f82011682018060405250810190610f779190613c69565b905060006002811115610f8d57610f8c613912565b5b81604001516002811115610fa457610fa3613912565b5b14610fe4576040517f08c379a0000000000000000000000000000000000000000000000000000000008152600401610fdb90613ce2565b60405180910390fd5b600660009054906101000a900473ffffffffffffffffffffffffffffffffffffffff1673ffffffffffffffffffffffffffffffffffffffff16633a1b3d318360026040518363ffffffff1660e01b8152600401611042929190613d02565b600060405180830381600087803b15801561105c57600080fd5b505af1158015611070573d6000803e3d6000fd5b505050507fff92bfbf152c989285c438364b2cf43f2cff458b1bbc5dc4d0999a7d90a26da7823383602001516002426040516110b0959493929190613d2b565b60405180910390a15050565b6110c4611801565b73ffffffffffffffffffffffffffffffffffffffff168373ffffffffffffffffffffffffffffffffffffffff16148061110a575061110983611104611801565b610c46565b5b611149576040517f08c379a0000000000000000000000000000000000000000000000000000000008152600401611140906136a0565b60405180910390fd5b611154838383612343565b505050565b600860009054906101000a900473ffffffffffffffffffffffffffffffffffffffff1673ffffffffffffffffffffffffffffffffffffffff166349b90557336040518263ffffffff1660e01b81526004016111b491906132ae565b602060405180830381865afa1580156111d1573d6000803e3d6000fd5b505050506040513d601f19601f820116820180604052508101906111f59190613b05565b611234576040517f08c379a000000000000000000000000000000000000000000000000000000000815260040161122b90613b7e565b60405180910390fd5b6000600660009054906101000a900473ffffffffffffffffffffffffffffffffffffffff1673ffffffffffffffffffffffffffffffffffffffff1663f392243b836040518263ffffffff1660e01b81526004016112919190612b6f565b60a060405180830381865afa1580156112ae573d6000803e3d6000fd5b505050506040513d601f19601f820116820180604052508101906112d29190613c69565b9050600060028111156112e8576112e7613912565b5b816040015160028111156112ff576112fe613912565b5b1461133f576040517f08c379a000000000000000000000000000000000000000000000000000000000815260040161133690613ce2565b60405180910390fd5b600660009054906101000a900473ffffffffffffffffffffffffffffffffffffffff1673ffffffffffffffffffffffffffffffffffffffff16633a1b3d318360016040518363ffffffff1660e01b815260040161139d929190613d02565b600060405180830381600087803b1580156113b757600080fd5b505af11580156113cb573d6000803e3d6000fd5b50505050600660009054906101000a900473ffffffffffffffffffffffffffffffffffffffff1673ffffffffffffffffffffffffffffffffffffffff1663731133e9826020015184600660009054906101000a900473ffffffffffffffffffffffffffffffffffffffff1673ffffffffffffffffffffffffffffffffffffffff166319b88edb876040518263ffffffff1660e01b815260040161146e9190612b6f565b602060405180830381865afa15801561148b573d6000803e3d6000fd5b505050506040513d601f19601f820116820180604052508101906114af919061380d565b6040518463ffffffff1660e01b81526004016114cd93929190613db5565b600060405180830381600087803b1580156114e757600080fd5b505af11580156114fb573d6000803e3d6000fd5b505050507f04cff4dde52bf3a5f12d8ffa90e89ced1e9f650edd188cf8575d16c6bd3b049b8233600660009054906101000a900473ffffffffffffffffffffffffffffffffffffffff1673ffffffffffffffffffffffffffffffffffffffff166319b88edb866040518263ffffffff1660e01b815260040161157d9190612b6f565b602060405180830381865afa15801561159a573d6000803e3d6000fd5b505050506040513d601f19601f820116820180604052508101906115be919061380d565b426040516115cf9493929190613dff565b60405180910390a17fff92bfbf152c989285c438364b2cf43f2cff458b1bbc5dc4d0999a7d90a26da782338360200151600142604051611613959493929190613d2b565b60405180910390a1600760009054906101000a900473ffffffffffffffffffffffffffffffffffffffff1673ffffffffffffffffffffffffffffffffffffffff166319adf6ad8383606001516040518363ffffffff1660e01b815260040161167c9291906139dc565b600060405180830381600087803b15801561169657600080fd5b505af11580156116aa573d6000803e3d6000fd5b505050505050565b60007f01ffc9a7000000000000000000000000000000000000000000000000000000007bffffffffffffffffffffffffffffffffffffffffffffffffffffffff1916827bffffffffffffffffffffffffffffffffffffffffffffffffffffffff1916149050919050565b6060600060046000848152602001908152602001600020805461173e90613e73565b80601f016020809104026020016040519081016040528092919081815260200182805461176a90613e73565b80156117b75780601f1061178c576101008083540402835291602001916117b7565b820191906000526020600020905b81548152906001019060200180831161179a57829003601f168201915b5050505050905060008151116117d5576117d083612589565b6117f9565b6003816040516020016117e9929190613f74565b6040516020818303038152906040525b915050919050565b600033905090565b815183511461184d576040517f08c379a00000000000000000000000000000000000000000000000000000000081526004016118449061400a565b60405180910390fd5b600073ffffffffffffffffffffffffffffffffffffffff168473ffffffffffffffffffffffffffffffffffffffff16036118bc576040517f08c379a00000000000000000000000000000000000000000000000000000000081526004016118b39061409c565b60405180910390fd5b60006118c6611801565b90506118d681878787878761261d565b60005b8451811015611a875760008582815181106118f7576118f6613752565b5b60200260200101519050600085838151811061191657611915613752565b5b60200260200101519050600080600084815260200190815260200160002060008b73ffffffffffffffffffffffffffffffffffffffff1673ffffffffffffffffffffffffffffffffffffffff168152602001908152602001600020549050818110156119b7576040517f08c379a00000000000000000000000000000000000000000000000000000000081526004016119ae9061412e565b60405180910390fd5b81810360008085815260200190815260200160002060008c73ffffffffffffffffffffffffffffffffffffffff1673ffffffffffffffffffffffffffffffffffffffff168152602001908152602001600020819055508160008085815260200190815260200160002060008b73ffffffffffffffffffffffffffffffffffffffff1673ffffffffffffffffffffffffffffffffffffffff1681526020019081526020016000206000828254611a6c919061414e565b9250508190555050505080611a80906137b0565b90506118d9565b508473ffffffffffffffffffffffffffffffffffffffff168673ffffffffffffffffffffffffffffffffffffffff168273ffffffffffffffffffffffffffffffffffffffff167f4a39dc06d4c0dbc64b70af90fd698a233a518aa5d07e595d983b8c0526c8f7fb8787604051611afe9291906141a4565b60405180910390a4611b14818787878787612625565b611b2281878787878761262d565b505050505050565b600073ffffffffffffffffffffffffffffffffffffffff168373ffffffffffffffffffffffffffffffffffffffff1603611b99576040517f08c379a0000000000000000000000000000000000000000000000000000000008152600401611b909061424d565b60405180910390fd5b8051825114611bdd576040517f08c379a0000000000000000000000000000000000000000000000000000000008152600401611bd49061400a565b60405180910390fd5b6000611be7611801565b9050611c078185600086866040518060200160405280600081525061261d565b60005b8351811015611d54576000848281518110611c2857611c27613752565b5b602002602001015190506000848381518110611c4757611c46613752565b5b60200260200101519050600080600084815260200190815260200160002060008973ffffffffffffffffffffffffffffffffffffffff1673ffffffffffffffffffffffffffffffffffffffff16815260200190815260200160002054905081811015611ce8576040517f08c379a0000000000000000000000000000000000000000000000000000000008152600401611cdf906142df565b60405180910390fd5b81810360008085815260200190815260200160002060008a73ffffffffffffffffffffffffffffffffffffffff1673ffffffffffffffffffffffffffffffffffffffff168152602001908152602001600020819055505050508080611d4c906137b0565b915050611c0a565b50600073ffffffffffffffffffffffffffffffffffffffff168473ffffffffffffffffffffffffffffffffffffffff168273ffffffffffffffffffffffffffffffffffffffff167f4a39dc06d4c0dbc64b70af90fd698a233a518aa5d07e595d983b8c0526c8f7fb8686604051611dcc9291906141a4565b60405180910390a4611df281856000868660405180602001604052806000815250612625565b50505050565b611e00611801565b73ffffffffffffffffffffffffffffffffffffffff16611e1e6107f5565b73ffffffffffffffffffffffffffffffffffffffff1614611e74576040517f08c379a0000000000000000000000000000000000000000000000000000000008152600401611e6b9061434b565b60405180910390fd5b565b6000600560009054906101000a900473ffffffffffffffffffffffffffffffffffffffff16905081600560006101000a81548173ffffffffffffffffffffffffffffffffffffffff021916908373ffffffffffffffffffffffffffffffffffffffff1602179055508173ffffffffffffffffffffffffffffffffffffffff168173ffffffffffffffffffffffffffffffffffffffff167f8be0079c531659141344cd1fd0a4f28419497f9722a3daafe3b4186f6b6457e060405160405180910390a35050565b8173ffffffffffffffffffffffffffffffffffffffff168373ffffffffffffffffffffffffffffffffffffffff1603611faa576040517f08c379a0000000000000000000000000000000000000000000000000000000008152600401611fa1906143dd565b60405180910390fd5b80600160008573ffffffffffffffffffffffffffffffffffffffff1673ffffffffffffffffffffffffffffffffffffffff16815260200190815260200160002060008473ffffffffffffffffffffffffffffffffffffffff1673ffffffffffffffffffffffffffffffffffffffff16815260200190815260200160002060006101000a81548160ff0219169083151502179055508173ffffffffffffffffffffffffffffffffffffffff168373ffffffffffffffffffffffffffffffffffffffff167f17307eab39ab6107e8899845ad3d59bd9653f200f220920489ca2b5937696c318360405161209b9190612c2a565b60405180910390a3505050565b600073ffffffffffffffffffffffffffffffffffffffff168473ffffffffffffffffffffffffffffffffffffffff1603612117576040517f08c379a000000000000000000000000000000000000000000000000000000000815260040161210e9061409c565b60405180910390fd5b6000612121611801565b9050600061212e85612804565b9050600061213b85612804565b905061214b83898985858961261d565b600080600088815260200190815260200160002060008a73ffffffffffffffffffffffffffffffffffffffff1673ffffffffffffffffffffffffffffffffffffffff168152602001908152602001600020549050858110156121e2576040517f08c379a00000000000000000000000000000000000000000000000000000000081526004016121d99061412e565b60405180910390fd5b85810360008089815260200190815260200160002060008b73ffffffffffffffffffffffffffffffffffffffff1673ffffffffffffffffffffffffffffffffffffffff168152602001908152602001600020819055508560008089815260200190815260200160002060008a73ffffffffffffffffffffffffffffffffffffffff1673ffffffffffffffffffffffffffffffffffffffff1681526020019081526020016000206000828254612297919061414e565b925050819055508773ffffffffffffffffffffffffffffffffffffffff168973ffffffffffffffffffffffffffffffffffffffff168573ffffffffffffffffffffffffffffffffffffffff167fc3d58168c5ae7397731d063d5bbf3d657854427343f4c083240f7aacaa2d0f628a8a6040516123149291906139dc565b60405180910390a461232a848a8a86868a612625565b612338848a8a8a8a8a61287e565b505050505050505050565b600073ffffffffffffffffffffffffffffffffffffffff168373ffffffffffffffffffffffffffffffffffffffff16036123b2576040517f08c379a00000000000000000000000000000000000000000000000000000000081526004016123a99061424d565b60405180910390fd5b60006123bc611801565b905060006123c984612804565b905060006123d684612804565b90506123f68387600085856040518060200160405280600081525061261d565b600080600087815260200190815260200160002060008873ffffffffffffffffffffffffffffffffffffffff1673ffffffffffffffffffffffffffffffffffffffff1681526020019081526020016000205490508481101561248d576040517f08c379a0000000000000000000000000000000000000000000000000000000008152600401612484906142df565b60405180910390fd5b84810360008088815260200190815260200160002060008973ffffffffffffffffffffffffffffffffffffffff1673ffffffffffffffffffffffffffffffffffffffff16815260200190815260200160002081905550600073ffffffffffffffffffffffffffffffffffffffff168773ffffffffffffffffffffffffffffffffffffffff168573ffffffffffffffffffffffffffffffffffffffff167fc3d58168c5ae7397731d063d5bbf3d657854427343f4c083240f7aacaa2d0f62898960405161255a9291906139dc565b60405180910390a461258084886000868660405180602001604052806000815250612625565b50505050505050565b60606002805461259890613e73565b80601f01602080910402602001604051908101604052809291908181526020018280546125c490613e73565b80156126115780601f106125e657610100808354040283529160200191612611565b820191906000526020600020905b8154815290600101906020018083116125f457829003601f168201915b50505050509050919050565b505050505050565b505050505050565b61264c8473ffffffffffffffffffffffffffffffffffffffff16612a55565b156127fc578373ffffffffffffffffffffffffffffffffffffffff1663bc197c8187878686866040518663ffffffff1660e01b8152600401612692959493929190614441565b6020604051808303816000875af19250505080156126ce57506040513d601f19601f820116820180604052508101906126cb91906144be565b60015b612773576126da6144f8565b806308c379a00361273657506126ee61451a565b806126f95750612738565b806040517f08c379a000000000000000000000000000000000000000000000000000000000815260040161272d9190612d0b565b60405180910390fd5b505b6040517f08c379a000000000000000000000000000000000000000000000000000000000815260040161276a9061461c565b60405180910390fd5b63bc197c8160e01b7bffffffffffffffffffffffffffffffffffffffffffffffffffffffff1916817bffffffffffffffffffffffffffffffffffffffffffffffffffffffff1916146127fa576040517f08c379a00000000000000000000000000000000000000000000000000000000081526004016127f1906146ae565b60405180910390fd5b505b505050505050565b60606000600167ffffffffffffffff81111561282357612822612d32565b5b6040519080825280602002602001820160405280156128515781602001602082028036833780820191505090505b509050828160008151811061286957612868613752565b5b60200260200101818152505080915050919050565b61289d8473ffffffffffffffffffffffffffffffffffffffff16612a55565b15612a4d578373ffffffffffffffffffffffffffffffffffffffff1663f23a6e6187878686866040518663ffffffff1660e01b81526004016128e39594939291906146ce565b6020604051808303816000875af192505050801561291f57506040513d601f19601f8201168201806040525081019061291c91906144be565b60015b6129c45761292b6144f8565b806308c379a003612987575061293f61451a565b8061294a5750612989565b806040517f08c379a000000000000000000000000000000000000000000000000000000000815260040161297e9190612d0b565b60405180910390fd5b505b6040517f08c379a00000000000000000000000000000000000000000000000000000000081526004016129bb9061461c565b60405180910390fd5b63f23a6e6160e01b7bffffffffffffffffffffffffffffffffffffffffffffffffffffffff1916817bffffffffffffffffffffffffffffffffffffffffffffffffffffffff191614612a4b576040517f08c379a0000000000000000000000000000000000000000000000000000000008152600401612a42906146ae565b60405180910390fd5b505b505050505050565b6000808273ffffffffffffffffffffffffffffffffffffffff163b119050919050565b6000604051905090565b600080fd5b600080fd5b600073ffffffffffffffffffffffffffffffffffffffff82169050919050565b6000612ab782612a8c565b9050919050565b612ac781612aac565b8114612ad257600080fd5b50565b600081359050612ae481612abe565b92915050565b6000819050919050565b612afd81612aea565b8114612b0857600080fd5b50565b600081359050612b1a81612af4565b92915050565b60008060408385031215612b3757612b36612a82565b5b6000612b4585828601612ad5565b9250506020612b5685828601612b0b565b9150509250929050565b612b6981612aea565b82525050565b6000602082019050612b846000830184612b60565b92915050565b60007fffffffff0000000000000000000000000000000000000000000000000000000082169050919050565b612bbf81612b8a565b8114612bca57600080fd5b50565b600081359050612bdc81612bb6565b92915050565b600060208284031215612bf857612bf7612a82565b5b6000612c0684828501612bcd565b91505092915050565b60008115159050919050565b612c2481612c0f565b82525050565b6000602082019050612c3f6000830184612c1b565b92915050565b600060208284031215612c5b57612c5a612a82565b5b6000612c6984828501612b0b565b91505092915050565b600081519050919050565b600082825260208201905092915050565b60005b83811015612cac578082015181840152602081019050612c91565b83811115612cbb576000848401525b50505050565b6000601f19601f8301169050919050565b6000612cdd82612c72565b612ce78185612c7d565b9350612cf7818560208601612c8e565b612d0081612cc1565b840191505092915050565b60006020820190508181036000830152612d258184612cd2565b905092915050565b600080fd5b7f4e487b7100000000000000000000000000000000000000000000000000000000600052604160045260246000fd5b612d6a82612cc1565b810181811067ffffffffffffffff82111715612d8957612d88612d32565b5b80604052505050565b6000612d9c612a78565b9050612da88282612d61565b919050565b600067ffffffffffffffff821115612dc857612dc7612d32565b5b602082029050602081019050919050565b600080fd5b6000612df1612dec84612dad565b612d92565b90508083825260208201905060208402830185811115612e1457612e13612dd9565b5b835b81811015612e3d5780612e298882612b0b565b845260208401935050602081019050612e16565b5050509392505050565b600082601f830112612e5c57612e5b612d2d565b5b8135612e6c848260208601612dde565b91505092915050565b600080fd5b600067ffffffffffffffff821115612e9557612e94612d32565b5b612e9e82612cc1565b9050602081019050919050565b82818337600083830152505050565b6000612ecd612ec884612e7a565b612d92565b905082815260208101848484011115612ee957612ee8612e75565b5b612ef4848285612eab565b509392505050565b600082601f830112612f1157612f10612d2d565b5b8135612f21848260208601612eba565b91505092915050565b600080600080600060a08688031215612f4657612f45612a82565b5b6000612f5488828901612ad5565b9550506020612f6588828901612ad5565b945050604086013567ffffffffffffffff811115612f8657612f85612a87565b5b612f9288828901612e47565b935050606086013567ffffffffffffffff811115612fb357612fb2612a87565b5b612fbf88828901612e47565b925050608086013567ffffffffffffffff811115612fe057612fdf612a87565b5b612fec88828901612efc565b9150509295509295909350565b600067ffffffffffffffff82111561301457613013612d32565b5b602082029050602081019050919050565b600061303861303384612ff9565b612d92565b9050808382526020820190506020840283018581111561305b5761305a612dd9565b5b835b8181101561308457806130708882612ad5565b84526020840193505060208101905061305d565b5050509392505050565b600082601f8301126130a3576130a2612d2d565b5b81356130b3848260208601613025565b91505092915050565b600080604083850312156130d3576130d2612a82565b5b600083013567ffffffffffffffff8111156130f1576130f0612a87565b5b6130fd8582860161308e565b925050602083013567ffffffffffffffff81111561311e5761311d612a87565b5b61312a85828601612e47565b9150509250929050565b600081519050919050565b600082825260208201905092915050565b6000819050602082019050919050565b61316981612aea565b82525050565b600061317b8383613160565b60208301905092915050565b6000602082019050919050565b600061319f82613134565b6131a9818561313f565b93506131b483613150565b8060005b838110156131e55781516131cc888261316f565b97506131d783613187565b9250506001810190506131b8565b5085935050505092915050565b6000602082019050818103600083015261320c8184613194565b905092915050565b60008060006060848603121561322d5761322c612a82565b5b600061323b86828701612ad5565b935050602084013567ffffffffffffffff81111561325c5761325b612a87565b5b61326886828701612e47565b925050604084013567ffffffffffffffff81111561328957613288612a87565b5b61329586828701612e47565b9150509250925092565b6132a881612aac565b82525050565b60006020820190506132c3600083018461329f565b92915050565b6132d281612c0f565b81146132dd57600080fd5b50565b6000813590506132ef816132c9565b92915050565b6000806040838503121561330c5761330b612a82565b5b600061331a85828601612ad5565b925050602061332b858286016132e0565b9150509250929050565b600067ffffffffffffffff8211156133505761334f612d32565b5b61335982612cc1565b9050602081019050919050565b600061337961337484613335565b612d92565b90508281526020810184848401111561339557613394612e75565b5b6133a0848285612eab565b509392505050565b600082601f8301126133bd576133bc612d2d565b5b81356133cd848260208601613366565b91505092915050565b6000806000606084860312156133ef576133ee612a82565b5b60006133fd86828701612b0b565b935050602084013567ffffffffffffffff81111561341e5761341d612a87565b5b61342a868287016133a8565b925050604061343b86828701612b0b565b9150509250925092565b6000806040838503121561345c5761345b612a82565b5b600061346a85828601612ad5565b925050602061347b85828601612ad5565b9150509250929050565b600080600080600060a086880312156134a1576134a0612a82565b5b60006134af88828901612ad5565b95505060206134c088828901612ad5565b94505060406134d188828901612b0b565b93505060606134e288828901612b0b565b925050608086013567ffffffffffffffff81111561350357613502612a87565b5b61350f88828901612efc565b9150509295509295909350565b60006020828403121561353257613531612a82565b5b600061354084828501612ad5565b91505092915050565b60008060006060848603121561356257613561612a82565b5b600061357086828701612ad5565b935050602061358186828701612b0b565b925050604061359286828701612b0b565b9150509250925092565b7f455243313135353a2061646472657373207a65726f206973206e6f742061207660008201527f616c6964206f776e657200000000000000000000000000000000000000000000602082015250565b60006135f8602a83612c7d565b91506136038261359c565b604082019050919050565b60006020820190508181036000830152613627816135eb565b9050919050565b7f455243313135353a2063616c6c6572206973206e6f7420746f6b656e206f776e60008201527f6572206f7220617070726f766564000000000000000000000000000000000000602082015250565b600061368a602e83612c7d565b91506136958261362e565b604082019050919050565b600060208201905081810360008301526136b98161367d565b9050919050565b7f455243313135353a206163636f756e747320616e6420696473206c656e67746860008201527f206d69736d617463680000000000000000000000000000000000000000000000602082015250565b600061371c602983612c7d565b9150613727826136c0565b604082019050919050565b6000602082019050818103600083015261374b8161370f565b9050919050565b7f4e487b7100000000000000000000000000000000000000000000000000000000600052603260045260246000fd5b7f4e487b7100000000000000000000000000000000000000000000000000000000600052601160045260246000fd5b60006137bb82612aea565b91507fffffffffffffffffffffffffffffffffffffffffffffffffffffffffffffffff82036137ed576137ec613781565b5b600182019050919050565b60008151905061380781612af4565b92915050565b60006020828403121561382357613822612a82565b5b6000613831848285016137f8565b91505092915050565b7f546f6b656e20737570706c7920696e76616c6964000000000000000000000000600082015250565b6000613870601483612c7d565b915061387b8261383a565b602082019050919050565b6000602082019050818103600083015261389f81613863565b9050919050565b7f496e76616c696420707269636500000000000000000000000000000000000000600082015250565b60006138dc600d83612c7d565b91506138e7826138a6565b602082019050919050565b6000602082019050818103600083015261390b816138cf565b9050919050565b7f4e487b7100000000000000000000000000000000000000000000000000000000600052602160045260246000fd5b6003811061395257613951613912565b5b50565b600081905061396382613941565b919050565b600061397382613955565b9050919050565b61398381613968565b82525050565b600060a08201905061399e6000830188612b60565b6139ab602083018761329f565b6139b8604083018661397a565b6139c56060830185612b60565b6139d26080830184612c1b565b9695505050505050565b60006040820190506139f16000830185612b60565b6139fe6020830184612b60565b9392505050565b6000604082019050613a1a6000830185612b60565b8181036020830152613a2c8184612cd2565b90509392505050565b6000604082019050613a4a600083018561329f565b613a576020830184612b60565b9392505050565b7f4f776e61626c653a206e6577206f776e657220697320746865207a65726f206160008201527f6464726573730000000000000000000000000000000000000000000000000000602082015250565b6000613aba602683612c7d565b9150613ac582613a5e565b604082019050919050565b60006020820190508181036000830152613ae981613aad565b9050919050565b600081519050613aff816132c9565b92915050565b600060208284031215613b1b57613b1a612a82565b5b6000613b2984828501613af0565b91505092915050565b7f496e76616c69642061756469746f720000000000000000000000000000000000600082015250565b6000613b68600f83612c7d565b9150613b7382613b32565b602082019050919050565b60006020820190508181036000830152613b9781613b5b565b9050919050565b600080fd5b600081519050613bb281612abe565b92915050565b60038110613bc557600080fd5b50565b600081519050613bd781613bb8565b92915050565b600060a08284031215613bf357613bf2613b9e565b5b613bfd60a0612d92565b90506000613c0d848285016137f8565b6000830152506020613c2184828501613ba3565b6020830152506040613c3584828501613bc8565b6040830152506060613c49848285016137f8565b6060830152506080613c5d84828501613af0565b60808301525092915050565b600060a08284031215613c7f57613c7e612a82565b5b6000613c8d84828501613bdd565b91505092915050565b7f496e76616c696420737461747573000000000000000000000000000000000000600082015250565b6000613ccc600e83612c7d565b9150613cd782613c96565b602082019050919050565b60006020820190508181036000830152613cfb81613cbf565b9050919050565b6000604082019050613d176000830185612b60565b613d24602083018461397a565b9392505050565b600060a082019050613d406000830188612b60565b613d4d602083018761329f565b613d5a604083018661329f565b613d67606083018561397a565b613d746080830184612b60565b9695505050505050565b600082825260208201905092915050565b50565b6000613d9f600083613d7e565b9150613daa82613d8f565b600082019050919050565b6000608082019050613dca600083018661329f565b613dd76020830185612b60565b613de46040830184612b60565b8181036060830152613df581613d92565b9050949350505050565b6000608082019050613e146000830187612b60565b613e21602083018661329f565b613e2e6040830185612b60565b613e3b6060830184612b60565b95945050505050565b7f4e487b7100000000000000000000000000000000000000000000000000000000600052602260045260246000fd5b60006002820490506001821680613e8b57607f821691505b602082108103613e9e57613e9d613e44565b5b50919050565b600081905092915050565b60008190508160005260206000209050919050565b60008154613ed181613e73565b613edb8186613ea4565b94506001821660008114613ef65760018114613f0757613f3a565b60ff19831686528186019350613f3a565b613f1085613eaf565b60005b83811015613f3257815481890152600182019150602081019050613f13565b838801955050505b50505092915050565b6000613f4e82612c72565b613f588185613ea4565b9350613f68818560208601612c8e565b80840191505092915050565b6000613f808285613ec4565b9150613f8c8284613f43565b91508190509392505050565b7f455243313135353a2069647320616e6420616d6f756e7473206c656e6774682060008201527f6d69736d61746368000000000000000000000000000000000000000000000000602082015250565b6000613ff4602883612c7d565b9150613fff82613f98565b604082019050919050565b6000602082019050818103600083015261402381613fe7565b9050919050565b7f455243313135353a207472616e7366657220746f20746865207a65726f20616460008201527f6472657373000000000000000000000000000000000000000000000000000000602082015250565b6000614086602583612c7d565b91506140918261402a565b604082019050919050565b600060208201905081810360008301526140b581614079565b9050919050565b7f455243313135353a20696e73756666696369656e742062616c616e636520666f60008201527f72207472616e7366657200000000000000000000000000000000000000000000602082015250565b6000614118602a83612c7d565b9150614123826140bc565b604082019050919050565b600060208201905081810360008301526141478161410b565b9050919050565b600061415982612aea565b915061416483612aea565b9250827fffffffffffffffffffffffffffffffffffffffffffffffffffffffffffffffff0382111561419957614198613781565b5b828201905092915050565b600060408201905081810360008301526141be8185613194565b905081810360208301526141d28184613194565b90509392505050565b7f455243313135353a206275726e2066726f6d20746865207a65726f206164647260008201527f6573730000000000000000000000000000000000000000000000000000000000602082015250565b6000614237602383612c7d565b9150614242826141db565b604082019050919050565b600060208201905081810360008301526142668161422a565b9050919050565b7f455243313135353a206275726e20616d6f756e7420657863656564732062616c60008201527f616e636500000000000000000000000000000000000000000000000000000000602082015250565b60006142c9602483612c7d565b91506142d48261426d565b604082019050919050565b600060208201905081810360008301526142f8816142bc565b9050919050565b7f4f776e61626c653a2063616c6c6572206973206e6f7420746865206f776e6572600082015250565b6000614335602083612c7d565b9150614340826142ff565b602082019050919050565b6000602082019050818103600083015261436481614328565b9050919050565b7f455243313135353a2073657474696e6720617070726f76616c2073746174757360008201527f20666f722073656c660000000000000000000000000000000000000000000000602082015250565b60006143c7602983612c7d565b91506143d28261436b565b604082019050919050565b600060208201905081810360008301526143f6816143ba565b9050919050565b600081519050919050565b6000614413826143fd565b61441d8185613d7e565b935061442d818560208601612c8e565b61443681612cc1565b840191505092915050565b600060a082019050614456600083018861329f565b614463602083018761329f565b81810360408301526144758186613194565b905081810360608301526144898185613194565b9050818103608083015261449d8184614408565b90509695505050505050565b6000815190506144b881612bb6565b92915050565b6000602082840312156144d4576144d3612a82565b5b60006144e2848285016144a9565b91505092915050565b60008160e01c9050919050565b600060033d11156145175760046000803e6145146000516144eb565b90505b90565b600060443d106145a75761452c612a78565b60043d036004823e80513d602482011167ffffffffffffffff821117156145545750506145a7565b808201805167ffffffffffffffff81111561457257505050506145a7565b80602083010160043d03850181111561458f5750505050506145a7565b61459e82602001850186612d61565b82955050505050505b90565b7f455243313135353a207472616e7366657220746f206e6f6e2d4552433131353560008201527f526563656976657220696d706c656d656e746572000000000000000000000000602082015250565b6000614606603483612c7d565b9150614611826145aa565b604082019050919050565b60006020820190508181036000830152614635816145f9565b9050919050565b7f455243313135353a204552433131353552656365697665722072656a6563746560008201527f6420746f6b656e73000000000000000000000000000000000000000000000000602082015250565b6000614698602883612c7d565b91506146a38261463c565b604082019050919050565b600060208201905081810360008301526146c78161468b565b9050919050565b600060a0820190506146e3600083018861329f565b6146f0602083018761329f565b6146fd6040830186612b60565b61470a6060830185612b60565b818103608083015261471c8184614408565b9050969550505050505056fea26469706673582212202fbe0135f5fe46d0455f11996315c36ebc23214cc77fe4420a8e653fb74f730164736f6c634300080d0033",
  "immutableReferences": {},
  "source": "// SPDX-License-Identifier: MIT\npragma solidity ^0.8.13;\n\nimport \"./CarbonToken.sol\";\nimport \"./CarbonMarket.sol\";\nimport \"./CarbonBase.sol\";\nimport \"./AccountManagement.sol\";\nimport \"@openzeppelin/contracts/access/Ownable.sol\";\n\ncontract ProjectManagement is Ownable, CarbonBase {\n    CarbonToken private _token;\n    CarbonMarket private _market;\n    AccountManagement private _account;\n    uint256 private _tokenIds;\n\n    constructor(\n        address _tokenAddress,\n        address _accountAddress,\n        address _marketAddress\n    ) {\n        _token = CarbonToken(_tokenAddress);\n        _account = AccountManagement(_accountAddress);\n        _market = CarbonMarket(_marketAddress);\n    }\n\n    modifier onlyAuditor() {\n        require(_account.isAuditor(msg.sender), \"Invalid auditor\");\n        _;\n    }\n\n    function registerProject(\n        uint256 tokenSupply,\n        string memory tokenURI,\n        uint256 price\n    ) public {\n        require(\n            tokenSupply <= _account.getAccountTotalCredits(msg.sender),\n            \"Token supply invalid\"\n        );\n        require(price > 0, \"Invalid price\");\n        uint256 currentId = ++_tokenIds; // tokenID starts from 1\n        _token.setCarbonCredit(\n            currentId,\n            msg.sender,\n            ApprovalStatus.Pending,\n            price,\n            false\n        );\n        _token.setTokenSupply(currentId, tokenSupply);\n        _token.setURI(currentId, tokenURI);\n        _token.getAddTokenToAllTokensEnumeration(currentId);\n        _token.addTokenToOwnerEnumeration(msg.sender, currentId);\n    }\n\n    function approveProject(uint256 tokenId) public payable onlyAuditor {\n        CarbonCredit memory credit = _token.getCarbonCredit(tokenId);\n\n        require(credit.status == ApprovalStatus.Pending, \"Invalid status\");\n\n        _token.updateStatus(tokenId, ApprovalStatus.Approved);\n        _token.mint(\n            credit.initialOwner,\n            tokenId,\n            _token.getTokenSupply(tokenId),\n            \"\"\n        );\n\n        emit CarbonCreditCreated(\n            tokenId,\n            msg.sender,\n            _token.getTokenSupply(tokenId),\n            block.timestamp\n        );\n        emit CarbonCreditAudited(\n            tokenId,\n            msg.sender,\n            credit.initialOwner,\n            ApprovalStatus.Approved,\n            block.timestamp\n        );\n\n        _market.listCreditsForSale(tokenId, credit.pricePerCredit);\n    }\n\n    function declineProject(uint256 tokenId) public onlyAuditor {\n        CarbonCredit memory credit = _token.getCarbonCredit(tokenId);\n\n        require(credit.status == ApprovalStatus.Pending, \"Invalid status\");\n        _token.updateStatus(tokenId, ApprovalStatus.Declined);\n        emit CarbonCreditAudited(\n            tokenId,\n            msg.sender,\n            credit.initialOwner,\n            ApprovalStatus.Declined,\n            block.timestamp\n        );\n    }\n}\n",
  "sourcePath": "/Users/buudinhha/Vscode/DATN/main/contracts/ProjectManagement.sol",
  "compiler": {
    "name": "solc",
    "version": "0.8.13+commit.abaa5c0e.Emscripten.clang"
  },
  "schemaVersion": "3.4.16",
  "updatedAt": "2024-06-06T17:27:03.772Z",
  "networkType": "ethereum",
  "devdoc": {
    "kind": "dev",
    "methods": {
      "balanceOf(address,uint256)": {
        "details": "See {IERC1155-balanceOf}. Requirements: - `account` cannot be the zero address."
      },
      "balanceOfBatch(address[],uint256[])": {
        "details": "See {IERC1155-balanceOfBatch}. Requirements: - `accounts` and `ids` must have the same length."
      },
      "isApprovedForAll(address,address)": {
        "details": "See {IERC1155-isApprovedForAll}."
      },
      "owner()": {
        "details": "Returns the address of the current owner."
      },
      "renounceOwnership()": {
        "details": "Leaves the contract without owner. It will not be possible to call `onlyOwner` functions. Can only be called by the current owner. NOTE: Renouncing ownership will leave the contract without an owner, thereby disabling any functionality that is only available to the owner."
      },
      "safeBatchTransferFrom(address,address,uint256[],uint256[],bytes)": {
        "details": "See {IERC1155-safeBatchTransferFrom}."
      },
      "safeTransferFrom(address,address,uint256,uint256,bytes)": {
        "details": "See {IERC1155-safeTransferFrom}."
      },
      "setApprovalForAll(address,bool)": {
        "details": "See {IERC1155-setApprovalForAll}."
      },
      "supportsInterface(bytes4)": {
        "details": "See {IERC165-supportsInterface}."
      },
      "transferOwnership(address)": {
        "details": "Transfers ownership of the contract to a new account (`newOwner`). Can only be called by the current owner."
      }
    },
    "version": 1
  },
  "userdoc": {
    "kind": "user",
    "methods": {},
    "version": 1
  }
}