{
  "contractName": "Retirement",
  "abi": [
    {
      "inputs": [
        {
          "internalType": "address",
          "name": "_marketAddress",
          "type": "address"
        }
      ],
      "stateMutability": "nonpayable",
      "type": "constructor"
    },
    {
      "anonymous": false,
      "inputs": [
        {
          "indexed": true,
          "internalType": "address",
          "name": "owner",
          "type": "address"
        },
        {
          "indexed": true,
          "internalType": "address",
          "name": "approved",
          "type": "address"
        },
        {
          "indexed": true,
          "internalType": "uint256",
          "name": "tokenId",
          "type": "uint256"
        }
      ],
      "name": "Approval",
      "type": "event"
    },
    {
      "anonymous": false,
      "inputs": [
        {
          "indexed": true,
          "internalType": "address",
          "name": "owner",
          "type": "address"
        },
        {
          "indexed": true,
          "internalType": "address",
          "name": "operator",
          "type": "address"
        },
        {
          "indexed": false,
          "internalType": "bool",
          "name": "approved",
          "type": "bool"
        }
      ],
      "name": "ApprovalForAll",
      "type": "event"
    },
    {
      "anonymous": false,
      "inputs": [
        {
          "indexed": false,
          "internalType": "uint256",
          "name": "_fromTokenId",
          "type": "uint256"
        },
        {
          "indexed": false,
          "internalType": "uint256",
          "name": "_toTokenId",
          "type": "uint256"
        }
      ],
      "name": "BatchMetadataUpdate",
      "type": "event"
    },
    {
      "anonymous": false,
      "inputs": [
        {
          "indexed": false,
          "internalType": "uint256",
          "name": "_tokenId",
          "type": "uint256"
        }
      ],
      "name": "MetadataUpdate",
      "type": "event"
    },
    {
      "anonymous": false,
      "inputs": [
        {
          "indexed": false,
          "internalType": "uint256",
          "name": "tokenId",
          "type": "uint256"
        },
        {
          "indexed": false,
          "internalType": "uint256",
          "name": "projectId",
          "type": "uint256"
        },
        {
          "indexed": false,
          "internalType": "uint256",
          "name": "amount",
          "type": "uint256"
        }
      ],
      "name": "RetirementItemCreated",
      "type": "event"
    },
    {
      "anonymous": false,
      "inputs": [
        {
          "indexed": true,
          "internalType": "address",
          "name": "from",
          "type": "address"
        },
        {
          "indexed": true,
          "internalType": "address",
          "name": "to",
          "type": "address"
        },
        {
          "indexed": true,
          "internalType": "uint256",
          "name": "tokenId",
          "type": "uint256"
        }
      ],
      "name": "Transfer",
      "type": "event"
    },
    {
      "inputs": [
        {
          "internalType": "address",
          "name": "to",
          "type": "address"
        },
        {
          "internalType": "uint256",
          "name": "tokenId",
          "type": "uint256"
        }
      ],
      "name": "approve",
      "outputs": [],
      "stateMutability": "nonpayable",
      "type": "function"
    },
    {
      "inputs": [
        {
          "internalType": "address",
          "name": "owner",
          "type": "address"
        }
      ],
      "name": "balanceOf",
      "outputs": [
        {
          "internalType": "uint256",
          "name": "",
          "type": "uint256"
        }
      ],
      "stateMutability": "view",
      "type": "function",
      "constant": true
    },
    {
      "inputs": [
        {
          "internalType": "uint256",
          "name": "tokenId",
          "type": "uint256"
        }
      ],
      "name": "getApproved",
      "outputs": [
        {
          "internalType": "address",
          "name": "",
          "type": "address"
        }
      ],
      "stateMutability": "view",
      "type": "function",
      "constant": true
    },
    {
      "inputs": [
        {
          "internalType": "address",
          "name": "owner",
          "type": "address"
        },
        {
          "internalType": "address",
          "name": "operator",
          "type": "address"
        }
      ],
      "name": "isApprovedForAll",
      "outputs": [
        {
          "internalType": "bool",
          "name": "",
          "type": "bool"
        }
      ],
      "stateMutability": "view",
      "type": "function",
      "constant": true
    },
    {
      "inputs": [],
      "name": "name",
      "outputs": [
        {
          "internalType": "string",
          "name": "",
          "type": "string"
        }
      ],
      "stateMutability": "view",
      "type": "function",
      "constant": true
    },
    {
      "inputs": [
        {
          "internalType": "uint256",
          "name": "tokenId",
          "type": "uint256"
        }
      ],
      "name": "ownerOf",
      "outputs": [
        {
          "internalType": "address",
          "name": "",
          "type": "address"
        }
      ],
      "stateMutability": "view",
      "type": "function",
      "constant": true
    },
    {
      "inputs": [
        {
          "internalType": "address",
          "name": "from",
          "type": "address"
        },
        {
          "internalType": "address",
          "name": "to",
          "type": "address"
        },
        {
          "internalType": "uint256",
          "name": "tokenId",
          "type": "uint256"
        }
      ],
      "name": "safeTransferFrom",
      "outputs": [],
      "stateMutability": "nonpayable",
      "type": "function"
    },
    {
      "inputs": [
        {
          "internalType": "address",
          "name": "from",
          "type": "address"
        },
        {
          "internalType": "address",
          "name": "to",
          "type": "address"
        },
        {
          "internalType": "uint256",
          "name": "tokenId",
          "type": "uint256"
        },
        {
          "internalType": "bytes",
          "name": "data",
          "type": "bytes"
        }
      ],
      "name": "safeTransferFrom",
      "outputs": [],
      "stateMutability": "nonpayable",
      "type": "function"
    },
    {
      "inputs": [
        {
          "internalType": "address",
          "name": "operator",
          "type": "address"
        },
        {
          "internalType": "bool",
          "name": "approved",
          "type": "bool"
        }
      ],
      "name": "setApprovalForAll",
      "outputs": [],
      "stateMutability": "nonpayable",
      "type": "function"
    },
    {
      "inputs": [
        {
          "internalType": "bytes4",
          "name": "interfaceId",
          "type": "bytes4"
        }
      ],
      "name": "supportsInterface",
      "outputs": [
        {
          "internalType": "bool",
          "name": "",
          "type": "bool"
        }
      ],
      "stateMutability": "view",
      "type": "function",
      "constant": true
    },
    {
      "inputs": [],
      "name": "symbol",
      "outputs": [
        {
          "internalType": "string",
          "name": "",
          "type": "string"
        }
      ],
      "stateMutability": "view",
      "type": "function",
      "constant": true
    },
    {
      "inputs": [
        {
          "internalType": "uint256",
          "name": "tokenId",
          "type": "uint256"
        }
      ],
      "name": "tokenURI",
      "outputs": [
        {
          "internalType": "string",
          "name": "",
          "type": "string"
        }
      ],
      "stateMutability": "view",
      "type": "function",
      "constant": true
    },
    {
      "inputs": [
        {
          "internalType": "address",
          "name": "from",
          "type": "address"
        },
        {
          "internalType": "address",
          "name": "to",
          "type": "address"
        },
        {
          "internalType": "uint256",
          "name": "tokenId",
          "type": "uint256"
        }
      ],
      "name": "transferFrom",
      "outputs": [],
      "stateMutability": "nonpayable",
      "type": "function"
    },
    {
      "inputs": [
        {
          "internalType": "uint256",
          "name": "projectId",
          "type": "uint256"
        },
        {
          "internalType": "uint256",
          "name": "amount",
          "type": "uint256"
        },
        {
          "internalType": "string",
          "name": "uri",
          "type": "string"
        }
      ],
      "name": "retireCredits",
      "outputs": [],
      "stateMutability": "nonpayable",
      "type": "function"
    },
    {
      "inputs": [
        {
          "internalType": "uint256",
          "name": "tokenId",
          "type": "uint256"
        }
      ],
      "name": "getRetirementItem",
      "outputs": [
        {
          "components": [
            {
              "internalType": "uint256",
              "name": "tokenId",
              "type": "uint256"
            },
            {
              "internalType": "uint256",
              "name": "amount",
              "type": "uint256"
            },
            {
              "internalType": "address",
              "name": "owner",
              "type": "address"
            },
            {
              "internalType": "uint256",
              "name": "projectId",
              "type": "uint256"
            },
            {
              "internalType": "uint256",
              "name": "timestamp",
              "type": "uint256"
            },
            {
              "internalType": "bool",
              "name": "isCertificated",
              "type": "bool"
            }
          ],
          "internalType": "struct Retirement.RetirementItem",
          "name": "",
          "type": "tuple"
        }
      ],
      "stateMutability": "view",
      "type": "function",
      "constant": true
    },
    {
      "inputs": [],
      "name": "getOwnedRetirements",
      "outputs": [
        {
          "components": [
            {
              "internalType": "uint256",
              "name": "tokenId",
              "type": "uint256"
            },
            {
              "internalType": "uint256",
              "name": "amount",
              "type": "uint256"
            },
            {
              "internalType": "address",
              "name": "owner",
              "type": "address"
            },
            {
              "internalType": "uint256",
              "name": "projectId",
              "type": "uint256"
            },
            {
              "internalType": "uint256",
              "name": "timestamp",
              "type": "uint256"
            },
            {
              "internalType": "bool",
              "name": "isCertificated",
              "type": "bool"
            }
          ],
          "internalType": "struct Retirement.RetirementItem[]",
          "name": "",
          "type": "tuple[]"
        }
      ],
      "stateMutability": "view",
      "type": "function",
      "constant": true
    },
    {
      "inputs": [],
      "name": "getAllRetirements",
      "outputs": [
        {
          "components": [
            {
              "internalType": "uint256",
              "name": "tokenId",
              "type": "uint256"
            },
            {
              "internalType": "uint256",
              "name": "amount",
              "type": "uint256"
            },
            {
              "internalType": "address",
              "name": "owner",
              "type": "address"
            },
            {
              "internalType": "uint256",
              "name": "projectId",
              "type": "uint256"
            },
            {
              "internalType": "uint256",
              "name": "timestamp",
              "type": "uint256"
            },
            {
              "internalType": "bool",
              "name": "isCertificated",
              "type": "bool"
            }
          ],
          "internalType": "struct Retirement.RetirementItem[]",
          "name": "",
          "type": "tuple[]"
        }
      ],
      "stateMutability": "view",
      "type": "function",
      "constant": true
    },
    {
      "inputs": [
        {
          "internalType": "address",
          "name": "owner",
          "type": "address"
        },
        {
          "internalType": "uint256",
          "name": "index",
          "type": "uint256"
        }
      ],
      "name": "tokenOfOwnerByIndex",
      "outputs": [
        {
          "internalType": "uint256",
          "name": "",
          "type": "uint256"
        }
      ],
      "stateMutability": "view",
      "type": "function",
      "constant": true
    },
    {
      "inputs": [
        {
          "internalType": "uint256",
          "name": "index",
          "type": "uint256"
        }
      ],
      "name": "tokenByIndex",
      "outputs": [
        {
          "internalType": "uint256",
          "name": "",
          "type": "uint256"
        }
      ],
      "stateMutability": "view",
      "type": "function",
      "constant": true
    },
    {
      "inputs": [],
      "name": "totalSupply",
      "outputs": [
        {
          "internalType": "uint256",
          "name": "",
          "type": "uint256"
        }
      ],
      "stateMutability": "view",
      "type": "function",
      "constant": true
    },
    {
      "inputs": [
        {
          "internalType": "uint256",
          "name": "tokenId",
          "type": "uint256"
        },
        {
          "internalType": "string",
          "name": "tokenUri",
          "type": "string"
        }
      ],
      "name": "certificateRetirement",
      "outputs": [],
      "stateMutability": "nonpayable",
      "type": "function"
    }
  ],
  "bytecode": "0x60806040523480156200001157600080fd5b5060405162003a0538038062003a05833981810160405281019062000037919062000239565b6040518060400160405280600f81526020017f5265746972656d656e74546f6b656e00000000000000000000000000000000008152506040518060400160405280600281526020017f52540000000000000000000000000000000000000000000000000000000000008152508160009080519060200190620000bb9291906200011f565b508060019080519060200190620000d49291906200011f565b50505080600d60006101000a81548173ffffffffffffffffffffffffffffffffffffffff021916908373ffffffffffffffffffffffffffffffffffffffff16021790555050620002cf565b8280546200012d906200029a565b90600052602060002090601f0160209004810192826200015157600085556200019d565b82601f106200016c57805160ff19168380011785556200019d565b828001600101855582156200019d579182015b828111156200019c5782518255916020019190600101906200017f565b5b509050620001ac9190620001b0565b5090565b5b80821115620001cb576000816000905550600101620001b1565b5090565b600080fd5b600073ffffffffffffffffffffffffffffffffffffffff82169050919050565b60006200020182620001d4565b9050919050565b6200021381620001f4565b81146200021f57600080fd5b50565b600081519050620002338162000208565b92915050565b600060208284031215620002525762000251620001cf565b5b6000620002628482850162000222565b91505092915050565b7f4e487b7100000000000000000000000000000000000000000000000000000000600052602260045260246000fd5b60006002820490506001821680620002b357607f821691505b602082108103620002c957620002c86200026b565b5b50919050565b61372680620002df6000396000f3fe608060405234801561001057600080fd5b50600436106101375760003560e01c806361d5da92116100b8578063b63a1ac01161007c578063b63a1ac014610372578063b88d4fde14610390578063c081ec96146103ac578063c87b56dd146103c8578063dff6e323146103f8578063e985e9c51461041657610137565b806361d5da92146102bc5780636352211e146102d857806370a082311461030857806395d89b4114610338578063a22cb4651461035657610137565b806323b872dd116100ff57806323b872dd146101f457806327f191c4146102105780632f745c591461024057806342842e0e146102705780634f6ccce71461028c57610137565b806301ffc9a71461013c57806306fdde031461016c578063081812fc1461018a578063095ea7b3146101ba57806318160ddd146101d6575b600080fd5b6101566004803603810190610151919061248c565b610446565b60405161016391906124d4565b60405180910390f35b6101746104a7565b6040516101819190612588565b60405180910390f35b6101a4600480360381019061019f91906125e0565b610539565b6040516101b1919061264e565b60405180910390f35b6101d460048036038101906101cf9190612695565b61057f565b005b6101de610696565b6040516101eb91906126e4565b60405180910390f35b61020e600480360381019061020991906126ff565b6106a3565b005b61022a600480360381019061022591906125e0565b610703565b60405161023791906127fa565b60405180910390f35b61025a60048036038101906102559190612695565b6107c9565b60405161026791906126e4565b60405180910390f35b61028a600480360381019061028591906126ff565b61086e565b005b6102a660048036038101906102a191906125e0565b61088e565b6040516102b391906126e4565b60405180910390f35b6102d660048036038101906102d1919061294a565b6108ff565b005b6102f260048036038101906102ed91906125e0565b61093c565b6040516102ff919061264e565b60405180910390f35b610322600480360381019061031d91906129a6565b6109c2565b60405161032f91906126e4565b60405180910390f35b610340610a79565b60405161034d9190612588565b60405180910390f35b610370600480360381019061036b91906129ff565b610b0b565b005b61037a610b21565b6040516103879190612b69565b60405180910390f35b6103aa60048036038101906103a59190612c2c565b610c99565b005b6103c660048036038101906103c19190612caf565b610cfb565b005b6103e260048036038101906103dd91906125e0565b610e0b565b6040516103ef9190612588565b60405180910390f35b610400610f1d565b60405161040d9190612b69565b60405180910390f35b610430600480360381019061042b9190612d1e565b611091565b60405161043d91906124d4565b60405180910390f35b6000634906490660e01b7bffffffffffffffffffffffffffffffffffffffffffffffffffffffff1916827bffffffffffffffffffffffffffffffffffffffffffffffffffffffff191614806104a0575061049f82611125565b5b9050919050565b6060600080546104b690612d8d565b80601f01602080910402602001604051908101604052809291908181526020018280546104e290612d8d565b801561052f5780601f106105045761010080835404028352916020019161052f565b820191906000526020600020905b81548152906001019060200180831161051257829003601f168201915b5050505050905090565b600061054482611207565b6004600083815260200190815260200160002060009054906101000a900473ffffffffffffffffffffffffffffffffffffffff169050919050565b600061058a8261093c565b90508073ffffffffffffffffffffffffffffffffffffffff168373ffffffffffffffffffffffffffffffffffffffff16036105fa576040517f08c379a00000000000000000000000000000000000000000000000000000000081526004016105f190612e30565b60405180910390fd5b8073ffffffffffffffffffffffffffffffffffffffff16610619611252565b73ffffffffffffffffffffffffffffffffffffffff161480610648575061064781610642611252565b611091565b5b610687576040517f08c379a000000000000000000000000000000000000000000000000000000000815260040161067e90612ec2565b60405180910390fd5b610691838361125a565b505050565b6000600b80549050905090565b6106b46106ae611252565b82611313565b6106f3576040517f08c379a00000000000000000000000000000000000000000000000000000000081526004016106ea90612f54565b60405180910390fd5b6106fe8383836113a8565b505050565b61070b61232f565b600860008381526020019081526020016000206040518060c001604052908160008201548152602001600182015481526020016002820160009054906101000a900473ffffffffffffffffffffffffffffffffffffffff1673ffffffffffffffffffffffffffffffffffffffff1673ffffffffffffffffffffffffffffffffffffffff16815260200160038201548152602001600482015481526020016005820160009054906101000a900460ff1615151515815250509050919050565b60006107d4836109c2565b8210610815576040517f08c379a000000000000000000000000000000000000000000000000000000000815260040161080c90612fc0565b60405180910390fd5b600960008473ffffffffffffffffffffffffffffffffffffffff1673ffffffffffffffffffffffffffffffffffffffff168152602001908152602001600020600083815260200190815260200160002054905092915050565b61088983838360405180602001604052806000815250610c99565b505050565b6000610898610696565b82106108d9576040517f08c379a00000000000000000000000000000000000000000000000000000000081526004016108d090612fc0565b60405180910390fd5b600b82815481106108ed576108ec612fe0565b5b90600052602060002001549050919050565b60016008600084815260200190815260200160002060050160006101000a81548160ff02191690831515021790555061093882826116a1565b5050565b6000806109488361174c565b9050600073ffffffffffffffffffffffffffffffffffffffff168173ffffffffffffffffffffffffffffffffffffffff16036109b9576040517f08c379a00000000000000000000000000000000000000000000000000000000081526004016109b09061305b565b60405180910390fd5b80915050919050565b60008073ffffffffffffffffffffffffffffffffffffffff168273ffffffffffffffffffffffffffffffffffffffff1603610a32576040517f08c379a0000000000000000000000000000000000000000000000000000000008152600401610a29906130ed565b60405180910390fd5b600360008373ffffffffffffffffffffffffffffffffffffffff1673ffffffffffffffffffffffffffffffffffffffff168152602001908152602001600020549050919050565b606060018054610a8890612d8d565b80601f0160208091040260200160405190810160405280929190818152602001828054610ab490612d8d565b8015610b015780601f10610ad657610100808354040283529160200191610b01565b820191906000526020600020905b815481529060010190602001808311610ae457829003601f168201915b5050505050905090565b610b1d610b16611252565b8383611789565b5050565b60606000610b2e336109c2565b905060008167ffffffffffffffff811115610b4c57610b4b61281f565b5b604051908082528060200260200182016040528015610b8557816020015b610b7261232f565b815260200190600190039081610b6a5790505b50905060005b82811015610c90576000610b9f33836107c9565b90506000600860008381526020019081526020016000209050806040518060c001604052908160008201548152602001600182015481526020016002820160009054906101000a900473ffffffffffffffffffffffffffffffffffffffff1673ffffffffffffffffffffffffffffffffffffffff1673ffffffffffffffffffffffffffffffffffffffff16815260200160038201548152602001600482015481526020016005820160009054906101000a900460ff161515151581525050848481518110610c7057610c6f612fe0565b5b602002602001018190525050508080610c889061313c565b915050610b8b565b50809250505090565b610caa610ca4611252565b83611313565b610ce9576040517f08c379a0000000000000000000000000000000000000000000000000000000008152600401610ce090612f54565b60405180910390fd5b610cf5848484846118f5565b50505050565b600d60009054906101000a900473ffffffffffffffffffffffffffffffffffffffff1673ffffffffffffffffffffffffffffffffffffffff1663d7896e6d3385856040518463ffffffff1660e01b8152600401610d5a93929190613184565b600060405180830381600087803b158015610d7457600080fd5b505af1158015610d88573d6000803e3d6000fd5b5050505060076000815480929190610d9f9061313c565b919050555060006007549050610db53382611951565b610dbf81836116a1565b610dca81858561196f565b7f3f1f14faa7aa3fcc2b76f03baa92d5c2ac80c7d3b68bf849f204d195613146ef818585604051610dfd939291906131bb565b60405180910390a150505050565b6060610e1682611207565b6000600660008481526020019081526020016000208054610e3690612d8d565b80601f0160208091040260200160405190810160405280929190818152602001828054610e6290612d8d565b8015610eaf5780601f10610e8457610100808354040283529160200191610eaf565b820191906000526020600020905b815481529060010190602001808311610e9257829003601f168201915b505050505090506000610ec0611a5f565b90506000815103610ed5578192505050610f18565b600082511115610f0a578082604051602001610ef292919061322e565b60405160208183030381529060405292505050610f18565b610f1384611a76565b925050505b919050565b60606000600b80549050905060008167ffffffffffffffff811115610f4557610f4461281f565b5b604051908082528060200260200182016040528015610f7e57816020015b610f6b61232f565b815260200190600190039081610f635790505b50905060005b82811015611088576000610f978261088e565b90506000600860008381526020019081526020016000209050806040518060c001604052908160008201548152602001600182015481526020016002820160009054906101000a900473ffffffffffffffffffffffffffffffffffffffff1673ffffffffffffffffffffffffffffffffffffffff1673ffffffffffffffffffffffffffffffffffffffff16815260200160038201548152602001600482015481526020016005820160009054906101000a900460ff16151515158152505084848151811061106857611067612fe0565b5b6020026020010181905250505080806110809061313c565b915050610f84565b50809250505090565b6000600560008473ffffffffffffffffffffffffffffffffffffffff1673ffffffffffffffffffffffffffffffffffffffff16815260200190815260200160002060008373ffffffffffffffffffffffffffffffffffffffff1673ffffffffffffffffffffffffffffffffffffffff16815260200190815260200160002060009054906101000a900460ff16905092915050565b60007f80ac58cd000000000000000000000000000000000000000000000000000000007bffffffffffffffffffffffffffffffffffffffffffffffffffffffff1916827bffffffffffffffffffffffffffffffffffffffffffffffffffffffff191614806111f057507f5b5e139f000000000000000000000000000000000000000000000000000000007bffffffffffffffffffffffffffffffffffffffffffffffffffffffff1916827bffffffffffffffffffffffffffffffffffffffffffffffffffffffff1916145b8061120057506111ff82611ade565b5b9050919050565b61121081611b48565b61124f576040517f08c379a00000000000000000000000000000000000000000000000000000000081526004016112469061305b565b60405180910390fd5b50565b600033905090565b816004600083815260200190815260200160002060006101000a81548173ffffffffffffffffffffffffffffffffffffffff021916908373ffffffffffffffffffffffffffffffffffffffff160217905550808273ffffffffffffffffffffffffffffffffffffffff166112cd8361093c565b73ffffffffffffffffffffffffffffffffffffffff167f8c5be1e5ebec7d5bd14f71427d1e84f3dd0314c0f7b2291e5b200ac8c7c3b92560405160405180910390a45050565b60008061131f8361093c565b90508073ffffffffffffffffffffffffffffffffffffffff168473ffffffffffffffffffffffffffffffffffffffff16148061136157506113608185611091565b5b8061139f57508373ffffffffffffffffffffffffffffffffffffffff1661138784610539565b73ffffffffffffffffffffffffffffffffffffffff16145b91505092915050565b8273ffffffffffffffffffffffffffffffffffffffff166113c88261093c565b73ffffffffffffffffffffffffffffffffffffffff161461141e576040517f08c379a0000000000000000000000000000000000000000000000000000000008152600401611415906132c4565b60405180910390fd5b600073ffffffffffffffffffffffffffffffffffffffff168273ffffffffffffffffffffffffffffffffffffffff160361148d576040517f08c379a000000000000000000000000000000000000000000000000000000000815260040161148490613356565b60405180910390fd5b61149a8383836001611b89565b8273ffffffffffffffffffffffffffffffffffffffff166114ba8261093c565b73ffffffffffffffffffffffffffffffffffffffff1614611510576040517f08c379a0000000000000000000000000000000000000000000000000000000008152600401611507906132c4565b60405180910390fd5b6004600082815260200190815260200160002060006101000a81549073ffffffffffffffffffffffffffffffffffffffff02191690556001600360008573ffffffffffffffffffffffffffffffffffffffff1673ffffffffffffffffffffffffffffffffffffffff168152602001908152602001600020600082825403925050819055506001600360008473ffffffffffffffffffffffffffffffffffffffff1673ffffffffffffffffffffffffffffffffffffffff16815260200190815260200160002060008282540192505081905550816002600083815260200190815260200160002060006101000a81548173ffffffffffffffffffffffffffffffffffffffff021916908373ffffffffffffffffffffffffffffffffffffffff160217905550808273ffffffffffffffffffffffffffffffffffffffff168473ffffffffffffffffffffffffffffffffffffffff167fddf252ad1be2c89b69c2b068fc378daa952ba7f163c4a11628f55a4df523b3ef60405160405180910390a461169c8383836001611c18565b505050565b6116aa82611b48565b6116e9576040517f08c379a00000000000000000000000000000000000000000000000000000000081526004016116e0906133e8565b60405180910390fd5b8060066000848152602001908152602001600020908051906020019061171092919061237d565b507ff8e1a15aba9398e019f0b49df1a4fde98ee17ae345cb5f6b5e2c27f5033e8ce78260405161174091906126e4565b60405180910390a15050565b60006002600083815260200190815260200160002060009054906101000a900473ffffffffffffffffffffffffffffffffffffffff169050919050565b8173ffffffffffffffffffffffffffffffffffffffff168373ffffffffffffffffffffffffffffffffffffffff16036117f7576040517f08c379a00000000000000000000000000000000000000000000000000000000081526004016117ee90613454565b60405180910390fd5b80600560008573ffffffffffffffffffffffffffffffffffffffff1673ffffffffffffffffffffffffffffffffffffffff16815260200190815260200160002060008473ffffffffffffffffffffffffffffffffffffffff1673ffffffffffffffffffffffffffffffffffffffff16815260200190815260200160002060006101000a81548160ff0219169083151502179055508173ffffffffffffffffffffffffffffffffffffffff168373ffffffffffffffffffffffffffffffffffffffff167f17307eab39ab6107e8899845ad3d59bd9653f200f220920489ca2b5937696c31836040516118e891906124d4565b60405180910390a3505050565b6119008484846113a8565b61190c84848484611c1e565b61194b576040517f08c379a0000000000000000000000000000000000000000000000000000000008152600401611942906134e6565b60405180910390fd5b50505050565b61196b828260405180602001604052806000815250611da5565b5050565b6040518060c001604052808481526020018281526020013373ffffffffffffffffffffffffffffffffffffffff1681526020018381526020014281526020016000151581525060086000858152602001908152602001600020600082015181600001556020820151816001015560408201518160020160006101000a81548173ffffffffffffffffffffffffffffffffffffffff021916908373ffffffffffffffffffffffffffffffffffffffff160217905550606082015181600301556080820151816004015560a08201518160050160006101000a81548160ff021916908315150217905550905050505050565b606060405180602001604052806000815250905090565b6060611a8182611207565b6000611a8b611a5f565b90506000815111611aab5760405180602001604052806000815250611ad6565b80611ab584611e00565b604051602001611ac692919061322e565b6040516020818303038152906040525b915050919050565b60007f01ffc9a7000000000000000000000000000000000000000000000000000000007bffffffffffffffffffffffffffffffffffffffffffffffffffffffff1916827bffffffffffffffffffffffffffffffffffffffffffffffffffffffff1916149050919050565b60008073ffffffffffffffffffffffffffffffffffffffff16611b6a8361174c565b73ffffffffffffffffffffffffffffffffffffffff1614159050919050565b611b9584848484611ece565b600073ffffffffffffffffffffffffffffffffffffffff168473ffffffffffffffffffffffffffffffffffffffff1603611bd357611bd282611ed4565b5b600073ffffffffffffffffffffffffffffffffffffffff168373ffffffffffffffffffffffffffffffffffffffff1614611c1257611c118383611f1d565b5b50505050565b50505050565b6000611c3f8473ffffffffffffffffffffffffffffffffffffffff16611f9c565b15611d98578373ffffffffffffffffffffffffffffffffffffffff1663150b7a02611c68611252565b8786866040518563ffffffff1660e01b8152600401611c8a949392919061355b565b6020604051808303816000875af1925050508015611cc657506040513d601f19601f82011682018060405250810190611cc391906135bc565b60015b611d48573d8060008114611cf6576040519150601f19603f3d011682016040523d82523d6000602084013e611cfb565b606091505b506000815103611d40576040517f08c379a0000000000000000000000000000000000000000000000000000000008152600401611d37906134e6565b60405180910390fd5b805181602001fd5b63150b7a0260e01b7bffffffffffffffffffffffffffffffffffffffffffffffffffffffff1916817bffffffffffffffffffffffffffffffffffffffffffffffffffffffff191614915050611d9d565b600190505b949350505050565b611daf8383611fbf565b611dbc6000848484611c1e565b611dfb576040517f08c379a0000000000000000000000000000000000000000000000000000000008152600401611df2906134e6565b60405180910390fd5b505050565b606060006001611e0f846121dc565b01905060008167ffffffffffffffff811115611e2e57611e2d61281f565b5b6040519080825280601f01601f191660200182016040528015611e605781602001600182028036833780820191505090505b509050600082602001820190505b600115611ec3578080600190039150507f3031323334353637383961626364656600000000000000000000000000000000600a86061a8153600a8581611eb757611eb66135e9565b5b04945060008503611e6e575b819350505050919050565b50505050565b600b80549050600c600083815260200190815260200160002081905550600b81908060018154018082558091505060019003906000526020600020016000909190919091505550565b6000611f28836109c2565b905081600960008573ffffffffffffffffffffffffffffffffffffffff1673ffffffffffffffffffffffffffffffffffffffff16815260200190815260200160002060008381526020019081526020016000208190555080600a600084815260200190815260200160002081905550505050565b6000808273ffffffffffffffffffffffffffffffffffffffff163b119050919050565b600073ffffffffffffffffffffffffffffffffffffffff168273ffffffffffffffffffffffffffffffffffffffff160361202e576040517f08c379a000000000000000000000000000000000000000000000000000000000815260040161202590613664565b60405180910390fd5b61203781611b48565b15612077576040517f08c379a000000000000000000000000000000000000000000000000000000000815260040161206e906136d0565b60405180910390fd5b612085600083836001611b89565b61208e81611b48565b156120ce576040517f08c379a00000000000000000000000000000000000000000000000000000000081526004016120c5906136d0565b60405180910390fd5b6001600360008473ffffffffffffffffffffffffffffffffffffffff1673ffffffffffffffffffffffffffffffffffffffff16815260200190815260200160002060008282540192505081905550816002600083815260200190815260200160002060006101000a81548173ffffffffffffffffffffffffffffffffffffffff021916908373ffffffffffffffffffffffffffffffffffffffff160217905550808273ffffffffffffffffffffffffffffffffffffffff16600073ffffffffffffffffffffffffffffffffffffffff167fddf252ad1be2c89b69c2b068fc378daa952ba7f163c4a11628f55a4df523b3ef60405160405180910390a46121d8600083836001611c18565b5050565b600080600090507a184f03e93ff9f4daa797ed6e38ed64bf6a1f010000000000000000831061223a577a184f03e93ff9f4daa797ed6e38ed64bf6a1f01000000000000000083816122305761222f6135e9565b5b0492506040810190505b6d04ee2d6d415b85acef81000000008310612277576d04ee2d6d415b85acef8100000000838161226d5761226c6135e9565b5b0492506020810190505b662386f26fc1000083106122a657662386f26fc10000838161229c5761229b6135e9565b5b0492506010810190505b6305f5e10083106122cf576305f5e10083816122c5576122c46135e9565b5b0492506008810190505b61271083106122f45761271083816122ea576122e96135e9565b5b0492506004810190505b60648310612317576064838161230d5761230c6135e9565b5b0492506002810190505b600a8310612326576001810190505b80915050919050565b6040518060c001604052806000815260200160008152602001600073ffffffffffffffffffffffffffffffffffffffff16815260200160008152602001600081526020016000151581525090565b82805461238990612d8d565b90600052602060002090601f0160209004810192826123ab57600085556123f2565b82601f106123c457805160ff19168380011785556123f2565b828001600101855582156123f2579182015b828111156123f15782518255916020019190600101906123d6565b5b5090506123ff9190612403565b5090565b5b8082111561241c576000816000905550600101612404565b5090565b6000604051905090565b600080fd5b600080fd5b60007fffffffff0000000000000000000000000000000000000000000000000000000082169050919050565b61246981612434565b811461247457600080fd5b50565b60008135905061248681612460565b92915050565b6000602082840312156124a2576124a161242a565b5b60006124b084828501612477565b91505092915050565b60008115159050919050565b6124ce816124b9565b82525050565b60006020820190506124e960008301846124c5565b92915050565b600081519050919050565b600082825260208201905092915050565b60005b8381101561252957808201518184015260208101905061250e565b83811115612538576000848401525b50505050565b6000601f19601f8301169050919050565b600061255a826124ef565b61256481856124fa565b935061257481856020860161250b565b61257d8161253e565b840191505092915050565b600060208201905081810360008301526125a2818461254f565b905092915050565b6000819050919050565b6125bd816125aa565b81146125c857600080fd5b50565b6000813590506125da816125b4565b92915050565b6000602082840312156125f6576125f561242a565b5b6000612604848285016125cb565b91505092915050565b600073ffffffffffffffffffffffffffffffffffffffff82169050919050565b60006126388261260d565b9050919050565b6126488161262d565b82525050565b6000602082019050612663600083018461263f565b92915050565b6126728161262d565b811461267d57600080fd5b50565b60008135905061268f81612669565b92915050565b600080604083850312156126ac576126ab61242a565b5b60006126ba85828601612680565b92505060206126cb858286016125cb565b9150509250929050565b6126de816125aa565b82525050565b60006020820190506126f960008301846126d5565b92915050565b6000806000606084860312156127185761271761242a565b5b600061272686828701612680565b935050602061273786828701612680565b9250506040612748868287016125cb565b9150509250925092565b61275b816125aa565b82525050565b61276a8161262d565b82525050565b612779816124b9565b82525050565b60c0820160008201516127956000850182612752565b5060208201516127a86020850182612752565b5060408201516127bb6040850182612761565b5060608201516127ce6060850182612752565b5060808201516127e16080850182612752565b5060a08201516127f460a0850182612770565b50505050565b600060c08201905061280f600083018461277f565b92915050565b600080fd5b600080fd5b7f4e487b7100000000000000000000000000000000000000000000000000000000600052604160045260246000fd5b6128578261253e565b810181811067ffffffffffffffff821117156128765761287561281f565b5b80604052505050565b6000612889612420565b9050612895828261284e565b919050565b600067ffffffffffffffff8211156128b5576128b461281f565b5b6128be8261253e565b9050602081019050919050565b82818337600083830152505050565b60006128ed6128e88461289a565b61287f565b9050828152602081018484840111156129095761290861281a565b5b6129148482856128cb565b509392505050565b600082601f83011261293157612930612815565b5b81356129418482602086016128da565b91505092915050565b600080604083850312156129615761296061242a565b5b600061296f858286016125cb565b925050602083013567ffffffffffffffff8111156129905761298f61242f565b5b61299c8582860161291c565b9150509250929050565b6000602082840312156129bc576129bb61242a565b5b60006129ca84828501612680565b91505092915050565b6129dc816124b9565b81146129e757600080fd5b50565b6000813590506129f9816129d3565b92915050565b60008060408385031215612a1657612a1561242a565b5b6000612a2485828601612680565b9250506020612a35858286016129ea565b9150509250929050565b600081519050919050565b600082825260208201905092915050565b6000819050602082019050919050565b60c082016000820151612a816000850182612752565b506020820151612a946020850182612752565b506040820151612aa76040850182612761565b506060820151612aba6060850182612752565b506080820151612acd6080850182612752565b5060a0820151612ae060a0850182612770565b50505050565b6000612af28383612a6b565b60c08301905092915050565b6000602082019050919050565b6000612b1682612a3f565b612b208185612a4a565b9350612b2b83612a5b565b8060005b83811015612b5c578151612b438882612ae6565b9750612b4e83612afe565b925050600181019050612b2f565b5085935050505092915050565b60006020820190508181036000830152612b838184612b0b565b905092915050565b600067ffffffffffffffff821115612ba657612ba561281f565b5b612baf8261253e565b9050602081019050919050565b6000612bcf612bca84612b8b565b61287f565b905082815260208101848484011115612beb57612bea61281a565b5b612bf68482856128cb565b509392505050565b600082601f830112612c1357612c12612815565b5b8135612c23848260208601612bbc565b91505092915050565b60008060008060808587031215612c4657612c4561242a565b5b6000612c5487828801612680565b9450506020612c6587828801612680565b9350506040612c76878288016125cb565b925050606085013567ffffffffffffffff811115612c9757612c9661242f565b5b612ca387828801612bfe565b91505092959194509250565b600080600060608486031215612cc857612cc761242a565b5b6000612cd6868287016125cb565b9350506020612ce7868287016125cb565b925050604084013567ffffffffffffffff811115612d0857612d0761242f565b5b612d148682870161291c565b9150509250925092565b60008060408385031215612d3557612d3461242a565b5b6000612d4385828601612680565b9250506020612d5485828601612680565b9150509250929050565b7f4e487b7100000000000000000000000000000000000000000000000000000000600052602260045260246000fd5b60006002820490506001821680612da557607f821691505b602082108103612db857612db7612d5e565b5b50919050565b7f4552433732313a20617070726f76616c20746f2063757272656e74206f776e6560008201527f7200000000000000000000000000000000000000000000000000000000000000602082015250565b6000612e1a6021836124fa565b9150612e2582612dbe565b604082019050919050565b60006020820190508181036000830152612e4981612e0d565b9050919050565b7f4552433732313a20617070726f76652063616c6c6572206973206e6f7420746f60008201527f6b656e206f776e6572206f7220617070726f76656420666f7220616c6c000000602082015250565b6000612eac603d836124fa565b9150612eb782612e50565b604082019050919050565b60006020820190508181036000830152612edb81612e9f565b9050919050565b7f4552433732313a2063616c6c6572206973206e6f7420746f6b656e206f776e6560008201527f72206f7220617070726f76656400000000000000000000000000000000000000602082015250565b6000612f3e602d836124fa565b9150612f4982612ee2565b604082019050919050565b60006020820190508181036000830152612f6d81612f31565b9050919050565b7f496e646578206f7574206f6620626f756e647300000000000000000000000000600082015250565b6000612faa6013836124fa565b9150612fb582612f74565b602082019050919050565b60006020820190508181036000830152612fd981612f9d565b9050919050565b7f4e487b7100000000000000000000000000000000000000000000000000000000600052603260045260246000fd5b7f4552433732313a20696e76616c696420746f6b656e2049440000000000000000600082015250565b60006130456018836124fa565b91506130508261300f565b602082019050919050565b6000602082019050818103600083015261307481613038565b9050919050565b7f4552433732313a2061646472657373207a65726f206973206e6f74206120766160008201527f6c6964206f776e65720000000000000000000000000000000000000000000000602082015250565b60006130d76029836124fa565b91506130e28261307b565b604082019050919050565b60006020820190508181036000830152613106816130ca565b9050919050565b7f4e487b7100000000000000000000000000000000000000000000000000000000600052601160045260246000fd5b6000613147826125aa565b91507fffffffffffffffffffffffffffffffffffffffffffffffffffffffffffffffff82036131795761317861310d565b5b600182019050919050565b6000606082019050613199600083018661263f565b6131a660208301856126d5565b6131b360408301846126d5565b949350505050565b60006060820190506131d060008301866126d5565b6131dd60208301856126d5565b6131ea60408301846126d5565b949350505050565b600081905092915050565b6000613208826124ef565b61321281856131f2565b935061322281856020860161250b565b80840191505092915050565b600061323a82856131fd565b915061324682846131fd565b91508190509392505050565b7f4552433732313a207472616e736665722066726f6d20696e636f72726563742060008201527f6f776e6572000000000000000000000000000000000000000000000000000000602082015250565b60006132ae6025836124fa565b91506132b982613252565b604082019050919050565b600060208201905081810360008301526132dd816132a1565b9050919050565b7f4552433732313a207472616e7366657220746f20746865207a65726f2061646460008201527f7265737300000000000000000000000000000000000000000000000000000000602082015250565b60006133406024836124fa565b915061334b826132e4565b604082019050919050565b6000602082019050818103600083015261336f81613333565b9050919050565b7f45524337323155524953746f726167653a2055524920736574206f66206e6f6e60008201527f6578697374656e7420746f6b656e000000000000000000000000000000000000602082015250565b60006133d2602e836124fa565b91506133dd82613376565b604082019050919050565b60006020820190508181036000830152613401816133c5565b9050919050565b7f4552433732313a20617070726f766520746f2063616c6c657200000000000000600082015250565b600061343e6019836124fa565b915061344982613408565b602082019050919050565b6000602082019050818103600083015261346d81613431565b9050919050565b7f4552433732313a207472616e7366657220746f206e6f6e20455243373231526560008201527f63656976657220696d706c656d656e7465720000000000000000000000000000602082015250565b60006134d06032836124fa565b91506134db82613474565b604082019050919050565b600060208201905081810360008301526134ff816134c3565b9050919050565b600081519050919050565b600082825260208201905092915050565b600061352d82613506565b6135378185613511565b935061354781856020860161250b565b6135508161253e565b840191505092915050565b6000608082019050613570600083018761263f565b61357d602083018661263f565b61358a60408301856126d5565b818103606083015261359c8184613522565b905095945050505050565b6000815190506135b681612460565b92915050565b6000602082840312156135d2576135d161242a565b5b60006135e0848285016135a7565b91505092915050565b7f4e487b7100000000000000000000000000000000000000000000000000000000600052601260045260246000fd5b7f4552433732313a206d696e7420746f20746865207a65726f2061646472657373600082015250565b600061364e6020836124fa565b915061365982613618565b602082019050919050565b6000602082019050818103600083015261367d81613641565b9050919050565b7f4552433732313a20746f6b656e20616c7265616479206d696e74656400000000600082015250565b60006136ba601c836124fa565b91506136c582613684565b602082019050919050565b600060208201905081810360008301526136e9816136ad565b905091905056fea2646970667358221220455e4868249eca2cf4a383e530f33d950a9e2136d97fd46ea82858de2780ae0664736f6c634300080d0033",
  "immutableReferences": {},
  "source": "// SPDX-License-Identifier: MIT\npragma solidity ^0.8.13;\n\nimport \"@openzeppelin/contracts/token/ERC721/extensions/ERC721URIStorage.sol\";\nimport \"./CarbonMarket.sol\";\n\ncontract Retirement is ERC721URIStorage {\n    struct RetirementItem {\n        uint256 tokenId;\n        uint256 amount;\n        address owner;\n        uint256 projectId;\n        uint256 timestamp;\n        bool isCertificated;\n    }\n\n    event RetirementItemCreated(\n        uint256 tokenId,\n        uint256 projectId,\n        uint256 amount\n    );\n\n    uint256 private _retirementIdCounter;\n    mapping(uint256 => RetirementItem) private _idToRetirementItem;\n    mapping(address => mapping(uint256 => uint256)) private _ownedTokens;\n    mapping(uint256 => uint256) private _idToOwnedIndex;\n\n    uint256[] private _allRetirements;\n    mapping(uint256 => uint256) private _idToRetirementIndex;\n\n    CarbonMarket private _market;\n\n    constructor(address _marketAddress) ERC721(\"RetirementToken\", \"RT\") {\n        _market = CarbonMarket(_marketAddress);\n    }\n\n    function retireCredits(\n        uint256 projectId,\n        uint256 amount,\n        string memory uri\n    ) public {\n        _market.retireCredits(msg.sender, projectId, amount);\n\n        _retirementIdCounter++;\n        uint256 newTokenId = _retirementIdCounter;\n\n        _safeMint(msg.sender, newTokenId);\n        _setTokenURI(newTokenId, uri);\n\n        _createRetirementItem(newTokenId, projectId, amount);\n        emit RetirementItemCreated(newTokenId, projectId, amount);\n    }\n\n    function getRetirementItem(\n        uint256 tokenId\n    ) public view returns (RetirementItem memory) {\n        return _idToRetirementItem[tokenId];\n    }\n\n    function getOwnedRetirements()\n        public\n        view\n        returns (RetirementItem[] memory)\n    {\n        uint256 ownedItemCount = ERC721.balanceOf(msg.sender);\n        RetirementItem[] memory items = new RetirementItem[](ownedItemCount);\n\n        for (uint256 i = 0; i < ownedItemCount; i++) {\n            uint256 tokenId = tokenOfOwnerByIndex(msg.sender, i);\n            RetirementItem storage item = _idToRetirementItem[tokenId];\n            items[i] = item;\n        }\n\n        return items;\n    }\n\n    function getAllRetirements() public view returns (RetirementItem[] memory) {\n        uint256 allItemsCount = _allRetirements.length;\n        RetirementItem[] memory items = new RetirementItem[](allItemsCount);\n\n        for (uint256 i = 0; i < allItemsCount; i++) {\n            uint256 tokenId = tokenByIndex(i);\n            RetirementItem storage item = _idToRetirementItem[tokenId];\n            items[i] = item;\n        }\n\n        return items;\n    }\n\n    function tokenOfOwnerByIndex(\n        address owner,\n        uint256 index\n    ) public view returns (uint256) {\n        require(index < ERC721.balanceOf(owner), \"Index out of bounds\");\n        return _ownedTokens[owner][index];\n    }\n\n    function tokenByIndex(uint256 index) public view returns (uint256) {\n        require(index < totalSupply(), \"Index out of bounds\");\n        return _allRetirements[index];\n    }\n\n    function totalSupply() public view returns (uint256) {\n        return _allRetirements.length;\n    }\n\n    function certificateRetirement(\n        uint256 tokenId,\n        string memory tokenUri\n    ) public {\n        _idToRetirementItem[tokenId].isCertificated = true;\n        _setTokenURI(tokenId, tokenUri);\n    }\n\n    function _createRetirementItem(\n        uint256 tokenId,\n        uint256 projectId,\n        uint256 amount\n    ) private {\n        _idToRetirementItem[tokenId] = RetirementItem({\n            tokenId: tokenId,\n            amount: amount,\n            owner: msg.sender,\n            projectId: projectId,\n            timestamp: block.timestamp,\n            isCertificated: false\n        });\n\n        // _addTokenToAllTokensEnumeration(tokenId);\n        // _addTokenToOwnerEnumeration(msg.sender, tokenId);\n    }\n\n    function _beforeTokenTransfer(\n        address from,\n        address to,\n        uint256 tokenId,\n        uint256 amount\n    ) internal virtual override {\n        super._beforeTokenTransfer(from, to, tokenId, amount);\n\n        if (from == address(0)) {\n            // mint\n            _addTokenToAllTokensEnumeration(tokenId);\n        }\n\n        if (to != address(0)) {\n            _addTokenToOwnerEnumeration(to, tokenId);\n        }\n    }\n\n    function _addTokenToAllTokensEnumeration(uint256 tokenId) private {\n        _idToRetirementIndex[tokenId] = _allRetirements.length;\n        _allRetirements.push(tokenId);\n    }\n\n    function _addTokenToOwnerEnumeration(address to, uint256 tokenId) private {\n        uint256 length = ERC721.balanceOf(to);\n        _ownedTokens[to][length] = tokenId;\n        _idToOwnedIndex[tokenId] = length;\n    }\n}\n",
  "sourcePath": "/Users/buudinhha/Vscode/DATN/main/contracts/Retirement.sol",
  "compiler": {
    "name": "solc",
    "version": "0.8.13+commit.abaa5c0e.Emscripten.clang"
  },
  "schemaVersion": "3.4.16",
  "updatedAt": "2024-06-29T05:11:25.913Z",
  "networkType": "ethereum",
  "devdoc": {
    "kind": "dev",
    "methods": {
      "approve(address,uint256)": {
        "details": "See {IERC721-approve}."
      },
      "balanceOf(address)": {
        "details": "See {IERC721-balanceOf}."
      },
      "getApproved(uint256)": {
        "details": "See {IERC721-getApproved}."
      },
      "isApprovedForAll(address,address)": {
        "details": "See {IERC721-isApprovedForAll}."
      },
      "name()": {
        "details": "See {IERC721Metadata-name}."
      },
      "ownerOf(uint256)": {
        "details": "See {IERC721-ownerOf}."
      },
      "safeTransferFrom(address,address,uint256)": {
        "details": "See {IERC721-safeTransferFrom}."
      },
      "safeTransferFrom(address,address,uint256,bytes)": {
        "details": "See {IERC721-safeTransferFrom}."
      },
      "setApprovalForAll(address,bool)": {
        "details": "See {IERC721-setApprovalForAll}."
      },
      "supportsInterface(bytes4)": {
        "details": "See {IERC165-supportsInterface}"
      },
      "symbol()": {
        "details": "See {IERC721Metadata-symbol}."
      },
      "tokenURI(uint256)": {
        "details": "See {IERC721Metadata-tokenURI}."
      },
      "transferFrom(address,address,uint256)": {
        "details": "See {IERC721-transferFrom}."
      }
    },
    "version": 1
  },
  "userdoc": {
    "kind": "user",
    "methods": {},
    "version": 1
  }
}