{
  "contractName": "Retirement",
  "abi": [
    {
      "inputs": [
        {
          "internalType": "address",
          "name": "_marketAddress",
          "type": "address"
        }
      ],
      "stateMutability": "nonpayable",
      "type": "constructor"
    },
    {
      "anonymous": false,
      "inputs": [
        {
          "indexed": true,
          "internalType": "address",
          "name": "owner",
          "type": "address"
        },
        {
          "indexed": true,
          "internalType": "address",
          "name": "approved",
          "type": "address"
        },
        {
          "indexed": true,
          "internalType": "uint256",
          "name": "tokenId",
          "type": "uint256"
        }
      ],
      "name": "Approval",
      "type": "event"
    },
    {
      "anonymous": false,
      "inputs": [
        {
          "indexed": true,
          "internalType": "address",
          "name": "owner",
          "type": "address"
        },
        {
          "indexed": true,
          "internalType": "address",
          "name": "operator",
          "type": "address"
        },
        {
          "indexed": false,
          "internalType": "bool",
          "name": "approved",
          "type": "bool"
        }
      ],
      "name": "ApprovalForAll",
      "type": "event"
    },
    {
      "anonymous": false,
      "inputs": [
        {
          "indexed": false,
          "internalType": "uint256",
          "name": "_fromTokenId",
          "type": "uint256"
        },
        {
          "indexed": false,
          "internalType": "uint256",
          "name": "_toTokenId",
          "type": "uint256"
        }
      ],
      "name": "BatchMetadataUpdate",
      "type": "event"
    },
    {
      "anonymous": false,
      "inputs": [
        {
          "indexed": false,
          "internalType": "uint256",
          "name": "_tokenId",
          "type": "uint256"
        }
      ],
      "name": "MetadataUpdate",
      "type": "event"
    },
    {
      "anonymous": false,
      "inputs": [
        {
          "indexed": true,
          "internalType": "address",
          "name": "previousOwner",
          "type": "address"
        },
        {
          "indexed": true,
          "internalType": "address",
          "name": "newOwner",
          "type": "address"
        }
      ],
      "name": "OwnershipTransferred",
      "type": "event"
    },
    {
      "anonymous": false,
      "inputs": [
        {
          "indexed": false,
          "internalType": "uint256",
          "name": "tokenId",
          "type": "uint256"
        },
        {
          "indexed": false,
          "internalType": "uint256",
          "name": "projectId",
          "type": "uint256"
        },
        {
          "indexed": false,
          "internalType": "uint256",
          "name": "amount",
          "type": "uint256"
        }
      ],
      "name": "RetirementItemCreated",
      "type": "event"
    },
    {
      "anonymous": false,
      "inputs": [
        {
          "indexed": true,
          "internalType": "address",
          "name": "from",
          "type": "address"
        },
        {
          "indexed": true,
          "internalType": "address",
          "name": "to",
          "type": "address"
        },
        {
          "indexed": true,
          "internalType": "uint256",
          "name": "tokenId",
          "type": "uint256"
        }
      ],
      "name": "Transfer",
      "type": "event"
    },
    {
      "inputs": [
        {
          "internalType": "address",
          "name": "to",
          "type": "address"
        },
        {
          "internalType": "uint256",
          "name": "tokenId",
          "type": "uint256"
        }
      ],
      "name": "approve",
      "outputs": [],
      "stateMutability": "nonpayable",
      "type": "function"
    },
    {
      "inputs": [
        {
          "internalType": "address",
          "name": "owner",
          "type": "address"
        }
      ],
      "name": "balanceOf",
      "outputs": [
        {
          "internalType": "uint256",
          "name": "",
          "type": "uint256"
        }
      ],
      "stateMutability": "view",
      "type": "function",
      "constant": true
    },
    {
      "inputs": [
        {
          "internalType": "uint256",
          "name": "tokenId",
          "type": "uint256"
        }
      ],
      "name": "getApproved",
      "outputs": [
        {
          "internalType": "address",
          "name": "",
          "type": "address"
        }
      ],
      "stateMutability": "view",
      "type": "function",
      "constant": true
    },
    {
      "inputs": [
        {
          "internalType": "address",
          "name": "owner",
          "type": "address"
        },
        {
          "internalType": "address",
          "name": "operator",
          "type": "address"
        }
      ],
      "name": "isApprovedForAll",
      "outputs": [
        {
          "internalType": "bool",
          "name": "",
          "type": "bool"
        }
      ],
      "stateMutability": "view",
      "type": "function",
      "constant": true
    },
    {
      "inputs": [],
      "name": "name",
      "outputs": [
        {
          "internalType": "string",
          "name": "",
          "type": "string"
        }
      ],
      "stateMutability": "view",
      "type": "function",
      "constant": true
    },
    {
      "inputs": [],
      "name": "owner",
      "outputs": [
        {
          "internalType": "address",
          "name": "",
          "type": "address"
        }
      ],
      "stateMutability": "view",
      "type": "function",
      "constant": true
    },
    {
      "inputs": [
        {
          "internalType": "uint256",
          "name": "tokenId",
          "type": "uint256"
        }
      ],
      "name": "ownerOf",
      "outputs": [
        {
          "internalType": "address",
          "name": "",
          "type": "address"
        }
      ],
      "stateMutability": "view",
      "type": "function",
      "constant": true
    },
    {
      "inputs": [],
      "name": "renounceOwnership",
      "outputs": [],
      "stateMutability": "nonpayable",
      "type": "function"
    },
    {
      "inputs": [
        {
          "internalType": "address",
          "name": "from",
          "type": "address"
        },
        {
          "internalType": "address",
          "name": "to",
          "type": "address"
        },
        {
          "internalType": "uint256",
          "name": "tokenId",
          "type": "uint256"
        }
      ],
      "name": "safeTransferFrom",
      "outputs": [],
      "stateMutability": "nonpayable",
      "type": "function"
    },
    {
      "inputs": [
        {
          "internalType": "address",
          "name": "from",
          "type": "address"
        },
        {
          "internalType": "address",
          "name": "to",
          "type": "address"
        },
        {
          "internalType": "uint256",
          "name": "tokenId",
          "type": "uint256"
        },
        {
          "internalType": "bytes",
          "name": "data",
          "type": "bytes"
        }
      ],
      "name": "safeTransferFrom",
      "outputs": [],
      "stateMutability": "nonpayable",
      "type": "function"
    },
    {
      "inputs": [
        {
          "internalType": "address",
          "name": "operator",
          "type": "address"
        },
        {
          "internalType": "bool",
          "name": "approved",
          "type": "bool"
        }
      ],
      "name": "setApprovalForAll",
      "outputs": [],
      "stateMutability": "nonpayable",
      "type": "function"
    },
    {
      "inputs": [
        {
          "internalType": "bytes4",
          "name": "interfaceId",
          "type": "bytes4"
        }
      ],
      "name": "supportsInterface",
      "outputs": [
        {
          "internalType": "bool",
          "name": "",
          "type": "bool"
        }
      ],
      "stateMutability": "view",
      "type": "function",
      "constant": true
    },
    {
      "inputs": [],
      "name": "symbol",
      "outputs": [
        {
          "internalType": "string",
          "name": "",
          "type": "string"
        }
      ],
      "stateMutability": "view",
      "type": "function",
      "constant": true
    },
    {
      "inputs": [
        {
          "internalType": "uint256",
          "name": "tokenId",
          "type": "uint256"
        }
      ],
      "name": "tokenURI",
      "outputs": [
        {
          "internalType": "string",
          "name": "",
          "type": "string"
        }
      ],
      "stateMutability": "view",
      "type": "function",
      "constant": true
    },
    {
      "inputs": [
        {
          "internalType": "address",
          "name": "from",
          "type": "address"
        },
        {
          "internalType": "address",
          "name": "to",
          "type": "address"
        },
        {
          "internalType": "uint256",
          "name": "tokenId",
          "type": "uint256"
        }
      ],
      "name": "transferFrom",
      "outputs": [],
      "stateMutability": "nonpayable",
      "type": "function"
    },
    {
      "inputs": [
        {
          "internalType": "address",
          "name": "newOwner",
          "type": "address"
        }
      ],
      "name": "transferOwnership",
      "outputs": [],
      "stateMutability": "nonpayable",
      "type": "function"
    },
    {
      "inputs": [
        {
          "internalType": "uint256",
          "name": "projectId",
          "type": "uint256"
        },
        {
          "internalType": "uint256",
          "name": "amount",
          "type": "uint256"
        },
        {
          "internalType": "string",
          "name": "uri",
          "type": "string"
        }
      ],
      "name": "retireCredits",
      "outputs": [],
      "stateMutability": "nonpayable",
      "type": "function"
    },
    {
      "inputs": [
        {
          "internalType": "uint256",
          "name": "tokenId",
          "type": "uint256"
        }
      ],
      "name": "getRetirementItem",
      "outputs": [
        {
          "components": [
            {
              "internalType": "uint256",
              "name": "tokenId",
              "type": "uint256"
            },
            {
              "internalType": "uint256",
              "name": "amount",
              "type": "uint256"
            },
            {
              "internalType": "address",
              "name": "owner",
              "type": "address"
            },
            {
              "internalType": "uint256",
              "name": "projectId",
              "type": "uint256"
            },
            {
              "internalType": "uint256",
              "name": "timestamp",
              "type": "uint256"
            }
          ],
          "internalType": "struct Retirement.RetirementItem",
          "name": "",
          "type": "tuple"
        }
      ],
      "stateMutability": "view",
      "type": "function",
      "constant": true
    },
    {
      "inputs": [],
      "name": "getOwnedRetirements",
      "outputs": [
        {
          "components": [
            {
              "internalType": "uint256",
              "name": "tokenId",
              "type": "uint256"
            },
            {
              "internalType": "uint256",
              "name": "amount",
              "type": "uint256"
            },
            {
              "internalType": "address",
              "name": "owner",
              "type": "address"
            },
            {
              "internalType": "uint256",
              "name": "projectId",
              "type": "uint256"
            },
            {
              "internalType": "uint256",
              "name": "timestamp",
              "type": "uint256"
            }
          ],
          "internalType": "struct Retirement.RetirementItem[]",
          "name": "",
          "type": "tuple[]"
        }
      ],
      "stateMutability": "view",
      "type": "function",
      "constant": true
    },
    {
      "inputs": [],
      "name": "getAllRetirements",
      "outputs": [
        {
          "components": [
            {
              "internalType": "uint256",
              "name": "tokenId",
              "type": "uint256"
            },
            {
              "internalType": "uint256",
              "name": "amount",
              "type": "uint256"
            },
            {
              "internalType": "address",
              "name": "owner",
              "type": "address"
            },
            {
              "internalType": "uint256",
              "name": "projectId",
              "type": "uint256"
            },
            {
              "internalType": "uint256",
              "name": "timestamp",
              "type": "uint256"
            }
          ],
          "internalType": "struct Retirement.RetirementItem[]",
          "name": "",
          "type": "tuple[]"
        }
      ],
      "stateMutability": "view",
      "type": "function",
      "constant": true
    },
    {
      "inputs": [
        {
          "internalType": "address",
          "name": "owner",
          "type": "address"
        },
        {
          "internalType": "uint256",
          "name": "index",
          "type": "uint256"
        }
      ],
      "name": "tokenOfOwnerByIndex",
      "outputs": [
        {
          "internalType": "uint256",
          "name": "",
          "type": "uint256"
        }
      ],
      "stateMutability": "view",
      "type": "function",
      "constant": true
    },
    {
      "inputs": [
        {
          "internalType": "uint256",
          "name": "index",
          "type": "uint256"
        }
      ],
      "name": "tokenByIndex",
      "outputs": [
        {
          "internalType": "uint256",
          "name": "",
          "type": "uint256"
        }
      ],
      "stateMutability": "view",
      "type": "function",
      "constant": true
    },
    {
      "inputs": [],
      "name": "totalSupply",
      "outputs": [
        {
          "internalType": "uint256",
          "name": "",
          "type": "uint256"
        }
      ],
      "stateMutability": "view",
      "type": "function",
      "constant": true
    }
  ],
  "bytecode": "0x60806040523480156200001157600080fd5b5060405162003ce338038062003ce3833981810160405281019062000037919062000327565b6040518060400160405280600f81526020017f5265746972656d656e74546f6b656e00000000000000000000000000000000008152506040518060400160405280600281526020017f52540000000000000000000000000000000000000000000000000000000000008152508160009080519060200190620000bb9291906200020d565b508060019080519060200190620000d49291906200020d565b505050620000f7620000eb6200013f60201b60201c565b6200014760201b60201c565b80600e60006101000a81548173ffffffffffffffffffffffffffffffffffffffff021916908373ffffffffffffffffffffffffffffffffffffffff16021790555050620003bd565b600033905090565b6000600760009054906101000a900473ffffffffffffffffffffffffffffffffffffffff16905081600760006101000a81548173ffffffffffffffffffffffffffffffffffffffff021916908373ffffffffffffffffffffffffffffffffffffffff1602179055508173ffffffffffffffffffffffffffffffffffffffff168173ffffffffffffffffffffffffffffffffffffffff167f8be0079c531659141344cd1fd0a4f28419497f9722a3daafe3b4186f6b6457e060405160405180910390a35050565b8280546200021b9062000388565b90600052602060002090601f0160209004810192826200023f57600085556200028b565b82601f106200025a57805160ff19168380011785556200028b565b828001600101855582156200028b579182015b828111156200028a5782518255916020019190600101906200026d565b5b5090506200029a91906200029e565b5090565b5b80821115620002b95760008160009055506001016200029f565b5090565b600080fd5b600073ffffffffffffffffffffffffffffffffffffffff82169050919050565b6000620002ef82620002c2565b9050919050565b6200030181620002e2565b81146200030d57600080fd5b50565b6000815190506200032181620002f6565b92915050565b60006020828403121562000340576200033f620002bd565b5b6000620003508482850162000310565b91505092915050565b7f4e487b7100000000000000000000000000000000000000000000000000000000600052602260045260246000fd5b60006002820490506001821680620003a157607f821691505b602082108103620003b757620003b662000359565b5b50919050565b61391680620003cd6000396000f3fe608060405234801561001057600080fd5b506004361061014d5760003560e01c806370a08231116100c3578063b88d4fde1161007c578063b88d4fde146103b2578063c081ec96146103ce578063c87b56dd146103ea578063dff6e3231461041a578063e985e9c514610438578063f2fde38b146104685761014d565b806370a0823114610302578063715018a6146103325780638da5cb5b1461033c57806395d89b411461035a578063a22cb46514610378578063b63a1ac0146103945761014d565b806323b872dd1161011557806323b872dd1461020a57806327f191c4146102265780632f745c591461025657806342842e0e146102865780634f6ccce7146102a25780636352211e146102d25761014d565b806301ffc9a71461015257806306fdde0314610182578063081812fc146101a0578063095ea7b3146101d057806318160ddd146101ec575b600080fd5b61016c6004803603810190610167919061260f565b610484565b6040516101799190612657565b60405180910390f35b61018a6104e5565b604051610197919061270b565b60405180910390f35b6101ba60048036038101906101b59190612763565b610577565b6040516101c791906127d1565b60405180910390f35b6101ea60048036038101906101e59190612818565b6105bd565b005b6101f46106d4565b6040516102019190612867565b60405180910390f35b610224600480360381019061021f9190612882565b6106e1565b005b610240600480360381019061023b9190612763565b610741565b60405161024d919061295b565b60405180910390f35b610270600480360381019061026b9190612818565b6107ec565b60405161027d9190612867565b60405180910390f35b6102a0600480360381019061029b9190612882565b610891565b005b6102bc60048036038101906102b79190612763565b6108b1565b6040516102c99190612867565b60405180910390f35b6102ec60048036038101906102e79190612763565b610922565b6040516102f991906127d1565b60405180910390f35b61031c60048036038101906103179190612976565b6109a8565b6040516103299190612867565b60405180910390f35b61033a610a5f565b005b610344610a73565b60405161035191906127d1565b60405180910390f35b610362610a9d565b60405161036f919061270b565b60405180910390f35b610392600480360381019061038d91906129cf565b610b2f565b005b61039c610b45565b6040516103a99190612b26565b60405180910390f35b6103cc60048036038101906103c79190612c7d565b610ca2565b005b6103e860048036038101906103e39190612da1565b610d04565b005b61040460048036038101906103ff9190612763565b610e14565b604051610411919061270b565b60405180910390f35b610422610f26565b60405161042f9190612b26565b60405180910390f35b610452600480360381019061044d9190612e10565b61107f565b60405161045f9190612657565b60405180910390f35b610482600480360381019061047d9190612976565b611113565b005b6000634906490660e01b7bffffffffffffffffffffffffffffffffffffffffffffffffffffffff1916827bffffffffffffffffffffffffffffffffffffffffffffffffffffffff191614806104de57506104dd82611196565b5b9050919050565b6060600080546104f490612e7f565b80601f016020809104026020016040519081016040528092919081815260200182805461052090612e7f565b801561056d5780601f106105425761010080835404028352916020019161056d565b820191906000526020600020905b81548152906001019060200180831161055057829003601f168201915b5050505050905090565b600061058282611278565b6004600083815260200190815260200160002060009054906101000a900473ffffffffffffffffffffffffffffffffffffffff169050919050565b60006105c882610922565b90508073ffffffffffffffffffffffffffffffffffffffff168373ffffffffffffffffffffffffffffffffffffffff1603610638576040517f08c379a000000000000000000000000000000000000000000000000000000000815260040161062f90612f22565b60405180910390fd5b8073ffffffffffffffffffffffffffffffffffffffff166106576112c3565b73ffffffffffffffffffffffffffffffffffffffff1614806106865750610685816106806112c3565b61107f565b5b6106c5576040517f08c379a00000000000000000000000000000000000000000000000000000000081526004016106bc90612fb4565b60405180910390fd5b6106cf83836112cb565b505050565b6000600c80549050905090565b6106f26106ec6112c3565b82611384565b610731576040517f08c379a000000000000000000000000000000000000000000000000000000000815260040161072890613046565b60405180910390fd5b61073c838383611419565b505050565b6107496124bb565b600960008381526020019081526020016000206040518060a001604052908160008201548152602001600182015481526020016002820160009054906101000a900473ffffffffffffffffffffffffffffffffffffffff1673ffffffffffffffffffffffffffffffffffffffff1673ffffffffffffffffffffffffffffffffffffffff168152602001600382015481526020016004820154815250509050919050565b60006107f7836109a8565b8210610838576040517f08c379a000000000000000000000000000000000000000000000000000000000815260040161082f906130b2565b60405180910390fd5b600a60008473ffffffffffffffffffffffffffffffffffffffff1673ffffffffffffffffffffffffffffffffffffffff168152602001908152602001600020600083815260200190815260200160002054905092915050565b6108ac83838360405180602001604052806000815250610ca2565b505050565b60006108bb6106d4565b82106108fc576040517f08c379a00000000000000000000000000000000000000000000000000000000081526004016108f3906130b2565b60405180910390fd5b600c82815481106109105761090f6130d2565b5b90600052602060002001549050919050565b60008061092e83611712565b9050600073ffffffffffffffffffffffffffffffffffffffff168173ffffffffffffffffffffffffffffffffffffffff160361099f576040517f08c379a00000000000000000000000000000000000000000000000000000000081526004016109969061314d565b60405180910390fd5b80915050919050565b60008073ffffffffffffffffffffffffffffffffffffffff168273ffffffffffffffffffffffffffffffffffffffff1603610a18576040517f08c379a0000000000000000000000000000000000000000000000000000000008152600401610a0f906131df565b60405180910390fd5b600360008373ffffffffffffffffffffffffffffffffffffffff1673ffffffffffffffffffffffffffffffffffffffff168152602001908152602001600020549050919050565b610a6761174f565b610a7160006117cd565b565b6000600760009054906101000a900473ffffffffffffffffffffffffffffffffffffffff16905090565b606060018054610aac90612e7f565b80601f0160208091040260200160405190810160405280929190818152602001828054610ad890612e7f565b8015610b255780601f10610afa57610100808354040283529160200191610b25565b820191906000526020600020905b815481529060010190602001808311610b0857829003601f168201915b5050505050905090565b610b41610b3a6112c3565b8383611893565b5050565b60606000610b52336109a8565b905060008167ffffffffffffffff811115610b7057610b6f612b52565b5b604051908082528060200260200182016040528015610ba957816020015b610b966124bb565b815260200190600190039081610b8e5790505b50905060005b82811015610c99576000610bc333836107ec565b90506000600960008381526020019081526020016000209050806040518060a001604052908160008201548152602001600182015481526020016002820160009054906101000a900473ffffffffffffffffffffffffffffffffffffffff1673ffffffffffffffffffffffffffffffffffffffff1673ffffffffffffffffffffffffffffffffffffffff16815260200160038201548152602001600482015481525050848481518110610c7957610c786130d2565b5b602002602001018190525050508080610c919061322e565b915050610baf565b50809250505090565b610cb3610cad6112c3565b83611384565b610cf2576040517f08c379a0000000000000000000000000000000000000000000000000000000008152600401610ce990613046565b60405180910390fd5b610cfe848484846119ff565b50505050565b600e60009054906101000a900473ffffffffffffffffffffffffffffffffffffffff1673ffffffffffffffffffffffffffffffffffffffff1663d7896e6d3385856040518463ffffffff1660e01b8152600401610d6393929190613276565b600060405180830381600087803b158015610d7d57600080fd5b505af1158015610d91573d6000803e3d6000fd5b5050505060086000815480929190610da89061322e565b919050555060006008549050610dbe3382611a5b565b610dc88183611a79565b610dd3818585611b24565b7f3f1f14faa7aa3fcc2b76f03baa92d5c2ac80c7d3b68bf849f204d195613146ef818585604051610e06939291906132ad565b60405180910390a150505050565b6060610e1f82611278565b6000600660008481526020019081526020016000208054610e3f90612e7f565b80601f0160208091040260200160405190810160405280929190818152602001828054610e6b90612e7f565b8015610eb85780601f10610e8d57610100808354040283529160200191610eb8565b820191906000526020600020905b815481529060010190602001808311610e9b57829003601f168201915b505050505090506000610ec9611beb565b90506000815103610ede578192505050610f21565b600082511115610f13578082604051602001610efb929190613320565b60405160208183030381529060405292505050610f21565b610f1c84611c02565b925050505b919050565b60606000600c80549050905060008167ffffffffffffffff811115610f4e57610f4d612b52565b5b604051908082528060200260200182016040528015610f8757816020015b610f746124bb565b815260200190600190039081610f6c5790505b50905060005b82811015611076576000610fa0826108b1565b90506000600960008381526020019081526020016000209050806040518060a001604052908160008201548152602001600182015481526020016002820160009054906101000a900473ffffffffffffffffffffffffffffffffffffffff1673ffffffffffffffffffffffffffffffffffffffff1673ffffffffffffffffffffffffffffffffffffffff16815260200160038201548152602001600482015481525050848481518110611056576110556130d2565b5b60200260200101819052505050808061106e9061322e565b915050610f8d565b50809250505090565b6000600560008473ffffffffffffffffffffffffffffffffffffffff1673ffffffffffffffffffffffffffffffffffffffff16815260200190815260200160002060008373ffffffffffffffffffffffffffffffffffffffff1673ffffffffffffffffffffffffffffffffffffffff16815260200190815260200160002060009054906101000a900460ff16905092915050565b61111b61174f565b600073ffffffffffffffffffffffffffffffffffffffff168173ffffffffffffffffffffffffffffffffffffffff160361118a576040517f08c379a0000000000000000000000000000000000000000000000000000000008152600401611181906133b6565b60405180910390fd5b611193816117cd565b50565b60007f80ac58cd000000000000000000000000000000000000000000000000000000007bffffffffffffffffffffffffffffffffffffffffffffffffffffffff1916827bffffffffffffffffffffffffffffffffffffffffffffffffffffffff1916148061126157507f5b5e139f000000000000000000000000000000000000000000000000000000007bffffffffffffffffffffffffffffffffffffffffffffffffffffffff1916827bffffffffffffffffffffffffffffffffffffffffffffffffffffffff1916145b80611271575061127082611c6a565b5b9050919050565b61128181611cd4565b6112c0576040517f08c379a00000000000000000000000000000000000000000000000000000000081526004016112b79061314d565b60405180910390fd5b50565b600033905090565b816004600083815260200190815260200160002060006101000a81548173ffffffffffffffffffffffffffffffffffffffff021916908373ffffffffffffffffffffffffffffffffffffffff160217905550808273ffffffffffffffffffffffffffffffffffffffff1661133e83610922565b73ffffffffffffffffffffffffffffffffffffffff167f8c5be1e5ebec7d5bd14f71427d1e84f3dd0314c0f7b2291e5b200ac8c7c3b92560405160405180910390a45050565b60008061139083610922565b90508073ffffffffffffffffffffffffffffffffffffffff168473ffffffffffffffffffffffffffffffffffffffff1614806113d257506113d1818561107f565b5b8061141057508373ffffffffffffffffffffffffffffffffffffffff166113f884610577565b73ffffffffffffffffffffffffffffffffffffffff16145b91505092915050565b8273ffffffffffffffffffffffffffffffffffffffff1661143982610922565b73ffffffffffffffffffffffffffffffffffffffff161461148f576040517f08c379a000000000000000000000000000000000000000000000000000000000815260040161148690613448565b60405180910390fd5b600073ffffffffffffffffffffffffffffffffffffffff168273ffffffffffffffffffffffffffffffffffffffff16036114fe576040517f08c379a00000000000000000000000000000000000000000000000000000000081526004016114f5906134da565b60405180910390fd5b61150b8383836001611d15565b8273ffffffffffffffffffffffffffffffffffffffff1661152b82610922565b73ffffffffffffffffffffffffffffffffffffffff1614611581576040517f08c379a000000000000000000000000000000000000000000000000000000000815260040161157890613448565b60405180910390fd5b6004600082815260200190815260200160002060006101000a81549073ffffffffffffffffffffffffffffffffffffffff02191690556001600360008573ffffffffffffffffffffffffffffffffffffffff1673ffffffffffffffffffffffffffffffffffffffff168152602001908152602001600020600082825403925050819055506001600360008473ffffffffffffffffffffffffffffffffffffffff1673ffffffffffffffffffffffffffffffffffffffff16815260200190815260200160002060008282540192505081905550816002600083815260200190815260200160002060006101000a81548173ffffffffffffffffffffffffffffffffffffffff021916908373ffffffffffffffffffffffffffffffffffffffff160217905550808273ffffffffffffffffffffffffffffffffffffffff168473ffffffffffffffffffffffffffffffffffffffff167fddf252ad1be2c89b69c2b068fc378daa952ba7f163c4a11628f55a4df523b3ef60405160405180910390a461170d8383836001611da4565b505050565b60006002600083815260200190815260200160002060009054906101000a900473ffffffffffffffffffffffffffffffffffffffff169050919050565b6117576112c3565b73ffffffffffffffffffffffffffffffffffffffff16611775610a73565b73ffffffffffffffffffffffffffffffffffffffff16146117cb576040517f08c379a00000000000000000000000000000000000000000000000000000000081526004016117c290613546565b60405180910390fd5b565b6000600760009054906101000a900473ffffffffffffffffffffffffffffffffffffffff16905081600760006101000a81548173ffffffffffffffffffffffffffffffffffffffff021916908373ffffffffffffffffffffffffffffffffffffffff1602179055508173ffffffffffffffffffffffffffffffffffffffff168173ffffffffffffffffffffffffffffffffffffffff167f8be0079c531659141344cd1fd0a4f28419497f9722a3daafe3b4186f6b6457e060405160405180910390a35050565b8173ffffffffffffffffffffffffffffffffffffffff168373ffffffffffffffffffffffffffffffffffffffff1603611901576040517f08c379a00000000000000000000000000000000000000000000000000000000081526004016118f8906135b2565b60405180910390fd5b80600560008573ffffffffffffffffffffffffffffffffffffffff1673ffffffffffffffffffffffffffffffffffffffff16815260200190815260200160002060008473ffffffffffffffffffffffffffffffffffffffff1673ffffffffffffffffffffffffffffffffffffffff16815260200190815260200160002060006101000a81548160ff0219169083151502179055508173ffffffffffffffffffffffffffffffffffffffff168373ffffffffffffffffffffffffffffffffffffffff167f17307eab39ab6107e8899845ad3d59bd9653f200f220920489ca2b5937696c31836040516119f29190612657565b60405180910390a3505050565b611a0a848484611419565b611a1684848484611daa565b611a55576040517f08c379a0000000000000000000000000000000000000000000000000000000008152600401611a4c90613644565b60405180910390fd5b50505050565b611a75828260405180602001604052806000815250611f31565b5050565b611a8282611cd4565b611ac1576040517f08c379a0000000000000000000000000000000000000000000000000000000008152600401611ab8906136d6565b60405180910390fd5b80600660008481526020019081526020016000209080519060200190611ae8929190612500565b507ff8e1a15aba9398e019f0b49df1a4fde98ee17ae345cb5f6b5e2c27f5033e8ce782604051611b189190612867565b60405180910390a15050565b6040518060a001604052808481526020018281526020013373ffffffffffffffffffffffffffffffffffffffff1681526020018381526020014281525060096000858152602001908152602001600020600082015181600001556020820151816001015560408201518160020160006101000a81548173ffffffffffffffffffffffffffffffffffffffff021916908373ffffffffffffffffffffffffffffffffffffffff1602179055506060820151816003015560808201518160040155905050505050565b606060405180602001604052806000815250905090565b6060611c0d82611278565b6000611c17611beb565b90506000815111611c375760405180602001604052806000815250611c62565b80611c4184611f8c565b604051602001611c52929190613320565b6040516020818303038152906040525b915050919050565b60007f01ffc9a7000000000000000000000000000000000000000000000000000000007bffffffffffffffffffffffffffffffffffffffffffffffffffffffff1916827bffffffffffffffffffffffffffffffffffffffffffffffffffffffff1916149050919050565b60008073ffffffffffffffffffffffffffffffffffffffff16611cf683611712565b73ffffffffffffffffffffffffffffffffffffffff1614159050919050565b611d218484848461205a565b600073ffffffffffffffffffffffffffffffffffffffff168473ffffffffffffffffffffffffffffffffffffffff1603611d5f57611d5e82612060565b5b600073ffffffffffffffffffffffffffffffffffffffff168373ffffffffffffffffffffffffffffffffffffffff1614611d9e57611d9d83836120a9565b5b50505050565b50505050565b6000611dcb8473ffffffffffffffffffffffffffffffffffffffff16612128565b15611f24578373ffffffffffffffffffffffffffffffffffffffff1663150b7a02611df46112c3565b8786866040518563ffffffff1660e01b8152600401611e16949392919061374b565b6020604051808303816000875af1925050508015611e5257506040513d601f19601f82011682018060405250810190611e4f91906137ac565b60015b611ed4573d8060008114611e82576040519150601f19603f3d011682016040523d82523d6000602084013e611e87565b606091505b506000815103611ecc576040517f08c379a0000000000000000000000000000000000000000000000000000000008152600401611ec390613644565b60405180910390fd5b805181602001fd5b63150b7a0260e01b7bffffffffffffffffffffffffffffffffffffffffffffffffffffffff1916817bffffffffffffffffffffffffffffffffffffffffffffffffffffffff191614915050611f29565b600190505b949350505050565b611f3b838361214b565b611f486000848484611daa565b611f87576040517f08c379a0000000000000000000000000000000000000000000000000000000008152600401611f7e90613644565b60405180910390fd5b505050565b606060006001611f9b84612368565b01905060008167ffffffffffffffff811115611fba57611fb9612b52565b5b6040519080825280601f01601f191660200182016040528015611fec5781602001600182028036833780820191505090505b509050600082602001820190505b60011561204f578080600190039150507f3031323334353637383961626364656600000000000000000000000000000000600a86061a8153600a8581612043576120426137d9565b5b04945060008503611ffa575b819350505050919050565b50505050565b600c80549050600d600083815260200190815260200160002081905550600c81908060018154018082558091505060019003906000526020600020016000909190919091505550565b60006120b4836109a8565b905081600a60008573ffffffffffffffffffffffffffffffffffffffff1673ffffffffffffffffffffffffffffffffffffffff16815260200190815260200160002060008381526020019081526020016000208190555080600b600084815260200190815260200160002081905550505050565b6000808273ffffffffffffffffffffffffffffffffffffffff163b119050919050565b600073ffffffffffffffffffffffffffffffffffffffff168273ffffffffffffffffffffffffffffffffffffffff16036121ba576040517f08c379a00000000000000000000000000000000000000000000000000000000081526004016121b190613854565b60405180910390fd5b6121c381611cd4565b15612203576040517f08c379a00000000000000000000000000000000000000000000000000000000081526004016121fa906138c0565b60405180910390fd5b612211600083836001611d15565b61221a81611cd4565b1561225a576040517f08c379a0000000000000000000000000000000000000000000000000000000008152600401612251906138c0565b60405180910390fd5b6001600360008473ffffffffffffffffffffffffffffffffffffffff1673ffffffffffffffffffffffffffffffffffffffff16815260200190815260200160002060008282540192505081905550816002600083815260200190815260200160002060006101000a81548173ffffffffffffffffffffffffffffffffffffffff021916908373ffffffffffffffffffffffffffffffffffffffff160217905550808273ffffffffffffffffffffffffffffffffffffffff16600073ffffffffffffffffffffffffffffffffffffffff167fddf252ad1be2c89b69c2b068fc378daa952ba7f163c4a11628f55a4df523b3ef60405160405180910390a4612364600083836001611da4565b5050565b600080600090507a184f03e93ff9f4daa797ed6e38ed64bf6a1f01000000000000000083106123c6577a184f03e93ff9f4daa797ed6e38ed64bf6a1f01000000000000000083816123bc576123bb6137d9565b5b0492506040810190505b6d04ee2d6d415b85acef81000000008310612403576d04ee2d6d415b85acef810000000083816123f9576123f86137d9565b5b0492506020810190505b662386f26fc10000831061243257662386f26fc100008381612428576124276137d9565b5b0492506010810190505b6305f5e100831061245b576305f5e1008381612451576124506137d9565b5b0492506008810190505b6127108310612480576127108381612476576124756137d9565b5b0492506004810190505b606483106124a35760648381612499576124986137d9565b5b0492506002810190505b600a83106124b2576001810190505b80915050919050565b6040518060a001604052806000815260200160008152602001600073ffffffffffffffffffffffffffffffffffffffff16815260200160008152602001600081525090565b82805461250c90612e7f565b90600052602060002090601f01602090048101928261252e5760008555612575565b82601f1061254757805160ff1916838001178555612575565b82800160010185558215612575579182015b82811115612574578251825591602001919060010190612559565b5b5090506125829190612586565b5090565b5b8082111561259f576000816000905550600101612587565b5090565b6000604051905090565b600080fd5b600080fd5b60007fffffffff0000000000000000000000000000000000000000000000000000000082169050919050565b6125ec816125b7565b81146125f757600080fd5b50565b600081359050612609816125e3565b92915050565b600060208284031215612625576126246125ad565b5b6000612633848285016125fa565b91505092915050565b60008115159050919050565b6126518161263c565b82525050565b600060208201905061266c6000830184612648565b92915050565b600081519050919050565b600082825260208201905092915050565b60005b838110156126ac578082015181840152602081019050612691565b838111156126bb576000848401525b50505050565b6000601f19601f8301169050919050565b60006126dd82612672565b6126e7818561267d565b93506126f781856020860161268e565b612700816126c1565b840191505092915050565b6000602082019050818103600083015261272581846126d2565b905092915050565b6000819050919050565b6127408161272d565b811461274b57600080fd5b50565b60008135905061275d81612737565b92915050565b600060208284031215612779576127786125ad565b5b60006127878482850161274e565b91505092915050565b600073ffffffffffffffffffffffffffffffffffffffff82169050919050565b60006127bb82612790565b9050919050565b6127cb816127b0565b82525050565b60006020820190506127e660008301846127c2565b92915050565b6127f5816127b0565b811461280057600080fd5b50565b600081359050612812816127ec565b92915050565b6000806040838503121561282f5761282e6125ad565b5b600061283d85828601612803565b925050602061284e8582860161274e565b9150509250929050565b6128618161272d565b82525050565b600060208201905061287c6000830184612858565b92915050565b60008060006060848603121561289b5761289a6125ad565b5b60006128a986828701612803565b93505060206128ba86828701612803565b92505060406128cb8682870161274e565b9150509250925092565b6128de8161272d565b82525050565b6128ed816127b0565b82525050565b60a08201600082015161290960008501826128d5565b50602082015161291c60208501826128d5565b50604082015161292f60408501826128e4565b50606082015161294260608501826128d5565b50608082015161295560808501826128d5565b50505050565b600060a08201905061297060008301846128f3565b92915050565b60006020828403121561298c5761298b6125ad565b5b600061299a84828501612803565b91505092915050565b6129ac8161263c565b81146129b757600080fd5b50565b6000813590506129c9816129a3565b92915050565b600080604083850312156129e6576129e56125ad565b5b60006129f485828601612803565b9250506020612a05858286016129ba565b9150509250929050565b600081519050919050565b600082825260208201905092915050565b6000819050602082019050919050565b60a082016000820151612a5160008501826128d5565b506020820151612a6460208501826128d5565b506040820151612a7760408501826128e4565b506060820151612a8a60608501826128d5565b506080820151612a9d60808501826128d5565b50505050565b6000612aaf8383612a3b565b60a08301905092915050565b6000602082019050919050565b6000612ad382612a0f565b612add8185612a1a565b9350612ae883612a2b565b8060005b83811015612b19578151612b008882612aa3565b9750612b0b83612abb565b925050600181019050612aec565b5085935050505092915050565b60006020820190508181036000830152612b408184612ac8565b905092915050565b600080fd5b600080fd5b7f4e487b7100000000000000000000000000000000000000000000000000000000600052604160045260246000fd5b612b8a826126c1565b810181811067ffffffffffffffff82111715612ba957612ba8612b52565b5b80604052505050565b6000612bbc6125a3565b9050612bc88282612b81565b919050565b600067ffffffffffffffff821115612be857612be7612b52565b5b612bf1826126c1565b9050602081019050919050565b82818337600083830152505050565b6000612c20612c1b84612bcd565b612bb2565b905082815260208101848484011115612c3c57612c3b612b4d565b5b612c47848285612bfe565b509392505050565b600082601f830112612c6457612c63612b48565b5b8135612c74848260208601612c0d565b91505092915050565b60008060008060808587031215612c9757612c966125ad565b5b6000612ca587828801612803565b9450506020612cb687828801612803565b9350506040612cc78782880161274e565b925050606085013567ffffffffffffffff811115612ce857612ce76125b2565b5b612cf487828801612c4f565b91505092959194509250565b600067ffffffffffffffff821115612d1b57612d1a612b52565b5b612d24826126c1565b9050602081019050919050565b6000612d44612d3f84612d00565b612bb2565b905082815260208101848484011115612d6057612d5f612b4d565b5b612d6b848285612bfe565b509392505050565b600082601f830112612d8857612d87612b48565b5b8135612d98848260208601612d31565b91505092915050565b600080600060608486031215612dba57612db96125ad565b5b6000612dc88682870161274e565b9350506020612dd98682870161274e565b925050604084013567ffffffffffffffff811115612dfa57612df96125b2565b5b612e0686828701612d73565b9150509250925092565b60008060408385031215612e2757612e266125ad565b5b6000612e3585828601612803565b9250506020612e4685828601612803565b9150509250929050565b7f4e487b7100000000000000000000000000000000000000000000000000000000600052602260045260246000fd5b60006002820490506001821680612e9757607f821691505b602082108103612eaa57612ea9612e50565b5b50919050565b7f4552433732313a20617070726f76616c20746f2063757272656e74206f776e6560008201527f7200000000000000000000000000000000000000000000000000000000000000602082015250565b6000612f0c60218361267d565b9150612f1782612eb0565b604082019050919050565b60006020820190508181036000830152612f3b81612eff565b9050919050565b7f4552433732313a20617070726f76652063616c6c6572206973206e6f7420746f60008201527f6b656e206f776e6572206f7220617070726f76656420666f7220616c6c000000602082015250565b6000612f9e603d8361267d565b9150612fa982612f42565b604082019050919050565b60006020820190508181036000830152612fcd81612f91565b9050919050565b7f4552433732313a2063616c6c6572206973206e6f7420746f6b656e206f776e6560008201527f72206f7220617070726f76656400000000000000000000000000000000000000602082015250565b6000613030602d8361267d565b915061303b82612fd4565b604082019050919050565b6000602082019050818103600083015261305f81613023565b9050919050565b7f496e646578206f7574206f6620626f756e647300000000000000000000000000600082015250565b600061309c60138361267d565b91506130a782613066565b602082019050919050565b600060208201905081810360008301526130cb8161308f565b9050919050565b7f4e487b7100000000000000000000000000000000000000000000000000000000600052603260045260246000fd5b7f4552433732313a20696e76616c696420746f6b656e2049440000000000000000600082015250565b600061313760188361267d565b915061314282613101565b602082019050919050565b600060208201905081810360008301526131668161312a565b9050919050565b7f4552433732313a2061646472657373207a65726f206973206e6f74206120766160008201527f6c6964206f776e65720000000000000000000000000000000000000000000000602082015250565b60006131c960298361267d565b91506131d48261316d565b604082019050919050565b600060208201905081810360008301526131f8816131bc565b9050919050565b7f4e487b7100000000000000000000000000000000000000000000000000000000600052601160045260246000fd5b60006132398261272d565b91507fffffffffffffffffffffffffffffffffffffffffffffffffffffffffffffffff820361326b5761326a6131ff565b5b600182019050919050565b600060608201905061328b60008301866127c2565b6132986020830185612858565b6132a56040830184612858565b949350505050565b60006060820190506132c26000830186612858565b6132cf6020830185612858565b6132dc6040830184612858565b949350505050565b600081905092915050565b60006132fa82612672565b61330481856132e4565b935061331481856020860161268e565b80840191505092915050565b600061332c82856132ef565b915061333882846132ef565b91508190509392505050565b7f4f776e61626c653a206e6577206f776e657220697320746865207a65726f206160008201527f6464726573730000000000000000000000000000000000000000000000000000602082015250565b60006133a060268361267d565b91506133ab82613344565b604082019050919050565b600060208201905081810360008301526133cf81613393565b9050919050565b7f4552433732313a207472616e736665722066726f6d20696e636f72726563742060008201527f6f776e6572000000000000000000000000000000000000000000000000000000602082015250565b600061343260258361267d565b915061343d826133d6565b604082019050919050565b6000602082019050818103600083015261346181613425565b9050919050565b7f4552433732313a207472616e7366657220746f20746865207a65726f2061646460008201527f7265737300000000000000000000000000000000000000000000000000000000602082015250565b60006134c460248361267d565b91506134cf82613468565b604082019050919050565b600060208201905081810360008301526134f3816134b7565b9050919050565b7f4f776e61626c653a2063616c6c6572206973206e6f7420746865206f776e6572600082015250565b600061353060208361267d565b915061353b826134fa565b602082019050919050565b6000602082019050818103600083015261355f81613523565b9050919050565b7f4552433732313a20617070726f766520746f2063616c6c657200000000000000600082015250565b600061359c60198361267d565b91506135a782613566565b602082019050919050565b600060208201905081810360008301526135cb8161358f565b9050919050565b7f4552433732313a207472616e7366657220746f206e6f6e20455243373231526560008201527f63656976657220696d706c656d656e7465720000000000000000000000000000602082015250565b600061362e60328361267d565b9150613639826135d2565b604082019050919050565b6000602082019050818103600083015261365d81613621565b9050919050565b7f45524337323155524953746f726167653a2055524920736574206f66206e6f6e60008201527f6578697374656e7420746f6b656e000000000000000000000000000000000000602082015250565b60006136c0602e8361267d565b91506136cb82613664565b604082019050919050565b600060208201905081810360008301526136ef816136b3565b9050919050565b600081519050919050565b600082825260208201905092915050565b600061371d826136f6565b6137278185613701565b935061373781856020860161268e565b613740816126c1565b840191505092915050565b600060808201905061376060008301876127c2565b61376d60208301866127c2565b61377a6040830185612858565b818103606083015261378c8184613712565b905095945050505050565b6000815190506137a6816125e3565b92915050565b6000602082840312156137c2576137c16125ad565b5b60006137d084828501613797565b91505092915050565b7f4e487b7100000000000000000000000000000000000000000000000000000000600052601260045260246000fd5b7f4552433732313a206d696e7420746f20746865207a65726f2061646472657373600082015250565b600061383e60208361267d565b915061384982613808565b602082019050919050565b6000602082019050818103600083015261386d81613831565b9050919050565b7f4552433732313a20746f6b656e20616c7265616479206d696e74656400000000600082015250565b60006138aa601c8361267d565b91506138b582613874565b602082019050919050565b600060208201905081810360008301526138d98161389d565b905091905056fea2646970667358221220c081b5a08e31b61ad7b0fd535f37512743300c08680e70afcf483beae5eef6cd64736f6c634300080d0033",
  "immutableReferences": {},
  "source": "// SPDX-License-Identifier: MIT\npragma solidity ^0.8.13;\n\nimport \"@openzeppelin/contracts/token/ERC721/extensions/ERC721URIStorage.sol\";\nimport \"@openzeppelin/contracts/access/Ownable.sol\";\nimport \"./CarbonMarket.sol\";\n\ncontract Retirement is ERC721URIStorage, Ownable {\n    struct RetirementItem {\n        uint256 tokenId;\n        uint256 amount;\n        address owner;\n        uint256 projectId;\n        uint256 timestamp;\n    }\n\n    event RetirementItemCreated(\n        uint256 tokenId,\n        uint256 projectId,\n        uint256 amount\n    );\n\n    uint256 private _retirementIdCounter;\n    mapping(uint256 => RetirementItem) private _idToRetirementItem;\n    mapping(address => mapping(uint256 => uint256)) private _ownedTokens;\n    mapping(uint256 => uint256) private _idToOwnedIndex;\n\n    uint256[] private _allRetirements;\n    mapping(uint256 => uint256) private _idToRetirementIndex;\n\n    CarbonMarket private _market;\n\n    constructor(address _marketAddress) ERC721(\"RetirementToken\", \"RT\") {\n        _market = CarbonMarket(_marketAddress);\n    }\n\n    function retireCredits(\n        uint256 projectId,\n        uint256 amount,\n        string memory uri\n    ) public {\n        _market.retireCredits(msg.sender, projectId, amount);\n\n        _retirementIdCounter++;\n        uint256 newTokenId = _retirementIdCounter;\n\n        _safeMint(msg.sender, newTokenId);\n        _setTokenURI(newTokenId, uri);\n\n        _createRetirementItem(newTokenId, projectId, amount);\n        emit RetirementItemCreated(newTokenId, projectId, amount);\n    }\n\n    function getRetirementItem(\n        uint256 tokenId\n    ) public view returns (RetirementItem memory) {\n        return _idToRetirementItem[tokenId];\n    }\n\n    function getOwnedRetirements()\n        public\n        view\n        returns (RetirementItem[] memory)\n    {\n        uint256 ownedItemCount = ERC721.balanceOf(msg.sender);\n        RetirementItem[] memory items = new RetirementItem[](ownedItemCount);\n\n        for (uint256 i = 0; i < ownedItemCount; i++) {\n            uint256 tokenId = tokenOfOwnerByIndex(msg.sender, i);\n            RetirementItem storage item = _idToRetirementItem[tokenId];\n            items[i] = item;\n        }\n\n        return items;\n    }\n\n    function getAllRetirements() public view returns (RetirementItem[] memory) {\n        uint256 allItemsCount = _allRetirements.length;\n        RetirementItem[] memory items = new RetirementItem[](allItemsCount);\n\n        for (uint256 i = 0; i < allItemsCount; i++) {\n            uint256 tokenId = tokenByIndex(i);\n            RetirementItem storage item = _idToRetirementItem[tokenId];\n            items[i] = item;\n        }\n\n        return items;\n    }\n\n    function tokenOfOwnerByIndex(\n        address owner,\n        uint256 index\n    ) public view returns (uint256) {\n        require(index < ERC721.balanceOf(owner), \"Index out of bounds\");\n        return _ownedTokens[owner][index];\n    }\n\n    function tokenByIndex(uint256 index) public view returns (uint256) {\n        require(index < totalSupply(), \"Index out of bounds\");\n        return _allRetirements[index];\n    }\n\n    function totalSupply() public view returns (uint256) {\n        return _allRetirements.length;\n    }\n\n    function _createRetirementItem(\n        uint256 tokenId,\n        uint256 projectId,\n        uint256 amount\n    ) private {\n        _idToRetirementItem[tokenId] = RetirementItem({\n            tokenId: tokenId,\n            amount: amount,\n            owner: msg.sender,\n            projectId: projectId,\n            timestamp: block.timestamp\n        });\n\n        // _addTokenToAllTokensEnumeration(tokenId);\n        // _addTokenToOwnerEnumeration(msg.sender, tokenId);\n    }\n\n    function _beforeTokenTransfer(\n        address from,\n        address to,\n        uint256 tokenId,\n        uint256 amount\n    ) internal virtual override {\n        super._beforeTokenTransfer(from, to, tokenId, amount);\n\n        if (from == address(0)) {   // mint\n            _addTokenToAllTokensEnumeration(tokenId);\n        }\n\n        if (to != address(0)) {\n            _addTokenToOwnerEnumeration(to, tokenId);\n        }\n    }\n\n    function _addTokenToAllTokensEnumeration(uint256 tokenId) private {\n        _idToRetirementIndex[tokenId] = _allRetirements.length;\n        _allRetirements.push(tokenId);\n    }\n\n    function _addTokenToOwnerEnumeration(address to, uint256 tokenId) private {\n        uint256 length = ERC721.balanceOf(to);\n        _ownedTokens[to][length] = tokenId;\n        _idToOwnedIndex[tokenId] = length;\n    }\n}\n",
  "sourcePath": "/Users/buudinhha/Vscode/DATN/main/contracts/Retirement.sol",
  "compiler": {
    "name": "solc",
    "version": "0.8.13+commit.abaa5c0e.Emscripten.clang"
  },
  "schemaVersion": "3.4.16",
  "updatedAt": "2024-06-06T17:27:03.783Z",
  "networkType": "ethereum",
  "devdoc": {
    "kind": "dev",
    "methods": {
      "approve(address,uint256)": {
        "details": "See {IERC721-approve}."
      },
      "balanceOf(address)": {
        "details": "See {IERC721-balanceOf}."
      },
      "getApproved(uint256)": {
        "details": "See {IERC721-getApproved}."
      },
      "isApprovedForAll(address,address)": {
        "details": "See {IERC721-isApprovedForAll}."
      },
      "name()": {
        "details": "See {IERC721Metadata-name}."
      },
      "owner()": {
        "details": "Returns the address of the current owner."
      },
      "ownerOf(uint256)": {
        "details": "See {IERC721-ownerOf}."
      },
      "renounceOwnership()": {
        "details": "Leaves the contract without owner. It will not be possible to call `onlyOwner` functions. Can only be called by the current owner. NOTE: Renouncing ownership will leave the contract without an owner, thereby disabling any functionality that is only available to the owner."
      },
      "safeTransferFrom(address,address,uint256)": {
        "details": "See {IERC721-safeTransferFrom}."
      },
      "safeTransferFrom(address,address,uint256,bytes)": {
        "details": "See {IERC721-safeTransferFrom}."
      },
      "setApprovalForAll(address,bool)": {
        "details": "See {IERC721-setApprovalForAll}."
      },
      "supportsInterface(bytes4)": {
        "details": "See {IERC165-supportsInterface}"
      },
      "symbol()": {
        "details": "See {IERC721Metadata-symbol}."
      },
      "tokenURI(uint256)": {
        "details": "See {IERC721Metadata-tokenURI}."
      },
      "transferFrom(address,address,uint256)": {
        "details": "See {IERC721-transferFrom}."
      },
      "transferOwnership(address)": {
        "details": "Transfers ownership of the contract to a new account (`newOwner`). Can only be called by the current owner."
      }
    },
    "version": 1
  },
  "userdoc": {
    "kind": "user",
    "methods": {},
    "version": 1
  }
}